{
	"libraries/erc20.sol": {
		"ERC20": {
			"abi": [
				{
					"inputs": [
						{
							"internalType": "string",
							"name": "name_",
							"type": "string"
						},
						{
							"internalType": "string",
							"name": "symbol_",
							"type": "string"
						}
					],
					"stateMutability": "nonpayable",
					"type": "constructor"
				},
				{
					"anonymous": false,
					"inputs": [
						{
							"indexed": true,
							"internalType": "address",
							"name": "owner",
							"type": "address"
						},
						{
							"indexed": true,
							"internalType": "address",
							"name": "spender",
							"type": "address"
						},
						{
							"indexed": false,
							"internalType": "uint256",
							"name": "value",
							"type": "uint256"
						}
					],
					"name": "Approval",
					"type": "event"
				},
				{
					"anonymous": false,
					"inputs": [
						{
							"indexed": true,
							"internalType": "address",
							"name": "from",
							"type": "address"
						},
						{
							"indexed": true,
							"internalType": "address",
							"name": "to",
							"type": "address"
						},
						{
							"indexed": false,
							"internalType": "uint256",
							"name": "value",
							"type": "uint256"
						}
					],
					"name": "Transfer",
					"type": "event"
				},
				{
					"inputs": [
						{
							"internalType": "address",
							"name": "owner",
							"type": "address"
						},
						{
							"internalType": "address",
							"name": "spender",
							"type": "address"
						}
					],
					"name": "allowance",
					"outputs": [
						{
							"internalType": "uint256",
							"name": "",
							"type": "uint256"
						}
					],
					"stateMutability": "view",
					"type": "function"
				},
				{
					"inputs": [
						{
							"internalType": "address",
							"name": "spender",
							"type": "address"
						},
						{
							"internalType": "uint256",
							"name": "amount",
							"type": "uint256"
						}
					],
					"name": "approve",
					"outputs": [
						{
							"internalType": "bool",
							"name": "",
							"type": "bool"
						}
					],
					"stateMutability": "nonpayable",
					"type": "function"
				},
				{
					"inputs": [
						{
							"internalType": "address",
							"name": "account",
							"type": "address"
						}
					],
					"name": "balanceOf",
					"outputs": [
						{
							"internalType": "uint256",
							"name": "",
							"type": "uint256"
						}
					],
					"stateMutability": "view",
					"type": "function"
				},
				{
					"inputs": [],
					"name": "decimals",
					"outputs": [
						{
							"internalType": "uint8",
							"name": "",
							"type": "uint8"
						}
					],
					"stateMutability": "view",
					"type": "function"
				},
				{
					"inputs": [],
					"name": "getName",
					"outputs": [
						{
							"internalType": "string",
							"name": "",
							"type": "string"
						}
					],
					"stateMutability": "view",
					"type": "function"
				},
				{
					"inputs": [],
					"name": "getSymbol",
					"outputs": [
						{
							"internalType": "string",
							"name": "",
							"type": "string"
						}
					],
					"stateMutability": "view",
					"type": "function"
				},
				{
					"inputs": [],
					"name": "totalSupply",
					"outputs": [
						{
							"internalType": "uint256",
							"name": "",
							"type": "uint256"
						}
					],
					"stateMutability": "view",
					"type": "function"
				},
				{
					"inputs": [
						{
							"internalType": "address",
							"name": "recipient",
							"type": "address"
						},
						{
							"internalType": "uint256",
							"name": "amount",
							"type": "uint256"
						}
					],
					"name": "transfer",
					"outputs": [
						{
							"internalType": "bool",
							"name": "",
							"type": "bool"
						}
					],
					"stateMutability": "nonpayable",
					"type": "function"
				},
				{
					"inputs": [
						{
							"internalType": "address",
							"name": "sender",
							"type": "address"
						},
						{
							"internalType": "address",
							"name": "recipient",
							"type": "address"
						},
						{
							"internalType": "uint256",
							"name": "amount",
							"type": "uint256"
						}
					],
					"name": "transferFrom",
					"outputs": [
						{
							"internalType": "bool",
							"name": "",
							"type": "bool"
						}
					],
					"stateMutability": "nonpayable",
					"type": "function"
				}
			],
			"devdoc": {
				"kind": "dev",
				"methods": {},
				"version": 1
			},
			"evm": {
				"assembly": "    /* \"libraries/erc20.sol\":1293:6998  contract ERC20 is IERC20 {... */\n  mstore(0x40, 0x80)\n    /* \"libraries/erc20.sol\":1837:1950  constructor(string memory name_, string memory symbol_) {... */\n  callvalue\n  dup1\n  iszero\n  tag_1\n  jumpi\n  0x00\n  dup1\n  revert\ntag_1:\n  pop\n  mload(0x40)\n  sub(codesize, bytecodeSize)\n  dup1\n  bytecodeSize\n  dup4\n  codecopy\n  dup2\n  dup2\n  add\n  0x40\n  mstore\n  dup2\n  add\n  swap1\n  tag_2\n  swap2\n  swap1\n  tag_3\n  jump\t// in\ntag_2:\n    /* \"libraries/erc20.sol\":1911:1916  name_ */\n  dup2\n    /* \"libraries/erc20.sol\":1903:1908  _name */\n  0x03\n    /* \"libraries/erc20.sol\":1903:1916  _name = name_ */\n  swap1\n  dup1\n  mload\n  swap1\n  0x20\n  add\n  swap1\n  tag_6\n  swap3\n  swap2\n  swap1\n  tag_7\n  jump\t// in\ntag_6:\n  pop\n    /* \"libraries/erc20.sol\":1936:1943  symbol_ */\n  dup1\n    /* \"libraries/erc20.sol\":1926:1933  _symbol */\n  0x04\n    /* \"libraries/erc20.sol\":1926:1943  _symbol = symbol_ */\n  swap1\n  dup1\n  mload\n  swap1\n  0x20\n  add\n  swap1\n  tag_8\n  swap3\n  swap2\n  swap1\n  tag_7\n  jump\t// in\ntag_8:\n  pop\n    /* \"libraries/erc20.sol\":1837:1950  constructor(string memory name_, string memory symbol_) {... */\n  pop\n  pop\n    /* \"libraries/erc20.sol\":1293:6998  contract ERC20 is IERC20 {... */\n  jump(tag_9)\ntag_7:\n  dup3\n  dup1\n  sload\n  tag_10\n  swap1\n  tag_11\n  jump\t// in\ntag_10:\n  swap1\n  0x00\n  mstore\n  keccak256(0x00, 0x20)\n  swap1\n  0x1f\n  add\n  0x20\n  swap1\n  div\n  dup2\n  add\n  swap3\n  dup3\n  tag_13\n  jumpi\n  0x00\n  dup6\n  sstore\n  jump(tag_12)\ntag_13:\n  dup3\n  0x1f\n  lt\n  tag_14\n  jumpi\n  dup1\n  mload\n  not(0xff)\n  and\n  dup4\n  dup1\n  add\n  or\n  dup6\n  sstore\n  jump(tag_12)\ntag_14:\n  dup3\n  dup1\n  add\n  0x01\n  add\n  dup6\n  sstore\n  dup3\n  iszero\n  tag_12\n  jumpi\n  swap2\n  dup3\n  add\ntag_15:\n  dup3\n  dup2\n  gt\n  iszero\n  tag_16\n  jumpi\n  dup3\n  mload\n  dup3\n  sstore\n  swap2\n  0x20\n  add\n  swap2\n  swap1\n  0x01\n  add\n  swap1\n  jump(tag_15)\ntag_16:\ntag_12:\n  pop\n  swap1\n  pop\n  tag_17\n  swap2\n  swap1\n  tag_18\n  jump\t// in\ntag_17:\n  pop\n  swap1\n  jump\t// out\ntag_18:\ntag_19:\n  dup1\n  dup3\n  gt\n  iszero\n  tag_20\n  jumpi\n  0x00\n  dup2\n  0x00\n  swap1\n  sstore\n  pop\n  0x01\n  add\n  jump(tag_19)\ntag_20:\n  pop\n  swap1\n  jump\t// out\n    /* \"#utility.yul\":7:428   */\ntag_22:\n    /* \"#utility.yul\":96:101   */\n  0x00\n    /* \"#utility.yul\":121:187   */\n  tag_24\n    /* \"#utility.yul\":137:186   */\n  tag_25\n    /* \"#utility.yul\":179:185   */\n  dup5\n    /* \"#utility.yul\":137:186   */\n  tag_26\n  jump\t// in\ntag_25:\n    /* \"#utility.yul\":121:187   */\n  tag_27\n  jump\t// in\ntag_24:\n    /* \"#utility.yul\":112:187   */\n  swap1\n  pop\n    /* \"#utility.yul\":210:216   */\n  dup3\n    /* \"#utility.yul\":203:208   */\n  dup2\n    /* \"#utility.yul\":196:217   */\n  mstore\n    /* \"#utility.yul\":248:252   */\n  0x20\n    /* \"#utility.yul\":241:246   */\n  dup2\n    /* \"#utility.yul\":237:253   */\n  add\n    /* \"#utility.yul\":286:289   */\n  dup5\n    /* \"#utility.yul\":277:283   */\n  dup5\n    /* \"#utility.yul\":272:275   */\n  dup5\n    /* \"#utility.yul\":268:284   */\n  add\n    /* \"#utility.yul\":265:290   */\n  gt\n    /* \"#utility.yul\":262:374   */\n  iszero\n  tag_28\n  jumpi\n    /* \"#utility.yul\":293:372   */\n  tag_29\n  tag_30\n  jump\t// in\ntag_29:\n    /* \"#utility.yul\":262:374   */\ntag_28:\n    /* \"#utility.yul\":383:422   */\n  tag_31\n    /* \"#utility.yul\":415:421   */\n  dup5\n    /* \"#utility.yul\":410:413   */\n  dup3\n    /* \"#utility.yul\":405:408   */\n  dup6\n    /* \"#utility.yul\":383:422   */\n  tag_32\n  jump\t// in\ntag_31:\n    /* \"#utility.yul\":102:428   */\n  pop\n    /* \"#utility.yul\":7:428   */\n  swap4\n  swap3\n  pop\n  pop\n  pop\n  jump\t// out\n    /* \"#utility.yul\":448:803   */\ntag_33:\n    /* \"#utility.yul\":515:520   */\n  0x00\n    /* \"#utility.yul\":564:567   */\n  dup3\n    /* \"#utility.yul\":557:561   */\n  0x1f\n    /* \"#utility.yul\":549:555   */\n  dup4\n    /* \"#utility.yul\":545:562   */\n  add\n    /* \"#utility.yul\":541:568   */\n  slt\n    /* \"#utility.yul\":531:653   */\n  tag_35\n  jumpi\n    /* \"#utility.yul\":572:651   */\n  tag_36\n  tag_37\n  jump\t// in\ntag_36:\n    /* \"#utility.yul\":531:653   */\ntag_35:\n    /* \"#utility.yul\":682:688   */\n  dup2\n    /* \"#utility.yul\":676:689   */\n  mload\n    /* \"#utility.yul\":707:797   */\n  tag_38\n    /* \"#utility.yul\":793:796   */\n  dup5\n    /* \"#utility.yul\":785:791   */\n  dup3\n    /* \"#utility.yul\":778:782   */\n  0x20\n    /* \"#utility.yul\":770:776   */\n  dup7\n    /* \"#utility.yul\":766:783   */\n  add\n    /* \"#utility.yul\":707:797   */\n  tag_22\n  jump\t// in\ntag_38:\n    /* \"#utility.yul\":698:797   */\n  swap2\n  pop\n    /* \"#utility.yul\":521:803   */\n  pop\n    /* \"#utility.yul\":448:803   */\n  swap3\n  swap2\n  pop\n  pop\n  jump\t// out\n    /* \"#utility.yul\":809:1662   */\ntag_3:\n    /* \"#utility.yul\":908:914   */\n  0x00\n    /* \"#utility.yul\":916:922   */\n  dup1\n    /* \"#utility.yul\":965:967   */\n  0x40\n    /* \"#utility.yul\":953:962   */\n  dup4\n    /* \"#utility.yul\":944:951   */\n  dup6\n    /* \"#utility.yul\":940:963   */\n  sub\n    /* \"#utility.yul\":936:968   */\n  slt\n    /* \"#utility.yul\":933:1052   */\n  iszero\n  tag_40\n  jumpi\n    /* \"#utility.yul\":971:1050   */\n  tag_41\n  tag_42\n  jump\t// in\ntag_41:\n    /* \"#utility.yul\":933:1052   */\ntag_40:\n    /* \"#utility.yul\":1112:1113   */\n  0x00\n    /* \"#utility.yul\":1101:1110   */\n  dup4\n    /* \"#utility.yul\":1097:1114   */\n  add\n    /* \"#utility.yul\":1091:1115   */\n  mload\n    /* \"#utility.yul\":1142:1160   */\n  0xffffffffffffffff\n    /* \"#utility.yul\":1134:1140   */\n  dup2\n    /* \"#utility.yul\":1131:1161   */\n  gt\n    /* \"#utility.yul\":1128:1245   */\n  iszero\n  tag_43\n  jumpi\n    /* \"#utility.yul\":1164:1243   */\n  tag_44\n  tag_45\n  jump\t// in\ntag_44:\n    /* \"#utility.yul\":1128:1245   */\ntag_43:\n    /* \"#utility.yul\":1269:1343   */\n  tag_46\n    /* \"#utility.yul\":1335:1342   */\n  dup6\n    /* \"#utility.yul\":1326:1332   */\n  dup3\n    /* \"#utility.yul\":1315:1324   */\n  dup7\n    /* \"#utility.yul\":1311:1333   */\n  add\n    /* \"#utility.yul\":1269:1343   */\n  tag_33\n  jump\t// in\ntag_46:\n    /* \"#utility.yul\":1259:1343   */\n  swap3\n  pop\n    /* \"#utility.yul\":1062:1353   */\n  pop\n    /* \"#utility.yul\":1413:1415   */\n  0x20\n    /* \"#utility.yul\":1402:1411   */\n  dup4\n    /* \"#utility.yul\":1398:1416   */\n  add\n    /* \"#utility.yul\":1392:1417   */\n  mload\n    /* \"#utility.yul\":1444:1462   */\n  0xffffffffffffffff\n    /* \"#utility.yul\":1436:1442   */\n  dup2\n    /* \"#utility.yul\":1433:1463   */\n  gt\n    /* \"#utility.yul\":1430:1547   */\n  iszero\n  tag_47\n  jumpi\n    /* \"#utility.yul\":1466:1545   */\n  tag_48\n  tag_45\n  jump\t// in\ntag_48:\n    /* \"#utility.yul\":1430:1547   */\ntag_47:\n    /* \"#utility.yul\":1571:1645   */\n  tag_49\n    /* \"#utility.yul\":1637:1644   */\n  dup6\n    /* \"#utility.yul\":1628:1634   */\n  dup3\n    /* \"#utility.yul\":1617:1626   */\n  dup7\n    /* \"#utility.yul\":1613:1635   */\n  add\n    /* \"#utility.yul\":1571:1645   */\n  tag_33\n  jump\t// in\ntag_49:\n    /* \"#utility.yul\":1561:1645   */\n  swap2\n  pop\n    /* \"#utility.yul\":1363:1655   */\n  pop\n    /* \"#utility.yul\":809:1662   */\n  swap3\n  pop\n  swap3\n  swap1\n  pop\n  jump\t// out\n    /* \"#utility.yul\":1668:1797   */\ntag_27:\n    /* \"#utility.yul\":1702:1708   */\n  0x00\n    /* \"#utility.yul\":1729:1749   */\n  tag_51\n  tag_52\n  jump\t// in\ntag_51:\n    /* \"#utility.yul\":1719:1749   */\n  swap1\n  pop\n    /* \"#utility.yul\":1758:1791   */\n  tag_53\n    /* \"#utility.yul\":1786:1790   */\n  dup3\n    /* \"#utility.yul\":1778:1784   */\n  dup3\n    /* \"#utility.yul\":1758:1791   */\n  tag_54\n  jump\t// in\ntag_53:\n    /* \"#utility.yul\":1668:1797   */\n  swap2\n  swap1\n  pop\n  jump\t// out\n    /* \"#utility.yul\":1803:1878   */\ntag_52:\n    /* \"#utility.yul\":1836:1842   */\n  0x00\n    /* \"#utility.yul\":1869:1871   */\n  0x40\n    /* \"#utility.yul\":1863:1872   */\n  mload\n    /* \"#utility.yul\":1853:1872   */\n  swap1\n  pop\n    /* \"#utility.yul\":1803:1878   */\n  swap1\n  jump\t// out\n    /* \"#utility.yul\":1884:2192   */\ntag_26:\n    /* \"#utility.yul\":1946:1950   */\n  0x00\n    /* \"#utility.yul\":2036:2054   */\n  0xffffffffffffffff\n    /* \"#utility.yul\":2028:2034   */\n  dup3\n    /* \"#utility.yul\":2025:2055   */\n  gt\n    /* \"#utility.yul\":2022:2078   */\n  iszero\n  tag_57\n  jumpi\n    /* \"#utility.yul\":2058:2076   */\n  tag_58\n  tag_59\n  jump\t// in\ntag_58:\n    /* \"#utility.yul\":2022:2078   */\ntag_57:\n    /* \"#utility.yul\":2096:2125   */\n  tag_60\n    /* \"#utility.yul\":2118:2124   */\n  dup3\n    /* \"#utility.yul\":2096:2125   */\n  tag_61\n  jump\t// in\ntag_60:\n    /* \"#utility.yul\":2088:2125   */\n  swap1\n  pop\n    /* \"#utility.yul\":2180:2184   */\n  0x20\n    /* \"#utility.yul\":2174:2178   */\n  dup2\n    /* \"#utility.yul\":2170:2185   */\n  add\n    /* \"#utility.yul\":2162:2185   */\n  swap1\n  pop\n    /* \"#utility.yul\":1884:2192   */\n  swap2\n  swap1\n  pop\n  jump\t// out\n    /* \"#utility.yul\":2198:2505   */\ntag_32:\n    /* \"#utility.yul\":2266:2267   */\n  0x00\n    /* \"#utility.yul\":2276:2389   */\ntag_63:\n    /* \"#utility.yul\":2290:2296   */\n  dup4\n    /* \"#utility.yul\":2287:2288   */\n  dup2\n    /* \"#utility.yul\":2284:2297   */\n  lt\n    /* \"#utility.yul\":2276:2389   */\n  iszero\n  tag_65\n  jumpi\n    /* \"#utility.yul\":2375:2376   */\n  dup1\n    /* \"#utility.yul\":2370:2373   */\n  dup3\n    /* \"#utility.yul\":2366:2377   */\n  add\n    /* \"#utility.yul\":2360:2378   */\n  mload\n    /* \"#utility.yul\":2356:2357   */\n  dup2\n    /* \"#utility.yul\":2351:2354   */\n  dup5\n    /* \"#utility.yul\":2347:2358   */\n  add\n    /* \"#utility.yul\":2340:2379   */\n  mstore\n    /* \"#utility.yul\":2312:2314   */\n  0x20\n    /* \"#utility.yul\":2309:2310   */\n  dup2\n    /* \"#utility.yul\":2305:2315   */\n  add\n    /* \"#utility.yul\":2300:2315   */\n  swap1\n  pop\n    /* \"#utility.yul\":2276:2389   */\n  jump(tag_63)\ntag_65:\n    /* \"#utility.yul\":2407:2413   */\n  dup4\n    /* \"#utility.yul\":2404:2405   */\n  dup2\n    /* \"#utility.yul\":2401:2414   */\n  gt\n    /* \"#utility.yul\":2398:2499   */\n  iszero\n  tag_66\n  jumpi\n    /* \"#utility.yul\":2487:2488   */\n  0x00\n    /* \"#utility.yul\":2478:2484   */\n  dup5\n    /* \"#utility.yul\":2473:2476   */\n  dup5\n    /* \"#utility.yul\":2469:2485   */\n  add\n    /* \"#utility.yul\":2462:2489   */\n  mstore\n    /* \"#utility.yul\":2398:2499   */\ntag_66:\n    /* \"#utility.yul\":2247:2505   */\n  pop\n    /* \"#utility.yul\":2198:2505   */\n  pop\n  pop\n  pop\n  jump\t// out\n    /* \"#utility.yul\":2511:2831   */\ntag_11:\n    /* \"#utility.yul\":2555:2561   */\n  0x00\n    /* \"#utility.yul\":2592:2593   */\n  0x02\n    /* \"#utility.yul\":2586:2590   */\n  dup3\n    /* \"#utility.yul\":2582:2594   */\n  div\n    /* \"#utility.yul\":2572:2594   */\n  swap1\n  pop\n    /* \"#utility.yul\":2639:2640   */\n  0x01\n    /* \"#utility.yul\":2633:2637   */\n  dup3\n    /* \"#utility.yul\":2629:2641   */\n  and\n    /* \"#utility.yul\":2660:2678   */\n  dup1\n    /* \"#utility.yul\":2650:2731   */\n  tag_68\n  jumpi\n    /* \"#utility.yul\":2716:2720   */\n  0x7f\n    /* \"#utility.yul\":2708:2714   */\n  dup3\n    /* \"#utility.yul\":2704:2721   */\n  and\n    /* \"#utility.yul\":2694:2721   */\n  swap2\n  pop\n    /* \"#utility.yul\":2650:2731   */\ntag_68:\n    /* \"#utility.yul\":2778:2780   */\n  0x20\n    /* \"#utility.yul\":2770:2776   */\n  dup3\n    /* \"#utility.yul\":2767:2781   */\n  lt\n    /* \"#utility.yul\":2747:2765   */\n  dup2\n    /* \"#utility.yul\":2744:2782   */\n  eq\n    /* \"#utility.yul\":2741:2825   */\n  iszero\n  tag_69\n  jumpi\n    /* \"#utility.yul\":2797:2815   */\n  tag_70\n  tag_71\n  jump\t// in\ntag_70:\n    /* \"#utility.yul\":2741:2825   */\ntag_69:\n    /* \"#utility.yul\":2562:2831   */\n  pop\n    /* \"#utility.yul\":2511:2831   */\n  swap2\n  swap1\n  pop\n  jump\t// out\n    /* \"#utility.yul\":2837:3118   */\ntag_54:\n    /* \"#utility.yul\":2920:2947   */\n  tag_73\n    /* \"#utility.yul\":2942:2946   */\n  dup3\n    /* \"#utility.yul\":2920:2947   */\n  tag_61\n  jump\t// in\ntag_73:\n    /* \"#utility.yul\":2912:2918   */\n  dup2\n    /* \"#utility.yul\":2908:2948   */\n  add\n    /* \"#utility.yul\":3050:3056   */\n  dup2\n    /* \"#utility.yul\":3038:3048   */\n  dup2\n    /* \"#utility.yul\":3035:3057   */\n  lt\n    /* \"#utility.yul\":3014:3032   */\n  0xffffffffffffffff\n    /* \"#utility.yul\":3002:3012   */\n  dup3\n    /* \"#utility.yul\":2999:3033   */\n  gt\n    /* \"#utility.yul\":2996:3058   */\n  or\n    /* \"#utility.yul\":2993:3081   */\n  iszero\n  tag_74\n  jumpi\n    /* \"#utility.yul\":3061:3079   */\n  tag_75\n  tag_59\n  jump\t// in\ntag_75:\n    /* \"#utility.yul\":2993:3081   */\ntag_74:\n    /* \"#utility.yul\":3101:3111   */\n  dup1\n    /* \"#utility.yul\":3097:3099   */\n  0x40\n    /* \"#utility.yul\":3090:3112   */\n  mstore\n    /* \"#utility.yul\":2880:3118   */\n  pop\n    /* \"#utility.yul\":2837:3118   */\n  pop\n  pop\n  jump\t// out\n    /* \"#utility.yul\":3124:3304   */\ntag_71:\n    /* \"#utility.yul\":3172:3249   */\n  0x4e487b7100000000000000000000000000000000000000000000000000000000\n    /* \"#utility.yul\":3169:3170   */\n  0x00\n    /* \"#utility.yul\":3162:3250   */\n  mstore\n    /* \"#utility.yul\":3269:3273   */\n  0x22\n    /* \"#utility.yul\":3266:3267   */\n  0x04\n    /* \"#utility.yul\":3259:3274   */\n  mstore\n    /* \"#utility.yul\":3293:3297   */\n  0x24\n    /* \"#utility.yul\":3290:3291   */\n  0x00\n    /* \"#utility.yul\":3283:3298   */\n  revert\n    /* \"#utility.yul\":3310:3490   */\ntag_59:\n    /* \"#utility.yul\":3358:3435   */\n  0x4e487b7100000000000000000000000000000000000000000000000000000000\n    /* \"#utility.yul\":3355:3356   */\n  0x00\n    /* \"#utility.yul\":3348:3436   */\n  mstore\n    /* \"#utility.yul\":3455:3459   */\n  0x41\n    /* \"#utility.yul\":3452:3453   */\n  0x04\n    /* \"#utility.yul\":3445:3460   */\n  mstore\n    /* \"#utility.yul\":3479:3483   */\n  0x24\n    /* \"#utility.yul\":3476:3477   */\n  0x00\n    /* \"#utility.yul\":3469:3484   */\n  revert\n    /* \"#utility.yul\":3496:3613   */\ntag_37:\n    /* \"#utility.yul\":3605:3606   */\n  0x00\n    /* \"#utility.yul\":3602:3603   */\n  dup1\n    /* \"#utility.yul\":3595:3607   */\n  revert\n    /* \"#utility.yul\":3619:3736   */\ntag_30:\n    /* \"#utility.yul\":3728:3729   */\n  0x00\n    /* \"#utility.yul\":3725:3726   */\n  dup1\n    /* \"#utility.yul\":3718:3730   */\n  revert\n    /* \"#utility.yul\":3742:3859   */\ntag_45:\n    /* \"#utility.yul\":3851:3852   */\n  0x00\n    /* \"#utility.yul\":3848:3849   */\n  dup1\n    /* \"#utility.yul\":3841:3853   */\n  revert\n    /* \"#utility.yul\":3865:3982   */\ntag_42:\n    /* \"#utility.yul\":3974:3975   */\n  0x00\n    /* \"#utility.yul\":3971:3972   */\n  dup1\n    /* \"#utility.yul\":3964:3976   */\n  revert\n    /* \"#utility.yul\":3988:4090   */\ntag_61:\n    /* \"#utility.yul\":4029:4035   */\n  0x00\n    /* \"#utility.yul\":4080:4082   */\n  0x1f\n    /* \"#utility.yul\":4076:4083   */\n  not\n    /* \"#utility.yul\":4071:4073   */\n  0x1f\n    /* \"#utility.yul\":4064:4069   */\n  dup4\n    /* \"#utility.yul\":4060:4074   */\n  add\n    /* \"#utility.yul\":4056:4084   */\n  and\n    /* \"#utility.yul\":4046:4084   */\n  swap1\n  pop\n    /* \"#utility.yul\":3988:4090   */\n  swap2\n  swap1\n  pop\n  jump\t// out\n    /* \"libraries/erc20.sol\":1293:6998  contract ERC20 is IERC20 {... */\ntag_9:\n  dataSize(sub_0)\n  dup1\n  dataOffset(sub_0)\n  0x00\n  codecopy\n  0x00\n  return\nstop\n\nsub_0: assembly {\n        /* \"libraries/erc20.sol\":1293:6998  contract ERC20 is IERC20 {... */\n      mstore(0x40, 0x80)\n      callvalue\n      dup1\n      iszero\n      tag_1\n      jumpi\n      0x00\n      dup1\n      revert\n    tag_1:\n      pop\n      jumpi(tag_2, lt(calldatasize, 0x04))\n      shr(0xe0, calldataload(0x00))\n      dup1\n      0x23b872dd\n      gt\n      tag_12\n      jumpi\n      dup1\n      0x23b872dd\n      eq\n      tag_7\n      jumpi\n      dup1\n      0x313ce567\n      eq\n      tag_8\n      jumpi\n      dup1\n      0x70a08231\n      eq\n      tag_9\n      jumpi\n      dup1\n      0xa9059cbb\n      eq\n      tag_10\n      jumpi\n      dup1\n      0xdd62ed3e\n      eq\n      tag_11\n      jumpi\n      jump(tag_2)\n    tag_12:\n      dup1\n      0x095ea7b3\n      eq\n      tag_3\n      jumpi\n      dup1\n      0x15070401\n      eq\n      tag_4\n      jumpi\n      dup1\n      0x17d7de7c\n      eq\n      tag_5\n      jumpi\n      dup1\n      0x18160ddd\n      eq\n      tag_6\n      jumpi\n    tag_2:\n      0x00\n      dup1\n      revert\n        /* \"libraries/erc20.sol\":4041:4205  function approve(address spender, uint256 amount) public virtual override returns (bool) {... */\n    tag_3:\n      tag_13\n      0x04\n      dup1\n      calldatasize\n      sub\n      dup2\n      add\n      swap1\n      tag_14\n      swap2\n      swap1\n      tag_15\n      jump\t// in\n    tag_14:\n      tag_16\n      jump\t// in\n    tag_13:\n      mload(0x40)\n      tag_17\n      swap2\n      swap1\n      tag_18\n      jump\t// in\n    tag_17:\n      mload(0x40)\n      dup1\n      swap2\n      sub\n      swap1\n      return\n        /* \"libraries/erc20.sol\":2210:2306  function getSymbol() public view virtual returns (string memory) {... */\n    tag_4:\n      tag_19\n      tag_20\n      jump\t// in\n    tag_19:\n      mload(0x40)\n      tag_21\n      swap2\n      swap1\n      tag_22\n      jump\t// in\n    tag_21:\n      mload(0x40)\n      dup1\n      swap2\n      sub\n      swap1\n      return\n        /* \"libraries/erc20.sol\":2010:2102  function getName() public view virtual returns (string memory) {... */\n    tag_5:\n      tag_23\n      tag_24\n      jump\t// in\n    tag_23:\n      mload(0x40)\n      tag_25\n      swap2\n      swap1\n      tag_22\n      jump\t// in\n    tag_25:\n      mload(0x40)\n      dup1\n      swap2\n      sub\n      swap1\n      return\n        /* \"libraries/erc20.sol\":3062:3168  function totalSupply() public view virtual override returns (uint256) {... */\n    tag_6:\n      tag_26\n      tag_27\n      jump\t// in\n    tag_26:\n      mload(0x40)\n      tag_28\n      swap2\n      swap1\n      tag_29\n      jump\t// in\n    tag_28:\n      mload(0x40)\n      dup1\n      swap2\n      sub\n      swap1\n      return\n        /* \"libraries/erc20.sol\":4667:5141  function transferFrom(... */\n    tag_7:\n      tag_30\n      0x04\n      dup1\n      calldatasize\n      sub\n      dup2\n      add\n      swap1\n      tag_31\n      swap2\n      swap1\n      tag_32\n      jump\t// in\n    tag_31:\n      tag_33\n      jump\t// in\n    tag_30:\n      mload(0x40)\n      tag_34\n      swap2\n      swap1\n      tag_18\n      jump\t// in\n    tag_34:\n      mload(0x40)\n      dup1\n      swap2\n      sub\n      swap1\n      return\n        /* \"libraries/erc20.sol\":2925:3007  function decimals() public view virtual returns (uint8) {... */\n    tag_8:\n      tag_35\n      tag_36\n      jump\t// in\n    tag_35:\n      mload(0x40)\n      tag_37\n      swap2\n      swap1\n      tag_38\n      jump\t// in\n    tag_37:\n      mload(0x40)\n      dup1\n      swap2\n      sub\n      swap1\n      return\n        /* \"libraries/erc20.sol\":3221:3338  function balanceOf(address account) public view override returns (uint256) {... */\n    tag_9:\n      tag_39\n      0x04\n      dup1\n      calldatasize\n      sub\n      dup2\n      add\n      swap1\n      tag_40\n      swap2\n      swap1\n      tag_41\n      jump\t// in\n    tag_40:\n      tag_42\n      jump\t// in\n    tag_39:\n      mload(0x40)\n      tag_43\n      swap2\n      swap1\n      tag_29\n      jump\t// in\n    tag_43:\n      mload(0x40)\n      dup1\n      swap2\n      sub\n      swap1\n      return\n        /* \"libraries/erc20.sol\":3536:3706  function transfer(address recipient, uint256 amount) public virtual override returns (bool) {... */\n    tag_10:\n      tag_44\n      0x04\n      dup1\n      calldatasize\n      sub\n      dup2\n      add\n      swap1\n      tag_45\n      swap2\n      swap1\n      tag_15\n      jump\t// in\n    tag_45:\n      tag_46\n      jump\t// in\n    tag_44:\n      mload(0x40)\n      tag_47\n      swap2\n      swap1\n      tag_18\n      jump\t// in\n    tag_47:\n      mload(0x40)\n      dup1\n      swap2\n      sub\n      swap1\n      return\n        /* \"libraries/erc20.sol\":3759:3908  function allowance(address owner, address spender) public view virtual override returns (uint256) {... */\n    tag_11:\n      tag_48\n      0x04\n      dup1\n      calldatasize\n      sub\n      dup2\n      add\n      swap1\n      tag_49\n      swap2\n      swap1\n      tag_50\n      jump\t// in\n    tag_49:\n      tag_51\n      jump\t// in\n    tag_48:\n      mload(0x40)\n      tag_52\n      swap2\n      swap1\n      tag_29\n      jump\t// in\n    tag_52:\n      mload(0x40)\n      dup1\n      swap2\n      sub\n      swap1\n      return\n        /* \"libraries/erc20.sol\":4041:4205  function approve(address spender, uint256 amount) public virtual override returns (bool) {... */\n    tag_16:\n        /* \"libraries/erc20.sol\":4124:4128  bool */\n      0x00\n        /* \"libraries/erc20.sol\":4140:4177  _approve(msg.sender, spender, amount) */\n      tag_54\n        /* \"libraries/erc20.sol\":4149:4159  msg.sender */\n      caller\n        /* \"libraries/erc20.sol\":4161:4168  spender */\n      dup5\n        /* \"libraries/erc20.sol\":4170:4176  amount */\n      dup5\n        /* \"libraries/erc20.sol\":4140:4148  _approve */\n      tag_55\n        /* \"libraries/erc20.sol\":4140:4177  _approve(msg.sender, spender, amount) */\n      jump\t// in\n    tag_54:\n        /* \"libraries/erc20.sol\":4194:4198  true */\n      0x01\n        /* \"libraries/erc20.sol\":4187:4198  return true */\n      swap1\n      pop\n        /* \"libraries/erc20.sol\":4041:4205  function approve(address spender, uint256 amount) public virtual override returns (bool) {... */\n      swap3\n      swap2\n      pop\n      pop\n      jump\t// out\n        /* \"libraries/erc20.sol\":2210:2306  function getSymbol() public view virtual returns (string memory) {... */\n    tag_20:\n        /* \"libraries/erc20.sol\":2260:2273  string memory */\n      0x60\n        /* \"libraries/erc20.sol\":2292:2299  _symbol */\n      0x04\n        /* \"libraries/erc20.sol\":2285:2299  return _symbol */\n      dup1\n      sload\n      tag_57\n      swap1\n      tag_58\n      jump\t// in\n    tag_57:\n      dup1\n      0x1f\n      add\n      0x20\n      dup1\n      swap2\n      div\n      mul\n      0x20\n      add\n      mload(0x40)\n      swap1\n      dup2\n      add\n      0x40\n      mstore\n      dup1\n      swap3\n      swap2\n      swap1\n      dup2\n      dup2\n      mstore\n      0x20\n      add\n      dup3\n      dup1\n      sload\n      tag_59\n      swap1\n      tag_58\n      jump\t// in\n    tag_59:\n      dup1\n      iszero\n      tag_60\n      jumpi\n      dup1\n      0x1f\n      lt\n      tag_61\n      jumpi\n      0x0100\n      dup1\n      dup4\n      sload\n      div\n      mul\n      dup4\n      mstore\n      swap2\n      0x20\n      add\n      swap2\n      jump(tag_60)\n    tag_61:\n      dup3\n      add\n      swap2\n      swap1\n      0x00\n      mstore\n      keccak256(0x00, 0x20)\n      swap1\n    tag_62:\n      dup2\n      sload\n      dup2\n      mstore\n      swap1\n      0x01\n      add\n      swap1\n      0x20\n      add\n      dup1\n      dup4\n      gt\n      tag_62\n      jumpi\n      dup3\n      swap1\n      sub\n      0x1f\n      and\n      dup3\n      add\n      swap2\n    tag_60:\n      pop\n      pop\n      pop\n      pop\n      pop\n      swap1\n      pop\n        /* \"libraries/erc20.sol\":2210:2306  function getSymbol() public view virtual returns (string memory) {... */\n      swap1\n      jump\t// out\n        /* \"libraries/erc20.sol\":2010:2102  function getName() public view virtual returns (string memory) {... */\n    tag_24:\n        /* \"libraries/erc20.sol\":2058:2071  string memory */\n      0x60\n        /* \"libraries/erc20.sol\":2090:2095  _name */\n      0x03\n        /* \"libraries/erc20.sol\":2083:2095  return _name */\n      dup1\n      sload\n      tag_64\n      swap1\n      tag_58\n      jump\t// in\n    tag_64:\n      dup1\n      0x1f\n      add\n      0x20\n      dup1\n      swap2\n      div\n      mul\n      0x20\n      add\n      mload(0x40)\n      swap1\n      dup2\n      add\n      0x40\n      mstore\n      dup1\n      swap3\n      swap2\n      swap1\n      dup2\n      dup2\n      mstore\n      0x20\n      add\n      dup3\n      dup1\n      sload\n      tag_65\n      swap1\n      tag_58\n      jump\t// in\n    tag_65:\n      dup1\n      iszero\n      tag_66\n      jumpi\n      dup1\n      0x1f\n      lt\n      tag_67\n      jumpi\n      0x0100\n      dup1\n      dup4\n      sload\n      div\n      mul\n      dup4\n      mstore\n      swap2\n      0x20\n      add\n      swap2\n      jump(tag_66)\n    tag_67:\n      dup3\n      add\n      swap2\n      swap1\n      0x00\n      mstore\n      keccak256(0x00, 0x20)\n      swap1\n    tag_68:\n      dup2\n      sload\n      dup2\n      mstore\n      swap1\n      0x01\n      add\n      swap1\n      0x20\n      add\n      dup1\n      dup4\n      gt\n      tag_68\n      jumpi\n      dup3\n      swap1\n      sub\n      0x1f\n      and\n      dup3\n      add\n      swap2\n    tag_66:\n      pop\n      pop\n      pop\n      pop\n      pop\n      swap1\n      pop\n        /* \"libraries/erc20.sol\":2010:2102  function getName() public view virtual returns (string memory) {... */\n      swap1\n      jump\t// out\n        /* \"libraries/erc20.sol\":3062:3168  function totalSupply() public view virtual override returns (uint256) {... */\n    tag_27:\n        /* \"libraries/erc20.sol\":3123:3130  uint256 */\n      0x00\n        /* \"libraries/erc20.sol\":3149:3161  _totalSupply */\n      sload(0x02)\n        /* \"libraries/erc20.sol\":3142:3161  return _totalSupply */\n      swap1\n      pop\n        /* \"libraries/erc20.sol\":3062:3168  function totalSupply() public view virtual override returns (uint256) {... */\n      swap1\n      jump\t// out\n        /* \"libraries/erc20.sol\":4667:5141  function transferFrom(... */\n    tag_33:\n        /* \"libraries/erc20.sol\":4803:4807  bool */\n      0x00\n        /* \"libraries/erc20.sol\":4819:4855  _transfer(sender, recipient, amount) */\n      tag_71\n        /* \"libraries/erc20.sol\":4829:4835  sender */\n      dup5\n        /* \"libraries/erc20.sol\":4837:4846  recipient */\n      dup5\n        /* \"libraries/erc20.sol\":4848:4854  amount */\n      dup5\n        /* \"libraries/erc20.sol\":4819:4828  _transfer */\n      tag_72\n        /* \"libraries/erc20.sol\":4819:4855  _transfer(sender, recipient, amount) */\n      jump\t// in\n    tag_71:\n        /* \"libraries/erc20.sol\":4866:4890  uint256 currentAllowance */\n      0x00\n        /* \"libraries/erc20.sol\":4893:4904  _allowances */\n      0x01\n        /* \"libraries/erc20.sol\":4893:4912  _allowances[sender] */\n      0x00\n        /* \"libraries/erc20.sol\":4905:4911  sender */\n      dup7\n        /* \"libraries/erc20.sol\":4893:4912  _allowances[sender] */\n      0xffffffffffffffffffffffffffffffffffffffff\n      and\n      0xffffffffffffffffffffffffffffffffffffffff\n      and\n      dup2\n      mstore\n      0x20\n      add\n      swap1\n      dup2\n      mstore\n      0x20\n      add\n      0x00\n      keccak256\n        /* \"libraries/erc20.sol\":4893:4924  _allowances[sender][msg.sender] */\n      0x00\n        /* \"libraries/erc20.sol\":4913:4923  msg.sender */\n      caller\n        /* \"libraries/erc20.sol\":4893:4924  _allowances[sender][msg.sender] */\n      0xffffffffffffffffffffffffffffffffffffffff\n      and\n      0xffffffffffffffffffffffffffffffffffffffff\n      and\n      dup2\n      mstore\n      0x20\n      add\n      swap1\n      dup2\n      mstore\n      0x20\n      add\n      0x00\n      keccak256\n      sload\n        /* \"libraries/erc20.sol\":4866:4924  uint256 currentAllowance = _allowances[sender][msg.sender] */\n      swap1\n      pop\n        /* \"libraries/erc20.sol\":4962:4968  amount */\n      dup3\n        /* \"libraries/erc20.sol\":4942:4958  currentAllowance */\n      dup2\n        /* \"libraries/erc20.sol\":4942:4968  currentAllowance >= amount */\n      lt\n      iszero\n        /* \"libraries/erc20.sol\":4934:5013  require(currentAllowance >= amount, \"ERC20: transfer amount exceeds allowance\") */\n      tag_73\n      jumpi\n      mload(0x40)\n      0x08c379a000000000000000000000000000000000000000000000000000000000\n      dup2\n      mstore\n      0x04\n      add\n      tag_74\n      swap1\n      tag_75\n      jump\t// in\n    tag_74:\n      mload(0x40)\n      dup1\n      swap2\n      sub\n      swap1\n      revert\n    tag_73:\n        /* \"libraries/erc20.sol\":5047:5102  _approve(sender, msg.sender, currentAllowance - amount) */\n      tag_76\n        /* \"libraries/erc20.sol\":5056:5062  sender */\n      dup6\n        /* \"libraries/erc20.sol\":5064:5074  msg.sender */\n      caller\n        /* \"libraries/erc20.sol\":5095:5101  amount */\n      dup6\n        /* \"libraries/erc20.sol\":5076:5092  currentAllowance */\n      dup5\n        /* \"libraries/erc20.sol\":5076:5101  currentAllowance - amount */\n      sub\n        /* \"libraries/erc20.sol\":5047:5055  _approve */\n      tag_55\n        /* \"libraries/erc20.sol\":5047:5102  _approve(sender, msg.sender, currentAllowance - amount) */\n      jump\t// in\n    tag_76:\n        /* \"libraries/erc20.sol\":5130:5134  true */\n      0x01\n        /* \"libraries/erc20.sol\":5123:5134  return true */\n      swap2\n      pop\n      pop\n        /* \"libraries/erc20.sol\":4667:5141  function transferFrom(... */\n      swap4\n      swap3\n      pop\n      pop\n      pop\n      jump\t// out\n        /* \"libraries/erc20.sol\":2925:3007  function decimals() public view virtual returns (uint8) {... */\n    tag_36:\n        /* \"libraries/erc20.sol\":2974:2979  uint8 */\n      0x00\n        /* \"libraries/erc20.sol\":2998:3000  18 */\n      0x12\n        /* \"libraries/erc20.sol\":2991:3000  return 18 */\n      swap1\n      pop\n        /* \"libraries/erc20.sol\":2925:3007  function decimals() public view virtual returns (uint8) {... */\n      swap1\n      jump\t// out\n        /* \"libraries/erc20.sol\":3221:3338  function balanceOf(address account) public view override returns (uint256) {... */\n    tag_42:\n        /* \"libraries/erc20.sol\":3287:3294  uint256 */\n      0x00\n        /* \"libraries/erc20.sol\":3313:3322  _balances */\n      dup1\n        /* \"libraries/erc20.sol\":3313:3331  _balances[account] */\n      0x00\n        /* \"libraries/erc20.sol\":3323:3330  account */\n      dup4\n        /* \"libraries/erc20.sol\":3313:3331  _balances[account] */\n      0xffffffffffffffffffffffffffffffffffffffff\n      and\n      0xffffffffffffffffffffffffffffffffffffffff\n      and\n      dup2\n      mstore\n      0x20\n      add\n      swap1\n      dup2\n      mstore\n      0x20\n      add\n      0x00\n      keccak256\n      sload\n        /* \"libraries/erc20.sol\":3306:3331  return _balances[account] */\n      swap1\n      pop\n        /* \"libraries/erc20.sol\":3221:3338  function balanceOf(address account) public view override returns (uint256) {... */\n      swap2\n      swap1\n      pop\n      jump\t// out\n        /* \"libraries/erc20.sol\":3536:3706  function transfer(address recipient, uint256 amount) public virtual override returns (bool) {... */\n    tag_46:\n        /* \"libraries/erc20.sol\":3622:3626  bool */\n      0x00\n        /* \"libraries/erc20.sol\":3638:3678  _transfer(msg.sender, recipient, amount) */\n      tag_80\n        /* \"libraries/erc20.sol\":3648:3658  msg.sender */\n      caller\n        /* \"libraries/erc20.sol\":3660:3669  recipient */\n      dup5\n        /* \"libraries/erc20.sol\":3671:3677  amount */\n      dup5\n        /* \"libraries/erc20.sol\":3638:3647  _transfer */\n      tag_72\n        /* \"libraries/erc20.sol\":3638:3678  _transfer(msg.sender, recipient, amount) */\n      jump\t// in\n    tag_80:\n        /* \"libraries/erc20.sol\":3695:3699  true */\n      0x01\n        /* \"libraries/erc20.sol\":3688:3699  return true */\n      swap1\n      pop\n        /* \"libraries/erc20.sol\":3536:3706  function transfer(address recipient, uint256 amount) public virtual override returns (bool) {... */\n      swap3\n      swap2\n      pop\n      pop\n      jump\t// out\n        /* \"libraries/erc20.sol\":3759:3908  function allowance(address owner, address spender) public view virtual override returns (uint256) {... */\n    tag_51:\n        /* \"libraries/erc20.sol\":3848:3855  uint256 */\n      0x00\n        /* \"libraries/erc20.sol\":3874:3885  _allowances */\n      0x01\n        /* \"libraries/erc20.sol\":3874:3892  _allowances[owner] */\n      0x00\n        /* \"libraries/erc20.sol\":3886:3891  owner */\n      dup5\n        /* \"libraries/erc20.sol\":3874:3892  _allowances[owner] */\n      0xffffffffffffffffffffffffffffffffffffffff\n      and\n      0xffffffffffffffffffffffffffffffffffffffff\n      and\n      dup2\n      mstore\n      0x20\n      add\n      swap1\n      dup2\n      mstore\n      0x20\n      add\n      0x00\n      keccak256\n        /* \"libraries/erc20.sol\":3874:3901  _allowances[owner][spender] */\n      0x00\n        /* \"libraries/erc20.sol\":3893:3900  spender */\n      dup4\n        /* \"libraries/erc20.sol\":3874:3901  _allowances[owner][spender] */\n      0xffffffffffffffffffffffffffffffffffffffff\n      and\n      0xffffffffffffffffffffffffffffffffffffffff\n      and\n      dup2\n      mstore\n      0x20\n      add\n      swap1\n      dup2\n      mstore\n      0x20\n      add\n      0x00\n      keccak256\n      sload\n        /* \"libraries/erc20.sol\":3867:3901  return _allowances[owner][spender] */\n      swap1\n      pop\n        /* \"libraries/erc20.sol\":3759:3908  function allowance(address owner, address spender) public view virtual override returns (uint256) {... */\n      swap3\n      swap2\n      pop\n      pop\n      jump\t// out\n        /* \"libraries/erc20.sol\":6626:6996  function _approve(... */\n    tag_55:\n        /* \"libraries/erc20.sol\":6774:6775  0 */\n      0x00\n        /* \"libraries/erc20.sol\":6757:6776  owner != address(0) */\n      0xffffffffffffffffffffffffffffffffffffffff\n      and\n        /* \"libraries/erc20.sol\":6757:6762  owner */\n      dup4\n        /* \"libraries/erc20.sol\":6757:6776  owner != address(0) */\n      0xffffffffffffffffffffffffffffffffffffffff\n      and\n      eq\n      iszero\n        /* \"libraries/erc20.sol\":6749:6817  require(owner != address(0), \"ERC20: approve from the zero address\") */\n      tag_83\n      jumpi\n      mload(0x40)\n      0x08c379a000000000000000000000000000000000000000000000000000000000\n      dup2\n      mstore\n      0x04\n      add\n      tag_84\n      swap1\n      tag_85\n      jump\t// in\n    tag_84:\n      mload(0x40)\n      dup1\n      swap2\n      sub\n      swap1\n      revert\n    tag_83:\n        /* \"libraries/erc20.sol\":6854:6855  0 */\n      0x00\n        /* \"libraries/erc20.sol\":6835:6856  spender != address(0) */\n      0xffffffffffffffffffffffffffffffffffffffff\n      and\n        /* \"libraries/erc20.sol\":6835:6842  spender */\n      dup3\n        /* \"libraries/erc20.sol\":6835:6856  spender != address(0) */\n      0xffffffffffffffffffffffffffffffffffffffff\n      and\n      eq\n      iszero\n        /* \"libraries/erc20.sol\":6827:6895  require(spender != address(0), \"ERC20: approve to the zero address\") */\n      tag_86\n      jumpi\n      mload(0x40)\n      0x08c379a000000000000000000000000000000000000000000000000000000000\n      dup2\n      mstore\n      0x04\n      add\n      tag_87\n      swap1\n      tag_88\n      jump\t// in\n    tag_87:\n      mload(0x40)\n      dup1\n      swap2\n      sub\n      swap1\n      revert\n    tag_86:\n        /* \"libraries/erc20.sol\":6936:6942  amount */\n      dup1\n        /* \"libraries/erc20.sol\":6906:6917  _allowances */\n      0x01\n        /* \"libraries/erc20.sol\":6906:6924  _allowances[owner] */\n      0x00\n        /* \"libraries/erc20.sol\":6918:6923  owner */\n      dup6\n        /* \"libraries/erc20.sol\":6906:6924  _allowances[owner] */\n      0xffffffffffffffffffffffffffffffffffffffff\n      and\n      0xffffffffffffffffffffffffffffffffffffffff\n      and\n      dup2\n      mstore\n      0x20\n      add\n      swap1\n      dup2\n      mstore\n      0x20\n      add\n      0x00\n      keccak256\n        /* \"libraries/erc20.sol\":6906:6933  _allowances[owner][spender] */\n      0x00\n        /* \"libraries/erc20.sol\":6925:6932  spender */\n      dup5\n        /* \"libraries/erc20.sol\":6906:6933  _allowances[owner][spender] */\n      0xffffffffffffffffffffffffffffffffffffffff\n      and\n      0xffffffffffffffffffffffffffffffffffffffff\n      and\n      dup2\n      mstore\n      0x20\n      add\n      swap1\n      dup2\n      mstore\n      0x20\n      add\n      0x00\n      keccak256\n        /* \"libraries/erc20.sol\":6906:6942  _allowances[owner][spender] = amount */\n      dup2\n      swap1\n      sstore\n      pop\n        /* \"libraries/erc20.sol\":6973:6980  spender */\n      dup2\n        /* \"libraries/erc20.sol\":6957:6989  Approval(owner, spender, amount) */\n      0xffffffffffffffffffffffffffffffffffffffff\n      and\n        /* \"libraries/erc20.sol\":6966:6971  owner */\n      dup4\n        /* \"libraries/erc20.sol\":6957:6989  Approval(owner, spender, amount) */\n      0xffffffffffffffffffffffffffffffffffffffff\n      and\n      0x8c5be1e5ebec7d5bd14f71427d1e84f3dd0314c0f7b2291e5b200ac8c7c3b925\n        /* \"libraries/erc20.sol\":6982:6988  amount */\n      dup4\n        /* \"libraries/erc20.sol\":6957:6989  Approval(owner, spender, amount) */\n      mload(0x40)\n      tag_89\n      swap2\n      swap1\n      tag_29\n      jump\t// in\n    tag_89:\n      mload(0x40)\n      dup1\n      swap2\n      sub\n      swap1\n      log3\n        /* \"libraries/erc20.sol\":6626:6996  function _approve(... */\n      pop\n      pop\n      pop\n      jump\t// out\n        /* \"libraries/erc20.sol\":5610:6208  function _transfer(... */\n    tag_72:\n        /* \"libraries/erc20.sol\":5763:5764  0 */\n      0x00\n        /* \"libraries/erc20.sol\":5745:5765  sender != address(0) */\n      0xffffffffffffffffffffffffffffffffffffffff\n      and\n        /* \"libraries/erc20.sol\":5745:5751  sender */\n      dup4\n        /* \"libraries/erc20.sol\":5745:5765  sender != address(0) */\n      0xffffffffffffffffffffffffffffffffffffffff\n      and\n      eq\n      iszero\n        /* \"libraries/erc20.sol\":5737:5807  require(sender != address(0), \"ERC20: transfer from the zero address\") */\n      tag_91\n      jumpi\n      mload(0x40)\n      0x08c379a000000000000000000000000000000000000000000000000000000000\n      dup2\n      mstore\n      0x04\n      add\n      tag_92\n      swap1\n      tag_93\n      jump\t// in\n    tag_92:\n      mload(0x40)\n      dup1\n      swap2\n      sub\n      swap1\n      revert\n    tag_91:\n        /* \"libraries/erc20.sol\":5846:5847  0 */\n      0x00\n        /* \"libraries/erc20.sol\":5825:5848  recipient != address(0) */\n      0xffffffffffffffffffffffffffffffffffffffff\n      and\n        /* \"libraries/erc20.sol\":5825:5834  recipient */\n      dup3\n        /* \"libraries/erc20.sol\":5825:5848  recipient != address(0) */\n      0xffffffffffffffffffffffffffffffffffffffff\n      and\n      eq\n      iszero\n        /* \"libraries/erc20.sol\":5817:5888  require(recipient != address(0), \"ERC20: transfer to the zero address\") */\n      tag_94\n      jumpi\n      mload(0x40)\n      0x08c379a000000000000000000000000000000000000000000000000000000000\n      dup2\n      mstore\n      0x04\n      add\n      tag_95\n      swap1\n      tag_96\n      jump\t// in\n    tag_95:\n      mload(0x40)\n      dup1\n      swap2\n      sub\n      swap1\n      revert\n    tag_94:\n        /* \"libraries/erc20.sol\":5899:5920  uint256 senderBalance */\n      0x00\n        /* \"libraries/erc20.sol\":5923:5932  _balances */\n      dup1\n        /* \"libraries/erc20.sol\":5923:5940  _balances[sender] */\n      0x00\n        /* \"libraries/erc20.sol\":5933:5939  sender */\n      dup6\n        /* \"libraries/erc20.sol\":5923:5940  _balances[sender] */\n      0xffffffffffffffffffffffffffffffffffffffff\n      and\n      0xffffffffffffffffffffffffffffffffffffffff\n      and\n      dup2\n      mstore\n      0x20\n      add\n      swap1\n      dup2\n      mstore\n      0x20\n      add\n      0x00\n      keccak256\n      sload\n        /* \"libraries/erc20.sol\":5899:5940  uint256 senderBalance = _balances[sender] */\n      swap1\n      pop\n        /* \"libraries/erc20.sol\":5975:5981  amount */\n      dup2\n        /* \"libraries/erc20.sol\":5958:5971  senderBalance */\n      dup2\n        /* \"libraries/erc20.sol\":5958:5981  senderBalance >= amount */\n      lt\n      iszero\n        /* \"libraries/erc20.sol\":5950:6024  require(senderBalance >= amount, \"ERC20: transfer amount exceeds balance\") */\n      tag_97\n      jumpi\n      mload(0x40)\n      0x08c379a000000000000000000000000000000000000000000000000000000000\n      dup2\n      mstore\n      0x04\n      add\n      tag_98\n      swap1\n      tag_99\n      jump\t// in\n    tag_98:\n      mload(0x40)\n      dup1\n      swap2\n      sub\n      swap1\n      revert\n    tag_97:\n        /* \"libraries/erc20.sol\":6094:6100  amount */\n      dup2\n        /* \"libraries/erc20.sol\":6078:6091  senderBalance */\n      dup2\n        /* \"libraries/erc20.sol\":6078:6100  senderBalance - amount */\n      sub\n        /* \"libraries/erc20.sol\":6058:6067  _balances */\n      0x00\n        /* \"libraries/erc20.sol\":6058:6075  _balances[sender] */\n      dup1\n        /* \"libraries/erc20.sol\":6068:6074  sender */\n      dup7\n        /* \"libraries/erc20.sol\":6058:6075  _balances[sender] */\n      0xffffffffffffffffffffffffffffffffffffffff\n      and\n      0xffffffffffffffffffffffffffffffffffffffff\n      and\n      dup2\n      mstore\n      0x20\n      add\n      swap1\n      dup2\n      mstore\n      0x20\n      add\n      0x00\n      keccak256\n        /* \"libraries/erc20.sol\":6058:6100  _balances[sender] = senderBalance - amount */\n      dup2\n      swap1\n      sstore\n      pop\n        /* \"libraries/erc20.sol\":6144:6150  amount */\n      dup2\n        /* \"libraries/erc20.sol\":6120:6129  _balances */\n      0x00\n        /* \"libraries/erc20.sol\":6120:6140  _balances[recipient] */\n      dup1\n        /* \"libraries/erc20.sol\":6130:6139  recipient */\n      dup6\n        /* \"libraries/erc20.sol\":6120:6140  _balances[recipient] */\n      0xffffffffffffffffffffffffffffffffffffffff\n      and\n      0xffffffffffffffffffffffffffffffffffffffff\n      and\n      dup2\n      mstore\n      0x20\n      add\n      swap1\n      dup2\n      mstore\n      0x20\n      add\n      0x00\n      keccak256\n      0x00\n        /* \"libraries/erc20.sol\":6120:6150  _balances[recipient] += amount */\n      dup3\n      dup3\n      sload\n      tag_100\n      swap2\n      swap1\n      tag_101\n      jump\t// in\n    tag_100:\n      swap3\n      pop\n      pop\n      dup2\n      swap1\n      sstore\n      pop\n        /* \"libraries/erc20.sol\":6183:6192  recipient */\n      dup3\n        /* \"libraries/erc20.sol\":6166:6201  Transfer(sender, recipient, amount) */\n      0xffffffffffffffffffffffffffffffffffffffff\n      and\n        /* \"libraries/erc20.sol\":6175:6181  sender */\n      dup5\n        /* \"libraries/erc20.sol\":6166:6201  Transfer(sender, recipient, amount) */\n      0xffffffffffffffffffffffffffffffffffffffff\n      and\n      0xddf252ad1be2c89b69c2b068fc378daa952ba7f163c4a11628f55a4df523b3ef\n        /* \"libraries/erc20.sol\":6194:6200  amount */\n      dup5\n        /* \"libraries/erc20.sol\":6166:6201  Transfer(sender, recipient, amount) */\n      mload(0x40)\n      tag_102\n      swap2\n      swap1\n      tag_29\n      jump\t// in\n    tag_102:\n      mload(0x40)\n      dup1\n      swap2\n      sub\n      swap1\n      log3\n        /* \"libraries/erc20.sol\":5727:6208  {... */\n      pop\n        /* \"libraries/erc20.sol\":5610:6208  function _transfer(... */\n      pop\n      pop\n      pop\n      jump\t// out\n        /* \"#utility.yul\":7:146   */\n    tag_104:\n        /* \"#utility.yul\":53:58   */\n      0x00\n        /* \"#utility.yul\":91:97   */\n      dup2\n        /* \"#utility.yul\":78:98   */\n      calldataload\n        /* \"#utility.yul\":69:98   */\n      swap1\n      pop\n        /* \"#utility.yul\":107:140   */\n      tag_106\n        /* \"#utility.yul\":134:139   */\n      dup2\n        /* \"#utility.yul\":107:140   */\n      tag_107\n      jump\t// in\n    tag_106:\n        /* \"#utility.yul\":7:146   */\n      swap3\n      swap2\n      pop\n      pop\n      jump\t// out\n        /* \"#utility.yul\":152:291   */\n    tag_108:\n        /* \"#utility.yul\":198:203   */\n      0x00\n        /* \"#utility.yul\":236:242   */\n      dup2\n        /* \"#utility.yul\":223:243   */\n      calldataload\n        /* \"#utility.yul\":214:243   */\n      swap1\n      pop\n        /* \"#utility.yul\":252:285   */\n      tag_110\n        /* \"#utility.yul\":279:284   */\n      dup2\n        /* \"#utility.yul\":252:285   */\n      tag_111\n      jump\t// in\n    tag_110:\n        /* \"#utility.yul\":152:291   */\n      swap3\n      swap2\n      pop\n      pop\n      jump\t// out\n        /* \"#utility.yul\":297:626   */\n    tag_41:\n        /* \"#utility.yul\":356:362   */\n      0x00\n        /* \"#utility.yul\":405:407   */\n      0x20\n        /* \"#utility.yul\":393:402   */\n      dup3\n        /* \"#utility.yul\":384:391   */\n      dup5\n        /* \"#utility.yul\":380:403   */\n      sub\n        /* \"#utility.yul\":376:408   */\n      slt\n        /* \"#utility.yul\":373:492   */\n      iszero\n      tag_113\n      jumpi\n        /* \"#utility.yul\":411:490   */\n      tag_114\n      tag_115\n      jump\t// in\n    tag_114:\n        /* \"#utility.yul\":373:492   */\n    tag_113:\n        /* \"#utility.yul\":531:532   */\n      0x00\n        /* \"#utility.yul\":556:609   */\n      tag_116\n        /* \"#utility.yul\":601:608   */\n      dup5\n        /* \"#utility.yul\":592:598   */\n      dup3\n        /* \"#utility.yul\":581:590   */\n      dup6\n        /* \"#utility.yul\":577:599   */\n      add\n        /* \"#utility.yul\":556:609   */\n      tag_104\n      jump\t// in\n    tag_116:\n        /* \"#utility.yul\":546:609   */\n      swap2\n      pop\n        /* \"#utility.yul\":502:619   */\n      pop\n        /* \"#utility.yul\":297:626   */\n      swap3\n      swap2\n      pop\n      pop\n      jump\t// out\n        /* \"#utility.yul\":632:1106   */\n    tag_50:\n        /* \"#utility.yul\":700:706   */\n      0x00\n        /* \"#utility.yul\":708:714   */\n      dup1\n        /* \"#utility.yul\":757:759   */\n      0x40\n        /* \"#utility.yul\":745:754   */\n      dup4\n        /* \"#utility.yul\":736:743   */\n      dup6\n        /* \"#utility.yul\":732:755   */\n      sub\n        /* \"#utility.yul\":728:760   */\n      slt\n        /* \"#utility.yul\":725:844   */\n      iszero\n      tag_118\n      jumpi\n        /* \"#utility.yul\":763:842   */\n      tag_119\n      tag_115\n      jump\t// in\n    tag_119:\n        /* \"#utility.yul\":725:844   */\n    tag_118:\n        /* \"#utility.yul\":883:884   */\n      0x00\n        /* \"#utility.yul\":908:961   */\n      tag_120\n        /* \"#utility.yul\":953:960   */\n      dup6\n        /* \"#utility.yul\":944:950   */\n      dup3\n        /* \"#utility.yul\":933:942   */\n      dup7\n        /* \"#utility.yul\":929:951   */\n      add\n        /* \"#utility.yul\":908:961   */\n      tag_104\n      jump\t// in\n    tag_120:\n        /* \"#utility.yul\":898:961   */\n      swap3\n      pop\n        /* \"#utility.yul\":854:971   */\n      pop\n        /* \"#utility.yul\":1010:1012   */\n      0x20\n        /* \"#utility.yul\":1036:1089   */\n      tag_121\n        /* \"#utility.yul\":1081:1088   */\n      dup6\n        /* \"#utility.yul\":1072:1078   */\n      dup3\n        /* \"#utility.yul\":1061:1070   */\n      dup7\n        /* \"#utility.yul\":1057:1079   */\n      add\n        /* \"#utility.yul\":1036:1089   */\n      tag_104\n      jump\t// in\n    tag_121:\n        /* \"#utility.yul\":1026:1089   */\n      swap2\n      pop\n        /* \"#utility.yul\":981:1099   */\n      pop\n        /* \"#utility.yul\":632:1106   */\n      swap3\n      pop\n      swap3\n      swap1\n      pop\n      jump\t// out\n        /* \"#utility.yul\":1112:1731   */\n    tag_32:\n        /* \"#utility.yul\":1189:1195   */\n      0x00\n        /* \"#utility.yul\":1197:1203   */\n      dup1\n        /* \"#utility.yul\":1205:1211   */\n      0x00\n        /* \"#utility.yul\":1254:1256   */\n      0x60\n        /* \"#utility.yul\":1242:1251   */\n      dup5\n        /* \"#utility.yul\":1233:1240   */\n      dup7\n        /* \"#utility.yul\":1229:1252   */\n      sub\n        /* \"#utility.yul\":1225:1257   */\n      slt\n        /* \"#utility.yul\":1222:1341   */\n      iszero\n      tag_123\n      jumpi\n        /* \"#utility.yul\":1260:1339   */\n      tag_124\n      tag_115\n      jump\t// in\n    tag_124:\n        /* \"#utility.yul\":1222:1341   */\n    tag_123:\n        /* \"#utility.yul\":1380:1381   */\n      0x00\n        /* \"#utility.yul\":1405:1458   */\n      tag_125\n        /* \"#utility.yul\":1450:1457   */\n      dup7\n        /* \"#utility.yul\":1441:1447   */\n      dup3\n        /* \"#utility.yul\":1430:1439   */\n      dup8\n        /* \"#utility.yul\":1426:1448   */\n      add\n        /* \"#utility.yul\":1405:1458   */\n      tag_104\n      jump\t// in\n    tag_125:\n        /* \"#utility.yul\":1395:1458   */\n      swap4\n      pop\n        /* \"#utility.yul\":1351:1468   */\n      pop\n        /* \"#utility.yul\":1507:1509   */\n      0x20\n        /* \"#utility.yul\":1533:1586   */\n      tag_126\n        /* \"#utility.yul\":1578:1585   */\n      dup7\n        /* \"#utility.yul\":1569:1575   */\n      dup3\n        /* \"#utility.yul\":1558:1567   */\n      dup8\n        /* \"#utility.yul\":1554:1576   */\n      add\n        /* \"#utility.yul\":1533:1586   */\n      tag_104\n      jump\t// in\n    tag_126:\n        /* \"#utility.yul\":1523:1586   */\n      swap3\n      pop\n        /* \"#utility.yul\":1478:1596   */\n      pop\n        /* \"#utility.yul\":1635:1637   */\n      0x40\n        /* \"#utility.yul\":1661:1714   */\n      tag_127\n        /* \"#utility.yul\":1706:1713   */\n      dup7\n        /* \"#utility.yul\":1697:1703   */\n      dup3\n        /* \"#utility.yul\":1686:1695   */\n      dup8\n        /* \"#utility.yul\":1682:1704   */\n      add\n        /* \"#utility.yul\":1661:1714   */\n      tag_108\n      jump\t// in\n    tag_127:\n        /* \"#utility.yul\":1651:1714   */\n      swap2\n      pop\n        /* \"#utility.yul\":1606:1724   */\n      pop\n        /* \"#utility.yul\":1112:1731   */\n      swap3\n      pop\n      swap3\n      pop\n      swap3\n      jump\t// out\n        /* \"#utility.yul\":1737:2211   */\n    tag_15:\n        /* \"#utility.yul\":1805:1811   */\n      0x00\n        /* \"#utility.yul\":1813:1819   */\n      dup1\n        /* \"#utility.yul\":1862:1864   */\n      0x40\n        /* \"#utility.yul\":1850:1859   */\n      dup4\n        /* \"#utility.yul\":1841:1848   */\n      dup6\n        /* \"#utility.yul\":1837:1860   */\n      sub\n        /* \"#utility.yul\":1833:1865   */\n      slt\n        /* \"#utility.yul\":1830:1949   */\n      iszero\n      tag_129\n      jumpi\n        /* \"#utility.yul\":1868:1947   */\n      tag_130\n      tag_115\n      jump\t// in\n    tag_130:\n        /* \"#utility.yul\":1830:1949   */\n    tag_129:\n        /* \"#utility.yul\":1988:1989   */\n      0x00\n        /* \"#utility.yul\":2013:2066   */\n      tag_131\n        /* \"#utility.yul\":2058:2065   */\n      dup6\n        /* \"#utility.yul\":2049:2055   */\n      dup3\n        /* \"#utility.yul\":2038:2047   */\n      dup7\n        /* \"#utility.yul\":2034:2056   */\n      add\n        /* \"#utility.yul\":2013:2066   */\n      tag_104\n      jump\t// in\n    tag_131:\n        /* \"#utility.yul\":2003:2066   */\n      swap3\n      pop\n        /* \"#utility.yul\":1959:2076   */\n      pop\n        /* \"#utility.yul\":2115:2117   */\n      0x20\n        /* \"#utility.yul\":2141:2194   */\n      tag_132\n        /* \"#utility.yul\":2186:2193   */\n      dup6\n        /* \"#utility.yul\":2177:2183   */\n      dup3\n        /* \"#utility.yul\":2166:2175   */\n      dup7\n        /* \"#utility.yul\":2162:2184   */\n      add\n        /* \"#utility.yul\":2141:2194   */\n      tag_108\n      jump\t// in\n    tag_132:\n        /* \"#utility.yul\":2131:2194   */\n      swap2\n      pop\n        /* \"#utility.yul\":2086:2204   */\n      pop\n        /* \"#utility.yul\":1737:2211   */\n      swap3\n      pop\n      swap3\n      swap1\n      pop\n      jump\t// out\n        /* \"#utility.yul\":2217:2326   */\n    tag_133:\n        /* \"#utility.yul\":2298:2319   */\n      tag_135\n        /* \"#utility.yul\":2313:2318   */\n      dup2\n        /* \"#utility.yul\":2298:2319   */\n      tag_136\n      jump\t// in\n    tag_135:\n        /* \"#utility.yul\":2293:2296   */\n      dup3\n        /* \"#utility.yul\":2286:2320   */\n      mstore\n        /* \"#utility.yul\":2217:2326   */\n      pop\n      pop\n      jump\t// out\n        /* \"#utility.yul\":2332:2696   */\n    tag_137:\n        /* \"#utility.yul\":2420:2423   */\n      0x00\n        /* \"#utility.yul\":2448:2487   */\n      tag_139\n        /* \"#utility.yul\":2481:2486   */\n      dup3\n        /* \"#utility.yul\":2448:2487   */\n      tag_140\n      jump\t// in\n    tag_139:\n        /* \"#utility.yul\":2503:2574   */\n      tag_141\n        /* \"#utility.yul\":2567:2573   */\n      dup2\n        /* \"#utility.yul\":2562:2565   */\n      dup6\n        /* \"#utility.yul\":2503:2574   */\n      tag_142\n      jump\t// in\n    tag_141:\n        /* \"#utility.yul\":2496:2574   */\n      swap4\n      pop\n        /* \"#utility.yul\":2583:2635   */\n      tag_143\n        /* \"#utility.yul\":2628:2634   */\n      dup2\n        /* \"#utility.yul\":2623:2626   */\n      dup6\n        /* \"#utility.yul\":2616:2620   */\n      0x20\n        /* \"#utility.yul\":2609:2614   */\n      dup7\n        /* \"#utility.yul\":2605:2621   */\n      add\n        /* \"#utility.yul\":2583:2635   */\n      tag_144\n      jump\t// in\n    tag_143:\n        /* \"#utility.yul\":2660:2689   */\n      tag_145\n        /* \"#utility.yul\":2682:2688   */\n      dup2\n        /* \"#utility.yul\":2660:2689   */\n      tag_146\n      jump\t// in\n    tag_145:\n        /* \"#utility.yul\":2655:2658   */\n      dup5\n        /* \"#utility.yul\":2651:2690   */\n      add\n        /* \"#utility.yul\":2644:2690   */\n      swap2\n      pop\n        /* \"#utility.yul\":2424:2696   */\n      pop\n        /* \"#utility.yul\":2332:2696   */\n      swap3\n      swap2\n      pop\n      pop\n      jump\t// out\n        /* \"#utility.yul\":2702:3068   */\n    tag_147:\n        /* \"#utility.yul\":2844:2847   */\n      0x00\n        /* \"#utility.yul\":2865:2932   */\n      tag_149\n        /* \"#utility.yul\":2929:2931   */\n      0x23\n        /* \"#utility.yul\":2924:2927   */\n      dup4\n        /* \"#utility.yul\":2865:2932   */\n      tag_142\n      jump\t// in\n    tag_149:\n        /* \"#utility.yul\":2858:2932   */\n      swap2\n      pop\n        /* \"#utility.yul\":2941:3034   */\n      tag_150\n        /* \"#utility.yul\":3030:3033   */\n      dup3\n        /* \"#utility.yul\":2941:3034   */\n      tag_151\n      jump\t// in\n    tag_150:\n        /* \"#utility.yul\":3059:3061   */\n      0x40\n        /* \"#utility.yul\":3054:3057   */\n      dup3\n        /* \"#utility.yul\":3050:3062   */\n      add\n        /* \"#utility.yul\":3043:3062   */\n      swap1\n      pop\n        /* \"#utility.yul\":2702:3068   */\n      swap2\n      swap1\n      pop\n      jump\t// out\n        /* \"#utility.yul\":3074:3440   */\n    tag_152:\n        /* \"#utility.yul\":3216:3219   */\n      0x00\n        /* \"#utility.yul\":3237:3304   */\n      tag_154\n        /* \"#utility.yul\":3301:3303   */\n      0x22\n        /* \"#utility.yul\":3296:3299   */\n      dup4\n        /* \"#utility.yul\":3237:3304   */\n      tag_142\n      jump\t// in\n    tag_154:\n        /* \"#utility.yul\":3230:3304   */\n      swap2\n      pop\n        /* \"#utility.yul\":3313:3406   */\n      tag_155\n        /* \"#utility.yul\":3402:3405   */\n      dup3\n        /* \"#utility.yul\":3313:3406   */\n      tag_156\n      jump\t// in\n    tag_155:\n        /* \"#utility.yul\":3431:3433   */\n      0x40\n        /* \"#utility.yul\":3426:3429   */\n      dup3\n        /* \"#utility.yul\":3422:3434   */\n      add\n        /* \"#utility.yul\":3415:3434   */\n      swap1\n      pop\n        /* \"#utility.yul\":3074:3440   */\n      swap2\n      swap1\n      pop\n      jump\t// out\n        /* \"#utility.yul\":3446:3812   */\n    tag_157:\n        /* \"#utility.yul\":3588:3591   */\n      0x00\n        /* \"#utility.yul\":3609:3676   */\n      tag_159\n        /* \"#utility.yul\":3673:3675   */\n      0x26\n        /* \"#utility.yul\":3668:3671   */\n      dup4\n        /* \"#utility.yul\":3609:3676   */\n      tag_142\n      jump\t// in\n    tag_159:\n        /* \"#utility.yul\":3602:3676   */\n      swap2\n      pop\n        /* \"#utility.yul\":3685:3778   */\n      tag_160\n        /* \"#utility.yul\":3774:3777   */\n      dup3\n        /* \"#utility.yul\":3685:3778   */\n      tag_161\n      jump\t// in\n    tag_160:\n        /* \"#utility.yul\":3803:3805   */\n      0x40\n        /* \"#utility.yul\":3798:3801   */\n      dup3\n        /* \"#utility.yul\":3794:3806   */\n      add\n        /* \"#utility.yul\":3787:3806   */\n      swap1\n      pop\n        /* \"#utility.yul\":3446:3812   */\n      swap2\n      swap1\n      pop\n      jump\t// out\n        /* \"#utility.yul\":3818:4184   */\n    tag_162:\n        /* \"#utility.yul\":3960:3963   */\n      0x00\n        /* \"#utility.yul\":3981:4048   */\n      tag_164\n        /* \"#utility.yul\":4045:4047   */\n      0x28\n        /* \"#utility.yul\":4040:4043   */\n      dup4\n        /* \"#utility.yul\":3981:4048   */\n      tag_142\n      jump\t// in\n    tag_164:\n        /* \"#utility.yul\":3974:4048   */\n      swap2\n      pop\n        /* \"#utility.yul\":4057:4150   */\n      tag_165\n        /* \"#utility.yul\":4146:4149   */\n      dup3\n        /* \"#utility.yul\":4057:4150   */\n      tag_166\n      jump\t// in\n    tag_165:\n        /* \"#utility.yul\":4175:4177   */\n      0x40\n        /* \"#utility.yul\":4170:4173   */\n      dup3\n        /* \"#utility.yul\":4166:4178   */\n      add\n        /* \"#utility.yul\":4159:4178   */\n      swap1\n      pop\n        /* \"#utility.yul\":3818:4184   */\n      swap2\n      swap1\n      pop\n      jump\t// out\n        /* \"#utility.yul\":4190:4556   */\n    tag_167:\n        /* \"#utility.yul\":4332:4335   */\n      0x00\n        /* \"#utility.yul\":4353:4420   */\n      tag_169\n        /* \"#utility.yul\":4417:4419   */\n      0x25\n        /* \"#utility.yul\":4412:4415   */\n      dup4\n        /* \"#utility.yul\":4353:4420   */\n      tag_142\n      jump\t// in\n    tag_169:\n        /* \"#utility.yul\":4346:4420   */\n      swap2\n      pop\n        /* \"#utility.yul\":4429:4522   */\n      tag_170\n        /* \"#utility.yul\":4518:4521   */\n      dup3\n        /* \"#utility.yul\":4429:4522   */\n      tag_171\n      jump\t// in\n    tag_170:\n        /* \"#utility.yul\":4547:4549   */\n      0x40\n        /* \"#utility.yul\":4542:4545   */\n      dup3\n        /* \"#utility.yul\":4538:4550   */\n      add\n        /* \"#utility.yul\":4531:4550   */\n      swap1\n      pop\n        /* \"#utility.yul\":4190:4556   */\n      swap2\n      swap1\n      pop\n      jump\t// out\n        /* \"#utility.yul\":4562:4928   */\n    tag_172:\n        /* \"#utility.yul\":4704:4707   */\n      0x00\n        /* \"#utility.yul\":4725:4792   */\n      tag_174\n        /* \"#utility.yul\":4789:4791   */\n      0x24\n        /* \"#utility.yul\":4784:4787   */\n      dup4\n        /* \"#utility.yul\":4725:4792   */\n      tag_142\n      jump\t// in\n    tag_174:\n        /* \"#utility.yul\":4718:4792   */\n      swap2\n      pop\n        /* \"#utility.yul\":4801:4894   */\n      tag_175\n        /* \"#utility.yul\":4890:4893   */\n      dup3\n        /* \"#utility.yul\":4801:4894   */\n      tag_176\n      jump\t// in\n    tag_175:\n        /* \"#utility.yul\":4919:4921   */\n      0x40\n        /* \"#utility.yul\":4914:4917   */\n      dup3\n        /* \"#utility.yul\":4910:4922   */\n      add\n        /* \"#utility.yul\":4903:4922   */\n      swap1\n      pop\n        /* \"#utility.yul\":4562:4928   */\n      swap2\n      swap1\n      pop\n      jump\t// out\n        /* \"#utility.yul\":4934:5052   */\n    tag_177:\n        /* \"#utility.yul\":5021:5045   */\n      tag_179\n        /* \"#utility.yul\":5039:5044   */\n      dup2\n        /* \"#utility.yul\":5021:5045   */\n      tag_180\n      jump\t// in\n    tag_179:\n        /* \"#utility.yul\":5016:5019   */\n      dup3\n        /* \"#utility.yul\":5009:5046   */\n      mstore\n        /* \"#utility.yul\":4934:5052   */\n      pop\n      pop\n      jump\t// out\n        /* \"#utility.yul\":5058:5170   */\n    tag_181:\n        /* \"#utility.yul\":5141:5163   */\n      tag_183\n        /* \"#utility.yul\":5157:5162   */\n      dup2\n        /* \"#utility.yul\":5141:5163   */\n      tag_184\n      jump\t// in\n    tag_183:\n        /* \"#utility.yul\":5136:5139   */\n      dup3\n        /* \"#utility.yul\":5129:5164   */\n      mstore\n        /* \"#utility.yul\":5058:5170   */\n      pop\n      pop\n      jump\t// out\n        /* \"#utility.yul\":5176:5386   */\n    tag_18:\n        /* \"#utility.yul\":5263:5267   */\n      0x00\n        /* \"#utility.yul\":5301:5303   */\n      0x20\n        /* \"#utility.yul\":5290:5299   */\n      dup3\n        /* \"#utility.yul\":5286:5304   */\n      add\n        /* \"#utility.yul\":5278:5304   */\n      swap1\n      pop\n        /* \"#utility.yul\":5314:5379   */\n      tag_186\n        /* \"#utility.yul\":5376:5377   */\n      0x00\n        /* \"#utility.yul\":5365:5374   */\n      dup4\n        /* \"#utility.yul\":5361:5378   */\n      add\n        /* \"#utility.yul\":5352:5358   */\n      dup5\n        /* \"#utility.yul\":5314:5379   */\n      tag_133\n      jump\t// in\n    tag_186:\n        /* \"#utility.yul\":5176:5386   */\n      swap3\n      swap2\n      pop\n      pop\n      jump\t// out\n        /* \"#utility.yul\":5392:5705   */\n    tag_22:\n        /* \"#utility.yul\":5505:5509   */\n      0x00\n        /* \"#utility.yul\":5543:5545   */\n      0x20\n        /* \"#utility.yul\":5532:5541   */\n      dup3\n        /* \"#utility.yul\":5528:5546   */\n      add\n        /* \"#utility.yul\":5520:5546   */\n      swap1\n      pop\n        /* \"#utility.yul\":5592:5601   */\n      dup2\n        /* \"#utility.yul\":5586:5590   */\n      dup2\n        /* \"#utility.yul\":5582:5602   */\n      sub\n        /* \"#utility.yul\":5578:5579   */\n      0x00\n        /* \"#utility.yul\":5567:5576   */\n      dup4\n        /* \"#utility.yul\":5563:5580   */\n      add\n        /* \"#utility.yul\":5556:5603   */\n      mstore\n        /* \"#utility.yul\":5620:5698   */\n      tag_188\n        /* \"#utility.yul\":5693:5697   */\n      dup2\n        /* \"#utility.yul\":5684:5690   */\n      dup5\n        /* \"#utility.yul\":5620:5698   */\n      tag_137\n      jump\t// in\n    tag_188:\n        /* \"#utility.yul\":5612:5698   */\n      swap1\n      pop\n        /* \"#utility.yul\":5392:5705   */\n      swap3\n      swap2\n      pop\n      pop\n      jump\t// out\n        /* \"#utility.yul\":5711:6130   */\n    tag_96:\n        /* \"#utility.yul\":5877:5881   */\n      0x00\n        /* \"#utility.yul\":5915:5917   */\n      0x20\n        /* \"#utility.yul\":5904:5913   */\n      dup3\n        /* \"#utility.yul\":5900:5918   */\n      add\n        /* \"#utility.yul\":5892:5918   */\n      swap1\n      pop\n        /* \"#utility.yul\":5964:5973   */\n      dup2\n        /* \"#utility.yul\":5958:5962   */\n      dup2\n        /* \"#utility.yul\":5954:5974   */\n      sub\n        /* \"#utility.yul\":5950:5951   */\n      0x00\n        /* \"#utility.yul\":5939:5948   */\n      dup4\n        /* \"#utility.yul\":5935:5952   */\n      add\n        /* \"#utility.yul\":5928:5975   */\n      mstore\n        /* \"#utility.yul\":5992:6123   */\n      tag_190\n        /* \"#utility.yul\":6118:6122   */\n      dup2\n        /* \"#utility.yul\":5992:6123   */\n      tag_147\n      jump\t// in\n    tag_190:\n        /* \"#utility.yul\":5984:6123   */\n      swap1\n      pop\n        /* \"#utility.yul\":5711:6130   */\n      swap2\n      swap1\n      pop\n      jump\t// out\n        /* \"#utility.yul\":6136:6555   */\n    tag_88:\n        /* \"#utility.yul\":6302:6306   */\n      0x00\n        /* \"#utility.yul\":6340:6342   */\n      0x20\n        /* \"#utility.yul\":6329:6338   */\n      dup3\n        /* \"#utility.yul\":6325:6343   */\n      add\n        /* \"#utility.yul\":6317:6343   */\n      swap1\n      pop\n        /* \"#utility.yul\":6389:6398   */\n      dup2\n        /* \"#utility.yul\":6383:6387   */\n      dup2\n        /* \"#utility.yul\":6379:6399   */\n      sub\n        /* \"#utility.yul\":6375:6376   */\n      0x00\n        /* \"#utility.yul\":6364:6373   */\n      dup4\n        /* \"#utility.yul\":6360:6377   */\n      add\n        /* \"#utility.yul\":6353:6400   */\n      mstore\n        /* \"#utility.yul\":6417:6548   */\n      tag_192\n        /* \"#utility.yul\":6543:6547   */\n      dup2\n        /* \"#utility.yul\":6417:6548   */\n      tag_152\n      jump\t// in\n    tag_192:\n        /* \"#utility.yul\":6409:6548   */\n      swap1\n      pop\n        /* \"#utility.yul\":6136:6555   */\n      swap2\n      swap1\n      pop\n      jump\t// out\n        /* \"#utility.yul\":6561:6980   */\n    tag_99:\n        /* \"#utility.yul\":6727:6731   */\n      0x00\n        /* \"#utility.yul\":6765:6767   */\n      0x20\n        /* \"#utility.yul\":6754:6763   */\n      dup3\n        /* \"#utility.yul\":6750:6768   */\n      add\n        /* \"#utility.yul\":6742:6768   */\n      swap1\n      pop\n        /* \"#utility.yul\":6814:6823   */\n      dup2\n        /* \"#utility.yul\":6808:6812   */\n      dup2\n        /* \"#utility.yul\":6804:6824   */\n      sub\n        /* \"#utility.yul\":6800:6801   */\n      0x00\n        /* \"#utility.yul\":6789:6798   */\n      dup4\n        /* \"#utility.yul\":6785:6802   */\n      add\n        /* \"#utility.yul\":6778:6825   */\n      mstore\n        /* \"#utility.yul\":6842:6973   */\n      tag_194\n        /* \"#utility.yul\":6968:6972   */\n      dup2\n        /* \"#utility.yul\":6842:6973   */\n      tag_157\n      jump\t// in\n    tag_194:\n        /* \"#utility.yul\":6834:6973   */\n      swap1\n      pop\n        /* \"#utility.yul\":6561:6980   */\n      swap2\n      swap1\n      pop\n      jump\t// out\n        /* \"#utility.yul\":6986:7405   */\n    tag_75:\n        /* \"#utility.yul\":7152:7156   */\n      0x00\n        /* \"#utility.yul\":7190:7192   */\n      0x20\n        /* \"#utility.yul\":7179:7188   */\n      dup3\n        /* \"#utility.yul\":7175:7193   */\n      add\n        /* \"#utility.yul\":7167:7193   */\n      swap1\n      pop\n        /* \"#utility.yul\":7239:7248   */\n      dup2\n        /* \"#utility.yul\":7233:7237   */\n      dup2\n        /* \"#utility.yul\":7229:7249   */\n      sub\n        /* \"#utility.yul\":7225:7226   */\n      0x00\n        /* \"#utility.yul\":7214:7223   */\n      dup4\n        /* \"#utility.yul\":7210:7227   */\n      add\n        /* \"#utility.yul\":7203:7250   */\n      mstore\n        /* \"#utility.yul\":7267:7398   */\n      tag_196\n        /* \"#utility.yul\":7393:7397   */\n      dup2\n        /* \"#utility.yul\":7267:7398   */\n      tag_162\n      jump\t// in\n    tag_196:\n        /* \"#utility.yul\":7259:7398   */\n      swap1\n      pop\n        /* \"#utility.yul\":6986:7405   */\n      swap2\n      swap1\n      pop\n      jump\t// out\n        /* \"#utility.yul\":7411:7830   */\n    tag_93:\n        /* \"#utility.yul\":7577:7581   */\n      0x00\n        /* \"#utility.yul\":7615:7617   */\n      0x20\n        /* \"#utility.yul\":7604:7613   */\n      dup3\n        /* \"#utility.yul\":7600:7618   */\n      add\n        /* \"#utility.yul\":7592:7618   */\n      swap1\n      pop\n        /* \"#utility.yul\":7664:7673   */\n      dup2\n        /* \"#utility.yul\":7658:7662   */\n      dup2\n        /* \"#utility.yul\":7654:7674   */\n      sub\n        /* \"#utility.yul\":7650:7651   */\n      0x00\n        /* \"#utility.yul\":7639:7648   */\n      dup4\n        /* \"#utility.yul\":7635:7652   */\n      add\n        /* \"#utility.yul\":7628:7675   */\n      mstore\n        /* \"#utility.yul\":7692:7823   */\n      tag_198\n        /* \"#utility.yul\":7818:7822   */\n      dup2\n        /* \"#utility.yul\":7692:7823   */\n      tag_167\n      jump\t// in\n    tag_198:\n        /* \"#utility.yul\":7684:7823   */\n      swap1\n      pop\n        /* \"#utility.yul\":7411:7830   */\n      swap2\n      swap1\n      pop\n      jump\t// out\n        /* \"#utility.yul\":7836:8255   */\n    tag_85:\n        /* \"#utility.yul\":8002:8006   */\n      0x00\n        /* \"#utility.yul\":8040:8042   */\n      0x20\n        /* \"#utility.yul\":8029:8038   */\n      dup3\n        /* \"#utility.yul\":8025:8043   */\n      add\n        /* \"#utility.yul\":8017:8043   */\n      swap1\n      pop\n        /* \"#utility.yul\":8089:8098   */\n      dup2\n        /* \"#utility.yul\":8083:8087   */\n      dup2\n        /* \"#utility.yul\":8079:8099   */\n      sub\n        /* \"#utility.yul\":8075:8076   */\n      0x00\n        /* \"#utility.yul\":8064:8073   */\n      dup4\n        /* \"#utility.yul\":8060:8077   */\n      add\n        /* \"#utility.yul\":8053:8100   */\n      mstore\n        /* \"#utility.yul\":8117:8248   */\n      tag_200\n        /* \"#utility.yul\":8243:8247   */\n      dup2\n        /* \"#utility.yul\":8117:8248   */\n      tag_172\n      jump\t// in\n    tag_200:\n        /* \"#utility.yul\":8109:8248   */\n      swap1\n      pop\n        /* \"#utility.yul\":7836:8255   */\n      swap2\n      swap1\n      pop\n      jump\t// out\n        /* \"#utility.yul\":8261:8483   */\n    tag_29:\n        /* \"#utility.yul\":8354:8358   */\n      0x00\n        /* \"#utility.yul\":8392:8394   */\n      0x20\n        /* \"#utility.yul\":8381:8390   */\n      dup3\n        /* \"#utility.yul\":8377:8395   */\n      add\n        /* \"#utility.yul\":8369:8395   */\n      swap1\n      pop\n        /* \"#utility.yul\":8405:8476   */\n      tag_202\n        /* \"#utility.yul\":8473:8474   */\n      0x00\n        /* \"#utility.yul\":8462:8471   */\n      dup4\n        /* \"#utility.yul\":8458:8475   */\n      add\n        /* \"#utility.yul\":8449:8455   */\n      dup5\n        /* \"#utility.yul\":8405:8476   */\n      tag_177\n      jump\t// in\n    tag_202:\n        /* \"#utility.yul\":8261:8483   */\n      swap3\n      swap2\n      pop\n      pop\n      jump\t// out\n        /* \"#utility.yul\":8489:8703   */\n    tag_38:\n        /* \"#utility.yul\":8578:8582   */\n      0x00\n        /* \"#utility.yul\":8616:8618   */\n      0x20\n        /* \"#utility.yul\":8605:8614   */\n      dup3\n        /* \"#utility.yul\":8601:8619   */\n      add\n        /* \"#utility.yul\":8593:8619   */\n      swap1\n      pop\n        /* \"#utility.yul\":8629:8696   */\n      tag_204\n        /* \"#utility.yul\":8693:8694   */\n      0x00\n        /* \"#utility.yul\":8682:8691   */\n      dup4\n        /* \"#utility.yul\":8678:8695   */\n      add\n        /* \"#utility.yul\":8669:8675   */\n      dup5\n        /* \"#utility.yul\":8629:8696   */\n      tag_181\n      jump\t// in\n    tag_204:\n        /* \"#utility.yul\":8489:8703   */\n      swap3\n      swap2\n      pop\n      pop\n      jump\t// out\n        /* \"#utility.yul\":8790:8889   */\n    tag_140:\n        /* \"#utility.yul\":8842:8848   */\n      0x00\n        /* \"#utility.yul\":8876:8881   */\n      dup2\n        /* \"#utility.yul\":8870:8882   */\n      mload\n        /* \"#utility.yul\":8860:8882   */\n      swap1\n      pop\n        /* \"#utility.yul\":8790:8889   */\n      swap2\n      swap1\n      pop\n      jump\t// out\n        /* \"#utility.yul\":8895:9064   */\n    tag_142:\n        /* \"#utility.yul\":8979:8990   */\n      0x00\n        /* \"#utility.yul\":9013:9019   */\n      dup3\n        /* \"#utility.yul\":9008:9011   */\n      dup3\n        /* \"#utility.yul\":9001:9020   */\n      mstore\n        /* \"#utility.yul\":9053:9057   */\n      0x20\n        /* \"#utility.yul\":9048:9051   */\n      dup3\n        /* \"#utility.yul\":9044:9058   */\n      add\n        /* \"#utility.yul\":9029:9058   */\n      swap1\n      pop\n        /* \"#utility.yul\":8895:9064   */\n      swap3\n      swap2\n      pop\n      pop\n      jump\t// out\n        /* \"#utility.yul\":9070:9375   */\n    tag_101:\n        /* \"#utility.yul\":9110:9113   */\n      0x00\n        /* \"#utility.yul\":9129:9149   */\n      tag_210\n        /* \"#utility.yul\":9147:9148   */\n      dup3\n        /* \"#utility.yul\":9129:9149   */\n      tag_180\n      jump\t// in\n    tag_210:\n        /* \"#utility.yul\":9124:9149   */\n      swap2\n      pop\n        /* \"#utility.yul\":9163:9183   */\n      tag_211\n        /* \"#utility.yul\":9181:9182   */\n      dup4\n        /* \"#utility.yul\":9163:9183   */\n      tag_180\n      jump\t// in\n    tag_211:\n        /* \"#utility.yul\":9158:9183   */\n      swap3\n      pop\n        /* \"#utility.yul\":9317:9318   */\n      dup3\n        /* \"#utility.yul\":9249:9315   */\n      0xffffffffffffffffffffffffffffffffffffffffffffffffffffffffffffffff\n        /* \"#utility.yul\":9245:9319   */\n      sub\n        /* \"#utility.yul\":9242:9243   */\n      dup3\n        /* \"#utility.yul\":9239:9320   */\n      gt\n        /* \"#utility.yul\":9236:9343   */\n      iszero\n      tag_212\n      jumpi\n        /* \"#utility.yul\":9323:9341   */\n      tag_213\n      tag_214\n      jump\t// in\n    tag_213:\n        /* \"#utility.yul\":9236:9343   */\n    tag_212:\n        /* \"#utility.yul\":9367:9368   */\n      dup3\n        /* \"#utility.yul\":9364:9365   */\n      dup3\n        /* \"#utility.yul\":9360:9369   */\n      add\n        /* \"#utility.yul\":9353:9369   */\n      swap1\n      pop\n        /* \"#utility.yul\":9070:9375   */\n      swap3\n      swap2\n      pop\n      pop\n      jump\t// out\n        /* \"#utility.yul\":9381:9477   */\n    tag_215:\n        /* \"#utility.yul\":9418:9425   */\n      0x00\n        /* \"#utility.yul\":9447:9471   */\n      tag_217\n        /* \"#utility.yul\":9465:9470   */\n      dup3\n        /* \"#utility.yul\":9447:9471   */\n      tag_218\n      jump\t// in\n    tag_217:\n        /* \"#utility.yul\":9436:9471   */\n      swap1\n      pop\n        /* \"#utility.yul\":9381:9477   */\n      swap2\n      swap1\n      pop\n      jump\t// out\n        /* \"#utility.yul\":9483:9573   */\n    tag_136:\n        /* \"#utility.yul\":9517:9524   */\n      0x00\n        /* \"#utility.yul\":9560:9565   */\n      dup2\n        /* \"#utility.yul\":9553:9566   */\n      iszero\n        /* \"#utility.yul\":9546:9567   */\n      iszero\n        /* \"#utility.yul\":9535:9567   */\n      swap1\n      pop\n        /* \"#utility.yul\":9483:9573   */\n      swap2\n      swap1\n      pop\n      jump\t// out\n        /* \"#utility.yul\":9579:9705   */\n    tag_218:\n        /* \"#utility.yul\":9616:9623   */\n      0x00\n        /* \"#utility.yul\":9656:9698   */\n      0xffffffffffffffffffffffffffffffffffffffff\n        /* \"#utility.yul\":9649:9654   */\n      dup3\n        /* \"#utility.yul\":9645:9699   */\n      and\n        /* \"#utility.yul\":9634:9699   */\n      swap1\n      pop\n        /* \"#utility.yul\":9579:9705   */\n      swap2\n      swap1\n      pop\n      jump\t// out\n        /* \"#utility.yul\":9711:9788   */\n    tag_180:\n        /* \"#utility.yul\":9748:9755   */\n      0x00\n        /* \"#utility.yul\":9777:9782   */\n      dup2\n        /* \"#utility.yul\":9766:9782   */\n      swap1\n      pop\n        /* \"#utility.yul\":9711:9788   */\n      swap2\n      swap1\n      pop\n      jump\t// out\n        /* \"#utility.yul\":9794:9880   */\n    tag_184:\n        /* \"#utility.yul\":9829:9836   */\n      0x00\n        /* \"#utility.yul\":9869:9873   */\n      0xff\n        /* \"#utility.yul\":9862:9867   */\n      dup3\n        /* \"#utility.yul\":9858:9874   */\n      and\n        /* \"#utility.yul\":9847:9874   */\n      swap1\n      pop\n        /* \"#utility.yul\":9794:9880   */\n      swap2\n      swap1\n      pop\n      jump\t// out\n        /* \"#utility.yul\":9886:10193   */\n    tag_144:\n        /* \"#utility.yul\":9954:9955   */\n      0x00\n        /* \"#utility.yul\":9964:10077   */\n    tag_224:\n        /* \"#utility.yul\":9978:9984   */\n      dup4\n        /* \"#utility.yul\":9975:9976   */\n      dup2\n        /* \"#utility.yul\":9972:9985   */\n      lt\n        /* \"#utility.yul\":9964:10077   */\n      iszero\n      tag_226\n      jumpi\n        /* \"#utility.yul\":10063:10064   */\n      dup1\n        /* \"#utility.yul\":10058:10061   */\n      dup3\n        /* \"#utility.yul\":10054:10065   */\n      add\n        /* \"#utility.yul\":10048:10066   */\n      mload\n        /* \"#utility.yul\":10044:10045   */\n      dup2\n        /* \"#utility.yul\":10039:10042   */\n      dup5\n        /* \"#utility.yul\":10035:10046   */\n      add\n        /* \"#utility.yul\":10028:10067   */\n      mstore\n        /* \"#utility.yul\":10000:10002   */\n      0x20\n        /* \"#utility.yul\":9997:9998   */\n      dup2\n        /* \"#utility.yul\":9993:10003   */\n      add\n        /* \"#utility.yul\":9988:10003   */\n      swap1\n      pop\n        /* \"#utility.yul\":9964:10077   */\n      jump(tag_224)\n    tag_226:\n        /* \"#utility.yul\":10095:10101   */\n      dup4\n        /* \"#utility.yul\":10092:10093   */\n      dup2\n        /* \"#utility.yul\":10089:10102   */\n      gt\n        /* \"#utility.yul\":10086:10187   */\n      iszero\n      tag_227\n      jumpi\n        /* \"#utility.yul\":10175:10176   */\n      0x00\n        /* \"#utility.yul\":10166:10172   */\n      dup5\n        /* \"#utility.yul\":10161:10164   */\n      dup5\n        /* \"#utility.yul\":10157:10173   */\n      add\n        /* \"#utility.yul\":10150:10177   */\n      mstore\n        /* \"#utility.yul\":10086:10187   */\n    tag_227:\n        /* \"#utility.yul\":9935:10193   */\n      pop\n        /* \"#utility.yul\":9886:10193   */\n      pop\n      pop\n      pop\n      jump\t// out\n        /* \"#utility.yul\":10199:10519   */\n    tag_58:\n        /* \"#utility.yul\":10243:10249   */\n      0x00\n        /* \"#utility.yul\":10280:10281   */\n      0x02\n        /* \"#utility.yul\":10274:10278   */\n      dup3\n        /* \"#utility.yul\":10270:10282   */\n      div\n        /* \"#utility.yul\":10260:10282   */\n      swap1\n      pop\n        /* \"#utility.yul\":10327:10328   */\n      0x01\n        /* \"#utility.yul\":10321:10325   */\n      dup3\n        /* \"#utility.yul\":10317:10329   */\n      and\n        /* \"#utility.yul\":10348:10366   */\n      dup1\n        /* \"#utility.yul\":10338:10419   */\n      tag_229\n      jumpi\n        /* \"#utility.yul\":10404:10408   */\n      0x7f\n        /* \"#utility.yul\":10396:10402   */\n      dup3\n        /* \"#utility.yul\":10392:10409   */\n      and\n        /* \"#utility.yul\":10382:10409   */\n      swap2\n      pop\n        /* \"#utility.yul\":10338:10419   */\n    tag_229:\n        /* \"#utility.yul\":10466:10468   */\n      0x20\n        /* \"#utility.yul\":10458:10464   */\n      dup3\n        /* \"#utility.yul\":10455:10469   */\n      lt\n        /* \"#utility.yul\":10435:10453   */\n      dup2\n        /* \"#utility.yul\":10432:10470   */\n      eq\n        /* \"#utility.yul\":10429:10513   */\n      iszero\n      tag_230\n      jumpi\n        /* \"#utility.yul\":10485:10503   */\n      tag_231\n      tag_232\n      jump\t// in\n    tag_231:\n        /* \"#utility.yul\":10429:10513   */\n    tag_230:\n        /* \"#utility.yul\":10250:10519   */\n      pop\n        /* \"#utility.yul\":10199:10519   */\n      swap2\n      swap1\n      pop\n      jump\t// out\n        /* \"#utility.yul\":10525:10705   */\n    tag_214:\n        /* \"#utility.yul\":10573:10650   */\n      0x4e487b7100000000000000000000000000000000000000000000000000000000\n        /* \"#utility.yul\":10570:10571   */\n      0x00\n        /* \"#utility.yul\":10563:10651   */\n      mstore\n        /* \"#utility.yul\":10670:10674   */\n      0x11\n        /* \"#utility.yul\":10667:10668   */\n      0x04\n        /* \"#utility.yul\":10660:10675   */\n      mstore\n        /* \"#utility.yul\":10694:10698   */\n      0x24\n        /* \"#utility.yul\":10691:10692   */\n      0x00\n        /* \"#utility.yul\":10684:10699   */\n      revert\n        /* \"#utility.yul\":10711:10891   */\n    tag_232:\n        /* \"#utility.yul\":10759:10836   */\n      0x4e487b7100000000000000000000000000000000000000000000000000000000\n        /* \"#utility.yul\":10756:10757   */\n      0x00\n        /* \"#utility.yul\":10749:10837   */\n      mstore\n        /* \"#utility.yul\":10856:10860   */\n      0x22\n        /* \"#utility.yul\":10853:10854   */\n      0x04\n        /* \"#utility.yul\":10846:10861   */\n      mstore\n        /* \"#utility.yul\":10880:10884   */\n      0x24\n        /* \"#utility.yul\":10877:10878   */\n      0x00\n        /* \"#utility.yul\":10870:10885   */\n      revert\n        /* \"#utility.yul\":11020:11137   */\n    tag_115:\n        /* \"#utility.yul\":11129:11130   */\n      0x00\n        /* \"#utility.yul\":11126:11127   */\n      dup1\n        /* \"#utility.yul\":11119:11131   */\n      revert\n        /* \"#utility.yul\":11143:11245   */\n    tag_146:\n        /* \"#utility.yul\":11184:11190   */\n      0x00\n        /* \"#utility.yul\":11235:11237   */\n      0x1f\n        /* \"#utility.yul\":11231:11238   */\n      not\n        /* \"#utility.yul\":11226:11228   */\n      0x1f\n        /* \"#utility.yul\":11219:11224   */\n      dup4\n        /* \"#utility.yul\":11215:11229   */\n      add\n        /* \"#utility.yul\":11211:11239   */\n      and\n        /* \"#utility.yul\":11201:11239   */\n      swap1\n      pop\n        /* \"#utility.yul\":11143:11245   */\n      swap2\n      swap1\n      pop\n      jump\t// out\n        /* \"#utility.yul\":11251:11473   */\n    tag_151:\n        /* \"#utility.yul\":11391:11425   */\n      0x45524332303a207472616e7366657220746f20746865207a65726f2061646472\n        /* \"#utility.yul\":11387:11388   */\n      0x00\n        /* \"#utility.yul\":11379:11385   */\n      dup3\n        /* \"#utility.yul\":11375:11389   */\n      add\n        /* \"#utility.yul\":11368:11426   */\n      mstore\n        /* \"#utility.yul\":11460:11465   */\n      0x6573730000000000000000000000000000000000000000000000000000000000\n        /* \"#utility.yul\":11455:11457   */\n      0x20\n        /* \"#utility.yul\":11447:11453   */\n      dup3\n        /* \"#utility.yul\":11443:11458   */\n      add\n        /* \"#utility.yul\":11436:11466   */\n      mstore\n        /* \"#utility.yul\":11251:11473   */\n      pop\n      jump\t// out\n        /* \"#utility.yul\":11479:11700   */\n    tag_156:\n        /* \"#utility.yul\":11619:11653   */\n      0x45524332303a20617070726f766520746f20746865207a65726f206164647265\n        /* \"#utility.yul\":11615:11616   */\n      0x00\n        /* \"#utility.yul\":11607:11613   */\n      dup3\n        /* \"#utility.yul\":11603:11617   */\n      add\n        /* \"#utility.yul\":11596:11654   */\n      mstore\n        /* \"#utility.yul\":11688:11692   */\n      0x7373000000000000000000000000000000000000000000000000000000000000\n        /* \"#utility.yul\":11683:11685   */\n      0x20\n        /* \"#utility.yul\":11675:11681   */\n      dup3\n        /* \"#utility.yul\":11671:11686   */\n      add\n        /* \"#utility.yul\":11664:11693   */\n      mstore\n        /* \"#utility.yul\":11479:11700   */\n      pop\n      jump\t// out\n        /* \"#utility.yul\":11706:11931   */\n    tag_161:\n        /* \"#utility.yul\":11846:11880   */\n      0x45524332303a207472616e7366657220616d6f756e7420657863656564732062\n        /* \"#utility.yul\":11842:11843   */\n      0x00\n        /* \"#utility.yul\":11834:11840   */\n      dup3\n        /* \"#utility.yul\":11830:11844   */\n      add\n        /* \"#utility.yul\":11823:11881   */\n      mstore\n        /* \"#utility.yul\":11915:11923   */\n      0x616c616e63650000000000000000000000000000000000000000000000000000\n        /* \"#utility.yul\":11910:11912   */\n      0x20\n        /* \"#utility.yul\":11902:11908   */\n      dup3\n        /* \"#utility.yul\":11898:11913   */\n      add\n        /* \"#utility.yul\":11891:11924   */\n      mstore\n        /* \"#utility.yul\":11706:11931   */\n      pop\n      jump\t// out\n        /* \"#utility.yul\":11937:12164   */\n    tag_166:\n        /* \"#utility.yul\":12077:12111   */\n      0x45524332303a207472616e7366657220616d6f756e7420657863656564732061\n        /* \"#utility.yul\":12073:12074   */\n      0x00\n        /* \"#utility.yul\":12065:12071   */\n      dup3\n        /* \"#utility.yul\":12061:12075   */\n      add\n        /* \"#utility.yul\":12054:12112   */\n      mstore\n        /* \"#utility.yul\":12146:12156   */\n      0x6c6c6f77616e6365000000000000000000000000000000000000000000000000\n        /* \"#utility.yul\":12141:12143   */\n      0x20\n        /* \"#utility.yul\":12133:12139   */\n      dup3\n        /* \"#utility.yul\":12129:12144   */\n      add\n        /* \"#utility.yul\":12122:12157   */\n      mstore\n        /* \"#utility.yul\":11937:12164   */\n      pop\n      jump\t// out\n        /* \"#utility.yul\":12170:12394   */\n    tag_171:\n        /* \"#utility.yul\":12310:12344   */\n      0x45524332303a207472616e736665722066726f6d20746865207a65726f206164\n        /* \"#utility.yul\":12306:12307   */\n      0x00\n        /* \"#utility.yul\":12298:12304   */\n      dup3\n        /* \"#utility.yul\":12294:12308   */\n      add\n        /* \"#utility.yul\":12287:12345   */\n      mstore\n        /* \"#utility.yul\":12379:12386   */\n      0x6472657373000000000000000000000000000000000000000000000000000000\n        /* \"#utility.yul\":12374:12376   */\n      0x20\n        /* \"#utility.yul\":12366:12372   */\n      dup3\n        /* \"#utility.yul\":12362:12377   */\n      add\n        /* \"#utility.yul\":12355:12387   */\n      mstore\n        /* \"#utility.yul\":12170:12394   */\n      pop\n      jump\t// out\n        /* \"#utility.yul\":12400:12623   */\n    tag_176:\n        /* \"#utility.yul\":12540:12574   */\n      0x45524332303a20617070726f76652066726f6d20746865207a65726f20616464\n        /* \"#utility.yul\":12536:12537   */\n      0x00\n        /* \"#utility.yul\":12528:12534   */\n      dup3\n        /* \"#utility.yul\":12524:12538   */\n      add\n        /* \"#utility.yul\":12517:12575   */\n      mstore\n        /* \"#utility.yul\":12609:12615   */\n      0x7265737300000000000000000000000000000000000000000000000000000000\n        /* \"#utility.yul\":12604:12606   */\n      0x20\n        /* \"#utility.yul\":12596:12602   */\n      dup3\n        /* \"#utility.yul\":12592:12607   */\n      add\n        /* \"#utility.yul\":12585:12616   */\n      mstore\n        /* \"#utility.yul\":12400:12623   */\n      pop\n      jump\t// out\n        /* \"#utility.yul\":12629:12751   */\n    tag_107:\n        /* \"#utility.yul\":12702:12726   */\n      tag_246\n        /* \"#utility.yul\":12720:12725   */\n      dup2\n        /* \"#utility.yul\":12702:12726   */\n      tag_215\n      jump\t// in\n    tag_246:\n        /* \"#utility.yul\":12695:12700   */\n      dup2\n        /* \"#utility.yul\":12692:12727   */\n      eq\n        /* \"#utility.yul\":12682:12745   */\n      tag_247\n      jumpi\n        /* \"#utility.yul\":12741:12742   */\n      0x00\n        /* \"#utility.yul\":12738:12739   */\n      dup1\n        /* \"#utility.yul\":12731:12743   */\n      revert\n        /* \"#utility.yul\":12682:12745   */\n    tag_247:\n        /* \"#utility.yul\":12629:12751   */\n      pop\n      jump\t// out\n        /* \"#utility.yul\":12757:12879   */\n    tag_111:\n        /* \"#utility.yul\":12830:12854   */\n      tag_249\n        /* \"#utility.yul\":12848:12853   */\n      dup2\n        /* \"#utility.yul\":12830:12854   */\n      tag_180\n      jump\t// in\n    tag_249:\n        /* \"#utility.yul\":12823:12828   */\n      dup2\n        /* \"#utility.yul\":12820:12855   */\n      eq\n        /* \"#utility.yul\":12810:12873   */\n      tag_250\n      jumpi\n        /* \"#utility.yul\":12869:12870   */\n      0x00\n        /* \"#utility.yul\":12866:12867   */\n      dup1\n        /* \"#utility.yul\":12859:12871   */\n      revert\n        /* \"#utility.yul\":12810:12873   */\n    tag_250:\n        /* \"#utility.yul\":12757:12879   */\n      pop\n      jump\t// out\n\n    auxdata: 0xa26469706673582212200b06056ac7149069f3988a06a7471e7a6d9ed05ee1e7ba6ac3bc64d7ade4e14a64736f6c63430008070033\n}\n",
				"bytecode": {
					"linkReferences": {},
					"object": "60806040523480156200001157600080fd5b506040516200147f3803806200147f83398181016040528101906200003791906200019f565b81600390805190602001906200004f92919062000071565b5080600490805190602001906200006892919062000071565b505050620003a8565b8280546200007f90620002b9565b90600052602060002090601f016020900481019282620000a35760008555620000ef565b82601f10620000be57805160ff1916838001178555620000ef565b82800160010185558215620000ef579182015b82811115620000ee578251825591602001919060010190620000d1565b5b509050620000fe919062000102565b5090565b5b808211156200011d57600081600090555060010162000103565b5090565b60006200013862000132846200024d565b62000224565b90508281526020810184848401111562000157576200015662000388565b5b6200016484828562000283565b509392505050565b600082601f83011262000184576200018362000383565b5b81516200019684826020860162000121565b91505092915050565b60008060408385031215620001b957620001b862000392565b5b600083015167ffffffffffffffff811115620001da57620001d96200038d565b5b620001e8858286016200016c565b925050602083015167ffffffffffffffff8111156200020c576200020b6200038d565b5b6200021a858286016200016c565b9150509250929050565b60006200023062000243565b90506200023e8282620002ef565b919050565b6000604051905090565b600067ffffffffffffffff8211156200026b576200026a62000354565b5b620002768262000397565b9050602081019050919050565b60005b83811015620002a357808201518184015260208101905062000286565b83811115620002b3576000848401525b50505050565b60006002820490506001821680620002d257607f821691505b60208210811415620002e957620002e862000325565b5b50919050565b620002fa8262000397565b810181811067ffffffffffffffff821117156200031c576200031b62000354565b5b80604052505050565b7f4e487b7100000000000000000000000000000000000000000000000000000000600052602260045260246000fd5b7f4e487b7100000000000000000000000000000000000000000000000000000000600052604160045260246000fd5b600080fd5b600080fd5b600080fd5b600080fd5b6000601f19601f8301169050919050565b6110c780620003b86000396000f3fe608060405234801561001057600080fd5b50600436106100935760003560e01c806323b872dd1161006657806323b872dd14610122578063313ce5671461015257806370a0823114610170578063a9059cbb146101a0578063dd62ed3e146101d057610093565b8063095ea7b31461009857806315070401146100c857806317d7de7c146100e657806318160ddd14610104575b600080fd5b6100b260048036038101906100ad9190610a3e565b610200565b6040516100bf9190610bb6565b60405180910390f35b6100d0610217565b6040516100dd9190610bd1565b60405180910390f35b6100ee6102a9565b6040516100fb9190610bd1565b60405180910390f35b61010c61033b565b6040516101199190610cb3565b60405180910390f35b61013c600480360381019061013791906109eb565b610345565b6040516101499190610bb6565b60405180910390f35b61015a61042f565b6040516101679190610cce565b60405180910390f35b61018a6004803603810190610185919061097e565b610438565b6040516101979190610cb3565b60405180910390f35b6101ba60048036038101906101b59190610a3e565b610480565b6040516101c79190610bb6565b60405180910390f35b6101ea60048036038101906101e591906109ab565b610497565b6040516101f79190610cb3565b60405180910390f35b600061020d33848461051e565b6001905092915050565b60606004805461022690610de3565b80601f016020809104026020016040519081016040528092919081815260200182805461025290610de3565b801561029f5780601f106102745761010080835404028352916020019161029f565b820191906000526020600020905b81548152906001019060200180831161028257829003601f168201915b5050505050905090565b6060600380546102b890610de3565b80601f01602080910402602001604051908101604052809291908181526020018280546102e490610de3565b80156103315780601f1061030657610100808354040283529160200191610331565b820191906000526020600020905b81548152906001019060200180831161031457829003601f168201915b5050505050905090565b6000600254905090565b60006103528484846106e9565b6000600160008673ffffffffffffffffffffffffffffffffffffffff1673ffffffffffffffffffffffffffffffffffffffff16815260200190815260200160002060003373ffffffffffffffffffffffffffffffffffffffff1673ffffffffffffffffffffffffffffffffffffffff16815260200190815260200160002054905082811015610416576040517f08c379a000000000000000000000000000000000000000000000000000000000815260040161040d90610c53565b60405180910390fd5b610423853385840361051e565b60019150509392505050565b60006012905090565b60008060008373ffffffffffffffffffffffffffffffffffffffff1673ffffffffffffffffffffffffffffffffffffffff168152602001908152602001600020549050919050565b600061048d3384846106e9565b6001905092915050565b6000600160008473ffffffffffffffffffffffffffffffffffffffff1673ffffffffffffffffffffffffffffffffffffffff16815260200190815260200160002060008373ffffffffffffffffffffffffffffffffffffffff1673ffffffffffffffffffffffffffffffffffffffff16815260200190815260200160002054905092915050565b600073ffffffffffffffffffffffffffffffffffffffff168373ffffffffffffffffffffffffffffffffffffffff16141561058e576040517f08c379a000000000000000000000000000000000000000000000000000000000815260040161058590610c93565b60405180910390fd5b600073ffffffffffffffffffffffffffffffffffffffff168273ffffffffffffffffffffffffffffffffffffffff1614156105fe576040517f08c379a00000000000000000000000000000000000000000000000000000000081526004016105f590610c13565b60405180910390fd5b80600160008573ffffffffffffffffffffffffffffffffffffffff1673ffffffffffffffffffffffffffffffffffffffff16815260200190815260200160002060008473ffffffffffffffffffffffffffffffffffffffff1673ffffffffffffffffffffffffffffffffffffffff168152602001908152602001600020819055508173ffffffffffffffffffffffffffffffffffffffff168373ffffffffffffffffffffffffffffffffffffffff167f8c5be1e5ebec7d5bd14f71427d1e84f3dd0314c0f7b2291e5b200ac8c7c3b925836040516106dc9190610cb3565b60405180910390a3505050565b600073ffffffffffffffffffffffffffffffffffffffff168373ffffffffffffffffffffffffffffffffffffffff161415610759576040517f08c379a000000000000000000000000000000000000000000000000000000000815260040161075090610c73565b60405180910390fd5b600073ffffffffffffffffffffffffffffffffffffffff168273ffffffffffffffffffffffffffffffffffffffff1614156107c9576040517f08c379a00000000000000000000000000000000000000000000000000000000081526004016107c090610bf3565b60405180910390fd5b60008060008573ffffffffffffffffffffffffffffffffffffffff1673ffffffffffffffffffffffffffffffffffffffff1681526020019081526020016000205490508181101561084f576040517f08c379a000000000000000000000000000000000000000000000000000000000815260040161084690610c33565b60405180910390fd5b8181036000808673ffffffffffffffffffffffffffffffffffffffff1673ffffffffffffffffffffffffffffffffffffffff16815260200190815260200160002081905550816000808573ffffffffffffffffffffffffffffffffffffffff1673ffffffffffffffffffffffffffffffffffffffff16815260200190815260200160002060008282546108e29190610d05565b925050819055508273ffffffffffffffffffffffffffffffffffffffff168473ffffffffffffffffffffffffffffffffffffffff167fddf252ad1be2c89b69c2b068fc378daa952ba7f163c4a11628f55a4df523b3ef846040516109469190610cb3565b60405180910390a350505050565b60008135905061096381611063565b92915050565b6000813590506109788161107a565b92915050565b60006020828403121561099457610993610e73565b5b60006109a284828501610954565b91505092915050565b600080604083850312156109c2576109c1610e73565b5b60006109d085828601610954565b92505060206109e185828601610954565b9150509250929050565b600080600060608486031215610a0457610a03610e73565b5b6000610a1286828701610954565b9350506020610a2386828701610954565b9250506040610a3486828701610969565b9150509250925092565b60008060408385031215610a5557610a54610e73565b5b6000610a6385828601610954565b9250506020610a7485828601610969565b9150509250929050565b610a8781610d6d565b82525050565b6000610a9882610ce9565b610aa28185610cf4565b9350610ab2818560208601610db0565b610abb81610e78565b840191505092915050565b6000610ad3602383610cf4565b9150610ade82610e89565b604082019050919050565b6000610af6602283610cf4565b9150610b0182610ed8565b604082019050919050565b6000610b19602683610cf4565b9150610b2482610f27565b604082019050919050565b6000610b3c602883610cf4565b9150610b4782610f76565b604082019050919050565b6000610b5f602583610cf4565b9150610b6a82610fc5565b604082019050919050565b6000610b82602483610cf4565b9150610b8d82611014565b604082019050919050565b610ba181610d99565b82525050565b610bb081610da3565b82525050565b6000602082019050610bcb6000830184610a7e565b92915050565b60006020820190508181036000830152610beb8184610a8d565b905092915050565b60006020820190508181036000830152610c0c81610ac6565b9050919050565b60006020820190508181036000830152610c2c81610ae9565b9050919050565b60006020820190508181036000830152610c4c81610b0c565b9050919050565b60006020820190508181036000830152610c6c81610b2f565b9050919050565b60006020820190508181036000830152610c8c81610b52565b9050919050565b60006020820190508181036000830152610cac81610b75565b9050919050565b6000602082019050610cc86000830184610b98565b92915050565b6000602082019050610ce36000830184610ba7565b92915050565b600081519050919050565b600082825260208201905092915050565b6000610d1082610d99565b9150610d1b83610d99565b9250827fffffffffffffffffffffffffffffffffffffffffffffffffffffffffffffffff03821115610d5057610d4f610e15565b5b828201905092915050565b6000610d6682610d79565b9050919050565b60008115159050919050565b600073ffffffffffffffffffffffffffffffffffffffff82169050919050565b6000819050919050565b600060ff82169050919050565b60005b83811015610dce578082015181840152602081019050610db3565b83811115610ddd576000848401525b50505050565b60006002820490506001821680610dfb57607f821691505b60208210811415610e0f57610e0e610e44565b5b50919050565b7f4e487b7100000000000000000000000000000000000000000000000000000000600052601160045260246000fd5b7f4e487b7100000000000000000000000000000000000000000000000000000000600052602260045260246000fd5b600080fd5b6000601f19601f8301169050919050565b7f45524332303a207472616e7366657220746f20746865207a65726f206164647260008201527f6573730000000000000000000000000000000000000000000000000000000000602082015250565b7f45524332303a20617070726f766520746f20746865207a65726f20616464726560008201527f7373000000000000000000000000000000000000000000000000000000000000602082015250565b7f45524332303a207472616e7366657220616d6f756e742065786365656473206260008201527f616c616e63650000000000000000000000000000000000000000000000000000602082015250565b7f45524332303a207472616e7366657220616d6f756e742065786365656473206160008201527f6c6c6f77616e6365000000000000000000000000000000000000000000000000602082015250565b7f45524332303a207472616e736665722066726f6d20746865207a65726f20616460008201527f6472657373000000000000000000000000000000000000000000000000000000602082015250565b7f45524332303a20617070726f76652066726f6d20746865207a65726f2061646460008201527f7265737300000000000000000000000000000000000000000000000000000000602082015250565b61106c81610d5b565b811461107757600080fd5b50565b61108381610d99565b811461108e57600080fd5b5056fea26469706673582212200b06056ac7149069f3988a06a7471e7a6d9ed05ee1e7ba6ac3bc64d7ade4e14a64736f6c63430008070033",
					"opcodes": "PUSH1 0x80 PUSH1 0x40 MSTORE CALLVALUE DUP1 ISZERO PUSH3 0x11 JUMPI PUSH1 0x0 DUP1 REVERT JUMPDEST POP PUSH1 0x40 MLOAD PUSH3 0x147F CODESIZE SUB DUP1 PUSH3 0x147F DUP4 CODECOPY DUP2 DUP2 ADD PUSH1 0x40 MSTORE DUP2 ADD SWAP1 PUSH3 0x37 SWAP2 SWAP1 PUSH3 0x19F JUMP JUMPDEST DUP2 PUSH1 0x3 SWAP1 DUP1 MLOAD SWAP1 PUSH1 0x20 ADD SWAP1 PUSH3 0x4F SWAP3 SWAP2 SWAP1 PUSH3 0x71 JUMP JUMPDEST POP DUP1 PUSH1 0x4 SWAP1 DUP1 MLOAD SWAP1 PUSH1 0x20 ADD SWAP1 PUSH3 0x68 SWAP3 SWAP2 SWAP1 PUSH3 0x71 JUMP JUMPDEST POP POP POP PUSH3 0x3A8 JUMP JUMPDEST DUP3 DUP1 SLOAD PUSH3 0x7F SWAP1 PUSH3 0x2B9 JUMP JUMPDEST SWAP1 PUSH1 0x0 MSTORE PUSH1 0x20 PUSH1 0x0 KECCAK256 SWAP1 PUSH1 0x1F ADD PUSH1 0x20 SWAP1 DIV DUP2 ADD SWAP3 DUP3 PUSH3 0xA3 JUMPI PUSH1 0x0 DUP6 SSTORE PUSH3 0xEF JUMP JUMPDEST DUP3 PUSH1 0x1F LT PUSH3 0xBE JUMPI DUP1 MLOAD PUSH1 0xFF NOT AND DUP4 DUP1 ADD OR DUP6 SSTORE PUSH3 0xEF JUMP JUMPDEST DUP3 DUP1 ADD PUSH1 0x1 ADD DUP6 SSTORE DUP3 ISZERO PUSH3 0xEF JUMPI SWAP2 DUP3 ADD JUMPDEST DUP3 DUP2 GT ISZERO PUSH3 0xEE JUMPI DUP3 MLOAD DUP3 SSTORE SWAP2 PUSH1 0x20 ADD SWAP2 SWAP1 PUSH1 0x1 ADD SWAP1 PUSH3 0xD1 JUMP JUMPDEST JUMPDEST POP SWAP1 POP PUSH3 0xFE SWAP2 SWAP1 PUSH3 0x102 JUMP JUMPDEST POP SWAP1 JUMP JUMPDEST JUMPDEST DUP1 DUP3 GT ISZERO PUSH3 0x11D JUMPI PUSH1 0x0 DUP2 PUSH1 0x0 SWAP1 SSTORE POP PUSH1 0x1 ADD PUSH3 0x103 JUMP JUMPDEST POP SWAP1 JUMP JUMPDEST PUSH1 0x0 PUSH3 0x138 PUSH3 0x132 DUP5 PUSH3 0x24D JUMP JUMPDEST PUSH3 0x224 JUMP JUMPDEST SWAP1 POP DUP3 DUP2 MSTORE PUSH1 0x20 DUP2 ADD DUP5 DUP5 DUP5 ADD GT ISZERO PUSH3 0x157 JUMPI PUSH3 0x156 PUSH3 0x388 JUMP JUMPDEST JUMPDEST PUSH3 0x164 DUP5 DUP3 DUP6 PUSH3 0x283 JUMP JUMPDEST POP SWAP4 SWAP3 POP POP POP JUMP JUMPDEST PUSH1 0x0 DUP3 PUSH1 0x1F DUP4 ADD SLT PUSH3 0x184 JUMPI PUSH3 0x183 PUSH3 0x383 JUMP JUMPDEST JUMPDEST DUP2 MLOAD PUSH3 0x196 DUP5 DUP3 PUSH1 0x20 DUP7 ADD PUSH3 0x121 JUMP JUMPDEST SWAP2 POP POP SWAP3 SWAP2 POP POP JUMP JUMPDEST PUSH1 0x0 DUP1 PUSH1 0x40 DUP4 DUP6 SUB SLT ISZERO PUSH3 0x1B9 JUMPI PUSH3 0x1B8 PUSH3 0x392 JUMP JUMPDEST JUMPDEST PUSH1 0x0 DUP4 ADD MLOAD PUSH8 0xFFFFFFFFFFFFFFFF DUP2 GT ISZERO PUSH3 0x1DA JUMPI PUSH3 0x1D9 PUSH3 0x38D JUMP JUMPDEST JUMPDEST PUSH3 0x1E8 DUP6 DUP3 DUP7 ADD PUSH3 0x16C JUMP JUMPDEST SWAP3 POP POP PUSH1 0x20 DUP4 ADD MLOAD PUSH8 0xFFFFFFFFFFFFFFFF DUP2 GT ISZERO PUSH3 0x20C JUMPI PUSH3 0x20B PUSH3 0x38D JUMP JUMPDEST JUMPDEST PUSH3 0x21A DUP6 DUP3 DUP7 ADD PUSH3 0x16C JUMP JUMPDEST SWAP2 POP POP SWAP3 POP SWAP3 SWAP1 POP JUMP JUMPDEST PUSH1 0x0 PUSH3 0x230 PUSH3 0x243 JUMP JUMPDEST SWAP1 POP PUSH3 0x23E DUP3 DUP3 PUSH3 0x2EF JUMP JUMPDEST SWAP2 SWAP1 POP JUMP JUMPDEST PUSH1 0x0 PUSH1 0x40 MLOAD SWAP1 POP SWAP1 JUMP JUMPDEST PUSH1 0x0 PUSH8 0xFFFFFFFFFFFFFFFF DUP3 GT ISZERO PUSH3 0x26B JUMPI PUSH3 0x26A PUSH3 0x354 JUMP JUMPDEST JUMPDEST PUSH3 0x276 DUP3 PUSH3 0x397 JUMP JUMPDEST SWAP1 POP PUSH1 0x20 DUP2 ADD SWAP1 POP SWAP2 SWAP1 POP JUMP JUMPDEST PUSH1 0x0 JUMPDEST DUP4 DUP2 LT ISZERO PUSH3 0x2A3 JUMPI DUP1 DUP3 ADD MLOAD DUP2 DUP5 ADD MSTORE PUSH1 0x20 DUP2 ADD SWAP1 POP PUSH3 0x286 JUMP JUMPDEST DUP4 DUP2 GT ISZERO PUSH3 0x2B3 JUMPI PUSH1 0x0 DUP5 DUP5 ADD MSTORE JUMPDEST POP POP POP POP JUMP JUMPDEST PUSH1 0x0 PUSH1 0x2 DUP3 DIV SWAP1 POP PUSH1 0x1 DUP3 AND DUP1 PUSH3 0x2D2 JUMPI PUSH1 0x7F DUP3 AND SWAP2 POP JUMPDEST PUSH1 0x20 DUP3 LT DUP2 EQ ISZERO PUSH3 0x2E9 JUMPI PUSH3 0x2E8 PUSH3 0x325 JUMP JUMPDEST JUMPDEST POP SWAP2 SWAP1 POP JUMP JUMPDEST PUSH3 0x2FA DUP3 PUSH3 0x397 JUMP JUMPDEST DUP2 ADD DUP2 DUP2 LT PUSH8 0xFFFFFFFFFFFFFFFF DUP3 GT OR ISZERO PUSH3 0x31C JUMPI PUSH3 0x31B PUSH3 0x354 JUMP JUMPDEST JUMPDEST DUP1 PUSH1 0x40 MSTORE POP POP POP JUMP JUMPDEST PUSH32 0x4E487B7100000000000000000000000000000000000000000000000000000000 PUSH1 0x0 MSTORE PUSH1 0x22 PUSH1 0x4 MSTORE PUSH1 0x24 PUSH1 0x0 REVERT JUMPDEST PUSH32 0x4E487B7100000000000000000000000000000000000000000000000000000000 PUSH1 0x0 MSTORE PUSH1 0x41 PUSH1 0x4 MSTORE PUSH1 0x24 PUSH1 0x0 REVERT JUMPDEST PUSH1 0x0 DUP1 REVERT JUMPDEST PUSH1 0x0 DUP1 REVERT JUMPDEST PUSH1 0x0 DUP1 REVERT JUMPDEST PUSH1 0x0 DUP1 REVERT JUMPDEST PUSH1 0x0 PUSH1 0x1F NOT PUSH1 0x1F DUP4 ADD AND SWAP1 POP SWAP2 SWAP1 POP JUMP JUMPDEST PUSH2 0x10C7 DUP1 PUSH3 0x3B8 PUSH1 0x0 CODECOPY PUSH1 0x0 RETURN INVALID PUSH1 0x80 PUSH1 0x40 MSTORE CALLVALUE DUP1 ISZERO PUSH2 0x10 JUMPI PUSH1 0x0 DUP1 REVERT JUMPDEST POP PUSH1 0x4 CALLDATASIZE LT PUSH2 0x93 JUMPI PUSH1 0x0 CALLDATALOAD PUSH1 0xE0 SHR DUP1 PUSH4 0x23B872DD GT PUSH2 0x66 JUMPI DUP1 PUSH4 0x23B872DD EQ PUSH2 0x122 JUMPI DUP1 PUSH4 0x313CE567 EQ PUSH2 0x152 JUMPI DUP1 PUSH4 0x70A08231 EQ PUSH2 0x170 JUMPI DUP1 PUSH4 0xA9059CBB EQ PUSH2 0x1A0 JUMPI DUP1 PUSH4 0xDD62ED3E EQ PUSH2 0x1D0 JUMPI PUSH2 0x93 JUMP JUMPDEST DUP1 PUSH4 0x95EA7B3 EQ PUSH2 0x98 JUMPI DUP1 PUSH4 0x15070401 EQ PUSH2 0xC8 JUMPI DUP1 PUSH4 0x17D7DE7C EQ PUSH2 0xE6 JUMPI DUP1 PUSH4 0x18160DDD EQ PUSH2 0x104 JUMPI JUMPDEST PUSH1 0x0 DUP1 REVERT JUMPDEST PUSH2 0xB2 PUSH1 0x4 DUP1 CALLDATASIZE SUB DUP2 ADD SWAP1 PUSH2 0xAD SWAP2 SWAP1 PUSH2 0xA3E JUMP JUMPDEST PUSH2 0x200 JUMP JUMPDEST PUSH1 0x40 MLOAD PUSH2 0xBF SWAP2 SWAP1 PUSH2 0xBB6 JUMP JUMPDEST PUSH1 0x40 MLOAD DUP1 SWAP2 SUB SWAP1 RETURN JUMPDEST PUSH2 0xD0 PUSH2 0x217 JUMP JUMPDEST PUSH1 0x40 MLOAD PUSH2 0xDD SWAP2 SWAP1 PUSH2 0xBD1 JUMP JUMPDEST PUSH1 0x40 MLOAD DUP1 SWAP2 SUB SWAP1 RETURN JUMPDEST PUSH2 0xEE PUSH2 0x2A9 JUMP JUMPDEST PUSH1 0x40 MLOAD PUSH2 0xFB SWAP2 SWAP1 PUSH2 0xBD1 JUMP JUMPDEST PUSH1 0x40 MLOAD DUP1 SWAP2 SUB SWAP1 RETURN JUMPDEST PUSH2 0x10C PUSH2 0x33B JUMP JUMPDEST PUSH1 0x40 MLOAD PUSH2 0x119 SWAP2 SWAP1 PUSH2 0xCB3 JUMP JUMPDEST PUSH1 0x40 MLOAD DUP1 SWAP2 SUB SWAP1 RETURN JUMPDEST PUSH2 0x13C PUSH1 0x4 DUP1 CALLDATASIZE SUB DUP2 ADD SWAP1 PUSH2 0x137 SWAP2 SWAP1 PUSH2 0x9EB JUMP JUMPDEST PUSH2 0x345 JUMP JUMPDEST PUSH1 0x40 MLOAD PUSH2 0x149 SWAP2 SWAP1 PUSH2 0xBB6 JUMP JUMPDEST PUSH1 0x40 MLOAD DUP1 SWAP2 SUB SWAP1 RETURN JUMPDEST PUSH2 0x15A PUSH2 0x42F JUMP JUMPDEST PUSH1 0x40 MLOAD PUSH2 0x167 SWAP2 SWAP1 PUSH2 0xCCE JUMP JUMPDEST PUSH1 0x40 MLOAD DUP1 SWAP2 SUB SWAP1 RETURN JUMPDEST PUSH2 0x18A PUSH1 0x4 DUP1 CALLDATASIZE SUB DUP2 ADD SWAP1 PUSH2 0x185 SWAP2 SWAP1 PUSH2 0x97E JUMP JUMPDEST PUSH2 0x438 JUMP JUMPDEST PUSH1 0x40 MLOAD PUSH2 0x197 SWAP2 SWAP1 PUSH2 0xCB3 JUMP JUMPDEST PUSH1 0x40 MLOAD DUP1 SWAP2 SUB SWAP1 RETURN JUMPDEST PUSH2 0x1BA PUSH1 0x4 DUP1 CALLDATASIZE SUB DUP2 ADD SWAP1 PUSH2 0x1B5 SWAP2 SWAP1 PUSH2 0xA3E JUMP JUMPDEST PUSH2 0x480 JUMP JUMPDEST PUSH1 0x40 MLOAD PUSH2 0x1C7 SWAP2 SWAP1 PUSH2 0xBB6 JUMP JUMPDEST PUSH1 0x40 MLOAD DUP1 SWAP2 SUB SWAP1 RETURN JUMPDEST PUSH2 0x1EA PUSH1 0x4 DUP1 CALLDATASIZE SUB DUP2 ADD SWAP1 PUSH2 0x1E5 SWAP2 SWAP1 PUSH2 0x9AB JUMP JUMPDEST PUSH2 0x497 JUMP JUMPDEST PUSH1 0x40 MLOAD PUSH2 0x1F7 SWAP2 SWAP1 PUSH2 0xCB3 JUMP JUMPDEST PUSH1 0x40 MLOAD DUP1 SWAP2 SUB SWAP1 RETURN JUMPDEST PUSH1 0x0 PUSH2 0x20D CALLER DUP5 DUP5 PUSH2 0x51E JUMP JUMPDEST PUSH1 0x1 SWAP1 POP SWAP3 SWAP2 POP POP JUMP JUMPDEST PUSH1 0x60 PUSH1 0x4 DUP1 SLOAD PUSH2 0x226 SWAP1 PUSH2 0xDE3 JUMP JUMPDEST DUP1 PUSH1 0x1F ADD PUSH1 0x20 DUP1 SWAP2 DIV MUL PUSH1 0x20 ADD PUSH1 0x40 MLOAD SWAP1 DUP2 ADD PUSH1 0x40 MSTORE DUP1 SWAP3 SWAP2 SWAP1 DUP2 DUP2 MSTORE PUSH1 0x20 ADD DUP3 DUP1 SLOAD PUSH2 0x252 SWAP1 PUSH2 0xDE3 JUMP JUMPDEST DUP1 ISZERO PUSH2 0x29F JUMPI DUP1 PUSH1 0x1F LT PUSH2 0x274 JUMPI PUSH2 0x100 DUP1 DUP4 SLOAD DIV MUL DUP4 MSTORE SWAP2 PUSH1 0x20 ADD SWAP2 PUSH2 0x29F JUMP JUMPDEST DUP3 ADD SWAP2 SWAP1 PUSH1 0x0 MSTORE PUSH1 0x20 PUSH1 0x0 KECCAK256 SWAP1 JUMPDEST DUP2 SLOAD DUP2 MSTORE SWAP1 PUSH1 0x1 ADD SWAP1 PUSH1 0x20 ADD DUP1 DUP4 GT PUSH2 0x282 JUMPI DUP3 SWAP1 SUB PUSH1 0x1F AND DUP3 ADD SWAP2 JUMPDEST POP POP POP POP POP SWAP1 POP SWAP1 JUMP JUMPDEST PUSH1 0x60 PUSH1 0x3 DUP1 SLOAD PUSH2 0x2B8 SWAP1 PUSH2 0xDE3 JUMP JUMPDEST DUP1 PUSH1 0x1F ADD PUSH1 0x20 DUP1 SWAP2 DIV MUL PUSH1 0x20 ADD PUSH1 0x40 MLOAD SWAP1 DUP2 ADD PUSH1 0x40 MSTORE DUP1 SWAP3 SWAP2 SWAP1 DUP2 DUP2 MSTORE PUSH1 0x20 ADD DUP3 DUP1 SLOAD PUSH2 0x2E4 SWAP1 PUSH2 0xDE3 JUMP JUMPDEST DUP1 ISZERO PUSH2 0x331 JUMPI DUP1 PUSH1 0x1F LT PUSH2 0x306 JUMPI PUSH2 0x100 DUP1 DUP4 SLOAD DIV MUL DUP4 MSTORE SWAP2 PUSH1 0x20 ADD SWAP2 PUSH2 0x331 JUMP JUMPDEST DUP3 ADD SWAP2 SWAP1 PUSH1 0x0 MSTORE PUSH1 0x20 PUSH1 0x0 KECCAK256 SWAP1 JUMPDEST DUP2 SLOAD DUP2 MSTORE SWAP1 PUSH1 0x1 ADD SWAP1 PUSH1 0x20 ADD DUP1 DUP4 GT PUSH2 0x314 JUMPI DUP3 SWAP1 SUB PUSH1 0x1F AND DUP3 ADD SWAP2 JUMPDEST POP POP POP POP POP SWAP1 POP SWAP1 JUMP JUMPDEST PUSH1 0x0 PUSH1 0x2 SLOAD SWAP1 POP SWAP1 JUMP JUMPDEST PUSH1 0x0 PUSH2 0x352 DUP5 DUP5 DUP5 PUSH2 0x6E9 JUMP JUMPDEST PUSH1 0x0 PUSH1 0x1 PUSH1 0x0 DUP7 PUSH20 0xFFFFFFFFFFFFFFFFFFFFFFFFFFFFFFFFFFFFFFFF AND PUSH20 0xFFFFFFFFFFFFFFFFFFFFFFFFFFFFFFFFFFFFFFFF AND DUP2 MSTORE PUSH1 0x20 ADD SWAP1 DUP2 MSTORE PUSH1 0x20 ADD PUSH1 0x0 KECCAK256 PUSH1 0x0 CALLER PUSH20 0xFFFFFFFFFFFFFFFFFFFFFFFFFFFFFFFFFFFFFFFF AND PUSH20 0xFFFFFFFFFFFFFFFFFFFFFFFFFFFFFFFFFFFFFFFF AND DUP2 MSTORE PUSH1 0x20 ADD SWAP1 DUP2 MSTORE PUSH1 0x20 ADD PUSH1 0x0 KECCAK256 SLOAD SWAP1 POP DUP3 DUP2 LT ISZERO PUSH2 0x416 JUMPI PUSH1 0x40 MLOAD PUSH32 0x8C379A000000000000000000000000000000000000000000000000000000000 DUP2 MSTORE PUSH1 0x4 ADD PUSH2 0x40D SWAP1 PUSH2 0xC53 JUMP JUMPDEST PUSH1 0x40 MLOAD DUP1 SWAP2 SUB SWAP1 REVERT JUMPDEST PUSH2 0x423 DUP6 CALLER DUP6 DUP5 SUB PUSH2 0x51E JUMP JUMPDEST PUSH1 0x1 SWAP2 POP POP SWAP4 SWAP3 POP POP POP JUMP JUMPDEST PUSH1 0x0 PUSH1 0x12 SWAP1 POP SWAP1 JUMP JUMPDEST PUSH1 0x0 DUP1 PUSH1 0x0 DUP4 PUSH20 0xFFFFFFFFFFFFFFFFFFFFFFFFFFFFFFFFFFFFFFFF AND PUSH20 0xFFFFFFFFFFFFFFFFFFFFFFFFFFFFFFFFFFFFFFFF AND DUP2 MSTORE PUSH1 0x20 ADD SWAP1 DUP2 MSTORE PUSH1 0x20 ADD PUSH1 0x0 KECCAK256 SLOAD SWAP1 POP SWAP2 SWAP1 POP JUMP JUMPDEST PUSH1 0x0 PUSH2 0x48D CALLER DUP5 DUP5 PUSH2 0x6E9 JUMP JUMPDEST PUSH1 0x1 SWAP1 POP SWAP3 SWAP2 POP POP JUMP JUMPDEST PUSH1 0x0 PUSH1 0x1 PUSH1 0x0 DUP5 PUSH20 0xFFFFFFFFFFFFFFFFFFFFFFFFFFFFFFFFFFFFFFFF AND PUSH20 0xFFFFFFFFFFFFFFFFFFFFFFFFFFFFFFFFFFFFFFFF AND DUP2 MSTORE PUSH1 0x20 ADD SWAP1 DUP2 MSTORE PUSH1 0x20 ADD PUSH1 0x0 KECCAK256 PUSH1 0x0 DUP4 PUSH20 0xFFFFFFFFFFFFFFFFFFFFFFFFFFFFFFFFFFFFFFFF AND PUSH20 0xFFFFFFFFFFFFFFFFFFFFFFFFFFFFFFFFFFFFFFFF AND DUP2 MSTORE PUSH1 0x20 ADD SWAP1 DUP2 MSTORE PUSH1 0x20 ADD PUSH1 0x0 KECCAK256 SLOAD SWAP1 POP SWAP3 SWAP2 POP POP JUMP JUMPDEST PUSH1 0x0 PUSH20 0xFFFFFFFFFFFFFFFFFFFFFFFFFFFFFFFFFFFFFFFF AND DUP4 PUSH20 0xFFFFFFFFFFFFFFFFFFFFFFFFFFFFFFFFFFFFFFFF AND EQ ISZERO PUSH2 0x58E JUMPI PUSH1 0x40 MLOAD PUSH32 0x8C379A000000000000000000000000000000000000000000000000000000000 DUP2 MSTORE PUSH1 0x4 ADD PUSH2 0x585 SWAP1 PUSH2 0xC93 JUMP JUMPDEST PUSH1 0x40 MLOAD DUP1 SWAP2 SUB SWAP1 REVERT JUMPDEST PUSH1 0x0 PUSH20 0xFFFFFFFFFFFFFFFFFFFFFFFFFFFFFFFFFFFFFFFF AND DUP3 PUSH20 0xFFFFFFFFFFFFFFFFFFFFFFFFFFFFFFFFFFFFFFFF AND EQ ISZERO PUSH2 0x5FE JUMPI PUSH1 0x40 MLOAD PUSH32 0x8C379A000000000000000000000000000000000000000000000000000000000 DUP2 MSTORE PUSH1 0x4 ADD PUSH2 0x5F5 SWAP1 PUSH2 0xC13 JUMP JUMPDEST PUSH1 0x40 MLOAD DUP1 SWAP2 SUB SWAP1 REVERT JUMPDEST DUP1 PUSH1 0x1 PUSH1 0x0 DUP6 PUSH20 0xFFFFFFFFFFFFFFFFFFFFFFFFFFFFFFFFFFFFFFFF AND PUSH20 0xFFFFFFFFFFFFFFFFFFFFFFFFFFFFFFFFFFFFFFFF AND DUP2 MSTORE PUSH1 0x20 ADD SWAP1 DUP2 MSTORE PUSH1 0x20 ADD PUSH1 0x0 KECCAK256 PUSH1 0x0 DUP5 PUSH20 0xFFFFFFFFFFFFFFFFFFFFFFFFFFFFFFFFFFFFFFFF AND PUSH20 0xFFFFFFFFFFFFFFFFFFFFFFFFFFFFFFFFFFFFFFFF AND DUP2 MSTORE PUSH1 0x20 ADD SWAP1 DUP2 MSTORE PUSH1 0x20 ADD PUSH1 0x0 KECCAK256 DUP2 SWAP1 SSTORE POP DUP2 PUSH20 0xFFFFFFFFFFFFFFFFFFFFFFFFFFFFFFFFFFFFFFFF AND DUP4 PUSH20 0xFFFFFFFFFFFFFFFFFFFFFFFFFFFFFFFFFFFFFFFF AND PUSH32 0x8C5BE1E5EBEC7D5BD14F71427D1E84F3DD0314C0F7B2291E5B200AC8C7C3B925 DUP4 PUSH1 0x40 MLOAD PUSH2 0x6DC SWAP2 SWAP1 PUSH2 0xCB3 JUMP JUMPDEST PUSH1 0x40 MLOAD DUP1 SWAP2 SUB SWAP1 LOG3 POP POP POP JUMP JUMPDEST PUSH1 0x0 PUSH20 0xFFFFFFFFFFFFFFFFFFFFFFFFFFFFFFFFFFFFFFFF AND DUP4 PUSH20 0xFFFFFFFFFFFFFFFFFFFFFFFFFFFFFFFFFFFFFFFF AND EQ ISZERO PUSH2 0x759 JUMPI PUSH1 0x40 MLOAD PUSH32 0x8C379A000000000000000000000000000000000000000000000000000000000 DUP2 MSTORE PUSH1 0x4 ADD PUSH2 0x750 SWAP1 PUSH2 0xC73 JUMP JUMPDEST PUSH1 0x40 MLOAD DUP1 SWAP2 SUB SWAP1 REVERT JUMPDEST PUSH1 0x0 PUSH20 0xFFFFFFFFFFFFFFFFFFFFFFFFFFFFFFFFFFFFFFFF AND DUP3 PUSH20 0xFFFFFFFFFFFFFFFFFFFFFFFFFFFFFFFFFFFFFFFF AND EQ ISZERO PUSH2 0x7C9 JUMPI PUSH1 0x40 MLOAD PUSH32 0x8C379A000000000000000000000000000000000000000000000000000000000 DUP2 MSTORE PUSH1 0x4 ADD PUSH2 0x7C0 SWAP1 PUSH2 0xBF3 JUMP JUMPDEST PUSH1 0x40 MLOAD DUP1 SWAP2 SUB SWAP1 REVERT JUMPDEST PUSH1 0x0 DUP1 PUSH1 0x0 DUP6 PUSH20 0xFFFFFFFFFFFFFFFFFFFFFFFFFFFFFFFFFFFFFFFF AND PUSH20 0xFFFFFFFFFFFFFFFFFFFFFFFFFFFFFFFFFFFFFFFF AND DUP2 MSTORE PUSH1 0x20 ADD SWAP1 DUP2 MSTORE PUSH1 0x20 ADD PUSH1 0x0 KECCAK256 SLOAD SWAP1 POP DUP2 DUP2 LT ISZERO PUSH2 0x84F JUMPI PUSH1 0x40 MLOAD PUSH32 0x8C379A000000000000000000000000000000000000000000000000000000000 DUP2 MSTORE PUSH1 0x4 ADD PUSH2 0x846 SWAP1 PUSH2 0xC33 JUMP JUMPDEST PUSH1 0x40 MLOAD DUP1 SWAP2 SUB SWAP1 REVERT JUMPDEST DUP2 DUP2 SUB PUSH1 0x0 DUP1 DUP7 PUSH20 0xFFFFFFFFFFFFFFFFFFFFFFFFFFFFFFFFFFFFFFFF AND PUSH20 0xFFFFFFFFFFFFFFFFFFFFFFFFFFFFFFFFFFFFFFFF AND DUP2 MSTORE PUSH1 0x20 ADD SWAP1 DUP2 MSTORE PUSH1 0x20 ADD PUSH1 0x0 KECCAK256 DUP2 SWAP1 SSTORE POP DUP2 PUSH1 0x0 DUP1 DUP6 PUSH20 0xFFFFFFFFFFFFFFFFFFFFFFFFFFFFFFFFFFFFFFFF AND PUSH20 0xFFFFFFFFFFFFFFFFFFFFFFFFFFFFFFFFFFFFFFFF AND DUP2 MSTORE PUSH1 0x20 ADD SWAP1 DUP2 MSTORE PUSH1 0x20 ADD PUSH1 0x0 KECCAK256 PUSH1 0x0 DUP3 DUP3 SLOAD PUSH2 0x8E2 SWAP2 SWAP1 PUSH2 0xD05 JUMP JUMPDEST SWAP3 POP POP DUP2 SWAP1 SSTORE POP DUP3 PUSH20 0xFFFFFFFFFFFFFFFFFFFFFFFFFFFFFFFFFFFFFFFF AND DUP5 PUSH20 0xFFFFFFFFFFFFFFFFFFFFFFFFFFFFFFFFFFFFFFFF AND PUSH32 0xDDF252AD1BE2C89B69C2B068FC378DAA952BA7F163C4A11628F55A4DF523B3EF DUP5 PUSH1 0x40 MLOAD PUSH2 0x946 SWAP2 SWAP1 PUSH2 0xCB3 JUMP JUMPDEST PUSH1 0x40 MLOAD DUP1 SWAP2 SUB SWAP1 LOG3 POP POP POP POP JUMP JUMPDEST PUSH1 0x0 DUP2 CALLDATALOAD SWAP1 POP PUSH2 0x963 DUP2 PUSH2 0x1063 JUMP JUMPDEST SWAP3 SWAP2 POP POP JUMP JUMPDEST PUSH1 0x0 DUP2 CALLDATALOAD SWAP1 POP PUSH2 0x978 DUP2 PUSH2 0x107A JUMP JUMPDEST SWAP3 SWAP2 POP POP JUMP JUMPDEST PUSH1 0x0 PUSH1 0x20 DUP3 DUP5 SUB SLT ISZERO PUSH2 0x994 JUMPI PUSH2 0x993 PUSH2 0xE73 JUMP JUMPDEST JUMPDEST PUSH1 0x0 PUSH2 0x9A2 DUP5 DUP3 DUP6 ADD PUSH2 0x954 JUMP JUMPDEST SWAP2 POP POP SWAP3 SWAP2 POP POP JUMP JUMPDEST PUSH1 0x0 DUP1 PUSH1 0x40 DUP4 DUP6 SUB SLT ISZERO PUSH2 0x9C2 JUMPI PUSH2 0x9C1 PUSH2 0xE73 JUMP JUMPDEST JUMPDEST PUSH1 0x0 PUSH2 0x9D0 DUP6 DUP3 DUP7 ADD PUSH2 0x954 JUMP JUMPDEST SWAP3 POP POP PUSH1 0x20 PUSH2 0x9E1 DUP6 DUP3 DUP7 ADD PUSH2 0x954 JUMP JUMPDEST SWAP2 POP POP SWAP3 POP SWAP3 SWAP1 POP JUMP JUMPDEST PUSH1 0x0 DUP1 PUSH1 0x0 PUSH1 0x60 DUP5 DUP7 SUB SLT ISZERO PUSH2 0xA04 JUMPI PUSH2 0xA03 PUSH2 0xE73 JUMP JUMPDEST JUMPDEST PUSH1 0x0 PUSH2 0xA12 DUP7 DUP3 DUP8 ADD PUSH2 0x954 JUMP JUMPDEST SWAP4 POP POP PUSH1 0x20 PUSH2 0xA23 DUP7 DUP3 DUP8 ADD PUSH2 0x954 JUMP JUMPDEST SWAP3 POP POP PUSH1 0x40 PUSH2 0xA34 DUP7 DUP3 DUP8 ADD PUSH2 0x969 JUMP JUMPDEST SWAP2 POP POP SWAP3 POP SWAP3 POP SWAP3 JUMP JUMPDEST PUSH1 0x0 DUP1 PUSH1 0x40 DUP4 DUP6 SUB SLT ISZERO PUSH2 0xA55 JUMPI PUSH2 0xA54 PUSH2 0xE73 JUMP JUMPDEST JUMPDEST PUSH1 0x0 PUSH2 0xA63 DUP6 DUP3 DUP7 ADD PUSH2 0x954 JUMP JUMPDEST SWAP3 POP POP PUSH1 0x20 PUSH2 0xA74 DUP6 DUP3 DUP7 ADD PUSH2 0x969 JUMP JUMPDEST SWAP2 POP POP SWAP3 POP SWAP3 SWAP1 POP JUMP JUMPDEST PUSH2 0xA87 DUP2 PUSH2 0xD6D JUMP JUMPDEST DUP3 MSTORE POP POP JUMP JUMPDEST PUSH1 0x0 PUSH2 0xA98 DUP3 PUSH2 0xCE9 JUMP JUMPDEST PUSH2 0xAA2 DUP2 DUP6 PUSH2 0xCF4 JUMP JUMPDEST SWAP4 POP PUSH2 0xAB2 DUP2 DUP6 PUSH1 0x20 DUP7 ADD PUSH2 0xDB0 JUMP JUMPDEST PUSH2 0xABB DUP2 PUSH2 0xE78 JUMP JUMPDEST DUP5 ADD SWAP2 POP POP SWAP3 SWAP2 POP POP JUMP JUMPDEST PUSH1 0x0 PUSH2 0xAD3 PUSH1 0x23 DUP4 PUSH2 0xCF4 JUMP JUMPDEST SWAP2 POP PUSH2 0xADE DUP3 PUSH2 0xE89 JUMP JUMPDEST PUSH1 0x40 DUP3 ADD SWAP1 POP SWAP2 SWAP1 POP JUMP JUMPDEST PUSH1 0x0 PUSH2 0xAF6 PUSH1 0x22 DUP4 PUSH2 0xCF4 JUMP JUMPDEST SWAP2 POP PUSH2 0xB01 DUP3 PUSH2 0xED8 JUMP JUMPDEST PUSH1 0x40 DUP3 ADD SWAP1 POP SWAP2 SWAP1 POP JUMP JUMPDEST PUSH1 0x0 PUSH2 0xB19 PUSH1 0x26 DUP4 PUSH2 0xCF4 JUMP JUMPDEST SWAP2 POP PUSH2 0xB24 DUP3 PUSH2 0xF27 JUMP JUMPDEST PUSH1 0x40 DUP3 ADD SWAP1 POP SWAP2 SWAP1 POP JUMP JUMPDEST PUSH1 0x0 PUSH2 0xB3C PUSH1 0x28 DUP4 PUSH2 0xCF4 JUMP JUMPDEST SWAP2 POP PUSH2 0xB47 DUP3 PUSH2 0xF76 JUMP JUMPDEST PUSH1 0x40 DUP3 ADD SWAP1 POP SWAP2 SWAP1 POP JUMP JUMPDEST PUSH1 0x0 PUSH2 0xB5F PUSH1 0x25 DUP4 PUSH2 0xCF4 JUMP JUMPDEST SWAP2 POP PUSH2 0xB6A DUP3 PUSH2 0xFC5 JUMP JUMPDEST PUSH1 0x40 DUP3 ADD SWAP1 POP SWAP2 SWAP1 POP JUMP JUMPDEST PUSH1 0x0 PUSH2 0xB82 PUSH1 0x24 DUP4 PUSH2 0xCF4 JUMP JUMPDEST SWAP2 POP PUSH2 0xB8D DUP3 PUSH2 0x1014 JUMP JUMPDEST PUSH1 0x40 DUP3 ADD SWAP1 POP SWAP2 SWAP1 POP JUMP JUMPDEST PUSH2 0xBA1 DUP2 PUSH2 0xD99 JUMP JUMPDEST DUP3 MSTORE POP POP JUMP JUMPDEST PUSH2 0xBB0 DUP2 PUSH2 0xDA3 JUMP JUMPDEST DUP3 MSTORE POP POP JUMP JUMPDEST PUSH1 0x0 PUSH1 0x20 DUP3 ADD SWAP1 POP PUSH2 0xBCB PUSH1 0x0 DUP4 ADD DUP5 PUSH2 0xA7E JUMP JUMPDEST SWAP3 SWAP2 POP POP JUMP JUMPDEST PUSH1 0x0 PUSH1 0x20 DUP3 ADD SWAP1 POP DUP2 DUP2 SUB PUSH1 0x0 DUP4 ADD MSTORE PUSH2 0xBEB DUP2 DUP5 PUSH2 0xA8D JUMP JUMPDEST SWAP1 POP SWAP3 SWAP2 POP POP JUMP JUMPDEST PUSH1 0x0 PUSH1 0x20 DUP3 ADD SWAP1 POP DUP2 DUP2 SUB PUSH1 0x0 DUP4 ADD MSTORE PUSH2 0xC0C DUP2 PUSH2 0xAC6 JUMP JUMPDEST SWAP1 POP SWAP2 SWAP1 POP JUMP JUMPDEST PUSH1 0x0 PUSH1 0x20 DUP3 ADD SWAP1 POP DUP2 DUP2 SUB PUSH1 0x0 DUP4 ADD MSTORE PUSH2 0xC2C DUP2 PUSH2 0xAE9 JUMP JUMPDEST SWAP1 POP SWAP2 SWAP1 POP JUMP JUMPDEST PUSH1 0x0 PUSH1 0x20 DUP3 ADD SWAP1 POP DUP2 DUP2 SUB PUSH1 0x0 DUP4 ADD MSTORE PUSH2 0xC4C DUP2 PUSH2 0xB0C JUMP JUMPDEST SWAP1 POP SWAP2 SWAP1 POP JUMP JUMPDEST PUSH1 0x0 PUSH1 0x20 DUP3 ADD SWAP1 POP DUP2 DUP2 SUB PUSH1 0x0 DUP4 ADD MSTORE PUSH2 0xC6C DUP2 PUSH2 0xB2F JUMP JUMPDEST SWAP1 POP SWAP2 SWAP1 POP JUMP JUMPDEST PUSH1 0x0 PUSH1 0x20 DUP3 ADD SWAP1 POP DUP2 DUP2 SUB PUSH1 0x0 DUP4 ADD MSTORE PUSH2 0xC8C DUP2 PUSH2 0xB52 JUMP JUMPDEST SWAP1 POP SWAP2 SWAP1 POP JUMP JUMPDEST PUSH1 0x0 PUSH1 0x20 DUP3 ADD SWAP1 POP DUP2 DUP2 SUB PUSH1 0x0 DUP4 ADD MSTORE PUSH2 0xCAC DUP2 PUSH2 0xB75 JUMP JUMPDEST SWAP1 POP SWAP2 SWAP1 POP JUMP JUMPDEST PUSH1 0x0 PUSH1 0x20 DUP3 ADD SWAP1 POP PUSH2 0xCC8 PUSH1 0x0 DUP4 ADD DUP5 PUSH2 0xB98 JUMP JUMPDEST SWAP3 SWAP2 POP POP JUMP JUMPDEST PUSH1 0x0 PUSH1 0x20 DUP3 ADD SWAP1 POP PUSH2 0xCE3 PUSH1 0x0 DUP4 ADD DUP5 PUSH2 0xBA7 JUMP JUMPDEST SWAP3 SWAP2 POP POP JUMP JUMPDEST PUSH1 0x0 DUP2 MLOAD SWAP1 POP SWAP2 SWAP1 POP JUMP JUMPDEST PUSH1 0x0 DUP3 DUP3 MSTORE PUSH1 0x20 DUP3 ADD SWAP1 POP SWAP3 SWAP2 POP POP JUMP JUMPDEST PUSH1 0x0 PUSH2 0xD10 DUP3 PUSH2 0xD99 JUMP JUMPDEST SWAP2 POP PUSH2 0xD1B DUP4 PUSH2 0xD99 JUMP JUMPDEST SWAP3 POP DUP3 PUSH32 0xFFFFFFFFFFFFFFFFFFFFFFFFFFFFFFFFFFFFFFFFFFFFFFFFFFFFFFFFFFFFFFFF SUB DUP3 GT ISZERO PUSH2 0xD50 JUMPI PUSH2 0xD4F PUSH2 0xE15 JUMP JUMPDEST JUMPDEST DUP3 DUP3 ADD SWAP1 POP SWAP3 SWAP2 POP POP JUMP JUMPDEST PUSH1 0x0 PUSH2 0xD66 DUP3 PUSH2 0xD79 JUMP JUMPDEST SWAP1 POP SWAP2 SWAP1 POP JUMP JUMPDEST PUSH1 0x0 DUP2 ISZERO ISZERO SWAP1 POP SWAP2 SWAP1 POP JUMP JUMPDEST PUSH1 0x0 PUSH20 0xFFFFFFFFFFFFFFFFFFFFFFFFFFFFFFFFFFFFFFFF DUP3 AND SWAP1 POP SWAP2 SWAP1 POP JUMP JUMPDEST PUSH1 0x0 DUP2 SWAP1 POP SWAP2 SWAP1 POP JUMP JUMPDEST PUSH1 0x0 PUSH1 0xFF DUP3 AND SWAP1 POP SWAP2 SWAP1 POP JUMP JUMPDEST PUSH1 0x0 JUMPDEST DUP4 DUP2 LT ISZERO PUSH2 0xDCE JUMPI DUP1 DUP3 ADD MLOAD DUP2 DUP5 ADD MSTORE PUSH1 0x20 DUP2 ADD SWAP1 POP PUSH2 0xDB3 JUMP JUMPDEST DUP4 DUP2 GT ISZERO PUSH2 0xDDD JUMPI PUSH1 0x0 DUP5 DUP5 ADD MSTORE JUMPDEST POP POP POP POP JUMP JUMPDEST PUSH1 0x0 PUSH1 0x2 DUP3 DIV SWAP1 POP PUSH1 0x1 DUP3 AND DUP1 PUSH2 0xDFB JUMPI PUSH1 0x7F DUP3 AND SWAP2 POP JUMPDEST PUSH1 0x20 DUP3 LT DUP2 EQ ISZERO PUSH2 0xE0F JUMPI PUSH2 0xE0E PUSH2 0xE44 JUMP JUMPDEST JUMPDEST POP SWAP2 SWAP1 POP JUMP JUMPDEST PUSH32 0x4E487B7100000000000000000000000000000000000000000000000000000000 PUSH1 0x0 MSTORE PUSH1 0x11 PUSH1 0x4 MSTORE PUSH1 0x24 PUSH1 0x0 REVERT JUMPDEST PUSH32 0x4E487B7100000000000000000000000000000000000000000000000000000000 PUSH1 0x0 MSTORE PUSH1 0x22 PUSH1 0x4 MSTORE PUSH1 0x24 PUSH1 0x0 REVERT JUMPDEST PUSH1 0x0 DUP1 REVERT JUMPDEST PUSH1 0x0 PUSH1 0x1F NOT PUSH1 0x1F DUP4 ADD AND SWAP1 POP SWAP2 SWAP1 POP JUMP JUMPDEST PUSH32 0x45524332303A207472616E7366657220746F20746865207A65726F2061646472 PUSH1 0x0 DUP3 ADD MSTORE PUSH32 0x6573730000000000000000000000000000000000000000000000000000000000 PUSH1 0x20 DUP3 ADD MSTORE POP JUMP JUMPDEST PUSH32 0x45524332303A20617070726F766520746F20746865207A65726F206164647265 PUSH1 0x0 DUP3 ADD MSTORE PUSH32 0x7373000000000000000000000000000000000000000000000000000000000000 PUSH1 0x20 DUP3 ADD MSTORE POP JUMP JUMPDEST PUSH32 0x45524332303A207472616E7366657220616D6F756E7420657863656564732062 PUSH1 0x0 DUP3 ADD MSTORE PUSH32 0x616C616E63650000000000000000000000000000000000000000000000000000 PUSH1 0x20 DUP3 ADD MSTORE POP JUMP JUMPDEST PUSH32 0x45524332303A207472616E7366657220616D6F756E7420657863656564732061 PUSH1 0x0 DUP3 ADD MSTORE PUSH32 0x6C6C6F77616E6365000000000000000000000000000000000000000000000000 PUSH1 0x20 DUP3 ADD MSTORE POP JUMP JUMPDEST PUSH32 0x45524332303A207472616E736665722066726F6D20746865207A65726F206164 PUSH1 0x0 DUP3 ADD MSTORE PUSH32 0x6472657373000000000000000000000000000000000000000000000000000000 PUSH1 0x20 DUP3 ADD MSTORE POP JUMP JUMPDEST PUSH32 0x45524332303A20617070726F76652066726F6D20746865207A65726F20616464 PUSH1 0x0 DUP3 ADD MSTORE PUSH32 0x7265737300000000000000000000000000000000000000000000000000000000 PUSH1 0x20 DUP3 ADD MSTORE POP JUMP JUMPDEST PUSH2 0x106C DUP2 PUSH2 0xD5B JUMP JUMPDEST DUP2 EQ PUSH2 0x1077 JUMPI PUSH1 0x0 DUP1 REVERT JUMPDEST POP JUMP JUMPDEST PUSH2 0x1083 DUP2 PUSH2 0xD99 JUMP JUMPDEST DUP2 EQ PUSH2 0x108E JUMPI PUSH1 0x0 DUP1 REVERT JUMPDEST POP JUMP INVALID LOG2 PUSH5 0x6970667358 0x22 SLT KECCAK256 SIGNEXTEND MOD SDIV PUSH11 0xC7149069F3988A06A7471E PUSH27 0x6D9ED05EE1E7BA6AC3BC64D7ADE4E14A64736F6C63430008070033 "
				},
				"gasEstimates": {
					"creation": {
						"codeDepositCost": "859000",
						"executionCost": "infinite",
						"totalCost": "infinite"
					},
					"external": {
						"allowance(address,address)": "infinite",
						"approve(address,uint256)": "infinite",
						"balanceOf(address)": "2885",
						"decimals()": "365",
						"getName()": "infinite",
						"getSymbol()": "infinite",
						"totalSupply()": "2504",
						"transfer(address,uint256)": "infinite",
						"transferFrom(address,address,uint256)": "infinite"
					},
					"internal": {
						"_approve(address,address,uint256)": "infinite",
						"_transfer(address,address,uint256)": "infinite"
					}
				},
				"methodIdentifiers": {
					"allowance(address,address)": "dd62ed3e",
					"approve(address,uint256)": "095ea7b3",
					"balanceOf(address)": "70a08231",
					"decimals()": "313ce567",
					"getName()": "17d7de7c",
					"getSymbol()": "15070401",
					"totalSupply()": "18160ddd",
					"transfer(address,uint256)": "a9059cbb",
					"transferFrom(address,address,uint256)": "23b872dd"
				}
			},
			"storageLayout": {
				"storage": [
					{
						"astId": 500,
						"contract": "libraries/erc20.sol:ERC20",
						"label": "_balances",
						"offset": 0,
						"slot": "0",
						"type": "t_mapping(t_address,t_uint256)"
					},
					{
						"astId": 506,
						"contract": "libraries/erc20.sol:ERC20",
						"label": "_allowances",
						"offset": 0,
						"slot": "1",
						"type": "t_mapping(t_address,t_mapping(t_address,t_uint256))"
					},
					{
						"astId": 508,
						"contract": "libraries/erc20.sol:ERC20",
						"label": "_totalSupply",
						"offset": 0,
						"slot": "2",
						"type": "t_uint256"
					},
					{
						"astId": 510,
						"contract": "libraries/erc20.sol:ERC20",
						"label": "_name",
						"offset": 0,
						"slot": "3",
						"type": "t_string_storage"
					},
					{
						"astId": 512,
						"contract": "libraries/erc20.sol:ERC20",
						"label": "_symbol",
						"offset": 0,
						"slot": "4",
						"type": "t_string_storage"
					}
				],
				"types": {
					"t_address": {
						"encoding": "inplace",
						"label": "address",
						"numberOfBytes": "20"
					},
					"t_mapping(t_address,t_mapping(t_address,t_uint256))": {
						"encoding": "mapping",
						"key": "t_address",
						"label": "mapping(address => mapping(address => uint256))",
						"numberOfBytes": "32",
						"value": "t_mapping(t_address,t_uint256)"
					},
					"t_mapping(t_address,t_uint256)": {
						"encoding": "mapping",
						"key": "t_address",
						"label": "mapping(address => uint256)",
						"numberOfBytes": "32",
						"value": "t_uint256"
					},
					"t_string_storage": {
						"encoding": "bytes",
						"label": "string",
						"numberOfBytes": "32"
					},
					"t_uint256": {
						"encoding": "inplace",
						"label": "uint256",
						"numberOfBytes": "32"
					}
				}
			},
			"userdoc": {
				"kind": "user",
				"methods": {
					"allowance(address,address)": {
						"notice": "See {IERC20-allowance}."
					},
					"approve(address,uint256)": {
						"notice": "See {IERC20-approve}. Requirements: - `spender` cannot be the zero address."
					},
					"balanceOf(address)": {
						"notice": "See {IERC20-balanceOf}."
					},
					"constructor": {
						"notice": "Sets the values for {name} and {symbol}. The default value of {decimals} is 18. To select a different value for {decimals} you should overload it. All two of these values are immutable: they can only be set once during construction."
					},
					"decimals()": {
						"notice": "Returns the number of decimals used to get its user representation. For example, if `decimals` equals `2`, a balance of `505` tokens should be displayed to a user as `5.05` (`505 / 10 ** 2`). Tokens usually opt for a value of 18, imitating the relationship between Ether and Wei. This is the value {ERC20} uses, unless this function is overridden; NOTE: This information is only used for _display_ purposes: it in no way affects any of the arithmetic of the contract, including {IERC20-balanceOf} and {IERC20-transfer}."
					},
					"getName()": {
						"notice": "Returns the name of the token."
					},
					"getSymbol()": {
						"notice": "Returns the symbol of the token, usually a shorter version of the name."
					},
					"totalSupply()": {
						"notice": "See {IERC20-totalSupply}."
					},
					"transfer(address,uint256)": {
						"notice": "See {IERC20-transfer}. Requirements: - `recipient` cannot be the zero address. - the caller must have a balance of at least `amount`."
					},
					"transferFrom(address,address,uint256)": {
						"notice": "See {IERC20-transferFrom}. Emits an {Approval} event indicating the updated allowance. This is not required by the EIP. See the note at the beginning of {ERC20}. Requirements: - `sender` and `recipient` cannot be the zero address. - `sender` must have a balance of at least `amount`. - the caller must have allowance for ``sender``'s tokens of at least `amount`."
					}
				},
				"notice": "Simplified implementation of the {IERC20} interface. Read more about IERC20 on the docs at: https://docs.openzeppelin.com/contracts/4.x/api/token/erc20#IERC20 This implementation is unopinionated with respect to token creation. This means that a supply mechanism has to be added in a derived contract using {_mint}. For a generic mechanism see {ERC20PresetMinterPauser}. We have followed general OpenZeppelin Contracts guidelines: functions revert instead returning `false` on failure. This behavior is nonetheless conventional and does not conflict with the expectations of ERC20 applications. Additionally, an {Approval} event is emitted on calls to {transferFrom}. This allows applications to reconstruct the allowance for all accounts just by listening to said events. Other implementations of the EIP may not emit these events, as it isn't required by the specification.",
				"version": 1
			}
		}
	}
}