{
	"contracts/exchange.sol": {
		"TokenExchange": {
			"abi": [
				{
					"inputs": [],
					"stateMutability": "nonpayable",
					"type": "constructor"
				},
				{
					"anonymous": false,
					"inputs": [
						{
							"indexed": false,
							"internalType": "address",
							"name": "from",
							"type": "address"
						},
						{
							"indexed": false,
							"internalType": "uint256",
							"name": "amount",
							"type": "uint256"
						}
					],
					"name": "AddLiquidity",
					"type": "event"
				},
				{
					"anonymous": false,
					"inputs": [
						{
							"indexed": false,
							"internalType": "address",
							"name": "to",
							"type": "address"
						},
						{
							"indexed": false,
							"internalType": "uint256",
							"name": "amount",
							"type": "uint256"
						}
					],
					"name": "RemoveLiquidity",
					"type": "event"
				},
				{
					"inputs": [
						{
							"internalType": "uint256",
							"name": "token_amount",
							"type": "uint256"
						}
					],
					"name": "addLiquidity",
					"outputs": [],
					"stateMutability": "payable",
					"type": "function"
				},
				{
					"inputs": [],
					"name": "admin",
					"outputs": [
						{
							"internalType": "address",
							"name": "",
							"type": "address"
						}
					],
					"stateMutability": "view",
					"type": "function"
				},
				{
					"inputs": [
						{
							"internalType": "uint256",
							"name": "amountETH",
							"type": "uint256"
						}
					],
					"name": "amountETHGivenToken",
					"outputs": [
						{
							"internalType": "uint256",
							"name": "",
							"type": "uint256"
						}
					],
					"stateMutability": "view",
					"type": "function"
				},
				{
					"inputs": [
						{
							"internalType": "uint256",
							"name": "amountToken",
							"type": "uint256"
						}
					],
					"name": "amountTokenGivenETH",
					"outputs": [
						{
							"internalType": "uint256",
							"name": "",
							"type": "uint256"
						}
					],
					"stateMutability": "view",
					"type": "function"
				},
				{
					"inputs": [
						{
							"internalType": "uint256",
							"name": "amountTokens",
							"type": "uint256"
						}
					],
					"name": "createPool",
					"outputs": [],
					"stateMutability": "payable",
					"type": "function"
				},
				{
					"inputs": [],
					"name": "eth_reserves",
					"outputs": [
						{
							"internalType": "uint256",
							"name": "",
							"type": "uint256"
						}
					],
					"stateMutability": "view",
					"type": "function"
				},
				{
					"inputs": [
						{
							"internalType": "uint256",
							"name": "amountTokens",
							"type": "uint256"
						}
					],
					"name": "getEthAmountForTokenSwap",
					"outputs": [
						{
							"internalType": "uint256",
							"name": "",
							"type": "uint256"
						}
					],
					"stateMutability": "view",
					"type": "function"
				},
				{
					"inputs": [
						{
							"internalType": "uint256",
							"name": "ethAmount",
							"type": "uint256"
						}
					],
					"name": "getTokenAmountForEthSwap",
					"outputs": [
						{
							"internalType": "uint256",
							"name": "",
							"type": "uint256"
						}
					],
					"stateMutability": "view",
					"type": "function"
				},
				{
					"inputs": [],
					"name": "k",
					"outputs": [
						{
							"internalType": "uint256",
							"name": "",
							"type": "uint256"
						}
					],
					"stateMutability": "view",
					"type": "function"
				},
				{
					"inputs": [],
					"name": "priceETH",
					"outputs": [
						{
							"internalType": "uint256",
							"name": "",
							"type": "uint256"
						}
					],
					"stateMutability": "view",
					"type": "function"
				},
				{
					"inputs": [],
					"name": "priceToken",
					"outputs": [
						{
							"internalType": "uint256",
							"name": "",
							"type": "uint256"
						}
					],
					"stateMutability": "view",
					"type": "function"
				},
				{
					"inputs": [],
					"name": "removeAllLiquidity",
					"outputs": [],
					"stateMutability": "payable",
					"type": "function"
				},
				{
					"inputs": [
						{
							"internalType": "uint256",
							"name": "eth_amount",
							"type": "uint256"
						}
					],
					"name": "removeLiquidity",
					"outputs": [],
					"stateMutability": "payable",
					"type": "function"
				},
				{
					"inputs": [],
					"name": "swapETHForTokens",
					"outputs": [],
					"stateMutability": "payable",
					"type": "function"
				},
				{
					"inputs": [
						{
							"internalType": "uint256",
							"name": "amountTokens",
							"type": "uint256"
						}
					],
					"name": "swapTokensForETH",
					"outputs": [],
					"stateMutability": "payable",
					"type": "function"
				},
				{
					"inputs": [],
					"name": "token_reserves",
					"outputs": [
						{
							"internalType": "uint256",
							"name": "",
							"type": "uint256"
						}
					],
					"stateMutability": "view",
					"type": "function"
				},
				{
					"inputs": [
						{
							"internalType": "address",
							"name": "",
							"type": "address"
						}
					],
					"name": "userLiquidity",
					"outputs": [
						{
							"internalType": "uint256",
							"name": "",
							"type": "uint256"
						}
					],
					"stateMutability": "view",
					"type": "function"
				}
			],
			"devdoc": {
				"kind": "dev",
				"methods": {},
				"version": 1
			},
			"evm": {
				"assembly": "    /* \"contracts/exchange.sol\":630:18700  contract TokenExchange is Ownable {... */\n  mstore(0x40, 0x80)\n    /* \"contracts/exchange.sol\":752:794  0xed97fE03B443901D1F880FAb00C2a50a8411aa51 */\n  0xed97fe03b443901d1f880fab00c2a50a8411aa51\n    /* \"contracts/exchange.sol\":732:794  address tokenAddr = 0xed97fE03B443901D1F880FAb00C2a50a8411aa51 */\n  0x02\n  exp(0x0100, 0x00)\n  dup2\n  sload\n  dup2\n  0xffffffffffffffffffffffffffffffffffffffff\n  mul\n  not\n  and\n  swap1\n  dup4\n  0xffffffffffffffffffffffffffffffffffffffff\n  and\n  mul\n  or\n  swap1\n  sstore\n  pop\n    /* \"contracts/exchange.sol\":880:889  tokenAddr */\n  0x02\n  0x00\n  swap1\n  sload\n  swap1\n  0x0100\n  exp\n  swap1\n  div\n  0xffffffffffffffffffffffffffffffffffffffff\n  and\n    /* \"contracts/exchange.sol\":844:890  HUSTToken private token = HUSTToken(tokenAddr) */\n  0x03\n  exp(0x0100, 0x00)\n  dup2\n  sload\n  dup2\n  0xffffffffffffffffffffffffffffffffffffffff\n  mul\n  not\n  and\n  swap1\n  dup4\n  0xffffffffffffffffffffffffffffffffffffffff\n  and\n  mul\n  or\n  swap1\n  sstore\n  pop\n    /* \"contracts/exchange.sol\":1013:1014  0 */\n  0x00\n    /* \"contracts/exchange.sol\":984:1014  uint public token_reserves = 0 */\n  0x04\n  sstore\n    /* \"contracts/exchange.sol\":1047:1048  0 */\n  0x00\n    /* \"contracts/exchange.sol\":1020:1048  uint public eth_reserves = 0 */\n  0x05\n  sstore\n    /* \"contracts/exchange.sol\":1161:1162  0 */\n  0x00\n    /* \"contracts/exchange.sol\":1127:1162  uint private swap_fee_numerator = 0 */\n  0x07\n  sstore\n    /* \"contracts/exchange.sol\":1254:1257  100 */\n  0x64\n    /* \"contracts/exchange.sol\":1218:1257  uint private swap_fee_denominator = 100 */\n  0x08\n  sstore\n    /* \"contracts/exchange.sol\":1423:1472  constructor() {... */\n  callvalue\n  dup1\n  iszero\n  tag_1\n  jumpi\n  0x00\n  dup1\n  revert\ntag_1:\n  pop\n    /* \"libraries/ownable.sol\":884:894  msg.sender */\n  caller\n    /* \"libraries/ownable.sol\":875:881  _owner */\n  0x00\n  dup1\n    /* \"libraries/ownable.sol\":875:894  _owner = msg.sender */\n  0x0100\n  exp\n  dup2\n  sload\n  dup2\n  0xffffffffffffffffffffffffffffffffffffffff\n  mul\n  not\n  and\n  swap1\n  dup4\n  0xffffffffffffffffffffffffffffffffffffffff\n  and\n  mul\n  or\n  swap1\n  sstore\n  pop\n    /* \"contracts/exchange.sol\":1455:1465  msg.sender */\n  caller\n    /* \"contracts/exchange.sol\":1447:1452  admin */\n  0x01\n  0x00\n    /* \"contracts/exchange.sol\":1447:1465  admin = msg.sender */\n  0x0100\n  exp\n  dup2\n  sload\n  dup2\n  0xffffffffffffffffffffffffffffffffffffffff\n  mul\n  not\n  and\n  swap1\n  dup4\n  0xffffffffffffffffffffffffffffffffffffffff\n  and\n  mul\n  or\n  swap1\n  sstore\n  pop\n    /* \"contracts/exchange.sol\":630:18700  contract TokenExchange is Ownable {... */\n  dataSize(sub_0)\n  dup1\n  dataOffset(sub_0)\n  0x00\n  codecopy\n  0x00\n  return\nstop\n\nsub_0: assembly {\n        /* \"contracts/exchange.sol\":630:18700  contract TokenExchange is Ownable {... */\n      mstore(0x40, 0x80)\n      jumpi(tag_1, lt(calldatasize, 0x04))\n      shr(0xe0, calldataload(0x00))\n      dup1\n      0x9adb3b97\n      gt\n      tag_19\n      jumpi\n      dup1\n      0xc38ad273\n      gt\n      tag_20\n      jumpi\n      dup1\n      0xc38ad273\n      eq\n      tag_14\n      jumpi\n      dup1\n      0xd592cbf6\n      eq\n      tag_15\n      jumpi\n      dup1\n      0xe56a645e\n      eq\n      tag_16\n      jumpi\n      dup1\n      0xeeddd4f6\n      eq\n      tag_17\n      jumpi\n      dup1\n      0xf851a440\n      eq\n      tag_18\n      jumpi\n      jump(tag_1)\n    tag_20:\n      dup1\n      0x9adb3b97\n      eq\n      tag_10\n      jumpi\n      dup1\n      0x9c8f9f23\n      eq\n      tag_11\n      jumpi\n      dup1\n      0xb4f40c61\n      eq\n      tag_12\n      jumpi\n      dup1\n      0xba4c28c3\n      eq\n      tag_13\n      jumpi\n      jump(tag_1)\n    tag_19:\n      dup1\n      0x58cd35db\n      gt\n      tag_21\n      jumpi\n      dup1\n      0x58cd35db\n      eq\n      tag_6\n      jumpi\n      dup1\n      0x8259e6a0\n      eq\n      tag_7\n      jumpi\n      dup1\n      0x88a780e5\n      eq\n      tag_8\n      jumpi\n      dup1\n      0x97ba499f\n      eq\n      tag_9\n      jumpi\n      jump(tag_1)\n    tag_21:\n      dup1\n      0x156ac5ca\n      eq\n      tag_2\n      jumpi\n      dup1\n      0x2ff6fe76\n      eq\n      tag_3\n      jumpi\n      dup1\n      0x33aafe15\n      eq\n      tag_4\n      jumpi\n      dup1\n      0x51c6590a\n      eq\n      tag_5\n      jumpi\n    tag_1:\n      0x00\n      dup1\n      revert\n        /* \"contracts/exchange.sol\":3115:3375  function amountTokenGivenETH(uint amountToken) public view returns (uint) {... */\n    tag_2:\n      callvalue\n      dup1\n      iszero\n      tag_22\n      jumpi\n      0x00\n      dup1\n      revert\n    tag_22:\n      pop\n      tag_23\n      0x04\n      dup1\n      calldatasize\n      sub\n      dup2\n      add\n      swap1\n      tag_24\n      swap2\n      swap1\n      tag_25\n      jump\t// in\n    tag_24:\n      tag_26\n      jump\t// in\n    tag_23:\n      mload(0x40)\n      tag_27\n      swap2\n      swap1\n      tag_28\n      jump\t// in\n    tag_27:\n      mload(0x40)\n      dup1\n      swap2\n      sub\n      swap1\n      return\n        /* \"contracts/exchange.sol\":18370:18534  function priceToken() public view returns (uint) {... */\n    tag_3:\n      callvalue\n      dup1\n      iszero\n      tag_29\n      jumpi\n      0x00\n      dup1\n      revert\n    tag_29:\n      pop\n      tag_30\n      tag_31\n      jump\t// in\n    tag_30:\n      mload(0x40)\n      tag_32\n      swap2\n      swap1\n      tag_28\n      jump\t// in\n    tag_32:\n      mload(0x40)\n      dup1\n      swap2\n      sub\n      swap1\n      return\n        /* \"contracts/exchange.sol\":15668:16538  function getTokenAmountForEthSwap(uint256 ethAmount) public view returns (uint256) {... */\n    tag_4:\n      callvalue\n      dup1\n      iszero\n      tag_33\n      jumpi\n      0x00\n      dup1\n      revert\n    tag_33:\n      pop\n      tag_34\n      0x04\n      dup1\n      calldatasize\n      sub\n      dup2\n      add\n      swap1\n      tag_35\n      swap2\n      swap1\n      tag_25\n      jump\t// in\n    tag_35:\n      tag_36\n      jump\t// in\n    tag_34:\n      mload(0x40)\n      tag_37\n      swap2\n      swap1\n      tag_28\n      jump\t// in\n    tag_37:\n      mload(0x40)\n      dup1\n      swap2\n      sub\n      swap1\n      return\n        /* \"contracts/exchange.sol\":4509:6057  function addLiquidity(uint256 token_amount) external payable {... */\n    tag_5:\n      tag_38\n      0x04\n      dup1\n      calldatasize\n      sub\n      dup2\n      add\n      swap1\n      tag_39\n      swap2\n      swap1\n      tag_25\n      jump\t// in\n    tag_39:\n      tag_40\n      jump\t// in\n    tag_38:\n      stop\n        /* \"contracts/exchange.sol\":16544:17402  function getEthAmountForTokenSwap(uint amountTokens) public view returns (uint256) {... */\n    tag_6:\n      callvalue\n      dup1\n      iszero\n      tag_41\n      jumpi\n      0x00\n      dup1\n      revert\n    tag_41:\n      pop\n      tag_42\n      0x04\n      dup1\n      calldatasize\n      sub\n      dup2\n      add\n      swap1\n      tag_43\n      swap2\n      swap1\n      tag_25\n      jump\t// in\n    tag_43:\n      tag_44\n      jump\t// in\n    tag_42:\n      mload(0x40)\n      tag_45\n      swap2\n      swap1\n      tag_28\n      jump\t// in\n    tag_45:\n      mload(0x40)\n      dup1\n      swap2\n      sub\n      swap1\n      return\n        /* \"contracts/exchange.sol\":1924:2702  function createPool(uint amountTokens) external payable onlyOwner {... */\n    tag_7:\n      tag_46\n      0x04\n      dup1\n      calldatasize\n      sub\n      dup2\n      add\n      swap1\n      tag_47\n      swap2\n      swap1\n      tag_25\n      jump\t// in\n    tag_47:\n      tag_48\n      jump\t// in\n    tag_46:\n      stop\n        /* \"contracts/exchange.sol\":8677:10445  function removeAllLiquidity() external payable {... */\n    tag_8:\n      tag_49\n      tag_50\n      jump\t// in\n    tag_49:\n      stop\n        /* \"contracts/exchange.sol\":1020:1048  uint public eth_reserves = 0 */\n    tag_9:\n      callvalue\n      dup1\n      iszero\n      tag_51\n      jumpi\n      0x00\n      dup1\n      revert\n    tag_51:\n      pop\n      tag_52\n      tag_53\n      jump\t// in\n    tag_52:\n      mload(0x40)\n      tag_54\n      swap2\n      swap1\n      tag_28\n      jump\t// in\n    tag_54:\n      mload(0x40)\n      dup1\n      swap2\n      sub\n      swap1\n      return\n        /* \"contracts/exchange.sol\":984:1014  uint public token_reserves = 0 */\n    tag_10:\n      callvalue\n      dup1\n      iszero\n      tag_55\n      jumpi\n      0x00\n      dup1\n      revert\n    tag_55:\n      pop\n      tag_56\n      tag_57\n      jump\t// in\n    tag_56:\n      mload(0x40)\n      tag_58\n      swap2\n      swap1\n      tag_28\n      jump\t// in\n    tag_58:\n      mload(0x40)\n      dup1\n      swap2\n      sub\n      swap1\n      return\n        /* \"contracts/exchange.sol\":6624:8310  function removeLiquidity(uint256 eth_amount) public payable {... */\n    tag_11:\n      tag_59\n      0x04\n      dup1\n      calldatasize\n      sub\n      dup2\n      add\n      swap1\n      tag_60\n      swap2\n      swap1\n      tag_25\n      jump\t// in\n    tag_60:\n      tag_61\n      jump\t// in\n    tag_59:\n      stop\n        /* \"contracts/exchange.sol\":1082:1095  uint public k */\n    tag_12:\n      callvalue\n      dup1\n      iszero\n      tag_62\n      jumpi\n      0x00\n      dup1\n      revert\n    tag_62:\n      pop\n      tag_63\n      tag_64\n      jump\t// in\n    tag_63:\n      mload(0x40)\n      tag_65\n      swap2\n      swap1\n      tag_28\n      jump\t// in\n    tag_65:\n      mload(0x40)\n      dup1\n      swap2\n      sub\n      swap1\n      return\n        /* \"contracts/exchange.sol\":1368:1416  mapping(address => uint256) public userLiquidity */\n    tag_13:\n      callvalue\n      dup1\n      iszero\n      tag_66\n      jumpi\n      0x00\n      dup1\n      revert\n    tag_66:\n      pop\n      tag_67\n      0x04\n      dup1\n      calldatasize\n      sub\n      dup2\n      add\n      swap1\n      tag_68\n      swap2\n      swap1\n      tag_69\n      jump\t// in\n    tag_68:\n      tag_70\n      jump\t// in\n    tag_67:\n      mload(0x40)\n      tag_71\n      swap2\n      swap1\n      tag_28\n      jump\t// in\n    tag_71:\n      mload(0x40)\n      dup1\n      swap2\n      sub\n      swap1\n      return\n        /* \"contracts/exchange.sol\":18540:18697  function priceETH() public view returns (uint) {... */\n    tag_14:\n      callvalue\n      dup1\n      iszero\n      tag_72\n      jumpi\n      0x00\n      dup1\n      revert\n    tag_72:\n      pop\n      tag_73\n      tag_74\n      jump\t// in\n    tag_73:\n      mload(0x40)\n      tag_75\n      swap2\n      swap1\n      tag_28\n      jump\t// in\n    tag_75:\n      mload(0x40)\n      dup1\n      swap2\n      sub\n      swap1\n      return\n        /* \"contracts/exchange.sol\":14094:15662  function swapETHForTokens() external payable {... */\n    tag_15:\n      tag_76\n      tag_77\n      jump\t// in\n    tag_76:\n      stop\n        /* \"contracts/exchange.sol\":11504:13256  function swapTokensForETH(uint amountTokens) external payable {... */\n    tag_16:\n      tag_78\n      0x04\n      dup1\n      calldatasize\n      sub\n      dup2\n      add\n      swap1\n      tag_79\n      swap2\n      swap1\n      tag_25\n      jump\t// in\n    tag_79:\n      tag_80\n      jump\t// in\n    tag_78:\n      stop\n        /* \"contracts/exchange.sol\":3602:3870  function amountETHGivenToken(uint amountETH) public view returns (uint) {... */\n    tag_17:\n      callvalue\n      dup1\n      iszero\n      tag_81\n      jumpi\n      0x00\n      dup1\n      revert\n    tag_81:\n      pop\n      tag_82\n      0x04\n      dup1\n      calldatasize\n      sub\n      dup2\n      add\n      swap1\n      tag_83\n      swap2\n      swap1\n      tag_25\n      jump\t// in\n    tag_83:\n      tag_84\n      jump\t// in\n    tag_82:\n      mload(0x40)\n      tag_85\n      swap2\n      swap1\n      tag_28\n      jump\t// in\n    tag_85:\n      mload(0x40)\n      dup1\n      swap2\n      sub\n      swap1\n      return\n        /* \"contracts/exchange.sol\":705:725  address public admin */\n    tag_18:\n      callvalue\n      dup1\n      iszero\n      tag_86\n      jumpi\n      0x00\n      dup1\n      revert\n    tag_86:\n      pop\n      tag_87\n      tag_88\n      jump\t// in\n    tag_87:\n      mload(0x40)\n      tag_89\n      swap2\n      swap1\n      tag_90\n      jump\t// in\n    tag_89:\n      mload(0x40)\n      dup1\n      swap2\n      sub\n      swap1\n      return\n        /* \"contracts/exchange.sol\":3115:3375  function amountTokenGivenETH(uint amountToken) public view returns (uint) {... */\n    tag_26:\n        /* \"contracts/exchange.sol\":3183:3187  uint */\n      0x00\n        /* \"contracts/exchange.sol\":3115:3375  function amountTokenGivenETH(uint amountToken) public view returns (uint) {... */\n      swap2\n      swap1\n      pop\n      jump\t// out\n        /* \"contracts/exchange.sol\":18370:18534  function priceToken() public view returns (uint) {... */\n    tag_31:\n        /* \"contracts/exchange.sol\":18413:18417  uint */\n      0x00\n        /* \"contracts/exchange.sol\":18454:18455  0 */\n      dup1\n        /* \"contracts/exchange.sol\":18437:18451  token_reserves */\n      sload(0x04)\n        /* \"contracts/exchange.sol\":18437:18455  token_reserves > 0 */\n      gt\n        /* \"contracts/exchange.sol\":18429:18481  require(token_reserves > 0, \"No tokens in reserves\") */\n      tag_93\n      jumpi\n      mload(0x40)\n      0x08c379a000000000000000000000000000000000000000000000000000000000\n      dup2\n      mstore\n      0x04\n      add\n      tag_94\n      swap1\n      tag_95\n      jump\t// in\n    tag_94:\n      mload(0x40)\n      dup1\n      swap2\n      sub\n      swap1\n      revert\n    tag_93:\n        /* \"contracts/exchange.sol\":18515:18527  eth_reserves */\n      sload(0x05)\n        /* \"contracts/exchange.sol\":18498:18512  token_reserves */\n      sload(0x04)\n        /* \"contracts/exchange.sol\":18498:18527  token_reserves / eth_reserves */\n      tag_96\n      swap2\n      swap1\n      tag_97\n      jump\t// in\n    tag_96:\n        /* \"contracts/exchange.sol\":18491:18527  return token_reserves / eth_reserves */\n      swap1\n      pop\n        /* \"contracts/exchange.sol\":18370:18534  function priceToken() public view returns (uint) {... */\n      swap1\n      jump\t// out\n        /* \"contracts/exchange.sol\":15668:16538  function getTokenAmountForEthSwap(uint256 ethAmount) public view returns (uint256) {... */\n    tag_36:\n        /* \"contracts/exchange.sol\":15742:15749  uint256 */\n      0x00\n        /* \"contracts/exchange.sol\":15835:15836  0 */\n      dup1\n        /* \"contracts/exchange.sol\":15818:15832  token_reserves */\n      sload(0x04)\n        /* \"contracts/exchange.sol\":15818:15836  token_reserves > 0 */\n      gt\n        /* \"contracts/exchange.sol\":15818:15856  token_reserves > 0 && eth_reserves > 0 */\n      dup1\n      iszero\n      tag_99\n      jumpi\n      pop\n        /* \"contracts/exchange.sol\":15855:15856  0 */\n      0x00\n        /* \"contracts/exchange.sol\":15840:15852  eth_reserves */\n      sload(0x05)\n        /* \"contracts/exchange.sol\":15840:15856  eth_reserves > 0 */\n      gt\n        /* \"contracts/exchange.sol\":15818:15856  token_reserves > 0 && eth_reserves > 0 */\n    tag_99:\n        /* \"contracts/exchange.sol\":15810:15879  require(token_reserves > 0 && eth_reserves > 0, \"Reserves are empty\") */\n      tag_100\n      jumpi\n      mload(0x40)\n      0x08c379a000000000000000000000000000000000000000000000000000000000\n      dup2\n      mstore\n      0x04\n      add\n      tag_101\n      swap1\n      tag_102\n      jump\t// in\n    tag_101:\n      mload(0x40)\n      dup1\n      swap2\n      sub\n      swap1\n      revert\n    tag_100:\n        /* \"contracts/exchange.sol\":15947:15969  uint256 newEthReserves */\n      0x00\n        /* \"contracts/exchange.sol\":15987:15996  ethAmount */\n      dup3\n        /* \"contracts/exchange.sol\":15972:15984  eth_reserves */\n      sload(0x05)\n        /* \"contracts/exchange.sol\":15972:15996  eth_reserves + ethAmount */\n      tag_103\n      swap2\n      swap1\n      tag_104\n      jump\t// in\n    tag_103:\n        /* \"contracts/exchange.sol\":15947:15996  uint256 newEthReserves = eth_reserves + ethAmount */\n      swap1\n      pop\n        /* \"contracts/exchange.sol\":16131:16155  uint256 newTokenReserves */\n      0x00\n        /* \"contracts/exchange.sol\":16162:16176  newEthReserves */\n      dup2\n        /* \"contracts/exchange.sol\":16158:16159  k */\n      sload(0x06)\n        /* \"contracts/exchange.sol\":16158:16176  k / newEthReserves */\n      tag_105\n      swap2\n      swap1\n      tag_97\n      jump\t// in\n    tag_105:\n        /* \"contracts/exchange.sol\":16131:16176  uint256 newTokenReserves = k / newEthReserves */\n      swap1\n      pop\n        /* \"contracts/exchange.sol\":16301:16315  token_reserves */\n      sload(0x04)\n        /* \"contracts/exchange.sol\":16282:16298  newTokenReserves */\n      dup2\n        /* \"contracts/exchange.sol\":16282:16315  newTokenReserves < token_reserves */\n      lt\n        /* \"contracts/exchange.sol\":16274:16332  require(newTokenReserves < token_reserves, \"Invalid swap\") */\n      tag_106\n      jumpi\n      mload(0x40)\n      0x08c379a000000000000000000000000000000000000000000000000000000000\n      dup2\n      mstore\n      0x04\n      add\n      tag_107\n      swap1\n      tag_108\n      jump\t// in\n    tag_107:\n      mload(0x40)\n      dup1\n      swap2\n      sub\n      swap1\n      revert\n    tag_106:\n        /* \"contracts/exchange.sol\":16441:16463  uint256 tokensReceived */\n      0x00\n        /* \"contracts/exchange.sol\":16483:16499  newTokenReserves */\n      dup2\n        /* \"contracts/exchange.sol\":16466:16480  token_reserves */\n      sload(0x04)\n        /* \"contracts/exchange.sol\":16466:16499  token_reserves - newTokenReserves */\n      tag_109\n      swap2\n      swap1\n      tag_110\n      jump\t// in\n    tag_109:\n        /* \"contracts/exchange.sol\":16441:16499  uint256 tokensReceived = token_reserves - newTokenReserves */\n      swap1\n      pop\n        /* \"contracts/exchange.sol\":16517:16531  tokensReceived */\n      dup1\n        /* \"contracts/exchange.sol\":16510:16531  return tokensReceived */\n      swap4\n      pop\n      pop\n      pop\n      pop\n        /* \"contracts/exchange.sol\":15668:16538  function getTokenAmountForEthSwap(uint256 ethAmount) public view returns (uint256) {... */\n      swap2\n      swap1\n      pop\n      jump\t// out\n        /* \"contracts/exchange.sol\":4509:6057  function addLiquidity(uint256 token_amount) external payable {... */\n    tag_40:\n        /* \"contracts/exchange.sol\":5034:5035  0 */\n      0x00\n        /* \"contracts/exchange.sol\":5022:5031  msg.value */\n      callvalue\n        /* \"contracts/exchange.sol\":5022:5035  msg.value > 0 */\n      gt\n        /* \"contracts/exchange.sol\":5014:5070  require(msg.value > 0, \"Must provide ETH for liquidity\") */\n      tag_112\n      jumpi\n      mload(0x40)\n      0x08c379a000000000000000000000000000000000000000000000000000000000\n      dup2\n      mstore\n      0x04\n      add\n      tag_113\n      swap1\n      tag_114\n      jump\t// in\n    tag_113:\n      mload(0x40)\n      dup1\n      swap2\n      sub\n      swap1\n      revert\n    tag_112:\n        /* \"contracts/exchange.sol\":5103:5104  0 */\n      0x00\n        /* \"contracts/exchange.sol\":5088:5100  token_amount */\n      dup2\n        /* \"contracts/exchange.sol\":5088:5104  token_amount > 0 */\n      gt\n        /* \"contracts/exchange.sol\":5080:5142  require(token_amount > 0, \"Must provide tokens for liquidity\") */\n      tag_115\n      jumpi\n      mload(0x40)\n      0x08c379a000000000000000000000000000000000000000000000000000000000\n      dup2\n      mstore\n      0x04\n      add\n      tag_116\n      swap1\n      tag_117\n      jump\t// in\n    tag_116:\n      mload(0x40)\n      dup1\n      swap2\n      sub\n      swap1\n      revert\n    tag_115:\n        /* \"contracts/exchange.sol\":5298:5299  0 */\n      0x00\n        /* \"contracts/exchange.sol\":5281:5295  token_reserves */\n      sload(0x04)\n        /* \"contracts/exchange.sol\":5281:5299  token_reserves > 0 */\n      gt\n        /* \"contracts/exchange.sol\":5281:5319  token_reserves > 0 && eth_reserves > 0 */\n      dup1\n      iszero\n      tag_118\n      jumpi\n      pop\n        /* \"contracts/exchange.sol\":5318:5319  0 */\n      0x00\n        /* \"contracts/exchange.sol\":5303:5315  eth_reserves */\n      sload(0x05)\n        /* \"contracts/exchange.sol\":5303:5319  eth_reserves > 0 */\n      gt\n        /* \"contracts/exchange.sol\":5281:5319  token_reserves > 0 && eth_reserves > 0 */\n    tag_118:\n        /* \"contracts/exchange.sol\":5277:5444  if (token_reserves > 0 && eth_reserves > 0) {... */\n      iszero\n      tag_119\n      jumpi\n        /* \"contracts/exchange.sol\":5388:5400  token_amount */\n      dup1\n        /* \"contracts/exchange.sol\":5373:5385  eth_reserves */\n      sload(0x05)\n        /* \"contracts/exchange.sol\":5373:5400  eth_reserves * token_amount */\n      tag_120\n      swap2\n      swap1\n      tag_121\n      jump\t// in\n    tag_120:\n        /* \"contracts/exchange.sol\":5360:5369  msg.value */\n      callvalue\n        /* \"contracts/exchange.sol\":5343:5357  token_reserves */\n      sload(0x04)\n        /* \"contracts/exchange.sol\":5343:5369  token_reserves * msg.value */\n      tag_122\n      swap2\n      swap1\n      tag_121\n      jump\t// in\n    tag_122:\n        /* \"contracts/exchange.sol\":5343:5400  token_reserves * msg.value == eth_reserves * token_amount */\n      eq\n        /* \"contracts/exchange.sol\":5335:5433  require(token_reserves * msg.value == eth_reserves * token_amount, \"Incorrect ETH to Token ratio\") */\n      tag_123\n      jumpi\n      mload(0x40)\n      0x08c379a000000000000000000000000000000000000000000000000000000000\n      dup2\n      mstore\n      0x04\n      add\n      tag_124\n      swap1\n      tag_125\n      jump\t// in\n    tag_124:\n      mload(0x40)\n      dup1\n      swap2\n      sub\n      swap1\n      revert\n    tag_123:\n        /* \"contracts/exchange.sol\":5277:5444  if (token_reserves > 0 && eth_reserves > 0) {... */\n    tag_119:\n        /* \"contracts/exchange.sol\":5525:5530  token */\n      0x03\n      0x00\n      swap1\n      sload\n      swap1\n      0x0100\n      exp\n      swap1\n      div\n      0xffffffffffffffffffffffffffffffffffffffff\n      and\n        /* \"contracts/exchange.sol\":5525:5543  token.transferFrom */\n      0xffffffffffffffffffffffffffffffffffffffff\n      and\n      0x23b872dd\n        /* \"contracts/exchange.sol\":5544:5554  msg.sender */\n      caller\n        /* \"contracts/exchange.sol\":5564:5568  this */\n      address\n        /* \"contracts/exchange.sol\":5571:5583  token_amount */\n      dup5\n        /* \"contracts/exchange.sol\":5525:5584  token.transferFrom(msg.sender, address(this), token_amount) */\n      mload(0x40)\n      dup5\n      0xffffffff\n      and\n      0xe0\n      shl\n      dup2\n      mstore\n      0x04\n      add\n      tag_126\n      swap4\n      swap3\n      swap2\n      swap1\n      tag_127\n      jump\t// in\n    tag_126:\n      0x20\n      mload(0x40)\n      dup1\n      dup4\n      sub\n      dup2\n      0x00\n      dup8\n      dup1\n      extcodesize\n      iszero\n      dup1\n      iszero\n      tag_128\n      jumpi\n      0x00\n      dup1\n      revert\n    tag_128:\n      pop\n      gas\n      call\n      iszero\n      dup1\n      iszero\n      tag_130\n      jumpi\n      returndatasize\n      0x00\n      dup1\n      returndatacopy\n      revert(0x00, returndatasize)\n    tag_130:\n      pop\n      pop\n      pop\n      pop\n      mload(0x40)\n      returndatasize\n      not(0x1f)\n      0x1f\n      dup3\n      add\n      and\n      dup3\n      add\n      dup1\n      0x40\n      mstore\n      pop\n      dup2\n      add\n      swap1\n      tag_131\n      swap2\n      swap1\n      tag_132\n      jump\t// in\n    tag_131:\n        /* \"contracts/exchange.sol\":5517:5626  require(token.transferFrom(msg.sender, address(this), token_amount),... */\n      tag_133\n      jumpi\n      mload(0x40)\n      0x08c379a000000000000000000000000000000000000000000000000000000000\n      dup2\n      mstore\n      0x04\n      add\n      tag_134\n      swap1\n      tag_135\n      jump\t// in\n    tag_134:\n      mload(0x40)\n      dup1\n      swap2\n      sub\n      swap1\n      revert\n    tag_133:\n        /* \"contracts/exchange.sol\":5686:5698  token_amount */\n      dup1\n        /* \"contracts/exchange.sol\":5668:5682  token_reserves */\n      0x04\n      0x00\n        /* \"contracts/exchange.sol\":5668:5698  token_reserves += token_amount */\n      dup3\n      dup3\n      sload\n      tag_136\n      swap2\n      swap1\n      tag_104\n      jump\t// in\n    tag_136:\n      swap3\n      pop\n      pop\n      dup2\n      swap1\n      sstore\n      pop\n        /* \"contracts/exchange.sol\":5724:5733  msg.value */\n      callvalue\n        /* \"contracts/exchange.sol\":5708:5720  eth_reserves */\n      0x05\n      0x00\n        /* \"contracts/exchange.sol\":5708:5733  eth_reserves += msg.value */\n      dup3\n      dup3\n      sload\n      tag_137\n      swap2\n      swap1\n      tag_104\n      jump\t// in\n    tag_137:\n      swap3\n      pop\n      pop\n      dup2\n      swap1\n      sstore\n      pop\n        /* \"contracts/exchange.sol\":5764:5776  eth_reserves */\n      sload(0x05)\n        /* \"contracts/exchange.sol\":5747:5761  token_reserves */\n      sload(0x04)\n        /* \"contracts/exchange.sol\":5747:5776  token_reserves * eth_reserves */\n      tag_138\n      swap2\n      swap1\n      tag_121\n      jump\t// in\n    tag_138:\n        /* \"contracts/exchange.sol\":5743:5744  k */\n      0x06\n        /* \"contracts/exchange.sol\":5743:5776  k = token_reserves * eth_reserves */\n      dup2\n      swap1\n      sstore\n      pop\n        /* \"contracts/exchange.sol\":5847:5859  eth_reserves */\n      sload(0x05)\n        /* \"contracts/exchange.sol\":5830:5844  token_reserves */\n      sload(0x04)\n        /* \"contracts/exchange.sol\":5830:5859  token_reserves * eth_reserves */\n      tag_139\n      swap2\n      swap1\n      tag_121\n      jump\t// in\n    tag_139:\n        /* \"contracts/exchange.sol\":5826:5827  k */\n      0x06\n        /* \"contracts/exchange.sol\":5826:5859  k = token_reserves * eth_reserves */\n      dup2\n      swap1\n      sstore\n      pop\n        /* \"contracts/exchange.sol\":5951:5960  msg.value */\n      callvalue\n        /* \"contracts/exchange.sol\":5922:5935  userLiquidity */\n      0x09\n        /* \"contracts/exchange.sol\":5922:5947  userLiquidity[msg.sender] */\n      0x00\n        /* \"contracts/exchange.sol\":5936:5946  msg.sender */\n      caller\n        /* \"contracts/exchange.sol\":5922:5947  userLiquidity[msg.sender] */\n      0xffffffffffffffffffffffffffffffffffffffff\n      and\n      0xffffffffffffffffffffffffffffffffffffffff\n      and\n      dup2\n      mstore\n      0x20\n      add\n      swap1\n      dup2\n      mstore\n      0x20\n      add\n      0x00\n      keccak256\n      0x00\n        /* \"contracts/exchange.sol\":5922:5960  userLiquidity[msg.sender] += msg.value */\n      dup3\n      dup3\n      sload\n      tag_140\n      swap2\n      swap1\n      tag_104\n      jump\t// in\n    tag_140:\n      swap3\n      pop\n      pop\n      dup2\n      swap1\n      sstore\n      pop\n        /* \"contracts/exchange.sol\":6012:6050  AddLiquidity(msg.sender, token_amount) */\n      0xbb37879e252460856212dc4e8c6edf174e473df9423e3a7feccd21f8c28d587a\n        /* \"contracts/exchange.sol\":6025:6035  msg.sender */\n      caller\n        /* \"contracts/exchange.sol\":6037:6049  token_amount */\n      dup3\n        /* \"contracts/exchange.sol\":6012:6050  AddLiquidity(msg.sender, token_amount) */\n      mload(0x40)\n      tag_141\n      swap3\n      swap2\n      swap1\n      tag_142\n      jump\t// in\n    tag_141:\n      mload(0x40)\n      dup1\n      swap2\n      sub\n      swap1\n      log1\n        /* \"contracts/exchange.sol\":4509:6057  function addLiquidity(uint256 token_amount) external payable {... */\n      pop\n      jump\t// out\n        /* \"contracts/exchange.sol\":16544:17402  function getEthAmountForTokenSwap(uint amountTokens) public view returns (uint256) {... */\n    tag_44:\n        /* \"contracts/exchange.sol\":16618:16625  uint256 */\n      0x00\n        /* \"contracts/exchange.sol\":16711:16712  0 */\n      dup1\n        /* \"contracts/exchange.sol\":16694:16708  token_reserves */\n      sload(0x04)\n        /* \"contracts/exchange.sol\":16694:16712  token_reserves > 0 */\n      gt\n        /* \"contracts/exchange.sol\":16694:16732  token_reserves > 0 && eth_reserves > 0 */\n      dup1\n      iszero\n      tag_144\n      jumpi\n      pop\n        /* \"contracts/exchange.sol\":16731:16732  0 */\n      0x00\n        /* \"contracts/exchange.sol\":16716:16728  eth_reserves */\n      sload(0x05)\n        /* \"contracts/exchange.sol\":16716:16732  eth_reserves > 0 */\n      gt\n        /* \"contracts/exchange.sol\":16694:16732  token_reserves > 0 && eth_reserves > 0 */\n    tag_144:\n        /* \"contracts/exchange.sol\":16686:16755  require(token_reserves > 0 && eth_reserves > 0, \"Reserves are empty\") */\n      tag_145\n      jumpi\n      mload(0x40)\n      0x08c379a000000000000000000000000000000000000000000000000000000000\n      dup2\n      mstore\n      0x04\n      add\n      tag_146\n      swap1\n      tag_102\n      jump\t// in\n    tag_146:\n      mload(0x40)\n      dup1\n      swap2\n      sub\n      swap1\n      revert\n    tag_145:\n        /* \"contracts/exchange.sol\":16825:16849  uint256 newTokenReserves */\n      0x00\n        /* \"contracts/exchange.sol\":16869:16881  amountTokens */\n      dup3\n        /* \"contracts/exchange.sol\":16852:16866  token_reserves */\n      sload(0x04)\n        /* \"contracts/exchange.sol\":16852:16881  token_reserves + amountTokens */\n      tag_147\n      swap2\n      swap1\n      tag_104\n      jump\t// in\n    tag_147:\n        /* \"contracts/exchange.sol\":16825:16881  uint256 newTokenReserves = token_reserves + amountTokens */\n      swap1\n      pop\n        /* \"contracts/exchange.sol\":17014:17036  uint256 newEthReserves */\n      0x00\n        /* \"contracts/exchange.sol\":17043:17059  newTokenReserves */\n      dup2\n        /* \"contracts/exchange.sol\":17039:17040  k */\n      sload(0x06)\n        /* \"contracts/exchange.sol\":17039:17059  k / newTokenReserves */\n      tag_148\n      swap2\n      swap1\n      tag_97\n      jump\t// in\n    tag_148:\n        /* \"contracts/exchange.sol\":17014:17059  uint256 newEthReserves = k / newTokenReserves */\n      swap1\n      pop\n        /* \"contracts/exchange.sol\":17182:17194  eth_reserves */\n      sload(0x05)\n        /* \"contracts/exchange.sol\":17165:17179  newEthReserves */\n      dup2\n        /* \"contracts/exchange.sol\":17165:17194  newEthReserves < eth_reserves */\n      lt\n        /* \"contracts/exchange.sol\":17157:17211  require(newEthReserves < eth_reserves, \"Invalid swap\") */\n      tag_149\n      jumpi\n      mload(0x40)\n      0x08c379a000000000000000000000000000000000000000000000000000000000\n      dup2\n      mstore\n      0x04\n      add\n      tag_150\n      swap1\n      tag_108\n      jump\t// in\n    tag_150:\n      mload(0x40)\n      dup1\n      swap2\n      sub\n      swap1\n      revert\n    tag_149:\n        /* \"contracts/exchange.sol\":17315:17334  uint256 ethReceived */\n      0x00\n        /* \"contracts/exchange.sol\":17352:17366  newEthReserves */\n      dup2\n        /* \"contracts/exchange.sol\":17337:17349  eth_reserves */\n      sload(0x05)\n        /* \"contracts/exchange.sol\":17337:17366  eth_reserves - newEthReserves */\n      tag_151\n      swap2\n      swap1\n      tag_110\n      jump\t// in\n    tag_151:\n        /* \"contracts/exchange.sol\":17315:17366  uint256 ethReceived = eth_reserves - newEthReserves */\n      swap1\n      pop\n        /* \"contracts/exchange.sol\":17384:17395  ethReceived */\n      dup1\n        /* \"contracts/exchange.sol\":17377:17395  return ethReceived */\n      swap4\n      pop\n      pop\n      pop\n      pop\n        /* \"contracts/exchange.sol\":16544:17402  function getEthAmountForTokenSwap(uint amountTokens) public view returns (uint256) {... */\n      swap2\n      swap1\n      pop\n      jump\t// out\n        /* \"contracts/exchange.sol\":1924:2702  function createPool(uint amountTokens) external payable onlyOwner {... */\n    tag_48:\n        /* \"libraries/ownable.sol\":1033:1043  msg.sender */\n      caller\n        /* \"libraries/ownable.sol\":1023:1043  _owner == msg.sender */\n      0xffffffffffffffffffffffffffffffffffffffff\n      and\n        /* \"libraries/ownable.sol\":1023:1029  _owner */\n      0x00\n      dup1\n      sload\n      swap1\n      0x0100\n      exp\n      swap1\n      div\n      0xffffffffffffffffffffffffffffffffffffffff\n      and\n        /* \"libraries/ownable.sol\":1023:1043  _owner == msg.sender */\n      0xffffffffffffffffffffffffffffffffffffffff\n      and\n      eq\n        /* \"libraries/ownable.sol\":1015:1080  require(_owner == msg.sender, \"Ownable: caller is not the owner\") */\n      tag_153\n      jumpi\n      mload(0x40)\n      0x08c379a000000000000000000000000000000000000000000000000000000000\n      dup2\n      mstore\n      0x04\n      add\n      tag_154\n      swap1\n      tag_155\n      jump\t// in\n    tag_154:\n      mload(0x40)\n      dup1\n      swap2\n      sub\n      swap1\n      revert\n    tag_153:\n        /* \"contracts/exchange.sol\":2145:2146  0 */\n      0x00\n        /* \"contracts/exchange.sol\":2127:2141  token_reserves */\n      sload(0x04)\n        /* \"contracts/exchange.sol\":2127:2146  token_reserves == 0 */\n      eq\n        /* \"contracts/exchange.sol\":2119:2175  require(token_reserves == 0, \"Token reserves was not 0\") */\n      tag_157\n      jumpi\n      mload(0x40)\n      0x08c379a000000000000000000000000000000000000000000000000000000000\n      dup2\n      mstore\n      0x04\n      add\n      tag_158\n      swap1\n      tag_159\n      jump\t// in\n    tag_158:\n      mload(0x40)\n      dup1\n      swap2\n      sub\n      swap1\n      revert\n    tag_157:\n        /* \"contracts/exchange.sol\":2209:2210  0 */\n      0x00\n        /* \"contracts/exchange.sol\":2193:2205  eth_reserves */\n      sload(0x05)\n        /* \"contracts/exchange.sol\":2193:2210  eth_reserves == 0 */\n      eq\n        /* \"contracts/exchange.sol\":2185:2238  require(eth_reserves == 0, \"ETH reserves was not 0.\") */\n      tag_160\n      jumpi\n      mload(0x40)\n      0x08c379a000000000000000000000000000000000000000000000000000000000\n      dup2\n      mstore\n      0x04\n      add\n      tag_161\n      swap1\n      tag_162\n      jump\t// in\n    tag_161:\n      mload(0x40)\n      dup1\n      swap2\n      sub\n      swap1\n      revert\n    tag_160:\n        /* \"contracts/exchange.sol\":2313:2314  0 */\n      0x00\n        /* \"contracts/exchange.sol\":2301:2310  msg.value */\n      callvalue\n        /* \"contracts/exchange.sol\":2301:2314  msg.value > 0 */\n      gt\n        /* \"contracts/exchange.sol\":2293:2343  require(msg.value > 0, \"Need ETH to create pool.\") */\n      tag_163\n      jumpi\n      mload(0x40)\n      0x08c379a000000000000000000000000000000000000000000000000000000000\n      dup2\n      mstore\n      0x04\n      add\n      tag_164\n      swap1\n      tag_165\n      jump\t// in\n    tag_164:\n      mload(0x40)\n      dup1\n      swap2\n      sub\n      swap1\n      revert\n    tag_163:\n        /* \"contracts/exchange.sol\":2376:2377  0 */\n      0x00\n        /* \"contracts/exchange.sol\":2361:2373  amountTokens */\n      dup2\n        /* \"contracts/exchange.sol\":2361:2377  amountTokens > 0 */\n      gt\n        /* \"contracts/exchange.sol\":2353:2409  require(amountTokens > 0, \"Need tokens to create pool.\") */\n      tag_166\n      jumpi\n      mload(0x40)\n      0x08c379a000000000000000000000000000000000000000000000000000000000\n      dup2\n      mstore\n      0x04\n      add\n      tag_167\n      swap1\n      tag_168\n      jump\t// in\n    tag_167:\n      mload(0x40)\n      dup1\n      swap2\n      sub\n      swap1\n      revert\n    tag_166:\n        /* \"contracts/exchange.sol\":2420:2425  token */\n      0x03\n      0x00\n      swap1\n      sload\n      swap1\n      0x0100\n      exp\n      swap1\n      div\n      0xffffffffffffffffffffffffffffffffffffffff\n      and\n        /* \"contracts/exchange.sol\":2420:2438  token.transferFrom */\n      0xffffffffffffffffffffffffffffffffffffffff\n      and\n      0x23b872dd\n        /* \"contracts/exchange.sol\":2439:2449  msg.sender */\n      caller\n        /* \"contracts/exchange.sol\":2459:2463  this */\n      address\n        /* \"contracts/exchange.sol\":2466:2478  amountTokens */\n      dup5\n        /* \"contracts/exchange.sol\":2420:2479  token.transferFrom(msg.sender, address(this), amountTokens) */\n      mload(0x40)\n      dup5\n      0xffffffff\n      and\n      0xe0\n      shl\n      dup2\n      mstore\n      0x04\n      add\n      tag_169\n      swap4\n      swap3\n      swap2\n      swap1\n      tag_127\n      jump\t// in\n    tag_169:\n      0x20\n      mload(0x40)\n      dup1\n      dup4\n      sub\n      dup2\n      0x00\n      dup8\n      dup1\n      extcodesize\n      iszero\n      dup1\n      iszero\n      tag_170\n      jumpi\n      0x00\n      dup1\n      revert\n    tag_170:\n      pop\n      gas\n      call\n      iszero\n      dup1\n      iszero\n      tag_172\n      jumpi\n      returndatasize\n      0x00\n      dup1\n      returndatacopy\n      revert(0x00, returndatasize)\n    tag_172:\n      pop\n      pop\n      pop\n      pop\n      mload(0x40)\n      returndatasize\n      not(0x1f)\n      0x1f\n      dup3\n      add\n      and\n      dup3\n      add\n      dup1\n      0x40\n      mstore\n      pop\n      dup2\n      add\n      swap1\n      tag_173\n      swap2\n      swap1\n      tag_132\n      jump\t// in\n    tag_173:\n      pop\n        /* \"contracts/exchange.sol\":2504:2513  msg.value */\n      callvalue\n        /* \"contracts/exchange.sol\":2489:2501  eth_reserves */\n      0x05\n        /* \"contracts/exchange.sol\":2489:2513  eth_reserves = msg.value */\n      dup2\n      swap1\n      sstore\n      pop\n        /* \"contracts/exchange.sol\":2540:2552  amountTokens */\n      dup1\n        /* \"contracts/exchange.sol\":2523:2537  token_reserves */\n      0x04\n        /* \"contracts/exchange.sol\":2523:2552  token_reserves = amountTokens */\n      dup2\n      swap1\n      sstore\n      pop\n        /* \"contracts/exchange.sol\":2581:2595  token_reserves */\n      sload(0x04)\n        /* \"contracts/exchange.sol\":2566:2578  eth_reserves */\n      sload(0x05)\n        /* \"contracts/exchange.sol\":2566:2595  eth_reserves * token_reserves */\n      tag_174\n      swap2\n      swap1\n      tag_121\n      jump\t// in\n    tag_174:\n        /* \"contracts/exchange.sol\":2562:2563  k */\n      0x06\n        /* \"contracts/exchange.sol\":2562:2595  k = eth_reserves * token_reserves */\n      dup2\n      swap1\n      sstore\n      pop\n        /* \"contracts/exchange.sol\":2686:2695  msg.value */\n      callvalue\n        /* \"contracts/exchange.sol\":2658:2671  userLiquidity */\n      0x09\n        /* \"contracts/exchange.sol\":2658:2683  userLiquidity[msg.sender] */\n      0x00\n        /* \"contracts/exchange.sol\":2672:2682  msg.sender */\n      caller\n        /* \"contracts/exchange.sol\":2658:2683  userLiquidity[msg.sender] */\n      0xffffffffffffffffffffffffffffffffffffffff\n      and\n      0xffffffffffffffffffffffffffffffffffffffff\n      and\n      dup2\n      mstore\n      0x20\n      add\n      swap1\n      dup2\n      mstore\n      0x20\n      add\n      0x00\n      keccak256\n        /* \"contracts/exchange.sol\":2658:2695  userLiquidity[msg.sender] = msg.value */\n      dup2\n      swap1\n      sstore\n      pop\n        /* \"contracts/exchange.sol\":1924:2702  function createPool(uint amountTokens) external payable onlyOwner {... */\n      pop\n      jump\t// out\n        /* \"contracts/exchange.sol\":8677:10445  function removeAllLiquidity() external payable {... */\n    tag_50:\n        /* \"contracts/exchange.sol\":8998:9025  uint256 userEthContribution */\n      0x00\n        /* \"contracts/exchange.sol\":9028:9041  userLiquidity */\n      0x09\n        /* \"contracts/exchange.sol\":9028:9053  userLiquidity[msg.sender] */\n      0x00\n        /* \"contracts/exchange.sol\":9042:9052  msg.sender */\n      caller\n        /* \"contracts/exchange.sol\":9028:9053  userLiquidity[msg.sender] */\n      0xffffffffffffffffffffffffffffffffffffffff\n      and\n      0xffffffffffffffffffffffffffffffffffffffff\n      and\n      dup2\n      mstore\n      0x20\n      add\n      swap1\n      dup2\n      mstore\n      0x20\n      add\n      0x00\n      keccak256\n      sload\n        /* \"contracts/exchange.sol\":8998:9053  uint256 userEthContribution = userLiquidity[msg.sender] */\n      swap1\n      pop\n        /* \"contracts/exchange.sol\":9145:9146  0 */\n      0x00\n        /* \"contracts/exchange.sol\":9123:9142  userEthContribution */\n      dup2\n        /* \"contracts/exchange.sol\":9123:9146  userEthContribution > 0 */\n      gt\n        /* \"contracts/exchange.sol\":9115:9173  require(userEthContribution > 0, \"No liquidity to remove\") */\n      tag_176\n      jumpi\n      mload(0x40)\n      0x08c379a000000000000000000000000000000000000000000000000000000000\n      dup2\n      mstore\n      0x04\n      add\n      tag_177\n      swap1\n      tag_178\n      jump\t// in\n    tag_177:\n      mload(0x40)\n      dup1\n      swap2\n      sub\n      swap1\n      revert\n    tag_176:\n        /* \"contracts/exchange.sol\":9336:9353  uint256 userShare */\n      0x00\n        /* \"contracts/exchange.sol\":9385:9397  eth_reserves */\n      sload(0x05)\n        /* \"contracts/exchange.sol\":9378:9382  1e18 */\n      0x0de0b6b3a7640000\n        /* \"contracts/exchange.sol\":9356:9375  userEthContribution */\n      dup4\n        /* \"contracts/exchange.sol\":9356:9382  userEthContribution * 1e18 */\n      tag_179\n      swap2\n      swap1\n      tag_121\n      jump\t// in\n    tag_179:\n        /* \"contracts/exchange.sol\":9356:9397  userEthContribution * 1e18 / eth_reserves */\n      tag_180\n      swap2\n      swap1\n      tag_97\n      jump\t// in\n    tag_180:\n        /* \"contracts/exchange.sol\":9336:9397  uint256 userShare = userEthContribution * 1e18 / eth_reserves */\n      swap1\n      pop\n        /* \"contracts/exchange.sol\":9506:9525  uint256 tokenAmount */\n      0x00\n        /* \"contracts/exchange.sol\":9557:9561  1e18 */\n      0x0de0b6b3a7640000\n        /* \"contracts/exchange.sol\":9545:9554  userShare */\n      dup3\n        /* \"contracts/exchange.sol\":9528:9542  token_reserves */\n      sload(0x04)\n        /* \"contracts/exchange.sol\":9528:9554  token_reserves * userShare */\n      tag_181\n      swap2\n      swap1\n      tag_121\n      jump\t// in\n    tag_181:\n        /* \"contracts/exchange.sol\":9528:9561  token_reserves * userShare / 1e18 */\n      tag_182\n      swap2\n      swap1\n      tag_97\n      jump\t// in\n    tag_182:\n        /* \"contracts/exchange.sol\":9506:9561  uint256 tokenAmount = token_reserves * userShare / 1e18 */\n      swap1\n      pop\n        /* \"contracts/exchange.sol\":9718:9737  userEthContribution */\n      dup3\n        /* \"contracts/exchange.sol\":9702:9714  eth_reserves */\n      sload(0x05)\n        /* \"contracts/exchange.sol\":9702:9737  eth_reserves >= userEthContribution */\n      lt\n      iszero\n        /* \"contracts/exchange.sol\":9694:9770  require(eth_reserves >= userEthContribution, \"Insufficient ETH in reserves\") */\n      tag_183\n      jumpi\n      mload(0x40)\n      0x08c379a000000000000000000000000000000000000000000000000000000000\n      dup2\n      mstore\n      0x04\n      add\n      tag_184\n      swap1\n      tag_185\n      jump\t// in\n    tag_184:\n      mload(0x40)\n      dup1\n      swap2\n      sub\n      swap1\n      revert\n    tag_183:\n        /* \"contracts/exchange.sol\":9806:9817  tokenAmount */\n      dup1\n        /* \"contracts/exchange.sol\":9788:9802  token_reserves */\n      sload(0x04)\n        /* \"contracts/exchange.sol\":9788:9817  token_reserves >= tokenAmount */\n      lt\n      iszero\n        /* \"contracts/exchange.sol\":9780:9853  require(token_reserves >= tokenAmount, \"Insufficient tokens in reserves\") */\n      tag_186\n      jumpi\n      mload(0x40)\n      0x08c379a000000000000000000000000000000000000000000000000000000000\n      dup2\n      mstore\n      0x04\n      add\n      tag_187\n      swap1\n      tag_188\n      jump\t// in\n    tag_187:\n      mload(0x40)\n      dup1\n      swap2\n      sub\n      swap1\n      revert\n    tag_186:\n        /* \"contracts/exchange.sol\":9934:9953  userEthContribution */\n      dup3\n        /* \"contracts/exchange.sol\":9918:9930  eth_reserves */\n      0x05\n      0x00\n        /* \"contracts/exchange.sol\":9918:9953  eth_reserves -= userEthContribution */\n      dup3\n      dup3\n      sload\n      tag_189\n      swap2\n      swap1\n      tag_110\n      jump\t// in\n    tag_189:\n      swap3\n      pop\n      pop\n      dup2\n      swap1\n      sstore\n      pop\n        /* \"contracts/exchange.sol\":9981:9992  tokenAmount */\n      dup1\n        /* \"contracts/exchange.sol\":9963:9977  token_reserves */\n      0x04\n      0x00\n        /* \"contracts/exchange.sol\":9963:9992  token_reserves -= tokenAmount */\n      dup3\n      dup3\n      sload\n      tag_190\n      swap2\n      swap1\n      tag_110\n      jump\t// in\n    tag_190:\n      swap3\n      pop\n      pop\n      dup2\n      swap1\n      sstore\n      pop\n        /* \"contracts/exchange.sol\":10023:10035  eth_reserves */\n      sload(0x05)\n        /* \"contracts/exchange.sol\":10006:10020  token_reserves */\n      sload(0x04)\n        /* \"contracts/exchange.sol\":10006:10035  token_reserves * eth_reserves */\n      tag_191\n      swap2\n      swap1\n      tag_121\n      jump\t// in\n    tag_191:\n        /* \"contracts/exchange.sol\":10002:10003  k */\n      0x06\n        /* \"contracts/exchange.sol\":10002:10035  k = token_reserves * eth_reserves */\n      dup2\n      swap1\n      sstore\n      pop\n        /* \"contracts/exchange.sol\":10134:10135  0 */\n      0x00\n        /* \"contracts/exchange.sol\":10106:10119  userLiquidity */\n      0x09\n        /* \"contracts/exchange.sol\":10106:10131  userLiquidity[msg.sender] */\n      0x00\n        /* \"contracts/exchange.sol\":10120:10130  msg.sender */\n      caller\n        /* \"contracts/exchange.sol\":10106:10131  userLiquidity[msg.sender] */\n      0xffffffffffffffffffffffffffffffffffffffff\n      and\n      0xffffffffffffffffffffffffffffffffffffffff\n      and\n      dup2\n      mstore\n      0x20\n      add\n      swap1\n      dup2\n      mstore\n      0x20\n      add\n      0x00\n      keccak256\n        /* \"contracts/exchange.sol\":10106:10135  userLiquidity[msg.sender] = 0 */\n      dup2\n      swap1\n      sstore\n      pop\n        /* \"contracts/exchange.sol\":10206:10216  msg.sender */\n      caller\n        /* \"contracts/exchange.sol\":10198:10226  payable(msg.sender).transfer */\n      0xffffffffffffffffffffffffffffffffffffffff\n      and\n        /* \"contracts/exchange.sol\":10198:10247  payable(msg.sender).transfer(userEthContribution) */\n      0x08fc\n        /* \"contracts/exchange.sol\":10227:10246  userEthContribution */\n      dup5\n        /* \"contracts/exchange.sol\":10198:10247  payable(msg.sender).transfer(userEthContribution) */\n      swap1\n      dup2\n      iszero\n      mul\n      swap1\n      mload(0x40)\n      0x00\n      mload(0x40)\n      dup1\n      dup4\n      sub\n      dup2\n      dup6\n      dup9\n      dup9\n      call\n      swap4\n      pop\n      pop\n      pop\n      pop\n      iszero\n      dup1\n      iszero\n      tag_193\n      jumpi\n      returndatasize\n      0x00\n      dup1\n      returndatacopy\n      revert(0x00, returndatasize)\n    tag_193:\n      pop\n        /* \"contracts/exchange.sol\":10265:10270  token */\n      0x03\n      0x00\n      swap1\n      sload\n      swap1\n      0x0100\n      exp\n      swap1\n      div\n      0xffffffffffffffffffffffffffffffffffffffff\n      and\n        /* \"contracts/exchange.sol\":10265:10279  token.transfer */\n      0xffffffffffffffffffffffffffffffffffffffff\n      and\n      0xa9059cbb\n        /* \"contracts/exchange.sol\":10280:10290  msg.sender */\n      caller\n        /* \"contracts/exchange.sol\":10292:10303  tokenAmount */\n      dup4\n        /* \"contracts/exchange.sol\":10265:10304  token.transfer(msg.sender, tokenAmount) */\n      mload(0x40)\n      dup4\n      0xffffffff\n      and\n      0xe0\n      shl\n      dup2\n      mstore\n      0x04\n      add\n      tag_194\n      swap3\n      swap2\n      swap1\n      tag_142\n      jump\t// in\n    tag_194:\n      0x20\n      mload(0x40)\n      dup1\n      dup4\n      sub\n      dup2\n      0x00\n      dup8\n      dup1\n      extcodesize\n      iszero\n      dup1\n      iszero\n      tag_195\n      jumpi\n      0x00\n      dup1\n      revert\n    tag_195:\n      pop\n      gas\n      call\n      iszero\n      dup1\n      iszero\n      tag_197\n      jumpi\n      returndatasize\n      0x00\n      dup1\n      returndatacopy\n      revert(0x00, returndatasize)\n    tag_197:\n      pop\n      pop\n      pop\n      pop\n      mload(0x40)\n      returndatasize\n      not(0x1f)\n      0x1f\n      dup3\n      add\n      and\n      dup3\n      add\n      dup1\n      0x40\n      mstore\n      pop\n      dup2\n      add\n      swap1\n      tag_198\n      swap2\n      swap1\n      tag_132\n      jump\t// in\n    tag_198:\n        /* \"contracts/exchange.sol\":10257:10330  require(token.transfer(msg.sender, tokenAmount), \"Token transfer failed\") */\n      tag_199\n      jumpi\n      mload(0x40)\n      0x08c379a000000000000000000000000000000000000000000000000000000000\n      dup2\n      mstore\n      0x04\n      add\n      tag_200\n      swap1\n      tag_135\n      jump\t// in\n    tag_200:\n      mload(0x40)\n      dup1\n      swap2\n      sub\n      swap1\n      revert\n    tag_199:\n        /* \"contracts/exchange.sol\":10390:10438  RemoveLiquidity(msg.sender, userEthContribution) */\n      0xdfdd120ded9b7afc0c23dd5310e93aaa3e1c3b9f75af9b805fab3030842439f2\n        /* \"contracts/exchange.sol\":10406:10416  msg.sender */\n      caller\n        /* \"contracts/exchange.sol\":10418:10437  userEthContribution */\n      dup5\n        /* \"contracts/exchange.sol\":10390:10438  RemoveLiquidity(msg.sender, userEthContribution) */\n      mload(0x40)\n      tag_201\n      swap3\n      swap2\n      swap1\n      tag_142\n      jump\t// in\n    tag_201:\n      mload(0x40)\n      dup1\n      swap2\n      sub\n      swap1\n      log1\n        /* \"contracts/exchange.sol\":8724:10445  {... */\n      pop\n      pop\n      pop\n        /* \"contracts/exchange.sol\":8677:10445  function removeAllLiquidity() external payable {... */\n      jump\t// out\n        /* \"contracts/exchange.sol\":1020:1048  uint public eth_reserves = 0 */\n    tag_53:\n      sload(0x05)\n      dup2\n      jump\t// out\n        /* \"contracts/exchange.sol\":984:1014  uint public token_reserves = 0 */\n    tag_57:\n      sload(0x04)\n      dup2\n      jump\t// out\n        /* \"contracts/exchange.sol\":6624:8310  function removeLiquidity(uint256 eth_amount) public payable {... */\n    tag_61:\n        /* \"contracts/exchange.sol\":7213:7223  eth_amount */\n      dup1\n        /* \"contracts/exchange.sol\":7184:7197  userLiquidity */\n      0x09\n        /* \"contracts/exchange.sol\":7184:7209  userLiquidity[msg.sender] */\n      0x00\n        /* \"contracts/exchange.sol\":7198:7208  msg.sender */\n      caller\n        /* \"contracts/exchange.sol\":7184:7209  userLiquidity[msg.sender] */\n      0xffffffffffffffffffffffffffffffffffffffff\n      and\n      0xffffffffffffffffffffffffffffffffffffffff\n      and\n      dup2\n      mstore\n      0x20\n      add\n      swap1\n      dup2\n      mstore\n      0x20\n      add\n      0x00\n      keccak256\n      sload\n        /* \"contracts/exchange.sol\":7184:7223  userLiquidity[msg.sender] >= eth_amount */\n      lt\n      iszero\n        /* \"contracts/exchange.sol\":7176:7258  require(userLiquidity[msg.sender] >= eth_amount, \"Not enough liquidity to remove\") */\n      tag_203\n      jumpi\n      mload(0x40)\n      0x08c379a000000000000000000000000000000000000000000000000000000000\n      dup2\n      mstore\n      0x04\n      add\n      tag_204\n      swap1\n      tag_205\n      jump\t// in\n    tag_204:\n      mload(0x40)\n      dup1\n      swap2\n      sub\n      swap1\n      revert\n    tag_203:\n        /* \"contracts/exchange.sol\":7410:7430  uint256 token_amount */\n      0x00\n        /* \"contracts/exchange.sol\":7465:7477  eth_reserves */\n      sload(0x05)\n        /* \"contracts/exchange.sol\":7447:7461  token_reserves */\n      sload(0x04)\n        /* \"contracts/exchange.sol\":7434:7444  eth_amount */\n      dup4\n        /* \"contracts/exchange.sol\":7434:7461  eth_amount * token_reserves */\n      tag_206\n      swap2\n      swap1\n      tag_121\n      jump\t// in\n    tag_206:\n        /* \"contracts/exchange.sol\":7433:7477  (eth_amount * token_reserves) / eth_reserves */\n      tag_207\n      swap2\n      swap1\n      tag_97\n      jump\t// in\n    tag_207:\n        /* \"contracts/exchange.sol\":7410:7477  uint256 token_amount = (eth_amount * token_reserves) / eth_reserves */\n      swap1\n      pop\n        /* \"contracts/exchange.sol\":7583:7593  eth_amount */\n      dup2\n        /* \"contracts/exchange.sol\":7567:7579  eth_reserves */\n      sload(0x05)\n        /* \"contracts/exchange.sol\":7567:7593  eth_reserves >= eth_amount */\n      lt\n      iszero\n        /* \"contracts/exchange.sol\":7559:7626  require(eth_reserves >= eth_amount, \"Insufficient ETH in reserves\") */\n      tag_208\n      jumpi\n      mload(0x40)\n      0x08c379a000000000000000000000000000000000000000000000000000000000\n      dup2\n      mstore\n      0x04\n      add\n      tag_209\n      swap1\n      tag_185\n      jump\t// in\n    tag_209:\n      mload(0x40)\n      dup1\n      swap2\n      sub\n      swap1\n      revert\n    tag_208:\n        /* \"contracts/exchange.sol\":7662:7674  token_amount */\n      dup1\n        /* \"contracts/exchange.sol\":7644:7658  token_reserves */\n      sload(0x04)\n        /* \"contracts/exchange.sol\":7644:7674  token_reserves >= token_amount */\n      lt\n      iszero\n        /* \"contracts/exchange.sol\":7636:7710  require(token_reserves >= token_amount, \"Insufficient tokens in reserves\") */\n      tag_210\n      jumpi\n      mload(0x40)\n      0x08c379a000000000000000000000000000000000000000000000000000000000\n      dup2\n      mstore\n      0x04\n      add\n      tag_211\n      swap1\n      tag_188\n      jump\t// in\n    tag_211:\n      mload(0x40)\n      dup1\n      swap2\n      sub\n      swap1\n      revert\n    tag_210:\n        /* \"contracts/exchange.sol\":7768:7778  eth_amount */\n      dup2\n        /* \"contracts/exchange.sol\":7752:7764  eth_reserves */\n      0x05\n      0x00\n        /* \"contracts/exchange.sol\":7752:7778  eth_reserves -= eth_amount */\n      dup3\n      dup3\n      sload\n      tag_212\n      swap2\n      swap1\n      tag_110\n      jump\t// in\n    tag_212:\n      swap3\n      pop\n      pop\n      dup2\n      swap1\n      sstore\n      pop\n        /* \"contracts/exchange.sol\":7806:7818  token_amount */\n      dup1\n        /* \"contracts/exchange.sol\":7788:7802  token_reserves */\n      0x04\n      0x00\n        /* \"contracts/exchange.sol\":7788:7818  token_reserves -= token_amount */\n      dup3\n      dup3\n      sload\n      tag_213\n      swap2\n      swap1\n      tag_110\n      jump\t// in\n    tag_213:\n      swap3\n      pop\n      pop\n      dup2\n      swap1\n      sstore\n      pop\n        /* \"contracts/exchange.sol\":7889:7901  eth_reserves */\n      sload(0x05)\n        /* \"contracts/exchange.sol\":7872:7886  token_reserves */\n      sload(0x04)\n        /* \"contracts/exchange.sol\":7872:7901  token_reserves * eth_reserves */\n      tag_214\n      swap2\n      swap1\n      tag_121\n      jump\t// in\n    tag_214:\n        /* \"contracts/exchange.sol\":7868:7869  k */\n      0x06\n        /* \"contracts/exchange.sol\":7868:7901  k = token_reserves * eth_reserves */\n      dup2\n      swap1\n      sstore\n      pop\n        /* \"contracts/exchange.sol\":7986:7996  msg.sender */\n      caller\n        /* \"contracts/exchange.sol\":7978:8006  payable(msg.sender).transfer */\n      0xffffffffffffffffffffffffffffffffffffffff\n      and\n        /* \"contracts/exchange.sol\":7978:8018  payable(msg.sender).transfer(eth_amount) */\n      0x08fc\n        /* \"contracts/exchange.sol\":8007:8017  eth_amount */\n      dup4\n        /* \"contracts/exchange.sol\":7978:8018  payable(msg.sender).transfer(eth_amount) */\n      swap1\n      dup2\n      iszero\n      mul\n      swap1\n      mload(0x40)\n      0x00\n      mload(0x40)\n      dup1\n      dup4\n      sub\n      dup2\n      dup6\n      dup9\n      dup9\n      call\n      swap4\n      pop\n      pop\n      pop\n      pop\n      iszero\n      dup1\n      iszero\n      tag_216\n      jumpi\n      returndatasize\n      0x00\n      dup1\n      returndatacopy\n      revert(0x00, returndatasize)\n    tag_216:\n      pop\n        /* \"contracts/exchange.sol\":8036:8041  token */\n      0x03\n      0x00\n      swap1\n      sload\n      swap1\n      0x0100\n      exp\n      swap1\n      div\n      0xffffffffffffffffffffffffffffffffffffffff\n      and\n        /* \"contracts/exchange.sol\":8036:8050  token.transfer */\n      0xffffffffffffffffffffffffffffffffffffffff\n      and\n      0xa9059cbb\n        /* \"contracts/exchange.sol\":8051:8061  msg.sender */\n      caller\n        /* \"contracts/exchange.sol\":8063:8075  token_amount */\n      dup4\n        /* \"contracts/exchange.sol\":8036:8076  token.transfer(msg.sender, token_amount) */\n      mload(0x40)\n      dup4\n      0xffffffff\n      and\n      0xe0\n      shl\n      dup2\n      mstore\n      0x04\n      add\n      tag_217\n      swap3\n      swap2\n      swap1\n      tag_142\n      jump\t// in\n    tag_217:\n      0x20\n      mload(0x40)\n      dup1\n      dup4\n      sub\n      dup2\n      0x00\n      dup8\n      dup1\n      extcodesize\n      iszero\n      dup1\n      iszero\n      tag_218\n      jumpi\n      0x00\n      dup1\n      revert\n    tag_218:\n      pop\n      gas\n      call\n      iszero\n      dup1\n      iszero\n      tag_220\n      jumpi\n      returndatasize\n      0x00\n      dup1\n      returndatacopy\n      revert(0x00, returndatasize)\n    tag_220:\n      pop\n      pop\n      pop\n      pop\n      mload(0x40)\n      returndatasize\n      not(0x1f)\n      0x1f\n      dup3\n      add\n      and\n      dup3\n      add\n      dup1\n      0x40\n      mstore\n      pop\n      dup2\n      add\n      swap1\n      tag_221\n      swap2\n      swap1\n      tag_132\n      jump\t// in\n    tag_221:\n        /* \"contracts/exchange.sol\":8028:8102  require(token.transfer(msg.sender, token_amount), \"Token transfer failed\") */\n      tag_222\n      jumpi\n      mload(0x40)\n      0x08c379a000000000000000000000000000000000000000000000000000000000\n      dup2\n      mstore\n      0x04\n      add\n      tag_223\n      swap1\n      tag_135\n      jump\t// in\n    tag_223:\n      mload(0x40)\n      dup1\n      swap2\n      sub\n      swap1\n      revert\n    tag_222:\n        /* \"contracts/exchange.sol\":8194:8204  eth_amount */\n      dup2\n        /* \"contracts/exchange.sol\":8165:8178  userLiquidity */\n      0x09\n        /* \"contracts/exchange.sol\":8165:8190  userLiquidity[msg.sender] */\n      0x00\n        /* \"contracts/exchange.sol\":8179:8189  msg.sender */\n      caller\n        /* \"contracts/exchange.sol\":8165:8190  userLiquidity[msg.sender] */\n      0xffffffffffffffffffffffffffffffffffffffff\n      and\n      0xffffffffffffffffffffffffffffffffffffffff\n      and\n      dup2\n      mstore\n      0x20\n      add\n      swap1\n      dup2\n      mstore\n      0x20\n      add\n      0x00\n      keccak256\n      0x00\n        /* \"contracts/exchange.sol\":8165:8204  userLiquidity[msg.sender] -= eth_amount */\n      dup3\n      dup3\n      sload\n      tag_224\n      swap2\n      swap1\n      tag_110\n      jump\t// in\n    tag_224:\n      swap3\n      pop\n      pop\n      dup2\n      swap1\n      sstore\n      pop\n        /* \"contracts/exchange.sol\":8264:8303  RemoveLiquidity(msg.sender, eth_amount) */\n      0xdfdd120ded9b7afc0c23dd5310e93aaa3e1c3b9f75af9b805fab3030842439f2\n        /* \"contracts/exchange.sol\":8280:8290  msg.sender */\n      caller\n        /* \"contracts/exchange.sol\":8292:8302  eth_amount */\n      dup4\n        /* \"contracts/exchange.sol\":8264:8303  RemoveLiquidity(msg.sender, eth_amount) */\n      mload(0x40)\n      tag_225\n      swap3\n      swap2\n      swap1\n      tag_142\n      jump\t// in\n    tag_225:\n      mload(0x40)\n      dup1\n      swap2\n      sub\n      swap1\n      log1\n        /* \"contracts/exchange.sol\":6684:8310  {... */\n      pop\n        /* \"contracts/exchange.sol\":6624:8310  function removeLiquidity(uint256 eth_amount) public payable {... */\n      pop\n      jump\t// out\n        /* \"contracts/exchange.sol\":1082:1095  uint public k */\n    tag_64:\n      sload(0x06)\n      dup2\n      jump\t// out\n        /* \"contracts/exchange.sol\":1368:1416  mapping(address => uint256) public userLiquidity */\n    tag_70:\n      mstore(0x20, 0x09)\n      dup1\n      0x00\n      mstore\n      keccak256(0x00, 0x40)\n      0x00\n      swap2\n      pop\n      swap1\n      pop\n      sload\n      dup2\n      jump\t// out\n        /* \"contracts/exchange.sol\":18540:18697  function priceETH() public view returns (uint) {... */\n    tag_74:\n        /* \"contracts/exchange.sol\":18581:18585  uint */\n      0x00\n        /* \"contracts/exchange.sol\":18620:18621  0 */\n      dup1\n        /* \"contracts/exchange.sol\":18605:18617  eth_reserves */\n      sload(0x05)\n        /* \"contracts/exchange.sol\":18605:18621  eth_reserves > 0 */\n      gt\n        /* \"contracts/exchange.sol\":18597:18644  require(eth_reserves > 0, \"No ETH in reserves\") */\n      tag_227\n      jumpi\n      mload(0x40)\n      0x08c379a000000000000000000000000000000000000000000000000000000000\n      dup2\n      mstore\n      0x04\n      add\n      tag_228\n      swap1\n      tag_229\n      jump\t// in\n    tag_228:\n      mload(0x40)\n      dup1\n      swap2\n      sub\n      swap1\n      revert\n    tag_227:\n        /* \"contracts/exchange.sol\":18676:18690  token_reserves */\n      sload(0x04)\n        /* \"contracts/exchange.sol\":18661:18673  eth_reserves */\n      sload(0x05)\n        /* \"contracts/exchange.sol\":18661:18690  eth_reserves / token_reserves */\n      tag_230\n      swap2\n      swap1\n      tag_97\n      jump\t// in\n    tag_230:\n        /* \"contracts/exchange.sol\":18654:18690  return eth_reserves / token_reserves */\n      swap1\n      pop\n        /* \"contracts/exchange.sol\":18540:18697  function priceETH() public view returns (uint) {... */\n      swap1\n      jump\t// out\n        /* \"contracts/exchange.sol\":14094:15662  function swapETHForTokens() external payable {... */\n    tag_77:\n        /* \"contracts/exchange.sol\":14970:14987  uint256 ethAmount */\n      0x00\n        /* \"contracts/exchange.sol\":14990:14999  msg.value */\n      callvalue\n        /* \"contracts/exchange.sol\":14970:14999  uint256 ethAmount = msg.value */\n      swap1\n      pop\n        /* \"contracts/exchange.sol\":15029:15030  0 */\n      0x00\n        /* \"contracts/exchange.sol\":15017:15026  ethAmount */\n      dup2\n        /* \"contracts/exchange.sol\":15017:15030  ethAmount > 0 */\n      gt\n        /* \"contracts/exchange.sol\":15009:15046  require(ethAmount > 0, \"No ETH sent\") */\n      tag_232\n      jumpi\n      mload(0x40)\n      0x08c379a000000000000000000000000000000000000000000000000000000000\n      dup2\n      mstore\n      0x04\n      add\n      tag_233\n      swap1\n      tag_234\n      jump\t// in\n    tag_233:\n      mload(0x40)\n      dup1\n      swap2\n      sub\n      swap1\n      revert\n    tag_232:\n        /* \"contracts/exchange.sol\":15113:15132  uint256 tokenAmount */\n      0x00\n        /* \"contracts/exchange.sol\":15135:15170  getTokenAmountForEthSwap(ethAmount) */\n      tag_235\n        /* \"contracts/exchange.sol\":15160:15169  ethAmount */\n      dup3\n        /* \"contracts/exchange.sol\":15135:15159  getTokenAmountForEthSwap */\n      tag_36\n        /* \"contracts/exchange.sol\":15135:15170  getTokenAmountForEthSwap(ethAmount) */\n      jump\t// in\n    tag_235:\n        /* \"contracts/exchange.sol\":15113:15170  uint256 tokenAmount = getTokenAmountForEthSwap(ethAmount) */\n      swap1\n      pop\n        /* \"contracts/exchange.sol\":15271:15285  token_reserves */\n      sload(0x04)\n        /* \"contracts/exchange.sol\":15256:15267  tokenAmount */\n      dup2\n        /* \"contracts/exchange.sol\":15256:15285  tokenAmount <= token_reserves */\n      gt\n      iszero\n        /* \"contracts/exchange.sol\":15248:15321  require(tokenAmount <= token_reserves, \"Insufficient tokens in reserves\") */\n      tag_236\n      jumpi\n      mload(0x40)\n      0x08c379a000000000000000000000000000000000000000000000000000000000\n      dup2\n      mstore\n      0x04\n      add\n      tag_237\n      swap1\n      tag_188\n      jump\t// in\n    tag_237:\n      mload(0x40)\n      dup1\n      swap2\n      sub\n      swap1\n      revert\n    tag_236:\n        /* \"contracts/exchange.sol\":15379:15388  ethAmount */\n      dup2\n        /* \"contracts/exchange.sol\":15363:15375  eth_reserves */\n      0x05\n      0x00\n        /* \"contracts/exchange.sol\":15363:15388  eth_reserves += ethAmount */\n      dup3\n      dup3\n      sload\n      tag_238\n      swap2\n      swap1\n      tag_104\n      jump\t// in\n    tag_238:\n      swap3\n      pop\n      pop\n      dup2\n      swap1\n      sstore\n      pop\n        /* \"contracts/exchange.sol\":15416:15427  tokenAmount */\n      dup1\n        /* \"contracts/exchange.sol\":15398:15412  token_reserves */\n      0x04\n      0x00\n        /* \"contracts/exchange.sol\":15398:15427  token_reserves -= tokenAmount */\n      dup3\n      dup3\n      sload\n      tag_239\n      swap2\n      swap1\n      tag_110\n      jump\t// in\n    tag_239:\n      swap3\n      pop\n      pop\n      dup2\n      swap1\n      sstore\n      pop\n        /* \"contracts/exchange.sol\":15485:15490  token */\n      0x03\n      0x00\n      swap1\n      sload\n      swap1\n      0x0100\n      exp\n      swap1\n      div\n      0xffffffffffffffffffffffffffffffffffffffff\n      and\n        /* \"contracts/exchange.sol\":15485:15499  token.transfer */\n      0xffffffffffffffffffffffffffffffffffffffff\n      and\n      0xa9059cbb\n        /* \"contracts/exchange.sol\":15500:15510  msg.sender */\n      caller\n        /* \"contracts/exchange.sol\":15512:15523  tokenAmount */\n      dup4\n        /* \"contracts/exchange.sol\":15485:15524  token.transfer(msg.sender, tokenAmount) */\n      mload(0x40)\n      dup4\n      0xffffffff\n      and\n      0xe0\n      shl\n      dup2\n      mstore\n      0x04\n      add\n      tag_240\n      swap3\n      swap2\n      swap1\n      tag_142\n      jump\t// in\n    tag_240:\n      0x20\n      mload(0x40)\n      dup1\n      dup4\n      sub\n      dup2\n      0x00\n      dup8\n      dup1\n      extcodesize\n      iszero\n      dup1\n      iszero\n      tag_241\n      jumpi\n      0x00\n      dup1\n      revert\n    tag_241:\n      pop\n      gas\n      call\n      iszero\n      dup1\n      iszero\n      tag_243\n      jumpi\n      returndatasize\n      0x00\n      dup1\n      returndatacopy\n      revert(0x00, returndatasize)\n    tag_243:\n      pop\n      pop\n      pop\n      pop\n      mload(0x40)\n      returndatasize\n      not(0x1f)\n      0x1f\n      dup3\n      add\n      and\n      dup3\n      add\n      dup1\n      0x40\n      mstore\n      pop\n      dup2\n      add\n      swap1\n      tag_244\n      swap2\n      swap1\n      tag_132\n      jump\t// in\n    tag_244:\n        /* \"contracts/exchange.sol\":15477:15550  require(token.transfer(msg.sender, tokenAmount), \"Token transfer failed\") */\n      tag_245\n      jumpi\n      mload(0x40)\n      0x08c379a000000000000000000000000000000000000000000000000000000000\n      dup2\n      mstore\n      0x04\n      add\n      tag_246\n      swap1\n      tag_135\n      jump\t// in\n    tag_246:\n      mload(0x40)\n      dup1\n      swap2\n      sub\n      swap1\n      revert\n    tag_245:\n        /* \"contracts/exchange.sol\":15639:15655  _checkRounding() */\n      tag_247\n        /* \"contracts/exchange.sol\":15639:15653  _checkRounding */\n      tag_248\n        /* \"contracts/exchange.sol\":15639:15655  _checkRounding() */\n      jump\t// in\n    tag_247:\n        /* \"contracts/exchange.sol\":14139:15662  {... */\n      pop\n      pop\n        /* \"contracts/exchange.sol\":14094:15662  function swapETHForTokens() external payable {... */\n      jump\t// out\n        /* \"contracts/exchange.sol\":11504:13256  function swapTokensForETH(uint amountTokens) external payable {... */\n    tag_80:\n        /* \"contracts/exchange.sol\":12494:12506  amountTokens */\n      dup1\n        /* \"contracts/exchange.sol\":12463:12468  token */\n      0x03\n      0x00\n      swap1\n      sload\n      swap1\n      0x0100\n      exp\n      swap1\n      div\n      0xffffffffffffffffffffffffffffffffffffffff\n      and\n        /* \"contracts/exchange.sol\":12463:12478  token.balanceOf */\n      0xffffffffffffffffffffffffffffffffffffffff\n      and\n      0x70a08231\n        /* \"contracts/exchange.sol\":12479:12489  msg.sender */\n      caller\n        /* \"contracts/exchange.sol\":12463:12490  token.balanceOf(msg.sender) */\n      mload(0x40)\n      dup3\n      0xffffffff\n      and\n      0xe0\n      shl\n      dup2\n      mstore\n      0x04\n      add\n      tag_250\n      swap2\n      swap1\n      tag_90\n      jump\t// in\n    tag_250:\n      0x20\n      mload(0x40)\n      dup1\n      dup4\n      sub\n      dup2\n      dup7\n      dup1\n      extcodesize\n      iszero\n      dup1\n      iszero\n      tag_251\n      jumpi\n      0x00\n      dup1\n      revert\n    tag_251:\n      pop\n      gas\n      staticcall\n      iszero\n      dup1\n      iszero\n      tag_253\n      jumpi\n      returndatasize\n      0x00\n      dup1\n      returndatacopy\n      revert(0x00, returndatasize)\n    tag_253:\n      pop\n      pop\n      pop\n      pop\n      mload(0x40)\n      returndatasize\n      not(0x1f)\n      0x1f\n      dup3\n      add\n      and\n      dup3\n      add\n      dup1\n      0x40\n      mstore\n      pop\n      dup2\n      add\n      swap1\n      tag_254\n      swap2\n      swap1\n      tag_255\n      jump\t// in\n    tag_254:\n        /* \"contracts/exchange.sol\":12463:12506  token.balanceOf(msg.sender) >= amountTokens */\n      lt\n      iszero\n        /* \"contracts/exchange.sol\":12455:12530  require(token.balanceOf(msg.sender) >= amountTokens, \"Insufficient tokens\") */\n      tag_256\n      jumpi\n      mload(0x40)\n      0x08c379a000000000000000000000000000000000000000000000000000000000\n      dup2\n      mstore\n      0x04\n      add\n      tag_257\n      swap1\n      tag_258\n      jump\t// in\n    tag_257:\n      mload(0x40)\n      dup1\n      swap2\n      sub\n      swap1\n      revert\n    tag_256:\n        /* \"contracts/exchange.sol\":12594:12611  uint256 ethAmount */\n      0x00\n        /* \"contracts/exchange.sol\":12614:12652  getEthAmountForTokenSwap(amountTokens) */\n      tag_259\n        /* \"contracts/exchange.sol\":12639:12651  amountTokens */\n      dup3\n        /* \"contracts/exchange.sol\":12614:12638  getEthAmountForTokenSwap */\n      tag_44\n        /* \"contracts/exchange.sol\":12614:12652  getEthAmountForTokenSwap(amountTokens) */\n      jump\t// in\n    tag_259:\n        /* \"contracts/exchange.sol\":12594:12652  uint256 ethAmount = getEthAmountForTokenSwap(amountTokens) */\n      swap1\n      pop\n        /* \"contracts/exchange.sol\":12748:12760  eth_reserves */\n      sload(0x05)\n        /* \"contracts/exchange.sol\":12735:12744  ethAmount */\n      dup2\n        /* \"contracts/exchange.sol\":12735:12760  ethAmount <= eth_reserves */\n      gt\n      iszero\n        /* \"contracts/exchange.sol\":12727:12793  require(ethAmount <= eth_reserves, \"Insufficient ETH in reserves\") */\n      tag_260\n      jumpi\n      mload(0x40)\n      0x08c379a000000000000000000000000000000000000000000000000000000000\n      dup2\n      mstore\n      0x04\n      add\n      tag_261\n      swap1\n      tag_185\n      jump\t// in\n    tag_261:\n      mload(0x40)\n      dup1\n      swap2\n      sub\n      swap1\n      revert\n    tag_260:\n        /* \"contracts/exchange.sol\":12869:12874  token */\n      0x03\n      0x00\n      swap1\n      sload\n      swap1\n      0x0100\n      exp\n      swap1\n      div\n      0xffffffffffffffffffffffffffffffffffffffff\n      and\n        /* \"contracts/exchange.sol\":12869:12887  token.transferFrom */\n      0xffffffffffffffffffffffffffffffffffffffff\n      and\n      0x23b872dd\n        /* \"contracts/exchange.sol\":12888:12898  msg.sender */\n      caller\n        /* \"contracts/exchange.sol\":12908:12912  this */\n      address\n        /* \"contracts/exchange.sol\":12915:12927  amountTokens */\n      dup6\n        /* \"contracts/exchange.sol\":12869:12928  token.transferFrom(msg.sender, address(this), amountTokens) */\n      mload(0x40)\n      dup5\n      0xffffffff\n      and\n      0xe0\n      shl\n      dup2\n      mstore\n      0x04\n      add\n      tag_262\n      swap4\n      swap3\n      swap2\n      swap1\n      tag_127\n      jump\t// in\n    tag_262:\n      0x20\n      mload(0x40)\n      dup1\n      dup4\n      sub\n      dup2\n      0x00\n      dup8\n      dup1\n      extcodesize\n      iszero\n      dup1\n      iszero\n      tag_263\n      jumpi\n      0x00\n      dup1\n      revert\n    tag_263:\n      pop\n      gas\n      call\n      iszero\n      dup1\n      iszero\n      tag_265\n      jumpi\n      returndatasize\n      0x00\n      dup1\n      returndatacopy\n      revert(0x00, returndatasize)\n    tag_265:\n      pop\n      pop\n      pop\n      pop\n      mload(0x40)\n      returndatasize\n      not(0x1f)\n      0x1f\n      dup3\n      add\n      and\n      dup3\n      add\n      dup1\n      0x40\n      mstore\n      pop\n      dup2\n      add\n      swap1\n      tag_266\n      swap2\n      swap1\n      tag_132\n      jump\t// in\n    tag_266:\n        /* \"contracts/exchange.sol\":12861:12954  require(token.transferFrom(msg.sender, address(this), amountTokens), \"Token transfer failed\") */\n      tag_267\n      jumpi\n      mload(0x40)\n      0x08c379a000000000000000000000000000000000000000000000000000000000\n      dup2\n      mstore\n      0x04\n      add\n      tag_268\n      swap1\n      tag_135\n      jump\t// in\n    tag_268:\n      mload(0x40)\n      dup1\n      swap2\n      sub\n      swap1\n      revert\n    tag_267:\n        /* \"contracts/exchange.sol\":13014:13026  amountTokens */\n      dup2\n        /* \"contracts/exchange.sol\":12996:13010  token_reserves */\n      0x04\n      0x00\n        /* \"contracts/exchange.sol\":12996:13026  token_reserves += amountTokens */\n      dup3\n      dup3\n      sload\n      tag_269\n      swap2\n      swap1\n      tag_104\n      jump\t// in\n    tag_269:\n      swap3\n      pop\n      pop\n      dup2\n      swap1\n      sstore\n      pop\n        /* \"contracts/exchange.sol\":13052:13061  ethAmount */\n      dup1\n        /* \"contracts/exchange.sol\":13036:13048  eth_reserves */\n      0x05\n      0x00\n        /* \"contracts/exchange.sol\":13036:13061  eth_reserves -= ethAmount */\n      dup3\n      dup3\n      sload\n      tag_270\n      swap2\n      swap1\n      tag_110\n      jump\t// in\n    tag_270:\n      swap3\n      pop\n      pop\n      dup2\n      swap1\n      sstore\n      pop\n        /* \"contracts/exchange.sol\":13112:13122  msg.sender */\n      caller\n        /* \"contracts/exchange.sol\":13104:13132  payable(msg.sender).transfer */\n      0xffffffffffffffffffffffffffffffffffffffff\n      and\n        /* \"contracts/exchange.sol\":13104:13143  payable(msg.sender).transfer(ethAmount) */\n      0x08fc\n        /* \"contracts/exchange.sol\":13133:13142  ethAmount */\n      dup3\n        /* \"contracts/exchange.sol\":13104:13143  payable(msg.sender).transfer(ethAmount) */\n      swap1\n      dup2\n      iszero\n      mul\n      swap1\n      mload(0x40)\n      0x00\n      mload(0x40)\n      dup1\n      dup4\n      sub\n      dup2\n      dup6\n      dup9\n      dup9\n      call\n      swap4\n      pop\n      pop\n      pop\n      pop\n      iszero\n      dup1\n      iszero\n      tag_272\n      jumpi\n      returndatasize\n      0x00\n      dup1\n      returndatacopy\n      revert(0x00, returndatasize)\n    tag_272:\n      pop\n        /* \"contracts/exchange.sol\":13233:13249  _checkRounding() */\n      tag_273\n        /* \"contracts/exchange.sol\":13233:13247  _checkRounding */\n      tag_248\n        /* \"contracts/exchange.sol\":13233:13249  _checkRounding() */\n      jump\t// in\n    tag_273:\n        /* \"contracts/exchange.sol\":11566:13256  {... */\n      pop\n        /* \"contracts/exchange.sol\":11504:13256  function swapTokensForETH(uint amountTokens) external payable {... */\n      pop\n      jump\t// out\n        /* \"contracts/exchange.sol\":3602:3870  function amountETHGivenToken(uint amountETH) public view returns (uint) {... */\n    tag_84:\n        /* \"contracts/exchange.sol\":3668:3672  uint */\n      0x00\n        /* \"contracts/exchange.sol\":3602:3870  function amountETHGivenToken(uint amountETH) public view returns (uint) {... */\n      swap2\n      swap1\n      pop\n      jump\t// out\n        /* \"contracts/exchange.sol\":705:725  address public admin */\n    tag_88:\n      0x01\n      0x00\n      swap1\n      sload\n      swap1\n      0x0100\n      exp\n      swap1\n      div\n      0xffffffffffffffffffffffffffffffffffffffff\n      and\n      dup2\n      jump\t// out\n        /* \"contracts/exchange.sol\":17903:18255  function _checkRounding() private {... */\n    tag_248:\n        /* \"contracts/exchange.sol\":17947:17957  uint check */\n      0x00\n        /* \"contracts/exchange.sol\":17977:17989  eth_reserves */\n      sload(0x05)\n        /* \"contracts/exchange.sol\":17960:17974  token_reserves */\n      sload(0x04)\n        /* \"contracts/exchange.sol\":17960:17989  token_reserves * eth_reserves */\n      tag_276\n      swap2\n      swap1\n      tag_121\n      jump\t// in\n    tag_276:\n        /* \"contracts/exchange.sol\":17947:17989  uint check = token_reserves * eth_reserves */\n      swap1\n      pop\n        /* \"contracts/exchange.sol\":18012:18013  k */\n      sload(0x06)\n        /* \"contracts/exchange.sol\":18003:18008  check */\n      dup2\n        /* \"contracts/exchange.sol\":18003:18013  check >= k */\n      lt\n        /* \"contracts/exchange.sol\":17999:18105  if (check >= k) {... */\n      tag_277\n      jumpi\n        /* \"contracts/exchange.sol\":18045:18046  k */\n      sload(0x06)\n        /* \"contracts/exchange.sol\":18037:18042  check */\n      dup2\n        /* \"contracts/exchange.sol\":18037:18046  check - k */\n      tag_278\n      swap2\n      swap1\n      tag_110\n      jump\t// in\n    tag_278:\n        /* \"contracts/exchange.sol\":18029:18046  check = check - k */\n      swap1\n      pop\n        /* \"contracts/exchange.sol\":17999:18105  if (check >= k) {... */\n      jump(tag_279)\n    tag_277:\n        /* \"contracts/exchange.sol\":18089:18094  check */\n      dup1\n        /* \"contracts/exchange.sol\":18085:18086  k */\n      sload(0x06)\n        /* \"contracts/exchange.sol\":18085:18094  k - check */\n      tag_280\n      swap2\n      swap1\n      tag_110\n      jump\t// in\n    tag_280:\n        /* \"contracts/exchange.sol\":18077:18094  check = k - check */\n      swap1\n      pop\n        /* \"contracts/exchange.sol\":17999:18105  if (check >= k) {... */\n    tag_279:\n        /* \"contracts/exchange.sol\":18162:18163  1 */\n      0x01\n        /* \"contracts/exchange.sol\":18147:18159  eth_reserves */\n      sload(0x05)\n        /* \"contracts/exchange.sol\":18130:18144  token_reserves */\n      sload(0x04)\n        /* \"contracts/exchange.sol\":18130:18159  token_reserves + eth_reserves */\n      tag_281\n      swap2\n      swap1\n      tag_104\n      jump\t// in\n    tag_281:\n        /* \"contracts/exchange.sol\":18130:18163  token_reserves + eth_reserves + 1 */\n      tag_282\n      swap2\n      swap1\n      tag_104\n      jump\t// in\n    tag_282:\n        /* \"contracts/exchange.sol\":18121:18126  check */\n      dup2\n        /* \"contracts/exchange.sol\":18121:18164  check < (token_reserves + eth_reserves + 1) */\n      lt\n        /* \"contracts/exchange.sol\":18114:18165  assert(check < (token_reserves + eth_reserves + 1)) */\n      tag_283\n      jumpi\n      tag_284\n      tag_285\n      jump\t// in\n    tag_284:\n    tag_283:\n        /* \"contracts/exchange.sol\":18196:18208  eth_reserves */\n      sload(0x05)\n        /* \"contracts/exchange.sol\":18179:18193  token_reserves */\n      sload(0x04)\n        /* \"contracts/exchange.sol\":18179:18208  token_reserves * eth_reserves */\n      tag_286\n      swap2\n      swap1\n      tag_121\n      jump\t// in\n    tag_286:\n        /* \"contracts/exchange.sol\":18175:18176  k */\n      0x06\n        /* \"contracts/exchange.sol\":18175:18208  k = token_reserves * eth_reserves */\n      dup2\n      swap1\n      sstore\n      pop\n        /* \"contracts/exchange.sol\":17937:18255  {... */\n      pop\n        /* \"contracts/exchange.sol\":17903:18255  function _checkRounding() private {... */\n      jump\t// out\n        /* \"#utility.yul\":7:146   */\n    tag_288:\n        /* \"#utility.yul\":53:58   */\n      0x00\n        /* \"#utility.yul\":91:97   */\n      dup2\n        /* \"#utility.yul\":78:98   */\n      calldataload\n        /* \"#utility.yul\":69:98   */\n      swap1\n      pop\n        /* \"#utility.yul\":107:140   */\n      tag_290\n        /* \"#utility.yul\":134:139   */\n      dup2\n        /* \"#utility.yul\":107:140   */\n      tag_291\n      jump\t// in\n    tag_290:\n        /* \"#utility.yul\":7:146   */\n      swap3\n      swap2\n      pop\n      pop\n      jump\t// out\n        /* \"#utility.yul\":152:289   */\n    tag_292:\n        /* \"#utility.yul\":206:211   */\n      0x00\n        /* \"#utility.yul\":237:243   */\n      dup2\n        /* \"#utility.yul\":231:244   */\n      mload\n        /* \"#utility.yul\":222:244   */\n      swap1\n      pop\n        /* \"#utility.yul\":253:283   */\n      tag_294\n        /* \"#utility.yul\":277:282   */\n      dup2\n        /* \"#utility.yul\":253:283   */\n      tag_295\n      jump\t// in\n    tag_294:\n        /* \"#utility.yul\":152:289   */\n      swap3\n      swap2\n      pop\n      pop\n      jump\t// out\n        /* \"#utility.yul\":295:434   */\n    tag_296:\n        /* \"#utility.yul\":341:346   */\n      0x00\n        /* \"#utility.yul\":379:385   */\n      dup2\n        /* \"#utility.yul\":366:386   */\n      calldataload\n        /* \"#utility.yul\":357:386   */\n      swap1\n      pop\n        /* \"#utility.yul\":395:428   */\n      tag_298\n        /* \"#utility.yul\":422:427   */\n      dup2\n        /* \"#utility.yul\":395:428   */\n      tag_299\n      jump\t// in\n    tag_298:\n        /* \"#utility.yul\":295:434   */\n      swap3\n      swap2\n      pop\n      pop\n      jump\t// out\n        /* \"#utility.yul\":440:583   */\n    tag_300:\n        /* \"#utility.yul\":497:502   */\n      0x00\n        /* \"#utility.yul\":528:534   */\n      dup2\n        /* \"#utility.yul\":522:535   */\n      mload\n        /* \"#utility.yul\":513:535   */\n      swap1\n      pop\n        /* \"#utility.yul\":544:577   */\n      tag_302\n        /* \"#utility.yul\":571:576   */\n      dup2\n        /* \"#utility.yul\":544:577   */\n      tag_299\n      jump\t// in\n    tag_302:\n        /* \"#utility.yul\":440:583   */\n      swap3\n      swap2\n      pop\n      pop\n      jump\t// out\n        /* \"#utility.yul\":589:918   */\n    tag_69:\n        /* \"#utility.yul\":648:654   */\n      0x00\n        /* \"#utility.yul\":697:699   */\n      0x20\n        /* \"#utility.yul\":685:694   */\n      dup3\n        /* \"#utility.yul\":676:683   */\n      dup5\n        /* \"#utility.yul\":672:695   */\n      sub\n        /* \"#utility.yul\":668:700   */\n      slt\n        /* \"#utility.yul\":665:784   */\n      iszero\n      tag_304\n      jumpi\n        /* \"#utility.yul\":703:782   */\n      tag_305\n      tag_306\n      jump\t// in\n    tag_305:\n        /* \"#utility.yul\":665:784   */\n    tag_304:\n        /* \"#utility.yul\":823:824   */\n      0x00\n        /* \"#utility.yul\":848:901   */\n      tag_307\n        /* \"#utility.yul\":893:900   */\n      dup5\n        /* \"#utility.yul\":884:890   */\n      dup3\n        /* \"#utility.yul\":873:882   */\n      dup6\n        /* \"#utility.yul\":869:891   */\n      add\n        /* \"#utility.yul\":848:901   */\n      tag_288\n      jump\t// in\n    tag_307:\n        /* \"#utility.yul\":838:901   */\n      swap2\n      pop\n        /* \"#utility.yul\":794:911   */\n      pop\n        /* \"#utility.yul\":589:918   */\n      swap3\n      swap2\n      pop\n      pop\n      jump\t// out\n        /* \"#utility.yul\":924:1269   */\n    tag_132:\n        /* \"#utility.yul\":991:997   */\n      0x00\n        /* \"#utility.yul\":1040:1042   */\n      0x20\n        /* \"#utility.yul\":1028:1037   */\n      dup3\n        /* \"#utility.yul\":1019:1026   */\n      dup5\n        /* \"#utility.yul\":1015:1038   */\n      sub\n        /* \"#utility.yul\":1011:1043   */\n      slt\n        /* \"#utility.yul\":1008:1127   */\n      iszero\n      tag_309\n      jumpi\n        /* \"#utility.yul\":1046:1125   */\n      tag_310\n      tag_306\n      jump\t// in\n    tag_310:\n        /* \"#utility.yul\":1008:1127   */\n    tag_309:\n        /* \"#utility.yul\":1166:1167   */\n      0x00\n        /* \"#utility.yul\":1191:1252   */\n      tag_311\n        /* \"#utility.yul\":1244:1251   */\n      dup5\n        /* \"#utility.yul\":1235:1241   */\n      dup3\n        /* \"#utility.yul\":1224:1233   */\n      dup6\n        /* \"#utility.yul\":1220:1242   */\n      add\n        /* \"#utility.yul\":1191:1252   */\n      tag_292\n      jump\t// in\n    tag_311:\n        /* \"#utility.yul\":1181:1252   */\n      swap2\n      pop\n        /* \"#utility.yul\":1137:1262   */\n      pop\n        /* \"#utility.yul\":924:1269   */\n      swap3\n      swap2\n      pop\n      pop\n      jump\t// out\n        /* \"#utility.yul\":1275:1604   */\n    tag_25:\n        /* \"#utility.yul\":1334:1340   */\n      0x00\n        /* \"#utility.yul\":1383:1385   */\n      0x20\n        /* \"#utility.yul\":1371:1380   */\n      dup3\n        /* \"#utility.yul\":1362:1369   */\n      dup5\n        /* \"#utility.yul\":1358:1381   */\n      sub\n        /* \"#utility.yul\":1354:1386   */\n      slt\n        /* \"#utility.yul\":1351:1470   */\n      iszero\n      tag_313\n      jumpi\n        /* \"#utility.yul\":1389:1468   */\n      tag_314\n      tag_306\n      jump\t// in\n    tag_314:\n        /* \"#utility.yul\":1351:1470   */\n    tag_313:\n        /* \"#utility.yul\":1509:1510   */\n      0x00\n        /* \"#utility.yul\":1534:1587   */\n      tag_315\n        /* \"#utility.yul\":1579:1586   */\n      dup5\n        /* \"#utility.yul\":1570:1576   */\n      dup3\n        /* \"#utility.yul\":1559:1568   */\n      dup6\n        /* \"#utility.yul\":1555:1577   */\n      add\n        /* \"#utility.yul\":1534:1587   */\n      tag_296\n      jump\t// in\n    tag_315:\n        /* \"#utility.yul\":1524:1587   */\n      swap2\n      pop\n        /* \"#utility.yul\":1480:1597   */\n      pop\n        /* \"#utility.yul\":1275:1604   */\n      swap3\n      swap2\n      pop\n      pop\n      jump\t// out\n        /* \"#utility.yul\":1610:1961   */\n    tag_255:\n        /* \"#utility.yul\":1680:1686   */\n      0x00\n        /* \"#utility.yul\":1729:1731   */\n      0x20\n        /* \"#utility.yul\":1717:1726   */\n      dup3\n        /* \"#utility.yul\":1708:1715   */\n      dup5\n        /* \"#utility.yul\":1704:1727   */\n      sub\n        /* \"#utility.yul\":1700:1732   */\n      slt\n        /* \"#utility.yul\":1697:1816   */\n      iszero\n      tag_317\n      jumpi\n        /* \"#utility.yul\":1735:1814   */\n      tag_318\n      tag_306\n      jump\t// in\n    tag_318:\n        /* \"#utility.yul\":1697:1816   */\n    tag_317:\n        /* \"#utility.yul\":1855:1856   */\n      0x00\n        /* \"#utility.yul\":1880:1944   */\n      tag_319\n        /* \"#utility.yul\":1936:1943   */\n      dup5\n        /* \"#utility.yul\":1927:1933   */\n      dup3\n        /* \"#utility.yul\":1916:1925   */\n      dup6\n        /* \"#utility.yul\":1912:1934   */\n      add\n        /* \"#utility.yul\":1880:1944   */\n      tag_300\n      jump\t// in\n    tag_319:\n        /* \"#utility.yul\":1870:1944   */\n      swap2\n      pop\n        /* \"#utility.yul\":1826:1954   */\n      pop\n        /* \"#utility.yul\":1610:1961   */\n      swap3\n      swap2\n      pop\n      pop\n      jump\t// out\n        /* \"#utility.yul\":1967:2085   */\n    tag_320:\n        /* \"#utility.yul\":2054:2078   */\n      tag_322\n        /* \"#utility.yul\":2072:2077   */\n      dup2\n        /* \"#utility.yul\":2054:2078   */\n      tag_323\n      jump\t// in\n    tag_322:\n        /* \"#utility.yul\":2049:2052   */\n      dup3\n        /* \"#utility.yul\":2042:2079   */\n      mstore\n        /* \"#utility.yul\":1967:2085   */\n      pop\n      pop\n      jump\t// out\n        /* \"#utility.yul\":2091:2457   */\n    tag_324:\n        /* \"#utility.yul\":2233:2236   */\n      0x00\n        /* \"#utility.yul\":2254:2321   */\n      tag_326\n        /* \"#utility.yul\":2318:2320   */\n      0x15\n        /* \"#utility.yul\":2313:2316   */\n      dup4\n        /* \"#utility.yul\":2254:2321   */\n      tag_327\n      jump\t// in\n    tag_326:\n        /* \"#utility.yul\":2247:2321   */\n      swap2\n      pop\n        /* \"#utility.yul\":2330:2423   */\n      tag_328\n        /* \"#utility.yul\":2419:2422   */\n      dup3\n        /* \"#utility.yul\":2330:2423   */\n      tag_329\n      jump\t// in\n    tag_328:\n        /* \"#utility.yul\":2448:2450   */\n      0x20\n        /* \"#utility.yul\":2443:2446   */\n      dup3\n        /* \"#utility.yul\":2439:2451   */\n      add\n        /* \"#utility.yul\":2432:2451   */\n      swap1\n      pop\n        /* \"#utility.yul\":2091:2457   */\n      swap2\n      swap1\n      pop\n      jump\t// out\n        /* \"#utility.yul\":2463:2829   */\n    tag_330:\n        /* \"#utility.yul\":2605:2608   */\n      0x00\n        /* \"#utility.yul\":2626:2693   */\n      tag_332\n        /* \"#utility.yul\":2690:2692   */\n      0x18\n        /* \"#utility.yul\":2685:2688   */\n      dup4\n        /* \"#utility.yul\":2626:2693   */\n      tag_327\n      jump\t// in\n    tag_332:\n        /* \"#utility.yul\":2619:2693   */\n      swap2\n      pop\n        /* \"#utility.yul\":2702:2795   */\n      tag_333\n        /* \"#utility.yul\":2791:2794   */\n      dup3\n        /* \"#utility.yul\":2702:2795   */\n      tag_334\n      jump\t// in\n    tag_333:\n        /* \"#utility.yul\":2820:2822   */\n      0x20\n        /* \"#utility.yul\":2815:2818   */\n      dup3\n        /* \"#utility.yul\":2811:2823   */\n      add\n        /* \"#utility.yul\":2804:2823   */\n      swap1\n      pop\n        /* \"#utility.yul\":2463:2829   */\n      swap2\n      swap1\n      pop\n      jump\t// out\n        /* \"#utility.yul\":2835:3201   */\n    tag_335:\n        /* \"#utility.yul\":2977:2980   */\n      0x00\n        /* \"#utility.yul\":2998:3065   */\n      tag_337\n        /* \"#utility.yul\":3062:3064   */\n      0x1b\n        /* \"#utility.yul\":3057:3060   */\n      dup4\n        /* \"#utility.yul\":2998:3065   */\n      tag_327\n      jump\t// in\n    tag_337:\n        /* \"#utility.yul\":2991:3065   */\n      swap2\n      pop\n        /* \"#utility.yul\":3074:3167   */\n      tag_338\n        /* \"#utility.yul\":3163:3166   */\n      dup3\n        /* \"#utility.yul\":3074:3167   */\n      tag_339\n      jump\t// in\n    tag_338:\n        /* \"#utility.yul\":3192:3194   */\n      0x20\n        /* \"#utility.yul\":3187:3190   */\n      dup3\n        /* \"#utility.yul\":3183:3195   */\n      add\n        /* \"#utility.yul\":3176:3195   */\n      swap1\n      pop\n        /* \"#utility.yul\":2835:3201   */\n      swap2\n      swap1\n      pop\n      jump\t// out\n        /* \"#utility.yul\":3207:3573   */\n    tag_340:\n        /* \"#utility.yul\":3349:3352   */\n      0x00\n        /* \"#utility.yul\":3370:3437   */\n      tag_342\n        /* \"#utility.yul\":3434:3436   */\n      0x12\n        /* \"#utility.yul\":3429:3432   */\n      dup4\n        /* \"#utility.yul\":3370:3437   */\n      tag_327\n      jump\t// in\n    tag_342:\n        /* \"#utility.yul\":3363:3437   */\n      swap2\n      pop\n        /* \"#utility.yul\":3446:3539   */\n      tag_343\n        /* \"#utility.yul\":3535:3538   */\n      dup3\n        /* \"#utility.yul\":3446:3539   */\n      tag_344\n      jump\t// in\n    tag_343:\n        /* \"#utility.yul\":3564:3566   */\n      0x20\n        /* \"#utility.yul\":3559:3562   */\n      dup3\n        /* \"#utility.yul\":3555:3567   */\n      add\n        /* \"#utility.yul\":3548:3567   */\n      swap1\n      pop\n        /* \"#utility.yul\":3207:3573   */\n      swap2\n      swap1\n      pop\n      jump\t// out\n        /* \"#utility.yul\":3579:3945   */\n    tag_345:\n        /* \"#utility.yul\":3721:3724   */\n      0x00\n        /* \"#utility.yul\":3742:3809   */\n      tag_347\n        /* \"#utility.yul\":3806:3808   */\n      0x1c\n        /* \"#utility.yul\":3801:3804   */\n      dup4\n        /* \"#utility.yul\":3742:3809   */\n      tag_327\n      jump\t// in\n    tag_347:\n        /* \"#utility.yul\":3735:3809   */\n      swap2\n      pop\n        /* \"#utility.yul\":3818:3911   */\n      tag_348\n        /* \"#utility.yul\":3907:3910   */\n      dup3\n        /* \"#utility.yul\":3818:3911   */\n      tag_349\n      jump\t// in\n    tag_348:\n        /* \"#utility.yul\":3936:3938   */\n      0x20\n        /* \"#utility.yul\":3931:3934   */\n      dup3\n        /* \"#utility.yul\":3927:3939   */\n      add\n        /* \"#utility.yul\":3920:3939   */\n      swap1\n      pop\n        /* \"#utility.yul\":3579:3945   */\n      swap2\n      swap1\n      pop\n      jump\t// out\n        /* \"#utility.yul\":3951:4317   */\n    tag_350:\n        /* \"#utility.yul\":4093:4096   */\n      0x00\n        /* \"#utility.yul\":4114:4181   */\n      tag_352\n        /* \"#utility.yul\":4178:4180   */\n      0x0c\n        /* \"#utility.yul\":4173:4176   */\n      dup4\n        /* \"#utility.yul\":4114:4181   */\n      tag_327\n      jump\t// in\n    tag_352:\n        /* \"#utility.yul\":4107:4181   */\n      swap2\n      pop\n        /* \"#utility.yul\":4190:4283   */\n      tag_353\n        /* \"#utility.yul\":4279:4282   */\n      dup3\n        /* \"#utility.yul\":4190:4283   */\n      tag_354\n      jump\t// in\n    tag_353:\n        /* \"#utility.yul\":4308:4310   */\n      0x20\n        /* \"#utility.yul\":4303:4306   */\n      dup3\n        /* \"#utility.yul\":4299:4311   */\n      add\n        /* \"#utility.yul\":4292:4311   */\n      swap1\n      pop\n        /* \"#utility.yul\":3951:4317   */\n      swap2\n      swap1\n      pop\n      jump\t// out\n        /* \"#utility.yul\":4323:4689   */\n    tag_355:\n        /* \"#utility.yul\":4465:4468   */\n      0x00\n        /* \"#utility.yul\":4486:4553   */\n      tag_357\n        /* \"#utility.yul\":4550:4552   */\n      0x1e\n        /* \"#utility.yul\":4545:4548   */\n      dup4\n        /* \"#utility.yul\":4486:4553   */\n      tag_327\n      jump\t// in\n    tag_357:\n        /* \"#utility.yul\":4479:4553   */\n      swap2\n      pop\n        /* \"#utility.yul\":4562:4655   */\n      tag_358\n        /* \"#utility.yul\":4651:4654   */\n      dup3\n        /* \"#utility.yul\":4562:4655   */\n      tag_359\n      jump\t// in\n    tag_358:\n        /* \"#utility.yul\":4680:4682   */\n      0x20\n        /* \"#utility.yul\":4675:4678   */\n      dup3\n        /* \"#utility.yul\":4671:4683   */\n      add\n        /* \"#utility.yul\":4664:4683   */\n      swap1\n      pop\n        /* \"#utility.yul\":4323:4689   */\n      swap2\n      swap1\n      pop\n      jump\t// out\n        /* \"#utility.yul\":4695:5061   */\n    tag_360:\n        /* \"#utility.yul\":4837:4840   */\n      0x00\n        /* \"#utility.yul\":4858:4925   */\n      tag_362\n        /* \"#utility.yul\":4922:4924   */\n      0x18\n        /* \"#utility.yul\":4917:4920   */\n      dup4\n        /* \"#utility.yul\":4858:4925   */\n      tag_327\n      jump\t// in\n    tag_362:\n        /* \"#utility.yul\":4851:4925   */\n      swap2\n      pop\n        /* \"#utility.yul\":4934:5027   */\n      tag_363\n        /* \"#utility.yul\":5023:5026   */\n      dup3\n        /* \"#utility.yul\":4934:5027   */\n      tag_364\n      jump\t// in\n    tag_363:\n        /* \"#utility.yul\":5052:5054   */\n      0x20\n        /* \"#utility.yul\":5047:5050   */\n      dup3\n        /* \"#utility.yul\":5043:5055   */\n      add\n        /* \"#utility.yul\":5036:5055   */\n      swap1\n      pop\n        /* \"#utility.yul\":4695:5061   */\n      swap2\n      swap1\n      pop\n      jump\t// out\n        /* \"#utility.yul\":5067:5433   */\n    tag_365:\n        /* \"#utility.yul\":5209:5212   */\n      0x00\n        /* \"#utility.yul\":5230:5297   */\n      tag_367\n        /* \"#utility.yul\":5294:5296   */\n      0x1e\n        /* \"#utility.yul\":5289:5292   */\n      dup4\n        /* \"#utility.yul\":5230:5297   */\n      tag_327\n      jump\t// in\n    tag_367:\n        /* \"#utility.yul\":5223:5297   */\n      swap2\n      pop\n        /* \"#utility.yul\":5306:5399   */\n      tag_368\n        /* \"#utility.yul\":5395:5398   */\n      dup3\n        /* \"#utility.yul\":5306:5399   */\n      tag_369\n      jump\t// in\n    tag_368:\n        /* \"#utility.yul\":5424:5426   */\n      0x20\n        /* \"#utility.yul\":5419:5422   */\n      dup3\n        /* \"#utility.yul\":5415:5427   */\n      add\n        /* \"#utility.yul\":5408:5427   */\n      swap1\n      pop\n        /* \"#utility.yul\":5067:5433   */\n      swap2\n      swap1\n      pop\n      jump\t// out\n        /* \"#utility.yul\":5439:5805   */\n    tag_370:\n        /* \"#utility.yul\":5581:5584   */\n      0x00\n        /* \"#utility.yul\":5602:5669   */\n      tag_372\n        /* \"#utility.yul\":5666:5668   */\n      0x1c\n        /* \"#utility.yul\":5661:5664   */\n      dup4\n        /* \"#utility.yul\":5602:5669   */\n      tag_327\n      jump\t// in\n    tag_372:\n        /* \"#utility.yul\":5595:5669   */\n      swap2\n      pop\n        /* \"#utility.yul\":5678:5771   */\n      tag_373\n        /* \"#utility.yul\":5767:5770   */\n      dup3\n        /* \"#utility.yul\":5678:5771   */\n      tag_374\n      jump\t// in\n    tag_373:\n        /* \"#utility.yul\":5796:5798   */\n      0x20\n        /* \"#utility.yul\":5791:5794   */\n      dup3\n        /* \"#utility.yul\":5787:5799   */\n      add\n        /* \"#utility.yul\":5780:5799   */\n      swap1\n      pop\n        /* \"#utility.yul\":5439:5805   */\n      swap2\n      swap1\n      pop\n      jump\t// out\n        /* \"#utility.yul\":5811:6177   */\n    tag_375:\n        /* \"#utility.yul\":5953:5956   */\n      0x00\n        /* \"#utility.yul\":5974:6041   */\n      tag_377\n        /* \"#utility.yul\":6038:6040   */\n      0x15\n        /* \"#utility.yul\":6033:6036   */\n      dup4\n        /* \"#utility.yul\":5974:6041   */\n      tag_327\n      jump\t// in\n    tag_377:\n        /* \"#utility.yul\":5967:6041   */\n      swap2\n      pop\n        /* \"#utility.yul\":6050:6143   */\n      tag_378\n        /* \"#utility.yul\":6139:6142   */\n      dup3\n        /* \"#utility.yul\":6050:6143   */\n      tag_379\n      jump\t// in\n    tag_378:\n        /* \"#utility.yul\":6168:6170   */\n      0x20\n        /* \"#utility.yul\":6163:6166   */\n      dup3\n        /* \"#utility.yul\":6159:6171   */\n      add\n        /* \"#utility.yul\":6152:6171   */\n      swap1\n      pop\n        /* \"#utility.yul\":5811:6177   */\n      swap2\n      swap1\n      pop\n      jump\t// out\n        /* \"#utility.yul\":6183:6549   */\n    tag_380:\n        /* \"#utility.yul\":6325:6328   */\n      0x00\n        /* \"#utility.yul\":6346:6413   */\n      tag_382\n        /* \"#utility.yul\":6410:6412   */\n      0x12\n        /* \"#utility.yul\":6405:6408   */\n      dup4\n        /* \"#utility.yul\":6346:6413   */\n      tag_327\n      jump\t// in\n    tag_382:\n        /* \"#utility.yul\":6339:6413   */\n      swap2\n      pop\n        /* \"#utility.yul\":6422:6515   */\n      tag_383\n        /* \"#utility.yul\":6511:6514   */\n      dup3\n        /* \"#utility.yul\":6422:6515   */\n      tag_384\n      jump\t// in\n    tag_383:\n        /* \"#utility.yul\":6540:6542   */\n      0x20\n        /* \"#utility.yul\":6535:6538   */\n      dup3\n        /* \"#utility.yul\":6531:6543   */\n      add\n        /* \"#utility.yul\":6524:6543   */\n      swap1\n      pop\n        /* \"#utility.yul\":6183:6549   */\n      swap2\n      swap1\n      pop\n      jump\t// out\n        /* \"#utility.yul\":6555:6921   */\n    tag_385:\n        /* \"#utility.yul\":6697:6700   */\n      0x00\n        /* \"#utility.yul\":6718:6785   */\n      tag_387\n        /* \"#utility.yul\":6782:6784   */\n      0x0b\n        /* \"#utility.yul\":6777:6780   */\n      dup4\n        /* \"#utility.yul\":6718:6785   */\n      tag_327\n      jump\t// in\n    tag_387:\n        /* \"#utility.yul\":6711:6785   */\n      swap2\n      pop\n        /* \"#utility.yul\":6794:6887   */\n      tag_388\n        /* \"#utility.yul\":6883:6886   */\n      dup3\n        /* \"#utility.yul\":6794:6887   */\n      tag_389\n      jump\t// in\n    tag_388:\n        /* \"#utility.yul\":6912:6914   */\n      0x20\n        /* \"#utility.yul\":6907:6910   */\n      dup3\n        /* \"#utility.yul\":6903:6915   */\n      add\n        /* \"#utility.yul\":6896:6915   */\n      swap1\n      pop\n        /* \"#utility.yul\":6555:6921   */\n      swap2\n      swap1\n      pop\n      jump\t// out\n        /* \"#utility.yul\":6927:7293   */\n    tag_390:\n        /* \"#utility.yul\":7069:7072   */\n      0x00\n        /* \"#utility.yul\":7090:7157   */\n      tag_392\n        /* \"#utility.yul\":7154:7156   */\n      0x20\n        /* \"#utility.yul\":7149:7152   */\n      dup4\n        /* \"#utility.yul\":7090:7157   */\n      tag_327\n      jump\t// in\n    tag_392:\n        /* \"#utility.yul\":7083:7157   */\n      swap2\n      pop\n        /* \"#utility.yul\":7166:7259   */\n      tag_393\n        /* \"#utility.yul\":7255:7258   */\n      dup3\n        /* \"#utility.yul\":7166:7259   */\n      tag_394\n      jump\t// in\n    tag_393:\n        /* \"#utility.yul\":7284:7286   */\n      0x20\n        /* \"#utility.yul\":7279:7282   */\n      dup3\n        /* \"#utility.yul\":7275:7287   */\n      add\n        /* \"#utility.yul\":7268:7287   */\n      swap1\n      pop\n        /* \"#utility.yul\":6927:7293   */\n      swap2\n      swap1\n      pop\n      jump\t// out\n        /* \"#utility.yul\":7299:7665   */\n    tag_395:\n        /* \"#utility.yul\":7441:7444   */\n      0x00\n        /* \"#utility.yul\":7462:7529   */\n      tag_397\n        /* \"#utility.yul\":7526:7528   */\n      0x16\n        /* \"#utility.yul\":7521:7524   */\n      dup4\n        /* \"#utility.yul\":7462:7529   */\n      tag_327\n      jump\t// in\n    tag_397:\n        /* \"#utility.yul\":7455:7529   */\n      swap2\n      pop\n        /* \"#utility.yul\":7538:7631   */\n      tag_398\n        /* \"#utility.yul\":7627:7630   */\n      dup3\n        /* \"#utility.yul\":7538:7631   */\n      tag_399\n      jump\t// in\n    tag_398:\n        /* \"#utility.yul\":7656:7658   */\n      0x20\n        /* \"#utility.yul\":7651:7654   */\n      dup3\n        /* \"#utility.yul\":7647:7659   */\n      add\n        /* \"#utility.yul\":7640:7659   */\n      swap1\n      pop\n        /* \"#utility.yul\":7299:7665   */\n      swap2\n      swap1\n      pop\n      jump\t// out\n        /* \"#utility.yul\":7671:8037   */\n    tag_400:\n        /* \"#utility.yul\":7813:7816   */\n      0x00\n        /* \"#utility.yul\":7834:7901   */\n      tag_402\n        /* \"#utility.yul\":7898:7900   */\n      0x21\n        /* \"#utility.yul\":7893:7896   */\n      dup4\n        /* \"#utility.yul\":7834:7901   */\n      tag_327\n      jump\t// in\n    tag_402:\n        /* \"#utility.yul\":7827:7901   */\n      swap2\n      pop\n        /* \"#utility.yul\":7910:8003   */\n      tag_403\n        /* \"#utility.yul\":7999:8002   */\n      dup3\n        /* \"#utility.yul\":7910:8003   */\n      tag_404\n      jump\t// in\n    tag_403:\n        /* \"#utility.yul\":8028:8030   */\n      0x40\n        /* \"#utility.yul\":8023:8026   */\n      dup3\n        /* \"#utility.yul\":8019:8031   */\n      add\n        /* \"#utility.yul\":8012:8031   */\n      swap1\n      pop\n        /* \"#utility.yul\":7671:8037   */\n      swap2\n      swap1\n      pop\n      jump\t// out\n        /* \"#utility.yul\":8043:8409   */\n    tag_405:\n        /* \"#utility.yul\":8185:8188   */\n      0x00\n        /* \"#utility.yul\":8206:8273   */\n      tag_407\n        /* \"#utility.yul\":8270:8272   */\n      0x1f\n        /* \"#utility.yul\":8265:8268   */\n      dup4\n        /* \"#utility.yul\":8206:8273   */\n      tag_327\n      jump\t// in\n    tag_407:\n        /* \"#utility.yul\":8199:8273   */\n      swap2\n      pop\n        /* \"#utility.yul\":8282:8375   */\n      tag_408\n        /* \"#utility.yul\":8371:8374   */\n      dup3\n        /* \"#utility.yul\":8282:8375   */\n      tag_409\n      jump\t// in\n    tag_408:\n        /* \"#utility.yul\":8400:8402   */\n      0x20\n        /* \"#utility.yul\":8395:8398   */\n      dup3\n        /* \"#utility.yul\":8391:8403   */\n      add\n        /* \"#utility.yul\":8384:8403   */\n      swap1\n      pop\n        /* \"#utility.yul\":8043:8409   */\n      swap2\n      swap1\n      pop\n      jump\t// out\n        /* \"#utility.yul\":8415:8781   */\n    tag_410:\n        /* \"#utility.yul\":8557:8560   */\n      0x00\n        /* \"#utility.yul\":8578:8645   */\n      tag_412\n        /* \"#utility.yul\":8642:8644   */\n      0x17\n        /* \"#utility.yul\":8637:8640   */\n      dup4\n        /* \"#utility.yul\":8578:8645   */\n      tag_327\n      jump\t// in\n    tag_412:\n        /* \"#utility.yul\":8571:8645   */\n      swap2\n      pop\n        /* \"#utility.yul\":8654:8747   */\n      tag_413\n        /* \"#utility.yul\":8743:8746   */\n      dup3\n        /* \"#utility.yul\":8654:8747   */\n      tag_414\n      jump\t// in\n    tag_413:\n        /* \"#utility.yul\":8772:8774   */\n      0x20\n        /* \"#utility.yul\":8767:8770   */\n      dup3\n        /* \"#utility.yul\":8763:8775   */\n      add\n        /* \"#utility.yul\":8756:8775   */\n      swap1\n      pop\n        /* \"#utility.yul\":8415:8781   */\n      swap2\n      swap1\n      pop\n      jump\t// out\n        /* \"#utility.yul\":8787:9153   */\n    tag_415:\n        /* \"#utility.yul\":8929:8932   */\n      0x00\n        /* \"#utility.yul\":8950:9017   */\n      tag_417\n        /* \"#utility.yul\":9014:9016   */\n      0x13\n        /* \"#utility.yul\":9009:9012   */\n      dup4\n        /* \"#utility.yul\":8950:9017   */\n      tag_327\n      jump\t// in\n    tag_417:\n        /* \"#utility.yul\":8943:9017   */\n      swap2\n      pop\n        /* \"#utility.yul\":9026:9119   */\n      tag_418\n        /* \"#utility.yul\":9115:9118   */\n      dup3\n        /* \"#utility.yul\":9026:9119   */\n      tag_419\n      jump\t// in\n    tag_418:\n        /* \"#utility.yul\":9144:9146   */\n      0x20\n        /* \"#utility.yul\":9139:9142   */\n      dup3\n        /* \"#utility.yul\":9135:9147   */\n      add\n        /* \"#utility.yul\":9128:9147   */\n      swap1\n      pop\n        /* \"#utility.yul\":8787:9153   */\n      swap2\n      swap1\n      pop\n      jump\t// out\n        /* \"#utility.yul\":9159:9277   */\n    tag_420:\n        /* \"#utility.yul\":9246:9270   */\n      tag_422\n        /* \"#utility.yul\":9264:9269   */\n      dup2\n        /* \"#utility.yul\":9246:9270   */\n      tag_423\n      jump\t// in\n    tag_422:\n        /* \"#utility.yul\":9241:9244   */\n      dup3\n        /* \"#utility.yul\":9234:9271   */\n      mstore\n        /* \"#utility.yul\":9159:9277   */\n      pop\n      pop\n      jump\t// out\n        /* \"#utility.yul\":9283:9505   */\n    tag_90:\n        /* \"#utility.yul\":9376:9380   */\n      0x00\n        /* \"#utility.yul\":9414:9416   */\n      0x20\n        /* \"#utility.yul\":9403:9412   */\n      dup3\n        /* \"#utility.yul\":9399:9417   */\n      add\n        /* \"#utility.yul\":9391:9417   */\n      swap1\n      pop\n        /* \"#utility.yul\":9427:9498   */\n      tag_425\n        /* \"#utility.yul\":9495:9496   */\n      0x00\n        /* \"#utility.yul\":9484:9493   */\n      dup4\n        /* \"#utility.yul\":9480:9497   */\n      add\n        /* \"#utility.yul\":9471:9477   */\n      dup5\n        /* \"#utility.yul\":9427:9498   */\n      tag_320\n      jump\t// in\n    tag_425:\n        /* \"#utility.yul\":9283:9505   */\n      swap3\n      swap2\n      pop\n      pop\n      jump\t// out\n        /* \"#utility.yul\":9511:9953   */\n    tag_127:\n        /* \"#utility.yul\":9660:9664   */\n      0x00\n        /* \"#utility.yul\":9698:9700   */\n      0x60\n        /* \"#utility.yul\":9687:9696   */\n      dup3\n        /* \"#utility.yul\":9683:9701   */\n      add\n        /* \"#utility.yul\":9675:9701   */\n      swap1\n      pop\n        /* \"#utility.yul\":9711:9782   */\n      tag_427\n        /* \"#utility.yul\":9779:9780   */\n      0x00\n        /* \"#utility.yul\":9768:9777   */\n      dup4\n        /* \"#utility.yul\":9764:9781   */\n      add\n        /* \"#utility.yul\":9755:9761   */\n      dup7\n        /* \"#utility.yul\":9711:9782   */\n      tag_320\n      jump\t// in\n    tag_427:\n        /* \"#utility.yul\":9792:9864   */\n      tag_428\n        /* \"#utility.yul\":9860:9862   */\n      0x20\n        /* \"#utility.yul\":9849:9858   */\n      dup4\n        /* \"#utility.yul\":9845:9863   */\n      add\n        /* \"#utility.yul\":9836:9842   */\n      dup6\n        /* \"#utility.yul\":9792:9864   */\n      tag_320\n      jump\t// in\n    tag_428:\n        /* \"#utility.yul\":9874:9946   */\n      tag_429\n        /* \"#utility.yul\":9942:9944   */\n      0x40\n        /* \"#utility.yul\":9931:9940   */\n      dup4\n        /* \"#utility.yul\":9927:9945   */\n      add\n        /* \"#utility.yul\":9918:9924   */\n      dup5\n        /* \"#utility.yul\":9874:9946   */\n      tag_420\n      jump\t// in\n    tag_429:\n        /* \"#utility.yul\":9511:9953   */\n      swap5\n      swap4\n      pop\n      pop\n      pop\n      pop\n      jump\t// out\n        /* \"#utility.yul\":9959:10291   */\n    tag_142:\n        /* \"#utility.yul\":10080:10084   */\n      0x00\n        /* \"#utility.yul\":10118:10120   */\n      0x40\n        /* \"#utility.yul\":10107:10116   */\n      dup3\n        /* \"#utility.yul\":10103:10121   */\n      add\n        /* \"#utility.yul\":10095:10121   */\n      swap1\n      pop\n        /* \"#utility.yul\":10131:10202   */\n      tag_431\n        /* \"#utility.yul\":10199:10200   */\n      0x00\n        /* \"#utility.yul\":10188:10197   */\n      dup4\n        /* \"#utility.yul\":10184:10201   */\n      add\n        /* \"#utility.yul\":10175:10181   */\n      dup6\n        /* \"#utility.yul\":10131:10202   */\n      tag_320\n      jump\t// in\n    tag_431:\n        /* \"#utility.yul\":10212:10284   */\n      tag_432\n        /* \"#utility.yul\":10280:10282   */\n      0x20\n        /* \"#utility.yul\":10269:10278   */\n      dup4\n        /* \"#utility.yul\":10265:10283   */\n      add\n        /* \"#utility.yul\":10256:10262   */\n      dup5\n        /* \"#utility.yul\":10212:10284   */\n      tag_420\n      jump\t// in\n    tag_432:\n        /* \"#utility.yul\":9959:10291   */\n      swap4\n      swap3\n      pop\n      pop\n      pop\n      jump\t// out\n        /* \"#utility.yul\":10297:10716   */\n    tag_95:\n        /* \"#utility.yul\":10463:10467   */\n      0x00\n        /* \"#utility.yul\":10501:10503   */\n      0x20\n        /* \"#utility.yul\":10490:10499   */\n      dup3\n        /* \"#utility.yul\":10486:10504   */\n      add\n        /* \"#utility.yul\":10478:10504   */\n      swap1\n      pop\n        /* \"#utility.yul\":10550:10559   */\n      dup2\n        /* \"#utility.yul\":10544:10548   */\n      dup2\n        /* \"#utility.yul\":10540:10560   */\n      sub\n        /* \"#utility.yul\":10536:10537   */\n      0x00\n        /* \"#utility.yul\":10525:10534   */\n      dup4\n        /* \"#utility.yul\":10521:10538   */\n      add\n        /* \"#utility.yul\":10514:10561   */\n      mstore\n        /* \"#utility.yul\":10578:10709   */\n      tag_434\n        /* \"#utility.yul\":10704:10708   */\n      dup2\n        /* \"#utility.yul\":10578:10709   */\n      tag_324\n      jump\t// in\n    tag_434:\n        /* \"#utility.yul\":10570:10709   */\n      swap1\n      pop\n        /* \"#utility.yul\":10297:10716   */\n      swap2\n      swap1\n      pop\n      jump\t// out\n        /* \"#utility.yul\":10722:11141   */\n    tag_165:\n        /* \"#utility.yul\":10888:10892   */\n      0x00\n        /* \"#utility.yul\":10926:10928   */\n      0x20\n        /* \"#utility.yul\":10915:10924   */\n      dup3\n        /* \"#utility.yul\":10911:10929   */\n      add\n        /* \"#utility.yul\":10903:10929   */\n      swap1\n      pop\n        /* \"#utility.yul\":10975:10984   */\n      dup2\n        /* \"#utility.yul\":10969:10973   */\n      dup2\n        /* \"#utility.yul\":10965:10985   */\n      sub\n        /* \"#utility.yul\":10961:10962   */\n      0x00\n        /* \"#utility.yul\":10950:10959   */\n      dup4\n        /* \"#utility.yul\":10946:10963   */\n      add\n        /* \"#utility.yul\":10939:10986   */\n      mstore\n        /* \"#utility.yul\":11003:11134   */\n      tag_436\n        /* \"#utility.yul\":11129:11133   */\n      dup2\n        /* \"#utility.yul\":11003:11134   */\n      tag_330\n      jump\t// in\n    tag_436:\n        /* \"#utility.yul\":10995:11134   */\n      swap1\n      pop\n        /* \"#utility.yul\":10722:11141   */\n      swap2\n      swap1\n      pop\n      jump\t// out\n        /* \"#utility.yul\":11147:11566   */\n    tag_168:\n        /* \"#utility.yul\":11313:11317   */\n      0x00\n        /* \"#utility.yul\":11351:11353   */\n      0x20\n        /* \"#utility.yul\":11340:11349   */\n      dup3\n        /* \"#utility.yul\":11336:11354   */\n      add\n        /* \"#utility.yul\":11328:11354   */\n      swap1\n      pop\n        /* \"#utility.yul\":11400:11409   */\n      dup2\n        /* \"#utility.yul\":11394:11398   */\n      dup2\n        /* \"#utility.yul\":11390:11410   */\n      sub\n        /* \"#utility.yul\":11386:11387   */\n      0x00\n        /* \"#utility.yul\":11375:11384   */\n      dup4\n        /* \"#utility.yul\":11371:11388   */\n      add\n        /* \"#utility.yul\":11364:11411   */\n      mstore\n        /* \"#utility.yul\":11428:11559   */\n      tag_438\n        /* \"#utility.yul\":11554:11558   */\n      dup2\n        /* \"#utility.yul\":11428:11559   */\n      tag_335\n      jump\t// in\n    tag_438:\n        /* \"#utility.yul\":11420:11559   */\n      swap1\n      pop\n        /* \"#utility.yul\":11147:11566   */\n      swap2\n      swap1\n      pop\n      jump\t// out\n        /* \"#utility.yul\":11572:11991   */\n    tag_229:\n        /* \"#utility.yul\":11738:11742   */\n      0x00\n        /* \"#utility.yul\":11776:11778   */\n      0x20\n        /* \"#utility.yul\":11765:11774   */\n      dup3\n        /* \"#utility.yul\":11761:11779   */\n      add\n        /* \"#utility.yul\":11753:11779   */\n      swap1\n      pop\n        /* \"#utility.yul\":11825:11834   */\n      dup2\n        /* \"#utility.yul\":11819:11823   */\n      dup2\n        /* \"#utility.yul\":11815:11835   */\n      sub\n        /* \"#utility.yul\":11811:11812   */\n      0x00\n        /* \"#utility.yul\":11800:11809   */\n      dup4\n        /* \"#utility.yul\":11796:11813   */\n      add\n        /* \"#utility.yul\":11789:11836   */\n      mstore\n        /* \"#utility.yul\":11853:11984   */\n      tag_440\n        /* \"#utility.yul\":11979:11983   */\n      dup2\n        /* \"#utility.yul\":11853:11984   */\n      tag_340\n      jump\t// in\n    tag_440:\n        /* \"#utility.yul\":11845:11984   */\n      swap1\n      pop\n        /* \"#utility.yul\":11572:11991   */\n      swap2\n      swap1\n      pop\n      jump\t// out\n        /* \"#utility.yul\":11997:12416   */\n    tag_125:\n        /* \"#utility.yul\":12163:12167   */\n      0x00\n        /* \"#utility.yul\":12201:12203   */\n      0x20\n        /* \"#utility.yul\":12190:12199   */\n      dup3\n        /* \"#utility.yul\":12186:12204   */\n      add\n        /* \"#utility.yul\":12178:12204   */\n      swap1\n      pop\n        /* \"#utility.yul\":12250:12259   */\n      dup2\n        /* \"#utility.yul\":12244:12248   */\n      dup2\n        /* \"#utility.yul\":12240:12260   */\n      sub\n        /* \"#utility.yul\":12236:12237   */\n      0x00\n        /* \"#utility.yul\":12225:12234   */\n      dup4\n        /* \"#utility.yul\":12221:12238   */\n      add\n        /* \"#utility.yul\":12214:12261   */\n      mstore\n        /* \"#utility.yul\":12278:12409   */\n      tag_442\n        /* \"#utility.yul\":12404:12408   */\n      dup2\n        /* \"#utility.yul\":12278:12409   */\n      tag_345\n      jump\t// in\n    tag_442:\n        /* \"#utility.yul\":12270:12409   */\n      swap1\n      pop\n        /* \"#utility.yul\":11997:12416   */\n      swap2\n      swap1\n      pop\n      jump\t// out\n        /* \"#utility.yul\":12422:12841   */\n    tag_108:\n        /* \"#utility.yul\":12588:12592   */\n      0x00\n        /* \"#utility.yul\":12626:12628   */\n      0x20\n        /* \"#utility.yul\":12615:12624   */\n      dup3\n        /* \"#utility.yul\":12611:12629   */\n      add\n        /* \"#utility.yul\":12603:12629   */\n      swap1\n      pop\n        /* \"#utility.yul\":12675:12684   */\n      dup2\n        /* \"#utility.yul\":12669:12673   */\n      dup2\n        /* \"#utility.yul\":12665:12685   */\n      sub\n        /* \"#utility.yul\":12661:12662   */\n      0x00\n        /* \"#utility.yul\":12650:12659   */\n      dup4\n        /* \"#utility.yul\":12646:12663   */\n      add\n        /* \"#utility.yul\":12639:12686   */\n      mstore\n        /* \"#utility.yul\":12703:12834   */\n      tag_444\n        /* \"#utility.yul\":12829:12833   */\n      dup2\n        /* \"#utility.yul\":12703:12834   */\n      tag_350\n      jump\t// in\n    tag_444:\n        /* \"#utility.yul\":12695:12834   */\n      swap1\n      pop\n        /* \"#utility.yul\":12422:12841   */\n      swap2\n      swap1\n      pop\n      jump\t// out\n        /* \"#utility.yul\":12847:13266   */\n    tag_114:\n        /* \"#utility.yul\":13013:13017   */\n      0x00\n        /* \"#utility.yul\":13051:13053   */\n      0x20\n        /* \"#utility.yul\":13040:13049   */\n      dup3\n        /* \"#utility.yul\":13036:13054   */\n      add\n        /* \"#utility.yul\":13028:13054   */\n      swap1\n      pop\n        /* \"#utility.yul\":13100:13109   */\n      dup2\n        /* \"#utility.yul\":13094:13098   */\n      dup2\n        /* \"#utility.yul\":13090:13110   */\n      sub\n        /* \"#utility.yul\":13086:13087   */\n      0x00\n        /* \"#utility.yul\":13075:13084   */\n      dup4\n        /* \"#utility.yul\":13071:13088   */\n      add\n        /* \"#utility.yul\":13064:13111   */\n      mstore\n        /* \"#utility.yul\":13128:13259   */\n      tag_446\n        /* \"#utility.yul\":13254:13258   */\n      dup2\n        /* \"#utility.yul\":13128:13259   */\n      tag_355\n      jump\t// in\n    tag_446:\n        /* \"#utility.yul\":13120:13259   */\n      swap1\n      pop\n        /* \"#utility.yul\":12847:13266   */\n      swap2\n      swap1\n      pop\n      jump\t// out\n        /* \"#utility.yul\":13272:13691   */\n    tag_159:\n        /* \"#utility.yul\":13438:13442   */\n      0x00\n        /* \"#utility.yul\":13476:13478   */\n      0x20\n        /* \"#utility.yul\":13465:13474   */\n      dup3\n        /* \"#utility.yul\":13461:13479   */\n      add\n        /* \"#utility.yul\":13453:13479   */\n      swap1\n      pop\n        /* \"#utility.yul\":13525:13534   */\n      dup2\n        /* \"#utility.yul\":13519:13523   */\n      dup2\n        /* \"#utility.yul\":13515:13535   */\n      sub\n        /* \"#utility.yul\":13511:13512   */\n      0x00\n        /* \"#utility.yul\":13500:13509   */\n      dup4\n        /* \"#utility.yul\":13496:13513   */\n      add\n        /* \"#utility.yul\":13489:13536   */\n      mstore\n        /* \"#utility.yul\":13553:13684   */\n      tag_448\n        /* \"#utility.yul\":13679:13683   */\n      dup2\n        /* \"#utility.yul\":13553:13684   */\n      tag_360\n      jump\t// in\n    tag_448:\n        /* \"#utility.yul\":13545:13684   */\n      swap1\n      pop\n        /* \"#utility.yul\":13272:13691   */\n      swap2\n      swap1\n      pop\n      jump\t// out\n        /* \"#utility.yul\":13697:14116   */\n    tag_205:\n        /* \"#utility.yul\":13863:13867   */\n      0x00\n        /* \"#utility.yul\":13901:13903   */\n      0x20\n        /* \"#utility.yul\":13890:13899   */\n      dup3\n        /* \"#utility.yul\":13886:13904   */\n      add\n        /* \"#utility.yul\":13878:13904   */\n      swap1\n      pop\n        /* \"#utility.yul\":13950:13959   */\n      dup2\n        /* \"#utility.yul\":13944:13948   */\n      dup2\n        /* \"#utility.yul\":13940:13960   */\n      sub\n        /* \"#utility.yul\":13936:13937   */\n      0x00\n        /* \"#utility.yul\":13925:13934   */\n      dup4\n        /* \"#utility.yul\":13921:13938   */\n      add\n        /* \"#utility.yul\":13914:13961   */\n      mstore\n        /* \"#utility.yul\":13978:14109   */\n      tag_450\n        /* \"#utility.yul\":14104:14108   */\n      dup2\n        /* \"#utility.yul\":13978:14109   */\n      tag_365\n      jump\t// in\n    tag_450:\n        /* \"#utility.yul\":13970:14109   */\n      swap1\n      pop\n        /* \"#utility.yul\":13697:14116   */\n      swap2\n      swap1\n      pop\n      jump\t// out\n        /* \"#utility.yul\":14122:14541   */\n    tag_185:\n        /* \"#utility.yul\":14288:14292   */\n      0x00\n        /* \"#utility.yul\":14326:14328   */\n      0x20\n        /* \"#utility.yul\":14315:14324   */\n      dup3\n        /* \"#utility.yul\":14311:14329   */\n      add\n        /* \"#utility.yul\":14303:14329   */\n      swap1\n      pop\n        /* \"#utility.yul\":14375:14384   */\n      dup2\n        /* \"#utility.yul\":14369:14373   */\n      dup2\n        /* \"#utility.yul\":14365:14385   */\n      sub\n        /* \"#utility.yul\":14361:14362   */\n      0x00\n        /* \"#utility.yul\":14350:14359   */\n      dup4\n        /* \"#utility.yul\":14346:14363   */\n      add\n        /* \"#utility.yul\":14339:14386   */\n      mstore\n        /* \"#utility.yul\":14403:14534   */\n      tag_452\n        /* \"#utility.yul\":14529:14533   */\n      dup2\n        /* \"#utility.yul\":14403:14534   */\n      tag_370\n      jump\t// in\n    tag_452:\n        /* \"#utility.yul\":14395:14534   */\n      swap1\n      pop\n        /* \"#utility.yul\":14122:14541   */\n      swap2\n      swap1\n      pop\n      jump\t// out\n        /* \"#utility.yul\":14547:14966   */\n    tag_135:\n        /* \"#utility.yul\":14713:14717   */\n      0x00\n        /* \"#utility.yul\":14751:14753   */\n      0x20\n        /* \"#utility.yul\":14740:14749   */\n      dup3\n        /* \"#utility.yul\":14736:14754   */\n      add\n        /* \"#utility.yul\":14728:14754   */\n      swap1\n      pop\n        /* \"#utility.yul\":14800:14809   */\n      dup2\n        /* \"#utility.yul\":14794:14798   */\n      dup2\n        /* \"#utility.yul\":14790:14810   */\n      sub\n        /* \"#utility.yul\":14786:14787   */\n      0x00\n        /* \"#utility.yul\":14775:14784   */\n      dup4\n        /* \"#utility.yul\":14771:14788   */\n      add\n        /* \"#utility.yul\":14764:14811   */\n      mstore\n        /* \"#utility.yul\":14828:14959   */\n      tag_454\n        /* \"#utility.yul\":14954:14958   */\n      dup2\n        /* \"#utility.yul\":14828:14959   */\n      tag_375\n      jump\t// in\n    tag_454:\n        /* \"#utility.yul\":14820:14959   */\n      swap1\n      pop\n        /* \"#utility.yul\":14547:14966   */\n      swap2\n      swap1\n      pop\n      jump\t// out\n        /* \"#utility.yul\":14972:15391   */\n    tag_102:\n        /* \"#utility.yul\":15138:15142   */\n      0x00\n        /* \"#utility.yul\":15176:15178   */\n      0x20\n        /* \"#utility.yul\":15165:15174   */\n      dup3\n        /* \"#utility.yul\":15161:15179   */\n      add\n        /* \"#utility.yul\":15153:15179   */\n      swap1\n      pop\n        /* \"#utility.yul\":15225:15234   */\n      dup2\n        /* \"#utility.yul\":15219:15223   */\n      dup2\n        /* \"#utility.yul\":15215:15235   */\n      sub\n        /* \"#utility.yul\":15211:15212   */\n      0x00\n        /* \"#utility.yul\":15200:15209   */\n      dup4\n        /* \"#utility.yul\":15196:15213   */\n      add\n        /* \"#utility.yul\":15189:15236   */\n      mstore\n        /* \"#utility.yul\":15253:15384   */\n      tag_456\n        /* \"#utility.yul\":15379:15383   */\n      dup2\n        /* \"#utility.yul\":15253:15384   */\n      tag_380\n      jump\t// in\n    tag_456:\n        /* \"#utility.yul\":15245:15384   */\n      swap1\n      pop\n        /* \"#utility.yul\":14972:15391   */\n      swap2\n      swap1\n      pop\n      jump\t// out\n        /* \"#utility.yul\":15397:15816   */\n    tag_234:\n        /* \"#utility.yul\":15563:15567   */\n      0x00\n        /* \"#utility.yul\":15601:15603   */\n      0x20\n        /* \"#utility.yul\":15590:15599   */\n      dup3\n        /* \"#utility.yul\":15586:15604   */\n      add\n        /* \"#utility.yul\":15578:15604   */\n      swap1\n      pop\n        /* \"#utility.yul\":15650:15659   */\n      dup2\n        /* \"#utility.yul\":15644:15648   */\n      dup2\n        /* \"#utility.yul\":15640:15660   */\n      sub\n        /* \"#utility.yul\":15636:15637   */\n      0x00\n        /* \"#utility.yul\":15625:15634   */\n      dup4\n        /* \"#utility.yul\":15621:15638   */\n      add\n        /* \"#utility.yul\":15614:15661   */\n      mstore\n        /* \"#utility.yul\":15678:15809   */\n      tag_458\n        /* \"#utility.yul\":15804:15808   */\n      dup2\n        /* \"#utility.yul\":15678:15809   */\n      tag_385\n      jump\t// in\n    tag_458:\n        /* \"#utility.yul\":15670:15809   */\n      swap1\n      pop\n        /* \"#utility.yul\":15397:15816   */\n      swap2\n      swap1\n      pop\n      jump\t// out\n        /* \"#utility.yul\":15822:16241   */\n    tag_155:\n        /* \"#utility.yul\":15988:15992   */\n      0x00\n        /* \"#utility.yul\":16026:16028   */\n      0x20\n        /* \"#utility.yul\":16015:16024   */\n      dup3\n        /* \"#utility.yul\":16011:16029   */\n      add\n        /* \"#utility.yul\":16003:16029   */\n      swap1\n      pop\n        /* \"#utility.yul\":16075:16084   */\n      dup2\n        /* \"#utility.yul\":16069:16073   */\n      dup2\n        /* \"#utility.yul\":16065:16085   */\n      sub\n        /* \"#utility.yul\":16061:16062   */\n      0x00\n        /* \"#utility.yul\":16050:16059   */\n      dup4\n        /* \"#utility.yul\":16046:16063   */\n      add\n        /* \"#utility.yul\":16039:16086   */\n      mstore\n        /* \"#utility.yul\":16103:16234   */\n      tag_460\n        /* \"#utility.yul\":16229:16233   */\n      dup2\n        /* \"#utility.yul\":16103:16234   */\n      tag_390\n      jump\t// in\n    tag_460:\n        /* \"#utility.yul\":16095:16234   */\n      swap1\n      pop\n        /* \"#utility.yul\":15822:16241   */\n      swap2\n      swap1\n      pop\n      jump\t// out\n        /* \"#utility.yul\":16247:16666   */\n    tag_178:\n        /* \"#utility.yul\":16413:16417   */\n      0x00\n        /* \"#utility.yul\":16451:16453   */\n      0x20\n        /* \"#utility.yul\":16440:16449   */\n      dup3\n        /* \"#utility.yul\":16436:16454   */\n      add\n        /* \"#utility.yul\":16428:16454   */\n      swap1\n      pop\n        /* \"#utility.yul\":16500:16509   */\n      dup2\n        /* \"#utility.yul\":16494:16498   */\n      dup2\n        /* \"#utility.yul\":16490:16510   */\n      sub\n        /* \"#utility.yul\":16486:16487   */\n      0x00\n        /* \"#utility.yul\":16475:16484   */\n      dup4\n        /* \"#utility.yul\":16471:16488   */\n      add\n        /* \"#utility.yul\":16464:16511   */\n      mstore\n        /* \"#utility.yul\":16528:16659   */\n      tag_462\n        /* \"#utility.yul\":16654:16658   */\n      dup2\n        /* \"#utility.yul\":16528:16659   */\n      tag_395\n      jump\t// in\n    tag_462:\n        /* \"#utility.yul\":16520:16659   */\n      swap1\n      pop\n        /* \"#utility.yul\":16247:16666   */\n      swap2\n      swap1\n      pop\n      jump\t// out\n        /* \"#utility.yul\":16672:17091   */\n    tag_117:\n        /* \"#utility.yul\":16838:16842   */\n      0x00\n        /* \"#utility.yul\":16876:16878   */\n      0x20\n        /* \"#utility.yul\":16865:16874   */\n      dup3\n        /* \"#utility.yul\":16861:16879   */\n      add\n        /* \"#utility.yul\":16853:16879   */\n      swap1\n      pop\n        /* \"#utility.yul\":16925:16934   */\n      dup2\n        /* \"#utility.yul\":16919:16923   */\n      dup2\n        /* \"#utility.yul\":16915:16935   */\n      sub\n        /* \"#utility.yul\":16911:16912   */\n      0x00\n        /* \"#utility.yul\":16900:16909   */\n      dup4\n        /* \"#utility.yul\":16896:16913   */\n      add\n        /* \"#utility.yul\":16889:16936   */\n      mstore\n        /* \"#utility.yul\":16953:17084   */\n      tag_464\n        /* \"#utility.yul\":17079:17083   */\n      dup2\n        /* \"#utility.yul\":16953:17084   */\n      tag_400\n      jump\t// in\n    tag_464:\n        /* \"#utility.yul\":16945:17084   */\n      swap1\n      pop\n        /* \"#utility.yul\":16672:17091   */\n      swap2\n      swap1\n      pop\n      jump\t// out\n        /* \"#utility.yul\":17097:17516   */\n    tag_188:\n        /* \"#utility.yul\":17263:17267   */\n      0x00\n        /* \"#utility.yul\":17301:17303   */\n      0x20\n        /* \"#utility.yul\":17290:17299   */\n      dup3\n        /* \"#utility.yul\":17286:17304   */\n      add\n        /* \"#utility.yul\":17278:17304   */\n      swap1\n      pop\n        /* \"#utility.yul\":17350:17359   */\n      dup2\n        /* \"#utility.yul\":17344:17348   */\n      dup2\n        /* \"#utility.yul\":17340:17360   */\n      sub\n        /* \"#utility.yul\":17336:17337   */\n      0x00\n        /* \"#utility.yul\":17325:17334   */\n      dup4\n        /* \"#utility.yul\":17321:17338   */\n      add\n        /* \"#utility.yul\":17314:17361   */\n      mstore\n        /* \"#utility.yul\":17378:17509   */\n      tag_466\n        /* \"#utility.yul\":17504:17508   */\n      dup2\n        /* \"#utility.yul\":17378:17509   */\n      tag_405\n      jump\t// in\n    tag_466:\n        /* \"#utility.yul\":17370:17509   */\n      swap1\n      pop\n        /* \"#utility.yul\":17097:17516   */\n      swap2\n      swap1\n      pop\n      jump\t// out\n        /* \"#utility.yul\":17522:17941   */\n    tag_162:\n        /* \"#utility.yul\":17688:17692   */\n      0x00\n        /* \"#utility.yul\":17726:17728   */\n      0x20\n        /* \"#utility.yul\":17715:17724   */\n      dup3\n        /* \"#utility.yul\":17711:17729   */\n      add\n        /* \"#utility.yul\":17703:17729   */\n      swap1\n      pop\n        /* \"#utility.yul\":17775:17784   */\n      dup2\n        /* \"#utility.yul\":17769:17773   */\n      dup2\n        /* \"#utility.yul\":17765:17785   */\n      sub\n        /* \"#utility.yul\":17761:17762   */\n      0x00\n        /* \"#utility.yul\":17750:17759   */\n      dup4\n        /* \"#utility.yul\":17746:17763   */\n      add\n        /* \"#utility.yul\":17739:17786   */\n      mstore\n        /* \"#utility.yul\":17803:17934   */\n      tag_468\n        /* \"#utility.yul\":17929:17933   */\n      dup2\n        /* \"#utility.yul\":17803:17934   */\n      tag_410\n      jump\t// in\n    tag_468:\n        /* \"#utility.yul\":17795:17934   */\n      swap1\n      pop\n        /* \"#utility.yul\":17522:17941   */\n      swap2\n      swap1\n      pop\n      jump\t// out\n        /* \"#utility.yul\":17947:18366   */\n    tag_258:\n        /* \"#utility.yul\":18113:18117   */\n      0x00\n        /* \"#utility.yul\":18151:18153   */\n      0x20\n        /* \"#utility.yul\":18140:18149   */\n      dup3\n        /* \"#utility.yul\":18136:18154   */\n      add\n        /* \"#utility.yul\":18128:18154   */\n      swap1\n      pop\n        /* \"#utility.yul\":18200:18209   */\n      dup2\n        /* \"#utility.yul\":18194:18198   */\n      dup2\n        /* \"#utility.yul\":18190:18210   */\n      sub\n        /* \"#utility.yul\":18186:18187   */\n      0x00\n        /* \"#utility.yul\":18175:18184   */\n      dup4\n        /* \"#utility.yul\":18171:18188   */\n      add\n        /* \"#utility.yul\":18164:18211   */\n      mstore\n        /* \"#utility.yul\":18228:18359   */\n      tag_470\n        /* \"#utility.yul\":18354:18358   */\n      dup2\n        /* \"#utility.yul\":18228:18359   */\n      tag_415\n      jump\t// in\n    tag_470:\n        /* \"#utility.yul\":18220:18359   */\n      swap1\n      pop\n        /* \"#utility.yul\":17947:18366   */\n      swap2\n      swap1\n      pop\n      jump\t// out\n        /* \"#utility.yul\":18372:18594   */\n    tag_28:\n        /* \"#utility.yul\":18465:18469   */\n      0x00\n        /* \"#utility.yul\":18503:18505   */\n      0x20\n        /* \"#utility.yul\":18492:18501   */\n      dup3\n        /* \"#utility.yul\":18488:18506   */\n      add\n        /* \"#utility.yul\":18480:18506   */\n      swap1\n      pop\n        /* \"#utility.yul\":18516:18587   */\n      tag_472\n        /* \"#utility.yul\":18584:18585   */\n      0x00\n        /* \"#utility.yul\":18573:18582   */\n      dup4\n        /* \"#utility.yul\":18569:18586   */\n      add\n        /* \"#utility.yul\":18560:18566   */\n      dup5\n        /* \"#utility.yul\":18516:18587   */\n      tag_420\n      jump\t// in\n    tag_472:\n        /* \"#utility.yul\":18372:18594   */\n      swap3\n      swap2\n      pop\n      pop\n      jump\t// out\n        /* \"#utility.yul\":18681:18850   */\n    tag_327:\n        /* \"#utility.yul\":18765:18776   */\n      0x00\n        /* \"#utility.yul\":18799:18805   */\n      dup3\n        /* \"#utility.yul\":18794:18797   */\n      dup3\n        /* \"#utility.yul\":18787:18806   */\n      mstore\n        /* \"#utility.yul\":18839:18843   */\n      0x20\n        /* \"#utility.yul\":18834:18837   */\n      dup3\n        /* \"#utility.yul\":18830:18844   */\n      add\n        /* \"#utility.yul\":18815:18844   */\n      swap1\n      pop\n        /* \"#utility.yul\":18681:18850   */\n      swap3\n      swap2\n      pop\n      pop\n      jump\t// out\n        /* \"#utility.yul\":18856:19161   */\n    tag_104:\n        /* \"#utility.yul\":18896:18899   */\n      0x00\n        /* \"#utility.yul\":18915:18935   */\n      tag_477\n        /* \"#utility.yul\":18933:18934   */\n      dup3\n        /* \"#utility.yul\":18915:18935   */\n      tag_423\n      jump\t// in\n    tag_477:\n        /* \"#utility.yul\":18910:18935   */\n      swap2\n      pop\n        /* \"#utility.yul\":18949:18969   */\n      tag_478\n        /* \"#utility.yul\":18967:18968   */\n      dup4\n        /* \"#utility.yul\":18949:18969   */\n      tag_423\n      jump\t// in\n    tag_478:\n        /* \"#utility.yul\":18944:18969   */\n      swap3\n      pop\n        /* \"#utility.yul\":19103:19104   */\n      dup3\n        /* \"#utility.yul\":19035:19101   */\n      0xffffffffffffffffffffffffffffffffffffffffffffffffffffffffffffffff\n        /* \"#utility.yul\":19031:19105   */\n      sub\n        /* \"#utility.yul\":19028:19029   */\n      dup3\n        /* \"#utility.yul\":19025:19106   */\n      gt\n        /* \"#utility.yul\":19022:19129   */\n      iszero\n      tag_479\n      jumpi\n        /* \"#utility.yul\":19109:19127   */\n      tag_480\n      tag_481\n      jump\t// in\n    tag_480:\n        /* \"#utility.yul\":19022:19129   */\n    tag_479:\n        /* \"#utility.yul\":19153:19154   */\n      dup3\n        /* \"#utility.yul\":19150:19151   */\n      dup3\n        /* \"#utility.yul\":19146:19155   */\n      add\n        /* \"#utility.yul\":19139:19155   */\n      swap1\n      pop\n        /* \"#utility.yul\":18856:19161   */\n      swap3\n      swap2\n      pop\n      pop\n      jump\t// out\n        /* \"#utility.yul\":19167:19352   */\n    tag_97:\n        /* \"#utility.yul\":19207:19208   */\n      0x00\n        /* \"#utility.yul\":19224:19244   */\n      tag_483\n        /* \"#utility.yul\":19242:19243   */\n      dup3\n        /* \"#utility.yul\":19224:19244   */\n      tag_423\n      jump\t// in\n    tag_483:\n        /* \"#utility.yul\":19219:19244   */\n      swap2\n      pop\n        /* \"#utility.yul\":19258:19278   */\n      tag_484\n        /* \"#utility.yul\":19276:19277   */\n      dup4\n        /* \"#utility.yul\":19258:19278   */\n      tag_423\n      jump\t// in\n    tag_484:\n        /* \"#utility.yul\":19253:19278   */\n      swap3\n      pop\n        /* \"#utility.yul\":19297:19298   */\n      dup3\n        /* \"#utility.yul\":19287:19322   */\n      tag_485\n      jumpi\n        /* \"#utility.yul\":19302:19320   */\n      tag_486\n      tag_487\n      jump\t// in\n    tag_486:\n        /* \"#utility.yul\":19287:19322   */\n    tag_485:\n        /* \"#utility.yul\":19344:19345   */\n      dup3\n        /* \"#utility.yul\":19341:19342   */\n      dup3\n        /* \"#utility.yul\":19337:19346   */\n      div\n        /* \"#utility.yul\":19332:19346   */\n      swap1\n      pop\n        /* \"#utility.yul\":19167:19352   */\n      swap3\n      swap2\n      pop\n      pop\n      jump\t// out\n        /* \"#utility.yul\":19358:19706   */\n    tag_121:\n        /* \"#utility.yul\":19398:19405   */\n      0x00\n        /* \"#utility.yul\":19421:19441   */\n      tag_489\n        /* \"#utility.yul\":19439:19440   */\n      dup3\n        /* \"#utility.yul\":19421:19441   */\n      tag_423\n      jump\t// in\n    tag_489:\n        /* \"#utility.yul\":19416:19441   */\n      swap2\n      pop\n        /* \"#utility.yul\":19455:19475   */\n      tag_490\n        /* \"#utility.yul\":19473:19474   */\n      dup4\n        /* \"#utility.yul\":19455:19475   */\n      tag_423\n      jump\t// in\n    tag_490:\n        /* \"#utility.yul\":19450:19475   */\n      swap3\n      pop\n        /* \"#utility.yul\":19643:19644   */\n      dup2\n        /* \"#utility.yul\":19575:19641   */\n      0xffffffffffffffffffffffffffffffffffffffffffffffffffffffffffffffff\n        /* \"#utility.yul\":19571:19645   */\n      div\n        /* \"#utility.yul\":19568:19569   */\n      dup4\n        /* \"#utility.yul\":19565:19646   */\n      gt\n        /* \"#utility.yul\":19560:19561   */\n      dup3\n        /* \"#utility.yul\":19553:19562   */\n      iszero\n        /* \"#utility.yul\":19546:19563   */\n      iszero\n        /* \"#utility.yul\":19542:19647   */\n      and\n        /* \"#utility.yul\":19539:19670   */\n      iszero\n      tag_491\n      jumpi\n        /* \"#utility.yul\":19650:19668   */\n      tag_492\n      tag_481\n      jump\t// in\n    tag_492:\n        /* \"#utility.yul\":19539:19670   */\n    tag_491:\n        /* \"#utility.yul\":19698:19699   */\n      dup3\n        /* \"#utility.yul\":19695:19696   */\n      dup3\n        /* \"#utility.yul\":19691:19700   */\n      mul\n        /* \"#utility.yul\":19680:19700   */\n      swap1\n      pop\n        /* \"#utility.yul\":19358:19706   */\n      swap3\n      swap2\n      pop\n      pop\n      jump\t// out\n        /* \"#utility.yul\":19712:19903   */\n    tag_110:\n        /* \"#utility.yul\":19752:19756   */\n      0x00\n        /* \"#utility.yul\":19772:19792   */\n      tag_494\n        /* \"#utility.yul\":19790:19791   */\n      dup3\n        /* \"#utility.yul\":19772:19792   */\n      tag_423\n      jump\t// in\n    tag_494:\n        /* \"#utility.yul\":19767:19792   */\n      swap2\n      pop\n        /* \"#utility.yul\":19806:19826   */\n      tag_495\n        /* \"#utility.yul\":19824:19825   */\n      dup4\n        /* \"#utility.yul\":19806:19826   */\n      tag_423\n      jump\t// in\n    tag_495:\n        /* \"#utility.yul\":19801:19826   */\n      swap3\n      pop\n        /* \"#utility.yul\":19845:19846   */\n      dup3\n        /* \"#utility.yul\":19842:19843   */\n      dup3\n        /* \"#utility.yul\":19839:19847   */\n      lt\n        /* \"#utility.yul\":19836:19870   */\n      iszero\n      tag_496\n      jumpi\n        /* \"#utility.yul\":19850:19868   */\n      tag_497\n      tag_481\n      jump\t// in\n    tag_497:\n        /* \"#utility.yul\":19836:19870   */\n    tag_496:\n        /* \"#utility.yul\":19895:19896   */\n      dup3\n        /* \"#utility.yul\":19892:19893   */\n      dup3\n        /* \"#utility.yul\":19888:19897   */\n      sub\n        /* \"#utility.yul\":19880:19897   */\n      swap1\n      pop\n        /* \"#utility.yul\":19712:19903   */\n      swap3\n      swap2\n      pop\n      pop\n      jump\t// out\n        /* \"#utility.yul\":19909:20005   */\n    tag_323:\n        /* \"#utility.yul\":19946:19953   */\n      0x00\n        /* \"#utility.yul\":19975:19999   */\n      tag_499\n        /* \"#utility.yul\":19993:19998   */\n      dup3\n        /* \"#utility.yul\":19975:19999   */\n      tag_500\n      jump\t// in\n    tag_499:\n        /* \"#utility.yul\":19964:19999   */\n      swap1\n      pop\n        /* \"#utility.yul\":19909:20005   */\n      swap2\n      swap1\n      pop\n      jump\t// out\n        /* \"#utility.yul\":20011:20101   */\n    tag_501:\n        /* \"#utility.yul\":20045:20052   */\n      0x00\n        /* \"#utility.yul\":20088:20093   */\n      dup2\n        /* \"#utility.yul\":20081:20094   */\n      iszero\n        /* \"#utility.yul\":20074:20095   */\n      iszero\n        /* \"#utility.yul\":20063:20095   */\n      swap1\n      pop\n        /* \"#utility.yul\":20011:20101   */\n      swap2\n      swap1\n      pop\n      jump\t// out\n        /* \"#utility.yul\":20107:20233   */\n    tag_500:\n        /* \"#utility.yul\":20144:20151   */\n      0x00\n        /* \"#utility.yul\":20184:20226   */\n      0xffffffffffffffffffffffffffffffffffffffff\n        /* \"#utility.yul\":20177:20182   */\n      dup3\n        /* \"#utility.yul\":20173:20227   */\n      and\n        /* \"#utility.yul\":20162:20227   */\n      swap1\n      pop\n        /* \"#utility.yul\":20107:20233   */\n      swap2\n      swap1\n      pop\n      jump\t// out\n        /* \"#utility.yul\":20239:20316   */\n    tag_423:\n        /* \"#utility.yul\":20276:20283   */\n      0x00\n        /* \"#utility.yul\":20305:20310   */\n      dup2\n        /* \"#utility.yul\":20294:20310   */\n      swap1\n      pop\n        /* \"#utility.yul\":20239:20316   */\n      swap2\n      swap1\n      pop\n      jump\t// out\n        /* \"#utility.yul\":20322:20502   */\n    tag_285:\n        /* \"#utility.yul\":20370:20447   */\n      0x4e487b7100000000000000000000000000000000000000000000000000000000\n        /* \"#utility.yul\":20367:20368   */\n      0x00\n        /* \"#utility.yul\":20360:20448   */\n      mstore\n        /* \"#utility.yul\":20467:20471   */\n      0x01\n        /* \"#utility.yul\":20464:20465   */\n      0x04\n        /* \"#utility.yul\":20457:20472   */\n      mstore\n        /* \"#utility.yul\":20491:20495   */\n      0x24\n        /* \"#utility.yul\":20488:20489   */\n      0x00\n        /* \"#utility.yul\":20481:20496   */\n      revert\n        /* \"#utility.yul\":20508:20688   */\n    tag_481:\n        /* \"#utility.yul\":20556:20633   */\n      0x4e487b7100000000000000000000000000000000000000000000000000000000\n        /* \"#utility.yul\":20553:20554   */\n      0x00\n        /* \"#utility.yul\":20546:20634   */\n      mstore\n        /* \"#utility.yul\":20653:20657   */\n      0x11\n        /* \"#utility.yul\":20650:20651   */\n      0x04\n        /* \"#utility.yul\":20643:20658   */\n      mstore\n        /* \"#utility.yul\":20677:20681   */\n      0x24\n        /* \"#utility.yul\":20674:20675   */\n      0x00\n        /* \"#utility.yul\":20667:20682   */\n      revert\n        /* \"#utility.yul\":20694:20874   */\n    tag_487:\n        /* \"#utility.yul\":20742:20819   */\n      0x4e487b7100000000000000000000000000000000000000000000000000000000\n        /* \"#utility.yul\":20739:20740   */\n      0x00\n        /* \"#utility.yul\":20732:20820   */\n      mstore\n        /* \"#utility.yul\":20839:20843   */\n      0x12\n        /* \"#utility.yul\":20836:20837   */\n      0x04\n        /* \"#utility.yul\":20829:20844   */\n      mstore\n        /* \"#utility.yul\":20863:20867   */\n      0x24\n        /* \"#utility.yul\":20860:20861   */\n      0x00\n        /* \"#utility.yul\":20853:20868   */\n      revert\n        /* \"#utility.yul\":21003:21120   */\n    tag_306:\n        /* \"#utility.yul\":21112:21113   */\n      0x00\n        /* \"#utility.yul\":21109:21110   */\n      dup1\n        /* \"#utility.yul\":21102:21114   */\n      revert\n        /* \"#utility.yul\":21126:21297   */\n    tag_329:\n        /* \"#utility.yul\":21266:21289   */\n      0x4e6f20746f6b656e7320696e2072657365727665730000000000000000000000\n        /* \"#utility.yul\":21262:21263   */\n      0x00\n        /* \"#utility.yul\":21254:21260   */\n      dup3\n        /* \"#utility.yul\":21250:21264   */\n      add\n        /* \"#utility.yul\":21243:21290   */\n      mstore\n        /* \"#utility.yul\":21126:21297   */\n      pop\n      jump\t// out\n        /* \"#utility.yul\":21303:21477   */\n    tag_334:\n        /* \"#utility.yul\":21443:21469   */\n      0x4e6565642045544820746f2063726561746520706f6f6c2e0000000000000000\n        /* \"#utility.yul\":21439:21440   */\n      0x00\n        /* \"#utility.yul\":21431:21437   */\n      dup3\n        /* \"#utility.yul\":21427:21441   */\n      add\n        /* \"#utility.yul\":21420:21470   */\n      mstore\n        /* \"#utility.yul\":21303:21477   */\n      pop\n      jump\t// out\n        /* \"#utility.yul\":21483:21660   */\n    tag_339:\n        /* \"#utility.yul\":21623:21652   */\n      0x4e65656420746f6b656e7320746f2063726561746520706f6f6c2e0000000000\n        /* \"#utility.yul\":21619:21620   */\n      0x00\n        /* \"#utility.yul\":21611:21617   */\n      dup3\n        /* \"#utility.yul\":21607:21621   */\n      add\n        /* \"#utility.yul\":21600:21653   */\n      mstore\n        /* \"#utility.yul\":21483:21660   */\n      pop\n      jump\t// out\n        /* \"#utility.yul\":21666:21834   */\n    tag_344:\n        /* \"#utility.yul\":21806:21826   */\n      0x4e6f2045544820696e2072657365727665730000000000000000000000000000\n        /* \"#utility.yul\":21802:21803   */\n      0x00\n        /* \"#utility.yul\":21794:21800   */\n      dup3\n        /* \"#utility.yul\":21790:21804   */\n      add\n        /* \"#utility.yul\":21783:21827   */\n      mstore\n        /* \"#utility.yul\":21666:21834   */\n      pop\n      jump\t// out\n        /* \"#utility.yul\":21840:22018   */\n    tag_349:\n        /* \"#utility.yul\":21980:22010   */\n      0x496e636f72726563742045544820746f20546f6b656e20726174696f00000000\n        /* \"#utility.yul\":21976:21977   */\n      0x00\n        /* \"#utility.yul\":21968:21974   */\n      dup3\n        /* \"#utility.yul\":21964:21978   */\n      add\n        /* \"#utility.yul\":21957:22011   */\n      mstore\n        /* \"#utility.yul\":21840:22018   */\n      pop\n      jump\t// out\n        /* \"#utility.yul\":22024:22186   */\n    tag_354:\n        /* \"#utility.yul\":22164:22178   */\n      0x496e76616c696420737761700000000000000000000000000000000000000000\n        /* \"#utility.yul\":22160:22161   */\n      0x00\n        /* \"#utility.yul\":22152:22158   */\n      dup3\n        /* \"#utility.yul\":22148:22162   */\n      add\n        /* \"#utility.yul\":22141:22179   */\n      mstore\n        /* \"#utility.yul\":22024:22186   */\n      pop\n      jump\t// out\n        /* \"#utility.yul\":22192:22372   */\n    tag_359:\n        /* \"#utility.yul\":22332:22364   */\n      0x4d7573742070726f766964652045544820666f72206c69717569646974790000\n        /* \"#utility.yul\":22328:22329   */\n      0x00\n        /* \"#utility.yul\":22320:22326   */\n      dup3\n        /* \"#utility.yul\":22316:22330   */\n      add\n        /* \"#utility.yul\":22309:22365   */\n      mstore\n        /* \"#utility.yul\":22192:22372   */\n      pop\n      jump\t// out\n        /* \"#utility.yul\":22378:22552   */\n    tag_364:\n        /* \"#utility.yul\":22518:22544   */\n      0x546f6b656e20726573657276657320776173206e6f7420300000000000000000\n        /* \"#utility.yul\":22514:22515   */\n      0x00\n        /* \"#utility.yul\":22506:22512   */\n      dup3\n        /* \"#utility.yul\":22502:22516   */\n      add\n        /* \"#utility.yul\":22495:22545   */\n      mstore\n        /* \"#utility.yul\":22378:22552   */\n      pop\n      jump\t// out\n        /* \"#utility.yul\":22558:22738   */\n    tag_369:\n        /* \"#utility.yul\":22698:22730   */\n      0x4e6f7420656e6f756768206c697175696469747920746f2072656d6f76650000\n        /* \"#utility.yul\":22694:22695   */\n      0x00\n        /* \"#utility.yul\":22686:22692   */\n      dup3\n        /* \"#utility.yul\":22682:22696   */\n      add\n        /* \"#utility.yul\":22675:22731   */\n      mstore\n        /* \"#utility.yul\":22558:22738   */\n      pop\n      jump\t// out\n        /* \"#utility.yul\":22744:22922   */\n    tag_374:\n        /* \"#utility.yul\":22884:22914   */\n      0x496e73756666696369656e742045544820696e20726573657276657300000000\n        /* \"#utility.yul\":22880:22881   */\n      0x00\n        /* \"#utility.yul\":22872:22878   */\n      dup3\n        /* \"#utility.yul\":22868:22882   */\n      add\n        /* \"#utility.yul\":22861:22915   */\n      mstore\n        /* \"#utility.yul\":22744:22922   */\n      pop\n      jump\t// out\n        /* \"#utility.yul\":22928:23099   */\n    tag_379:\n        /* \"#utility.yul\":23068:23091   */\n      0x546f6b656e207472616e73666572206661696c65640000000000000000000000\n        /* \"#utility.yul\":23064:23065   */\n      0x00\n        /* \"#utility.yul\":23056:23062   */\n      dup3\n        /* \"#utility.yul\":23052:23066   */\n      add\n        /* \"#utility.yul\":23045:23092   */\n      mstore\n        /* \"#utility.yul\":22928:23099   */\n      pop\n      jump\t// out\n        /* \"#utility.yul\":23105:23273   */\n    tag_384:\n        /* \"#utility.yul\":23245:23265   */\n      0x52657365727665732061726520656d7074790000000000000000000000000000\n        /* \"#utility.yul\":23241:23242   */\n      0x00\n        /* \"#utility.yul\":23233:23239   */\n      dup3\n        /* \"#utility.yul\":23229:23243   */\n      add\n        /* \"#utility.yul\":23222:23266   */\n      mstore\n        /* \"#utility.yul\":23105:23273   */\n      pop\n      jump\t// out\n        /* \"#utility.yul\":23279:23440   */\n    tag_389:\n        /* \"#utility.yul\":23419:23432   */\n      0x4e6f204554482073656e74000000000000000000000000000000000000000000\n        /* \"#utility.yul\":23415:23416   */\n      0x00\n        /* \"#utility.yul\":23407:23413   */\n      dup3\n        /* \"#utility.yul\":23403:23417   */\n      add\n        /* \"#utility.yul\":23396:23433   */\n      mstore\n        /* \"#utility.yul\":23279:23440   */\n      pop\n      jump\t// out\n        /* \"#utility.yul\":23446:23628   */\n    tag_394:\n        /* \"#utility.yul\":23586:23620   */\n      0x4f776e61626c653a2063616c6c6572206973206e6f7420746865206f776e6572\n        /* \"#utility.yul\":23582:23583   */\n      0x00\n        /* \"#utility.yul\":23574:23580   */\n      dup3\n        /* \"#utility.yul\":23570:23584   */\n      add\n        /* \"#utility.yul\":23563:23621   */\n      mstore\n        /* \"#utility.yul\":23446:23628   */\n      pop\n      jump\t// out\n        /* \"#utility.yul\":23634:23806   */\n    tag_399:\n        /* \"#utility.yul\":23774:23798   */\n      0x4e6f206c697175696469747920746f2072656d6f766500000000000000000000\n        /* \"#utility.yul\":23770:23771   */\n      0x00\n        /* \"#utility.yul\":23762:23768   */\n      dup3\n        /* \"#utility.yul\":23758:23772   */\n      add\n        /* \"#utility.yul\":23751:23799   */\n      mstore\n        /* \"#utility.yul\":23634:23806   */\n      pop\n      jump\t// out\n        /* \"#utility.yul\":23812:24032   */\n    tag_404:\n        /* \"#utility.yul\":23952:23986   */\n      0x4d7573742070726f7669646520746f6b656e7320666f72206c69717569646974\n        /* \"#utility.yul\":23948:23949   */\n      0x00\n        /* \"#utility.yul\":23940:23946   */\n      dup3\n        /* \"#utility.yul\":23936:23950   */\n      add\n        /* \"#utility.yul\":23929:23987   */\n      mstore\n        /* \"#utility.yul\":24021:24024   */\n      0x7900000000000000000000000000000000000000000000000000000000000000\n        /* \"#utility.yul\":24016:24018   */\n      0x20\n        /* \"#utility.yul\":24008:24014   */\n      dup3\n        /* \"#utility.yul\":24004:24019   */\n      add\n        /* \"#utility.yul\":23997:24025   */\n      mstore\n        /* \"#utility.yul\":23812:24032   */\n      pop\n      jump\t// out\n        /* \"#utility.yul\":24038:24219   */\n    tag_409:\n        /* \"#utility.yul\":24178:24211   */\n      0x496e73756666696369656e7420746f6b656e7320696e20726573657276657300\n        /* \"#utility.yul\":24174:24175   */\n      0x00\n        /* \"#utility.yul\":24166:24172   */\n      dup3\n        /* \"#utility.yul\":24162:24176   */\n      add\n        /* \"#utility.yul\":24155:24212   */\n      mstore\n        /* \"#utility.yul\":24038:24219   */\n      pop\n      jump\t// out\n        /* \"#utility.yul\":24225:24398   */\n    tag_414:\n        /* \"#utility.yul\":24365:24390   */\n      0x45544820726573657276657320776173206e6f7420302e000000000000000000\n        /* \"#utility.yul\":24361:24362   */\n      0x00\n        /* \"#utility.yul\":24353:24359   */\n      dup3\n        /* \"#utility.yul\":24349:24363   */\n      add\n        /* \"#utility.yul\":24342:24391   */\n      mstore\n        /* \"#utility.yul\":24225:24398   */\n      pop\n      jump\t// out\n        /* \"#utility.yul\":24404:24573   */\n    tag_419:\n        /* \"#utility.yul\":24544:24565   */\n      0x496e73756666696369656e7420746f6b656e7300000000000000000000000000\n        /* \"#utility.yul\":24540:24541   */\n      0x00\n        /* \"#utility.yul\":24532:24538   */\n      dup3\n        /* \"#utility.yul\":24528:24542   */\n      add\n        /* \"#utility.yul\":24521:24566   */\n      mstore\n        /* \"#utility.yul\":24404:24573   */\n      pop\n      jump\t// out\n        /* \"#utility.yul\":24579:24701   */\n    tag_291:\n        /* \"#utility.yul\":24652:24676   */\n      tag_531\n        /* \"#utility.yul\":24670:24675   */\n      dup2\n        /* \"#utility.yul\":24652:24676   */\n      tag_323\n      jump\t// in\n    tag_531:\n        /* \"#utility.yul\":24645:24650   */\n      dup2\n        /* \"#utility.yul\":24642:24677   */\n      eq\n        /* \"#utility.yul\":24632:24695   */\n      tag_532\n      jumpi\n        /* \"#utility.yul\":24691:24692   */\n      0x00\n        /* \"#utility.yul\":24688:24689   */\n      dup1\n        /* \"#utility.yul\":24681:24693   */\n      revert\n        /* \"#utility.yul\":24632:24695   */\n    tag_532:\n        /* \"#utility.yul\":24579:24701   */\n      pop\n      jump\t// out\n        /* \"#utility.yul\":24707:24823   */\n    tag_295:\n        /* \"#utility.yul\":24777:24798   */\n      tag_534\n        /* \"#utility.yul\":24792:24797   */\n      dup2\n        /* \"#utility.yul\":24777:24798   */\n      tag_501\n      jump\t// in\n    tag_534:\n        /* \"#utility.yul\":24770:24775   */\n      dup2\n        /* \"#utility.yul\":24767:24799   */\n      eq\n        /* \"#utility.yul\":24757:24817   */\n      tag_535\n      jumpi\n        /* \"#utility.yul\":24813:24814   */\n      0x00\n        /* \"#utility.yul\":24810:24811   */\n      dup1\n        /* \"#utility.yul\":24803:24815   */\n      revert\n        /* \"#utility.yul\":24757:24817   */\n    tag_535:\n        /* \"#utility.yul\":24707:24823   */\n      pop\n      jump\t// out\n        /* \"#utility.yul\":24829:24951   */\n    tag_299:\n        /* \"#utility.yul\":24902:24926   */\n      tag_537\n        /* \"#utility.yul\":24920:24925   */\n      dup2\n        /* \"#utility.yul\":24902:24926   */\n      tag_423\n      jump\t// in\n    tag_537:\n        /* \"#utility.yul\":24895:24900   */\n      dup2\n        /* \"#utility.yul\":24892:24927   */\n      eq\n        /* \"#utility.yul\":24882:24945   */\n      tag_538\n      jumpi\n        /* \"#utility.yul\":24941:24942   */\n      0x00\n        /* \"#utility.yul\":24938:24939   */\n      dup1\n        /* \"#utility.yul\":24931:24943   */\n      revert\n        /* \"#utility.yul\":24882:24945   */\n    tag_538:\n        /* \"#utility.yul\":24829:24951   */\n      pop\n      jump\t// out\n\n    auxdata: 0xa2646970667358221220f03b119a95fea9d507ee07bc13e7af67cfe42c1d596dd28938fac865acd769e664736f6c63430008070033\n}\n",
				"bytecode": {
					"linkReferences": {},
					"object": "608060405273ed97fe03b443901d1f880fab00c2a50a8411aa51600260006101000a81548173ffffffffffffffffffffffffffffffffffffffff021916908373ffffffffffffffffffffffffffffffffffffffff160217905550600260009054906101000a900473ffffffffffffffffffffffffffffffffffffffff16600360006101000a81548173ffffffffffffffffffffffffffffffffffffffff021916908373ffffffffffffffffffffffffffffffffffffffff16021790555060006004556000600555600060075560646008553480156100dc57600080fd5b50336000806101000a81548173ffffffffffffffffffffffffffffffffffffffff021916908373ffffffffffffffffffffffffffffffffffffffff16021790555033600160006101000a81548173ffffffffffffffffffffffffffffffffffffffff021916908373ffffffffffffffffffffffffffffffffffffffff16021790555061240f8061016d6000396000f3fe6080604052600436106100fe5760003560e01c80639adb3b9711610095578063c38ad27311610064578063c38ad27314610301578063d592cbf61461032c578063e56a645e14610336578063eeddd4f614610352578063f851a4401461038f576100fe565b80639adb3b97146102525780639c8f9f231461027d578063b4f40c6114610299578063ba4c28c3146102c4576100fe565b806358cd35db116100d157806358cd35db146101c45780638259e6a01461020157806388a780e51461021d57806397ba499f14610227576100fe565b8063156ac5ca146101035780632ff6fe761461014057806333aafe151461016b57806351c6590a146101a8575b600080fd5b34801561010f57600080fd5b5061012a6004803603810190610125919061185c565b6103ba565b6040516101379190611e48565b60405180910390f35b34801561014c57600080fd5b506101556103c1565b6040516101629190611e48565b60405180910390f35b34801561017757600080fd5b50610192600480360381019061018d919061185c565b61041c565b60405161019f9190611e48565b60405180910390f35b6101c260048036038101906101bd919061185c565b6104f5565b005b3480156101d057600080fd5b506101eb60048036038101906101e6919061185c565b6107d1565b6040516101f89190611e48565b60405180910390f35b61021b6004803603810190610216919061185c565b6108aa565b005b610225610b65565b005b34801561023357600080fd5b5061023c610ec0565b6040516102499190611e48565b60405180910390f35b34801561025e57600080fd5b50610267610ec6565b6040516102749190611e48565b60405180910390f35b6102976004803603810190610292919061185c565b610ecc565b005b3480156102a557600080fd5b506102ae611207565b6040516102bb9190611e48565b60405180910390f35b3480156102d057600080fd5b506102eb60048036038101906102e69190611802565b61120d565b6040516102f89190611e48565b60405180910390f35b34801561030d57600080fd5b50610316611225565b6040516103239190611e48565b60405180910390f35b610334611280565b005b610350600480360381019061034b919061185c565b611446565b005b34801561035e57600080fd5b506103796004803603810190610374919061185c565b6116fa565b6040516103869190611e48565b60405180910390f35b34801561039b57600080fd5b506103a4611701565b6040516103b19190611b6d565b60405180910390f35b6000919050565b60008060045411610407576040517f08c379a00000000000000000000000000000000000000000000000000000000081526004016103fe90611be8565b60405180910390fd5b6005546004546104179190611eca565b905090565b60008060045411801561043157506000600554115b610470576040517f08c379a000000000000000000000000000000000000000000000000000000000815260040161046790611d48565b60405180910390fd5b6000826005546104809190611e74565b90506000816006546104929190611eca565b905060045481106104d8576040517f08c379a00000000000000000000000000000000000000000000000000000000081526004016104cf90611c88565b60405180910390fd5b6000816004546104e89190611f55565b9050809350505050919050565b60003411610538576040517f08c379a000000000000000000000000000000000000000000000000000000000815260040161052f90611ca8565b60405180910390fd5b6000811161057b576040517f08c379a000000000000000000000000000000000000000000000000000000000815260040161057290611dc8565b60405180910390fd5b600060045411801561058f57506000600554115b156105f157806005546105a29190611efb565b346004546105b09190611efb565b146105f0576040517f08c379a00000000000000000000000000000000000000000000000000000000081526004016105e790611c68565b60405180910390fd5b5b600360009054906101000a900473ffffffffffffffffffffffffffffffffffffffff1673ffffffffffffffffffffffffffffffffffffffff166323b872dd3330846040518463ffffffff1660e01b815260040161065093929190611b88565b602060405180830381600087803b15801561066a57600080fd5b505af115801561067e573d6000803e3d6000fd5b505050506040513d601f19601f820116820180604052508101906106a2919061182f565b6106e1576040517f08c379a00000000000000000000000000000000000000000000000000000000081526004016106d890611d28565b60405180910390fd5b80600460008282546106f39190611e74565b92505081905550346005600082825461070c9190611e74565b925050819055506005546004546107239190611efb565b6006819055506005546004546107399190611efb565b60068190555034600960003373ffffffffffffffffffffffffffffffffffffffff1673ffffffffffffffffffffffffffffffffffffffff168152602001908152602001600020600082825461078e9190611e74565b925050819055507fbb37879e252460856212dc4e8c6edf174e473df9423e3a7feccd21f8c28d587a33826040516107c6929190611bbf565b60405180910390a150565b6000806004541180156107e657506000600554115b610825576040517f08c379a000000000000000000000000000000000000000000000000000000000815260040161081c90611d48565b60405180910390fd5b6000826004546108359190611e74565b90506000816006546108479190611eca565b9050600554811061088d576040517f08c379a000000000000000000000000000000000000000000000000000000000815260040161088490611c88565b60405180910390fd5b60008160055461089d9190611f55565b9050809350505050919050565b3373ffffffffffffffffffffffffffffffffffffffff1660008054906101000a900473ffffffffffffffffffffffffffffffffffffffff1673ffffffffffffffffffffffffffffffffffffffff1614610938576040517f08c379a000000000000000000000000000000000000000000000000000000000815260040161092f90611d88565b60405180910390fd5b60006004541461097d576040517f08c379a000000000000000000000000000000000000000000000000000000000815260040161097490611cc8565b60405180910390fd5b6000600554146109c2576040517f08c379a00000000000000000000000000000000000000000000000000000000081526004016109b990611e08565b60405180910390fd5b60003411610a05576040517f08c379a00000000000000000000000000000000000000000000000000000000081526004016109fc90611c08565b60405180910390fd5b60008111610a48576040517f08c379a0000000000000000000000000000000000000000000000000000000008152600401610a3f90611c28565b60405180910390fd5b600360009054906101000a900473ffffffffffffffffffffffffffffffffffffffff1673ffffffffffffffffffffffffffffffffffffffff166323b872dd3330846040518463ffffffff1660e01b8152600401610aa793929190611b88565b602060405180830381600087803b158015610ac157600080fd5b505af1158015610ad5573d6000803e3d6000fd5b505050506040513d601f19601f82011682018060405250810190610af9919061182f565b503460058190555080600481905550600454600554610b189190611efb565b60068190555034600960003373ffffffffffffffffffffffffffffffffffffffff1673ffffffffffffffffffffffffffffffffffffffff1681526020019081526020016000208190555050565b6000600960003373ffffffffffffffffffffffffffffffffffffffff1673ffffffffffffffffffffffffffffffffffffffff16815260200190815260200160002054905060008111610bec576040517f08c379a0000000000000000000000000000000000000000000000000000000008152600401610be390611da8565b60405180910390fd5b6000600554670de0b6b3a764000083610c059190611efb565b610c0f9190611eca565b90506000670de0b6b3a764000082600454610c2a9190611efb565b610c349190611eca565b9050826005541015610c7b576040517f08c379a0000000000000000000000000000000000000000000000000000000008152600401610c7290611d08565b60405180910390fd5b806004541015610cc0576040517f08c379a0000000000000000000000000000000000000000000000000000000008152600401610cb790611de8565b60405180910390fd5b8260056000828254610cd29190611f55565b925050819055508060046000828254610ceb9190611f55565b92505081905550600554600454610d029190611efb565b6006819055506000600960003373ffffffffffffffffffffffffffffffffffffffff1673ffffffffffffffffffffffffffffffffffffffff168152602001908152602001600020819055503373ffffffffffffffffffffffffffffffffffffffff166108fc849081150290604051600060405180830381858888f19350505050158015610d93573d6000803e3d6000fd5b50600360009054906101000a900473ffffffffffffffffffffffffffffffffffffffff1673ffffffffffffffffffffffffffffffffffffffff1663a9059cbb33836040518363ffffffff1660e01b8152600401610df1929190611bbf565b602060405180830381600087803b158015610e0b57600080fd5b505af1158015610e1f573d6000803e3d6000fd5b505050506040513d601f19601f82011682018060405250810190610e43919061182f565b610e82576040517f08c379a0000000000000000000000000000000000000000000000000000000008152600401610e7990611d28565b60405180910390fd5b7fdfdd120ded9b7afc0c23dd5310e93aaa3e1c3b9f75af9b805fab3030842439f23384604051610eb3929190611bbf565b60405180910390a1505050565b60055481565b60045481565b80600960003373ffffffffffffffffffffffffffffffffffffffff1673ffffffffffffffffffffffffffffffffffffffff168152602001908152602001600020541015610f4e576040517f08c379a0000000000000000000000000000000000000000000000000000000008152600401610f4590611ce8565b60405180910390fd5b600060055460045483610f619190611efb565b610f6b9190611eca565b9050816005541015610fb2576040517f08c379a0000000000000000000000000000000000000000000000000000000008152600401610fa990611d08565b60405180910390fd5b806004541015610ff7576040517f08c379a0000000000000000000000000000000000000000000000000000000008152600401610fee90611de8565b60405180910390fd5b81600560008282546110099190611f55565b9250508190555080600460008282546110229190611f55565b925050819055506005546004546110399190611efb565b6006819055503373ffffffffffffffffffffffffffffffffffffffff166108fc839081150290604051600060405180830381858888f19350505050158015611085573d6000803e3d6000fd5b50600360009054906101000a900473ffffffffffffffffffffffffffffffffffffffff1673ffffffffffffffffffffffffffffffffffffffff1663a9059cbb33836040518363ffffffff1660e01b81526004016110e3929190611bbf565b602060405180830381600087803b1580156110fd57600080fd5b505af1158015611111573d6000803e3d6000fd5b505050506040513d601f19601f82011682018060405250810190611135919061182f565b611174576040517f08c379a000000000000000000000000000000000000000000000000000000000815260040161116b90611d28565b60405180910390fd5b81600960003373ffffffffffffffffffffffffffffffffffffffff1673ffffffffffffffffffffffffffffffffffffffff16815260200190815260200160002060008282546111c39190611f55565b925050819055507fdfdd120ded9b7afc0c23dd5310e93aaa3e1c3b9f75af9b805fab3030842439f233836040516111fb929190611bbf565b60405180910390a15050565b60065481565b60096020528060005260406000206000915090505481565b6000806005541161126b576040517f08c379a000000000000000000000000000000000000000000000000000000000815260040161126290611c48565b60405180910390fd5b60045460055461127b9190611eca565b905090565b6000349050600081116112c8576040517f08c379a00000000000000000000000000000000000000000000000000000000081526004016112bf90611d68565b60405180910390fd5b60006112d38261041c565b905060045481111561131a576040517f08c379a000000000000000000000000000000000000000000000000000000000815260040161131190611de8565b60405180910390fd5b816005600082825461132c9190611e74565b9250508190555080600460008282546113459190611f55565b92505081905550600360009054906101000a900473ffffffffffffffffffffffffffffffffffffffff1673ffffffffffffffffffffffffffffffffffffffff1663a9059cbb33836040518363ffffffff1660e01b81526004016113a9929190611bbf565b602060405180830381600087803b1580156113c357600080fd5b505af11580156113d7573d6000803e3d6000fd5b505050506040513d601f19601f820116820180604052508101906113fb919061182f565b61143a576040517f08c379a000000000000000000000000000000000000000000000000000000000815260040161143190611d28565b60405180910390fd5b611442611727565b5050565b80600360009054906101000a900473ffffffffffffffffffffffffffffffffffffffff1673ffffffffffffffffffffffffffffffffffffffff166370a08231336040518263ffffffff1660e01b81526004016114a29190611b6d565b60206040518083038186803b1580156114ba57600080fd5b505afa1580156114ce573d6000803e3d6000fd5b505050506040513d601f19601f820116820180604052508101906114f29190611889565b1015611533576040517f08c379a000000000000000000000000000000000000000000000000000000000815260040161152a90611e28565b60405180910390fd5b600061153e826107d1565b9050600554811115611585576040517f08c379a000000000000000000000000000000000000000000000000000000000815260040161157c90611d08565b60405180910390fd5b600360009054906101000a900473ffffffffffffffffffffffffffffffffffffffff1673ffffffffffffffffffffffffffffffffffffffff166323b872dd3330856040518463ffffffff1660e01b81526004016115e493929190611b88565b602060405180830381600087803b1580156115fe57600080fd5b505af1158015611612573d6000803e3d6000fd5b505050506040513d601f19601f82011682018060405250810190611636919061182f565b611675576040517f08c379a000000000000000000000000000000000000000000000000000000000815260040161166c90611d28565b60405180910390fd5b81600460008282546116879190611e74565b9250508190555080600560008282546116a09190611f55565b925050819055503373ffffffffffffffffffffffffffffffffffffffff166108fc829081150290604051600060405180830381858888f193505050501580156116ed573d6000803e3d6000fd5b506116f6611727565b5050565b6000919050565b600160009054906101000a900473ffffffffffffffffffffffffffffffffffffffff1681565b60006005546004546117399190611efb565b9050600654811061175957600654816117529190611f55565b905061176a565b806006546117679190611f55565b90505b600160055460045461177c9190611e74565b6117869190611e74565b811061179557611794611fd1565b5b6005546004546117a59190611efb565b60068190555050565b6000813590506117bd81612394565b92915050565b6000815190506117d2816123ab565b92915050565b6000813590506117e7816123c2565b92915050565b6000815190506117fc816123c2565b92915050565b6000602082840312156118185761181761205e565b5b6000611826848285016117ae565b91505092915050565b6000602082840312156118455761184461205e565b5b6000611853848285016117c3565b91505092915050565b6000602082840312156118725761187161205e565b5b6000611880848285016117d8565b91505092915050565b60006020828403121561189f5761189e61205e565b5b60006118ad848285016117ed565b91505092915050565b6118bf81611f89565b82525050565b60006118d2601583611e63565b91506118dd82612063565b602082019050919050565b60006118f5601883611e63565b91506119008261208c565b602082019050919050565b6000611918601b83611e63565b9150611923826120b5565b602082019050919050565b600061193b601283611e63565b9150611946826120de565b602082019050919050565b600061195e601c83611e63565b915061196982612107565b602082019050919050565b6000611981600c83611e63565b915061198c82612130565b602082019050919050565b60006119a4601e83611e63565b91506119af82612159565b602082019050919050565b60006119c7601883611e63565b91506119d282612182565b602082019050919050565b60006119ea601e83611e63565b91506119f5826121ab565b602082019050919050565b6000611a0d601c83611e63565b9150611a18826121d4565b602082019050919050565b6000611a30601583611e63565b9150611a3b826121fd565b602082019050919050565b6000611a53601283611e63565b9150611a5e82612226565b602082019050919050565b6000611a76600b83611e63565b9150611a818261224f565b602082019050919050565b6000611a99602083611e63565b9150611aa482612278565b602082019050919050565b6000611abc601683611e63565b9150611ac7826122a1565b602082019050919050565b6000611adf602183611e63565b9150611aea826122ca565b604082019050919050565b6000611b02601f83611e63565b9150611b0d82612319565b602082019050919050565b6000611b25601783611e63565b9150611b3082612342565b602082019050919050565b6000611b48601383611e63565b9150611b538261236b565b602082019050919050565b611b6781611fc7565b82525050565b6000602082019050611b8260008301846118b6565b92915050565b6000606082019050611b9d60008301866118b6565b611baa60208301856118b6565b611bb76040830184611b5e565b949350505050565b6000604082019050611bd460008301856118b6565b611be16020830184611b5e565b9392505050565b60006020820190508181036000830152611c01816118c5565b9050919050565b60006020820190508181036000830152611c21816118e8565b9050919050565b60006020820190508181036000830152611c418161190b565b9050919050565b60006020820190508181036000830152611c618161192e565b9050919050565b60006020820190508181036000830152611c8181611951565b9050919050565b60006020820190508181036000830152611ca181611974565b9050919050565b60006020820190508181036000830152611cc181611997565b9050919050565b60006020820190508181036000830152611ce1816119ba565b9050919050565b60006020820190508181036000830152611d01816119dd565b9050919050565b60006020820190508181036000830152611d2181611a00565b9050919050565b60006020820190508181036000830152611d4181611a23565b9050919050565b60006020820190508181036000830152611d6181611a46565b9050919050565b60006020820190508181036000830152611d8181611a69565b9050919050565b60006020820190508181036000830152611da181611a8c565b9050919050565b60006020820190508181036000830152611dc181611aaf565b9050919050565b60006020820190508181036000830152611de181611ad2565b9050919050565b60006020820190508181036000830152611e0181611af5565b9050919050565b60006020820190508181036000830152611e2181611b18565b9050919050565b60006020820190508181036000830152611e4181611b3b565b9050919050565b6000602082019050611e5d6000830184611b5e565b92915050565b600082825260208201905092915050565b6000611e7f82611fc7565b9150611e8a83611fc7565b9250827fffffffffffffffffffffffffffffffffffffffffffffffffffffffffffffffff03821115611ebf57611ebe612000565b5b828201905092915050565b6000611ed582611fc7565b9150611ee083611fc7565b925082611ef057611eef61202f565b5b828204905092915050565b6000611f0682611fc7565b9150611f1183611fc7565b9250817fffffffffffffffffffffffffffffffffffffffffffffffffffffffffffffffff0483118215151615611f4a57611f49612000565b5b828202905092915050565b6000611f6082611fc7565b9150611f6b83611fc7565b925082821015611f7e57611f7d612000565b5b828203905092915050565b6000611f9482611fa7565b9050919050565b60008115159050919050565b600073ffffffffffffffffffffffffffffffffffffffff82169050919050565b6000819050919050565b7f4e487b7100000000000000000000000000000000000000000000000000000000600052600160045260246000fd5b7f4e487b7100000000000000000000000000000000000000000000000000000000600052601160045260246000fd5b7f4e487b7100000000000000000000000000000000000000000000000000000000600052601260045260246000fd5b600080fd5b7f4e6f20746f6b656e7320696e2072657365727665730000000000000000000000600082015250565b7f4e6565642045544820746f2063726561746520706f6f6c2e0000000000000000600082015250565b7f4e65656420746f6b656e7320746f2063726561746520706f6f6c2e0000000000600082015250565b7f4e6f2045544820696e2072657365727665730000000000000000000000000000600082015250565b7f496e636f72726563742045544820746f20546f6b656e20726174696f00000000600082015250565b7f496e76616c696420737761700000000000000000000000000000000000000000600082015250565b7f4d7573742070726f766964652045544820666f72206c69717569646974790000600082015250565b7f546f6b656e20726573657276657320776173206e6f7420300000000000000000600082015250565b7f4e6f7420656e6f756768206c697175696469747920746f2072656d6f76650000600082015250565b7f496e73756666696369656e742045544820696e20726573657276657300000000600082015250565b7f546f6b656e207472616e73666572206661696c65640000000000000000000000600082015250565b7f52657365727665732061726520656d7074790000000000000000000000000000600082015250565b7f4e6f204554482073656e74000000000000000000000000000000000000000000600082015250565b7f4f776e61626c653a2063616c6c6572206973206e6f7420746865206f776e6572600082015250565b7f4e6f206c697175696469747920746f2072656d6f766500000000000000000000600082015250565b7f4d7573742070726f7669646520746f6b656e7320666f72206c6971756964697460008201527f7900000000000000000000000000000000000000000000000000000000000000602082015250565b7f496e73756666696369656e7420746f6b656e7320696e20726573657276657300600082015250565b7f45544820726573657276657320776173206e6f7420302e000000000000000000600082015250565b7f496e73756666696369656e7420746f6b656e7300000000000000000000000000600082015250565b61239d81611f89565b81146123a857600080fd5b50565b6123b481611f9b565b81146123bf57600080fd5b50565b6123cb81611fc7565b81146123d657600080fd5b5056fea2646970667358221220f03b119a95fea9d507ee07bc13e7af67cfe42c1d596dd28938fac865acd769e664736f6c63430008070033",
					"opcodes": "PUSH1 0x80 PUSH1 0x40 MSTORE PUSH20 0xED97FE03B443901D1F880FAB00C2A50A8411AA51 PUSH1 0x2 PUSH1 0x0 PUSH2 0x100 EXP DUP2 SLOAD DUP2 PUSH20 0xFFFFFFFFFFFFFFFFFFFFFFFFFFFFFFFFFFFFFFFF MUL NOT AND SWAP1 DUP4 PUSH20 0xFFFFFFFFFFFFFFFFFFFFFFFFFFFFFFFFFFFFFFFF AND MUL OR SWAP1 SSTORE POP PUSH1 0x2 PUSH1 0x0 SWAP1 SLOAD SWAP1 PUSH2 0x100 EXP SWAP1 DIV PUSH20 0xFFFFFFFFFFFFFFFFFFFFFFFFFFFFFFFFFFFFFFFF AND PUSH1 0x3 PUSH1 0x0 PUSH2 0x100 EXP DUP2 SLOAD DUP2 PUSH20 0xFFFFFFFFFFFFFFFFFFFFFFFFFFFFFFFFFFFFFFFF MUL NOT AND SWAP1 DUP4 PUSH20 0xFFFFFFFFFFFFFFFFFFFFFFFFFFFFFFFFFFFFFFFF AND MUL OR SWAP1 SSTORE POP PUSH1 0x0 PUSH1 0x4 SSTORE PUSH1 0x0 PUSH1 0x5 SSTORE PUSH1 0x0 PUSH1 0x7 SSTORE PUSH1 0x64 PUSH1 0x8 SSTORE CALLVALUE DUP1 ISZERO PUSH2 0xDC JUMPI PUSH1 0x0 DUP1 REVERT JUMPDEST POP CALLER PUSH1 0x0 DUP1 PUSH2 0x100 EXP DUP2 SLOAD DUP2 PUSH20 0xFFFFFFFFFFFFFFFFFFFFFFFFFFFFFFFFFFFFFFFF MUL NOT AND SWAP1 DUP4 PUSH20 0xFFFFFFFFFFFFFFFFFFFFFFFFFFFFFFFFFFFFFFFF AND MUL OR SWAP1 SSTORE POP CALLER PUSH1 0x1 PUSH1 0x0 PUSH2 0x100 EXP DUP2 SLOAD DUP2 PUSH20 0xFFFFFFFFFFFFFFFFFFFFFFFFFFFFFFFFFFFFFFFF MUL NOT AND SWAP1 DUP4 PUSH20 0xFFFFFFFFFFFFFFFFFFFFFFFFFFFFFFFFFFFFFFFF AND MUL OR SWAP1 SSTORE POP PUSH2 0x240F DUP1 PUSH2 0x16D PUSH1 0x0 CODECOPY PUSH1 0x0 RETURN INVALID PUSH1 0x80 PUSH1 0x40 MSTORE PUSH1 0x4 CALLDATASIZE LT PUSH2 0xFE JUMPI PUSH1 0x0 CALLDATALOAD PUSH1 0xE0 SHR DUP1 PUSH4 0x9ADB3B97 GT PUSH2 0x95 JUMPI DUP1 PUSH4 0xC38AD273 GT PUSH2 0x64 JUMPI DUP1 PUSH4 0xC38AD273 EQ PUSH2 0x301 JUMPI DUP1 PUSH4 0xD592CBF6 EQ PUSH2 0x32C JUMPI DUP1 PUSH4 0xE56A645E EQ PUSH2 0x336 JUMPI DUP1 PUSH4 0xEEDDD4F6 EQ PUSH2 0x352 JUMPI DUP1 PUSH4 0xF851A440 EQ PUSH2 0x38F JUMPI PUSH2 0xFE JUMP JUMPDEST DUP1 PUSH4 0x9ADB3B97 EQ PUSH2 0x252 JUMPI DUP1 PUSH4 0x9C8F9F23 EQ PUSH2 0x27D JUMPI DUP1 PUSH4 0xB4F40C61 EQ PUSH2 0x299 JUMPI DUP1 PUSH4 0xBA4C28C3 EQ PUSH2 0x2C4 JUMPI PUSH2 0xFE JUMP JUMPDEST DUP1 PUSH4 0x58CD35DB GT PUSH2 0xD1 JUMPI DUP1 PUSH4 0x58CD35DB EQ PUSH2 0x1C4 JUMPI DUP1 PUSH4 0x8259E6A0 EQ PUSH2 0x201 JUMPI DUP1 PUSH4 0x88A780E5 EQ PUSH2 0x21D JUMPI DUP1 PUSH4 0x97BA499F EQ PUSH2 0x227 JUMPI PUSH2 0xFE JUMP JUMPDEST DUP1 PUSH4 0x156AC5CA EQ PUSH2 0x103 JUMPI DUP1 PUSH4 0x2FF6FE76 EQ PUSH2 0x140 JUMPI DUP1 PUSH4 0x33AAFE15 EQ PUSH2 0x16B JUMPI DUP1 PUSH4 0x51C6590A EQ PUSH2 0x1A8 JUMPI JUMPDEST PUSH1 0x0 DUP1 REVERT JUMPDEST CALLVALUE DUP1 ISZERO PUSH2 0x10F JUMPI PUSH1 0x0 DUP1 REVERT JUMPDEST POP PUSH2 0x12A PUSH1 0x4 DUP1 CALLDATASIZE SUB DUP2 ADD SWAP1 PUSH2 0x125 SWAP2 SWAP1 PUSH2 0x185C JUMP JUMPDEST PUSH2 0x3BA JUMP JUMPDEST PUSH1 0x40 MLOAD PUSH2 0x137 SWAP2 SWAP1 PUSH2 0x1E48 JUMP JUMPDEST PUSH1 0x40 MLOAD DUP1 SWAP2 SUB SWAP1 RETURN JUMPDEST CALLVALUE DUP1 ISZERO PUSH2 0x14C JUMPI PUSH1 0x0 DUP1 REVERT JUMPDEST POP PUSH2 0x155 PUSH2 0x3C1 JUMP JUMPDEST PUSH1 0x40 MLOAD PUSH2 0x162 SWAP2 SWAP1 PUSH2 0x1E48 JUMP JUMPDEST PUSH1 0x40 MLOAD DUP1 SWAP2 SUB SWAP1 RETURN JUMPDEST CALLVALUE DUP1 ISZERO PUSH2 0x177 JUMPI PUSH1 0x0 DUP1 REVERT JUMPDEST POP PUSH2 0x192 PUSH1 0x4 DUP1 CALLDATASIZE SUB DUP2 ADD SWAP1 PUSH2 0x18D SWAP2 SWAP1 PUSH2 0x185C JUMP JUMPDEST PUSH2 0x41C JUMP JUMPDEST PUSH1 0x40 MLOAD PUSH2 0x19F SWAP2 SWAP1 PUSH2 0x1E48 JUMP JUMPDEST PUSH1 0x40 MLOAD DUP1 SWAP2 SUB SWAP1 RETURN JUMPDEST PUSH2 0x1C2 PUSH1 0x4 DUP1 CALLDATASIZE SUB DUP2 ADD SWAP1 PUSH2 0x1BD SWAP2 SWAP1 PUSH2 0x185C JUMP JUMPDEST PUSH2 0x4F5 JUMP JUMPDEST STOP JUMPDEST CALLVALUE DUP1 ISZERO PUSH2 0x1D0 JUMPI PUSH1 0x0 DUP1 REVERT JUMPDEST POP PUSH2 0x1EB PUSH1 0x4 DUP1 CALLDATASIZE SUB DUP2 ADD SWAP1 PUSH2 0x1E6 SWAP2 SWAP1 PUSH2 0x185C JUMP JUMPDEST PUSH2 0x7D1 JUMP JUMPDEST PUSH1 0x40 MLOAD PUSH2 0x1F8 SWAP2 SWAP1 PUSH2 0x1E48 JUMP JUMPDEST PUSH1 0x40 MLOAD DUP1 SWAP2 SUB SWAP1 RETURN JUMPDEST PUSH2 0x21B PUSH1 0x4 DUP1 CALLDATASIZE SUB DUP2 ADD SWAP1 PUSH2 0x216 SWAP2 SWAP1 PUSH2 0x185C JUMP JUMPDEST PUSH2 0x8AA JUMP JUMPDEST STOP JUMPDEST PUSH2 0x225 PUSH2 0xB65 JUMP JUMPDEST STOP JUMPDEST CALLVALUE DUP1 ISZERO PUSH2 0x233 JUMPI PUSH1 0x0 DUP1 REVERT JUMPDEST POP PUSH2 0x23C PUSH2 0xEC0 JUMP JUMPDEST PUSH1 0x40 MLOAD PUSH2 0x249 SWAP2 SWAP1 PUSH2 0x1E48 JUMP JUMPDEST PUSH1 0x40 MLOAD DUP1 SWAP2 SUB SWAP1 RETURN JUMPDEST CALLVALUE DUP1 ISZERO PUSH2 0x25E JUMPI PUSH1 0x0 DUP1 REVERT JUMPDEST POP PUSH2 0x267 PUSH2 0xEC6 JUMP JUMPDEST PUSH1 0x40 MLOAD PUSH2 0x274 SWAP2 SWAP1 PUSH2 0x1E48 JUMP JUMPDEST PUSH1 0x40 MLOAD DUP1 SWAP2 SUB SWAP1 RETURN JUMPDEST PUSH2 0x297 PUSH1 0x4 DUP1 CALLDATASIZE SUB DUP2 ADD SWAP1 PUSH2 0x292 SWAP2 SWAP1 PUSH2 0x185C JUMP JUMPDEST PUSH2 0xECC JUMP JUMPDEST STOP JUMPDEST CALLVALUE DUP1 ISZERO PUSH2 0x2A5 JUMPI PUSH1 0x0 DUP1 REVERT JUMPDEST POP PUSH2 0x2AE PUSH2 0x1207 JUMP JUMPDEST PUSH1 0x40 MLOAD PUSH2 0x2BB SWAP2 SWAP1 PUSH2 0x1E48 JUMP JUMPDEST PUSH1 0x40 MLOAD DUP1 SWAP2 SUB SWAP1 RETURN JUMPDEST CALLVALUE DUP1 ISZERO PUSH2 0x2D0 JUMPI PUSH1 0x0 DUP1 REVERT JUMPDEST POP PUSH2 0x2EB PUSH1 0x4 DUP1 CALLDATASIZE SUB DUP2 ADD SWAP1 PUSH2 0x2E6 SWAP2 SWAP1 PUSH2 0x1802 JUMP JUMPDEST PUSH2 0x120D JUMP JUMPDEST PUSH1 0x40 MLOAD PUSH2 0x2F8 SWAP2 SWAP1 PUSH2 0x1E48 JUMP JUMPDEST PUSH1 0x40 MLOAD DUP1 SWAP2 SUB SWAP1 RETURN JUMPDEST CALLVALUE DUP1 ISZERO PUSH2 0x30D JUMPI PUSH1 0x0 DUP1 REVERT JUMPDEST POP PUSH2 0x316 PUSH2 0x1225 JUMP JUMPDEST PUSH1 0x40 MLOAD PUSH2 0x323 SWAP2 SWAP1 PUSH2 0x1E48 JUMP JUMPDEST PUSH1 0x40 MLOAD DUP1 SWAP2 SUB SWAP1 RETURN JUMPDEST PUSH2 0x334 PUSH2 0x1280 JUMP JUMPDEST STOP JUMPDEST PUSH2 0x350 PUSH1 0x4 DUP1 CALLDATASIZE SUB DUP2 ADD SWAP1 PUSH2 0x34B SWAP2 SWAP1 PUSH2 0x185C JUMP JUMPDEST PUSH2 0x1446 JUMP JUMPDEST STOP JUMPDEST CALLVALUE DUP1 ISZERO PUSH2 0x35E JUMPI PUSH1 0x0 DUP1 REVERT JUMPDEST POP PUSH2 0x379 PUSH1 0x4 DUP1 CALLDATASIZE SUB DUP2 ADD SWAP1 PUSH2 0x374 SWAP2 SWAP1 PUSH2 0x185C JUMP JUMPDEST PUSH2 0x16FA JUMP JUMPDEST PUSH1 0x40 MLOAD PUSH2 0x386 SWAP2 SWAP1 PUSH2 0x1E48 JUMP JUMPDEST PUSH1 0x40 MLOAD DUP1 SWAP2 SUB SWAP1 RETURN JUMPDEST CALLVALUE DUP1 ISZERO PUSH2 0x39B JUMPI PUSH1 0x0 DUP1 REVERT JUMPDEST POP PUSH2 0x3A4 PUSH2 0x1701 JUMP JUMPDEST PUSH1 0x40 MLOAD PUSH2 0x3B1 SWAP2 SWAP1 PUSH2 0x1B6D JUMP JUMPDEST PUSH1 0x40 MLOAD DUP1 SWAP2 SUB SWAP1 RETURN JUMPDEST PUSH1 0x0 SWAP2 SWAP1 POP JUMP JUMPDEST PUSH1 0x0 DUP1 PUSH1 0x4 SLOAD GT PUSH2 0x407 JUMPI PUSH1 0x40 MLOAD PUSH32 0x8C379A000000000000000000000000000000000000000000000000000000000 DUP2 MSTORE PUSH1 0x4 ADD PUSH2 0x3FE SWAP1 PUSH2 0x1BE8 JUMP JUMPDEST PUSH1 0x40 MLOAD DUP1 SWAP2 SUB SWAP1 REVERT JUMPDEST PUSH1 0x5 SLOAD PUSH1 0x4 SLOAD PUSH2 0x417 SWAP2 SWAP1 PUSH2 0x1ECA JUMP JUMPDEST SWAP1 POP SWAP1 JUMP JUMPDEST PUSH1 0x0 DUP1 PUSH1 0x4 SLOAD GT DUP1 ISZERO PUSH2 0x431 JUMPI POP PUSH1 0x0 PUSH1 0x5 SLOAD GT JUMPDEST PUSH2 0x470 JUMPI PUSH1 0x40 MLOAD PUSH32 0x8C379A000000000000000000000000000000000000000000000000000000000 DUP2 MSTORE PUSH1 0x4 ADD PUSH2 0x467 SWAP1 PUSH2 0x1D48 JUMP JUMPDEST PUSH1 0x40 MLOAD DUP1 SWAP2 SUB SWAP1 REVERT JUMPDEST PUSH1 0x0 DUP3 PUSH1 0x5 SLOAD PUSH2 0x480 SWAP2 SWAP1 PUSH2 0x1E74 JUMP JUMPDEST SWAP1 POP PUSH1 0x0 DUP2 PUSH1 0x6 SLOAD PUSH2 0x492 SWAP2 SWAP1 PUSH2 0x1ECA JUMP JUMPDEST SWAP1 POP PUSH1 0x4 SLOAD DUP2 LT PUSH2 0x4D8 JUMPI PUSH1 0x40 MLOAD PUSH32 0x8C379A000000000000000000000000000000000000000000000000000000000 DUP2 MSTORE PUSH1 0x4 ADD PUSH2 0x4CF SWAP1 PUSH2 0x1C88 JUMP JUMPDEST PUSH1 0x40 MLOAD DUP1 SWAP2 SUB SWAP1 REVERT JUMPDEST PUSH1 0x0 DUP2 PUSH1 0x4 SLOAD PUSH2 0x4E8 SWAP2 SWAP1 PUSH2 0x1F55 JUMP JUMPDEST SWAP1 POP DUP1 SWAP4 POP POP POP POP SWAP2 SWAP1 POP JUMP JUMPDEST PUSH1 0x0 CALLVALUE GT PUSH2 0x538 JUMPI PUSH1 0x40 MLOAD PUSH32 0x8C379A000000000000000000000000000000000000000000000000000000000 DUP2 MSTORE PUSH1 0x4 ADD PUSH2 0x52F SWAP1 PUSH2 0x1CA8 JUMP JUMPDEST PUSH1 0x40 MLOAD DUP1 SWAP2 SUB SWAP1 REVERT JUMPDEST PUSH1 0x0 DUP2 GT PUSH2 0x57B JUMPI PUSH1 0x40 MLOAD PUSH32 0x8C379A000000000000000000000000000000000000000000000000000000000 DUP2 MSTORE PUSH1 0x4 ADD PUSH2 0x572 SWAP1 PUSH2 0x1DC8 JUMP JUMPDEST PUSH1 0x40 MLOAD DUP1 SWAP2 SUB SWAP1 REVERT JUMPDEST PUSH1 0x0 PUSH1 0x4 SLOAD GT DUP1 ISZERO PUSH2 0x58F JUMPI POP PUSH1 0x0 PUSH1 0x5 SLOAD GT JUMPDEST ISZERO PUSH2 0x5F1 JUMPI DUP1 PUSH1 0x5 SLOAD PUSH2 0x5A2 SWAP2 SWAP1 PUSH2 0x1EFB JUMP JUMPDEST CALLVALUE PUSH1 0x4 SLOAD PUSH2 0x5B0 SWAP2 SWAP1 PUSH2 0x1EFB JUMP JUMPDEST EQ PUSH2 0x5F0 JUMPI PUSH1 0x40 MLOAD PUSH32 0x8C379A000000000000000000000000000000000000000000000000000000000 DUP2 MSTORE PUSH1 0x4 ADD PUSH2 0x5E7 SWAP1 PUSH2 0x1C68 JUMP JUMPDEST PUSH1 0x40 MLOAD DUP1 SWAP2 SUB SWAP1 REVERT JUMPDEST JUMPDEST PUSH1 0x3 PUSH1 0x0 SWAP1 SLOAD SWAP1 PUSH2 0x100 EXP SWAP1 DIV PUSH20 0xFFFFFFFFFFFFFFFFFFFFFFFFFFFFFFFFFFFFFFFF AND PUSH20 0xFFFFFFFFFFFFFFFFFFFFFFFFFFFFFFFFFFFFFFFF AND PUSH4 0x23B872DD CALLER ADDRESS DUP5 PUSH1 0x40 MLOAD DUP5 PUSH4 0xFFFFFFFF AND PUSH1 0xE0 SHL DUP2 MSTORE PUSH1 0x4 ADD PUSH2 0x650 SWAP4 SWAP3 SWAP2 SWAP1 PUSH2 0x1B88 JUMP JUMPDEST PUSH1 0x20 PUSH1 0x40 MLOAD DUP1 DUP4 SUB DUP2 PUSH1 0x0 DUP8 DUP1 EXTCODESIZE ISZERO DUP1 ISZERO PUSH2 0x66A JUMPI PUSH1 0x0 DUP1 REVERT JUMPDEST POP GAS CALL ISZERO DUP1 ISZERO PUSH2 0x67E JUMPI RETURNDATASIZE PUSH1 0x0 DUP1 RETURNDATACOPY RETURNDATASIZE PUSH1 0x0 REVERT JUMPDEST POP POP POP POP PUSH1 0x40 MLOAD RETURNDATASIZE PUSH1 0x1F NOT PUSH1 0x1F DUP3 ADD AND DUP3 ADD DUP1 PUSH1 0x40 MSTORE POP DUP2 ADD SWAP1 PUSH2 0x6A2 SWAP2 SWAP1 PUSH2 0x182F JUMP JUMPDEST PUSH2 0x6E1 JUMPI PUSH1 0x40 MLOAD PUSH32 0x8C379A000000000000000000000000000000000000000000000000000000000 DUP2 MSTORE PUSH1 0x4 ADD PUSH2 0x6D8 SWAP1 PUSH2 0x1D28 JUMP JUMPDEST PUSH1 0x40 MLOAD DUP1 SWAP2 SUB SWAP1 REVERT JUMPDEST DUP1 PUSH1 0x4 PUSH1 0x0 DUP3 DUP3 SLOAD PUSH2 0x6F3 SWAP2 SWAP1 PUSH2 0x1E74 JUMP JUMPDEST SWAP3 POP POP DUP2 SWAP1 SSTORE POP CALLVALUE PUSH1 0x5 PUSH1 0x0 DUP3 DUP3 SLOAD PUSH2 0x70C SWAP2 SWAP1 PUSH2 0x1E74 JUMP JUMPDEST SWAP3 POP POP DUP2 SWAP1 SSTORE POP PUSH1 0x5 SLOAD PUSH1 0x4 SLOAD PUSH2 0x723 SWAP2 SWAP1 PUSH2 0x1EFB JUMP JUMPDEST PUSH1 0x6 DUP2 SWAP1 SSTORE POP PUSH1 0x5 SLOAD PUSH1 0x4 SLOAD PUSH2 0x739 SWAP2 SWAP1 PUSH2 0x1EFB JUMP JUMPDEST PUSH1 0x6 DUP2 SWAP1 SSTORE POP CALLVALUE PUSH1 0x9 PUSH1 0x0 CALLER PUSH20 0xFFFFFFFFFFFFFFFFFFFFFFFFFFFFFFFFFFFFFFFF AND PUSH20 0xFFFFFFFFFFFFFFFFFFFFFFFFFFFFFFFFFFFFFFFF AND DUP2 MSTORE PUSH1 0x20 ADD SWAP1 DUP2 MSTORE PUSH1 0x20 ADD PUSH1 0x0 KECCAK256 PUSH1 0x0 DUP3 DUP3 SLOAD PUSH2 0x78E SWAP2 SWAP1 PUSH2 0x1E74 JUMP JUMPDEST SWAP3 POP POP DUP2 SWAP1 SSTORE POP PUSH32 0xBB37879E252460856212DC4E8C6EDF174E473DF9423E3A7FECCD21F8C28D587A CALLER DUP3 PUSH1 0x40 MLOAD PUSH2 0x7C6 SWAP3 SWAP2 SWAP1 PUSH2 0x1BBF JUMP JUMPDEST PUSH1 0x40 MLOAD DUP1 SWAP2 SUB SWAP1 LOG1 POP JUMP JUMPDEST PUSH1 0x0 DUP1 PUSH1 0x4 SLOAD GT DUP1 ISZERO PUSH2 0x7E6 JUMPI POP PUSH1 0x0 PUSH1 0x5 SLOAD GT JUMPDEST PUSH2 0x825 JUMPI PUSH1 0x40 MLOAD PUSH32 0x8C379A000000000000000000000000000000000000000000000000000000000 DUP2 MSTORE PUSH1 0x4 ADD PUSH2 0x81C SWAP1 PUSH2 0x1D48 JUMP JUMPDEST PUSH1 0x40 MLOAD DUP1 SWAP2 SUB SWAP1 REVERT JUMPDEST PUSH1 0x0 DUP3 PUSH1 0x4 SLOAD PUSH2 0x835 SWAP2 SWAP1 PUSH2 0x1E74 JUMP JUMPDEST SWAP1 POP PUSH1 0x0 DUP2 PUSH1 0x6 SLOAD PUSH2 0x847 SWAP2 SWAP1 PUSH2 0x1ECA JUMP JUMPDEST SWAP1 POP PUSH1 0x5 SLOAD DUP2 LT PUSH2 0x88D JUMPI PUSH1 0x40 MLOAD PUSH32 0x8C379A000000000000000000000000000000000000000000000000000000000 DUP2 MSTORE PUSH1 0x4 ADD PUSH2 0x884 SWAP1 PUSH2 0x1C88 JUMP JUMPDEST PUSH1 0x40 MLOAD DUP1 SWAP2 SUB SWAP1 REVERT JUMPDEST PUSH1 0x0 DUP2 PUSH1 0x5 SLOAD PUSH2 0x89D SWAP2 SWAP1 PUSH2 0x1F55 JUMP JUMPDEST SWAP1 POP DUP1 SWAP4 POP POP POP POP SWAP2 SWAP1 POP JUMP JUMPDEST CALLER PUSH20 0xFFFFFFFFFFFFFFFFFFFFFFFFFFFFFFFFFFFFFFFF AND PUSH1 0x0 DUP1 SLOAD SWAP1 PUSH2 0x100 EXP SWAP1 DIV PUSH20 0xFFFFFFFFFFFFFFFFFFFFFFFFFFFFFFFFFFFFFFFF AND PUSH20 0xFFFFFFFFFFFFFFFFFFFFFFFFFFFFFFFFFFFFFFFF AND EQ PUSH2 0x938 JUMPI PUSH1 0x40 MLOAD PUSH32 0x8C379A000000000000000000000000000000000000000000000000000000000 DUP2 MSTORE PUSH1 0x4 ADD PUSH2 0x92F SWAP1 PUSH2 0x1D88 JUMP JUMPDEST PUSH1 0x40 MLOAD DUP1 SWAP2 SUB SWAP1 REVERT JUMPDEST PUSH1 0x0 PUSH1 0x4 SLOAD EQ PUSH2 0x97D JUMPI PUSH1 0x40 MLOAD PUSH32 0x8C379A000000000000000000000000000000000000000000000000000000000 DUP2 MSTORE PUSH1 0x4 ADD PUSH2 0x974 SWAP1 PUSH2 0x1CC8 JUMP JUMPDEST PUSH1 0x40 MLOAD DUP1 SWAP2 SUB SWAP1 REVERT JUMPDEST PUSH1 0x0 PUSH1 0x5 SLOAD EQ PUSH2 0x9C2 JUMPI PUSH1 0x40 MLOAD PUSH32 0x8C379A000000000000000000000000000000000000000000000000000000000 DUP2 MSTORE PUSH1 0x4 ADD PUSH2 0x9B9 SWAP1 PUSH2 0x1E08 JUMP JUMPDEST PUSH1 0x40 MLOAD DUP1 SWAP2 SUB SWAP1 REVERT JUMPDEST PUSH1 0x0 CALLVALUE GT PUSH2 0xA05 JUMPI PUSH1 0x40 MLOAD PUSH32 0x8C379A000000000000000000000000000000000000000000000000000000000 DUP2 MSTORE PUSH1 0x4 ADD PUSH2 0x9FC SWAP1 PUSH2 0x1C08 JUMP JUMPDEST PUSH1 0x40 MLOAD DUP1 SWAP2 SUB SWAP1 REVERT JUMPDEST PUSH1 0x0 DUP2 GT PUSH2 0xA48 JUMPI PUSH1 0x40 MLOAD PUSH32 0x8C379A000000000000000000000000000000000000000000000000000000000 DUP2 MSTORE PUSH1 0x4 ADD PUSH2 0xA3F SWAP1 PUSH2 0x1C28 JUMP JUMPDEST PUSH1 0x40 MLOAD DUP1 SWAP2 SUB SWAP1 REVERT JUMPDEST PUSH1 0x3 PUSH1 0x0 SWAP1 SLOAD SWAP1 PUSH2 0x100 EXP SWAP1 DIV PUSH20 0xFFFFFFFFFFFFFFFFFFFFFFFFFFFFFFFFFFFFFFFF AND PUSH20 0xFFFFFFFFFFFFFFFFFFFFFFFFFFFFFFFFFFFFFFFF AND PUSH4 0x23B872DD CALLER ADDRESS DUP5 PUSH1 0x40 MLOAD DUP5 PUSH4 0xFFFFFFFF AND PUSH1 0xE0 SHL DUP2 MSTORE PUSH1 0x4 ADD PUSH2 0xAA7 SWAP4 SWAP3 SWAP2 SWAP1 PUSH2 0x1B88 JUMP JUMPDEST PUSH1 0x20 PUSH1 0x40 MLOAD DUP1 DUP4 SUB DUP2 PUSH1 0x0 DUP8 DUP1 EXTCODESIZE ISZERO DUP1 ISZERO PUSH2 0xAC1 JUMPI PUSH1 0x0 DUP1 REVERT JUMPDEST POP GAS CALL ISZERO DUP1 ISZERO PUSH2 0xAD5 JUMPI RETURNDATASIZE PUSH1 0x0 DUP1 RETURNDATACOPY RETURNDATASIZE PUSH1 0x0 REVERT JUMPDEST POP POP POP POP PUSH1 0x40 MLOAD RETURNDATASIZE PUSH1 0x1F NOT PUSH1 0x1F DUP3 ADD AND DUP3 ADD DUP1 PUSH1 0x40 MSTORE POP DUP2 ADD SWAP1 PUSH2 0xAF9 SWAP2 SWAP1 PUSH2 0x182F JUMP JUMPDEST POP CALLVALUE PUSH1 0x5 DUP2 SWAP1 SSTORE POP DUP1 PUSH1 0x4 DUP2 SWAP1 SSTORE POP PUSH1 0x4 SLOAD PUSH1 0x5 SLOAD PUSH2 0xB18 SWAP2 SWAP1 PUSH2 0x1EFB JUMP JUMPDEST PUSH1 0x6 DUP2 SWAP1 SSTORE POP CALLVALUE PUSH1 0x9 PUSH1 0x0 CALLER PUSH20 0xFFFFFFFFFFFFFFFFFFFFFFFFFFFFFFFFFFFFFFFF AND PUSH20 0xFFFFFFFFFFFFFFFFFFFFFFFFFFFFFFFFFFFFFFFF AND DUP2 MSTORE PUSH1 0x20 ADD SWAP1 DUP2 MSTORE PUSH1 0x20 ADD PUSH1 0x0 KECCAK256 DUP2 SWAP1 SSTORE POP POP JUMP JUMPDEST PUSH1 0x0 PUSH1 0x9 PUSH1 0x0 CALLER PUSH20 0xFFFFFFFFFFFFFFFFFFFFFFFFFFFFFFFFFFFFFFFF AND PUSH20 0xFFFFFFFFFFFFFFFFFFFFFFFFFFFFFFFFFFFFFFFF AND DUP2 MSTORE PUSH1 0x20 ADD SWAP1 DUP2 MSTORE PUSH1 0x20 ADD PUSH1 0x0 KECCAK256 SLOAD SWAP1 POP PUSH1 0x0 DUP2 GT PUSH2 0xBEC JUMPI PUSH1 0x40 MLOAD PUSH32 0x8C379A000000000000000000000000000000000000000000000000000000000 DUP2 MSTORE PUSH1 0x4 ADD PUSH2 0xBE3 SWAP1 PUSH2 0x1DA8 JUMP JUMPDEST PUSH1 0x40 MLOAD DUP1 SWAP2 SUB SWAP1 REVERT JUMPDEST PUSH1 0x0 PUSH1 0x5 SLOAD PUSH8 0xDE0B6B3A7640000 DUP4 PUSH2 0xC05 SWAP2 SWAP1 PUSH2 0x1EFB JUMP JUMPDEST PUSH2 0xC0F SWAP2 SWAP1 PUSH2 0x1ECA JUMP JUMPDEST SWAP1 POP PUSH1 0x0 PUSH8 0xDE0B6B3A7640000 DUP3 PUSH1 0x4 SLOAD PUSH2 0xC2A SWAP2 SWAP1 PUSH2 0x1EFB JUMP JUMPDEST PUSH2 0xC34 SWAP2 SWAP1 PUSH2 0x1ECA JUMP JUMPDEST SWAP1 POP DUP3 PUSH1 0x5 SLOAD LT ISZERO PUSH2 0xC7B JUMPI PUSH1 0x40 MLOAD PUSH32 0x8C379A000000000000000000000000000000000000000000000000000000000 DUP2 MSTORE PUSH1 0x4 ADD PUSH2 0xC72 SWAP1 PUSH2 0x1D08 JUMP JUMPDEST PUSH1 0x40 MLOAD DUP1 SWAP2 SUB SWAP1 REVERT JUMPDEST DUP1 PUSH1 0x4 SLOAD LT ISZERO PUSH2 0xCC0 JUMPI PUSH1 0x40 MLOAD PUSH32 0x8C379A000000000000000000000000000000000000000000000000000000000 DUP2 MSTORE PUSH1 0x4 ADD PUSH2 0xCB7 SWAP1 PUSH2 0x1DE8 JUMP JUMPDEST PUSH1 0x40 MLOAD DUP1 SWAP2 SUB SWAP1 REVERT JUMPDEST DUP3 PUSH1 0x5 PUSH1 0x0 DUP3 DUP3 SLOAD PUSH2 0xCD2 SWAP2 SWAP1 PUSH2 0x1F55 JUMP JUMPDEST SWAP3 POP POP DUP2 SWAP1 SSTORE POP DUP1 PUSH1 0x4 PUSH1 0x0 DUP3 DUP3 SLOAD PUSH2 0xCEB SWAP2 SWAP1 PUSH2 0x1F55 JUMP JUMPDEST SWAP3 POP POP DUP2 SWAP1 SSTORE POP PUSH1 0x5 SLOAD PUSH1 0x4 SLOAD PUSH2 0xD02 SWAP2 SWAP1 PUSH2 0x1EFB JUMP JUMPDEST PUSH1 0x6 DUP2 SWAP1 SSTORE POP PUSH1 0x0 PUSH1 0x9 PUSH1 0x0 CALLER PUSH20 0xFFFFFFFFFFFFFFFFFFFFFFFFFFFFFFFFFFFFFFFF AND PUSH20 0xFFFFFFFFFFFFFFFFFFFFFFFFFFFFFFFFFFFFFFFF AND DUP2 MSTORE PUSH1 0x20 ADD SWAP1 DUP2 MSTORE PUSH1 0x20 ADD PUSH1 0x0 KECCAK256 DUP2 SWAP1 SSTORE POP CALLER PUSH20 0xFFFFFFFFFFFFFFFFFFFFFFFFFFFFFFFFFFFFFFFF AND PUSH2 0x8FC DUP5 SWAP1 DUP2 ISZERO MUL SWAP1 PUSH1 0x40 MLOAD PUSH1 0x0 PUSH1 0x40 MLOAD DUP1 DUP4 SUB DUP2 DUP6 DUP9 DUP9 CALL SWAP4 POP POP POP POP ISZERO DUP1 ISZERO PUSH2 0xD93 JUMPI RETURNDATASIZE PUSH1 0x0 DUP1 RETURNDATACOPY RETURNDATASIZE PUSH1 0x0 REVERT JUMPDEST POP PUSH1 0x3 PUSH1 0x0 SWAP1 SLOAD SWAP1 PUSH2 0x100 EXP SWAP1 DIV PUSH20 0xFFFFFFFFFFFFFFFFFFFFFFFFFFFFFFFFFFFFFFFF AND PUSH20 0xFFFFFFFFFFFFFFFFFFFFFFFFFFFFFFFFFFFFFFFF AND PUSH4 0xA9059CBB CALLER DUP4 PUSH1 0x40 MLOAD DUP4 PUSH4 0xFFFFFFFF AND PUSH1 0xE0 SHL DUP2 MSTORE PUSH1 0x4 ADD PUSH2 0xDF1 SWAP3 SWAP2 SWAP1 PUSH2 0x1BBF JUMP JUMPDEST PUSH1 0x20 PUSH1 0x40 MLOAD DUP1 DUP4 SUB DUP2 PUSH1 0x0 DUP8 DUP1 EXTCODESIZE ISZERO DUP1 ISZERO PUSH2 0xE0B JUMPI PUSH1 0x0 DUP1 REVERT JUMPDEST POP GAS CALL ISZERO DUP1 ISZERO PUSH2 0xE1F JUMPI RETURNDATASIZE PUSH1 0x0 DUP1 RETURNDATACOPY RETURNDATASIZE PUSH1 0x0 REVERT JUMPDEST POP POP POP POP PUSH1 0x40 MLOAD RETURNDATASIZE PUSH1 0x1F NOT PUSH1 0x1F DUP3 ADD AND DUP3 ADD DUP1 PUSH1 0x40 MSTORE POP DUP2 ADD SWAP1 PUSH2 0xE43 SWAP2 SWAP1 PUSH2 0x182F JUMP JUMPDEST PUSH2 0xE82 JUMPI PUSH1 0x40 MLOAD PUSH32 0x8C379A000000000000000000000000000000000000000000000000000000000 DUP2 MSTORE PUSH1 0x4 ADD PUSH2 0xE79 SWAP1 PUSH2 0x1D28 JUMP JUMPDEST PUSH1 0x40 MLOAD DUP1 SWAP2 SUB SWAP1 REVERT JUMPDEST PUSH32 0xDFDD120DED9B7AFC0C23DD5310E93AAA3E1C3B9F75AF9B805FAB3030842439F2 CALLER DUP5 PUSH1 0x40 MLOAD PUSH2 0xEB3 SWAP3 SWAP2 SWAP1 PUSH2 0x1BBF JUMP JUMPDEST PUSH1 0x40 MLOAD DUP1 SWAP2 SUB SWAP1 LOG1 POP POP POP JUMP JUMPDEST PUSH1 0x5 SLOAD DUP2 JUMP JUMPDEST PUSH1 0x4 SLOAD DUP2 JUMP JUMPDEST DUP1 PUSH1 0x9 PUSH1 0x0 CALLER PUSH20 0xFFFFFFFFFFFFFFFFFFFFFFFFFFFFFFFFFFFFFFFF AND PUSH20 0xFFFFFFFFFFFFFFFFFFFFFFFFFFFFFFFFFFFFFFFF AND DUP2 MSTORE PUSH1 0x20 ADD SWAP1 DUP2 MSTORE PUSH1 0x20 ADD PUSH1 0x0 KECCAK256 SLOAD LT ISZERO PUSH2 0xF4E JUMPI PUSH1 0x40 MLOAD PUSH32 0x8C379A000000000000000000000000000000000000000000000000000000000 DUP2 MSTORE PUSH1 0x4 ADD PUSH2 0xF45 SWAP1 PUSH2 0x1CE8 JUMP JUMPDEST PUSH1 0x40 MLOAD DUP1 SWAP2 SUB SWAP1 REVERT JUMPDEST PUSH1 0x0 PUSH1 0x5 SLOAD PUSH1 0x4 SLOAD DUP4 PUSH2 0xF61 SWAP2 SWAP1 PUSH2 0x1EFB JUMP JUMPDEST PUSH2 0xF6B SWAP2 SWAP1 PUSH2 0x1ECA JUMP JUMPDEST SWAP1 POP DUP2 PUSH1 0x5 SLOAD LT ISZERO PUSH2 0xFB2 JUMPI PUSH1 0x40 MLOAD PUSH32 0x8C379A000000000000000000000000000000000000000000000000000000000 DUP2 MSTORE PUSH1 0x4 ADD PUSH2 0xFA9 SWAP1 PUSH2 0x1D08 JUMP JUMPDEST PUSH1 0x40 MLOAD DUP1 SWAP2 SUB SWAP1 REVERT JUMPDEST DUP1 PUSH1 0x4 SLOAD LT ISZERO PUSH2 0xFF7 JUMPI PUSH1 0x40 MLOAD PUSH32 0x8C379A000000000000000000000000000000000000000000000000000000000 DUP2 MSTORE PUSH1 0x4 ADD PUSH2 0xFEE SWAP1 PUSH2 0x1DE8 JUMP JUMPDEST PUSH1 0x40 MLOAD DUP1 SWAP2 SUB SWAP1 REVERT JUMPDEST DUP2 PUSH1 0x5 PUSH1 0x0 DUP3 DUP3 SLOAD PUSH2 0x1009 SWAP2 SWAP1 PUSH2 0x1F55 JUMP JUMPDEST SWAP3 POP POP DUP2 SWAP1 SSTORE POP DUP1 PUSH1 0x4 PUSH1 0x0 DUP3 DUP3 SLOAD PUSH2 0x1022 SWAP2 SWAP1 PUSH2 0x1F55 JUMP JUMPDEST SWAP3 POP POP DUP2 SWAP1 SSTORE POP PUSH1 0x5 SLOAD PUSH1 0x4 SLOAD PUSH2 0x1039 SWAP2 SWAP1 PUSH2 0x1EFB JUMP JUMPDEST PUSH1 0x6 DUP2 SWAP1 SSTORE POP CALLER PUSH20 0xFFFFFFFFFFFFFFFFFFFFFFFFFFFFFFFFFFFFFFFF AND PUSH2 0x8FC DUP4 SWAP1 DUP2 ISZERO MUL SWAP1 PUSH1 0x40 MLOAD PUSH1 0x0 PUSH1 0x40 MLOAD DUP1 DUP4 SUB DUP2 DUP6 DUP9 DUP9 CALL SWAP4 POP POP POP POP ISZERO DUP1 ISZERO PUSH2 0x1085 JUMPI RETURNDATASIZE PUSH1 0x0 DUP1 RETURNDATACOPY RETURNDATASIZE PUSH1 0x0 REVERT JUMPDEST POP PUSH1 0x3 PUSH1 0x0 SWAP1 SLOAD SWAP1 PUSH2 0x100 EXP SWAP1 DIV PUSH20 0xFFFFFFFFFFFFFFFFFFFFFFFFFFFFFFFFFFFFFFFF AND PUSH20 0xFFFFFFFFFFFFFFFFFFFFFFFFFFFFFFFFFFFFFFFF AND PUSH4 0xA9059CBB CALLER DUP4 PUSH1 0x40 MLOAD DUP4 PUSH4 0xFFFFFFFF AND PUSH1 0xE0 SHL DUP2 MSTORE PUSH1 0x4 ADD PUSH2 0x10E3 SWAP3 SWAP2 SWAP1 PUSH2 0x1BBF JUMP JUMPDEST PUSH1 0x20 PUSH1 0x40 MLOAD DUP1 DUP4 SUB DUP2 PUSH1 0x0 DUP8 DUP1 EXTCODESIZE ISZERO DUP1 ISZERO PUSH2 0x10FD JUMPI PUSH1 0x0 DUP1 REVERT JUMPDEST POP GAS CALL ISZERO DUP1 ISZERO PUSH2 0x1111 JUMPI RETURNDATASIZE PUSH1 0x0 DUP1 RETURNDATACOPY RETURNDATASIZE PUSH1 0x0 REVERT JUMPDEST POP POP POP POP PUSH1 0x40 MLOAD RETURNDATASIZE PUSH1 0x1F NOT PUSH1 0x1F DUP3 ADD AND DUP3 ADD DUP1 PUSH1 0x40 MSTORE POP DUP2 ADD SWAP1 PUSH2 0x1135 SWAP2 SWAP1 PUSH2 0x182F JUMP JUMPDEST PUSH2 0x1174 JUMPI PUSH1 0x40 MLOAD PUSH32 0x8C379A000000000000000000000000000000000000000000000000000000000 DUP2 MSTORE PUSH1 0x4 ADD PUSH2 0x116B SWAP1 PUSH2 0x1D28 JUMP JUMPDEST PUSH1 0x40 MLOAD DUP1 SWAP2 SUB SWAP1 REVERT JUMPDEST DUP2 PUSH1 0x9 PUSH1 0x0 CALLER PUSH20 0xFFFFFFFFFFFFFFFFFFFFFFFFFFFFFFFFFFFFFFFF AND PUSH20 0xFFFFFFFFFFFFFFFFFFFFFFFFFFFFFFFFFFFFFFFF AND DUP2 MSTORE PUSH1 0x20 ADD SWAP1 DUP2 MSTORE PUSH1 0x20 ADD PUSH1 0x0 KECCAK256 PUSH1 0x0 DUP3 DUP3 SLOAD PUSH2 0x11C3 SWAP2 SWAP1 PUSH2 0x1F55 JUMP JUMPDEST SWAP3 POP POP DUP2 SWAP1 SSTORE POP PUSH32 0xDFDD120DED9B7AFC0C23DD5310E93AAA3E1C3B9F75AF9B805FAB3030842439F2 CALLER DUP4 PUSH1 0x40 MLOAD PUSH2 0x11FB SWAP3 SWAP2 SWAP1 PUSH2 0x1BBF JUMP JUMPDEST PUSH1 0x40 MLOAD DUP1 SWAP2 SUB SWAP1 LOG1 POP POP JUMP JUMPDEST PUSH1 0x6 SLOAD DUP2 JUMP JUMPDEST PUSH1 0x9 PUSH1 0x20 MSTORE DUP1 PUSH1 0x0 MSTORE PUSH1 0x40 PUSH1 0x0 KECCAK256 PUSH1 0x0 SWAP2 POP SWAP1 POP SLOAD DUP2 JUMP JUMPDEST PUSH1 0x0 DUP1 PUSH1 0x5 SLOAD GT PUSH2 0x126B JUMPI PUSH1 0x40 MLOAD PUSH32 0x8C379A000000000000000000000000000000000000000000000000000000000 DUP2 MSTORE PUSH1 0x4 ADD PUSH2 0x1262 SWAP1 PUSH2 0x1C48 JUMP JUMPDEST PUSH1 0x40 MLOAD DUP1 SWAP2 SUB SWAP1 REVERT JUMPDEST PUSH1 0x4 SLOAD PUSH1 0x5 SLOAD PUSH2 0x127B SWAP2 SWAP1 PUSH2 0x1ECA JUMP JUMPDEST SWAP1 POP SWAP1 JUMP JUMPDEST PUSH1 0x0 CALLVALUE SWAP1 POP PUSH1 0x0 DUP2 GT PUSH2 0x12C8 JUMPI PUSH1 0x40 MLOAD PUSH32 0x8C379A000000000000000000000000000000000000000000000000000000000 DUP2 MSTORE PUSH1 0x4 ADD PUSH2 0x12BF SWAP1 PUSH2 0x1D68 JUMP JUMPDEST PUSH1 0x40 MLOAD DUP1 SWAP2 SUB SWAP1 REVERT JUMPDEST PUSH1 0x0 PUSH2 0x12D3 DUP3 PUSH2 0x41C JUMP JUMPDEST SWAP1 POP PUSH1 0x4 SLOAD DUP2 GT ISZERO PUSH2 0x131A JUMPI PUSH1 0x40 MLOAD PUSH32 0x8C379A000000000000000000000000000000000000000000000000000000000 DUP2 MSTORE PUSH1 0x4 ADD PUSH2 0x1311 SWAP1 PUSH2 0x1DE8 JUMP JUMPDEST PUSH1 0x40 MLOAD DUP1 SWAP2 SUB SWAP1 REVERT JUMPDEST DUP2 PUSH1 0x5 PUSH1 0x0 DUP3 DUP3 SLOAD PUSH2 0x132C SWAP2 SWAP1 PUSH2 0x1E74 JUMP JUMPDEST SWAP3 POP POP DUP2 SWAP1 SSTORE POP DUP1 PUSH1 0x4 PUSH1 0x0 DUP3 DUP3 SLOAD PUSH2 0x1345 SWAP2 SWAP1 PUSH2 0x1F55 JUMP JUMPDEST SWAP3 POP POP DUP2 SWAP1 SSTORE POP PUSH1 0x3 PUSH1 0x0 SWAP1 SLOAD SWAP1 PUSH2 0x100 EXP SWAP1 DIV PUSH20 0xFFFFFFFFFFFFFFFFFFFFFFFFFFFFFFFFFFFFFFFF AND PUSH20 0xFFFFFFFFFFFFFFFFFFFFFFFFFFFFFFFFFFFFFFFF AND PUSH4 0xA9059CBB CALLER DUP4 PUSH1 0x40 MLOAD DUP4 PUSH4 0xFFFFFFFF AND PUSH1 0xE0 SHL DUP2 MSTORE PUSH1 0x4 ADD PUSH2 0x13A9 SWAP3 SWAP2 SWAP1 PUSH2 0x1BBF JUMP JUMPDEST PUSH1 0x20 PUSH1 0x40 MLOAD DUP1 DUP4 SUB DUP2 PUSH1 0x0 DUP8 DUP1 EXTCODESIZE ISZERO DUP1 ISZERO PUSH2 0x13C3 JUMPI PUSH1 0x0 DUP1 REVERT JUMPDEST POP GAS CALL ISZERO DUP1 ISZERO PUSH2 0x13D7 JUMPI RETURNDATASIZE PUSH1 0x0 DUP1 RETURNDATACOPY RETURNDATASIZE PUSH1 0x0 REVERT JUMPDEST POP POP POP POP PUSH1 0x40 MLOAD RETURNDATASIZE PUSH1 0x1F NOT PUSH1 0x1F DUP3 ADD AND DUP3 ADD DUP1 PUSH1 0x40 MSTORE POP DUP2 ADD SWAP1 PUSH2 0x13FB SWAP2 SWAP1 PUSH2 0x182F JUMP JUMPDEST PUSH2 0x143A JUMPI PUSH1 0x40 MLOAD PUSH32 0x8C379A000000000000000000000000000000000000000000000000000000000 DUP2 MSTORE PUSH1 0x4 ADD PUSH2 0x1431 SWAP1 PUSH2 0x1D28 JUMP JUMPDEST PUSH1 0x40 MLOAD DUP1 SWAP2 SUB SWAP1 REVERT JUMPDEST PUSH2 0x1442 PUSH2 0x1727 JUMP JUMPDEST POP POP JUMP JUMPDEST DUP1 PUSH1 0x3 PUSH1 0x0 SWAP1 SLOAD SWAP1 PUSH2 0x100 EXP SWAP1 DIV PUSH20 0xFFFFFFFFFFFFFFFFFFFFFFFFFFFFFFFFFFFFFFFF AND PUSH20 0xFFFFFFFFFFFFFFFFFFFFFFFFFFFFFFFFFFFFFFFF AND PUSH4 0x70A08231 CALLER PUSH1 0x40 MLOAD DUP3 PUSH4 0xFFFFFFFF AND PUSH1 0xE0 SHL DUP2 MSTORE PUSH1 0x4 ADD PUSH2 0x14A2 SWAP2 SWAP1 PUSH2 0x1B6D JUMP JUMPDEST PUSH1 0x20 PUSH1 0x40 MLOAD DUP1 DUP4 SUB DUP2 DUP7 DUP1 EXTCODESIZE ISZERO DUP1 ISZERO PUSH2 0x14BA JUMPI PUSH1 0x0 DUP1 REVERT JUMPDEST POP GAS STATICCALL ISZERO DUP1 ISZERO PUSH2 0x14CE JUMPI RETURNDATASIZE PUSH1 0x0 DUP1 RETURNDATACOPY RETURNDATASIZE PUSH1 0x0 REVERT JUMPDEST POP POP POP POP PUSH1 0x40 MLOAD RETURNDATASIZE PUSH1 0x1F NOT PUSH1 0x1F DUP3 ADD AND DUP3 ADD DUP1 PUSH1 0x40 MSTORE POP DUP2 ADD SWAP1 PUSH2 0x14F2 SWAP2 SWAP1 PUSH2 0x1889 JUMP JUMPDEST LT ISZERO PUSH2 0x1533 JUMPI PUSH1 0x40 MLOAD PUSH32 0x8C379A000000000000000000000000000000000000000000000000000000000 DUP2 MSTORE PUSH1 0x4 ADD PUSH2 0x152A SWAP1 PUSH2 0x1E28 JUMP JUMPDEST PUSH1 0x40 MLOAD DUP1 SWAP2 SUB SWAP1 REVERT JUMPDEST PUSH1 0x0 PUSH2 0x153E DUP3 PUSH2 0x7D1 JUMP JUMPDEST SWAP1 POP PUSH1 0x5 SLOAD DUP2 GT ISZERO PUSH2 0x1585 JUMPI PUSH1 0x40 MLOAD PUSH32 0x8C379A000000000000000000000000000000000000000000000000000000000 DUP2 MSTORE PUSH1 0x4 ADD PUSH2 0x157C SWAP1 PUSH2 0x1D08 JUMP JUMPDEST PUSH1 0x40 MLOAD DUP1 SWAP2 SUB SWAP1 REVERT JUMPDEST PUSH1 0x3 PUSH1 0x0 SWAP1 SLOAD SWAP1 PUSH2 0x100 EXP SWAP1 DIV PUSH20 0xFFFFFFFFFFFFFFFFFFFFFFFFFFFFFFFFFFFFFFFF AND PUSH20 0xFFFFFFFFFFFFFFFFFFFFFFFFFFFFFFFFFFFFFFFF AND PUSH4 0x23B872DD CALLER ADDRESS DUP6 PUSH1 0x40 MLOAD DUP5 PUSH4 0xFFFFFFFF AND PUSH1 0xE0 SHL DUP2 MSTORE PUSH1 0x4 ADD PUSH2 0x15E4 SWAP4 SWAP3 SWAP2 SWAP1 PUSH2 0x1B88 JUMP JUMPDEST PUSH1 0x20 PUSH1 0x40 MLOAD DUP1 DUP4 SUB DUP2 PUSH1 0x0 DUP8 DUP1 EXTCODESIZE ISZERO DUP1 ISZERO PUSH2 0x15FE JUMPI PUSH1 0x0 DUP1 REVERT JUMPDEST POP GAS CALL ISZERO DUP1 ISZERO PUSH2 0x1612 JUMPI RETURNDATASIZE PUSH1 0x0 DUP1 RETURNDATACOPY RETURNDATASIZE PUSH1 0x0 REVERT JUMPDEST POP POP POP POP PUSH1 0x40 MLOAD RETURNDATASIZE PUSH1 0x1F NOT PUSH1 0x1F DUP3 ADD AND DUP3 ADD DUP1 PUSH1 0x40 MSTORE POP DUP2 ADD SWAP1 PUSH2 0x1636 SWAP2 SWAP1 PUSH2 0x182F JUMP JUMPDEST PUSH2 0x1675 JUMPI PUSH1 0x40 MLOAD PUSH32 0x8C379A000000000000000000000000000000000000000000000000000000000 DUP2 MSTORE PUSH1 0x4 ADD PUSH2 0x166C SWAP1 PUSH2 0x1D28 JUMP JUMPDEST PUSH1 0x40 MLOAD DUP1 SWAP2 SUB SWAP1 REVERT JUMPDEST DUP2 PUSH1 0x4 PUSH1 0x0 DUP3 DUP3 SLOAD PUSH2 0x1687 SWAP2 SWAP1 PUSH2 0x1E74 JUMP JUMPDEST SWAP3 POP POP DUP2 SWAP1 SSTORE POP DUP1 PUSH1 0x5 PUSH1 0x0 DUP3 DUP3 SLOAD PUSH2 0x16A0 SWAP2 SWAP1 PUSH2 0x1F55 JUMP JUMPDEST SWAP3 POP POP DUP2 SWAP1 SSTORE POP CALLER PUSH20 0xFFFFFFFFFFFFFFFFFFFFFFFFFFFFFFFFFFFFFFFF AND PUSH2 0x8FC DUP3 SWAP1 DUP2 ISZERO MUL SWAP1 PUSH1 0x40 MLOAD PUSH1 0x0 PUSH1 0x40 MLOAD DUP1 DUP4 SUB DUP2 DUP6 DUP9 DUP9 CALL SWAP4 POP POP POP POP ISZERO DUP1 ISZERO PUSH2 0x16ED JUMPI RETURNDATASIZE PUSH1 0x0 DUP1 RETURNDATACOPY RETURNDATASIZE PUSH1 0x0 REVERT JUMPDEST POP PUSH2 0x16F6 PUSH2 0x1727 JUMP JUMPDEST POP POP JUMP JUMPDEST PUSH1 0x0 SWAP2 SWAP1 POP JUMP JUMPDEST PUSH1 0x1 PUSH1 0x0 SWAP1 SLOAD SWAP1 PUSH2 0x100 EXP SWAP1 DIV PUSH20 0xFFFFFFFFFFFFFFFFFFFFFFFFFFFFFFFFFFFFFFFF AND DUP2 JUMP JUMPDEST PUSH1 0x0 PUSH1 0x5 SLOAD PUSH1 0x4 SLOAD PUSH2 0x1739 SWAP2 SWAP1 PUSH2 0x1EFB JUMP JUMPDEST SWAP1 POP PUSH1 0x6 SLOAD DUP2 LT PUSH2 0x1759 JUMPI PUSH1 0x6 SLOAD DUP2 PUSH2 0x1752 SWAP2 SWAP1 PUSH2 0x1F55 JUMP JUMPDEST SWAP1 POP PUSH2 0x176A JUMP JUMPDEST DUP1 PUSH1 0x6 SLOAD PUSH2 0x1767 SWAP2 SWAP1 PUSH2 0x1F55 JUMP JUMPDEST SWAP1 POP JUMPDEST PUSH1 0x1 PUSH1 0x5 SLOAD PUSH1 0x4 SLOAD PUSH2 0x177C SWAP2 SWAP1 PUSH2 0x1E74 JUMP JUMPDEST PUSH2 0x1786 SWAP2 SWAP1 PUSH2 0x1E74 JUMP JUMPDEST DUP2 LT PUSH2 0x1795 JUMPI PUSH2 0x1794 PUSH2 0x1FD1 JUMP JUMPDEST JUMPDEST PUSH1 0x5 SLOAD PUSH1 0x4 SLOAD PUSH2 0x17A5 SWAP2 SWAP1 PUSH2 0x1EFB JUMP JUMPDEST PUSH1 0x6 DUP2 SWAP1 SSTORE POP POP JUMP JUMPDEST PUSH1 0x0 DUP2 CALLDATALOAD SWAP1 POP PUSH2 0x17BD DUP2 PUSH2 0x2394 JUMP JUMPDEST SWAP3 SWAP2 POP POP JUMP JUMPDEST PUSH1 0x0 DUP2 MLOAD SWAP1 POP PUSH2 0x17D2 DUP2 PUSH2 0x23AB JUMP JUMPDEST SWAP3 SWAP2 POP POP JUMP JUMPDEST PUSH1 0x0 DUP2 CALLDATALOAD SWAP1 POP PUSH2 0x17E7 DUP2 PUSH2 0x23C2 JUMP JUMPDEST SWAP3 SWAP2 POP POP JUMP JUMPDEST PUSH1 0x0 DUP2 MLOAD SWAP1 POP PUSH2 0x17FC DUP2 PUSH2 0x23C2 JUMP JUMPDEST SWAP3 SWAP2 POP POP JUMP JUMPDEST PUSH1 0x0 PUSH1 0x20 DUP3 DUP5 SUB SLT ISZERO PUSH2 0x1818 JUMPI PUSH2 0x1817 PUSH2 0x205E JUMP JUMPDEST JUMPDEST PUSH1 0x0 PUSH2 0x1826 DUP5 DUP3 DUP6 ADD PUSH2 0x17AE JUMP JUMPDEST SWAP2 POP POP SWAP3 SWAP2 POP POP JUMP JUMPDEST PUSH1 0x0 PUSH1 0x20 DUP3 DUP5 SUB SLT ISZERO PUSH2 0x1845 JUMPI PUSH2 0x1844 PUSH2 0x205E JUMP JUMPDEST JUMPDEST PUSH1 0x0 PUSH2 0x1853 DUP5 DUP3 DUP6 ADD PUSH2 0x17C3 JUMP JUMPDEST SWAP2 POP POP SWAP3 SWAP2 POP POP JUMP JUMPDEST PUSH1 0x0 PUSH1 0x20 DUP3 DUP5 SUB SLT ISZERO PUSH2 0x1872 JUMPI PUSH2 0x1871 PUSH2 0x205E JUMP JUMPDEST JUMPDEST PUSH1 0x0 PUSH2 0x1880 DUP5 DUP3 DUP6 ADD PUSH2 0x17D8 JUMP JUMPDEST SWAP2 POP POP SWAP3 SWAP2 POP POP JUMP JUMPDEST PUSH1 0x0 PUSH1 0x20 DUP3 DUP5 SUB SLT ISZERO PUSH2 0x189F JUMPI PUSH2 0x189E PUSH2 0x205E JUMP JUMPDEST JUMPDEST PUSH1 0x0 PUSH2 0x18AD DUP5 DUP3 DUP6 ADD PUSH2 0x17ED JUMP JUMPDEST SWAP2 POP POP SWAP3 SWAP2 POP POP JUMP JUMPDEST PUSH2 0x18BF DUP2 PUSH2 0x1F89 JUMP JUMPDEST DUP3 MSTORE POP POP JUMP JUMPDEST PUSH1 0x0 PUSH2 0x18D2 PUSH1 0x15 DUP4 PUSH2 0x1E63 JUMP JUMPDEST SWAP2 POP PUSH2 0x18DD DUP3 PUSH2 0x2063 JUMP JUMPDEST PUSH1 0x20 DUP3 ADD SWAP1 POP SWAP2 SWAP1 POP JUMP JUMPDEST PUSH1 0x0 PUSH2 0x18F5 PUSH1 0x18 DUP4 PUSH2 0x1E63 JUMP JUMPDEST SWAP2 POP PUSH2 0x1900 DUP3 PUSH2 0x208C JUMP JUMPDEST PUSH1 0x20 DUP3 ADD SWAP1 POP SWAP2 SWAP1 POP JUMP JUMPDEST PUSH1 0x0 PUSH2 0x1918 PUSH1 0x1B DUP4 PUSH2 0x1E63 JUMP JUMPDEST SWAP2 POP PUSH2 0x1923 DUP3 PUSH2 0x20B5 JUMP JUMPDEST PUSH1 0x20 DUP3 ADD SWAP1 POP SWAP2 SWAP1 POP JUMP JUMPDEST PUSH1 0x0 PUSH2 0x193B PUSH1 0x12 DUP4 PUSH2 0x1E63 JUMP JUMPDEST SWAP2 POP PUSH2 0x1946 DUP3 PUSH2 0x20DE JUMP JUMPDEST PUSH1 0x20 DUP3 ADD SWAP1 POP SWAP2 SWAP1 POP JUMP JUMPDEST PUSH1 0x0 PUSH2 0x195E PUSH1 0x1C DUP4 PUSH2 0x1E63 JUMP JUMPDEST SWAP2 POP PUSH2 0x1969 DUP3 PUSH2 0x2107 JUMP JUMPDEST PUSH1 0x20 DUP3 ADD SWAP1 POP SWAP2 SWAP1 POP JUMP JUMPDEST PUSH1 0x0 PUSH2 0x1981 PUSH1 0xC DUP4 PUSH2 0x1E63 JUMP JUMPDEST SWAP2 POP PUSH2 0x198C DUP3 PUSH2 0x2130 JUMP JUMPDEST PUSH1 0x20 DUP3 ADD SWAP1 POP SWAP2 SWAP1 POP JUMP JUMPDEST PUSH1 0x0 PUSH2 0x19A4 PUSH1 0x1E DUP4 PUSH2 0x1E63 JUMP JUMPDEST SWAP2 POP PUSH2 0x19AF DUP3 PUSH2 0x2159 JUMP JUMPDEST PUSH1 0x20 DUP3 ADD SWAP1 POP SWAP2 SWAP1 POP JUMP JUMPDEST PUSH1 0x0 PUSH2 0x19C7 PUSH1 0x18 DUP4 PUSH2 0x1E63 JUMP JUMPDEST SWAP2 POP PUSH2 0x19D2 DUP3 PUSH2 0x2182 JUMP JUMPDEST PUSH1 0x20 DUP3 ADD SWAP1 POP SWAP2 SWAP1 POP JUMP JUMPDEST PUSH1 0x0 PUSH2 0x19EA PUSH1 0x1E DUP4 PUSH2 0x1E63 JUMP JUMPDEST SWAP2 POP PUSH2 0x19F5 DUP3 PUSH2 0x21AB JUMP JUMPDEST PUSH1 0x20 DUP3 ADD SWAP1 POP SWAP2 SWAP1 POP JUMP JUMPDEST PUSH1 0x0 PUSH2 0x1A0D PUSH1 0x1C DUP4 PUSH2 0x1E63 JUMP JUMPDEST SWAP2 POP PUSH2 0x1A18 DUP3 PUSH2 0x21D4 JUMP JUMPDEST PUSH1 0x20 DUP3 ADD SWAP1 POP SWAP2 SWAP1 POP JUMP JUMPDEST PUSH1 0x0 PUSH2 0x1A30 PUSH1 0x15 DUP4 PUSH2 0x1E63 JUMP JUMPDEST SWAP2 POP PUSH2 0x1A3B DUP3 PUSH2 0x21FD JUMP JUMPDEST PUSH1 0x20 DUP3 ADD SWAP1 POP SWAP2 SWAP1 POP JUMP JUMPDEST PUSH1 0x0 PUSH2 0x1A53 PUSH1 0x12 DUP4 PUSH2 0x1E63 JUMP JUMPDEST SWAP2 POP PUSH2 0x1A5E DUP3 PUSH2 0x2226 JUMP JUMPDEST PUSH1 0x20 DUP3 ADD SWAP1 POP SWAP2 SWAP1 POP JUMP JUMPDEST PUSH1 0x0 PUSH2 0x1A76 PUSH1 0xB DUP4 PUSH2 0x1E63 JUMP JUMPDEST SWAP2 POP PUSH2 0x1A81 DUP3 PUSH2 0x224F JUMP JUMPDEST PUSH1 0x20 DUP3 ADD SWAP1 POP SWAP2 SWAP1 POP JUMP JUMPDEST PUSH1 0x0 PUSH2 0x1A99 PUSH1 0x20 DUP4 PUSH2 0x1E63 JUMP JUMPDEST SWAP2 POP PUSH2 0x1AA4 DUP3 PUSH2 0x2278 JUMP JUMPDEST PUSH1 0x20 DUP3 ADD SWAP1 POP SWAP2 SWAP1 POP JUMP JUMPDEST PUSH1 0x0 PUSH2 0x1ABC PUSH1 0x16 DUP4 PUSH2 0x1E63 JUMP JUMPDEST SWAP2 POP PUSH2 0x1AC7 DUP3 PUSH2 0x22A1 JUMP JUMPDEST PUSH1 0x20 DUP3 ADD SWAP1 POP SWAP2 SWAP1 POP JUMP JUMPDEST PUSH1 0x0 PUSH2 0x1ADF PUSH1 0x21 DUP4 PUSH2 0x1E63 JUMP JUMPDEST SWAP2 POP PUSH2 0x1AEA DUP3 PUSH2 0x22CA JUMP JUMPDEST PUSH1 0x40 DUP3 ADD SWAP1 POP SWAP2 SWAP1 POP JUMP JUMPDEST PUSH1 0x0 PUSH2 0x1B02 PUSH1 0x1F DUP4 PUSH2 0x1E63 JUMP JUMPDEST SWAP2 POP PUSH2 0x1B0D DUP3 PUSH2 0x2319 JUMP JUMPDEST PUSH1 0x20 DUP3 ADD SWAP1 POP SWAP2 SWAP1 POP JUMP JUMPDEST PUSH1 0x0 PUSH2 0x1B25 PUSH1 0x17 DUP4 PUSH2 0x1E63 JUMP JUMPDEST SWAP2 POP PUSH2 0x1B30 DUP3 PUSH2 0x2342 JUMP JUMPDEST PUSH1 0x20 DUP3 ADD SWAP1 POP SWAP2 SWAP1 POP JUMP JUMPDEST PUSH1 0x0 PUSH2 0x1B48 PUSH1 0x13 DUP4 PUSH2 0x1E63 JUMP JUMPDEST SWAP2 POP PUSH2 0x1B53 DUP3 PUSH2 0x236B JUMP JUMPDEST PUSH1 0x20 DUP3 ADD SWAP1 POP SWAP2 SWAP1 POP JUMP JUMPDEST PUSH2 0x1B67 DUP2 PUSH2 0x1FC7 JUMP JUMPDEST DUP3 MSTORE POP POP JUMP JUMPDEST PUSH1 0x0 PUSH1 0x20 DUP3 ADD SWAP1 POP PUSH2 0x1B82 PUSH1 0x0 DUP4 ADD DUP5 PUSH2 0x18B6 JUMP JUMPDEST SWAP3 SWAP2 POP POP JUMP JUMPDEST PUSH1 0x0 PUSH1 0x60 DUP3 ADD SWAP1 POP PUSH2 0x1B9D PUSH1 0x0 DUP4 ADD DUP7 PUSH2 0x18B6 JUMP JUMPDEST PUSH2 0x1BAA PUSH1 0x20 DUP4 ADD DUP6 PUSH2 0x18B6 JUMP JUMPDEST PUSH2 0x1BB7 PUSH1 0x40 DUP4 ADD DUP5 PUSH2 0x1B5E JUMP JUMPDEST SWAP5 SWAP4 POP POP POP POP JUMP JUMPDEST PUSH1 0x0 PUSH1 0x40 DUP3 ADD SWAP1 POP PUSH2 0x1BD4 PUSH1 0x0 DUP4 ADD DUP6 PUSH2 0x18B6 JUMP JUMPDEST PUSH2 0x1BE1 PUSH1 0x20 DUP4 ADD DUP5 PUSH2 0x1B5E JUMP JUMPDEST SWAP4 SWAP3 POP POP POP JUMP JUMPDEST PUSH1 0x0 PUSH1 0x20 DUP3 ADD SWAP1 POP DUP2 DUP2 SUB PUSH1 0x0 DUP4 ADD MSTORE PUSH2 0x1C01 DUP2 PUSH2 0x18C5 JUMP JUMPDEST SWAP1 POP SWAP2 SWAP1 POP JUMP JUMPDEST PUSH1 0x0 PUSH1 0x20 DUP3 ADD SWAP1 POP DUP2 DUP2 SUB PUSH1 0x0 DUP4 ADD MSTORE PUSH2 0x1C21 DUP2 PUSH2 0x18E8 JUMP JUMPDEST SWAP1 POP SWAP2 SWAP1 POP JUMP JUMPDEST PUSH1 0x0 PUSH1 0x20 DUP3 ADD SWAP1 POP DUP2 DUP2 SUB PUSH1 0x0 DUP4 ADD MSTORE PUSH2 0x1C41 DUP2 PUSH2 0x190B JUMP JUMPDEST SWAP1 POP SWAP2 SWAP1 POP JUMP JUMPDEST PUSH1 0x0 PUSH1 0x20 DUP3 ADD SWAP1 POP DUP2 DUP2 SUB PUSH1 0x0 DUP4 ADD MSTORE PUSH2 0x1C61 DUP2 PUSH2 0x192E JUMP JUMPDEST SWAP1 POP SWAP2 SWAP1 POP JUMP JUMPDEST PUSH1 0x0 PUSH1 0x20 DUP3 ADD SWAP1 POP DUP2 DUP2 SUB PUSH1 0x0 DUP4 ADD MSTORE PUSH2 0x1C81 DUP2 PUSH2 0x1951 JUMP JUMPDEST SWAP1 POP SWAP2 SWAP1 POP JUMP JUMPDEST PUSH1 0x0 PUSH1 0x20 DUP3 ADD SWAP1 POP DUP2 DUP2 SUB PUSH1 0x0 DUP4 ADD MSTORE PUSH2 0x1CA1 DUP2 PUSH2 0x1974 JUMP JUMPDEST SWAP1 POP SWAP2 SWAP1 POP JUMP JUMPDEST PUSH1 0x0 PUSH1 0x20 DUP3 ADD SWAP1 POP DUP2 DUP2 SUB PUSH1 0x0 DUP4 ADD MSTORE PUSH2 0x1CC1 DUP2 PUSH2 0x1997 JUMP JUMPDEST SWAP1 POP SWAP2 SWAP1 POP JUMP JUMPDEST PUSH1 0x0 PUSH1 0x20 DUP3 ADD SWAP1 POP DUP2 DUP2 SUB PUSH1 0x0 DUP4 ADD MSTORE PUSH2 0x1CE1 DUP2 PUSH2 0x19BA JUMP JUMPDEST SWAP1 POP SWAP2 SWAP1 POP JUMP JUMPDEST PUSH1 0x0 PUSH1 0x20 DUP3 ADD SWAP1 POP DUP2 DUP2 SUB PUSH1 0x0 DUP4 ADD MSTORE PUSH2 0x1D01 DUP2 PUSH2 0x19DD JUMP JUMPDEST SWAP1 POP SWAP2 SWAP1 POP JUMP JUMPDEST PUSH1 0x0 PUSH1 0x20 DUP3 ADD SWAP1 POP DUP2 DUP2 SUB PUSH1 0x0 DUP4 ADD MSTORE PUSH2 0x1D21 DUP2 PUSH2 0x1A00 JUMP JUMPDEST SWAP1 POP SWAP2 SWAP1 POP JUMP JUMPDEST PUSH1 0x0 PUSH1 0x20 DUP3 ADD SWAP1 POP DUP2 DUP2 SUB PUSH1 0x0 DUP4 ADD MSTORE PUSH2 0x1D41 DUP2 PUSH2 0x1A23 JUMP JUMPDEST SWAP1 POP SWAP2 SWAP1 POP JUMP JUMPDEST PUSH1 0x0 PUSH1 0x20 DUP3 ADD SWAP1 POP DUP2 DUP2 SUB PUSH1 0x0 DUP4 ADD MSTORE PUSH2 0x1D61 DUP2 PUSH2 0x1A46 JUMP JUMPDEST SWAP1 POP SWAP2 SWAP1 POP JUMP JUMPDEST PUSH1 0x0 PUSH1 0x20 DUP3 ADD SWAP1 POP DUP2 DUP2 SUB PUSH1 0x0 DUP4 ADD MSTORE PUSH2 0x1D81 DUP2 PUSH2 0x1A69 JUMP JUMPDEST SWAP1 POP SWAP2 SWAP1 POP JUMP JUMPDEST PUSH1 0x0 PUSH1 0x20 DUP3 ADD SWAP1 POP DUP2 DUP2 SUB PUSH1 0x0 DUP4 ADD MSTORE PUSH2 0x1DA1 DUP2 PUSH2 0x1A8C JUMP JUMPDEST SWAP1 POP SWAP2 SWAP1 POP JUMP JUMPDEST PUSH1 0x0 PUSH1 0x20 DUP3 ADD SWAP1 POP DUP2 DUP2 SUB PUSH1 0x0 DUP4 ADD MSTORE PUSH2 0x1DC1 DUP2 PUSH2 0x1AAF JUMP JUMPDEST SWAP1 POP SWAP2 SWAP1 POP JUMP JUMPDEST PUSH1 0x0 PUSH1 0x20 DUP3 ADD SWAP1 POP DUP2 DUP2 SUB PUSH1 0x0 DUP4 ADD MSTORE PUSH2 0x1DE1 DUP2 PUSH2 0x1AD2 JUMP JUMPDEST SWAP1 POP SWAP2 SWAP1 POP JUMP JUMPDEST PUSH1 0x0 PUSH1 0x20 DUP3 ADD SWAP1 POP DUP2 DUP2 SUB PUSH1 0x0 DUP4 ADD MSTORE PUSH2 0x1E01 DUP2 PUSH2 0x1AF5 JUMP JUMPDEST SWAP1 POP SWAP2 SWAP1 POP JUMP JUMPDEST PUSH1 0x0 PUSH1 0x20 DUP3 ADD SWAP1 POP DUP2 DUP2 SUB PUSH1 0x0 DUP4 ADD MSTORE PUSH2 0x1E21 DUP2 PUSH2 0x1B18 JUMP JUMPDEST SWAP1 POP SWAP2 SWAP1 POP JUMP JUMPDEST PUSH1 0x0 PUSH1 0x20 DUP3 ADD SWAP1 POP DUP2 DUP2 SUB PUSH1 0x0 DUP4 ADD MSTORE PUSH2 0x1E41 DUP2 PUSH2 0x1B3B JUMP JUMPDEST SWAP1 POP SWAP2 SWAP1 POP JUMP JUMPDEST PUSH1 0x0 PUSH1 0x20 DUP3 ADD SWAP1 POP PUSH2 0x1E5D PUSH1 0x0 DUP4 ADD DUP5 PUSH2 0x1B5E JUMP JUMPDEST SWAP3 SWAP2 POP POP JUMP JUMPDEST PUSH1 0x0 DUP3 DUP3 MSTORE PUSH1 0x20 DUP3 ADD SWAP1 POP SWAP3 SWAP2 POP POP JUMP JUMPDEST PUSH1 0x0 PUSH2 0x1E7F DUP3 PUSH2 0x1FC7 JUMP JUMPDEST SWAP2 POP PUSH2 0x1E8A DUP4 PUSH2 0x1FC7 JUMP JUMPDEST SWAP3 POP DUP3 PUSH32 0xFFFFFFFFFFFFFFFFFFFFFFFFFFFFFFFFFFFFFFFFFFFFFFFFFFFFFFFFFFFFFFFF SUB DUP3 GT ISZERO PUSH2 0x1EBF JUMPI PUSH2 0x1EBE PUSH2 0x2000 JUMP JUMPDEST JUMPDEST DUP3 DUP3 ADD SWAP1 POP SWAP3 SWAP2 POP POP JUMP JUMPDEST PUSH1 0x0 PUSH2 0x1ED5 DUP3 PUSH2 0x1FC7 JUMP JUMPDEST SWAP2 POP PUSH2 0x1EE0 DUP4 PUSH2 0x1FC7 JUMP JUMPDEST SWAP3 POP DUP3 PUSH2 0x1EF0 JUMPI PUSH2 0x1EEF PUSH2 0x202F JUMP JUMPDEST JUMPDEST DUP3 DUP3 DIV SWAP1 POP SWAP3 SWAP2 POP POP JUMP JUMPDEST PUSH1 0x0 PUSH2 0x1F06 DUP3 PUSH2 0x1FC7 JUMP JUMPDEST SWAP2 POP PUSH2 0x1F11 DUP4 PUSH2 0x1FC7 JUMP JUMPDEST SWAP3 POP DUP2 PUSH32 0xFFFFFFFFFFFFFFFFFFFFFFFFFFFFFFFFFFFFFFFFFFFFFFFFFFFFFFFFFFFFFFFF DIV DUP4 GT DUP3 ISZERO ISZERO AND ISZERO PUSH2 0x1F4A JUMPI PUSH2 0x1F49 PUSH2 0x2000 JUMP JUMPDEST JUMPDEST DUP3 DUP3 MUL SWAP1 POP SWAP3 SWAP2 POP POP JUMP JUMPDEST PUSH1 0x0 PUSH2 0x1F60 DUP3 PUSH2 0x1FC7 JUMP JUMPDEST SWAP2 POP PUSH2 0x1F6B DUP4 PUSH2 0x1FC7 JUMP JUMPDEST SWAP3 POP DUP3 DUP3 LT ISZERO PUSH2 0x1F7E JUMPI PUSH2 0x1F7D PUSH2 0x2000 JUMP JUMPDEST JUMPDEST DUP3 DUP3 SUB SWAP1 POP SWAP3 SWAP2 POP POP JUMP JUMPDEST PUSH1 0x0 PUSH2 0x1F94 DUP3 PUSH2 0x1FA7 JUMP JUMPDEST SWAP1 POP SWAP2 SWAP1 POP JUMP JUMPDEST PUSH1 0x0 DUP2 ISZERO ISZERO SWAP1 POP SWAP2 SWAP1 POP JUMP JUMPDEST PUSH1 0x0 PUSH20 0xFFFFFFFFFFFFFFFFFFFFFFFFFFFFFFFFFFFFFFFF DUP3 AND SWAP1 POP SWAP2 SWAP1 POP JUMP JUMPDEST PUSH1 0x0 DUP2 SWAP1 POP SWAP2 SWAP1 POP JUMP JUMPDEST PUSH32 0x4E487B7100000000000000000000000000000000000000000000000000000000 PUSH1 0x0 MSTORE PUSH1 0x1 PUSH1 0x4 MSTORE PUSH1 0x24 PUSH1 0x0 REVERT JUMPDEST PUSH32 0x4E487B7100000000000000000000000000000000000000000000000000000000 PUSH1 0x0 MSTORE PUSH1 0x11 PUSH1 0x4 MSTORE PUSH1 0x24 PUSH1 0x0 REVERT JUMPDEST PUSH32 0x4E487B7100000000000000000000000000000000000000000000000000000000 PUSH1 0x0 MSTORE PUSH1 0x12 PUSH1 0x4 MSTORE PUSH1 0x24 PUSH1 0x0 REVERT JUMPDEST PUSH1 0x0 DUP1 REVERT JUMPDEST PUSH32 0x4E6F20746F6B656E7320696E2072657365727665730000000000000000000000 PUSH1 0x0 DUP3 ADD MSTORE POP JUMP JUMPDEST PUSH32 0x4E6565642045544820746F2063726561746520706F6F6C2E0000000000000000 PUSH1 0x0 DUP3 ADD MSTORE POP JUMP JUMPDEST PUSH32 0x4E65656420746F6B656E7320746F2063726561746520706F6F6C2E0000000000 PUSH1 0x0 DUP3 ADD MSTORE POP JUMP JUMPDEST PUSH32 0x4E6F2045544820696E2072657365727665730000000000000000000000000000 PUSH1 0x0 DUP3 ADD MSTORE POP JUMP JUMPDEST PUSH32 0x496E636F72726563742045544820746F20546F6B656E20726174696F00000000 PUSH1 0x0 DUP3 ADD MSTORE POP JUMP JUMPDEST PUSH32 0x496E76616C696420737761700000000000000000000000000000000000000000 PUSH1 0x0 DUP3 ADD MSTORE POP JUMP JUMPDEST PUSH32 0x4D7573742070726F766964652045544820666F72206C69717569646974790000 PUSH1 0x0 DUP3 ADD MSTORE POP JUMP JUMPDEST PUSH32 0x546F6B656E20726573657276657320776173206E6F7420300000000000000000 PUSH1 0x0 DUP3 ADD MSTORE POP JUMP JUMPDEST PUSH32 0x4E6F7420656E6F756768206C697175696469747920746F2072656D6F76650000 PUSH1 0x0 DUP3 ADD MSTORE POP JUMP JUMPDEST PUSH32 0x496E73756666696369656E742045544820696E20726573657276657300000000 PUSH1 0x0 DUP3 ADD MSTORE POP JUMP JUMPDEST PUSH32 0x546F6B656E207472616E73666572206661696C65640000000000000000000000 PUSH1 0x0 DUP3 ADD MSTORE POP JUMP JUMPDEST PUSH32 0x52657365727665732061726520656D7074790000000000000000000000000000 PUSH1 0x0 DUP3 ADD MSTORE POP JUMP JUMPDEST PUSH32 0x4E6F204554482073656E74000000000000000000000000000000000000000000 PUSH1 0x0 DUP3 ADD MSTORE POP JUMP JUMPDEST PUSH32 0x4F776E61626C653A2063616C6C6572206973206E6F7420746865206F776E6572 PUSH1 0x0 DUP3 ADD MSTORE POP JUMP JUMPDEST PUSH32 0x4E6F206C697175696469747920746F2072656D6F766500000000000000000000 PUSH1 0x0 DUP3 ADD MSTORE POP JUMP JUMPDEST PUSH32 0x4D7573742070726F7669646520746F6B656E7320666F72206C69717569646974 PUSH1 0x0 DUP3 ADD MSTORE PUSH32 0x7900000000000000000000000000000000000000000000000000000000000000 PUSH1 0x20 DUP3 ADD MSTORE POP JUMP JUMPDEST PUSH32 0x496E73756666696369656E7420746F6B656E7320696E20726573657276657300 PUSH1 0x0 DUP3 ADD MSTORE POP JUMP JUMPDEST PUSH32 0x45544820726573657276657320776173206E6F7420302E000000000000000000 PUSH1 0x0 DUP3 ADD MSTORE POP JUMP JUMPDEST PUSH32 0x496E73756666696369656E7420746F6B656E7300000000000000000000000000 PUSH1 0x0 DUP3 ADD MSTORE POP JUMP JUMPDEST PUSH2 0x239D DUP2 PUSH2 0x1F89 JUMP JUMPDEST DUP2 EQ PUSH2 0x23A8 JUMPI PUSH1 0x0 DUP1 REVERT JUMPDEST POP JUMP JUMPDEST PUSH2 0x23B4 DUP2 PUSH2 0x1F9B JUMP JUMPDEST DUP2 EQ PUSH2 0x23BF JUMPI PUSH1 0x0 DUP1 REVERT JUMPDEST POP JUMP JUMPDEST PUSH2 0x23CB DUP2 PUSH2 0x1FC7 JUMP JUMPDEST DUP2 EQ PUSH2 0x23D6 JUMPI PUSH1 0x0 DUP1 REVERT JUMPDEST POP JUMP INVALID LOG2 PUSH5 0x6970667358 0x22 SLT KECCAK256 CREATE EXTCODESIZE GT SWAP11 SWAP6 INVALID 0xA9 0xD5 SMOD 0xEE SMOD 0xBC SGT 0xE7 0xAF PUSH8 0xCFE42C1D596DD289 CODESIZE STATICCALL 0xC8 PUSH6 0xACD769E66473 PUSH16 0x6C634300080700330000000000000000 "
				},
				"gasEstimates": {
					"creation": {
						"codeDepositCost": "1846200",
						"executionCost": "138274",
						"totalCost": "1984474"
					},
					"external": {
						"addLiquidity(uint256)": "infinite",
						"admin()": "2624",
						"amountETHGivenToken(uint256)": "infinite",
						"amountTokenGivenETH(uint256)": "infinite",
						"createPool(uint256)": "infinite",
						"eth_reserves()": "2518",
						"getEthAmountForTokenSwap(uint256)": "infinite",
						"getTokenAmountForEthSwap(uint256)": "infinite",
						"k()": "2496",
						"priceETH()": "infinite",
						"priceToken()": "infinite",
						"removeAllLiquidity()": "infinite",
						"removeLiquidity(uint256)": "infinite",
						"swapETHForTokens()": "infinite",
						"swapTokensForETH(uint256)": "infinite",
						"token_reserves()": "2452",
						"userLiquidity(address)": "2903"
					},
					"internal": {
						"_checkRounding()": "infinite"
					}
				},
				"methodIdentifiers": {
					"addLiquidity(uint256)": "51c6590a",
					"admin()": "f851a440",
					"amountETHGivenToken(uint256)": "eeddd4f6",
					"amountTokenGivenETH(uint256)": "156ac5ca",
					"createPool(uint256)": "8259e6a0",
					"eth_reserves()": "97ba499f",
					"getEthAmountForTokenSwap(uint256)": "58cd35db",
					"getTokenAmountForEthSwap(uint256)": "33aafe15",
					"k()": "b4f40c61",
					"priceETH()": "c38ad273",
					"priceToken()": "2ff6fe76",
					"removeAllLiquidity()": "88a780e5",
					"removeLiquidity(uint256)": "9c8f9f23",
					"swapETHForTokens()": "d592cbf6",
					"swapTokensForETH(uint256)": "e56a645e",
					"token_reserves()": "9adb3b97",
					"userLiquidity(address)": "ba4c28c3"
				}
			},
			"storageLayout": {
				"storage": [
					{
						"astId": 1438,
						"contract": "contracts/exchange.sol:TokenExchange",
						"label": "_owner",
						"offset": 0,
						"slot": "0",
						"type": "t_address"
					},
					{
						"astId": 8,
						"contract": "contracts/exchange.sol:TokenExchange",
						"label": "admin",
						"offset": 0,
						"slot": "1",
						"type": "t_address"
					},
					{
						"astId": 11,
						"contract": "contracts/exchange.sol:TokenExchange",
						"label": "tokenAddr",
						"offset": 0,
						"slot": "2",
						"type": "t_address"
					},
					{
						"astId": 17,
						"contract": "contracts/exchange.sol:TokenExchange",
						"label": "token",
						"offset": 0,
						"slot": "3",
						"type": "t_contract(HUSTToken)1046"
					},
					{
						"astId": 20,
						"contract": "contracts/exchange.sol:TokenExchange",
						"label": "token_reserves",
						"offset": 0,
						"slot": "4",
						"type": "t_uint256"
					},
					{
						"astId": 23,
						"contract": "contracts/exchange.sol:TokenExchange",
						"label": "eth_reserves",
						"offset": 0,
						"slot": "5",
						"type": "t_uint256"
					},
					{
						"astId": 25,
						"contract": "contracts/exchange.sol:TokenExchange",
						"label": "k",
						"offset": 0,
						"slot": "6",
						"type": "t_uint256"
					},
					{
						"astId": 28,
						"contract": "contracts/exchange.sol:TokenExchange",
						"label": "swap_fee_numerator",
						"offset": 0,
						"slot": "7",
						"type": "t_uint256"
					},
					{
						"astId": 31,
						"contract": "contracts/exchange.sol:TokenExchange",
						"label": "swap_fee_denominator",
						"offset": 0,
						"slot": "8",
						"type": "t_uint256"
					},
					{
						"astId": 47,
						"contract": "contracts/exchange.sol:TokenExchange",
						"label": "userLiquidity",
						"offset": 0,
						"slot": "9",
						"type": "t_mapping(t_address,t_uint256)"
					}
				],
				"types": {
					"t_address": {
						"encoding": "inplace",
						"label": "address",
						"numberOfBytes": "20"
					},
					"t_contract(HUSTToken)1046": {
						"encoding": "inplace",
						"label": "contract HUSTToken",
						"numberOfBytes": "20"
					},
					"t_mapping(t_address,t_uint256)": {
						"encoding": "mapping",
						"key": "t_address",
						"label": "mapping(address => uint256)",
						"numberOfBytes": "32",
						"value": "t_uint256"
					},
					"t_uint256": {
						"encoding": "inplace",
						"label": "uint256",
						"numberOfBytes": "32"
					}
				}
			},
			"userdoc": {
				"kind": "user",
				"methods": {
					"addLiquidity(uint256)": {
						"notice": "Adds liquidity given a supply of ETH (sent to the contract as msg.value). Calculates the liquidity to be added based on what was sent in and the prices. If the caller possesses insufficient tokens to equal the ETH sent, then the transaction must fail. A successful transaction should update the state of the contract, including the new constant product k, and then Emit an AddLiquidity event. NOTE: You can change the inputs, or the scope of your function, as needed."
					},
					"createPool(uint256)": {
						"notice": "Initializes a liquidity pool between your token and ETH. This is a payable function which means you can send in ETH as a quasi-parameter. In this case, the amount of eth sent to the pool will be in msg.value and the number of tokens will be amountTokens. Requirements:  - the liquidity pool should be empty to start  - the sender should send positive values for each"
					},
					"removeAllLiquidity()": {
						"notice": "Removes all liquidity that the sender is entitled to withdraw. Calculate the maximum amount of liquidity that the sender is entitled to withdraw and then calls removeLiquidity() to remove that amount of liquidity from the pool. NOTE: You can change the inputs, or the scope of your function, as needed."
					},
					"removeLiquidity(uint256)": {
						"notice": "Removes liquidity given the desired amount of ETH to remove. Calculates the amount of your tokens that should be also removed. If the caller is not entitled to remove the desired amount of liquidity, the transaction should fail. A successful transaction should update the state of the contract, including the new constant product k, transfer the ETH and Token to the sender and then Emit an RemoveLiquidity event. NOTE: You can change the inputs, or the scope of your function, as needed."
					},
					"swapETHForTokens()": {
						"notice": "Swaps msg.value ETH in exchange for your tokens. Calculates the amount of tokens that should be swapped in order to keep the constant product property, and transfers that number of tokens to the sender. If performing the swap would exhaust the total supply of tokens inside the exchange, the transaction must fail. Part 4 – Expand the function to take in additional parameters as needed. If the          exchange rate is greater than the slippage limit, the swap should fail. Part 5 – Only exchange amountTokens minus the fee taken out for liquidity providers          and keep track of the liquidity fees to be added back into the pool. NOTE: You can change the inputs, or the scope of your function, as needed."
					},
					"swapTokensForETH(uint256)": {
						"notice": "Swaps amountTokens of Token in exchange for ETH. Calculates the amount of ETH that should be swapped in order to keep the constant product property, and transfers that amount of ETH to the provider. If the caller has insufficient tokens, the transaction should fail. If performing the swap would exhaust the total supply of ETH inside the exchange, the transaction must fail. Part 4 – Expand the function to take in additional parameters as needed. If the          exchange rate is greater than the slippage limit, the swap should fail. Part 5 – Only exchange amountTokens minus the fee taken out for liquidity providers          and keep track of the liquidity fees to be added back into the pool. NOTE: You can change the inputs, or the scope of your function, as needed."
					}
				},
				"version": 1
			}
		}
	}
}