{
	"contracts/token.sol": {
		"HUSTToken": {
			"abi": [
				{
					"anonymous": false,
					"inputs": [
						{
							"indexed": true,
							"internalType": "address",
							"name": "owner",
							"type": "address"
						},
						{
							"indexed": true,
							"internalType": "address",
							"name": "spender",
							"type": "address"
						},
						{
							"indexed": false,
							"internalType": "uint256",
							"name": "value",
							"type": "uint256"
						}
					],
					"name": "Approval",
					"type": "event"
				},
				{
					"anonymous": false,
					"inputs": [
						{
							"indexed": true,
							"internalType": "address",
							"name": "from",
							"type": "address"
						},
						{
							"indexed": true,
							"internalType": "address",
							"name": "to",
							"type": "address"
						},
						{
							"indexed": false,
							"internalType": "uint256",
							"name": "value",
							"type": "uint256"
						}
					],
					"name": "Transfer",
					"type": "event"
				},
				{
					"inputs": [],
					"name": "_disable_mint",
					"outputs": [],
					"stateMutability": "nonpayable",
					"type": "function"
				},
				{
					"inputs": [
						{
							"internalType": "uint256",
							"name": "amount",
							"type": "uint256"
						}
					],
					"name": "_mint",
					"outputs": [],
					"stateMutability": "nonpayable",
					"type": "function"
				},
				{
					"inputs": [
						{
							"internalType": "address",
							"name": "owner",
							"type": "address"
						},
						{
							"internalType": "address",
							"name": "spender",
							"type": "address"
						}
					],
					"name": "allowance",
					"outputs": [
						{
							"internalType": "uint256",
							"name": "",
							"type": "uint256"
						}
					],
					"stateMutability": "view",
					"type": "function"
				},
				{
					"inputs": [
						{
							"internalType": "address",
							"name": "spender",
							"type": "address"
						},
						{
							"internalType": "uint256",
							"name": "amount",
							"type": "uint256"
						}
					],
					"name": "approve",
					"outputs": [
						{
							"internalType": "bool",
							"name": "",
							"type": "bool"
						}
					],
					"stateMutability": "nonpayable",
					"type": "function"
				},
				{
					"inputs": [
						{
							"internalType": "address",
							"name": "owner",
							"type": "address"
						}
					],
					"name": "balanceOf",
					"outputs": [
						{
							"internalType": "uint256",
							"name": "",
							"type": "uint256"
						}
					],
					"stateMutability": "view",
					"type": "function"
				},
				{
					"inputs": [],
					"name": "decimals",
					"outputs": [
						{
							"internalType": "uint8",
							"name": "",
							"type": "uint8"
						}
					],
					"stateMutability": "view",
					"type": "function"
				},
				{
					"inputs": [],
					"name": "totalSupply",
					"outputs": [
						{
							"internalType": "uint256",
							"name": "",
							"type": "uint256"
						}
					],
					"stateMutability": "view",
					"type": "function"
				},
				{
					"inputs": [
						{
							"internalType": "address",
							"name": "recipient",
							"type": "address"
						},
						{
							"internalType": "uint256",
							"name": "amount",
							"type": "uint256"
						}
					],
					"name": "transfer",
					"outputs": [
						{
							"internalType": "bool",
							"name": "",
							"type": "bool"
						}
					],
					"stateMutability": "nonpayable",
					"type": "function"
				},
				{
					"inputs": [
						{
							"internalType": "address",
							"name": "sender",
							"type": "address"
						},
						{
							"internalType": "address",
							"name": "recipient",
							"type": "address"
						},
						{
							"internalType": "uint256",
							"name": "amount",
							"type": "uint256"
						}
					],
					"name": "transferFrom",
					"outputs": [
						{
							"internalType": "bool",
							"name": "",
							"type": "bool"
						}
					],
					"stateMutability": "nonpayable",
					"type": "function"
				}
			],
			"devdoc": {
				"kind": "dev",
				"methods": {},
				"version": 1
			},
			"evm": {
				"assembly": "    /* \"contracts/token.sol\":619:7414  contract HUSTToken is Ownable, IERC20 {... */\n  mstore(0x40, 0x80)\n    /* \"contracts/token.sol\":885:886  0 */\n  0x00\n    /* \"contracts/token.sol\":857:886  uint private _totalSupply = 0 */\n  0x01\n  sstore\n    /* \"contracts/token.sol\":1053:1058  false */\n  0x00\n    /* \"contracts/token.sol\":1021:1058  bool private minting_disabled = false */\n  0x04\n  exp(0x0100, 0x00)\n  dup2\n  sload\n  dup2\n  0xff\n  mul\n  not\n  and\n  swap1\n  dup4\n  iszero\n  iszero\n  mul\n  or\n  swap1\n  sstore\n  pop\n    /* \"contracts/token.sol\":619:7414  contract HUSTToken is Ownable, IERC20 {... */\n  callvalue\n  dup1\n  iszero\n  tag_1\n  jumpi\n  0x00\n  dup1\n  revert\ntag_1:\n  pop\n    /* \"libraries/ownable.sol\":884:894  msg.sender */\n  caller\n    /* \"libraries/ownable.sol\":875:881  _owner */\n  0x00\n  dup1\n    /* \"libraries/ownable.sol\":875:894  _owner = msg.sender */\n  0x0100\n  exp\n  dup2\n  sload\n  dup2\n  0xffffffffffffffffffffffffffffffffffffffff\n  mul\n  not\n  and\n  swap1\n  dup4\n  0xffffffffffffffffffffffffffffffffffffffff\n  and\n  mul\n  or\n  swap1\n  sstore\n  pop\n    /* \"contracts/token.sol\":619:7414  contract HUSTToken is Ownable, IERC20 {... */\n  dataSize(sub_0)\n  dup1\n  dataOffset(sub_0)\n  0x00\n  codecopy\n  0x00\n  return\nstop\n\nsub_0: assembly {\n        /* \"contracts/token.sol\":619:7414  contract HUSTToken is Ownable, IERC20 {... */\n      mstore(0x40, 0x80)\n      callvalue\n      dup1\n      iszero\n      tag_1\n      jumpi\n      0x00\n      dup1\n      revert\n    tag_1:\n      pop\n      jumpi(tag_2, lt(calldatasize, 0x04))\n      shr(0xe0, calldataload(0x00))\n      dup1\n      0x2c526196\n      gt\n      tag_12\n      jumpi\n      dup1\n      0x2c526196\n      eq\n      tag_7\n      jumpi\n      dup1\n      0x313ce567\n      eq\n      tag_8\n      jumpi\n      dup1\n      0x70a08231\n      eq\n      tag_9\n      jumpi\n      dup1\n      0xa9059cbb\n      eq\n      tag_10\n      jumpi\n      dup1\n      0xdd62ed3e\n      eq\n      tag_11\n      jumpi\n      jump(tag_2)\n    tag_12:\n      dup1\n      0x095ea7b3\n      eq\n      tag_3\n      jumpi\n      dup1\n      0x13b4159c\n      eq\n      tag_4\n      jumpi\n      dup1\n      0x18160ddd\n      eq\n      tag_5\n      jumpi\n      dup1\n      0x23b872dd\n      eq\n      tag_6\n      jumpi\n    tag_2:\n      0x00\n      dup1\n      revert\n        /* \"contracts/token.sol\":5771:6187  function approve(address spender, uint256 amount) ... */\n    tag_3:\n      tag_13\n      0x04\n      dup1\n      calldatasize\n      sub\n      dup2\n      add\n      swap1\n      tag_14\n      swap2\n      swap1\n      tag_15\n      jump\t// in\n    tag_14:\n      tag_16\n      jump\t// in\n    tag_13:\n      mload(0x40)\n      tag_17\n      swap2\n      swap1\n      tag_18\n      jump\t// in\n    tag_17:\n      mload(0x40)\n      dup1\n      swap2\n      sub\n      swap1\n      return\n        /* \"contracts/token.sol\":2674:2832  function _disable_mint()... */\n    tag_4:\n      tag_19\n      tag_20\n      jump\t// in\n    tag_19:\n      stop\n        /* \"contracts/token.sol\":3143:3283  function totalSupply() ... */\n    tag_5:\n      tag_21\n      tag_22\n      jump\t// in\n    tag_21:\n      mload(0x40)\n      tag_23\n      swap2\n      swap1\n      tag_24\n      jump\t// in\n    tag_23:\n      mload(0x40)\n      dup1\n      swap2\n      sub\n      swap1\n      return\n        /* \"contracts/token.sol\":6714:7412  function transferFrom(address sender, address recipient, uint256 amount) ... */\n    tag_6:\n      tag_25\n      0x04\n      dup1\n      calldatasize\n      sub\n      dup2\n      add\n      swap1\n      tag_26\n      swap2\n      swap1\n      tag_27\n      jump\t// in\n    tag_26:\n      tag_28\n      jump\t// in\n    tag_25:\n      mload(0x40)\n      tag_29\n      swap2\n      swap1\n      tag_18\n      jump\t// in\n    tag_29:\n      mload(0x40)\n      dup1\n      swap2\n      sub\n      swap1\n      return\n        /* \"contracts/token.sol\":1888:2339  function _mint(uint amount) ... */\n    tag_7:\n      tag_30\n      0x04\n      dup1\n      calldatasize\n      sub\n      dup2\n      add\n      swap1\n      tag_31\n      swap2\n      swap1\n      tag_32\n      jump\t// in\n    tag_31:\n      tag_33\n      jump\t// in\n    tag_30:\n      stop\n        /* \"contracts/token.sol\":1381:1463  function decimals() public view virtual returns (uint8) {... */\n    tag_8:\n      tag_34\n      tag_35\n      jump\t// in\n    tag_34:\n      mload(0x40)\n      tag_36\n      swap2\n      swap1\n      tag_37\n      jump\t// in\n    tag_36:\n      mload(0x40)\n      dup1\n      swap2\n      sub\n      swap1\n      return\n        /* \"contracts/token.sol\":3624:3779  function balanceOf(address owner) ... */\n    tag_9:\n      tag_38\n      0x04\n      dup1\n      calldatasize\n      sub\n      dup2\n      add\n      swap1\n      tag_39\n      swap2\n      swap1\n      tag_40\n      jump\t// in\n    tag_39:\n      tag_41\n      jump\t// in\n    tag_38:\n      mload(0x40)\n      tag_42\n      swap2\n      swap1\n      tag_24\n      jump\t// in\n    tag_42:\n      mload(0x40)\n      dup1\n      swap2\n      sub\n      swap1\n      return\n        /* \"contracts/token.sol\":4217:4672  function transfer(address recipient, uint256 amount) ... */\n    tag_10:\n      tag_43\n      0x04\n      dup1\n      calldatasize\n      sub\n      dup2\n      add\n      swap1\n      tag_44\n      swap2\n      swap1\n      tag_15\n      jump\t// in\n    tag_44:\n      tag_45\n      jump\t// in\n    tag_43:\n      mload(0x40)\n      tag_46\n      swap2\n      swap1\n      tag_18\n      jump\t// in\n    tag_46:\n      mload(0x40)\n      dup1\n      swap2\n      sub\n      swap1\n      return\n        /* \"contracts/token.sol\":5187:5330  function allowance(address owner, address spender) external view override returns (uint256) {... */\n    tag_11:\n      tag_47\n      0x04\n      dup1\n      calldatasize\n      sub\n      dup2\n      add\n      swap1\n      tag_48\n      swap2\n      swap1\n      tag_49\n      jump\t// in\n    tag_48:\n      tag_50\n      jump\t// in\n    tag_47:\n      mload(0x40)\n      tag_51\n      swap2\n      swap1\n      tag_24\n      jump\t// in\n    tag_51:\n      mload(0x40)\n      dup1\n      swap2\n      sub\n      swap1\n      return\n        /* \"contracts/token.sol\":5771:6187  function approve(address spender, uint256 amount) ... */\n    tag_16:\n        /* \"contracts/token.sol\":5875:5879  bool */\n      0x00\n        /* \"contracts/token.sol\":5922:5923  0 */\n      dup1\n        /* \"contracts/token.sol\":5903:5924  spender != address(0) */\n      0xffffffffffffffffffffffffffffffffffffffff\n      and\n        /* \"contracts/token.sol\":5903:5910  spender */\n      dup4\n        /* \"contracts/token.sol\":5903:5924  spender != address(0) */\n      0xffffffffffffffffffffffffffffffffffffffff\n      and\n      eq\n      iszero\n        /* \"contracts/token.sol\":5895:5963  require(spender != address(0), \"ERC20: approve to the zero address\") */\n      tag_53\n      jumpi\n      mload(0x40)\n      0x08c379a000000000000000000000000000000000000000000000000000000000\n      dup2\n      mstore\n      0x04\n      add\n      tag_54\n      swap1\n      tag_55\n      jump\t// in\n    tag_54:\n      mload(0x40)\n      dup1\n      swap2\n      sub\n      swap1\n      revert\n    tag_53:\n        /* \"contracts/token.sol\":6006:6012  amount */\n      dup2\n        /* \"contracts/token.sol\":5981:5990  _balances */\n      0x02\n        /* \"contracts/token.sol\":5981:6002  _balances[msg.sender] */\n      0x00\n        /* \"contracts/token.sol\":5991:6001  msg.sender */\n      caller\n        /* \"contracts/token.sol\":5981:6002  _balances[msg.sender] */\n      0xffffffffffffffffffffffffffffffffffffffff\n      and\n      0xffffffffffffffffffffffffffffffffffffffff\n      and\n      dup2\n      mstore\n      0x20\n      add\n      swap1\n      dup2\n      mstore\n      0x20\n      add\n      0x00\n      keccak256\n      sload\n        /* \"contracts/token.sol\":5981:6012  _balances[msg.sender] >= amount */\n      lt\n      iszero\n        /* \"contracts/token.sol\":5973:6054  require(_balances[msg.sender] >= amount, \"ERC20: approve amount exceeds balance\") */\n      tag_56\n      jumpi\n      mload(0x40)\n      0x08c379a000000000000000000000000000000000000000000000000000000000\n      dup2\n      mstore\n      0x04\n      add\n      tag_57\n      swap1\n      tag_58\n      jump\t// in\n    tag_57:\n      mload(0x40)\n      dup1\n      swap2\n      sub\n      swap1\n      revert\n    tag_56:\n        /* \"contracts/token.sol\":6100:6106  amount */\n      dup2\n        /* \"contracts/token.sol\":6065:6076  _allowances */\n      0x03\n        /* \"contracts/token.sol\":6065:6088  _allowances[msg.sender] */\n      0x00\n        /* \"contracts/token.sol\":6077:6087  msg.sender */\n      caller\n        /* \"contracts/token.sol\":6065:6088  _allowances[msg.sender] */\n      0xffffffffffffffffffffffffffffffffffffffff\n      and\n      0xffffffffffffffffffffffffffffffffffffffff\n      and\n      dup2\n      mstore\n      0x20\n      add\n      swap1\n      dup2\n      mstore\n      0x20\n      add\n      0x00\n      keccak256\n        /* \"contracts/token.sol\":6065:6097  _allowances[msg.sender][spender] */\n      0x00\n        /* \"contracts/token.sol\":6089:6096  spender */\n      dup6\n        /* \"contracts/token.sol\":6065:6097  _allowances[msg.sender][spender] */\n      0xffffffffffffffffffffffffffffffffffffffff\n      and\n      0xffffffffffffffffffffffffffffffffffffffff\n      and\n      dup2\n      mstore\n      0x20\n      add\n      swap1\n      dup2\n      mstore\n      0x20\n      add\n      0x00\n      keccak256\n        /* \"contracts/token.sol\":6065:6106  _allowances[msg.sender][spender] = amount */\n      dup2\n      swap1\n      sstore\n      pop\n        /* \"contracts/token.sol\":6142:6149  spender */\n      dup3\n        /* \"contracts/token.sol\":6121:6158  Approval(msg.sender, spender, amount) */\n      0xffffffffffffffffffffffffffffffffffffffff\n      and\n        /* \"contracts/token.sol\":6130:6140  msg.sender */\n      caller\n        /* \"contracts/token.sol\":6121:6158  Approval(msg.sender, spender, amount) */\n      0xffffffffffffffffffffffffffffffffffffffff\n      and\n      0x8c5be1e5ebec7d5bd14f71427d1e84f3dd0314c0f7b2291e5b200ac8c7c3b925\n        /* \"contracts/token.sol\":6151:6157  amount */\n      dup5\n        /* \"contracts/token.sol\":6121:6158  Approval(msg.sender, spender, amount) */\n      mload(0x40)\n      tag_59\n      swap2\n      swap1\n      tag_24\n      jump\t// in\n    tag_59:\n      mload(0x40)\n      dup1\n      swap2\n      sub\n      swap1\n      log3\n        /* \"contracts/token.sol\":6176:6180  true */\n      0x01\n        /* \"contracts/token.sol\":6169:6180  return true */\n      swap1\n      pop\n        /* \"contracts/token.sol\":5771:6187  function approve(address spender, uint256 amount) ... */\n      swap3\n      swap2\n      pop\n      pop\n      jump\t// out\n        /* \"contracts/token.sol\":2674:2832  function _disable_mint()... */\n    tag_20:\n        /* \"libraries/ownable.sol\":1033:1043  msg.sender */\n      caller\n        /* \"libraries/ownable.sol\":1023:1043  _owner == msg.sender */\n      0xffffffffffffffffffffffffffffffffffffffff\n      and\n        /* \"libraries/ownable.sol\":1023:1029  _owner */\n      0x00\n      dup1\n      sload\n      swap1\n      0x0100\n      exp\n      swap1\n      div\n      0xffffffffffffffffffffffffffffffffffffffff\n      and\n        /* \"libraries/ownable.sol\":1023:1043  _owner == msg.sender */\n      0xffffffffffffffffffffffffffffffffffffffff\n      and\n      eq\n        /* \"libraries/ownable.sol\":1015:1080  require(_owner == msg.sender, \"Ownable: caller is not the owner\") */\n      tag_61\n      jumpi\n      mload(0x40)\n      0x08c379a000000000000000000000000000000000000000000000000000000000\n      dup2\n      mstore\n      0x04\n      add\n      tag_62\n      swap1\n      tag_63\n      jump\t// in\n    tag_62:\n      mload(0x40)\n      dup1\n      swap2\n      sub\n      swap1\n      revert\n    tag_61:\n        /* \"contracts/token.sol\":2821:2825  true */\n      0x01\n        /* \"contracts/token.sol\":2802:2818  minting_disabled */\n      0x04\n      0x00\n        /* \"contracts/token.sol\":2802:2825  minting_disabled = true */\n      0x0100\n      exp\n      dup2\n      sload\n      dup2\n      0xff\n      mul\n      not\n      and\n      swap1\n      dup4\n      iszero\n      iszero\n      mul\n      or\n      swap1\n      sstore\n      pop\n        /* \"contracts/token.sol\":2674:2832  function _disable_mint()... */\n      jump\t// out\n        /* \"contracts/token.sol\":3143:3283  function totalSupply() ... */\n    tag_22:\n        /* \"contracts/token.sol\":3234:3241  uint256 */\n      0x00\n        /* \"contracts/token.sol\":3264:3276  _totalSupply */\n      sload(0x01)\n        /* \"contracts/token.sol\":3257:3276  return _totalSupply */\n      swap1\n      pop\n        /* \"contracts/token.sol\":3143:3283  function totalSupply() ... */\n      swap1\n      jump\t// out\n        /* \"contracts/token.sol\":6714:7412  function transferFrom(address sender, address recipient, uint256 amount) ... */\n    tag_28:\n        /* \"contracts/token.sol\":6841:6845  bool */\n      0x00\n        /* \"contracts/token.sol\":6887:6888  0 */\n      dup1\n        /* \"contracts/token.sol\":6869:6889  sender != address(0) */\n      0xffffffffffffffffffffffffffffffffffffffff\n      and\n        /* \"contracts/token.sol\":6869:6875  sender */\n      dup5\n        /* \"contracts/token.sol\":6869:6889  sender != address(0) */\n      0xffffffffffffffffffffffffffffffffffffffff\n      and\n      eq\n      iszero\n        /* \"contracts/token.sol\":6861:6931  require(sender != address(0), \"ERC20: transfer from the zero address\") */\n      tag_67\n      jumpi\n      mload(0x40)\n      0x08c379a000000000000000000000000000000000000000000000000000000000\n      dup2\n      mstore\n      0x04\n      add\n      tag_68\n      swap1\n      tag_69\n      jump\t// in\n    tag_68:\n      mload(0x40)\n      dup1\n      swap2\n      sub\n      swap1\n      revert\n    tag_67:\n        /* \"contracts/token.sol\":6970:6971  0 */\n      0x00\n        /* \"contracts/token.sol\":6949:6972  recipient != address(0) */\n      0xffffffffffffffffffffffffffffffffffffffff\n      and\n        /* \"contracts/token.sol\":6949:6958  recipient */\n      dup4\n        /* \"contracts/token.sol\":6949:6972  recipient != address(0) */\n      0xffffffffffffffffffffffffffffffffffffffff\n      and\n      eq\n      iszero\n        /* \"contracts/token.sol\":6941:7012  require(recipient != address(0), \"ERC20: transfer to the zero address\") */\n      tag_70\n      jumpi\n      mload(0x40)\n      0x08c379a000000000000000000000000000000000000000000000000000000000\n      dup2\n      mstore\n      0x04\n      add\n      tag_71\n      swap1\n      tag_72\n      jump\t// in\n    tag_71:\n      mload(0x40)\n      dup1\n      swap2\n      sub\n      swap1\n      revert\n    tag_70:\n        /* \"contracts/token.sol\":7051:7057  amount */\n      dup2\n        /* \"contracts/token.sol\":7030:7039  _balances */\n      0x02\n        /* \"contracts/token.sol\":7030:7047  _balances[sender] */\n      0x00\n        /* \"contracts/token.sol\":7040:7046  sender */\n      dup7\n        /* \"contracts/token.sol\":7030:7047  _balances[sender] */\n      0xffffffffffffffffffffffffffffffffffffffff\n      and\n      0xffffffffffffffffffffffffffffffffffffffff\n      and\n      dup2\n      mstore\n      0x20\n      add\n      swap1\n      dup2\n      mstore\n      0x20\n      add\n      0x00\n      keccak256\n      sload\n        /* \"contracts/token.sol\":7030:7057  _balances[sender] >= amount */\n      lt\n      iszero\n        /* \"contracts/token.sol\":7022:7100  require(_balances[sender] >= amount, \"ERC20: transfer amount exceeds balance\") */\n      tag_73\n      jumpi\n      mload(0x40)\n      0x08c379a000000000000000000000000000000000000000000000000000000000\n      dup2\n      mstore\n      0x04\n      add\n      tag_74\n      swap1\n      tag_75\n      jump\t// in\n    tag_74:\n      mload(0x40)\n      dup1\n      swap2\n      sub\n      swap1\n      revert\n    tag_73:\n        /* \"contracts/token.sol\":7153:7159  amount */\n      dup2\n        /* \"contracts/token.sol\":7118:7129  _allowances */\n      0x03\n        /* \"contracts/token.sol\":7118:7137  _allowances[sender] */\n      0x00\n        /* \"contracts/token.sol\":7130:7136  sender */\n      dup7\n        /* \"contracts/token.sol\":7118:7137  _allowances[sender] */\n      0xffffffffffffffffffffffffffffffffffffffff\n      and\n      0xffffffffffffffffffffffffffffffffffffffff\n      and\n      dup2\n      mstore\n      0x20\n      add\n      swap1\n      dup2\n      mstore\n      0x20\n      add\n      0x00\n      keccak256\n        /* \"contracts/token.sol\":7118:7149  _allowances[sender][msg.sender] */\n      0x00\n        /* \"contracts/token.sol\":7138:7148  msg.sender */\n      caller\n        /* \"contracts/token.sol\":7118:7149  _allowances[sender][msg.sender] */\n      0xffffffffffffffffffffffffffffffffffffffff\n      and\n      0xffffffffffffffffffffffffffffffffffffffff\n      and\n      dup2\n      mstore\n      0x20\n      add\n      swap1\n      dup2\n      mstore\n      0x20\n      add\n      0x00\n      keccak256\n      sload\n        /* \"contracts/token.sol\":7118:7159  _allowances[sender][msg.sender] >= amount */\n      lt\n      iszero\n        /* \"contracts/token.sol\":7110:7204  require(_allowances[sender][msg.sender] >= amount, \"ERC20: transfer amount exceeds allowance\") */\n      tag_76\n      jumpi\n      mload(0x40)\n      0x08c379a000000000000000000000000000000000000000000000000000000000\n      dup2\n      mstore\n      0x04\n      add\n      tag_77\n      swap1\n      tag_78\n      jump\t// in\n    tag_77:\n      mload(0x40)\n      dup1\n      swap2\n      sub\n      swap1\n      revert\n    tag_76:\n        /* \"contracts/token.sol\":7236:7242  amount */\n      dup2\n        /* \"contracts/token.sol\":7215:7224  _balances */\n      0x02\n        /* \"contracts/token.sol\":7215:7232  _balances[sender] */\n      0x00\n        /* \"contracts/token.sol\":7225:7231  sender */\n      dup7\n        /* \"contracts/token.sol\":7215:7232  _balances[sender] */\n      0xffffffffffffffffffffffffffffffffffffffff\n      and\n      0xffffffffffffffffffffffffffffffffffffffff\n      and\n      dup2\n      mstore\n      0x20\n      add\n      swap1\n      dup2\n      mstore\n      0x20\n      add\n      0x00\n      keccak256\n      0x00\n        /* \"contracts/token.sol\":7215:7242  _balances[sender] -= amount */\n      dup3\n      dup3\n      sload\n      tag_79\n      swap2\n      swap1\n      tag_80\n      jump\t// in\n    tag_79:\n      swap3\n      pop\n      pop\n      dup2\n      swap1\n      sstore\n      pop\n        /* \"contracts/token.sol\":7276:7282  amount */\n      dup2\n        /* \"contracts/token.sol\":7252:7261  _balances */\n      0x02\n        /* \"contracts/token.sol\":7252:7272  _balances[recipient] */\n      0x00\n        /* \"contracts/token.sol\":7262:7271  recipient */\n      dup6\n        /* \"contracts/token.sol\":7252:7272  _balances[recipient] */\n      0xffffffffffffffffffffffffffffffffffffffff\n      and\n      0xffffffffffffffffffffffffffffffffffffffff\n      and\n      dup2\n      mstore\n      0x20\n      add\n      swap1\n      dup2\n      mstore\n      0x20\n      add\n      0x00\n      keccak256\n      0x00\n        /* \"contracts/token.sol\":7252:7282  _balances[recipient] += amount */\n      dup3\n      dup3\n      sload\n      tag_81\n      swap2\n      swap1\n      tag_82\n      jump\t// in\n    tag_81:\n      swap3\n      pop\n      pop\n      dup2\n      swap1\n      sstore\n      pop\n        /* \"contracts/token.sol\":7327:7333  amount */\n      dup2\n        /* \"contracts/token.sol\":7292:7303  _allowances */\n      0x03\n        /* \"contracts/token.sol\":7292:7311  _allowances[sender] */\n      0x00\n        /* \"contracts/token.sol\":7304:7310  sender */\n      dup7\n        /* \"contracts/token.sol\":7292:7311  _allowances[sender] */\n      0xffffffffffffffffffffffffffffffffffffffff\n      and\n      0xffffffffffffffffffffffffffffffffffffffff\n      and\n      dup2\n      mstore\n      0x20\n      add\n      swap1\n      dup2\n      mstore\n      0x20\n      add\n      0x00\n      keccak256\n        /* \"contracts/token.sol\":7292:7323  _allowances[sender][msg.sender] */\n      0x00\n        /* \"contracts/token.sol\":7312:7322  msg.sender */\n      caller\n        /* \"contracts/token.sol\":7292:7323  _allowances[sender][msg.sender] */\n      0xffffffffffffffffffffffffffffffffffffffff\n      and\n      0xffffffffffffffffffffffffffffffffffffffff\n      and\n      dup2\n      mstore\n      0x20\n      add\n      swap1\n      dup2\n      mstore\n      0x20\n      add\n      0x00\n      keccak256\n      0x00\n        /* \"contracts/token.sol\":7292:7333  _allowances[sender][msg.sender] -= amount */\n      dup3\n      dup3\n      sload\n      tag_83\n      swap2\n      swap1\n      tag_80\n      jump\t// in\n    tag_83:\n      swap3\n      pop\n      pop\n      dup2\n      swap1\n      sstore\n      pop\n        /* \"contracts/token.sol\":7365:7374  recipient */\n      dup3\n        /* \"contracts/token.sol\":7348:7383  Transfer(sender, recipient, amount) */\n      0xffffffffffffffffffffffffffffffffffffffff\n      and\n        /* \"contracts/token.sol\":7357:7363  sender */\n      dup5\n        /* \"contracts/token.sol\":7348:7383  Transfer(sender, recipient, amount) */\n      0xffffffffffffffffffffffffffffffffffffffff\n      and\n      0xddf252ad1be2c89b69c2b068fc378daa952ba7f163c4a11628f55a4df523b3ef\n        /* \"contracts/token.sol\":7376:7382  amount */\n      dup5\n        /* \"contracts/token.sol\":7348:7383  Transfer(sender, recipient, amount) */\n      mload(0x40)\n      tag_84\n      swap2\n      swap1\n      tag_24\n      jump\t// in\n    tag_84:\n      mload(0x40)\n      dup1\n      swap2\n      sub\n      swap1\n      log3\n        /* \"contracts/token.sol\":7401:7405  true */\n      0x01\n        /* \"contracts/token.sol\":7394:7405  return true */\n      swap1\n      pop\n        /* \"contracts/token.sol\":6714:7412  function transferFrom(address sender, address recipient, uint256 amount) ... */\n      swap4\n      swap3\n      pop\n      pop\n      pop\n      jump\t// out\n        /* \"contracts/token.sol\":1888:2339  function _mint(uint amount) ... */\n    tag_33:\n        /* \"libraries/ownable.sol\":1033:1043  msg.sender */\n      caller\n        /* \"libraries/ownable.sol\":1023:1043  _owner == msg.sender */\n      0xffffffffffffffffffffffffffffffffffffffff\n      and\n        /* \"libraries/ownable.sol\":1023:1029  _owner */\n      0x00\n      dup1\n      sload\n      swap1\n      0x0100\n      exp\n      swap1\n      div\n      0xffffffffffffffffffffffffffffffffffffffff\n      and\n        /* \"libraries/ownable.sol\":1023:1043  _owner == msg.sender */\n      0xffffffffffffffffffffffffffffffffffffffff\n      and\n      eq\n        /* \"libraries/ownable.sol\":1015:1080  require(_owner == msg.sender, \"Ownable: caller is not the owner\") */\n      tag_86\n      jumpi\n      mload(0x40)\n      0x08c379a000000000000000000000000000000000000000000000000000000000\n      dup2\n      mstore\n      0x04\n      add\n      tag_87\n      swap1\n      tag_63\n      jump\t// in\n    tag_87:\n      mload(0x40)\n      dup1\n      swap2\n      sub\n      swap1\n      revert\n    tag_86:\n        /* \"contracts/token.sol\":2051:2052  0 */\n      0x00\n        /* \"contracts/token.sol\":2029:2053  msg.sender != address(0) */\n      0xffffffffffffffffffffffffffffffffffffffff\n      and\n        /* \"contracts/token.sol\":2029:2039  msg.sender */\n      caller\n        /* \"contracts/token.sol\":2029:2053  msg.sender != address(0) */\n      0xffffffffffffffffffffffffffffffffffffffff\n      and\n      eq\n      iszero\n        /* \"contracts/token.sol\":2021:2089  require(msg.sender != address(0), \"ERC20: mint to the zero address\") */\n      tag_89\n      jumpi\n      mload(0x40)\n      0x08c379a000000000000000000000000000000000000000000000000000000000\n      dup2\n      mstore\n      0x04\n      add\n      tag_90\n      swap1\n      tag_91\n      jump\t// in\n    tag_90:\n      mload(0x40)\n      dup1\n      swap2\n      sub\n      swap1\n      revert\n    tag_89:\n        /* \"contracts/token.sol\":2127:2132  false */\n      0x00\n        /* \"contracts/token.sol\":2107:2132  minting_disabled == false */\n      iszero\n      iszero\n        /* \"contracts/token.sol\":2107:2123  minting_disabled */\n      0x04\n      0x00\n      swap1\n      sload\n      swap1\n      0x0100\n      exp\n      swap1\n      div\n      0xff\n      and\n        /* \"contracts/token.sol\":2107:2132  minting_disabled == false */\n      iszero\n      iszero\n      eq\n        /* \"contracts/token.sol\":2099:2156  require(minting_disabled == false, \"Minting is disabled\") */\n      tag_92\n      jumpi\n      mload(0x40)\n      0x08c379a000000000000000000000000000000000000000000000000000000000\n      dup2\n      mstore\n      0x04\n      add\n      tag_93\n      swap1\n      tag_94\n      jump\t// in\n    tag_93:\n      mload(0x40)\n      dup1\n      swap2\n      sub\n      swap1\n      revert\n    tag_92:\n        /* \"contracts/token.sol\":2198:2208  decimals() */\n      tag_95\n        /* \"contracts/token.sol\":2198:2206  decimals */\n      tag_35\n        /* \"contracts/token.sol\":2198:2208  decimals() */\n      jump\t// in\n    tag_95:\n        /* \"contracts/token.sol\":2192:2194  10 */\n      0x0a\n        /* \"contracts/token.sol\":2192:2208  10 ** decimals() */\n      tag_96\n      swap2\n      swap1\n      tag_97\n      jump\t// in\n    tag_96:\n        /* \"contracts/token.sol\":2183:2189  amount */\n      dup2\n        /* \"contracts/token.sol\":2183:2208  amount / 10 ** decimals() */\n      tag_98\n      swap2\n      swap1\n      tag_99\n      jump\t// in\n    tag_98:\n        /* \"contracts/token.sol\":2167:2179  _totalSupply */\n      0x01\n      0x00\n        /* \"contracts/token.sol\":2167:2208  _totalSupply += amount / 10 ** decimals() */\n      dup3\n      dup3\n      sload\n      tag_100\n      swap2\n      swap1\n      tag_82\n      jump\t// in\n    tag_100:\n      swap3\n      pop\n      pop\n      dup2\n      swap1\n      sstore\n      pop\n        /* \"contracts/token.sol\":2258:2268  decimals() */\n      tag_101\n        /* \"contracts/token.sol\":2258:2266  decimals */\n      tag_35\n        /* \"contracts/token.sol\":2258:2268  decimals() */\n      jump\t// in\n    tag_101:\n        /* \"contracts/token.sol\":2252:2254  10 */\n      0x0a\n        /* \"contracts/token.sol\":2252:2268  10 ** decimals() */\n      tag_102\n      swap2\n      swap1\n      tag_97\n      jump\t// in\n    tag_102:\n        /* \"contracts/token.sol\":2243:2249  amount */\n      dup2\n        /* \"contracts/token.sol\":2243:2268  amount / 10 ** decimals() */\n      tag_103\n      swap2\n      swap1\n      tag_99\n      jump\t// in\n    tag_103:\n        /* \"contracts/token.sol\":2218:2227  _balances */\n      0x02\n        /* \"contracts/token.sol\":2218:2239  _balances[msg.sender] */\n      0x00\n        /* \"contracts/token.sol\":2228:2238  msg.sender */\n      caller\n        /* \"contracts/token.sol\":2218:2239  _balances[msg.sender] */\n      0xffffffffffffffffffffffffffffffffffffffff\n      and\n      0xffffffffffffffffffffffffffffffffffffffff\n      and\n      dup2\n      mstore\n      0x20\n      add\n      swap1\n      dup2\n      mstore\n      0x20\n      add\n      0x00\n      keccak256\n      0x00\n        /* \"contracts/token.sol\":2218:2268  _balances[msg.sender] += amount / 10 ** decimals() */\n      dup3\n      dup3\n      sload\n      tag_104\n      swap2\n      swap1\n      tag_82\n      jump\t// in\n    tag_104:\n      swap3\n      pop\n      pop\n      dup2\n      swap1\n      sstore\n      pop\n        /* \"contracts/token.sol\":2304:2314  msg.sender */\n      caller\n        /* \"contracts/token.sol\":2283:2323  Transfer(address(0), msg.sender, amount) */\n      0xffffffffffffffffffffffffffffffffffffffff\n      and\n        /* \"contracts/token.sol\":2300:2301  0 */\n      0x00\n        /* \"contracts/token.sol\":2283:2323  Transfer(address(0), msg.sender, amount) */\n      0xffffffffffffffffffffffffffffffffffffffff\n      and\n      0xddf252ad1be2c89b69c2b068fc378daa952ba7f163c4a11628f55a4df523b3ef\n        /* \"contracts/token.sol\":2316:2322  amount */\n      dup4\n        /* \"contracts/token.sol\":2283:2323  Transfer(address(0), msg.sender, amount) */\n      mload(0x40)\n      tag_105\n      swap2\n      swap1\n      tag_24\n      jump\t// in\n    tag_105:\n      mload(0x40)\n      dup1\n      swap2\n      sub\n      swap1\n      log3\n        /* \"contracts/token.sol\":1888:2339  function _mint(uint amount) ... */\n      pop\n      jump\t// out\n        /* \"contracts/token.sol\":1381:1463  function decimals() public view virtual returns (uint8) {... */\n    tag_35:\n        /* \"contracts/token.sol\":1430:1435  uint8 */\n      0x00\n        /* \"contracts/token.sol\":1454:1456  18 */\n      0x12\n        /* \"contracts/token.sol\":1447:1456  return 18 */\n      swap1\n      pop\n        /* \"contracts/token.sol\":1381:1463  function decimals() public view virtual returns (uint8) {... */\n      swap1\n      jump\t// out\n        /* \"contracts/token.sol\":3624:3779  function balanceOf(address owner) ... */\n    tag_41:\n        /* \"contracts/token.sol\":3726:3733  uint256 */\n      0x00\n        /* \"contracts/token.sol\":3756:3765  _balances */\n      0x02\n        /* \"contracts/token.sol\":3756:3772  _balances[owner] */\n      0x00\n        /* \"contracts/token.sol\":3766:3771  owner */\n      dup4\n        /* \"contracts/token.sol\":3756:3772  _balances[owner] */\n      0xffffffffffffffffffffffffffffffffffffffff\n      and\n      0xffffffffffffffffffffffffffffffffffffffff\n      and\n      dup2\n      mstore\n      0x20\n      add\n      swap1\n      dup2\n      mstore\n      0x20\n      add\n      0x00\n      keccak256\n      sload\n        /* \"contracts/token.sol\":3749:3772  return _balances[owner] */\n      swap1\n      pop\n        /* \"contracts/token.sol\":3624:3779  function balanceOf(address owner) ... */\n      swap2\n      swap1\n      pop\n      jump\t// out\n        /* \"contracts/token.sol\":4217:4672  function transfer(address recipient, uint256 amount) ... */\n    tag_45:\n        /* \"contracts/token.sol\":4324:4328  bool */\n      0x00\n        /* \"contracts/token.sol\":4373:4374  0 */\n      dup1\n        /* \"contracts/token.sol\":4352:4375  recipient != address(0) */\n      0xffffffffffffffffffffffffffffffffffffffff\n      and\n        /* \"contracts/token.sol\":4352:4361  recipient */\n      dup4\n        /* \"contracts/token.sol\":4352:4375  recipient != address(0) */\n      0xffffffffffffffffffffffffffffffffffffffff\n      and\n      eq\n      iszero\n        /* \"contracts/token.sol\":4344:4415  require(recipient != address(0), \"ERC20: transfer to the zero address\") */\n      tag_109\n      jumpi\n      mload(0x40)\n      0x08c379a000000000000000000000000000000000000000000000000000000000\n      dup2\n      mstore\n      0x04\n      add\n      tag_110\n      swap1\n      tag_72\n      jump\t// in\n    tag_110:\n      mload(0x40)\n      dup1\n      swap2\n      sub\n      swap1\n      revert\n    tag_109:\n        /* \"contracts/token.sol\":4458:4464  amount */\n      dup2\n        /* \"contracts/token.sol\":4433:4442  _balances */\n      0x02\n        /* \"contracts/token.sol\":4433:4454  _balances[msg.sender] */\n      0x00\n        /* \"contracts/token.sol\":4443:4453  msg.sender */\n      caller\n        /* \"contracts/token.sol\":4433:4454  _balances[msg.sender] */\n      0xffffffffffffffffffffffffffffffffffffffff\n      and\n      0xffffffffffffffffffffffffffffffffffffffff\n      and\n      dup2\n      mstore\n      0x20\n      add\n      swap1\n      dup2\n      mstore\n      0x20\n      add\n      0x00\n      keccak256\n      sload\n        /* \"contracts/token.sol\":4433:4464  _balances[msg.sender] >= amount */\n      lt\n      iszero\n        /* \"contracts/token.sol\":4425:4507  require(_balances[msg.sender] >= amount, \"ERC20: transfer amount exceeds balance\") */\n      tag_111\n      jumpi\n      mload(0x40)\n      0x08c379a000000000000000000000000000000000000000000000000000000000\n      dup2\n      mstore\n      0x04\n      add\n      tag_112\n      swap1\n      tag_75\n      jump\t// in\n    tag_112:\n      mload(0x40)\n      dup1\n      swap2\n      sub\n      swap1\n      revert\n    tag_111:\n        /* \"contracts/token.sol\":4543:4549  amount */\n      dup2\n        /* \"contracts/token.sol\":4518:4527  _balances */\n      0x02\n        /* \"contracts/token.sol\":4518:4539  _balances[msg.sender] */\n      0x00\n        /* \"contracts/token.sol\":4528:4538  msg.sender */\n      caller\n        /* \"contracts/token.sol\":4518:4539  _balances[msg.sender] */\n      0xffffffffffffffffffffffffffffffffffffffff\n      and\n      0xffffffffffffffffffffffffffffffffffffffff\n      and\n      dup2\n      mstore\n      0x20\n      add\n      swap1\n      dup2\n      mstore\n      0x20\n      add\n      0x00\n      keccak256\n      0x00\n        /* \"contracts/token.sol\":4518:4549  _balances[msg.sender] -= amount */\n      dup3\n      dup3\n      sload\n      tag_113\n      swap2\n      swap1\n      tag_80\n      jump\t// in\n    tag_113:\n      swap3\n      pop\n      pop\n      dup2\n      swap1\n      sstore\n      pop\n        /* \"contracts/token.sol\":4583:4589  amount */\n      dup2\n        /* \"contracts/token.sol\":4559:4568  _balances */\n      0x02\n        /* \"contracts/token.sol\":4559:4579  _balances[recipient] */\n      0x00\n        /* \"contracts/token.sol\":4569:4578  recipient */\n      dup6\n        /* \"contracts/token.sol\":4559:4579  _balances[recipient] */\n      0xffffffffffffffffffffffffffffffffffffffff\n      and\n      0xffffffffffffffffffffffffffffffffffffffff\n      and\n      dup2\n      mstore\n      0x20\n      add\n      swap1\n      dup2\n      mstore\n      0x20\n      add\n      0x00\n      keccak256\n      0x00\n        /* \"contracts/token.sol\":4559:4589  _balances[recipient] += amount */\n      dup3\n      dup3\n      sload\n      tag_114\n      swap2\n      swap1\n      tag_82\n      jump\t// in\n    tag_114:\n      swap3\n      pop\n      pop\n      dup2\n      swap1\n      sstore\n      pop\n        /* \"contracts/token.sol\":4625:4634  recipient */\n      dup3\n        /* \"contracts/token.sol\":4604:4643  Transfer(msg.sender, recipient, amount) */\n      0xffffffffffffffffffffffffffffffffffffffff\n      and\n        /* \"contracts/token.sol\":4613:4623  msg.sender */\n      caller\n        /* \"contracts/token.sol\":4604:4643  Transfer(msg.sender, recipient, amount) */\n      0xffffffffffffffffffffffffffffffffffffffff\n      and\n      0xddf252ad1be2c89b69c2b068fc378daa952ba7f163c4a11628f55a4df523b3ef\n        /* \"contracts/token.sol\":4636:4642  amount */\n      dup5\n        /* \"contracts/token.sol\":4604:4643  Transfer(msg.sender, recipient, amount) */\n      mload(0x40)\n      tag_115\n      swap2\n      swap1\n      tag_24\n      jump\t// in\n    tag_115:\n      mload(0x40)\n      dup1\n      swap2\n      sub\n      swap1\n      log3\n        /* \"contracts/token.sol\":4661:4665  true */\n      0x01\n        /* \"contracts/token.sol\":4654:4665  return true */\n      swap1\n      pop\n        /* \"contracts/token.sol\":4217:4672  function transfer(address recipient, uint256 amount) ... */\n      swap3\n      swap2\n      pop\n      pop\n      jump\t// out\n        /* \"contracts/token.sol\":5187:5330  function allowance(address owner, address spender) external view override returns (uint256) {... */\n    tag_50:\n        /* \"contracts/token.sol\":5270:5277  uint256 */\n      0x00\n        /* \"contracts/token.sol\":5296:5307  _allowances */\n      0x03\n        /* \"contracts/token.sol\":5296:5314  _allowances[owner] */\n      0x00\n        /* \"contracts/token.sol\":5308:5313  owner */\n      dup5\n        /* \"contracts/token.sol\":5296:5314  _allowances[owner] */\n      0xffffffffffffffffffffffffffffffffffffffff\n      and\n      0xffffffffffffffffffffffffffffffffffffffff\n      and\n      dup2\n      mstore\n      0x20\n      add\n      swap1\n      dup2\n      mstore\n      0x20\n      add\n      0x00\n      keccak256\n        /* \"contracts/token.sol\":5296:5323  _allowances[owner][spender] */\n      0x00\n        /* \"contracts/token.sol\":5315:5322  spender */\n      dup4\n        /* \"contracts/token.sol\":5296:5323  _allowances[owner][spender] */\n      0xffffffffffffffffffffffffffffffffffffffff\n      and\n      0xffffffffffffffffffffffffffffffffffffffff\n      and\n      dup2\n      mstore\n      0x20\n      add\n      swap1\n      dup2\n      mstore\n      0x20\n      add\n      0x00\n      keccak256\n      sload\n        /* \"contracts/token.sol\":5289:5323  return _allowances[owner][spender] */\n      swap1\n      pop\n        /* \"contracts/token.sol\":5187:5330  function allowance(address owner, address spender) external view override returns (uint256) {... */\n      swap3\n      swap2\n      pop\n      pop\n      jump\t// out\n        /* \"#utility.yul\":7:146   */\n    tag_118:\n      0x00\n        /* \"#utility.yul\":91:97   */\n      dup2\n        /* \"#utility.yul\":78:98   */\n      calldataload\n        /* \"#utility.yul\":69:98   */\n      swap1\n      pop\n        /* \"#utility.yul\":107:140   */\n      tag_120\n        /* \"#utility.yul\":134:139   */\n      dup2\n        /* \"#utility.yul\":107:140   */\n      tag_121\n      jump\t// in\n    tag_120:\n        /* \"#utility.yul\":59:146   */\n      swap3\n      swap2\n      pop\n      pop\n      jump\t// out\n        /* \"#utility.yul\":152:291   */\n    tag_122:\n      0x00\n        /* \"#utility.yul\":236:242   */\n      dup2\n        /* \"#utility.yul\":223:243   */\n      calldataload\n        /* \"#utility.yul\":214:243   */\n      swap1\n      pop\n        /* \"#utility.yul\":252:285   */\n      tag_124\n        /* \"#utility.yul\":279:284   */\n      dup2\n        /* \"#utility.yul\":252:285   */\n      tag_125\n      jump\t// in\n    tag_124:\n        /* \"#utility.yul\":204:291   */\n      swap3\n      swap2\n      pop\n      pop\n      jump\t// out\n        /* \"#utility.yul\":297:559   */\n    tag_40:\n      0x00\n        /* \"#utility.yul\":405:407   */\n      0x20\n        /* \"#utility.yul\":393:402   */\n      dup3\n        /* \"#utility.yul\":384:391   */\n      dup5\n        /* \"#utility.yul\":380:403   */\n      sub\n        /* \"#utility.yul\":376:408   */\n      slt\n        /* \"#utility.yul\":373:375   */\n      iszero\n      tag_127\n      jumpi\n        /* \"#utility.yul\":421:422   */\n      0x00\n        /* \"#utility.yul\":418:419   */\n      dup1\n        /* \"#utility.yul\":411:423   */\n      revert\n        /* \"#utility.yul\":373:375   */\n    tag_127:\n        /* \"#utility.yul\":464:465   */\n      0x00\n        /* \"#utility.yul\":489:542   */\n      tag_128\n        /* \"#utility.yul\":534:541   */\n      dup5\n        /* \"#utility.yul\":525:531   */\n      dup3\n        /* \"#utility.yul\":514:523   */\n      dup6\n        /* \"#utility.yul\":510:532   */\n      add\n        /* \"#utility.yul\":489:542   */\n      tag_118\n      jump\t// in\n    tag_128:\n        /* \"#utility.yul\":479:542   */\n      swap2\n      pop\n        /* \"#utility.yul\":435:552   */\n      pop\n        /* \"#utility.yul\":363:559   */\n      swap3\n      swap2\n      pop\n      pop\n      jump\t// out\n        /* \"#utility.yul\":565:972   */\n    tag_49:\n      0x00\n      dup1\n        /* \"#utility.yul\":690:692   */\n      0x40\n        /* \"#utility.yul\":678:687   */\n      dup4\n        /* \"#utility.yul\":669:676   */\n      dup6\n        /* \"#utility.yul\":665:688   */\n      sub\n        /* \"#utility.yul\":661:693   */\n      slt\n        /* \"#utility.yul\":658:660   */\n      iszero\n      tag_130\n      jumpi\n        /* \"#utility.yul\":706:707   */\n      0x00\n        /* \"#utility.yul\":703:704   */\n      dup1\n        /* \"#utility.yul\":696:708   */\n      revert\n        /* \"#utility.yul\":658:660   */\n    tag_130:\n        /* \"#utility.yul\":749:750   */\n      0x00\n        /* \"#utility.yul\":774:827   */\n      tag_131\n        /* \"#utility.yul\":819:826   */\n      dup6\n        /* \"#utility.yul\":810:816   */\n      dup3\n        /* \"#utility.yul\":799:808   */\n      dup7\n        /* \"#utility.yul\":795:817   */\n      add\n        /* \"#utility.yul\":774:827   */\n      tag_118\n      jump\t// in\n    tag_131:\n        /* \"#utility.yul\":764:827   */\n      swap3\n      pop\n        /* \"#utility.yul\":720:837   */\n      pop\n        /* \"#utility.yul\":876:878   */\n      0x20\n        /* \"#utility.yul\":902:955   */\n      tag_132\n        /* \"#utility.yul\":947:954   */\n      dup6\n        /* \"#utility.yul\":938:944   */\n      dup3\n        /* \"#utility.yul\":927:936   */\n      dup7\n        /* \"#utility.yul\":923:945   */\n      add\n        /* \"#utility.yul\":902:955   */\n      tag_118\n      jump\t// in\n    tag_132:\n        /* \"#utility.yul\":892:955   */\n      swap2\n      pop\n        /* \"#utility.yul\":847:965   */\n      pop\n        /* \"#utility.yul\":648:972   */\n      swap3\n      pop\n      swap3\n      swap1\n      pop\n      jump\t// out\n        /* \"#utility.yul\":978:1530   */\n    tag_27:\n      0x00\n      dup1\n      0x00\n        /* \"#utility.yul\":1120:1122   */\n      0x60\n        /* \"#utility.yul\":1108:1117   */\n      dup5\n        /* \"#utility.yul\":1099:1106   */\n      dup7\n        /* \"#utility.yul\":1095:1118   */\n      sub\n        /* \"#utility.yul\":1091:1123   */\n      slt\n        /* \"#utility.yul\":1088:1090   */\n      iszero\n      tag_134\n      jumpi\n        /* \"#utility.yul\":1136:1137   */\n      0x00\n        /* \"#utility.yul\":1133:1134   */\n      dup1\n        /* \"#utility.yul\":1126:1138   */\n      revert\n        /* \"#utility.yul\":1088:1090   */\n    tag_134:\n        /* \"#utility.yul\":1179:1180   */\n      0x00\n        /* \"#utility.yul\":1204:1257   */\n      tag_135\n        /* \"#utility.yul\":1249:1256   */\n      dup7\n        /* \"#utility.yul\":1240:1246   */\n      dup3\n        /* \"#utility.yul\":1229:1238   */\n      dup8\n        /* \"#utility.yul\":1225:1247   */\n      add\n        /* \"#utility.yul\":1204:1257   */\n      tag_118\n      jump\t// in\n    tag_135:\n        /* \"#utility.yul\":1194:1257   */\n      swap4\n      pop\n        /* \"#utility.yul\":1150:1267   */\n      pop\n        /* \"#utility.yul\":1306:1308   */\n      0x20\n        /* \"#utility.yul\":1332:1385   */\n      tag_136\n        /* \"#utility.yul\":1377:1384   */\n      dup7\n        /* \"#utility.yul\":1368:1374   */\n      dup3\n        /* \"#utility.yul\":1357:1366   */\n      dup8\n        /* \"#utility.yul\":1353:1375   */\n      add\n        /* \"#utility.yul\":1332:1385   */\n      tag_118\n      jump\t// in\n    tag_136:\n        /* \"#utility.yul\":1322:1385   */\n      swap3\n      pop\n        /* \"#utility.yul\":1277:1395   */\n      pop\n        /* \"#utility.yul\":1434:1436   */\n      0x40\n        /* \"#utility.yul\":1460:1513   */\n      tag_137\n        /* \"#utility.yul\":1505:1512   */\n      dup7\n        /* \"#utility.yul\":1496:1502   */\n      dup3\n        /* \"#utility.yul\":1485:1494   */\n      dup8\n        /* \"#utility.yul\":1481:1503   */\n      add\n        /* \"#utility.yul\":1460:1513   */\n      tag_122\n      jump\t// in\n    tag_137:\n        /* \"#utility.yul\":1450:1513   */\n      swap2\n      pop\n        /* \"#utility.yul\":1405:1523   */\n      pop\n        /* \"#utility.yul\":1078:1530   */\n      swap3\n      pop\n      swap3\n      pop\n      swap3\n      jump\t// out\n        /* \"#utility.yul\":1536:1943   */\n    tag_15:\n      0x00\n      dup1\n        /* \"#utility.yul\":1661:1663   */\n      0x40\n        /* \"#utility.yul\":1649:1658   */\n      dup4\n        /* \"#utility.yul\":1640:1647   */\n      dup6\n        /* \"#utility.yul\":1636:1659   */\n      sub\n        /* \"#utility.yul\":1632:1664   */\n      slt\n        /* \"#utility.yul\":1629:1631   */\n      iszero\n      tag_139\n      jumpi\n        /* \"#utility.yul\":1677:1678   */\n      0x00\n        /* \"#utility.yul\":1674:1675   */\n      dup1\n        /* \"#utility.yul\":1667:1679   */\n      revert\n        /* \"#utility.yul\":1629:1631   */\n    tag_139:\n        /* \"#utility.yul\":1720:1721   */\n      0x00\n        /* \"#utility.yul\":1745:1798   */\n      tag_140\n        /* \"#utility.yul\":1790:1797   */\n      dup6\n        /* \"#utility.yul\":1781:1787   */\n      dup3\n        /* \"#utility.yul\":1770:1779   */\n      dup7\n        /* \"#utility.yul\":1766:1788   */\n      add\n        /* \"#utility.yul\":1745:1798   */\n      tag_118\n      jump\t// in\n    tag_140:\n        /* \"#utility.yul\":1735:1798   */\n      swap3\n      pop\n        /* \"#utility.yul\":1691:1808   */\n      pop\n        /* \"#utility.yul\":1847:1849   */\n      0x20\n        /* \"#utility.yul\":1873:1926   */\n      tag_141\n        /* \"#utility.yul\":1918:1925   */\n      dup6\n        /* \"#utility.yul\":1909:1915   */\n      dup3\n        /* \"#utility.yul\":1898:1907   */\n      dup7\n        /* \"#utility.yul\":1894:1916   */\n      add\n        /* \"#utility.yul\":1873:1926   */\n      tag_122\n      jump\t// in\n    tag_141:\n        /* \"#utility.yul\":1863:1926   */\n      swap2\n      pop\n        /* \"#utility.yul\":1818:1936   */\n      pop\n        /* \"#utility.yul\":1619:1943   */\n      swap3\n      pop\n      swap3\n      swap1\n      pop\n      jump\t// out\n        /* \"#utility.yul\":1949:2211   */\n    tag_32:\n      0x00\n        /* \"#utility.yul\":2057:2059   */\n      0x20\n        /* \"#utility.yul\":2045:2054   */\n      dup3\n        /* \"#utility.yul\":2036:2043   */\n      dup5\n        /* \"#utility.yul\":2032:2055   */\n      sub\n        /* \"#utility.yul\":2028:2060   */\n      slt\n        /* \"#utility.yul\":2025:2027   */\n      iszero\n      tag_143\n      jumpi\n        /* \"#utility.yul\":2073:2074   */\n      0x00\n        /* \"#utility.yul\":2070:2071   */\n      dup1\n        /* \"#utility.yul\":2063:2075   */\n      revert\n        /* \"#utility.yul\":2025:2027   */\n    tag_143:\n        /* \"#utility.yul\":2116:2117   */\n      0x00\n        /* \"#utility.yul\":2141:2194   */\n      tag_144\n        /* \"#utility.yul\":2186:2193   */\n      dup5\n        /* \"#utility.yul\":2177:2183   */\n      dup3\n        /* \"#utility.yul\":2166:2175   */\n      dup6\n        /* \"#utility.yul\":2162:2184   */\n      add\n        /* \"#utility.yul\":2141:2194   */\n      tag_122\n      jump\t// in\n    tag_144:\n        /* \"#utility.yul\":2131:2194   */\n      swap2\n      pop\n        /* \"#utility.yul\":2087:2204   */\n      pop\n        /* \"#utility.yul\":2015:2211   */\n      swap3\n      swap2\n      pop\n      pop\n      jump\t// out\n        /* \"#utility.yul\":2217:2326   */\n    tag_145:\n        /* \"#utility.yul\":2298:2319   */\n      tag_147\n        /* \"#utility.yul\":2313:2318   */\n      dup2\n        /* \"#utility.yul\":2298:2319   */\n      tag_148\n      jump\t// in\n    tag_147:\n        /* \"#utility.yul\":2293:2296   */\n      dup3\n        /* \"#utility.yul\":2286:2320   */\n      mstore\n        /* \"#utility.yul\":2276:2326   */\n      pop\n      pop\n      jump\t// out\n        /* \"#utility.yul\":2332:2699   */\n    tag_149:\n      0x00\n        /* \"#utility.yul\":2495:2562   */\n      tag_151\n        /* \"#utility.yul\":2559:2561   */\n      0x23\n        /* \"#utility.yul\":2554:2557   */\n      dup4\n        /* \"#utility.yul\":2495:2562   */\n      tag_152\n      jump\t// in\n    tag_151:\n        /* \"#utility.yul\":2488:2562   */\n      swap2\n      pop\n        /* \"#utility.yul\":2592:2626   */\n      0x45524332303a207472616e7366657220746f20746865207a65726f2061646472\n        /* \"#utility.yul\":2588:2589   */\n      0x00\n        /* \"#utility.yul\":2583:2586   */\n      dup4\n        /* \"#utility.yul\":2579:2590   */\n      add\n        /* \"#utility.yul\":2572:2627   */\n      mstore\n        /* \"#utility.yul\":2658:2663   */\n      0x6573730000000000000000000000000000000000000000000000000000000000\n        /* \"#utility.yul\":2653:2655   */\n      0x20\n        /* \"#utility.yul\":2648:2651   */\n      dup4\n        /* \"#utility.yul\":2644:2656   */\n      add\n        /* \"#utility.yul\":2637:2664   */\n      mstore\n        /* \"#utility.yul\":2690:2692   */\n      0x40\n        /* \"#utility.yul\":2685:2688   */\n      dup3\n        /* \"#utility.yul\":2681:2693   */\n      add\n        /* \"#utility.yul\":2674:2693   */\n      swap1\n      pop\n        /* \"#utility.yul\":2478:2699   */\n      swap2\n      swap1\n      pop\n      jump\t// out\n        /* \"#utility.yul\":2705:3071   */\n    tag_153:\n      0x00\n        /* \"#utility.yul\":2868:2935   */\n      tag_155\n        /* \"#utility.yul\":2932:2934   */\n      0x22\n        /* \"#utility.yul\":2927:2930   */\n      dup4\n        /* \"#utility.yul\":2868:2935   */\n      tag_152\n      jump\t// in\n    tag_155:\n        /* \"#utility.yul\":2861:2935   */\n      swap2\n      pop\n        /* \"#utility.yul\":2965:2999   */\n      0x45524332303a20617070726f766520746f20746865207a65726f206164647265\n        /* \"#utility.yul\":2961:2962   */\n      0x00\n        /* \"#utility.yul\":2956:2959   */\n      dup4\n        /* \"#utility.yul\":2952:2963   */\n      add\n        /* \"#utility.yul\":2945:3000   */\n      mstore\n        /* \"#utility.yul\":3031:3035   */\n      0x7373000000000000000000000000000000000000000000000000000000000000\n        /* \"#utility.yul\":3026:3028   */\n      0x20\n        /* \"#utility.yul\":3021:3024   */\n      dup4\n        /* \"#utility.yul\":3017:3029   */\n      add\n        /* \"#utility.yul\":3010:3036   */\n      mstore\n        /* \"#utility.yul\":3062:3064   */\n      0x40\n        /* \"#utility.yul\":3057:3060   */\n      dup3\n        /* \"#utility.yul\":3053:3065   */\n      add\n        /* \"#utility.yul\":3046:3065   */\n      swap1\n      pop\n        /* \"#utility.yul\":2851:3071   */\n      swap2\n      swap1\n      pop\n      jump\t// out\n        /* \"#utility.yul\":3077:3446   */\n    tag_156:\n      0x00\n        /* \"#utility.yul\":3240:3307   */\n      tag_158\n        /* \"#utility.yul\":3304:3306   */\n      0x25\n        /* \"#utility.yul\":3299:3302   */\n      dup4\n        /* \"#utility.yul\":3240:3307   */\n      tag_152\n      jump\t// in\n    tag_158:\n        /* \"#utility.yul\":3233:3307   */\n      swap2\n      pop\n        /* \"#utility.yul\":3337:3371   */\n      0x45524332303a20617070726f766520616d6f756e742065786365656473206261\n        /* \"#utility.yul\":3333:3334   */\n      0x00\n        /* \"#utility.yul\":3328:3331   */\n      dup4\n        /* \"#utility.yul\":3324:3335   */\n      add\n        /* \"#utility.yul\":3317:3372   */\n      mstore\n        /* \"#utility.yul\":3403:3410   */\n      0x6c616e6365000000000000000000000000000000000000000000000000000000\n        /* \"#utility.yul\":3398:3400   */\n      0x20\n        /* \"#utility.yul\":3393:3396   */\n      dup4\n        /* \"#utility.yul\":3389:3401   */\n      add\n        /* \"#utility.yul\":3382:3411   */\n      mstore\n        /* \"#utility.yul\":3437:3439   */\n      0x40\n        /* \"#utility.yul\":3432:3435   */\n      dup3\n        /* \"#utility.yul\":3428:3440   */\n      add\n        /* \"#utility.yul\":3421:3440   */\n      swap1\n      pop\n        /* \"#utility.yul\":3223:3446   */\n      swap2\n      swap1\n      pop\n      jump\t// out\n        /* \"#utility.yul\":3452:3822   */\n    tag_159:\n      0x00\n        /* \"#utility.yul\":3615:3682   */\n      tag_161\n        /* \"#utility.yul\":3679:3681   */\n      0x26\n        /* \"#utility.yul\":3674:3677   */\n      dup4\n        /* \"#utility.yul\":3615:3682   */\n      tag_152\n      jump\t// in\n    tag_161:\n        /* \"#utility.yul\":3608:3682   */\n      swap2\n      pop\n        /* \"#utility.yul\":3712:3746   */\n      0x45524332303a207472616e7366657220616d6f756e7420657863656564732062\n        /* \"#utility.yul\":3708:3709   */\n      0x00\n        /* \"#utility.yul\":3703:3706   */\n      dup4\n        /* \"#utility.yul\":3699:3710   */\n      add\n        /* \"#utility.yul\":3692:3747   */\n      mstore\n        /* \"#utility.yul\":3778:3786   */\n      0x616c616e63650000000000000000000000000000000000000000000000000000\n        /* \"#utility.yul\":3773:3775   */\n      0x20\n        /* \"#utility.yul\":3768:3771   */\n      dup4\n        /* \"#utility.yul\":3764:3776   */\n      add\n        /* \"#utility.yul\":3757:3787   */\n      mstore\n        /* \"#utility.yul\":3813:3815   */\n      0x40\n        /* \"#utility.yul\":3808:3811   */\n      dup3\n        /* \"#utility.yul\":3804:3816   */\n      add\n        /* \"#utility.yul\":3797:3816   */\n      swap1\n      pop\n        /* \"#utility.yul\":3598:3822   */\n      swap2\n      swap1\n      pop\n      jump\t// out\n        /* \"#utility.yul\":3828:4200   */\n    tag_162:\n      0x00\n        /* \"#utility.yul\":3991:4058   */\n      tag_164\n        /* \"#utility.yul\":4055:4057   */\n      0x28\n        /* \"#utility.yul\":4050:4053   */\n      dup4\n        /* \"#utility.yul\":3991:4058   */\n      tag_152\n      jump\t// in\n    tag_164:\n        /* \"#utility.yul\":3984:4058   */\n      swap2\n      pop\n        /* \"#utility.yul\":4088:4122   */\n      0x45524332303a207472616e7366657220616d6f756e7420657863656564732061\n        /* \"#utility.yul\":4084:4085   */\n      0x00\n        /* \"#utility.yul\":4079:4082   */\n      dup4\n        /* \"#utility.yul\":4075:4086   */\n      add\n        /* \"#utility.yul\":4068:4123   */\n      mstore\n        /* \"#utility.yul\":4154:4164   */\n      0x6c6c6f77616e6365000000000000000000000000000000000000000000000000\n        /* \"#utility.yul\":4149:4151   */\n      0x20\n        /* \"#utility.yul\":4144:4147   */\n      dup4\n        /* \"#utility.yul\":4140:4152   */\n      add\n        /* \"#utility.yul\":4133:4165   */\n      mstore\n        /* \"#utility.yul\":4191:4193   */\n      0x40\n        /* \"#utility.yul\":4186:4189   */\n      dup3\n        /* \"#utility.yul\":4182:4194   */\n      add\n        /* \"#utility.yul\":4175:4194   */\n      swap1\n      pop\n        /* \"#utility.yul\":3974:4200   */\n      swap2\n      swap1\n      pop\n      jump\t// out\n        /* \"#utility.yul\":4206:4536   */\n    tag_165:\n      0x00\n        /* \"#utility.yul\":4369:4436   */\n      tag_167\n        /* \"#utility.yul\":4433:4435   */\n      0x20\n        /* \"#utility.yul\":4428:4431   */\n      dup4\n        /* \"#utility.yul\":4369:4436   */\n      tag_152\n      jump\t// in\n    tag_167:\n        /* \"#utility.yul\":4362:4436   */\n      swap2\n      pop\n        /* \"#utility.yul\":4466:4500   */\n      0x4f776e61626c653a2063616c6c6572206973206e6f7420746865206f776e6572\n        /* \"#utility.yul\":4462:4463   */\n      0x00\n        /* \"#utility.yul\":4457:4460   */\n      dup4\n        /* \"#utility.yul\":4453:4464   */\n      add\n        /* \"#utility.yul\":4446:4501   */\n      mstore\n        /* \"#utility.yul\":4527:4529   */\n      0x20\n        /* \"#utility.yul\":4522:4525   */\n      dup3\n        /* \"#utility.yul\":4518:4530   */\n      add\n        /* \"#utility.yul\":4511:4530   */\n      swap1\n      pop\n        /* \"#utility.yul\":4352:4536   */\n      swap2\n      swap1\n      pop\n      jump\t// out\n        /* \"#utility.yul\":4542:4859   */\n    tag_168:\n      0x00\n        /* \"#utility.yul\":4705:4772   */\n      tag_170\n        /* \"#utility.yul\":4769:4771   */\n      0x13\n        /* \"#utility.yul\":4764:4767   */\n      dup4\n        /* \"#utility.yul\":4705:4772   */\n      tag_152\n      jump\t// in\n    tag_170:\n        /* \"#utility.yul\":4698:4772   */\n      swap2\n      pop\n        /* \"#utility.yul\":4802:4823   */\n      0x4d696e74696e672069732064697361626c656400000000000000000000000000\n        /* \"#utility.yul\":4798:4799   */\n      0x00\n        /* \"#utility.yul\":4793:4796   */\n      dup4\n        /* \"#utility.yul\":4789:4800   */\n      add\n        /* \"#utility.yul\":4782:4824   */\n      mstore\n        /* \"#utility.yul\":4850:4852   */\n      0x20\n        /* \"#utility.yul\":4845:4848   */\n      dup3\n        /* \"#utility.yul\":4841:4853   */\n      add\n        /* \"#utility.yul\":4834:4853   */\n      swap1\n      pop\n        /* \"#utility.yul\":4688:4859   */\n      swap2\n      swap1\n      pop\n      jump\t// out\n        /* \"#utility.yul\":4865:5234   */\n    tag_171:\n      0x00\n        /* \"#utility.yul\":5028:5095   */\n      tag_173\n        /* \"#utility.yul\":5092:5094   */\n      0x25\n        /* \"#utility.yul\":5087:5090   */\n      dup4\n        /* \"#utility.yul\":5028:5095   */\n      tag_152\n      jump\t// in\n    tag_173:\n        /* \"#utility.yul\":5021:5095   */\n      swap2\n      pop\n        /* \"#utility.yul\":5125:5159   */\n      0x45524332303a207472616e736665722066726f6d20746865207a65726f206164\n        /* \"#utility.yul\":5121:5122   */\n      0x00\n        /* \"#utility.yul\":5116:5119   */\n      dup4\n        /* \"#utility.yul\":5112:5123   */\n      add\n        /* \"#utility.yul\":5105:5160   */\n      mstore\n        /* \"#utility.yul\":5191:5198   */\n      0x6472657373000000000000000000000000000000000000000000000000000000\n        /* \"#utility.yul\":5186:5188   */\n      0x20\n        /* \"#utility.yul\":5181:5184   */\n      dup4\n        /* \"#utility.yul\":5177:5189   */\n      add\n        /* \"#utility.yul\":5170:5199   */\n      mstore\n        /* \"#utility.yul\":5225:5227   */\n      0x40\n        /* \"#utility.yul\":5220:5223   */\n      dup3\n        /* \"#utility.yul\":5216:5228   */\n      add\n        /* \"#utility.yul\":5209:5228   */\n      swap1\n      pop\n        /* \"#utility.yul\":5011:5234   */\n      swap2\n      swap1\n      pop\n      jump\t// out\n        /* \"#utility.yul\":5240:5569   */\n    tag_174:\n      0x00\n        /* \"#utility.yul\":5403:5470   */\n      tag_176\n        /* \"#utility.yul\":5467:5469   */\n      0x1f\n        /* \"#utility.yul\":5462:5465   */\n      dup4\n        /* \"#utility.yul\":5403:5470   */\n      tag_152\n      jump\t// in\n    tag_176:\n        /* \"#utility.yul\":5396:5470   */\n      swap2\n      pop\n        /* \"#utility.yul\":5500:5533   */\n      0x45524332303a206d696e7420746f20746865207a65726f206164647265737300\n        /* \"#utility.yul\":5496:5497   */\n      0x00\n        /* \"#utility.yul\":5491:5494   */\n      dup4\n        /* \"#utility.yul\":5487:5498   */\n      add\n        /* \"#utility.yul\":5480:5534   */\n      mstore\n        /* \"#utility.yul\":5560:5562   */\n      0x20\n        /* \"#utility.yul\":5555:5558   */\n      dup3\n        /* \"#utility.yul\":5551:5563   */\n      add\n        /* \"#utility.yul\":5544:5563   */\n      swap1\n      pop\n        /* \"#utility.yul\":5386:5569   */\n      swap2\n      swap1\n      pop\n      jump\t// out\n        /* \"#utility.yul\":5575:5693   */\n    tag_177:\n        /* \"#utility.yul\":5662:5686   */\n      tag_179\n        /* \"#utility.yul\":5680:5685   */\n      dup2\n        /* \"#utility.yul\":5662:5686   */\n      tag_180\n      jump\t// in\n    tag_179:\n        /* \"#utility.yul\":5657:5660   */\n      dup3\n        /* \"#utility.yul\":5650:5687   */\n      mstore\n        /* \"#utility.yul\":5640:5693   */\n      pop\n      pop\n      jump\t// out\n        /* \"#utility.yul\":5699:5811   */\n    tag_181:\n        /* \"#utility.yul\":5782:5804   */\n      tag_183\n        /* \"#utility.yul\":5798:5803   */\n      dup2\n        /* \"#utility.yul\":5782:5804   */\n      tag_184\n      jump\t// in\n    tag_183:\n        /* \"#utility.yul\":5777:5780   */\n      dup3\n        /* \"#utility.yul\":5770:5805   */\n      mstore\n        /* \"#utility.yul\":5760:5811   */\n      pop\n      pop\n      jump\t// out\n        /* \"#utility.yul\":5817:6027   */\n    tag_18:\n      0x00\n        /* \"#utility.yul\":5942:5944   */\n      0x20\n        /* \"#utility.yul\":5931:5940   */\n      dup3\n        /* \"#utility.yul\":5927:5945   */\n      add\n        /* \"#utility.yul\":5919:5945   */\n      swap1\n      pop\n        /* \"#utility.yul\":5955:6020   */\n      tag_186\n        /* \"#utility.yul\":6017:6018   */\n      0x00\n        /* \"#utility.yul\":6006:6015   */\n      dup4\n        /* \"#utility.yul\":6002:6019   */\n      add\n        /* \"#utility.yul\":5993:5999   */\n      dup5\n        /* \"#utility.yul\":5955:6020   */\n      tag_145\n      jump\t// in\n    tag_186:\n        /* \"#utility.yul\":5909:6027   */\n      swap3\n      swap2\n      pop\n      pop\n      jump\t// out\n        /* \"#utility.yul\":6033:6452   */\n    tag_72:\n      0x00\n        /* \"#utility.yul\":6237:6239   */\n      0x20\n        /* \"#utility.yul\":6226:6235   */\n      dup3\n        /* \"#utility.yul\":6222:6240   */\n      add\n        /* \"#utility.yul\":6214:6240   */\n      swap1\n      pop\n        /* \"#utility.yul\":6286:6295   */\n      dup2\n        /* \"#utility.yul\":6280:6284   */\n      dup2\n        /* \"#utility.yul\":6276:6296   */\n      sub\n        /* \"#utility.yul\":6272:6273   */\n      0x00\n        /* \"#utility.yul\":6261:6270   */\n      dup4\n        /* \"#utility.yul\":6257:6274   */\n      add\n        /* \"#utility.yul\":6250:6297   */\n      mstore\n        /* \"#utility.yul\":6314:6445   */\n      tag_188\n        /* \"#utility.yul\":6440:6444   */\n      dup2\n        /* \"#utility.yul\":6314:6445   */\n      tag_149\n      jump\t// in\n    tag_188:\n        /* \"#utility.yul\":6306:6445   */\n      swap1\n      pop\n        /* \"#utility.yul\":6204:6452   */\n      swap2\n      swap1\n      pop\n      jump\t// out\n        /* \"#utility.yul\":6458:6877   */\n    tag_55:\n      0x00\n        /* \"#utility.yul\":6662:6664   */\n      0x20\n        /* \"#utility.yul\":6651:6660   */\n      dup3\n        /* \"#utility.yul\":6647:6665   */\n      add\n        /* \"#utility.yul\":6639:6665   */\n      swap1\n      pop\n        /* \"#utility.yul\":6711:6720   */\n      dup2\n        /* \"#utility.yul\":6705:6709   */\n      dup2\n        /* \"#utility.yul\":6701:6721   */\n      sub\n        /* \"#utility.yul\":6697:6698   */\n      0x00\n        /* \"#utility.yul\":6686:6695   */\n      dup4\n        /* \"#utility.yul\":6682:6699   */\n      add\n        /* \"#utility.yul\":6675:6722   */\n      mstore\n        /* \"#utility.yul\":6739:6870   */\n      tag_190\n        /* \"#utility.yul\":6865:6869   */\n      dup2\n        /* \"#utility.yul\":6739:6870   */\n      tag_153\n      jump\t// in\n    tag_190:\n        /* \"#utility.yul\":6731:6870   */\n      swap1\n      pop\n        /* \"#utility.yul\":6629:6877   */\n      swap2\n      swap1\n      pop\n      jump\t// out\n        /* \"#utility.yul\":6883:7302   */\n    tag_58:\n      0x00\n        /* \"#utility.yul\":7087:7089   */\n      0x20\n        /* \"#utility.yul\":7076:7085   */\n      dup3\n        /* \"#utility.yul\":7072:7090   */\n      add\n        /* \"#utility.yul\":7064:7090   */\n      swap1\n      pop\n        /* \"#utility.yul\":7136:7145   */\n      dup2\n        /* \"#utility.yul\":7130:7134   */\n      dup2\n        /* \"#utility.yul\":7126:7146   */\n      sub\n        /* \"#utility.yul\":7122:7123   */\n      0x00\n        /* \"#utility.yul\":7111:7120   */\n      dup4\n        /* \"#utility.yul\":7107:7124   */\n      add\n        /* \"#utility.yul\":7100:7147   */\n      mstore\n        /* \"#utility.yul\":7164:7295   */\n      tag_192\n        /* \"#utility.yul\":7290:7294   */\n      dup2\n        /* \"#utility.yul\":7164:7295   */\n      tag_156\n      jump\t// in\n    tag_192:\n        /* \"#utility.yul\":7156:7295   */\n      swap1\n      pop\n        /* \"#utility.yul\":7054:7302   */\n      swap2\n      swap1\n      pop\n      jump\t// out\n        /* \"#utility.yul\":7308:7727   */\n    tag_75:\n      0x00\n        /* \"#utility.yul\":7512:7514   */\n      0x20\n        /* \"#utility.yul\":7501:7510   */\n      dup3\n        /* \"#utility.yul\":7497:7515   */\n      add\n        /* \"#utility.yul\":7489:7515   */\n      swap1\n      pop\n        /* \"#utility.yul\":7561:7570   */\n      dup2\n        /* \"#utility.yul\":7555:7559   */\n      dup2\n        /* \"#utility.yul\":7551:7571   */\n      sub\n        /* \"#utility.yul\":7547:7548   */\n      0x00\n        /* \"#utility.yul\":7536:7545   */\n      dup4\n        /* \"#utility.yul\":7532:7549   */\n      add\n        /* \"#utility.yul\":7525:7572   */\n      mstore\n        /* \"#utility.yul\":7589:7720   */\n      tag_194\n        /* \"#utility.yul\":7715:7719   */\n      dup2\n        /* \"#utility.yul\":7589:7720   */\n      tag_159\n      jump\t// in\n    tag_194:\n        /* \"#utility.yul\":7581:7720   */\n      swap1\n      pop\n        /* \"#utility.yul\":7479:7727   */\n      swap2\n      swap1\n      pop\n      jump\t// out\n        /* \"#utility.yul\":7733:8152   */\n    tag_78:\n      0x00\n        /* \"#utility.yul\":7937:7939   */\n      0x20\n        /* \"#utility.yul\":7926:7935   */\n      dup3\n        /* \"#utility.yul\":7922:7940   */\n      add\n        /* \"#utility.yul\":7914:7940   */\n      swap1\n      pop\n        /* \"#utility.yul\":7986:7995   */\n      dup2\n        /* \"#utility.yul\":7980:7984   */\n      dup2\n        /* \"#utility.yul\":7976:7996   */\n      sub\n        /* \"#utility.yul\":7972:7973   */\n      0x00\n        /* \"#utility.yul\":7961:7970   */\n      dup4\n        /* \"#utility.yul\":7957:7974   */\n      add\n        /* \"#utility.yul\":7950:7997   */\n      mstore\n        /* \"#utility.yul\":8014:8145   */\n      tag_196\n        /* \"#utility.yul\":8140:8144   */\n      dup2\n        /* \"#utility.yul\":8014:8145   */\n      tag_162\n      jump\t// in\n    tag_196:\n        /* \"#utility.yul\":8006:8145   */\n      swap1\n      pop\n        /* \"#utility.yul\":7904:8152   */\n      swap2\n      swap1\n      pop\n      jump\t// out\n        /* \"#utility.yul\":8158:8577   */\n    tag_63:\n      0x00\n        /* \"#utility.yul\":8362:8364   */\n      0x20\n        /* \"#utility.yul\":8351:8360   */\n      dup3\n        /* \"#utility.yul\":8347:8365   */\n      add\n        /* \"#utility.yul\":8339:8365   */\n      swap1\n      pop\n        /* \"#utility.yul\":8411:8420   */\n      dup2\n        /* \"#utility.yul\":8405:8409   */\n      dup2\n        /* \"#utility.yul\":8401:8421   */\n      sub\n        /* \"#utility.yul\":8397:8398   */\n      0x00\n        /* \"#utility.yul\":8386:8395   */\n      dup4\n        /* \"#utility.yul\":8382:8399   */\n      add\n        /* \"#utility.yul\":8375:8422   */\n      mstore\n        /* \"#utility.yul\":8439:8570   */\n      tag_198\n        /* \"#utility.yul\":8565:8569   */\n      dup2\n        /* \"#utility.yul\":8439:8570   */\n      tag_165\n      jump\t// in\n    tag_198:\n        /* \"#utility.yul\":8431:8570   */\n      swap1\n      pop\n        /* \"#utility.yul\":8329:8577   */\n      swap2\n      swap1\n      pop\n      jump\t// out\n        /* \"#utility.yul\":8583:9002   */\n    tag_94:\n      0x00\n        /* \"#utility.yul\":8787:8789   */\n      0x20\n        /* \"#utility.yul\":8776:8785   */\n      dup3\n        /* \"#utility.yul\":8772:8790   */\n      add\n        /* \"#utility.yul\":8764:8790   */\n      swap1\n      pop\n        /* \"#utility.yul\":8836:8845   */\n      dup2\n        /* \"#utility.yul\":8830:8834   */\n      dup2\n        /* \"#utility.yul\":8826:8846   */\n      sub\n        /* \"#utility.yul\":8822:8823   */\n      0x00\n        /* \"#utility.yul\":8811:8820   */\n      dup4\n        /* \"#utility.yul\":8807:8824   */\n      add\n        /* \"#utility.yul\":8800:8847   */\n      mstore\n        /* \"#utility.yul\":8864:8995   */\n      tag_200\n        /* \"#utility.yul\":8990:8994   */\n      dup2\n        /* \"#utility.yul\":8864:8995   */\n      tag_168\n      jump\t// in\n    tag_200:\n        /* \"#utility.yul\":8856:8995   */\n      swap1\n      pop\n        /* \"#utility.yul\":8754:9002   */\n      swap2\n      swap1\n      pop\n      jump\t// out\n        /* \"#utility.yul\":9008:9427   */\n    tag_69:\n      0x00\n        /* \"#utility.yul\":9212:9214   */\n      0x20\n        /* \"#utility.yul\":9201:9210   */\n      dup3\n        /* \"#utility.yul\":9197:9215   */\n      add\n        /* \"#utility.yul\":9189:9215   */\n      swap1\n      pop\n        /* \"#utility.yul\":9261:9270   */\n      dup2\n        /* \"#utility.yul\":9255:9259   */\n      dup2\n        /* \"#utility.yul\":9251:9271   */\n      sub\n        /* \"#utility.yul\":9247:9248   */\n      0x00\n        /* \"#utility.yul\":9236:9245   */\n      dup4\n        /* \"#utility.yul\":9232:9249   */\n      add\n        /* \"#utility.yul\":9225:9272   */\n      mstore\n        /* \"#utility.yul\":9289:9420   */\n      tag_202\n        /* \"#utility.yul\":9415:9419   */\n      dup2\n        /* \"#utility.yul\":9289:9420   */\n      tag_171\n      jump\t// in\n    tag_202:\n        /* \"#utility.yul\":9281:9420   */\n      swap1\n      pop\n        /* \"#utility.yul\":9179:9427   */\n      swap2\n      swap1\n      pop\n      jump\t// out\n        /* \"#utility.yul\":9433:9852   */\n    tag_91:\n      0x00\n        /* \"#utility.yul\":9637:9639   */\n      0x20\n        /* \"#utility.yul\":9626:9635   */\n      dup3\n        /* \"#utility.yul\":9622:9640   */\n      add\n        /* \"#utility.yul\":9614:9640   */\n      swap1\n      pop\n        /* \"#utility.yul\":9686:9695   */\n      dup2\n        /* \"#utility.yul\":9680:9684   */\n      dup2\n        /* \"#utility.yul\":9676:9696   */\n      sub\n        /* \"#utility.yul\":9672:9673   */\n      0x00\n        /* \"#utility.yul\":9661:9670   */\n      dup4\n        /* \"#utility.yul\":9657:9674   */\n      add\n        /* \"#utility.yul\":9650:9697   */\n      mstore\n        /* \"#utility.yul\":9714:9845   */\n      tag_204\n        /* \"#utility.yul\":9840:9844   */\n      dup2\n        /* \"#utility.yul\":9714:9845   */\n      tag_174\n      jump\t// in\n    tag_204:\n        /* \"#utility.yul\":9706:9845   */\n      swap1\n      pop\n        /* \"#utility.yul\":9604:9852   */\n      swap2\n      swap1\n      pop\n      jump\t// out\n        /* \"#utility.yul\":9858:10080   */\n    tag_24:\n      0x00\n        /* \"#utility.yul\":9989:9991   */\n      0x20\n        /* \"#utility.yul\":9978:9987   */\n      dup3\n        /* \"#utility.yul\":9974:9992   */\n      add\n        /* \"#utility.yul\":9966:9992   */\n      swap1\n      pop\n        /* \"#utility.yul\":10002:10073   */\n      tag_206\n        /* \"#utility.yul\":10070:10071   */\n      0x00\n        /* \"#utility.yul\":10059:10068   */\n      dup4\n        /* \"#utility.yul\":10055:10072   */\n      add\n        /* \"#utility.yul\":10046:10052   */\n      dup5\n        /* \"#utility.yul\":10002:10073   */\n      tag_177\n      jump\t// in\n    tag_206:\n        /* \"#utility.yul\":9956:10080   */\n      swap3\n      swap2\n      pop\n      pop\n      jump\t// out\n        /* \"#utility.yul\":10086:10300   */\n    tag_37:\n      0x00\n        /* \"#utility.yul\":10213:10215   */\n      0x20\n        /* \"#utility.yul\":10202:10211   */\n      dup3\n        /* \"#utility.yul\":10198:10216   */\n      add\n        /* \"#utility.yul\":10190:10216   */\n      swap1\n      pop\n        /* \"#utility.yul\":10226:10293   */\n      tag_208\n        /* \"#utility.yul\":10290:10291   */\n      0x00\n        /* \"#utility.yul\":10279:10288   */\n      dup4\n        /* \"#utility.yul\":10275:10292   */\n      add\n        /* \"#utility.yul\":10266:10272   */\n      dup5\n        /* \"#utility.yul\":10226:10293   */\n      tag_181\n      jump\t// in\n    tag_208:\n        /* \"#utility.yul\":10180:10300   */\n      swap3\n      swap2\n      pop\n      pop\n      jump\t// out\n        /* \"#utility.yul\":10306:10475   */\n    tag_152:\n      0x00\n        /* \"#utility.yul\":10424:10430   */\n      dup3\n        /* \"#utility.yul\":10419:10422   */\n      dup3\n        /* \"#utility.yul\":10412:10431   */\n      mstore\n        /* \"#utility.yul\":10464:10468   */\n      0x20\n        /* \"#utility.yul\":10459:10462   */\n      dup3\n        /* \"#utility.yul\":10455:10469   */\n      add\n        /* \"#utility.yul\":10440:10469   */\n      swap1\n      pop\n        /* \"#utility.yul\":10402:10475   */\n      swap3\n      swap2\n      pop\n      pop\n      jump\t// out\n        /* \"#utility.yul\":10481:10786   */\n    tag_82:\n      0x00\n        /* \"#utility.yul\":10540:10560   */\n      tag_211\n        /* \"#utility.yul\":10558:10559   */\n      dup3\n        /* \"#utility.yul\":10540:10560   */\n      tag_180\n      jump\t// in\n    tag_211:\n        /* \"#utility.yul\":10535:10560   */\n      swap2\n      pop\n        /* \"#utility.yul\":10574:10594   */\n      tag_212\n        /* \"#utility.yul\":10592:10593   */\n      dup4\n        /* \"#utility.yul\":10574:10594   */\n      tag_180\n      jump\t// in\n    tag_212:\n        /* \"#utility.yul\":10569:10594   */\n      swap3\n      pop\n        /* \"#utility.yul\":10728:10729   */\n      dup3\n        /* \"#utility.yul\":10660:10726   */\n      0xffffffffffffffffffffffffffffffffffffffffffffffffffffffffffffffff\n        /* \"#utility.yul\":10656:10730   */\n      sub\n        /* \"#utility.yul\":10653:10654   */\n      dup3\n        /* \"#utility.yul\":10650:10731   */\n      gt\n        /* \"#utility.yul\":10647:10649   */\n      iszero\n      tag_213\n      jumpi\n        /* \"#utility.yul\":10734:10752   */\n      tag_214\n      tag_215\n      jump\t// in\n    tag_214:\n        /* \"#utility.yul\":10647:10649   */\n    tag_213:\n        /* \"#utility.yul\":10778:10779   */\n      dup3\n        /* \"#utility.yul\":10775:10776   */\n      dup3\n        /* \"#utility.yul\":10771:10780   */\n      add\n        /* \"#utility.yul\":10764:10780   */\n      swap1\n      pop\n        /* \"#utility.yul\":10525:10786   */\n      swap3\n      swap2\n      pop\n      pop\n      jump\t// out\n        /* \"#utility.yul\":10792:10977   */\n    tag_99:\n      0x00\n        /* \"#utility.yul\":10849:10869   */\n      tag_217\n        /* \"#utility.yul\":10867:10868   */\n      dup3\n        /* \"#utility.yul\":10849:10869   */\n      tag_180\n      jump\t// in\n    tag_217:\n        /* \"#utility.yul\":10844:10869   */\n      swap2\n      pop\n        /* \"#utility.yul\":10883:10903   */\n      tag_218\n        /* \"#utility.yul\":10901:10902   */\n      dup4\n        /* \"#utility.yul\":10883:10903   */\n      tag_180\n      jump\t// in\n    tag_218:\n        /* \"#utility.yul\":10878:10903   */\n      swap3\n      pop\n        /* \"#utility.yul\":10922:10923   */\n      dup3\n        /* \"#utility.yul\":10912:10914   */\n      tag_219\n      jumpi\n        /* \"#utility.yul\":10927:10945   */\n      tag_220\n      tag_221\n      jump\t// in\n    tag_220:\n        /* \"#utility.yul\":10912:10914   */\n    tag_219:\n        /* \"#utility.yul\":10969:10970   */\n      dup3\n        /* \"#utility.yul\":10966:10967   */\n      dup3\n        /* \"#utility.yul\":10962:10971   */\n      div\n        /* \"#utility.yul\":10957:10971   */\n      swap1\n      pop\n        /* \"#utility.yul\":10834:10977   */\n      swap3\n      swap2\n      pop\n      pop\n      jump\t// out\n        /* \"#utility.yul\":10983:11831   */\n    tag_222:\n      0x00\n      dup1\n        /* \"#utility.yul\":11075:11081   */\n      dup3\n        /* \"#utility.yul\":11066:11081   */\n      swap2\n      pop\n        /* \"#utility.yul\":11099:11104   */\n      dup4\n        /* \"#utility.yul\":11090:11104   */\n      swap1\n      pop\n        /* \"#utility.yul\":11113:11825   */\n    tag_224:\n        /* \"#utility.yul\":11134:11135   */\n      0x01\n        /* \"#utility.yul\":11124:11132   */\n      dup6\n        /* \"#utility.yul\":11121:11136   */\n      gt\n        /* \"#utility.yul\":11113:11825   */\n      iszero\n      tag_226\n      jumpi\n        /* \"#utility.yul\":11229:11233   */\n      dup1\n        /* \"#utility.yul\":11224:11227   */\n      dup7\n        /* \"#utility.yul\":11220:11234   */\n      div\n        /* \"#utility.yul\":11214:11218   */\n      dup2\n        /* \"#utility.yul\":11211:11235   */\n      gt\n        /* \"#utility.yul\":11208:11210   */\n      iszero\n      tag_227\n      jumpi\n        /* \"#utility.yul\":11238:11256   */\n      tag_228\n      tag_215\n      jump\t// in\n    tag_228:\n        /* \"#utility.yul\":11208:11210   */\n    tag_227:\n        /* \"#utility.yul\":11288:11289   */\n      0x01\n        /* \"#utility.yul\":11278:11286   */\n      dup6\n        /* \"#utility.yul\":11274:11290   */\n      and\n        /* \"#utility.yul\":11271:11273   */\n      iszero\n      tag_229\n      jumpi\n        /* \"#utility.yul\":11703:11707   */\n      dup1\n        /* \"#utility.yul\":11696:11701   */\n      dup3\n        /* \"#utility.yul\":11692:11708   */\n      mul\n        /* \"#utility.yul\":11683:11708   */\n      swap2\n      pop\n        /* \"#utility.yul\":11271:11273   */\n    tag_229:\n        /* \"#utility.yul\":11753:11757   */\n      dup1\n        /* \"#utility.yul\":11747:11751   */\n      dup2\n        /* \"#utility.yul\":11743:11758   */\n      mul\n        /* \"#utility.yul\":11735:11758   */\n      swap1\n      pop\n        /* \"#utility.yul\":11783:11815   */\n      tag_230\n        /* \"#utility.yul\":11806:11814   */\n      dup6\n        /* \"#utility.yul\":11783:11815   */\n      tag_231\n      jump\t// in\n    tag_230:\n        /* \"#utility.yul\":11771:11815   */\n      swap5\n      pop\n        /* \"#utility.yul\":11113:11825   */\n      jump(tag_224)\n    tag_226:\n        /* \"#utility.yul\":11056:11831   */\n      swap5\n      pop\n      swap5\n      swap3\n      pop\n      pop\n      pop\n      jump\t// out\n        /* \"#utility.yul\":11837:12118   */\n    tag_97:\n      0x00\n        /* \"#utility.yul\":11919:11942   */\n      tag_233\n        /* \"#utility.yul\":11937:11941   */\n      dup3\n        /* \"#utility.yul\":11919:11942   */\n      tag_180\n      jump\t// in\n    tag_233:\n        /* \"#utility.yul\":11911:11942   */\n      swap2\n      pop\n        /* \"#utility.yul\":11963:11988   */\n      tag_234\n        /* \"#utility.yul\":11979:11987   */\n      dup4\n        /* \"#utility.yul\":11963:11988   */\n      tag_184\n      jump\t// in\n    tag_234:\n        /* \"#utility.yul\":11951:11988   */\n      swap3\n      pop\n        /* \"#utility.yul\":12007:12111   */\n      tag_235\n        /* \"#utility.yul\":12044:12110   */\n      0xffffffffffffffffffffffffffffffffffffffffffffffffffffffffffffffff\n        /* \"#utility.yul\":12034:12042   */\n      dup5\n        /* \"#utility.yul\":12028:12032   */\n      dup5\n        /* \"#utility.yul\":12007:12111   */\n      tag_236\n      jump\t// in\n    tag_235:\n        /* \"#utility.yul\":11998:12111   */\n      swap1\n      pop\n        /* \"#utility.yul\":11901:12118   */\n      swap3\n      swap2\n      pop\n      pop\n      jump\t// out\n        /* \"#utility.yul\":12124:13197   */\n    tag_236:\n      0x00\n        /* \"#utility.yul\":12369:12377   */\n      dup3\n        /* \"#utility.yul\":12359:12361   */\n      tag_238\n      jumpi\n        /* \"#utility.yul\":12390:12391   */\n      0x01\n        /* \"#utility.yul\":12381:12391   */\n      swap1\n      pop\n        /* \"#utility.yul\":12392:12397   */\n      jump(tag_237)\n        /* \"#utility.yul\":12359:12361   */\n    tag_238:\n        /* \"#utility.yul\":12418:12422   */\n      dup2\n        /* \"#utility.yul\":12408:12410   */\n      tag_239\n      jumpi\n        /* \"#utility.yul\":12435:12436   */\n      0x00\n        /* \"#utility.yul\":12426:12436   */\n      swap1\n      pop\n        /* \"#utility.yul\":12437:12442   */\n      jump(tag_237)\n        /* \"#utility.yul\":12408:12410   */\n    tag_239:\n        /* \"#utility.yul\":12504:12508   */\n      dup2\n        /* \"#utility.yul\":12552:12553   */\n      0x01\n        /* \"#utility.yul\":12547:12574   */\n      dup2\n      eq\n      tag_241\n      jumpi\n        /* \"#utility.yul\":12588:12589   */\n      0x02\n        /* \"#utility.yul\":12583:12774   */\n      dup2\n      eq\n      tag_242\n      jumpi\n        /* \"#utility.yul\":12497:12774   */\n      jump(tag_240)\n        /* \"#utility.yul\":12547:12574   */\n    tag_241:\n        /* \"#utility.yul\":12565:12566   */\n      0x01\n        /* \"#utility.yul\":12556:12566   */\n      swap2\n      pop\n        /* \"#utility.yul\":12567:12572   */\n      pop\n      jump(tag_237)\n        /* \"#utility.yul\":12583:12774   */\n    tag_242:\n        /* \"#utility.yul\":12628:12631   */\n      0xff\n        /* \"#utility.yul\":12618:12626   */\n      dup5\n        /* \"#utility.yul\":12615:12632   */\n      gt\n        /* \"#utility.yul\":12612:12614   */\n      iszero\n      tag_243\n      jumpi\n        /* \"#utility.yul\":12635:12653   */\n      tag_244\n      tag_215\n      jump\t// in\n    tag_244:\n        /* \"#utility.yul\":12612:12614   */\n    tag_243:\n        /* \"#utility.yul\":12684:12692   */\n      dup4\n        /* \"#utility.yul\":12681:12682   */\n      0x02\n        /* \"#utility.yul\":12677:12693   */\n      exp\n        /* \"#utility.yul\":12668:12693   */\n      swap2\n      pop\n        /* \"#utility.yul\":12719:12722   */\n      dup5\n        /* \"#utility.yul\":12712:12717   */\n      dup3\n        /* \"#utility.yul\":12709:12723   */\n      gt\n        /* \"#utility.yul\":12706:12708   */\n      iszero\n      tag_245\n      jumpi\n        /* \"#utility.yul\":12726:12744   */\n      tag_246\n      tag_215\n      jump\t// in\n    tag_246:\n        /* \"#utility.yul\":12706:12708   */\n    tag_245:\n        /* \"#utility.yul\":12759:12764   */\n      pop\n      jump(tag_237)\n        /* \"#utility.yul\":12497:12774   */\n    tag_240:\n      pop\n        /* \"#utility.yul\":12883:12885   */\n      0x20\n        /* \"#utility.yul\":12873:12881   */\n      dup4\n        /* \"#utility.yul\":12870:12886   */\n      lt\n        /* \"#utility.yul\":12864:12867   */\n      0x0133\n        /* \"#utility.yul\":12858:12862   */\n      dup4\n        /* \"#utility.yul\":12855:12868   */\n      lt\n        /* \"#utility.yul\":12851:12887   */\n      and\n        /* \"#utility.yul\":12833:12835   */\n      0x4e\n        /* \"#utility.yul\":12823:12831   */\n      dup5\n        /* \"#utility.yul\":12820:12836   */\n      lt\n        /* \"#utility.yul\":12815:12817   */\n      0x0b\n        /* \"#utility.yul\":12809:12813   */\n      dup5\n        /* \"#utility.yul\":12806:12818   */\n      lt\n        /* \"#utility.yul\":12802:12837   */\n      and\n        /* \"#utility.yul\":12786:12897   */\n      or\n        /* \"#utility.yul\":12783:12785   */\n      iszero\n      tag_247\n      jumpi\n        /* \"#utility.yul\":12939:12947   */\n      dup3\n        /* \"#utility.yul\":12933:12937   */\n      dup3\n        /* \"#utility.yul\":12929:12948   */\n      exp\n        /* \"#utility.yul\":12920:12948   */\n      swap1\n      pop\n        /* \"#utility.yul\":12974:12977   */\n      dup4\n        /* \"#utility.yul\":12967:12972   */\n      dup2\n        /* \"#utility.yul\":12964:12978   */\n      gt\n        /* \"#utility.yul\":12961:12963   */\n      iszero\n      tag_248\n      jumpi\n        /* \"#utility.yul\":12981:12999   */\n      tag_249\n      tag_215\n      jump\t// in\n    tag_249:\n        /* \"#utility.yul\":12961:12963   */\n    tag_248:\n        /* \"#utility.yul\":13014:13019   */\n      jump(tag_237)\n        /* \"#utility.yul\":12783:12785   */\n    tag_247:\n        /* \"#utility.yul\":13054:13096   */\n      tag_250\n        /* \"#utility.yul\":13092:13095   */\n      dup5\n        /* \"#utility.yul\":13082:13090   */\n      dup5\n        /* \"#utility.yul\":13076:13080   */\n      dup5\n        /* \"#utility.yul\":13073:13074   */\n      0x01\n        /* \"#utility.yul\":13054:13096   */\n      tag_222\n      jump\t// in\n    tag_250:\n        /* \"#utility.yul\":13039:13096   */\n      swap3\n      pop\n      swap1\n      pop\n        /* \"#utility.yul\":13128:13132   */\n      dup2\n        /* \"#utility.yul\":13123:13126   */\n      dup5\n        /* \"#utility.yul\":13119:13133   */\n      div\n        /* \"#utility.yul\":13112:13117   */\n      dup2\n        /* \"#utility.yul\":13109:13134   */\n      gt\n        /* \"#utility.yul\":13106:13108   */\n      iszero\n      tag_251\n      jumpi\n        /* \"#utility.yul\":13137:13155   */\n      tag_252\n      tag_215\n      jump\t// in\n    tag_252:\n        /* \"#utility.yul\":13106:13108   */\n    tag_251:\n        /* \"#utility.yul\":13186:13190   */\n      dup2\n        /* \"#utility.yul\":13179:13184   */\n      dup2\n        /* \"#utility.yul\":13175:13191   */\n      mul\n        /* \"#utility.yul\":13166:13191   */\n      swap1\n      pop\n        /* \"#utility.yul\":12184:13197   */\n    tag_237:\n      swap4\n      swap3\n      pop\n      pop\n      pop\n      jump\t// out\n        /* \"#utility.yul\":13203:13394   */\n    tag_80:\n      0x00\n        /* \"#utility.yul\":13263:13283   */\n      tag_254\n        /* \"#utility.yul\":13281:13282   */\n      dup3\n        /* \"#utility.yul\":13263:13283   */\n      tag_180\n      jump\t// in\n    tag_254:\n        /* \"#utility.yul\":13258:13283   */\n      swap2\n      pop\n        /* \"#utility.yul\":13297:13317   */\n      tag_255\n        /* \"#utility.yul\":13315:13316   */\n      dup4\n        /* \"#utility.yul\":13297:13317   */\n      tag_180\n      jump\t// in\n    tag_255:\n        /* \"#utility.yul\":13292:13317   */\n      swap3\n      pop\n        /* \"#utility.yul\":13336:13337   */\n      dup3\n        /* \"#utility.yul\":13333:13334   */\n      dup3\n        /* \"#utility.yul\":13330:13338   */\n      lt\n        /* \"#utility.yul\":13327:13329   */\n      iszero\n      tag_256\n      jumpi\n        /* \"#utility.yul\":13341:13359   */\n      tag_257\n      tag_215\n      jump\t// in\n    tag_257:\n        /* \"#utility.yul\":13327:13329   */\n    tag_256:\n        /* \"#utility.yul\":13386:13387   */\n      dup3\n        /* \"#utility.yul\":13383:13384   */\n      dup3\n        /* \"#utility.yul\":13379:13388   */\n      sub\n        /* \"#utility.yul\":13371:13388   */\n      swap1\n      pop\n        /* \"#utility.yul\":13248:13394   */\n      swap3\n      swap2\n      pop\n      pop\n      jump\t// out\n        /* \"#utility.yul\":13400:13496   */\n    tag_258:\n      0x00\n        /* \"#utility.yul\":13466:13490   */\n      tag_260\n        /* \"#utility.yul\":13484:13489   */\n      dup3\n        /* \"#utility.yul\":13466:13490   */\n      tag_261\n      jump\t// in\n    tag_260:\n        /* \"#utility.yul\":13455:13490   */\n      swap1\n      pop\n        /* \"#utility.yul\":13445:13496   */\n      swap2\n      swap1\n      pop\n      jump\t// out\n        /* \"#utility.yul\":13502:13592   */\n    tag_148:\n      0x00\n        /* \"#utility.yul\":13579:13584   */\n      dup2\n        /* \"#utility.yul\":13572:13585   */\n      iszero\n        /* \"#utility.yul\":13565:13586   */\n      iszero\n        /* \"#utility.yul\":13554:13586   */\n      swap1\n      pop\n        /* \"#utility.yul\":13544:13592   */\n      swap2\n      swap1\n      pop\n      jump\t// out\n        /* \"#utility.yul\":13598:13724   */\n    tag_261:\n      0x00\n        /* \"#utility.yul\":13675:13717   */\n      0xffffffffffffffffffffffffffffffffffffffff\n        /* \"#utility.yul\":13668:13673   */\n      dup3\n        /* \"#utility.yul\":13664:13718   */\n      and\n        /* \"#utility.yul\":13653:13718   */\n      swap1\n      pop\n        /* \"#utility.yul\":13643:13724   */\n      swap2\n      swap1\n      pop\n      jump\t// out\n        /* \"#utility.yul\":13730:13807   */\n    tag_180:\n      0x00\n        /* \"#utility.yul\":13796:13801   */\n      dup2\n        /* \"#utility.yul\":13785:13801   */\n      swap1\n      pop\n        /* \"#utility.yul\":13775:13807   */\n      swap2\n      swap1\n      pop\n      jump\t// out\n        /* \"#utility.yul\":13813:13899   */\n    tag_184:\n      0x00\n        /* \"#utility.yul\":13888:13892   */\n      0xff\n        /* \"#utility.yul\":13881:13886   */\n      dup3\n        /* \"#utility.yul\":13877:13893   */\n      and\n        /* \"#utility.yul\":13866:13893   */\n      swap1\n      pop\n        /* \"#utility.yul\":13856:13899   */\n      swap2\n      swap1\n      pop\n      jump\t// out\n        /* \"#utility.yul\":13905:14085   */\n    tag_215:\n        /* \"#utility.yul\":13953:14030   */\n      0x4e487b7100000000000000000000000000000000000000000000000000000000\n        /* \"#utility.yul\":13950:13951   */\n      0x00\n        /* \"#utility.yul\":13943:14031   */\n      mstore\n        /* \"#utility.yul\":14050:14054   */\n      0x11\n        /* \"#utility.yul\":14047:14048   */\n      0x04\n        /* \"#utility.yul\":14040:14055   */\n      mstore\n        /* \"#utility.yul\":14074:14078   */\n      0x24\n        /* \"#utility.yul\":14071:14072   */\n      0x00\n        /* \"#utility.yul\":14064:14079   */\n      revert\n        /* \"#utility.yul\":14091:14271   */\n    tag_221:\n        /* \"#utility.yul\":14139:14216   */\n      0x4e487b7100000000000000000000000000000000000000000000000000000000\n        /* \"#utility.yul\":14136:14137   */\n      0x00\n        /* \"#utility.yul\":14129:14217   */\n      mstore\n        /* \"#utility.yul\":14236:14240   */\n      0x12\n        /* \"#utility.yul\":14233:14234   */\n      0x04\n        /* \"#utility.yul\":14226:14241   */\n      mstore\n        /* \"#utility.yul\":14260:14264   */\n      0x24\n        /* \"#utility.yul\":14257:14258   */\n      0x00\n        /* \"#utility.yul\":14250:14265   */\n      revert\n        /* \"#utility.yul\":14277:14379   */\n    tag_231:\n      0x00\n        /* \"#utility.yul\":14366:14371   */\n      dup2\n        /* \"#utility.yul\":14363:14364   */\n      0x01\n        /* \"#utility.yul\":14359:14372   */\n      shr\n        /* \"#utility.yul\":14338:14372   */\n      swap1\n      pop\n        /* \"#utility.yul\":14328:14379   */\n      swap2\n      swap1\n      pop\n      jump\t// out\n        /* \"#utility.yul\":14385:14507   */\n    tag_121:\n        /* \"#utility.yul\":14458:14482   */\n      tag_270\n        /* \"#utility.yul\":14476:14481   */\n      dup2\n        /* \"#utility.yul\":14458:14482   */\n      tag_258\n      jump\t// in\n    tag_270:\n        /* \"#utility.yul\":14451:14456   */\n      dup2\n        /* \"#utility.yul\":14448:14483   */\n      eq\n        /* \"#utility.yul\":14438:14440   */\n      tag_271\n      jumpi\n        /* \"#utility.yul\":14497:14498   */\n      0x00\n        /* \"#utility.yul\":14494:14495   */\n      dup1\n        /* \"#utility.yul\":14487:14499   */\n      revert\n        /* \"#utility.yul\":14438:14440   */\n    tag_271:\n        /* \"#utility.yul\":14428:14507   */\n      pop\n      jump\t// out\n        /* \"#utility.yul\":14513:14635   */\n    tag_125:\n        /* \"#utility.yul\":14586:14610   */\n      tag_273\n        /* \"#utility.yul\":14604:14609   */\n      dup2\n        /* \"#utility.yul\":14586:14610   */\n      tag_180\n      jump\t// in\n    tag_273:\n        /* \"#utility.yul\":14579:14584   */\n      dup2\n        /* \"#utility.yul\":14576:14611   */\n      eq\n        /* \"#utility.yul\":14566:14568   */\n      tag_274\n      jumpi\n        /* \"#utility.yul\":14625:14626   */\n      0x00\n        /* \"#utility.yul\":14622:14623   */\n      dup1\n        /* \"#utility.yul\":14615:14627   */\n      revert\n        /* \"#utility.yul\":14566:14568   */\n    tag_274:\n        /* \"#utility.yul\":14556:14635   */\n      pop\n      jump\t// out\n\n    auxdata: 0xa264697066735822122027d49ad6fea9b14872598c774d1ba2f3feb281eeb199aeb2f9a3f3f8a60e4b8d64736f6c63430008000033\n}\n",
				"bytecode": {
					"linkReferences": {},
					"object": "608060405260006001556000600460006101000a81548160ff02191690831515021790555034801561003057600080fd5b50336000806101000a81548173ffffffffffffffffffffffffffffffffffffffff021916908373ffffffffffffffffffffffffffffffffffffffff160217905550611708806100806000396000f3fe608060405234801561001057600080fd5b50600436106100935760003560e01c80632c526196116100665780632c52619614610120578063313ce5671461013c57806370a082311461015a578063a9059cbb1461018a578063dd62ed3e146101ba57610093565b8063095ea7b31461009857806313b4159c146100c857806318160ddd146100d257806323b872dd146100f0575b600080fd5b6100b260048036038101906100ad9190610e80565b6101ea565b6040516100bf9190611236565b60405180910390f35b6100d06103cd565b005b6100da610478565b6040516100e79190611371565b60405180910390f35b61010a60048036038101906101059190610e31565b610482565b6040516101179190611236565b60405180910390f35b61013a60048036038101906101359190610ebc565b610853565b005b610144610abb565b604051610151919061138c565b60405180910390f35b610174600480360381019061016f9190610dcc565b610ac4565b6040516101819190611371565b60405180910390f35b6101a4600480360381019061019f9190610e80565b610b0d565b6040516101b19190611236565b60405180910390f35b6101d460048036038101906101cf9190610df5565b610d1b565b6040516101e19190611371565b60405180910390f35b60008073ffffffffffffffffffffffffffffffffffffffff168373ffffffffffffffffffffffffffffffffffffffff16141561025b576040517f08c379a000000000000000000000000000000000000000000000000000000000815260040161025290611271565b60405180910390fd5b81600260003373ffffffffffffffffffffffffffffffffffffffff1673ffffffffffffffffffffffffffffffffffffffff1681526020019081526020016000205410156102dd576040517f08c379a00000000000000000000000000000000000000000000000000000000081526004016102d490611291565b60405180910390fd5b81600360003373ffffffffffffffffffffffffffffffffffffffff1673ffffffffffffffffffffffffffffffffffffffff16815260200190815260200160002060008573ffffffffffffffffffffffffffffffffffffffff1673ffffffffffffffffffffffffffffffffffffffff168152602001908152602001600020819055508273ffffffffffffffffffffffffffffffffffffffff163373ffffffffffffffffffffffffffffffffffffffff167f8c5be1e5ebec7d5bd14f71427d1e84f3dd0314c0f7b2291e5b200ac8c7c3b925846040516103bb9190611371565b60405180910390a36001905092915050565b3373ffffffffffffffffffffffffffffffffffffffff1660008054906101000a900473ffffffffffffffffffffffffffffffffffffffff1673ffffffffffffffffffffffffffffffffffffffff161461045b576040517f08c379a0000000000000000000000000000000000000000000000000000000008152600401610452906112f1565b60405180910390fd5b6001600460006101000a81548160ff021916908315150217905550565b6000600154905090565b60008073ffffffffffffffffffffffffffffffffffffffff168473ffffffffffffffffffffffffffffffffffffffff1614156104f3576040517f08c379a00000000000000000000000000000000000000000000000000000000081526004016104ea90611331565b60405180910390fd5b600073ffffffffffffffffffffffffffffffffffffffff168373ffffffffffffffffffffffffffffffffffffffff161415610563576040517f08c379a000000000000000000000000000000000000000000000000000000000815260040161055a90611251565b60405180910390fd5b81600260008673ffffffffffffffffffffffffffffffffffffffff1673ffffffffffffffffffffffffffffffffffffffff1681526020019081526020016000205410156105e5576040517f08c379a00000000000000000000000000000000000000000000000000000000081526004016105dc906112b1565b60405180910390fd5b81600360008673ffffffffffffffffffffffffffffffffffffffff1673ffffffffffffffffffffffffffffffffffffffff16815260200190815260200160002060003373ffffffffffffffffffffffffffffffffffffffff1673ffffffffffffffffffffffffffffffffffffffff1681526020019081526020016000205410156106a4576040517f08c379a000000000000000000000000000000000000000000000000000000000815260040161069b906112d1565b60405180910390fd5b81600260008673ffffffffffffffffffffffffffffffffffffffff1673ffffffffffffffffffffffffffffffffffffffff16815260200190815260200160002060008282546106f391906115b0565b9250508190555081600260008573ffffffffffffffffffffffffffffffffffffffff1673ffffffffffffffffffffffffffffffffffffffff168152602001908152602001600020600082825461074991906113b8565b9250508190555081600360008673ffffffffffffffffffffffffffffffffffffffff1673ffffffffffffffffffffffffffffffffffffffff16815260200190815260200160002060003373ffffffffffffffffffffffffffffffffffffffff1673ffffffffffffffffffffffffffffffffffffffff16815260200190815260200160002060008282546107dc91906115b0565b925050819055508273ffffffffffffffffffffffffffffffffffffffff168473ffffffffffffffffffffffffffffffffffffffff167fddf252ad1be2c89b69c2b068fc378daa952ba7f163c4a11628f55a4df523b3ef846040516108409190611371565b60405180910390a3600190509392505050565b3373ffffffffffffffffffffffffffffffffffffffff1660008054906101000a900473ffffffffffffffffffffffffffffffffffffffff1673ffffffffffffffffffffffffffffffffffffffff16146108e1576040517f08c379a00000000000000000000000000000000000000000000000000000000081526004016108d8906112f1565b60405180910390fd5b600073ffffffffffffffffffffffffffffffffffffffff163373ffffffffffffffffffffffffffffffffffffffff161415610951576040517f08c379a000000000000000000000000000000000000000000000000000000000815260040161094890611351565b60405180910390fd5b60001515600460009054906101000a900460ff161515146109a7576040517f08c379a000000000000000000000000000000000000000000000000000000000815260040161099e90611311565b60405180910390fd5b6109af610abb565b600a6109bb9190611492565b816109c6919061140e565b600160008282546109d791906113b8565b925050819055506109e6610abb565b600a6109f29190611492565b816109fd919061140e565b600260003373ffffffffffffffffffffffffffffffffffffffff1673ffffffffffffffffffffffffffffffffffffffff1681526020019081526020016000206000828254610a4b91906113b8565b925050819055503373ffffffffffffffffffffffffffffffffffffffff16600073ffffffffffffffffffffffffffffffffffffffff167fddf252ad1be2c89b69c2b068fc378daa952ba7f163c4a11628f55a4df523b3ef83604051610ab09190611371565b60405180910390a350565b60006012905090565b6000600260008373ffffffffffffffffffffffffffffffffffffffff1673ffffffffffffffffffffffffffffffffffffffff168152602001908152602001600020549050919050565b60008073ffffffffffffffffffffffffffffffffffffffff168373ffffffffffffffffffffffffffffffffffffffff161415610b7e576040517f08c379a0000000000000000000000000000000000000000000000000000000008152600401610b7590611251565b60405180910390fd5b81600260003373ffffffffffffffffffffffffffffffffffffffff1673ffffffffffffffffffffffffffffffffffffffff168152602001908152602001600020541015610c00576040517f08c379a0000000000000000000000000000000000000000000000000000000008152600401610bf7906112b1565b60405180910390fd5b81600260003373ffffffffffffffffffffffffffffffffffffffff1673ffffffffffffffffffffffffffffffffffffffff1681526020019081526020016000206000828254610c4f91906115b0565b9250508190555081600260008573ffffffffffffffffffffffffffffffffffffffff1673ffffffffffffffffffffffffffffffffffffffff1681526020019081526020016000206000828254610ca591906113b8565b925050819055508273ffffffffffffffffffffffffffffffffffffffff163373ffffffffffffffffffffffffffffffffffffffff167fddf252ad1be2c89b69c2b068fc378daa952ba7f163c4a11628f55a4df523b3ef84604051610d099190611371565b60405180910390a36001905092915050565b6000600360008473ffffffffffffffffffffffffffffffffffffffff1673ffffffffffffffffffffffffffffffffffffffff16815260200190815260200160002060008373ffffffffffffffffffffffffffffffffffffffff1673ffffffffffffffffffffffffffffffffffffffff16815260200190815260200160002054905092915050565b600081359050610db1816116a4565b92915050565b600081359050610dc6816116bb565b92915050565b600060208284031215610dde57600080fd5b6000610dec84828501610da2565b91505092915050565b60008060408385031215610e0857600080fd5b6000610e1685828601610da2565b9250506020610e2785828601610da2565b9150509250929050565b600080600060608486031215610e4657600080fd5b6000610e5486828701610da2565b9350506020610e6586828701610da2565b9250506040610e7686828701610db7565b9150509250925092565b60008060408385031215610e9357600080fd5b6000610ea185828601610da2565b9250506020610eb285828601610db7565b9150509250929050565b600060208284031215610ece57600080fd5b6000610edc84828501610db7565b91505092915050565b610eee816115f6565b82525050565b6000610f016023836113a7565b91507f45524332303a207472616e7366657220746f20746865207a65726f206164647260008301527f65737300000000000000000000000000000000000000000000000000000000006020830152604082019050919050565b6000610f676022836113a7565b91507f45524332303a20617070726f766520746f20746865207a65726f20616464726560008301527f73730000000000000000000000000000000000000000000000000000000000006020830152604082019050919050565b6000610fcd6025836113a7565b91507f45524332303a20617070726f766520616d6f756e74206578636565647320626160008301527f6c616e63650000000000000000000000000000000000000000000000000000006020830152604082019050919050565b60006110336026836113a7565b91507f45524332303a207472616e7366657220616d6f756e742065786365656473206260008301527f616c616e636500000000000000000000000000000000000000000000000000006020830152604082019050919050565b60006110996028836113a7565b91507f45524332303a207472616e7366657220616d6f756e742065786365656473206160008301527f6c6c6f77616e63650000000000000000000000000000000000000000000000006020830152604082019050919050565b60006110ff6020836113a7565b91507f4f776e61626c653a2063616c6c6572206973206e6f7420746865206f776e65726000830152602082019050919050565b600061113f6013836113a7565b91507f4d696e74696e672069732064697361626c6564000000000000000000000000006000830152602082019050919050565b600061117f6025836113a7565b91507f45524332303a207472616e736665722066726f6d20746865207a65726f20616460008301527f64726573730000000000000000000000000000000000000000000000000000006020830152604082019050919050565b60006111e5601f836113a7565b91507f45524332303a206d696e7420746f20746865207a65726f2061646472657373006000830152602082019050919050565b61122181611622565b82525050565b6112308161162c565b82525050565b600060208201905061124b6000830184610ee5565b92915050565b6000602082019050818103600083015261126a81610ef4565b9050919050565b6000602082019050818103600083015261128a81610f5a565b9050919050565b600060208201905081810360008301526112aa81610fc0565b9050919050565b600060208201905081810360008301526112ca81611026565b9050919050565b600060208201905081810360008301526112ea8161108c565b9050919050565b6000602082019050818103600083015261130a816110f2565b9050919050565b6000602082019050818103600083015261132a81611132565b9050919050565b6000602082019050818103600083015261134a81611172565b9050919050565b6000602082019050818103600083015261136a816111d8565b9050919050565b60006020820190506113866000830184611218565b92915050565b60006020820190506113a16000830184611227565b92915050565b600082825260208201905092915050565b60006113c382611622565b91506113ce83611622565b9250827fffffffffffffffffffffffffffffffffffffffffffffffffffffffffffffffff0382111561140357611402611639565b5b828201905092915050565b600061141982611622565b915061142483611622565b92508261143457611433611668565b5b828204905092915050565b6000808291508390505b60018511156114895780860481111561146557611464611639565b5b60018516156114745780820291505b808102905061148285611697565b9450611449565b94509492505050565b600061149d82611622565b91506114a88361162c565b92506114d57fffffffffffffffffffffffffffffffffffffffffffffffffffffffffffffffff84846114dd565b905092915050565b6000826114ed57600190506115a9565b816114fb57600090506115a9565b8160018114611511576002811461151b5761154a565b60019150506115a9565b60ff84111561152d5761152c611639565b5b8360020a91508482111561154457611543611639565b5b506115a9565b5060208310610133831016604e8410600b841016171561157f5782820a90508381111561157a57611579611639565b5b6115a9565b61158c848484600161143f565b925090508184048111156115a3576115a2611639565b5b81810290505b9392505050565b60006115bb82611622565b91506115c683611622565b9250828210156115d9576115d8611639565b5b828203905092915050565b60006115ef82611602565b9050919050565b60008115159050919050565b600073ffffffffffffffffffffffffffffffffffffffff82169050919050565b6000819050919050565b600060ff82169050919050565b7f4e487b7100000000000000000000000000000000000000000000000000000000600052601160045260246000fd5b7f4e487b7100000000000000000000000000000000000000000000000000000000600052601260045260246000fd5b60008160011c9050919050565b6116ad816115e4565b81146116b857600080fd5b50565b6116c481611622565b81146116cf57600080fd5b5056fea264697066735822122027d49ad6fea9b14872598c774d1ba2f3feb281eeb199aeb2f9a3f3f8a60e4b8d64736f6c63430008000033",
					"opcodes": "PUSH1 0x80 PUSH1 0x40 MSTORE PUSH1 0x0 PUSH1 0x1 SSTORE PUSH1 0x0 PUSH1 0x4 PUSH1 0x0 PUSH2 0x100 EXP DUP2 SLOAD DUP2 PUSH1 0xFF MUL NOT AND SWAP1 DUP4 ISZERO ISZERO MUL OR SWAP1 SSTORE POP CALLVALUE DUP1 ISZERO PUSH2 0x30 JUMPI PUSH1 0x0 DUP1 REVERT JUMPDEST POP CALLER PUSH1 0x0 DUP1 PUSH2 0x100 EXP DUP2 SLOAD DUP2 PUSH20 0xFFFFFFFFFFFFFFFFFFFFFFFFFFFFFFFFFFFFFFFF MUL NOT AND SWAP1 DUP4 PUSH20 0xFFFFFFFFFFFFFFFFFFFFFFFFFFFFFFFFFFFFFFFF AND MUL OR SWAP1 SSTORE POP PUSH2 0x1708 DUP1 PUSH2 0x80 PUSH1 0x0 CODECOPY PUSH1 0x0 RETURN INVALID PUSH1 0x80 PUSH1 0x40 MSTORE CALLVALUE DUP1 ISZERO PUSH2 0x10 JUMPI PUSH1 0x0 DUP1 REVERT JUMPDEST POP PUSH1 0x4 CALLDATASIZE LT PUSH2 0x93 JUMPI PUSH1 0x0 CALLDATALOAD PUSH1 0xE0 SHR DUP1 PUSH4 0x2C526196 GT PUSH2 0x66 JUMPI DUP1 PUSH4 0x2C526196 EQ PUSH2 0x120 JUMPI DUP1 PUSH4 0x313CE567 EQ PUSH2 0x13C JUMPI DUP1 PUSH4 0x70A08231 EQ PUSH2 0x15A JUMPI DUP1 PUSH4 0xA9059CBB EQ PUSH2 0x18A JUMPI DUP1 PUSH4 0xDD62ED3E EQ PUSH2 0x1BA JUMPI PUSH2 0x93 JUMP JUMPDEST DUP1 PUSH4 0x95EA7B3 EQ PUSH2 0x98 JUMPI DUP1 PUSH4 0x13B4159C EQ PUSH2 0xC8 JUMPI DUP1 PUSH4 0x18160DDD EQ PUSH2 0xD2 JUMPI DUP1 PUSH4 0x23B872DD EQ PUSH2 0xF0 JUMPI JUMPDEST PUSH1 0x0 DUP1 REVERT JUMPDEST PUSH2 0xB2 PUSH1 0x4 DUP1 CALLDATASIZE SUB DUP2 ADD SWAP1 PUSH2 0xAD SWAP2 SWAP1 PUSH2 0xE80 JUMP JUMPDEST PUSH2 0x1EA JUMP JUMPDEST PUSH1 0x40 MLOAD PUSH2 0xBF SWAP2 SWAP1 PUSH2 0x1236 JUMP JUMPDEST PUSH1 0x40 MLOAD DUP1 SWAP2 SUB SWAP1 RETURN JUMPDEST PUSH2 0xD0 PUSH2 0x3CD JUMP JUMPDEST STOP JUMPDEST PUSH2 0xDA PUSH2 0x478 JUMP JUMPDEST PUSH1 0x40 MLOAD PUSH2 0xE7 SWAP2 SWAP1 PUSH2 0x1371 JUMP JUMPDEST PUSH1 0x40 MLOAD DUP1 SWAP2 SUB SWAP1 RETURN JUMPDEST PUSH2 0x10A PUSH1 0x4 DUP1 CALLDATASIZE SUB DUP2 ADD SWAP1 PUSH2 0x105 SWAP2 SWAP1 PUSH2 0xE31 JUMP JUMPDEST PUSH2 0x482 JUMP JUMPDEST PUSH1 0x40 MLOAD PUSH2 0x117 SWAP2 SWAP1 PUSH2 0x1236 JUMP JUMPDEST PUSH1 0x40 MLOAD DUP1 SWAP2 SUB SWAP1 RETURN JUMPDEST PUSH2 0x13A PUSH1 0x4 DUP1 CALLDATASIZE SUB DUP2 ADD SWAP1 PUSH2 0x135 SWAP2 SWAP1 PUSH2 0xEBC JUMP JUMPDEST PUSH2 0x853 JUMP JUMPDEST STOP JUMPDEST PUSH2 0x144 PUSH2 0xABB JUMP JUMPDEST PUSH1 0x40 MLOAD PUSH2 0x151 SWAP2 SWAP1 PUSH2 0x138C JUMP JUMPDEST PUSH1 0x40 MLOAD DUP1 SWAP2 SUB SWAP1 RETURN JUMPDEST PUSH2 0x174 PUSH1 0x4 DUP1 CALLDATASIZE SUB DUP2 ADD SWAP1 PUSH2 0x16F SWAP2 SWAP1 PUSH2 0xDCC JUMP JUMPDEST PUSH2 0xAC4 JUMP JUMPDEST PUSH1 0x40 MLOAD PUSH2 0x181 SWAP2 SWAP1 PUSH2 0x1371 JUMP JUMPDEST PUSH1 0x40 MLOAD DUP1 SWAP2 SUB SWAP1 RETURN JUMPDEST PUSH2 0x1A4 PUSH1 0x4 DUP1 CALLDATASIZE SUB DUP2 ADD SWAP1 PUSH2 0x19F SWAP2 SWAP1 PUSH2 0xE80 JUMP JUMPDEST PUSH2 0xB0D JUMP JUMPDEST PUSH1 0x40 MLOAD PUSH2 0x1B1 SWAP2 SWAP1 PUSH2 0x1236 JUMP JUMPDEST PUSH1 0x40 MLOAD DUP1 SWAP2 SUB SWAP1 RETURN JUMPDEST PUSH2 0x1D4 PUSH1 0x4 DUP1 CALLDATASIZE SUB DUP2 ADD SWAP1 PUSH2 0x1CF SWAP2 SWAP1 PUSH2 0xDF5 JUMP JUMPDEST PUSH2 0xD1B JUMP JUMPDEST PUSH1 0x40 MLOAD PUSH2 0x1E1 SWAP2 SWAP1 PUSH2 0x1371 JUMP JUMPDEST PUSH1 0x40 MLOAD DUP1 SWAP2 SUB SWAP1 RETURN JUMPDEST PUSH1 0x0 DUP1 PUSH20 0xFFFFFFFFFFFFFFFFFFFFFFFFFFFFFFFFFFFFFFFF AND DUP4 PUSH20 0xFFFFFFFFFFFFFFFFFFFFFFFFFFFFFFFFFFFFFFFF AND EQ ISZERO PUSH2 0x25B JUMPI PUSH1 0x40 MLOAD PUSH32 0x8C379A000000000000000000000000000000000000000000000000000000000 DUP2 MSTORE PUSH1 0x4 ADD PUSH2 0x252 SWAP1 PUSH2 0x1271 JUMP JUMPDEST PUSH1 0x40 MLOAD DUP1 SWAP2 SUB SWAP1 REVERT JUMPDEST DUP2 PUSH1 0x2 PUSH1 0x0 CALLER PUSH20 0xFFFFFFFFFFFFFFFFFFFFFFFFFFFFFFFFFFFFFFFF AND PUSH20 0xFFFFFFFFFFFFFFFFFFFFFFFFFFFFFFFFFFFFFFFF AND DUP2 MSTORE PUSH1 0x20 ADD SWAP1 DUP2 MSTORE PUSH1 0x20 ADD PUSH1 0x0 KECCAK256 SLOAD LT ISZERO PUSH2 0x2DD JUMPI PUSH1 0x40 MLOAD PUSH32 0x8C379A000000000000000000000000000000000000000000000000000000000 DUP2 MSTORE PUSH1 0x4 ADD PUSH2 0x2D4 SWAP1 PUSH2 0x1291 JUMP JUMPDEST PUSH1 0x40 MLOAD DUP1 SWAP2 SUB SWAP1 REVERT JUMPDEST DUP2 PUSH1 0x3 PUSH1 0x0 CALLER PUSH20 0xFFFFFFFFFFFFFFFFFFFFFFFFFFFFFFFFFFFFFFFF AND PUSH20 0xFFFFFFFFFFFFFFFFFFFFFFFFFFFFFFFFFFFFFFFF AND DUP2 MSTORE PUSH1 0x20 ADD SWAP1 DUP2 MSTORE PUSH1 0x20 ADD PUSH1 0x0 KECCAK256 PUSH1 0x0 DUP6 PUSH20 0xFFFFFFFFFFFFFFFFFFFFFFFFFFFFFFFFFFFFFFFF AND PUSH20 0xFFFFFFFFFFFFFFFFFFFFFFFFFFFFFFFFFFFFFFFF AND DUP2 MSTORE PUSH1 0x20 ADD SWAP1 DUP2 MSTORE PUSH1 0x20 ADD PUSH1 0x0 KECCAK256 DUP2 SWAP1 SSTORE POP DUP3 PUSH20 0xFFFFFFFFFFFFFFFFFFFFFFFFFFFFFFFFFFFFFFFF AND CALLER PUSH20 0xFFFFFFFFFFFFFFFFFFFFFFFFFFFFFFFFFFFFFFFF AND PUSH32 0x8C5BE1E5EBEC7D5BD14F71427D1E84F3DD0314C0F7B2291E5B200AC8C7C3B925 DUP5 PUSH1 0x40 MLOAD PUSH2 0x3BB SWAP2 SWAP1 PUSH2 0x1371 JUMP JUMPDEST PUSH1 0x40 MLOAD DUP1 SWAP2 SUB SWAP1 LOG3 PUSH1 0x1 SWAP1 POP SWAP3 SWAP2 POP POP JUMP JUMPDEST CALLER PUSH20 0xFFFFFFFFFFFFFFFFFFFFFFFFFFFFFFFFFFFFFFFF AND PUSH1 0x0 DUP1 SLOAD SWAP1 PUSH2 0x100 EXP SWAP1 DIV PUSH20 0xFFFFFFFFFFFFFFFFFFFFFFFFFFFFFFFFFFFFFFFF AND PUSH20 0xFFFFFFFFFFFFFFFFFFFFFFFFFFFFFFFFFFFFFFFF AND EQ PUSH2 0x45B JUMPI PUSH1 0x40 MLOAD PUSH32 0x8C379A000000000000000000000000000000000000000000000000000000000 DUP2 MSTORE PUSH1 0x4 ADD PUSH2 0x452 SWAP1 PUSH2 0x12F1 JUMP JUMPDEST PUSH1 0x40 MLOAD DUP1 SWAP2 SUB SWAP1 REVERT JUMPDEST PUSH1 0x1 PUSH1 0x4 PUSH1 0x0 PUSH2 0x100 EXP DUP2 SLOAD DUP2 PUSH1 0xFF MUL NOT AND SWAP1 DUP4 ISZERO ISZERO MUL OR SWAP1 SSTORE POP JUMP JUMPDEST PUSH1 0x0 PUSH1 0x1 SLOAD SWAP1 POP SWAP1 JUMP JUMPDEST PUSH1 0x0 DUP1 PUSH20 0xFFFFFFFFFFFFFFFFFFFFFFFFFFFFFFFFFFFFFFFF AND DUP5 PUSH20 0xFFFFFFFFFFFFFFFFFFFFFFFFFFFFFFFFFFFFFFFF AND EQ ISZERO PUSH2 0x4F3 JUMPI PUSH1 0x40 MLOAD PUSH32 0x8C379A000000000000000000000000000000000000000000000000000000000 DUP2 MSTORE PUSH1 0x4 ADD PUSH2 0x4EA SWAP1 PUSH2 0x1331 JUMP JUMPDEST PUSH1 0x40 MLOAD DUP1 SWAP2 SUB SWAP1 REVERT JUMPDEST PUSH1 0x0 PUSH20 0xFFFFFFFFFFFFFFFFFFFFFFFFFFFFFFFFFFFFFFFF AND DUP4 PUSH20 0xFFFFFFFFFFFFFFFFFFFFFFFFFFFFFFFFFFFFFFFF AND EQ ISZERO PUSH2 0x563 JUMPI PUSH1 0x40 MLOAD PUSH32 0x8C379A000000000000000000000000000000000000000000000000000000000 DUP2 MSTORE PUSH1 0x4 ADD PUSH2 0x55A SWAP1 PUSH2 0x1251 JUMP JUMPDEST PUSH1 0x40 MLOAD DUP1 SWAP2 SUB SWAP1 REVERT JUMPDEST DUP2 PUSH1 0x2 PUSH1 0x0 DUP7 PUSH20 0xFFFFFFFFFFFFFFFFFFFFFFFFFFFFFFFFFFFFFFFF AND PUSH20 0xFFFFFFFFFFFFFFFFFFFFFFFFFFFFFFFFFFFFFFFF AND DUP2 MSTORE PUSH1 0x20 ADD SWAP1 DUP2 MSTORE PUSH1 0x20 ADD PUSH1 0x0 KECCAK256 SLOAD LT ISZERO PUSH2 0x5E5 JUMPI PUSH1 0x40 MLOAD PUSH32 0x8C379A000000000000000000000000000000000000000000000000000000000 DUP2 MSTORE PUSH1 0x4 ADD PUSH2 0x5DC SWAP1 PUSH2 0x12B1 JUMP JUMPDEST PUSH1 0x40 MLOAD DUP1 SWAP2 SUB SWAP1 REVERT JUMPDEST DUP2 PUSH1 0x3 PUSH1 0x0 DUP7 PUSH20 0xFFFFFFFFFFFFFFFFFFFFFFFFFFFFFFFFFFFFFFFF AND PUSH20 0xFFFFFFFFFFFFFFFFFFFFFFFFFFFFFFFFFFFFFFFF AND DUP2 MSTORE PUSH1 0x20 ADD SWAP1 DUP2 MSTORE PUSH1 0x20 ADD PUSH1 0x0 KECCAK256 PUSH1 0x0 CALLER PUSH20 0xFFFFFFFFFFFFFFFFFFFFFFFFFFFFFFFFFFFFFFFF AND PUSH20 0xFFFFFFFFFFFFFFFFFFFFFFFFFFFFFFFFFFFFFFFF AND DUP2 MSTORE PUSH1 0x20 ADD SWAP1 DUP2 MSTORE PUSH1 0x20 ADD PUSH1 0x0 KECCAK256 SLOAD LT ISZERO PUSH2 0x6A4 JUMPI PUSH1 0x40 MLOAD PUSH32 0x8C379A000000000000000000000000000000000000000000000000000000000 DUP2 MSTORE PUSH1 0x4 ADD PUSH2 0x69B SWAP1 PUSH2 0x12D1 JUMP JUMPDEST PUSH1 0x40 MLOAD DUP1 SWAP2 SUB SWAP1 REVERT JUMPDEST DUP2 PUSH1 0x2 PUSH1 0x0 DUP7 PUSH20 0xFFFFFFFFFFFFFFFFFFFFFFFFFFFFFFFFFFFFFFFF AND PUSH20 0xFFFFFFFFFFFFFFFFFFFFFFFFFFFFFFFFFFFFFFFF AND DUP2 MSTORE PUSH1 0x20 ADD SWAP1 DUP2 MSTORE PUSH1 0x20 ADD PUSH1 0x0 KECCAK256 PUSH1 0x0 DUP3 DUP3 SLOAD PUSH2 0x6F3 SWAP2 SWAP1 PUSH2 0x15B0 JUMP JUMPDEST SWAP3 POP POP DUP2 SWAP1 SSTORE POP DUP2 PUSH1 0x2 PUSH1 0x0 DUP6 PUSH20 0xFFFFFFFFFFFFFFFFFFFFFFFFFFFFFFFFFFFFFFFF AND PUSH20 0xFFFFFFFFFFFFFFFFFFFFFFFFFFFFFFFFFFFFFFFF AND DUP2 MSTORE PUSH1 0x20 ADD SWAP1 DUP2 MSTORE PUSH1 0x20 ADD PUSH1 0x0 KECCAK256 PUSH1 0x0 DUP3 DUP3 SLOAD PUSH2 0x749 SWAP2 SWAP1 PUSH2 0x13B8 JUMP JUMPDEST SWAP3 POP POP DUP2 SWAP1 SSTORE POP DUP2 PUSH1 0x3 PUSH1 0x0 DUP7 PUSH20 0xFFFFFFFFFFFFFFFFFFFFFFFFFFFFFFFFFFFFFFFF AND PUSH20 0xFFFFFFFFFFFFFFFFFFFFFFFFFFFFFFFFFFFFFFFF AND DUP2 MSTORE PUSH1 0x20 ADD SWAP1 DUP2 MSTORE PUSH1 0x20 ADD PUSH1 0x0 KECCAK256 PUSH1 0x0 CALLER PUSH20 0xFFFFFFFFFFFFFFFFFFFFFFFFFFFFFFFFFFFFFFFF AND PUSH20 0xFFFFFFFFFFFFFFFFFFFFFFFFFFFFFFFFFFFFFFFF AND DUP2 MSTORE PUSH1 0x20 ADD SWAP1 DUP2 MSTORE PUSH1 0x20 ADD PUSH1 0x0 KECCAK256 PUSH1 0x0 DUP3 DUP3 SLOAD PUSH2 0x7DC SWAP2 SWAP1 PUSH2 0x15B0 JUMP JUMPDEST SWAP3 POP POP DUP2 SWAP1 SSTORE POP DUP3 PUSH20 0xFFFFFFFFFFFFFFFFFFFFFFFFFFFFFFFFFFFFFFFF AND DUP5 PUSH20 0xFFFFFFFFFFFFFFFFFFFFFFFFFFFFFFFFFFFFFFFF AND PUSH32 0xDDF252AD1BE2C89B69C2B068FC378DAA952BA7F163C4A11628F55A4DF523B3EF DUP5 PUSH1 0x40 MLOAD PUSH2 0x840 SWAP2 SWAP1 PUSH2 0x1371 JUMP JUMPDEST PUSH1 0x40 MLOAD DUP1 SWAP2 SUB SWAP1 LOG3 PUSH1 0x1 SWAP1 POP SWAP4 SWAP3 POP POP POP JUMP JUMPDEST CALLER PUSH20 0xFFFFFFFFFFFFFFFFFFFFFFFFFFFFFFFFFFFFFFFF AND PUSH1 0x0 DUP1 SLOAD SWAP1 PUSH2 0x100 EXP SWAP1 DIV PUSH20 0xFFFFFFFFFFFFFFFFFFFFFFFFFFFFFFFFFFFFFFFF AND PUSH20 0xFFFFFFFFFFFFFFFFFFFFFFFFFFFFFFFFFFFFFFFF AND EQ PUSH2 0x8E1 JUMPI PUSH1 0x40 MLOAD PUSH32 0x8C379A000000000000000000000000000000000000000000000000000000000 DUP2 MSTORE PUSH1 0x4 ADD PUSH2 0x8D8 SWAP1 PUSH2 0x12F1 JUMP JUMPDEST PUSH1 0x40 MLOAD DUP1 SWAP2 SUB SWAP1 REVERT JUMPDEST PUSH1 0x0 PUSH20 0xFFFFFFFFFFFFFFFFFFFFFFFFFFFFFFFFFFFFFFFF AND CALLER PUSH20 0xFFFFFFFFFFFFFFFFFFFFFFFFFFFFFFFFFFFFFFFF AND EQ ISZERO PUSH2 0x951 JUMPI PUSH1 0x40 MLOAD PUSH32 0x8C379A000000000000000000000000000000000000000000000000000000000 DUP2 MSTORE PUSH1 0x4 ADD PUSH2 0x948 SWAP1 PUSH2 0x1351 JUMP JUMPDEST PUSH1 0x40 MLOAD DUP1 SWAP2 SUB SWAP1 REVERT JUMPDEST PUSH1 0x0 ISZERO ISZERO PUSH1 0x4 PUSH1 0x0 SWAP1 SLOAD SWAP1 PUSH2 0x100 EXP SWAP1 DIV PUSH1 0xFF AND ISZERO ISZERO EQ PUSH2 0x9A7 JUMPI PUSH1 0x40 MLOAD PUSH32 0x8C379A000000000000000000000000000000000000000000000000000000000 DUP2 MSTORE PUSH1 0x4 ADD PUSH2 0x99E SWAP1 PUSH2 0x1311 JUMP JUMPDEST PUSH1 0x40 MLOAD DUP1 SWAP2 SUB SWAP1 REVERT JUMPDEST PUSH2 0x9AF PUSH2 0xABB JUMP JUMPDEST PUSH1 0xA PUSH2 0x9BB SWAP2 SWAP1 PUSH2 0x1492 JUMP JUMPDEST DUP2 PUSH2 0x9C6 SWAP2 SWAP1 PUSH2 0x140E JUMP JUMPDEST PUSH1 0x1 PUSH1 0x0 DUP3 DUP3 SLOAD PUSH2 0x9D7 SWAP2 SWAP1 PUSH2 0x13B8 JUMP JUMPDEST SWAP3 POP POP DUP2 SWAP1 SSTORE POP PUSH2 0x9E6 PUSH2 0xABB JUMP JUMPDEST PUSH1 0xA PUSH2 0x9F2 SWAP2 SWAP1 PUSH2 0x1492 JUMP JUMPDEST DUP2 PUSH2 0x9FD SWAP2 SWAP1 PUSH2 0x140E JUMP JUMPDEST PUSH1 0x2 PUSH1 0x0 CALLER PUSH20 0xFFFFFFFFFFFFFFFFFFFFFFFFFFFFFFFFFFFFFFFF AND PUSH20 0xFFFFFFFFFFFFFFFFFFFFFFFFFFFFFFFFFFFFFFFF AND DUP2 MSTORE PUSH1 0x20 ADD SWAP1 DUP2 MSTORE PUSH1 0x20 ADD PUSH1 0x0 KECCAK256 PUSH1 0x0 DUP3 DUP3 SLOAD PUSH2 0xA4B SWAP2 SWAP1 PUSH2 0x13B8 JUMP JUMPDEST SWAP3 POP POP DUP2 SWAP1 SSTORE POP CALLER PUSH20 0xFFFFFFFFFFFFFFFFFFFFFFFFFFFFFFFFFFFFFFFF AND PUSH1 0x0 PUSH20 0xFFFFFFFFFFFFFFFFFFFFFFFFFFFFFFFFFFFFFFFF AND PUSH32 0xDDF252AD1BE2C89B69C2B068FC378DAA952BA7F163C4A11628F55A4DF523B3EF DUP4 PUSH1 0x40 MLOAD PUSH2 0xAB0 SWAP2 SWAP1 PUSH2 0x1371 JUMP JUMPDEST PUSH1 0x40 MLOAD DUP1 SWAP2 SUB SWAP1 LOG3 POP JUMP JUMPDEST PUSH1 0x0 PUSH1 0x12 SWAP1 POP SWAP1 JUMP JUMPDEST PUSH1 0x0 PUSH1 0x2 PUSH1 0x0 DUP4 PUSH20 0xFFFFFFFFFFFFFFFFFFFFFFFFFFFFFFFFFFFFFFFF AND PUSH20 0xFFFFFFFFFFFFFFFFFFFFFFFFFFFFFFFFFFFFFFFF AND DUP2 MSTORE PUSH1 0x20 ADD SWAP1 DUP2 MSTORE PUSH1 0x20 ADD PUSH1 0x0 KECCAK256 SLOAD SWAP1 POP SWAP2 SWAP1 POP JUMP JUMPDEST PUSH1 0x0 DUP1 PUSH20 0xFFFFFFFFFFFFFFFFFFFFFFFFFFFFFFFFFFFFFFFF AND DUP4 PUSH20 0xFFFFFFFFFFFFFFFFFFFFFFFFFFFFFFFFFFFFFFFF AND EQ ISZERO PUSH2 0xB7E JUMPI PUSH1 0x40 MLOAD PUSH32 0x8C379A000000000000000000000000000000000000000000000000000000000 DUP2 MSTORE PUSH1 0x4 ADD PUSH2 0xB75 SWAP1 PUSH2 0x1251 JUMP JUMPDEST PUSH1 0x40 MLOAD DUP1 SWAP2 SUB SWAP1 REVERT JUMPDEST DUP2 PUSH1 0x2 PUSH1 0x0 CALLER PUSH20 0xFFFFFFFFFFFFFFFFFFFFFFFFFFFFFFFFFFFFFFFF AND PUSH20 0xFFFFFFFFFFFFFFFFFFFFFFFFFFFFFFFFFFFFFFFF AND DUP2 MSTORE PUSH1 0x20 ADD SWAP1 DUP2 MSTORE PUSH1 0x20 ADD PUSH1 0x0 KECCAK256 SLOAD LT ISZERO PUSH2 0xC00 JUMPI PUSH1 0x40 MLOAD PUSH32 0x8C379A000000000000000000000000000000000000000000000000000000000 DUP2 MSTORE PUSH1 0x4 ADD PUSH2 0xBF7 SWAP1 PUSH2 0x12B1 JUMP JUMPDEST PUSH1 0x40 MLOAD DUP1 SWAP2 SUB SWAP1 REVERT JUMPDEST DUP2 PUSH1 0x2 PUSH1 0x0 CALLER PUSH20 0xFFFFFFFFFFFFFFFFFFFFFFFFFFFFFFFFFFFFFFFF AND PUSH20 0xFFFFFFFFFFFFFFFFFFFFFFFFFFFFFFFFFFFFFFFF AND DUP2 MSTORE PUSH1 0x20 ADD SWAP1 DUP2 MSTORE PUSH1 0x20 ADD PUSH1 0x0 KECCAK256 PUSH1 0x0 DUP3 DUP3 SLOAD PUSH2 0xC4F SWAP2 SWAP1 PUSH2 0x15B0 JUMP JUMPDEST SWAP3 POP POP DUP2 SWAP1 SSTORE POP DUP2 PUSH1 0x2 PUSH1 0x0 DUP6 PUSH20 0xFFFFFFFFFFFFFFFFFFFFFFFFFFFFFFFFFFFFFFFF AND PUSH20 0xFFFFFFFFFFFFFFFFFFFFFFFFFFFFFFFFFFFFFFFF AND DUP2 MSTORE PUSH1 0x20 ADD SWAP1 DUP2 MSTORE PUSH1 0x20 ADD PUSH1 0x0 KECCAK256 PUSH1 0x0 DUP3 DUP3 SLOAD PUSH2 0xCA5 SWAP2 SWAP1 PUSH2 0x13B8 JUMP JUMPDEST SWAP3 POP POP DUP2 SWAP1 SSTORE POP DUP3 PUSH20 0xFFFFFFFFFFFFFFFFFFFFFFFFFFFFFFFFFFFFFFFF AND CALLER PUSH20 0xFFFFFFFFFFFFFFFFFFFFFFFFFFFFFFFFFFFFFFFF AND PUSH32 0xDDF252AD1BE2C89B69C2B068FC378DAA952BA7F163C4A11628F55A4DF523B3EF DUP5 PUSH1 0x40 MLOAD PUSH2 0xD09 SWAP2 SWAP1 PUSH2 0x1371 JUMP JUMPDEST PUSH1 0x40 MLOAD DUP1 SWAP2 SUB SWAP1 LOG3 PUSH1 0x1 SWAP1 POP SWAP3 SWAP2 POP POP JUMP JUMPDEST PUSH1 0x0 PUSH1 0x3 PUSH1 0x0 DUP5 PUSH20 0xFFFFFFFFFFFFFFFFFFFFFFFFFFFFFFFFFFFFFFFF AND PUSH20 0xFFFFFFFFFFFFFFFFFFFFFFFFFFFFFFFFFFFFFFFF AND DUP2 MSTORE PUSH1 0x20 ADD SWAP1 DUP2 MSTORE PUSH1 0x20 ADD PUSH1 0x0 KECCAK256 PUSH1 0x0 DUP4 PUSH20 0xFFFFFFFFFFFFFFFFFFFFFFFFFFFFFFFFFFFFFFFF AND PUSH20 0xFFFFFFFFFFFFFFFFFFFFFFFFFFFFFFFFFFFFFFFF AND DUP2 MSTORE PUSH1 0x20 ADD SWAP1 DUP2 MSTORE PUSH1 0x20 ADD PUSH1 0x0 KECCAK256 SLOAD SWAP1 POP SWAP3 SWAP2 POP POP JUMP JUMPDEST PUSH1 0x0 DUP2 CALLDATALOAD SWAP1 POP PUSH2 0xDB1 DUP2 PUSH2 0x16A4 JUMP JUMPDEST SWAP3 SWAP2 POP POP JUMP JUMPDEST PUSH1 0x0 DUP2 CALLDATALOAD SWAP1 POP PUSH2 0xDC6 DUP2 PUSH2 0x16BB JUMP JUMPDEST SWAP3 SWAP2 POP POP JUMP JUMPDEST PUSH1 0x0 PUSH1 0x20 DUP3 DUP5 SUB SLT ISZERO PUSH2 0xDDE JUMPI PUSH1 0x0 DUP1 REVERT JUMPDEST PUSH1 0x0 PUSH2 0xDEC DUP5 DUP3 DUP6 ADD PUSH2 0xDA2 JUMP JUMPDEST SWAP2 POP POP SWAP3 SWAP2 POP POP JUMP JUMPDEST PUSH1 0x0 DUP1 PUSH1 0x40 DUP4 DUP6 SUB SLT ISZERO PUSH2 0xE08 JUMPI PUSH1 0x0 DUP1 REVERT JUMPDEST PUSH1 0x0 PUSH2 0xE16 DUP6 DUP3 DUP7 ADD PUSH2 0xDA2 JUMP JUMPDEST SWAP3 POP POP PUSH1 0x20 PUSH2 0xE27 DUP6 DUP3 DUP7 ADD PUSH2 0xDA2 JUMP JUMPDEST SWAP2 POP POP SWAP3 POP SWAP3 SWAP1 POP JUMP JUMPDEST PUSH1 0x0 DUP1 PUSH1 0x0 PUSH1 0x60 DUP5 DUP7 SUB SLT ISZERO PUSH2 0xE46 JUMPI PUSH1 0x0 DUP1 REVERT JUMPDEST PUSH1 0x0 PUSH2 0xE54 DUP7 DUP3 DUP8 ADD PUSH2 0xDA2 JUMP JUMPDEST SWAP4 POP POP PUSH1 0x20 PUSH2 0xE65 DUP7 DUP3 DUP8 ADD PUSH2 0xDA2 JUMP JUMPDEST SWAP3 POP POP PUSH1 0x40 PUSH2 0xE76 DUP7 DUP3 DUP8 ADD PUSH2 0xDB7 JUMP JUMPDEST SWAP2 POP POP SWAP3 POP SWAP3 POP SWAP3 JUMP JUMPDEST PUSH1 0x0 DUP1 PUSH1 0x40 DUP4 DUP6 SUB SLT ISZERO PUSH2 0xE93 JUMPI PUSH1 0x0 DUP1 REVERT JUMPDEST PUSH1 0x0 PUSH2 0xEA1 DUP6 DUP3 DUP7 ADD PUSH2 0xDA2 JUMP JUMPDEST SWAP3 POP POP PUSH1 0x20 PUSH2 0xEB2 DUP6 DUP3 DUP7 ADD PUSH2 0xDB7 JUMP JUMPDEST SWAP2 POP POP SWAP3 POP SWAP3 SWAP1 POP JUMP JUMPDEST PUSH1 0x0 PUSH1 0x20 DUP3 DUP5 SUB SLT ISZERO PUSH2 0xECE JUMPI PUSH1 0x0 DUP1 REVERT JUMPDEST PUSH1 0x0 PUSH2 0xEDC DUP5 DUP3 DUP6 ADD PUSH2 0xDB7 JUMP JUMPDEST SWAP2 POP POP SWAP3 SWAP2 POP POP JUMP JUMPDEST PUSH2 0xEEE DUP2 PUSH2 0x15F6 JUMP JUMPDEST DUP3 MSTORE POP POP JUMP JUMPDEST PUSH1 0x0 PUSH2 0xF01 PUSH1 0x23 DUP4 PUSH2 0x13A7 JUMP JUMPDEST SWAP2 POP PUSH32 0x45524332303A207472616E7366657220746F20746865207A65726F2061646472 PUSH1 0x0 DUP4 ADD MSTORE PUSH32 0x6573730000000000000000000000000000000000000000000000000000000000 PUSH1 0x20 DUP4 ADD MSTORE PUSH1 0x40 DUP3 ADD SWAP1 POP SWAP2 SWAP1 POP JUMP JUMPDEST PUSH1 0x0 PUSH2 0xF67 PUSH1 0x22 DUP4 PUSH2 0x13A7 JUMP JUMPDEST SWAP2 POP PUSH32 0x45524332303A20617070726F766520746F20746865207A65726F206164647265 PUSH1 0x0 DUP4 ADD MSTORE PUSH32 0x7373000000000000000000000000000000000000000000000000000000000000 PUSH1 0x20 DUP4 ADD MSTORE PUSH1 0x40 DUP3 ADD SWAP1 POP SWAP2 SWAP1 POP JUMP JUMPDEST PUSH1 0x0 PUSH2 0xFCD PUSH1 0x25 DUP4 PUSH2 0x13A7 JUMP JUMPDEST SWAP2 POP PUSH32 0x45524332303A20617070726F766520616D6F756E742065786365656473206261 PUSH1 0x0 DUP4 ADD MSTORE PUSH32 0x6C616E6365000000000000000000000000000000000000000000000000000000 PUSH1 0x20 DUP4 ADD MSTORE PUSH1 0x40 DUP3 ADD SWAP1 POP SWAP2 SWAP1 POP JUMP JUMPDEST PUSH1 0x0 PUSH2 0x1033 PUSH1 0x26 DUP4 PUSH2 0x13A7 JUMP JUMPDEST SWAP2 POP PUSH32 0x45524332303A207472616E7366657220616D6F756E7420657863656564732062 PUSH1 0x0 DUP4 ADD MSTORE PUSH32 0x616C616E63650000000000000000000000000000000000000000000000000000 PUSH1 0x20 DUP4 ADD MSTORE PUSH1 0x40 DUP3 ADD SWAP1 POP SWAP2 SWAP1 POP JUMP JUMPDEST PUSH1 0x0 PUSH2 0x1099 PUSH1 0x28 DUP4 PUSH2 0x13A7 JUMP JUMPDEST SWAP2 POP PUSH32 0x45524332303A207472616E7366657220616D6F756E7420657863656564732061 PUSH1 0x0 DUP4 ADD MSTORE PUSH32 0x6C6C6F77616E6365000000000000000000000000000000000000000000000000 PUSH1 0x20 DUP4 ADD MSTORE PUSH1 0x40 DUP3 ADD SWAP1 POP SWAP2 SWAP1 POP JUMP JUMPDEST PUSH1 0x0 PUSH2 0x10FF PUSH1 0x20 DUP4 PUSH2 0x13A7 JUMP JUMPDEST SWAP2 POP PUSH32 0x4F776E61626C653A2063616C6C6572206973206E6F7420746865206F776E6572 PUSH1 0x0 DUP4 ADD MSTORE PUSH1 0x20 DUP3 ADD SWAP1 POP SWAP2 SWAP1 POP JUMP JUMPDEST PUSH1 0x0 PUSH2 0x113F PUSH1 0x13 DUP4 PUSH2 0x13A7 JUMP JUMPDEST SWAP2 POP PUSH32 0x4D696E74696E672069732064697361626C656400000000000000000000000000 PUSH1 0x0 DUP4 ADD MSTORE PUSH1 0x20 DUP3 ADD SWAP1 POP SWAP2 SWAP1 POP JUMP JUMPDEST PUSH1 0x0 PUSH2 0x117F PUSH1 0x25 DUP4 PUSH2 0x13A7 JUMP JUMPDEST SWAP2 POP PUSH32 0x45524332303A207472616E736665722066726F6D20746865207A65726F206164 PUSH1 0x0 DUP4 ADD MSTORE PUSH32 0x6472657373000000000000000000000000000000000000000000000000000000 PUSH1 0x20 DUP4 ADD MSTORE PUSH1 0x40 DUP3 ADD SWAP1 POP SWAP2 SWAP1 POP JUMP JUMPDEST PUSH1 0x0 PUSH2 0x11E5 PUSH1 0x1F DUP4 PUSH2 0x13A7 JUMP JUMPDEST SWAP2 POP PUSH32 0x45524332303A206D696E7420746F20746865207A65726F206164647265737300 PUSH1 0x0 DUP4 ADD MSTORE PUSH1 0x20 DUP3 ADD SWAP1 POP SWAP2 SWAP1 POP JUMP JUMPDEST PUSH2 0x1221 DUP2 PUSH2 0x1622 JUMP JUMPDEST DUP3 MSTORE POP POP JUMP JUMPDEST PUSH2 0x1230 DUP2 PUSH2 0x162C JUMP JUMPDEST DUP3 MSTORE POP POP JUMP JUMPDEST PUSH1 0x0 PUSH1 0x20 DUP3 ADD SWAP1 POP PUSH2 0x124B PUSH1 0x0 DUP4 ADD DUP5 PUSH2 0xEE5 JUMP JUMPDEST SWAP3 SWAP2 POP POP JUMP JUMPDEST PUSH1 0x0 PUSH1 0x20 DUP3 ADD SWAP1 POP DUP2 DUP2 SUB PUSH1 0x0 DUP4 ADD MSTORE PUSH2 0x126A DUP2 PUSH2 0xEF4 JUMP JUMPDEST SWAP1 POP SWAP2 SWAP1 POP JUMP JUMPDEST PUSH1 0x0 PUSH1 0x20 DUP3 ADD SWAP1 POP DUP2 DUP2 SUB PUSH1 0x0 DUP4 ADD MSTORE PUSH2 0x128A DUP2 PUSH2 0xF5A JUMP JUMPDEST SWAP1 POP SWAP2 SWAP1 POP JUMP JUMPDEST PUSH1 0x0 PUSH1 0x20 DUP3 ADD SWAP1 POP DUP2 DUP2 SUB PUSH1 0x0 DUP4 ADD MSTORE PUSH2 0x12AA DUP2 PUSH2 0xFC0 JUMP JUMPDEST SWAP1 POP SWAP2 SWAP1 POP JUMP JUMPDEST PUSH1 0x0 PUSH1 0x20 DUP3 ADD SWAP1 POP DUP2 DUP2 SUB PUSH1 0x0 DUP4 ADD MSTORE PUSH2 0x12CA DUP2 PUSH2 0x1026 JUMP JUMPDEST SWAP1 POP SWAP2 SWAP1 POP JUMP JUMPDEST PUSH1 0x0 PUSH1 0x20 DUP3 ADD SWAP1 POP DUP2 DUP2 SUB PUSH1 0x0 DUP4 ADD MSTORE PUSH2 0x12EA DUP2 PUSH2 0x108C JUMP JUMPDEST SWAP1 POP SWAP2 SWAP1 POP JUMP JUMPDEST PUSH1 0x0 PUSH1 0x20 DUP3 ADD SWAP1 POP DUP2 DUP2 SUB PUSH1 0x0 DUP4 ADD MSTORE PUSH2 0x130A DUP2 PUSH2 0x10F2 JUMP JUMPDEST SWAP1 POP SWAP2 SWAP1 POP JUMP JUMPDEST PUSH1 0x0 PUSH1 0x20 DUP3 ADD SWAP1 POP DUP2 DUP2 SUB PUSH1 0x0 DUP4 ADD MSTORE PUSH2 0x132A DUP2 PUSH2 0x1132 JUMP JUMPDEST SWAP1 POP SWAP2 SWAP1 POP JUMP JUMPDEST PUSH1 0x0 PUSH1 0x20 DUP3 ADD SWAP1 POP DUP2 DUP2 SUB PUSH1 0x0 DUP4 ADD MSTORE PUSH2 0x134A DUP2 PUSH2 0x1172 JUMP JUMPDEST SWAP1 POP SWAP2 SWAP1 POP JUMP JUMPDEST PUSH1 0x0 PUSH1 0x20 DUP3 ADD SWAP1 POP DUP2 DUP2 SUB PUSH1 0x0 DUP4 ADD MSTORE PUSH2 0x136A DUP2 PUSH2 0x11D8 JUMP JUMPDEST SWAP1 POP SWAP2 SWAP1 POP JUMP JUMPDEST PUSH1 0x0 PUSH1 0x20 DUP3 ADD SWAP1 POP PUSH2 0x1386 PUSH1 0x0 DUP4 ADD DUP5 PUSH2 0x1218 JUMP JUMPDEST SWAP3 SWAP2 POP POP JUMP JUMPDEST PUSH1 0x0 PUSH1 0x20 DUP3 ADD SWAP1 POP PUSH2 0x13A1 PUSH1 0x0 DUP4 ADD DUP5 PUSH2 0x1227 JUMP JUMPDEST SWAP3 SWAP2 POP POP JUMP JUMPDEST PUSH1 0x0 DUP3 DUP3 MSTORE PUSH1 0x20 DUP3 ADD SWAP1 POP SWAP3 SWAP2 POP POP JUMP JUMPDEST PUSH1 0x0 PUSH2 0x13C3 DUP3 PUSH2 0x1622 JUMP JUMPDEST SWAP2 POP PUSH2 0x13CE DUP4 PUSH2 0x1622 JUMP JUMPDEST SWAP3 POP DUP3 PUSH32 0xFFFFFFFFFFFFFFFFFFFFFFFFFFFFFFFFFFFFFFFFFFFFFFFFFFFFFFFFFFFFFFFF SUB DUP3 GT ISZERO PUSH2 0x1403 JUMPI PUSH2 0x1402 PUSH2 0x1639 JUMP JUMPDEST JUMPDEST DUP3 DUP3 ADD SWAP1 POP SWAP3 SWAP2 POP POP JUMP JUMPDEST PUSH1 0x0 PUSH2 0x1419 DUP3 PUSH2 0x1622 JUMP JUMPDEST SWAP2 POP PUSH2 0x1424 DUP4 PUSH2 0x1622 JUMP JUMPDEST SWAP3 POP DUP3 PUSH2 0x1434 JUMPI PUSH2 0x1433 PUSH2 0x1668 JUMP JUMPDEST JUMPDEST DUP3 DUP3 DIV SWAP1 POP SWAP3 SWAP2 POP POP JUMP JUMPDEST PUSH1 0x0 DUP1 DUP3 SWAP2 POP DUP4 SWAP1 POP JUMPDEST PUSH1 0x1 DUP6 GT ISZERO PUSH2 0x1489 JUMPI DUP1 DUP7 DIV DUP2 GT ISZERO PUSH2 0x1465 JUMPI PUSH2 0x1464 PUSH2 0x1639 JUMP JUMPDEST JUMPDEST PUSH1 0x1 DUP6 AND ISZERO PUSH2 0x1474 JUMPI DUP1 DUP3 MUL SWAP2 POP JUMPDEST DUP1 DUP2 MUL SWAP1 POP PUSH2 0x1482 DUP6 PUSH2 0x1697 JUMP JUMPDEST SWAP5 POP PUSH2 0x1449 JUMP JUMPDEST SWAP5 POP SWAP5 SWAP3 POP POP POP JUMP JUMPDEST PUSH1 0x0 PUSH2 0x149D DUP3 PUSH2 0x1622 JUMP JUMPDEST SWAP2 POP PUSH2 0x14A8 DUP4 PUSH2 0x162C JUMP JUMPDEST SWAP3 POP PUSH2 0x14D5 PUSH32 0xFFFFFFFFFFFFFFFFFFFFFFFFFFFFFFFFFFFFFFFFFFFFFFFFFFFFFFFFFFFFFFFF DUP5 DUP5 PUSH2 0x14DD JUMP JUMPDEST SWAP1 POP SWAP3 SWAP2 POP POP JUMP JUMPDEST PUSH1 0x0 DUP3 PUSH2 0x14ED JUMPI PUSH1 0x1 SWAP1 POP PUSH2 0x15A9 JUMP JUMPDEST DUP2 PUSH2 0x14FB JUMPI PUSH1 0x0 SWAP1 POP PUSH2 0x15A9 JUMP JUMPDEST DUP2 PUSH1 0x1 DUP2 EQ PUSH2 0x1511 JUMPI PUSH1 0x2 DUP2 EQ PUSH2 0x151B JUMPI PUSH2 0x154A JUMP JUMPDEST PUSH1 0x1 SWAP2 POP POP PUSH2 0x15A9 JUMP JUMPDEST PUSH1 0xFF DUP5 GT ISZERO PUSH2 0x152D JUMPI PUSH2 0x152C PUSH2 0x1639 JUMP JUMPDEST JUMPDEST DUP4 PUSH1 0x2 EXP SWAP2 POP DUP5 DUP3 GT ISZERO PUSH2 0x1544 JUMPI PUSH2 0x1543 PUSH2 0x1639 JUMP JUMPDEST JUMPDEST POP PUSH2 0x15A9 JUMP JUMPDEST POP PUSH1 0x20 DUP4 LT PUSH2 0x133 DUP4 LT AND PUSH1 0x4E DUP5 LT PUSH1 0xB DUP5 LT AND OR ISZERO PUSH2 0x157F JUMPI DUP3 DUP3 EXP SWAP1 POP DUP4 DUP2 GT ISZERO PUSH2 0x157A JUMPI PUSH2 0x1579 PUSH2 0x1639 JUMP JUMPDEST JUMPDEST PUSH2 0x15A9 JUMP JUMPDEST PUSH2 0x158C DUP5 DUP5 DUP5 PUSH1 0x1 PUSH2 0x143F JUMP JUMPDEST SWAP3 POP SWAP1 POP DUP2 DUP5 DIV DUP2 GT ISZERO PUSH2 0x15A3 JUMPI PUSH2 0x15A2 PUSH2 0x1639 JUMP JUMPDEST JUMPDEST DUP2 DUP2 MUL SWAP1 POP JUMPDEST SWAP4 SWAP3 POP POP POP JUMP JUMPDEST PUSH1 0x0 PUSH2 0x15BB DUP3 PUSH2 0x1622 JUMP JUMPDEST SWAP2 POP PUSH2 0x15C6 DUP4 PUSH2 0x1622 JUMP JUMPDEST SWAP3 POP DUP3 DUP3 LT ISZERO PUSH2 0x15D9 JUMPI PUSH2 0x15D8 PUSH2 0x1639 JUMP JUMPDEST JUMPDEST DUP3 DUP3 SUB SWAP1 POP SWAP3 SWAP2 POP POP JUMP JUMPDEST PUSH1 0x0 PUSH2 0x15EF DUP3 PUSH2 0x1602 JUMP JUMPDEST SWAP1 POP SWAP2 SWAP1 POP JUMP JUMPDEST PUSH1 0x0 DUP2 ISZERO ISZERO SWAP1 POP SWAP2 SWAP1 POP JUMP JUMPDEST PUSH1 0x0 PUSH20 0xFFFFFFFFFFFFFFFFFFFFFFFFFFFFFFFFFFFFFFFF DUP3 AND SWAP1 POP SWAP2 SWAP1 POP JUMP JUMPDEST PUSH1 0x0 DUP2 SWAP1 POP SWAP2 SWAP1 POP JUMP JUMPDEST PUSH1 0x0 PUSH1 0xFF DUP3 AND SWAP1 POP SWAP2 SWAP1 POP JUMP JUMPDEST PUSH32 0x4E487B7100000000000000000000000000000000000000000000000000000000 PUSH1 0x0 MSTORE PUSH1 0x11 PUSH1 0x4 MSTORE PUSH1 0x24 PUSH1 0x0 REVERT JUMPDEST PUSH32 0x4E487B7100000000000000000000000000000000000000000000000000000000 PUSH1 0x0 MSTORE PUSH1 0x12 PUSH1 0x4 MSTORE PUSH1 0x24 PUSH1 0x0 REVERT JUMPDEST PUSH1 0x0 DUP2 PUSH1 0x1 SHR SWAP1 POP SWAP2 SWAP1 POP JUMP JUMPDEST PUSH2 0x16AD DUP2 PUSH2 0x15E4 JUMP JUMPDEST DUP2 EQ PUSH2 0x16B8 JUMPI PUSH1 0x0 DUP1 REVERT JUMPDEST POP JUMP JUMPDEST PUSH2 0x16C4 DUP2 PUSH2 0x1622 JUMP JUMPDEST DUP2 EQ PUSH2 0x16CF JUMPI PUSH1 0x0 DUP1 REVERT JUMPDEST POP JUMP INVALID LOG2 PUSH5 0x6970667358 0x22 SLT KECCAK256 0x27 0xD4 SWAP11 0xD6 INVALID 0xA9 0xB1 0x48 PUSH19 0x598C774D1BA2F3FEB281EEB199AEB2F9A3F3F8 0xA6 0xE 0x4B DUP14 PUSH5 0x736F6C6343 STOP ADDMOD STOP STOP CALLER "
				},
				"gasEstimates": {
					"creation": {
						"codeDepositCost": "1179200",
						"executionCost": "47966",
						"totalCost": "1227166"
					},
					"external": {
						"_disable_mint()": "21901",
						"_mint(uint256)": "infinite",
						"allowance(address,address)": "infinite",
						"approve(address,uint256)": "infinite",
						"balanceOf(address)": "1585",
						"decimals()": "365",
						"totalSupply()": "1182",
						"transfer(address,uint256)": "infinite",
						"transferFrom(address,address,uint256)": "infinite"
					}
				},
				"methodIdentifiers": {
					"_disable_mint()": "13b4159c",
					"_mint(uint256)": "2c526196",
					"allowance(address,address)": "dd62ed3e",
					"approve(address,uint256)": "095ea7b3",
					"balanceOf(address)": "70a08231",
					"decimals()": "313ce567",
					"totalSupply()": "18160ddd",
					"transfer(address,uint256)": "a9059cbb",
					"transferFrom(address,address,uint256)": "23b872dd"
				}
			},
			"storageLayout": {
				"storage": [
					{
						"astId": 730,
						"contract": "contracts/token.sol:HUSTToken",
						"label": "_owner",
						"offset": 0,
						"slot": "0",
						"type": "t_address"
					},
					{
						"astId": 17,
						"contract": "contracts/token.sol:HUSTToken",
						"label": "_totalSupply",
						"offset": 0,
						"slot": "1",
						"type": "t_uint256"
					},
					{
						"astId": 21,
						"contract": "contracts/token.sol:HUSTToken",
						"label": "_balances",
						"offset": 0,
						"slot": "2",
						"type": "t_mapping(t_address,t_uint256)"
					},
					{
						"astId": 27,
						"contract": "contracts/token.sol:HUSTToken",
						"label": "_allowances",
						"offset": 0,
						"slot": "3",
						"type": "t_mapping(t_address,t_mapping(t_address,t_uint256))"
					},
					{
						"astId": 30,
						"contract": "contracts/token.sol:HUSTToken",
						"label": "minting_disabled",
						"offset": 0,
						"slot": "4",
						"type": "t_bool"
					}
				],
				"types": {
					"t_address": {
						"encoding": "inplace",
						"label": "address",
						"numberOfBytes": "20"
					},
					"t_bool": {
						"encoding": "inplace",
						"label": "bool",
						"numberOfBytes": "1"
					},
					"t_mapping(t_address,t_mapping(t_address,t_uint256))": {
						"encoding": "mapping",
						"key": "t_address",
						"label": "mapping(address => mapping(address => uint256))",
						"numberOfBytes": "32",
						"value": "t_mapping(t_address,t_uint256)"
					},
					"t_mapping(t_address,t_uint256)": {
						"encoding": "mapping",
						"key": "t_address",
						"label": "mapping(address => uint256)",
						"numberOfBytes": "32",
						"value": "t_uint256"
					},
					"t_uint256": {
						"encoding": "inplace",
						"label": "uint256",
						"numberOfBytes": "32"
					}
				}
			},
			"userdoc": {
				"kind": "user",
				"methods": {
					"_disable_mint()": {
						"notice": "Disables the ability to mint tokens in the future. Requirements:  - only the owner of this contract can disable minting  - once you disable minting, you should never be able to mint ever again. never.  - you can change the inputs or the scope of your function, as needed"
					},
					"_mint(uint256)": {
						"notice": "Creates `amount` tokens, increasing the total supply. Emits a {Transfer} event with `from` set to the zero address (the \"Black Hole\"). Requirements:  - only the owner of this contract can mint new tokens  - the account who recieves the minted tokens cannot be the zero address  - you can change the inputs or the scope of your function, as needed"
					},
					"allowance(address,address)": {
						"notice": "Returns the remaining number of tokens that `spender` will be allowed to spend on behalf of `owner` through {transferFrom}.  This is zero by default.  This value changes when {approve} or {transferFrom} are called.  NOTE: This is a required override by OpenZeppelin's ERC20 contract.  Requirements:  - there are no requirements for this function  - you can change the inputs or the scope of your function, as needed"
					},
					"approve(address,uint256)": {
						"notice": "Sets `amount` as the allowance of `spender` over the caller's tokens.  Emits an {Approval} event.  NOTE: This is a required override by OpenZeppelin's ERC20 contract.  Requirements:  - `spender` cannot be the zero address  - the caller must have a balance of at least `amount`  - you can change the inputs or the scope of your function, as needed"
					},
					"balanceOf(address)": {
						"notice": "Returns the account balance of another account with address `owner`.  NOTE: This is a required override by OpenZeppelin's ERC20 contract.  Requirements:  - there are no requirements for this function  - you can change the inputs or the scope of your function, as needed"
					},
					"totalSupply()": {
						"notice": "Returns the total supply of the token.  NOTE: This is a required override by OpenZeppelin's ERC20 contract.  Requirements:  - there are no requirements for this function  - you can change the inputs or the scope of your function, as needed"
					},
					"transfer(address,uint256)": {
						"notice": "Transfers `amount` tokens from the caller's account to `recipient`.  NOTE: This is a required override by OpenZeppelin's ERC20 contract.  Emits a {Transfer} event.  Requirements:  - `recipient` cannot be the zero address  - the caller must have a balance of at least `amount`  - you can change the inputs or the scope of your function, as needed"
					},
					"transferFrom(address,address,uint256)": {
						"notice": "Moves `amount` tokens from `sender` to `recipient` using the allowance mechanism.  `amount` is then deducted from the caller's allowance.  Emits a {Transfer} event.  Requirements:  - `sender` and `recipient` cannot be the zero address  - `sender` must have a balance of at least `amount`  - the caller must have allowance for `sender`'s tokens of at least `amount`  - you can change the inputs or the scope of your function, as needed"
					}
				},
				"version": 1
			}
		}
	}
}