{
	"libraries/erc20.sol": {
		"ERC20": {
			"abi": [
				{
					"inputs": [
						{
							"internalType": "string",
							"name": "name_",
							"type": "string"
						},
						{
							"internalType": "string",
							"name": "symbol_",
							"type": "string"
						}
					],
					"stateMutability": "nonpayable",
					"type": "constructor"
				},
				{
					"anonymous": false,
					"inputs": [
						{
							"indexed": true,
							"internalType": "address",
							"name": "owner",
							"type": "address"
						},
						{
							"indexed": true,
							"internalType": "address",
							"name": "spender",
							"type": "address"
						},
						{
							"indexed": false,
							"internalType": "uint256",
							"name": "value",
							"type": "uint256"
						}
					],
					"name": "Approval",
					"type": "event"
				},
				{
					"anonymous": false,
					"inputs": [
						{
							"indexed": true,
							"internalType": "address",
							"name": "from",
							"type": "address"
						},
						{
							"indexed": true,
							"internalType": "address",
							"name": "to",
							"type": "address"
						},
						{
							"indexed": false,
							"internalType": "uint256",
							"name": "value",
							"type": "uint256"
						}
					],
					"name": "Transfer",
					"type": "event"
				},
				{
					"inputs": [
						{
							"internalType": "address",
							"name": "owner",
							"type": "address"
						},
						{
							"internalType": "address",
							"name": "spender",
							"type": "address"
						}
					],
					"name": "allowance",
					"outputs": [
						{
							"internalType": "uint256",
							"name": "",
							"type": "uint256"
						}
					],
					"stateMutability": "view",
					"type": "function"
				},
				{
					"inputs": [
						{
							"internalType": "address",
							"name": "spender",
							"type": "address"
						},
						{
							"internalType": "uint256",
							"name": "amount",
							"type": "uint256"
						}
					],
					"name": "approve",
					"outputs": [
						{
							"internalType": "bool",
							"name": "",
							"type": "bool"
						}
					],
					"stateMutability": "nonpayable",
					"type": "function"
				},
				{
					"inputs": [
						{
							"internalType": "address",
							"name": "account",
							"type": "address"
						}
					],
					"name": "balanceOf",
					"outputs": [
						{
							"internalType": "uint256",
							"name": "",
							"type": "uint256"
						}
					],
					"stateMutability": "view",
					"type": "function"
				},
				{
					"inputs": [],
					"name": "decimals",
					"outputs": [
						{
							"internalType": "uint8",
							"name": "",
							"type": "uint8"
						}
					],
					"stateMutability": "view",
					"type": "function"
				},
				{
					"inputs": [],
					"name": "getName",
					"outputs": [
						{
							"internalType": "string",
							"name": "",
							"type": "string"
						}
					],
					"stateMutability": "view",
					"type": "function"
				},
				{
					"inputs": [],
					"name": "getSymbol",
					"outputs": [
						{
							"internalType": "string",
							"name": "",
							"type": "string"
						}
					],
					"stateMutability": "view",
					"type": "function"
				},
				{
					"inputs": [],
					"name": "totalSupply",
					"outputs": [
						{
							"internalType": "uint256",
							"name": "",
							"type": "uint256"
						}
					],
					"stateMutability": "view",
					"type": "function"
				},
				{
					"inputs": [
						{
							"internalType": "address",
							"name": "recipient",
							"type": "address"
						},
						{
							"internalType": "uint256",
							"name": "amount",
							"type": "uint256"
						}
					],
					"name": "transfer",
					"outputs": [
						{
							"internalType": "bool",
							"name": "",
							"type": "bool"
						}
					],
					"stateMutability": "nonpayable",
					"type": "function"
				},
				{
					"inputs": [
						{
							"internalType": "address",
							"name": "sender",
							"type": "address"
						},
						{
							"internalType": "address",
							"name": "recipient",
							"type": "address"
						},
						{
							"internalType": "uint256",
							"name": "amount",
							"type": "uint256"
						}
					],
					"name": "transferFrom",
					"outputs": [
						{
							"internalType": "bool",
							"name": "",
							"type": "bool"
						}
					],
					"stateMutability": "nonpayable",
					"type": "function"
				}
			],
			"devdoc": {
				"kind": "dev",
				"methods": {},
				"version": 1
			},
			"evm": {
				"assembly": "    /* \"libraries/erc20.sol\":1293:6998  contract ERC20 is IERC20 {... */\n  mstore(0x40, 0x80)\n    /* \"libraries/erc20.sol\":1837:1950  constructor(string memory name_, string memory symbol_) {... */\n  callvalue\n  dup1\n  iszero\n  tag_1\n  jumpi\n  0x00\n  dup1\n  revert\ntag_1:\n  pop\n  mload(0x40)\n  sub(codesize, bytecodeSize)\n  dup1\n  bytecodeSize\n  dup4\n  codecopy\n  dup2\n  dup2\n  add\n  0x40\n  mstore\n  dup2\n  add\n  swap1\n  tag_2\n  swap2\n  swap1\n  tag_3\n  jump\t// in\ntag_2:\n    /* \"libraries/erc20.sol\":1911:1916  name_ */\n  dup2\n    /* \"libraries/erc20.sol\":1903:1908  _name */\n  0x03\n    /* \"libraries/erc20.sol\":1903:1916  _name = name_ */\n  swap1\n  dup1\n  mload\n  swap1\n  0x20\n  add\n  swap1\n  tag_6\n  swap3\n  swap2\n  swap1\n  tag_7\n  jump\t// in\ntag_6:\n  pop\n    /* \"libraries/erc20.sol\":1936:1943  symbol_ */\n  dup1\n    /* \"libraries/erc20.sol\":1926:1933  _symbol */\n  0x04\n    /* \"libraries/erc20.sol\":1926:1943  _symbol = symbol_ */\n  swap1\n  dup1\n  mload\n  swap1\n  0x20\n  add\n  swap1\n  tag_8\n  swap3\n  swap2\n  swap1\n  tag_7\n  jump\t// in\ntag_8:\n  pop\n    /* \"libraries/erc20.sol\":1837:1950  constructor(string memory name_, string memory symbol_) {... */\n  pop\n  pop\n    /* \"libraries/erc20.sol\":1293:6998  contract ERC20 is IERC20 {... */\n  jump(tag_9)\ntag_7:\n  dup3\n  dup1\n  sload\n  tag_10\n  swap1\n  tag_11\n  jump\t// in\ntag_10:\n  swap1\n  0x00\n  mstore\n  keccak256(0x00, 0x20)\n  swap1\n  0x1f\n  add\n  0x20\n  swap1\n  div\n  dup2\n  add\n  swap3\n  dup3\n  tag_13\n  jumpi\n  0x00\n  dup6\n  sstore\n  jump(tag_12)\ntag_13:\n  dup3\n  0x1f\n  lt\n  tag_14\n  jumpi\n  dup1\n  mload\n  not(0xff)\n  and\n  dup4\n  dup1\n  add\n  or\n  dup6\n  sstore\n  jump(tag_12)\ntag_14:\n  dup3\n  dup1\n  add\n  0x01\n  add\n  dup6\n  sstore\n  dup3\n  iszero\n  tag_12\n  jumpi\n  swap2\n  dup3\n  add\ntag_15:\n  dup3\n  dup2\n  gt\n  iszero\n  tag_16\n  jumpi\n  dup3\n  mload\n  dup3\n  sstore\n  swap2\n  0x20\n  add\n  swap2\n  swap1\n  0x01\n  add\n  swap1\n  jump(tag_15)\ntag_16:\ntag_12:\n  pop\n  swap1\n  pop\n  tag_17\n  swap2\n  swap1\n  tag_18\n  jump\t// in\ntag_17:\n  pop\n  swap1\n  jump\t// out\ntag_18:\ntag_19:\n  dup1\n  dup3\n  gt\n  iszero\n  tag_20\n  jumpi\n  0x00\n  dup2\n  0x00\n  swap1\n  sstore\n  pop\n  0x01\n  add\n  jump(tag_19)\ntag_20:\n  pop\n  swap1\n  jump\t// out\n    /* \"#utility.yul\":7:360   */\ntag_22:\n  0x00\n    /* \"#utility.yul\":121:186   */\n  tag_24\n    /* \"#utility.yul\":136:185   */\n  tag_25\n    /* \"#utility.yul\":178:184   */\n  dup5\n    /* \"#utility.yul\":136:185   */\n  tag_26\n  jump\t// in\ntag_25:\n    /* \"#utility.yul\":121:186   */\n  tag_27\n  jump\t// in\ntag_24:\n    /* \"#utility.yul\":112:186   */\n  swap1\n  pop\n    /* \"#utility.yul\":209:215   */\n  dup3\n    /* \"#utility.yul\":202:207   */\n  dup2\n    /* \"#utility.yul\":195:216   */\n  mstore\n    /* \"#utility.yul\":247:251   */\n  0x20\n    /* \"#utility.yul\":240:245   */\n  dup2\n    /* \"#utility.yul\":236:252   */\n  add\n    /* \"#utility.yul\":285:288   */\n  dup5\n    /* \"#utility.yul\":276:282   */\n  dup5\n    /* \"#utility.yul\":271:274   */\n  dup5\n    /* \"#utility.yul\":267:283   */\n  add\n    /* \"#utility.yul\":264:289   */\n  gt\n    /* \"#utility.yul\":261:263   */\n  iszero\n  tag_28\n  jumpi\n    /* \"#utility.yul\":302:303   */\n  0x00\n    /* \"#utility.yul\":299:300   */\n  dup1\n    /* \"#utility.yul\":292:304   */\n  revert\n    /* \"#utility.yul\":261:263   */\ntag_28:\n    /* \"#utility.yul\":315:354   */\n  tag_29\n    /* \"#utility.yul\":347:353   */\n  dup5\n    /* \"#utility.yul\":342:345   */\n  dup3\n    /* \"#utility.yul\":337:340   */\n  dup6\n    /* \"#utility.yul\":315:354   */\n  tag_30\n  jump\t// in\ntag_29:\n    /* \"#utility.yul\":102:360   */\n  pop\n  swap4\n  swap3\n  pop\n  pop\n  pop\n  jump\t// out\n    /* \"#utility.yul\":380:668   */\ntag_31:\n  0x00\n    /* \"#utility.yul\":496:499   */\n  dup3\n    /* \"#utility.yul\":489:493   */\n  0x1f\n    /* \"#utility.yul\":481:487   */\n  dup4\n    /* \"#utility.yul\":477:494   */\n  add\n    /* \"#utility.yul\":473:500   */\n  slt\n    /* \"#utility.yul\":463:465   */\n  tag_33\n  jumpi\n    /* \"#utility.yul\":514:515   */\n  0x00\n    /* \"#utility.yul\":511:512   */\n  dup1\n    /* \"#utility.yul\":504:516   */\n  revert\n    /* \"#utility.yul\":463:465   */\ntag_33:\n    /* \"#utility.yul\":547:553   */\n  dup2\n    /* \"#utility.yul\":541:554   */\n  mload\n    /* \"#utility.yul\":572:662   */\n  tag_34\n    /* \"#utility.yul\":658:661   */\n  dup5\n    /* \"#utility.yul\":650:656   */\n  dup3\n    /* \"#utility.yul\":643:647   */\n  0x20\n    /* \"#utility.yul\":635:641   */\n  dup7\n    /* \"#utility.yul\":631:648   */\n  add\n    /* \"#utility.yul\":572:662   */\n  tag_22\n  jump\t// in\ntag_34:\n    /* \"#utility.yul\":563:662   */\n  swap2\n  pop\n    /* \"#utility.yul\":453:668   */\n  pop\n  swap3\n  swap2\n  pop\n  pop\n  jump\t// out\n    /* \"#utility.yul\":674:1326   */\ntag_3:\n  0x00\n  dup1\n    /* \"#utility.yul\":830:832   */\n  0x40\n    /* \"#utility.yul\":818:827   */\n  dup4\n    /* \"#utility.yul\":809:816   */\n  dup6\n    /* \"#utility.yul\":805:828   */\n  sub\n    /* \"#utility.yul\":801:833   */\n  slt\n    /* \"#utility.yul\":798:800   */\n  iszero\n  tag_36\n  jumpi\n    /* \"#utility.yul\":846:847   */\n  0x00\n    /* \"#utility.yul\":843:844   */\n  dup1\n    /* \"#utility.yul\":836:848   */\n  revert\n    /* \"#utility.yul\":798:800   */\ntag_36:\n    /* \"#utility.yul\":910:911   */\n  0x00\n    /* \"#utility.yul\":899:908   */\n  dup4\n    /* \"#utility.yul\":895:912   */\n  add\n    /* \"#utility.yul\":889:913   */\n  mload\n    /* \"#utility.yul\":940:958   */\n  0xffffffffffffffff\n    /* \"#utility.yul\":932:938   */\n  dup2\n    /* \"#utility.yul\":929:959   */\n  gt\n    /* \"#utility.yul\":926:928   */\n  iszero\n  tag_37\n  jumpi\n    /* \"#utility.yul\":972:973   */\n  0x00\n    /* \"#utility.yul\":969:970   */\n  dup1\n    /* \"#utility.yul\":962:974   */\n  revert\n    /* \"#utility.yul\":926:928   */\ntag_37:\n    /* \"#utility.yul\":1000:1074   */\n  tag_38\n    /* \"#utility.yul\":1066:1073   */\n  dup6\n    /* \"#utility.yul\":1057:1063   */\n  dup3\n    /* \"#utility.yul\":1046:1055   */\n  dup7\n    /* \"#utility.yul\":1042:1064   */\n  add\n    /* \"#utility.yul\":1000:1074   */\n  tag_31\n  jump\t// in\ntag_38:\n    /* \"#utility.yul\":990:1074   */\n  swap3\n  pop\n    /* \"#utility.yul\":860:1084   */\n  pop\n    /* \"#utility.yul\":1144:1146   */\n  0x20\n    /* \"#utility.yul\":1133:1142   */\n  dup4\n    /* \"#utility.yul\":1129:1147   */\n  add\n    /* \"#utility.yul\":1123:1148   */\n  mload\n    /* \"#utility.yul\":1175:1193   */\n  0xffffffffffffffff\n    /* \"#utility.yul\":1167:1173   */\n  dup2\n    /* \"#utility.yul\":1164:1194   */\n  gt\n    /* \"#utility.yul\":1161:1163   */\n  iszero\n  tag_39\n  jumpi\n    /* \"#utility.yul\":1207:1208   */\n  0x00\n    /* \"#utility.yul\":1204:1205   */\n  dup1\n    /* \"#utility.yul\":1197:1209   */\n  revert\n    /* \"#utility.yul\":1161:1163   */\ntag_39:\n    /* \"#utility.yul\":1235:1309   */\n  tag_40\n    /* \"#utility.yul\":1301:1308   */\n  dup6\n    /* \"#utility.yul\":1292:1298   */\n  dup3\n    /* \"#utility.yul\":1281:1290   */\n  dup7\n    /* \"#utility.yul\":1277:1299   */\n  add\n    /* \"#utility.yul\":1235:1309   */\n  tag_31\n  jump\t// in\ntag_40:\n    /* \"#utility.yul\":1225:1309   */\n  swap2\n  pop\n    /* \"#utility.yul\":1094:1319   */\n  pop\n    /* \"#utility.yul\":788:1326   */\n  swap3\n  pop\n  swap3\n  swap1\n  pop\n  jump\t// out\n    /* \"#utility.yul\":1332:1615   */\ntag_27:\n  0x00\n    /* \"#utility.yul\":1398:1400   */\n  0x40\n    /* \"#utility.yul\":1392:1401   */\n  mload\n    /* \"#utility.yul\":1382:1401   */\n  swap1\n  pop\n    /* \"#utility.yul\":1440:1444   */\n  dup2\n    /* \"#utility.yul\":1432:1438   */\n  dup2\n    /* \"#utility.yul\":1428:1445   */\n  add\n    /* \"#utility.yul\":1547:1553   */\n  dup2\n    /* \"#utility.yul\":1535:1545   */\n  dup2\n    /* \"#utility.yul\":1532:1554   */\n  lt\n    /* \"#utility.yul\":1511:1529   */\n  0xffffffffffffffff\n    /* \"#utility.yul\":1499:1509   */\n  dup3\n    /* \"#utility.yul\":1496:1530   */\n  gt\n    /* \"#utility.yul\":1493:1555   */\n  or\n    /* \"#utility.yul\":1490:1492   */\n  iszero\n  tag_42\n  jumpi\n    /* \"#utility.yul\":1558:1576   */\n  tag_43\n  tag_44\n  jump\t// in\ntag_43:\n    /* \"#utility.yul\":1490:1492   */\ntag_42:\n    /* \"#utility.yul\":1598:1608   */\n  dup1\n    /* \"#utility.yul\":1594:1596   */\n  0x40\n    /* \"#utility.yul\":1587:1609   */\n  mstore\n    /* \"#utility.yul\":1372:1615   */\n  pop\n  swap2\n  swap1\n  pop\n  jump\t// out\n    /* \"#utility.yul\":1621:1953   */\ntag_26:\n  0x00\n    /* \"#utility.yul\":1773:1791   */\n  0xffffffffffffffff\n    /* \"#utility.yul\":1765:1771   */\n  dup3\n    /* \"#utility.yul\":1762:1792   */\n  gt\n    /* \"#utility.yul\":1759:1761   */\n  iszero\n  tag_46\n  jumpi\n    /* \"#utility.yul\":1795:1813   */\n  tag_47\n  tag_44\n  jump\t// in\ntag_47:\n    /* \"#utility.yul\":1759:1761   */\ntag_46:\n    /* \"#utility.yul\":1880:1884   */\n  0x1f\n    /* \"#utility.yul\":1876:1885   */\n  not\n    /* \"#utility.yul\":1869:1873   */\n  0x1f\n    /* \"#utility.yul\":1861:1867   */\n  dup4\n    /* \"#utility.yul\":1857:1874   */\n  add\n    /* \"#utility.yul\":1853:1886   */\n  and\n    /* \"#utility.yul\":1845:1886   */\n  swap1\n  pop\n    /* \"#utility.yul\":1941:1945   */\n  0x20\n    /* \"#utility.yul\":1935:1939   */\n  dup2\n    /* \"#utility.yul\":1931:1946   */\n  add\n    /* \"#utility.yul\":1923:1946   */\n  swap1\n  pop\n    /* \"#utility.yul\":1688:1953   */\n  swap2\n  swap1\n  pop\n  jump\t// out\n    /* \"#utility.yul\":1959:2266   */\ntag_30:\n    /* \"#utility.yul\":2027:2028   */\n  0x00\n    /* \"#utility.yul\":2037:2150   */\ntag_49:\n    /* \"#utility.yul\":2051:2057   */\n  dup4\n    /* \"#utility.yul\":2048:2049   */\n  dup2\n    /* \"#utility.yul\":2045:2058   */\n  lt\n    /* \"#utility.yul\":2037:2150   */\n  iszero\n  tag_51\n  jumpi\n    /* \"#utility.yul\":2136:2137   */\n  dup1\n    /* \"#utility.yul\":2131:2134   */\n  dup3\n    /* \"#utility.yul\":2127:2138   */\n  add\n    /* \"#utility.yul\":2121:2139   */\n  mload\n    /* \"#utility.yul\":2117:2118   */\n  dup2\n    /* \"#utility.yul\":2112:2115   */\n  dup5\n    /* \"#utility.yul\":2108:2119   */\n  add\n    /* \"#utility.yul\":2101:2140   */\n  mstore\n    /* \"#utility.yul\":2073:2075   */\n  0x20\n    /* \"#utility.yul\":2070:2071   */\n  dup2\n    /* \"#utility.yul\":2066:2076   */\n  add\n    /* \"#utility.yul\":2061:2076   */\n  swap1\n  pop\n    /* \"#utility.yul\":2037:2150   */\n  jump(tag_49)\ntag_51:\n    /* \"#utility.yul\":2168:2174   */\n  dup4\n    /* \"#utility.yul\":2165:2166   */\n  dup2\n    /* \"#utility.yul\":2162:2175   */\n  gt\n    /* \"#utility.yul\":2159:2161   */\n  iszero\n  tag_52\n  jumpi\n    /* \"#utility.yul\":2248:2249   */\n  0x00\n    /* \"#utility.yul\":2239:2245   */\n  dup5\n    /* \"#utility.yul\":2234:2237   */\n  dup5\n    /* \"#utility.yul\":2230:2246   */\n  add\n    /* \"#utility.yul\":2223:2250   */\n  mstore\n    /* \"#utility.yul\":2159:2161   */\ntag_52:\n    /* \"#utility.yul\":2008:2266   */\n  pop\n  pop\n  pop\n  pop\n  jump\t// out\n    /* \"#utility.yul\":2272:2592   */\ntag_11:\n  0x00\n    /* \"#utility.yul\":2353:2354   */\n  0x02\n    /* \"#utility.yul\":2347:2351   */\n  dup3\n    /* \"#utility.yul\":2343:2355   */\n  div\n    /* \"#utility.yul\":2333:2355   */\n  swap1\n  pop\n    /* \"#utility.yul\":2400:2401   */\n  0x01\n    /* \"#utility.yul\":2394:2398   */\n  dup3\n    /* \"#utility.yul\":2390:2402   */\n  and\n    /* \"#utility.yul\":2421:2439   */\n  dup1\n    /* \"#utility.yul\":2411:2413   */\n  tag_54\n  jumpi\n    /* \"#utility.yul\":2477:2481   */\n  0x7f\n    /* \"#utility.yul\":2469:2475   */\n  dup3\n    /* \"#utility.yul\":2465:2482   */\n  and\n    /* \"#utility.yul\":2455:2482   */\n  swap2\n  pop\n    /* \"#utility.yul\":2411:2413   */\ntag_54:\n    /* \"#utility.yul\":2539:2541   */\n  0x20\n    /* \"#utility.yul\":2531:2537   */\n  dup3\n    /* \"#utility.yul\":2528:2542   */\n  lt\n    /* \"#utility.yul\":2508:2526   */\n  dup2\n    /* \"#utility.yul\":2505:2543   */\n  eq\n    /* \"#utility.yul\":2502:2504   */\n  iszero\n  tag_55\n  jumpi\n    /* \"#utility.yul\":2558:2576   */\n  tag_56\n  tag_57\n  jump\t// in\ntag_56:\n    /* \"#utility.yul\":2502:2504   */\ntag_55:\n    /* \"#utility.yul\":2323:2592   */\n  pop\n  swap2\n  swap1\n  pop\n  jump\t// out\n    /* \"#utility.yul\":2598:2778   */\ntag_57:\n    /* \"#utility.yul\":2646:2723   */\n  0x4e487b7100000000000000000000000000000000000000000000000000000000\n    /* \"#utility.yul\":2643:2644   */\n  0x00\n    /* \"#utility.yul\":2636:2724   */\n  mstore\n    /* \"#utility.yul\":2743:2747   */\n  0x22\n    /* \"#utility.yul\":2740:2741   */\n  0x04\n    /* \"#utility.yul\":2733:2748   */\n  mstore\n    /* \"#utility.yul\":2767:2771   */\n  0x24\n    /* \"#utility.yul\":2764:2765   */\n  0x00\n    /* \"#utility.yul\":2757:2772   */\n  revert\n    /* \"#utility.yul\":2784:2964   */\ntag_44:\n    /* \"#utility.yul\":2832:2909   */\n  0x4e487b7100000000000000000000000000000000000000000000000000000000\n    /* \"#utility.yul\":2829:2830   */\n  0x00\n    /* \"#utility.yul\":2822:2910   */\n  mstore\n    /* \"#utility.yul\":2929:2933   */\n  0x41\n    /* \"#utility.yul\":2926:2927   */\n  0x04\n    /* \"#utility.yul\":2919:2934   */\n  mstore\n    /* \"#utility.yul\":2953:2957   */\n  0x24\n    /* \"#utility.yul\":2950:2951   */\n  0x00\n    /* \"#utility.yul\":2943:2958   */\n  revert\n    /* \"libraries/erc20.sol\":1293:6998  contract ERC20 is IERC20 {... */\ntag_9:\n  dataSize(sub_0)\n  dup1\n  dataOffset(sub_0)\n  0x00\n  codecopy\n  0x00\n  return\nstop\n\nsub_0: assembly {\n        /* \"libraries/erc20.sol\":1293:6998  contract ERC20 is IERC20 {... */\n      mstore(0x40, 0x80)\n      callvalue\n      dup1\n      iszero\n      tag_1\n      jumpi\n      0x00\n      dup1\n      revert\n    tag_1:\n      pop\n      jumpi(tag_2, lt(calldatasize, 0x04))\n      shr(0xe0, calldataload(0x00))\n      dup1\n      0x23b872dd\n      gt\n      tag_12\n      jumpi\n      dup1\n      0x23b872dd\n      eq\n      tag_7\n      jumpi\n      dup1\n      0x313ce567\n      eq\n      tag_8\n      jumpi\n      dup1\n      0x70a08231\n      eq\n      tag_9\n      jumpi\n      dup1\n      0xa9059cbb\n      eq\n      tag_10\n      jumpi\n      dup1\n      0xdd62ed3e\n      eq\n      tag_11\n      jumpi\n      jump(tag_2)\n    tag_12:\n      dup1\n      0x095ea7b3\n      eq\n      tag_3\n      jumpi\n      dup1\n      0x15070401\n      eq\n      tag_4\n      jumpi\n      dup1\n      0x17d7de7c\n      eq\n      tag_5\n      jumpi\n      dup1\n      0x18160ddd\n      eq\n      tag_6\n      jumpi\n    tag_2:\n      0x00\n      dup1\n      revert\n        /* \"libraries/erc20.sol\":4041:4205  function approve(address spender, uint256 amount) public virtual override returns (bool) {... */\n    tag_3:\n      tag_13\n      0x04\n      dup1\n      calldatasize\n      sub\n      dup2\n      add\n      swap1\n      tag_14\n      swap2\n      swap1\n      tag_15\n      jump\t// in\n    tag_14:\n      tag_16\n      jump\t// in\n    tag_13:\n      mload(0x40)\n      tag_17\n      swap2\n      swap1\n      tag_18\n      jump\t// in\n    tag_17:\n      mload(0x40)\n      dup1\n      swap2\n      sub\n      swap1\n      return\n        /* \"libraries/erc20.sol\":2210:2306  function getSymbol() public view virtual returns (string memory) {... */\n    tag_4:\n      tag_19\n      tag_20\n      jump\t// in\n    tag_19:\n      mload(0x40)\n      tag_21\n      swap2\n      swap1\n      tag_22\n      jump\t// in\n    tag_21:\n      mload(0x40)\n      dup1\n      swap2\n      sub\n      swap1\n      return\n        /* \"libraries/erc20.sol\":2010:2102  function getName() public view virtual returns (string memory) {... */\n    tag_5:\n      tag_23\n      tag_24\n      jump\t// in\n    tag_23:\n      mload(0x40)\n      tag_25\n      swap2\n      swap1\n      tag_22\n      jump\t// in\n    tag_25:\n      mload(0x40)\n      dup1\n      swap2\n      sub\n      swap1\n      return\n        /* \"libraries/erc20.sol\":3062:3168  function totalSupply() public view virtual override returns (uint256) {... */\n    tag_6:\n      tag_26\n      tag_27\n      jump\t// in\n    tag_26:\n      mload(0x40)\n      tag_28\n      swap2\n      swap1\n      tag_29\n      jump\t// in\n    tag_28:\n      mload(0x40)\n      dup1\n      swap2\n      sub\n      swap1\n      return\n        /* \"libraries/erc20.sol\":4667:5141  function transferFrom(... */\n    tag_7:\n      tag_30\n      0x04\n      dup1\n      calldatasize\n      sub\n      dup2\n      add\n      swap1\n      tag_31\n      swap2\n      swap1\n      tag_32\n      jump\t// in\n    tag_31:\n      tag_33\n      jump\t// in\n    tag_30:\n      mload(0x40)\n      tag_34\n      swap2\n      swap1\n      tag_18\n      jump\t// in\n    tag_34:\n      mload(0x40)\n      dup1\n      swap2\n      sub\n      swap1\n      return\n        /* \"libraries/erc20.sol\":2925:3007  function decimals() public view virtual returns (uint8) {... */\n    tag_8:\n      tag_35\n      tag_36\n      jump\t// in\n    tag_35:\n      mload(0x40)\n      tag_37\n      swap2\n      swap1\n      tag_38\n      jump\t// in\n    tag_37:\n      mload(0x40)\n      dup1\n      swap2\n      sub\n      swap1\n      return\n        /* \"libraries/erc20.sol\":3221:3338  function balanceOf(address account) public view override returns (uint256) {... */\n    tag_9:\n      tag_39\n      0x04\n      dup1\n      calldatasize\n      sub\n      dup2\n      add\n      swap1\n      tag_40\n      swap2\n      swap1\n      tag_41\n      jump\t// in\n    tag_40:\n      tag_42\n      jump\t// in\n    tag_39:\n      mload(0x40)\n      tag_43\n      swap2\n      swap1\n      tag_29\n      jump\t// in\n    tag_43:\n      mload(0x40)\n      dup1\n      swap2\n      sub\n      swap1\n      return\n        /* \"libraries/erc20.sol\":3536:3706  function transfer(address recipient, uint256 amount) public virtual override returns (bool) {... */\n    tag_10:\n      tag_44\n      0x04\n      dup1\n      calldatasize\n      sub\n      dup2\n      add\n      swap1\n      tag_45\n      swap2\n      swap1\n      tag_15\n      jump\t// in\n    tag_45:\n      tag_46\n      jump\t// in\n    tag_44:\n      mload(0x40)\n      tag_47\n      swap2\n      swap1\n      tag_18\n      jump\t// in\n    tag_47:\n      mload(0x40)\n      dup1\n      swap2\n      sub\n      swap1\n      return\n        /* \"libraries/erc20.sol\":3759:3908  function allowance(address owner, address spender) public view virtual override returns (uint256) {... */\n    tag_11:\n      tag_48\n      0x04\n      dup1\n      calldatasize\n      sub\n      dup2\n      add\n      swap1\n      tag_49\n      swap2\n      swap1\n      tag_50\n      jump\t// in\n    tag_49:\n      tag_51\n      jump\t// in\n    tag_48:\n      mload(0x40)\n      tag_52\n      swap2\n      swap1\n      tag_29\n      jump\t// in\n    tag_52:\n      mload(0x40)\n      dup1\n      swap2\n      sub\n      swap1\n      return\n        /* \"libraries/erc20.sol\":4041:4205  function approve(address spender, uint256 amount) public virtual override returns (bool) {... */\n    tag_16:\n        /* \"libraries/erc20.sol\":4124:4128  bool */\n      0x00\n        /* \"libraries/erc20.sol\":4140:4177  _approve(msg.sender, spender, amount) */\n      tag_54\n        /* \"libraries/erc20.sol\":4149:4159  msg.sender */\n      caller\n        /* \"libraries/erc20.sol\":4161:4168  spender */\n      dup5\n        /* \"libraries/erc20.sol\":4170:4176  amount */\n      dup5\n        /* \"libraries/erc20.sol\":4140:4148  _approve */\n      tag_55\n        /* \"libraries/erc20.sol\":4140:4177  _approve(msg.sender, spender, amount) */\n      jump\t// in\n    tag_54:\n        /* \"libraries/erc20.sol\":4194:4198  true */\n      0x01\n        /* \"libraries/erc20.sol\":4187:4198  return true */\n      swap1\n      pop\n        /* \"libraries/erc20.sol\":4041:4205  function approve(address spender, uint256 amount) public virtual override returns (bool) {... */\n      swap3\n      swap2\n      pop\n      pop\n      jump\t// out\n        /* \"libraries/erc20.sol\":2210:2306  function getSymbol() public view virtual returns (string memory) {... */\n    tag_20:\n        /* \"libraries/erc20.sol\":2260:2273  string memory */\n      0x60\n        /* \"libraries/erc20.sol\":2292:2299  _symbol */\n      0x04\n        /* \"libraries/erc20.sol\":2285:2299  return _symbol */\n      dup1\n      sload\n      tag_57\n      swap1\n      tag_58\n      jump\t// in\n    tag_57:\n      dup1\n      0x1f\n      add\n      0x20\n      dup1\n      swap2\n      div\n      mul\n      0x20\n      add\n      mload(0x40)\n      swap1\n      dup2\n      add\n      0x40\n      mstore\n      dup1\n      swap3\n      swap2\n      swap1\n      dup2\n      dup2\n      mstore\n      0x20\n      add\n      dup3\n      dup1\n      sload\n      tag_59\n      swap1\n      tag_58\n      jump\t// in\n    tag_59:\n      dup1\n      iszero\n      tag_60\n      jumpi\n      dup1\n      0x1f\n      lt\n      tag_61\n      jumpi\n      0x0100\n      dup1\n      dup4\n      sload\n      div\n      mul\n      dup4\n      mstore\n      swap2\n      0x20\n      add\n      swap2\n      jump(tag_60)\n    tag_61:\n      dup3\n      add\n      swap2\n      swap1\n      0x00\n      mstore\n      keccak256(0x00, 0x20)\n      swap1\n    tag_62:\n      dup2\n      sload\n      dup2\n      mstore\n      swap1\n      0x01\n      add\n      swap1\n      0x20\n      add\n      dup1\n      dup4\n      gt\n      tag_62\n      jumpi\n      dup3\n      swap1\n      sub\n      0x1f\n      and\n      dup3\n      add\n      swap2\n    tag_60:\n      pop\n      pop\n      pop\n      pop\n      pop\n      swap1\n      pop\n        /* \"libraries/erc20.sol\":2210:2306  function getSymbol() public view virtual returns (string memory) {... */\n      swap1\n      jump\t// out\n        /* \"libraries/erc20.sol\":2010:2102  function getName() public view virtual returns (string memory) {... */\n    tag_24:\n        /* \"libraries/erc20.sol\":2058:2071  string memory */\n      0x60\n        /* \"libraries/erc20.sol\":2090:2095  _name */\n      0x03\n        /* \"libraries/erc20.sol\":2083:2095  return _name */\n      dup1\n      sload\n      tag_64\n      swap1\n      tag_58\n      jump\t// in\n    tag_64:\n      dup1\n      0x1f\n      add\n      0x20\n      dup1\n      swap2\n      div\n      mul\n      0x20\n      add\n      mload(0x40)\n      swap1\n      dup2\n      add\n      0x40\n      mstore\n      dup1\n      swap3\n      swap2\n      swap1\n      dup2\n      dup2\n      mstore\n      0x20\n      add\n      dup3\n      dup1\n      sload\n      tag_65\n      swap1\n      tag_58\n      jump\t// in\n    tag_65:\n      dup1\n      iszero\n      tag_66\n      jumpi\n      dup1\n      0x1f\n      lt\n      tag_67\n      jumpi\n      0x0100\n      dup1\n      dup4\n      sload\n      div\n      mul\n      dup4\n      mstore\n      swap2\n      0x20\n      add\n      swap2\n      jump(tag_66)\n    tag_67:\n      dup3\n      add\n      swap2\n      swap1\n      0x00\n      mstore\n      keccak256(0x00, 0x20)\n      swap1\n    tag_68:\n      dup2\n      sload\n      dup2\n      mstore\n      swap1\n      0x01\n      add\n      swap1\n      0x20\n      add\n      dup1\n      dup4\n      gt\n      tag_68\n      jumpi\n      dup3\n      swap1\n      sub\n      0x1f\n      and\n      dup3\n      add\n      swap2\n    tag_66:\n      pop\n      pop\n      pop\n      pop\n      pop\n      swap1\n      pop\n        /* \"libraries/erc20.sol\":2010:2102  function getName() public view virtual returns (string memory) {... */\n      swap1\n      jump\t// out\n        /* \"libraries/erc20.sol\":3062:3168  function totalSupply() public view virtual override returns (uint256) {... */\n    tag_27:\n        /* \"libraries/erc20.sol\":3123:3130  uint256 */\n      0x00\n        /* \"libraries/erc20.sol\":3149:3161  _totalSupply */\n      sload(0x02)\n        /* \"libraries/erc20.sol\":3142:3161  return _totalSupply */\n      swap1\n      pop\n        /* \"libraries/erc20.sol\":3062:3168  function totalSupply() public view virtual override returns (uint256) {... */\n      swap1\n      jump\t// out\n        /* \"libraries/erc20.sol\":4667:5141  function transferFrom(... */\n    tag_33:\n        /* \"libraries/erc20.sol\":4803:4807  bool */\n      0x00\n        /* \"libraries/erc20.sol\":4819:4855  _transfer(sender, recipient, amount) */\n      tag_71\n        /* \"libraries/erc20.sol\":4829:4835  sender */\n      dup5\n        /* \"libraries/erc20.sol\":4837:4846  recipient */\n      dup5\n        /* \"libraries/erc20.sol\":4848:4854  amount */\n      dup5\n        /* \"libraries/erc20.sol\":4819:4828  _transfer */\n      tag_72\n        /* \"libraries/erc20.sol\":4819:4855  _transfer(sender, recipient, amount) */\n      jump\t// in\n    tag_71:\n        /* \"libraries/erc20.sol\":4866:4890  uint256 currentAllowance */\n      0x00\n        /* \"libraries/erc20.sol\":4893:4904  _allowances */\n      0x01\n        /* \"libraries/erc20.sol\":4893:4912  _allowances[sender] */\n      0x00\n        /* \"libraries/erc20.sol\":4905:4911  sender */\n      dup7\n        /* \"libraries/erc20.sol\":4893:4912  _allowances[sender] */\n      0xffffffffffffffffffffffffffffffffffffffff\n      and\n      0xffffffffffffffffffffffffffffffffffffffff\n      and\n      dup2\n      mstore\n      0x20\n      add\n      swap1\n      dup2\n      mstore\n      0x20\n      add\n      0x00\n      keccak256\n        /* \"libraries/erc20.sol\":4893:4924  _allowances[sender][msg.sender] */\n      0x00\n        /* \"libraries/erc20.sol\":4913:4923  msg.sender */\n      caller\n        /* \"libraries/erc20.sol\":4893:4924  _allowances[sender][msg.sender] */\n      0xffffffffffffffffffffffffffffffffffffffff\n      and\n      0xffffffffffffffffffffffffffffffffffffffff\n      and\n      dup2\n      mstore\n      0x20\n      add\n      swap1\n      dup2\n      mstore\n      0x20\n      add\n      0x00\n      keccak256\n      sload\n        /* \"libraries/erc20.sol\":4866:4924  uint256 currentAllowance = _allowances[sender][msg.sender] */\n      swap1\n      pop\n        /* \"libraries/erc20.sol\":4962:4968  amount */\n      dup3\n        /* \"libraries/erc20.sol\":4942:4958  currentAllowance */\n      dup2\n        /* \"libraries/erc20.sol\":4942:4968  currentAllowance >= amount */\n      lt\n      iszero\n        /* \"libraries/erc20.sol\":4934:5013  require(currentAllowance >= amount, \"ERC20: transfer amount exceeds allowance\") */\n      tag_73\n      jumpi\n      mload(0x40)\n      0x08c379a000000000000000000000000000000000000000000000000000000000\n      dup2\n      mstore\n      0x04\n      add\n      tag_74\n      swap1\n      tag_75\n      jump\t// in\n    tag_74:\n      mload(0x40)\n      dup1\n      swap2\n      sub\n      swap1\n      revert\n    tag_73:\n        /* \"libraries/erc20.sol\":5047:5102  _approve(sender, msg.sender, currentAllowance - amount) */\n      tag_76\n        /* \"libraries/erc20.sol\":5056:5062  sender */\n      dup6\n        /* \"libraries/erc20.sol\":5064:5074  msg.sender */\n      caller\n        /* \"libraries/erc20.sol\":5095:5101  amount */\n      dup6\n        /* \"libraries/erc20.sol\":5076:5092  currentAllowance */\n      dup5\n        /* \"libraries/erc20.sol\":5076:5101  currentAllowance - amount */\n      sub\n        /* \"libraries/erc20.sol\":5047:5055  _approve */\n      tag_55\n        /* \"libraries/erc20.sol\":5047:5102  _approve(sender, msg.sender, currentAllowance - amount) */\n      jump\t// in\n    tag_76:\n        /* \"libraries/erc20.sol\":5130:5134  true */\n      0x01\n        /* \"libraries/erc20.sol\":5123:5134  return true */\n      swap2\n      pop\n      pop\n        /* \"libraries/erc20.sol\":4667:5141  function transferFrom(... */\n      swap4\n      swap3\n      pop\n      pop\n      pop\n      jump\t// out\n        /* \"libraries/erc20.sol\":2925:3007  function decimals() public view virtual returns (uint8) {... */\n    tag_36:\n        /* \"libraries/erc20.sol\":2974:2979  uint8 */\n      0x00\n        /* \"libraries/erc20.sol\":2998:3000  18 */\n      0x12\n        /* \"libraries/erc20.sol\":2991:3000  return 18 */\n      swap1\n      pop\n        /* \"libraries/erc20.sol\":2925:3007  function decimals() public view virtual returns (uint8) {... */\n      swap1\n      jump\t// out\n        /* \"libraries/erc20.sol\":3221:3338  function balanceOf(address account) public view override returns (uint256) {... */\n    tag_42:\n        /* \"libraries/erc20.sol\":3287:3294  uint256 */\n      0x00\n        /* \"libraries/erc20.sol\":3313:3322  _balances */\n      dup1\n        /* \"libraries/erc20.sol\":3313:3331  _balances[account] */\n      0x00\n        /* \"libraries/erc20.sol\":3323:3330  account */\n      dup4\n        /* \"libraries/erc20.sol\":3313:3331  _balances[account] */\n      0xffffffffffffffffffffffffffffffffffffffff\n      and\n      0xffffffffffffffffffffffffffffffffffffffff\n      and\n      dup2\n      mstore\n      0x20\n      add\n      swap1\n      dup2\n      mstore\n      0x20\n      add\n      0x00\n      keccak256\n      sload\n        /* \"libraries/erc20.sol\":3306:3331  return _balances[account] */\n      swap1\n      pop\n        /* \"libraries/erc20.sol\":3221:3338  function balanceOf(address account) public view override returns (uint256) {... */\n      swap2\n      swap1\n      pop\n      jump\t// out\n        /* \"libraries/erc20.sol\":3536:3706  function transfer(address recipient, uint256 amount) public virtual override returns (bool) {... */\n    tag_46:\n        /* \"libraries/erc20.sol\":3622:3626  bool */\n      0x00\n        /* \"libraries/erc20.sol\":3638:3678  _transfer(msg.sender, recipient, amount) */\n      tag_80\n        /* \"libraries/erc20.sol\":3648:3658  msg.sender */\n      caller\n        /* \"libraries/erc20.sol\":3660:3669  recipient */\n      dup5\n        /* \"libraries/erc20.sol\":3671:3677  amount */\n      dup5\n        /* \"libraries/erc20.sol\":3638:3647  _transfer */\n      tag_72\n        /* \"libraries/erc20.sol\":3638:3678  _transfer(msg.sender, recipient, amount) */\n      jump\t// in\n    tag_80:\n        /* \"libraries/erc20.sol\":3695:3699  true */\n      0x01\n        /* \"libraries/erc20.sol\":3688:3699  return true */\n      swap1\n      pop\n        /* \"libraries/erc20.sol\":3536:3706  function transfer(address recipient, uint256 amount) public virtual override returns (bool) {... */\n      swap3\n      swap2\n      pop\n      pop\n      jump\t// out\n        /* \"libraries/erc20.sol\":3759:3908  function allowance(address owner, address spender) public view virtual override returns (uint256) {... */\n    tag_51:\n        /* \"libraries/erc20.sol\":3848:3855  uint256 */\n      0x00\n        /* \"libraries/erc20.sol\":3874:3885  _allowances */\n      0x01\n        /* \"libraries/erc20.sol\":3874:3892  _allowances[owner] */\n      0x00\n        /* \"libraries/erc20.sol\":3886:3891  owner */\n      dup5\n        /* \"libraries/erc20.sol\":3874:3892  _allowances[owner] */\n      0xffffffffffffffffffffffffffffffffffffffff\n      and\n      0xffffffffffffffffffffffffffffffffffffffff\n      and\n      dup2\n      mstore\n      0x20\n      add\n      swap1\n      dup2\n      mstore\n      0x20\n      add\n      0x00\n      keccak256\n        /* \"libraries/erc20.sol\":3874:3901  _allowances[owner][spender] */\n      0x00\n        /* \"libraries/erc20.sol\":3893:3900  spender */\n      dup4\n        /* \"libraries/erc20.sol\":3874:3901  _allowances[owner][spender] */\n      0xffffffffffffffffffffffffffffffffffffffff\n      and\n      0xffffffffffffffffffffffffffffffffffffffff\n      and\n      dup2\n      mstore\n      0x20\n      add\n      swap1\n      dup2\n      mstore\n      0x20\n      add\n      0x00\n      keccak256\n      sload\n        /* \"libraries/erc20.sol\":3867:3901  return _allowances[owner][spender] */\n      swap1\n      pop\n        /* \"libraries/erc20.sol\":3759:3908  function allowance(address owner, address spender) public view virtual override returns (uint256) {... */\n      swap3\n      swap2\n      pop\n      pop\n      jump\t// out\n        /* \"libraries/erc20.sol\":6626:6996  function _approve(... */\n    tag_55:\n        /* \"libraries/erc20.sol\":6774:6775  0 */\n      0x00\n        /* \"libraries/erc20.sol\":6757:6776  owner != address(0) */\n      0xffffffffffffffffffffffffffffffffffffffff\n      and\n        /* \"libraries/erc20.sol\":6757:6762  owner */\n      dup4\n        /* \"libraries/erc20.sol\":6757:6776  owner != address(0) */\n      0xffffffffffffffffffffffffffffffffffffffff\n      and\n      eq\n      iszero\n        /* \"libraries/erc20.sol\":6749:6817  require(owner != address(0), \"ERC20: approve from the zero address\") */\n      tag_83\n      jumpi\n      mload(0x40)\n      0x08c379a000000000000000000000000000000000000000000000000000000000\n      dup2\n      mstore\n      0x04\n      add\n      tag_84\n      swap1\n      tag_85\n      jump\t// in\n    tag_84:\n      mload(0x40)\n      dup1\n      swap2\n      sub\n      swap1\n      revert\n    tag_83:\n        /* \"libraries/erc20.sol\":6854:6855  0 */\n      0x00\n        /* \"libraries/erc20.sol\":6835:6856  spender != address(0) */\n      0xffffffffffffffffffffffffffffffffffffffff\n      and\n        /* \"libraries/erc20.sol\":6835:6842  spender */\n      dup3\n        /* \"libraries/erc20.sol\":6835:6856  spender != address(0) */\n      0xffffffffffffffffffffffffffffffffffffffff\n      and\n      eq\n      iszero\n        /* \"libraries/erc20.sol\":6827:6895  require(spender != address(0), \"ERC20: approve to the zero address\") */\n      tag_86\n      jumpi\n      mload(0x40)\n      0x08c379a000000000000000000000000000000000000000000000000000000000\n      dup2\n      mstore\n      0x04\n      add\n      tag_87\n      swap1\n      tag_88\n      jump\t// in\n    tag_87:\n      mload(0x40)\n      dup1\n      swap2\n      sub\n      swap1\n      revert\n    tag_86:\n        /* \"libraries/erc20.sol\":6936:6942  amount */\n      dup1\n        /* \"libraries/erc20.sol\":6906:6917  _allowances */\n      0x01\n        /* \"libraries/erc20.sol\":6906:6924  _allowances[owner] */\n      0x00\n        /* \"libraries/erc20.sol\":6918:6923  owner */\n      dup6\n        /* \"libraries/erc20.sol\":6906:6924  _allowances[owner] */\n      0xffffffffffffffffffffffffffffffffffffffff\n      and\n      0xffffffffffffffffffffffffffffffffffffffff\n      and\n      dup2\n      mstore\n      0x20\n      add\n      swap1\n      dup2\n      mstore\n      0x20\n      add\n      0x00\n      keccak256\n        /* \"libraries/erc20.sol\":6906:6933  _allowances[owner][spender] */\n      0x00\n        /* \"libraries/erc20.sol\":6925:6932  spender */\n      dup5\n        /* \"libraries/erc20.sol\":6906:6933  _allowances[owner][spender] */\n      0xffffffffffffffffffffffffffffffffffffffff\n      and\n      0xffffffffffffffffffffffffffffffffffffffff\n      and\n      dup2\n      mstore\n      0x20\n      add\n      swap1\n      dup2\n      mstore\n      0x20\n      add\n      0x00\n      keccak256\n        /* \"libraries/erc20.sol\":6906:6942  _allowances[owner][spender] = amount */\n      dup2\n      swap1\n      sstore\n      pop\n        /* \"libraries/erc20.sol\":6973:6980  spender */\n      dup2\n        /* \"libraries/erc20.sol\":6957:6989  Approval(owner, spender, amount) */\n      0xffffffffffffffffffffffffffffffffffffffff\n      and\n        /* \"libraries/erc20.sol\":6966:6971  owner */\n      dup4\n        /* \"libraries/erc20.sol\":6957:6989  Approval(owner, spender, amount) */\n      0xffffffffffffffffffffffffffffffffffffffff\n      and\n      0x8c5be1e5ebec7d5bd14f71427d1e84f3dd0314c0f7b2291e5b200ac8c7c3b925\n        /* \"libraries/erc20.sol\":6982:6988  amount */\n      dup4\n        /* \"libraries/erc20.sol\":6957:6989  Approval(owner, spender, amount) */\n      mload(0x40)\n      tag_89\n      swap2\n      swap1\n      tag_29\n      jump\t// in\n    tag_89:\n      mload(0x40)\n      dup1\n      swap2\n      sub\n      swap1\n      log3\n        /* \"libraries/erc20.sol\":6626:6996  function _approve(... */\n      pop\n      pop\n      pop\n      jump\t// out\n        /* \"libraries/erc20.sol\":5610:6208  function _transfer(... */\n    tag_72:\n        /* \"libraries/erc20.sol\":5763:5764  0 */\n      0x00\n        /* \"libraries/erc20.sol\":5745:5765  sender != address(0) */\n      0xffffffffffffffffffffffffffffffffffffffff\n      and\n        /* \"libraries/erc20.sol\":5745:5751  sender */\n      dup4\n        /* \"libraries/erc20.sol\":5745:5765  sender != address(0) */\n      0xffffffffffffffffffffffffffffffffffffffff\n      and\n      eq\n      iszero\n        /* \"libraries/erc20.sol\":5737:5807  require(sender != address(0), \"ERC20: transfer from the zero address\") */\n      tag_91\n      jumpi\n      mload(0x40)\n      0x08c379a000000000000000000000000000000000000000000000000000000000\n      dup2\n      mstore\n      0x04\n      add\n      tag_92\n      swap1\n      tag_93\n      jump\t// in\n    tag_92:\n      mload(0x40)\n      dup1\n      swap2\n      sub\n      swap1\n      revert\n    tag_91:\n        /* \"libraries/erc20.sol\":5846:5847  0 */\n      0x00\n        /* \"libraries/erc20.sol\":5825:5848  recipient != address(0) */\n      0xffffffffffffffffffffffffffffffffffffffff\n      and\n        /* \"libraries/erc20.sol\":5825:5834  recipient */\n      dup3\n        /* \"libraries/erc20.sol\":5825:5848  recipient != address(0) */\n      0xffffffffffffffffffffffffffffffffffffffff\n      and\n      eq\n      iszero\n        /* \"libraries/erc20.sol\":5817:5888  require(recipient != address(0), \"ERC20: transfer to the zero address\") */\n      tag_94\n      jumpi\n      mload(0x40)\n      0x08c379a000000000000000000000000000000000000000000000000000000000\n      dup2\n      mstore\n      0x04\n      add\n      tag_95\n      swap1\n      tag_96\n      jump\t// in\n    tag_95:\n      mload(0x40)\n      dup1\n      swap2\n      sub\n      swap1\n      revert\n    tag_94:\n        /* \"libraries/erc20.sol\":5899:5920  uint256 senderBalance */\n      0x00\n        /* \"libraries/erc20.sol\":5923:5932  _balances */\n      dup1\n        /* \"libraries/erc20.sol\":5923:5940  _balances[sender] */\n      0x00\n        /* \"libraries/erc20.sol\":5933:5939  sender */\n      dup6\n        /* \"libraries/erc20.sol\":5923:5940  _balances[sender] */\n      0xffffffffffffffffffffffffffffffffffffffff\n      and\n      0xffffffffffffffffffffffffffffffffffffffff\n      and\n      dup2\n      mstore\n      0x20\n      add\n      swap1\n      dup2\n      mstore\n      0x20\n      add\n      0x00\n      keccak256\n      sload\n        /* \"libraries/erc20.sol\":5899:5940  uint256 senderBalance = _balances[sender] */\n      swap1\n      pop\n        /* \"libraries/erc20.sol\":5975:5981  amount */\n      dup2\n        /* \"libraries/erc20.sol\":5958:5971  senderBalance */\n      dup2\n        /* \"libraries/erc20.sol\":5958:5981  senderBalance >= amount */\n      lt\n      iszero\n        /* \"libraries/erc20.sol\":5950:6024  require(senderBalance >= amount, \"ERC20: transfer amount exceeds balance\") */\n      tag_97\n      jumpi\n      mload(0x40)\n      0x08c379a000000000000000000000000000000000000000000000000000000000\n      dup2\n      mstore\n      0x04\n      add\n      tag_98\n      swap1\n      tag_99\n      jump\t// in\n    tag_98:\n      mload(0x40)\n      dup1\n      swap2\n      sub\n      swap1\n      revert\n    tag_97:\n        /* \"libraries/erc20.sol\":6094:6100  amount */\n      dup2\n        /* \"libraries/erc20.sol\":6078:6091  senderBalance */\n      dup2\n        /* \"libraries/erc20.sol\":6078:6100  senderBalance - amount */\n      sub\n        /* \"libraries/erc20.sol\":6058:6067  _balances */\n      0x00\n        /* \"libraries/erc20.sol\":6058:6075  _balances[sender] */\n      dup1\n        /* \"libraries/erc20.sol\":6068:6074  sender */\n      dup7\n        /* \"libraries/erc20.sol\":6058:6075  _balances[sender] */\n      0xffffffffffffffffffffffffffffffffffffffff\n      and\n      0xffffffffffffffffffffffffffffffffffffffff\n      and\n      dup2\n      mstore\n      0x20\n      add\n      swap1\n      dup2\n      mstore\n      0x20\n      add\n      0x00\n      keccak256\n        /* \"libraries/erc20.sol\":6058:6100  _balances[sender] = senderBalance - amount */\n      dup2\n      swap1\n      sstore\n      pop\n        /* \"libraries/erc20.sol\":6144:6150  amount */\n      dup2\n        /* \"libraries/erc20.sol\":6120:6129  _balances */\n      0x00\n        /* \"libraries/erc20.sol\":6120:6140  _balances[recipient] */\n      dup1\n        /* \"libraries/erc20.sol\":6130:6139  recipient */\n      dup6\n        /* \"libraries/erc20.sol\":6120:6140  _balances[recipient] */\n      0xffffffffffffffffffffffffffffffffffffffff\n      and\n      0xffffffffffffffffffffffffffffffffffffffff\n      and\n      dup2\n      mstore\n      0x20\n      add\n      swap1\n      dup2\n      mstore\n      0x20\n      add\n      0x00\n      keccak256\n      0x00\n        /* \"libraries/erc20.sol\":6120:6150  _balances[recipient] += amount */\n      dup3\n      dup3\n      sload\n      tag_100\n      swap2\n      swap1\n      tag_101\n      jump\t// in\n    tag_100:\n      swap3\n      pop\n      pop\n      dup2\n      swap1\n      sstore\n      pop\n        /* \"libraries/erc20.sol\":6183:6192  recipient */\n      dup3\n        /* \"libraries/erc20.sol\":6166:6201  Transfer(sender, recipient, amount) */\n      0xffffffffffffffffffffffffffffffffffffffff\n      and\n        /* \"libraries/erc20.sol\":6175:6181  sender */\n      dup5\n        /* \"libraries/erc20.sol\":6166:6201  Transfer(sender, recipient, amount) */\n      0xffffffffffffffffffffffffffffffffffffffff\n      and\n      0xddf252ad1be2c89b69c2b068fc378daa952ba7f163c4a11628f55a4df523b3ef\n        /* \"libraries/erc20.sol\":6194:6200  amount */\n      dup5\n        /* \"libraries/erc20.sol\":6166:6201  Transfer(sender, recipient, amount) */\n      mload(0x40)\n      tag_102\n      swap2\n      swap1\n      tag_29\n      jump\t// in\n    tag_102:\n      mload(0x40)\n      dup1\n      swap2\n      sub\n      swap1\n      log3\n        /* \"libraries/erc20.sol\":5610:6208  function _transfer(... */\n      pop\n      pop\n      pop\n      pop\n      jump\t// out\n        /* \"#utility.yul\":7:146   */\n    tag_104:\n      0x00\n        /* \"#utility.yul\":91:97   */\n      dup2\n        /* \"#utility.yul\":78:98   */\n      calldataload\n        /* \"#utility.yul\":69:98   */\n      swap1\n      pop\n        /* \"#utility.yul\":107:140   */\n      tag_106\n        /* \"#utility.yul\":134:139   */\n      dup2\n        /* \"#utility.yul\":107:140   */\n      tag_107\n      jump\t// in\n    tag_106:\n        /* \"#utility.yul\":59:146   */\n      swap3\n      swap2\n      pop\n      pop\n      jump\t// out\n        /* \"#utility.yul\":152:291   */\n    tag_108:\n      0x00\n        /* \"#utility.yul\":236:242   */\n      dup2\n        /* \"#utility.yul\":223:243   */\n      calldataload\n        /* \"#utility.yul\":214:243   */\n      swap1\n      pop\n        /* \"#utility.yul\":252:285   */\n      tag_110\n        /* \"#utility.yul\":279:284   */\n      dup2\n        /* \"#utility.yul\":252:285   */\n      tag_111\n      jump\t// in\n    tag_110:\n        /* \"#utility.yul\":204:291   */\n      swap3\n      swap2\n      pop\n      pop\n      jump\t// out\n        /* \"#utility.yul\":297:559   */\n    tag_41:\n      0x00\n        /* \"#utility.yul\":405:407   */\n      0x20\n        /* \"#utility.yul\":393:402   */\n      dup3\n        /* \"#utility.yul\":384:391   */\n      dup5\n        /* \"#utility.yul\":380:403   */\n      sub\n        /* \"#utility.yul\":376:408   */\n      slt\n        /* \"#utility.yul\":373:375   */\n      iszero\n      tag_113\n      jumpi\n        /* \"#utility.yul\":421:422   */\n      0x00\n        /* \"#utility.yul\":418:419   */\n      dup1\n        /* \"#utility.yul\":411:423   */\n      revert\n        /* \"#utility.yul\":373:375   */\n    tag_113:\n        /* \"#utility.yul\":464:465   */\n      0x00\n        /* \"#utility.yul\":489:542   */\n      tag_114\n        /* \"#utility.yul\":534:541   */\n      dup5\n        /* \"#utility.yul\":525:531   */\n      dup3\n        /* \"#utility.yul\":514:523   */\n      dup6\n        /* \"#utility.yul\":510:532   */\n      add\n        /* \"#utility.yul\":489:542   */\n      tag_104\n      jump\t// in\n    tag_114:\n        /* \"#utility.yul\":479:542   */\n      swap2\n      pop\n        /* \"#utility.yul\":435:552   */\n      pop\n        /* \"#utility.yul\":363:559   */\n      swap3\n      swap2\n      pop\n      pop\n      jump\t// out\n        /* \"#utility.yul\":565:972   */\n    tag_50:\n      0x00\n      dup1\n        /* \"#utility.yul\":690:692   */\n      0x40\n        /* \"#utility.yul\":678:687   */\n      dup4\n        /* \"#utility.yul\":669:676   */\n      dup6\n        /* \"#utility.yul\":665:688   */\n      sub\n        /* \"#utility.yul\":661:693   */\n      slt\n        /* \"#utility.yul\":658:660   */\n      iszero\n      tag_116\n      jumpi\n        /* \"#utility.yul\":706:707   */\n      0x00\n        /* \"#utility.yul\":703:704   */\n      dup1\n        /* \"#utility.yul\":696:708   */\n      revert\n        /* \"#utility.yul\":658:660   */\n    tag_116:\n        /* \"#utility.yul\":749:750   */\n      0x00\n        /* \"#utility.yul\":774:827   */\n      tag_117\n        /* \"#utility.yul\":819:826   */\n      dup6\n        /* \"#utility.yul\":810:816   */\n      dup3\n        /* \"#utility.yul\":799:808   */\n      dup7\n        /* \"#utility.yul\":795:817   */\n      add\n        /* \"#utility.yul\":774:827   */\n      tag_104\n      jump\t// in\n    tag_117:\n        /* \"#utility.yul\":764:827   */\n      swap3\n      pop\n        /* \"#utility.yul\":720:837   */\n      pop\n        /* \"#utility.yul\":876:878   */\n      0x20\n        /* \"#utility.yul\":902:955   */\n      tag_118\n        /* \"#utility.yul\":947:954   */\n      dup6\n        /* \"#utility.yul\":938:944   */\n      dup3\n        /* \"#utility.yul\":927:936   */\n      dup7\n        /* \"#utility.yul\":923:945   */\n      add\n        /* \"#utility.yul\":902:955   */\n      tag_104\n      jump\t// in\n    tag_118:\n        /* \"#utility.yul\":892:955   */\n      swap2\n      pop\n        /* \"#utility.yul\":847:965   */\n      pop\n        /* \"#utility.yul\":648:972   */\n      swap3\n      pop\n      swap3\n      swap1\n      pop\n      jump\t// out\n        /* \"#utility.yul\":978:1530   */\n    tag_32:\n      0x00\n      dup1\n      0x00\n        /* \"#utility.yul\":1120:1122   */\n      0x60\n        /* \"#utility.yul\":1108:1117   */\n      dup5\n        /* \"#utility.yul\":1099:1106   */\n      dup7\n        /* \"#utility.yul\":1095:1118   */\n      sub\n        /* \"#utility.yul\":1091:1123   */\n      slt\n        /* \"#utility.yul\":1088:1090   */\n      iszero\n      tag_120\n      jumpi\n        /* \"#utility.yul\":1136:1137   */\n      0x00\n        /* \"#utility.yul\":1133:1134   */\n      dup1\n        /* \"#utility.yul\":1126:1138   */\n      revert\n        /* \"#utility.yul\":1088:1090   */\n    tag_120:\n        /* \"#utility.yul\":1179:1180   */\n      0x00\n        /* \"#utility.yul\":1204:1257   */\n      tag_121\n        /* \"#utility.yul\":1249:1256   */\n      dup7\n        /* \"#utility.yul\":1240:1246   */\n      dup3\n        /* \"#utility.yul\":1229:1238   */\n      dup8\n        /* \"#utility.yul\":1225:1247   */\n      add\n        /* \"#utility.yul\":1204:1257   */\n      tag_104\n      jump\t// in\n    tag_121:\n        /* \"#utility.yul\":1194:1257   */\n      swap4\n      pop\n        /* \"#utility.yul\":1150:1267   */\n      pop\n        /* \"#utility.yul\":1306:1308   */\n      0x20\n        /* \"#utility.yul\":1332:1385   */\n      tag_122\n        /* \"#utility.yul\":1377:1384   */\n      dup7\n        /* \"#utility.yul\":1368:1374   */\n      dup3\n        /* \"#utility.yul\":1357:1366   */\n      dup8\n        /* \"#utility.yul\":1353:1375   */\n      add\n        /* \"#utility.yul\":1332:1385   */\n      tag_104\n      jump\t// in\n    tag_122:\n        /* \"#utility.yul\":1322:1385   */\n      swap3\n      pop\n        /* \"#utility.yul\":1277:1395   */\n      pop\n        /* \"#utility.yul\":1434:1436   */\n      0x40\n        /* \"#utility.yul\":1460:1513   */\n      tag_123\n        /* \"#utility.yul\":1505:1512   */\n      dup7\n        /* \"#utility.yul\":1496:1502   */\n      dup3\n        /* \"#utility.yul\":1485:1494   */\n      dup8\n        /* \"#utility.yul\":1481:1503   */\n      add\n        /* \"#utility.yul\":1460:1513   */\n      tag_108\n      jump\t// in\n    tag_123:\n        /* \"#utility.yul\":1450:1513   */\n      swap2\n      pop\n        /* \"#utility.yul\":1405:1523   */\n      pop\n        /* \"#utility.yul\":1078:1530   */\n      swap3\n      pop\n      swap3\n      pop\n      swap3\n      jump\t// out\n        /* \"#utility.yul\":1536:1943   */\n    tag_15:\n      0x00\n      dup1\n        /* \"#utility.yul\":1661:1663   */\n      0x40\n        /* \"#utility.yul\":1649:1658   */\n      dup4\n        /* \"#utility.yul\":1640:1647   */\n      dup6\n        /* \"#utility.yul\":1636:1659   */\n      sub\n        /* \"#utility.yul\":1632:1664   */\n      slt\n        /* \"#utility.yul\":1629:1631   */\n      iszero\n      tag_125\n      jumpi\n        /* \"#utility.yul\":1677:1678   */\n      0x00\n        /* \"#utility.yul\":1674:1675   */\n      dup1\n        /* \"#utility.yul\":1667:1679   */\n      revert\n        /* \"#utility.yul\":1629:1631   */\n    tag_125:\n        /* \"#utility.yul\":1720:1721   */\n      0x00\n        /* \"#utility.yul\":1745:1798   */\n      tag_126\n        /* \"#utility.yul\":1790:1797   */\n      dup6\n        /* \"#utility.yul\":1781:1787   */\n      dup3\n        /* \"#utility.yul\":1770:1779   */\n      dup7\n        /* \"#utility.yul\":1766:1788   */\n      add\n        /* \"#utility.yul\":1745:1798   */\n      tag_104\n      jump\t// in\n    tag_126:\n        /* \"#utility.yul\":1735:1798   */\n      swap3\n      pop\n        /* \"#utility.yul\":1691:1808   */\n      pop\n        /* \"#utility.yul\":1847:1849   */\n      0x20\n        /* \"#utility.yul\":1873:1926   */\n      tag_127\n        /* \"#utility.yul\":1918:1925   */\n      dup6\n        /* \"#utility.yul\":1909:1915   */\n      dup3\n        /* \"#utility.yul\":1898:1907   */\n      dup7\n        /* \"#utility.yul\":1894:1916   */\n      add\n        /* \"#utility.yul\":1873:1926   */\n      tag_108\n      jump\t// in\n    tag_127:\n        /* \"#utility.yul\":1863:1926   */\n      swap2\n      pop\n        /* \"#utility.yul\":1818:1936   */\n      pop\n        /* \"#utility.yul\":1619:1943   */\n      swap3\n      pop\n      swap3\n      swap1\n      pop\n      jump\t// out\n        /* \"#utility.yul\":1949:2058   */\n    tag_128:\n        /* \"#utility.yul\":2030:2051   */\n      tag_130\n        /* \"#utility.yul\":2045:2050   */\n      dup2\n        /* \"#utility.yul\":2030:2051   */\n      tag_131\n      jump\t// in\n    tag_130:\n        /* \"#utility.yul\":2025:2028   */\n      dup3\n        /* \"#utility.yul\":2018:2052   */\n      mstore\n        /* \"#utility.yul\":2008:2058   */\n      pop\n      pop\n      jump\t// out\n        /* \"#utility.yul\":2064:2428   */\n    tag_132:\n      0x00\n        /* \"#utility.yul\":2180:2219   */\n      tag_134\n        /* \"#utility.yul\":2213:2218   */\n      dup3\n        /* \"#utility.yul\":2180:2219   */\n      tag_135\n      jump\t// in\n    tag_134:\n        /* \"#utility.yul\":2235:2306   */\n      tag_136\n        /* \"#utility.yul\":2299:2305   */\n      dup2\n        /* \"#utility.yul\":2294:2297   */\n      dup6\n        /* \"#utility.yul\":2235:2306   */\n      tag_137\n      jump\t// in\n    tag_136:\n        /* \"#utility.yul\":2228:2306   */\n      swap4\n      pop\n        /* \"#utility.yul\":2315:2367   */\n      tag_138\n        /* \"#utility.yul\":2360:2366   */\n      dup2\n        /* \"#utility.yul\":2355:2358   */\n      dup6\n        /* \"#utility.yul\":2348:2352   */\n      0x20\n        /* \"#utility.yul\":2341:2346   */\n      dup7\n        /* \"#utility.yul\":2337:2353   */\n      add\n        /* \"#utility.yul\":2315:2367   */\n      tag_139\n      jump\t// in\n    tag_138:\n        /* \"#utility.yul\":2392:2421   */\n      tag_140\n        /* \"#utility.yul\":2414:2420   */\n      dup2\n        /* \"#utility.yul\":2392:2421   */\n      tag_141\n      jump\t// in\n    tag_140:\n        /* \"#utility.yul\":2387:2390   */\n      dup5\n        /* \"#utility.yul\":2383:2422   */\n      add\n        /* \"#utility.yul\":2376:2422   */\n      swap2\n      pop\n        /* \"#utility.yul\":2156:2428   */\n      pop\n      swap3\n      swap2\n      pop\n      pop\n      jump\t// out\n        /* \"#utility.yul\":2434:2801   */\n    tag_142:\n      0x00\n        /* \"#utility.yul\":2597:2664   */\n      tag_144\n        /* \"#utility.yul\":2661:2663   */\n      0x23\n        /* \"#utility.yul\":2656:2659   */\n      dup4\n        /* \"#utility.yul\":2597:2664   */\n      tag_137\n      jump\t// in\n    tag_144:\n        /* \"#utility.yul\":2590:2664   */\n      swap2\n      pop\n        /* \"#utility.yul\":2694:2728   */\n      0x45524332303a207472616e7366657220746f20746865207a65726f2061646472\n        /* \"#utility.yul\":2690:2691   */\n      0x00\n        /* \"#utility.yul\":2685:2688   */\n      dup4\n        /* \"#utility.yul\":2681:2692   */\n      add\n        /* \"#utility.yul\":2674:2729   */\n      mstore\n        /* \"#utility.yul\":2760:2765   */\n      0x6573730000000000000000000000000000000000000000000000000000000000\n        /* \"#utility.yul\":2755:2757   */\n      0x20\n        /* \"#utility.yul\":2750:2753   */\n      dup4\n        /* \"#utility.yul\":2746:2758   */\n      add\n        /* \"#utility.yul\":2739:2766   */\n      mstore\n        /* \"#utility.yul\":2792:2794   */\n      0x40\n        /* \"#utility.yul\":2787:2790   */\n      dup3\n        /* \"#utility.yul\":2783:2795   */\n      add\n        /* \"#utility.yul\":2776:2795   */\n      swap1\n      pop\n        /* \"#utility.yul\":2580:2801   */\n      swap2\n      swap1\n      pop\n      jump\t// out\n        /* \"#utility.yul\":2807:3173   */\n    tag_145:\n      0x00\n        /* \"#utility.yul\":2970:3037   */\n      tag_147\n        /* \"#utility.yul\":3034:3036   */\n      0x22\n        /* \"#utility.yul\":3029:3032   */\n      dup4\n        /* \"#utility.yul\":2970:3037   */\n      tag_137\n      jump\t// in\n    tag_147:\n        /* \"#utility.yul\":2963:3037   */\n      swap2\n      pop\n        /* \"#utility.yul\":3067:3101   */\n      0x45524332303a20617070726f766520746f20746865207a65726f206164647265\n        /* \"#utility.yul\":3063:3064   */\n      0x00\n        /* \"#utility.yul\":3058:3061   */\n      dup4\n        /* \"#utility.yul\":3054:3065   */\n      add\n        /* \"#utility.yul\":3047:3102   */\n      mstore\n        /* \"#utility.yul\":3133:3137   */\n      0x7373000000000000000000000000000000000000000000000000000000000000\n        /* \"#utility.yul\":3128:3130   */\n      0x20\n        /* \"#utility.yul\":3123:3126   */\n      dup4\n        /* \"#utility.yul\":3119:3131   */\n      add\n        /* \"#utility.yul\":3112:3138   */\n      mstore\n        /* \"#utility.yul\":3164:3166   */\n      0x40\n        /* \"#utility.yul\":3159:3162   */\n      dup3\n        /* \"#utility.yul\":3155:3167   */\n      add\n        /* \"#utility.yul\":3148:3167   */\n      swap1\n      pop\n        /* \"#utility.yul\":2953:3173   */\n      swap2\n      swap1\n      pop\n      jump\t// out\n        /* \"#utility.yul\":3179:3549   */\n    tag_148:\n      0x00\n        /* \"#utility.yul\":3342:3409   */\n      tag_150\n        /* \"#utility.yul\":3406:3408   */\n      0x26\n        /* \"#utility.yul\":3401:3404   */\n      dup4\n        /* \"#utility.yul\":3342:3409   */\n      tag_137\n      jump\t// in\n    tag_150:\n        /* \"#utility.yul\":3335:3409   */\n      swap2\n      pop\n        /* \"#utility.yul\":3439:3473   */\n      0x45524332303a207472616e7366657220616d6f756e7420657863656564732062\n        /* \"#utility.yul\":3435:3436   */\n      0x00\n        /* \"#utility.yul\":3430:3433   */\n      dup4\n        /* \"#utility.yul\":3426:3437   */\n      add\n        /* \"#utility.yul\":3419:3474   */\n      mstore\n        /* \"#utility.yul\":3505:3513   */\n      0x616c616e63650000000000000000000000000000000000000000000000000000\n        /* \"#utility.yul\":3500:3502   */\n      0x20\n        /* \"#utility.yul\":3495:3498   */\n      dup4\n        /* \"#utility.yul\":3491:3503   */\n      add\n        /* \"#utility.yul\":3484:3514   */\n      mstore\n        /* \"#utility.yul\":3540:3542   */\n      0x40\n        /* \"#utility.yul\":3535:3538   */\n      dup3\n        /* \"#utility.yul\":3531:3543   */\n      add\n        /* \"#utility.yul\":3524:3543   */\n      swap1\n      pop\n        /* \"#utility.yul\":3325:3549   */\n      swap2\n      swap1\n      pop\n      jump\t// out\n        /* \"#utility.yul\":3555:3927   */\n    tag_151:\n      0x00\n        /* \"#utility.yul\":3718:3785   */\n      tag_153\n        /* \"#utility.yul\":3782:3784   */\n      0x28\n        /* \"#utility.yul\":3777:3780   */\n      dup4\n        /* \"#utility.yul\":3718:3785   */\n      tag_137\n      jump\t// in\n    tag_153:\n        /* \"#utility.yul\":3711:3785   */\n      swap2\n      pop\n        /* \"#utility.yul\":3815:3849   */\n      0x45524332303a207472616e7366657220616d6f756e7420657863656564732061\n        /* \"#utility.yul\":3811:3812   */\n      0x00\n        /* \"#utility.yul\":3806:3809   */\n      dup4\n        /* \"#utility.yul\":3802:3813   */\n      add\n        /* \"#utility.yul\":3795:3850   */\n      mstore\n        /* \"#utility.yul\":3881:3891   */\n      0x6c6c6f77616e6365000000000000000000000000000000000000000000000000\n        /* \"#utility.yul\":3876:3878   */\n      0x20\n        /* \"#utility.yul\":3871:3874   */\n      dup4\n        /* \"#utility.yul\":3867:3879   */\n      add\n        /* \"#utility.yul\":3860:3892   */\n      mstore\n        /* \"#utility.yul\":3918:3920   */\n      0x40\n        /* \"#utility.yul\":3913:3916   */\n      dup3\n        /* \"#utility.yul\":3909:3921   */\n      add\n        /* \"#utility.yul\":3902:3921   */\n      swap1\n      pop\n        /* \"#utility.yul\":3701:3927   */\n      swap2\n      swap1\n      pop\n      jump\t// out\n        /* \"#utility.yul\":3933:4302   */\n    tag_154:\n      0x00\n        /* \"#utility.yul\":4096:4163   */\n      tag_156\n        /* \"#utility.yul\":4160:4162   */\n      0x25\n        /* \"#utility.yul\":4155:4158   */\n      dup4\n        /* \"#utility.yul\":4096:4163   */\n      tag_137\n      jump\t// in\n    tag_156:\n        /* \"#utility.yul\":4089:4163   */\n      swap2\n      pop\n        /* \"#utility.yul\":4193:4227   */\n      0x45524332303a207472616e736665722066726f6d20746865207a65726f206164\n        /* \"#utility.yul\":4189:4190   */\n      0x00\n        /* \"#utility.yul\":4184:4187   */\n      dup4\n        /* \"#utility.yul\":4180:4191   */\n      add\n        /* \"#utility.yul\":4173:4228   */\n      mstore\n        /* \"#utility.yul\":4259:4266   */\n      0x6472657373000000000000000000000000000000000000000000000000000000\n        /* \"#utility.yul\":4254:4256   */\n      0x20\n        /* \"#utility.yul\":4249:4252   */\n      dup4\n        /* \"#utility.yul\":4245:4257   */\n      add\n        /* \"#utility.yul\":4238:4267   */\n      mstore\n        /* \"#utility.yul\":4293:4295   */\n      0x40\n        /* \"#utility.yul\":4288:4291   */\n      dup3\n        /* \"#utility.yul\":4284:4296   */\n      add\n        /* \"#utility.yul\":4277:4296   */\n      swap1\n      pop\n        /* \"#utility.yul\":4079:4302   */\n      swap2\n      swap1\n      pop\n      jump\t// out\n        /* \"#utility.yul\":4308:4676   */\n    tag_157:\n      0x00\n        /* \"#utility.yul\":4471:4538   */\n      tag_159\n        /* \"#utility.yul\":4535:4537   */\n      0x24\n        /* \"#utility.yul\":4530:4533   */\n      dup4\n        /* \"#utility.yul\":4471:4538   */\n      tag_137\n      jump\t// in\n    tag_159:\n        /* \"#utility.yul\":4464:4538   */\n      swap2\n      pop\n        /* \"#utility.yul\":4568:4602   */\n      0x45524332303a20617070726f76652066726f6d20746865207a65726f20616464\n        /* \"#utility.yul\":4564:4565   */\n      0x00\n        /* \"#utility.yul\":4559:4562   */\n      dup4\n        /* \"#utility.yul\":4555:4566   */\n      add\n        /* \"#utility.yul\":4548:4603   */\n      mstore\n        /* \"#utility.yul\":4634:4640   */\n      0x7265737300000000000000000000000000000000000000000000000000000000\n        /* \"#utility.yul\":4629:4631   */\n      0x20\n        /* \"#utility.yul\":4624:4627   */\n      dup4\n        /* \"#utility.yul\":4620:4632   */\n      add\n        /* \"#utility.yul\":4613:4641   */\n      mstore\n        /* \"#utility.yul\":4667:4669   */\n      0x40\n        /* \"#utility.yul\":4662:4665   */\n      dup3\n        /* \"#utility.yul\":4658:4670   */\n      add\n        /* \"#utility.yul\":4651:4670   */\n      swap1\n      pop\n        /* \"#utility.yul\":4454:4676   */\n      swap2\n      swap1\n      pop\n      jump\t// out\n        /* \"#utility.yul\":4682:4800   */\n    tag_160:\n        /* \"#utility.yul\":4769:4793   */\n      tag_162\n        /* \"#utility.yul\":4787:4792   */\n      dup2\n        /* \"#utility.yul\":4769:4793   */\n      tag_163\n      jump\t// in\n    tag_162:\n        /* \"#utility.yul\":4764:4767   */\n      dup3\n        /* \"#utility.yul\":4757:4794   */\n      mstore\n        /* \"#utility.yul\":4747:4800   */\n      pop\n      pop\n      jump\t// out\n        /* \"#utility.yul\":4806:4918   */\n    tag_164:\n        /* \"#utility.yul\":4889:4911   */\n      tag_166\n        /* \"#utility.yul\":4905:4910   */\n      dup2\n        /* \"#utility.yul\":4889:4911   */\n      tag_167\n      jump\t// in\n    tag_166:\n        /* \"#utility.yul\":4884:4887   */\n      dup3\n        /* \"#utility.yul\":4877:4912   */\n      mstore\n        /* \"#utility.yul\":4867:4918   */\n      pop\n      pop\n      jump\t// out\n        /* \"#utility.yul\":4924:5134   */\n    tag_18:\n      0x00\n        /* \"#utility.yul\":5049:5051   */\n      0x20\n        /* \"#utility.yul\":5038:5047   */\n      dup3\n        /* \"#utility.yul\":5034:5052   */\n      add\n        /* \"#utility.yul\":5026:5052   */\n      swap1\n      pop\n        /* \"#utility.yul\":5062:5127   */\n      tag_169\n        /* \"#utility.yul\":5124:5125   */\n      0x00\n        /* \"#utility.yul\":5113:5122   */\n      dup4\n        /* \"#utility.yul\":5109:5126   */\n      add\n        /* \"#utility.yul\":5100:5106   */\n      dup5\n        /* \"#utility.yul\":5062:5127   */\n      tag_128\n      jump\t// in\n    tag_169:\n        /* \"#utility.yul\":5016:5134   */\n      swap3\n      swap2\n      pop\n      pop\n      jump\t// out\n        /* \"#utility.yul\":5140:5453   */\n    tag_22:\n      0x00\n        /* \"#utility.yul\":5291:5293   */\n      0x20\n        /* \"#utility.yul\":5280:5289   */\n      dup3\n        /* \"#utility.yul\":5276:5294   */\n      add\n        /* \"#utility.yul\":5268:5294   */\n      swap1\n      pop\n        /* \"#utility.yul\":5340:5349   */\n      dup2\n        /* \"#utility.yul\":5334:5338   */\n      dup2\n        /* \"#utility.yul\":5330:5350   */\n      sub\n        /* \"#utility.yul\":5326:5327   */\n      0x00\n        /* \"#utility.yul\":5315:5324   */\n      dup4\n        /* \"#utility.yul\":5311:5328   */\n      add\n        /* \"#utility.yul\":5304:5351   */\n      mstore\n        /* \"#utility.yul\":5368:5446   */\n      tag_171\n        /* \"#utility.yul\":5441:5445   */\n      dup2\n        /* \"#utility.yul\":5432:5438   */\n      dup5\n        /* \"#utility.yul\":5368:5446   */\n      tag_132\n      jump\t// in\n    tag_171:\n        /* \"#utility.yul\":5360:5446   */\n      swap1\n      pop\n        /* \"#utility.yul\":5258:5453   */\n      swap3\n      swap2\n      pop\n      pop\n      jump\t// out\n        /* \"#utility.yul\":5459:5878   */\n    tag_96:\n      0x00\n        /* \"#utility.yul\":5663:5665   */\n      0x20\n        /* \"#utility.yul\":5652:5661   */\n      dup3\n        /* \"#utility.yul\":5648:5666   */\n      add\n        /* \"#utility.yul\":5640:5666   */\n      swap1\n      pop\n        /* \"#utility.yul\":5712:5721   */\n      dup2\n        /* \"#utility.yul\":5706:5710   */\n      dup2\n        /* \"#utility.yul\":5702:5722   */\n      sub\n        /* \"#utility.yul\":5698:5699   */\n      0x00\n        /* \"#utility.yul\":5687:5696   */\n      dup4\n        /* \"#utility.yul\":5683:5700   */\n      add\n        /* \"#utility.yul\":5676:5723   */\n      mstore\n        /* \"#utility.yul\":5740:5871   */\n      tag_173\n        /* \"#utility.yul\":5866:5870   */\n      dup2\n        /* \"#utility.yul\":5740:5871   */\n      tag_142\n      jump\t// in\n    tag_173:\n        /* \"#utility.yul\":5732:5871   */\n      swap1\n      pop\n        /* \"#utility.yul\":5630:5878   */\n      swap2\n      swap1\n      pop\n      jump\t// out\n        /* \"#utility.yul\":5884:6303   */\n    tag_88:\n      0x00\n        /* \"#utility.yul\":6088:6090   */\n      0x20\n        /* \"#utility.yul\":6077:6086   */\n      dup3\n        /* \"#utility.yul\":6073:6091   */\n      add\n        /* \"#utility.yul\":6065:6091   */\n      swap1\n      pop\n        /* \"#utility.yul\":6137:6146   */\n      dup2\n        /* \"#utility.yul\":6131:6135   */\n      dup2\n        /* \"#utility.yul\":6127:6147   */\n      sub\n        /* \"#utility.yul\":6123:6124   */\n      0x00\n        /* \"#utility.yul\":6112:6121   */\n      dup4\n        /* \"#utility.yul\":6108:6125   */\n      add\n        /* \"#utility.yul\":6101:6148   */\n      mstore\n        /* \"#utility.yul\":6165:6296   */\n      tag_175\n        /* \"#utility.yul\":6291:6295   */\n      dup2\n        /* \"#utility.yul\":6165:6296   */\n      tag_145\n      jump\t// in\n    tag_175:\n        /* \"#utility.yul\":6157:6296   */\n      swap1\n      pop\n        /* \"#utility.yul\":6055:6303   */\n      swap2\n      swap1\n      pop\n      jump\t// out\n        /* \"#utility.yul\":6309:6728   */\n    tag_99:\n      0x00\n        /* \"#utility.yul\":6513:6515   */\n      0x20\n        /* \"#utility.yul\":6502:6511   */\n      dup3\n        /* \"#utility.yul\":6498:6516   */\n      add\n        /* \"#utility.yul\":6490:6516   */\n      swap1\n      pop\n        /* \"#utility.yul\":6562:6571   */\n      dup2\n        /* \"#utility.yul\":6556:6560   */\n      dup2\n        /* \"#utility.yul\":6552:6572   */\n      sub\n        /* \"#utility.yul\":6548:6549   */\n      0x00\n        /* \"#utility.yul\":6537:6546   */\n      dup4\n        /* \"#utility.yul\":6533:6550   */\n      add\n        /* \"#utility.yul\":6526:6573   */\n      mstore\n        /* \"#utility.yul\":6590:6721   */\n      tag_177\n        /* \"#utility.yul\":6716:6720   */\n      dup2\n        /* \"#utility.yul\":6590:6721   */\n      tag_148\n      jump\t// in\n    tag_177:\n        /* \"#utility.yul\":6582:6721   */\n      swap1\n      pop\n        /* \"#utility.yul\":6480:6728   */\n      swap2\n      swap1\n      pop\n      jump\t// out\n        /* \"#utility.yul\":6734:7153   */\n    tag_75:\n      0x00\n        /* \"#utility.yul\":6938:6940   */\n      0x20\n        /* \"#utility.yul\":6927:6936   */\n      dup3\n        /* \"#utility.yul\":6923:6941   */\n      add\n        /* \"#utility.yul\":6915:6941   */\n      swap1\n      pop\n        /* \"#utility.yul\":6987:6996   */\n      dup2\n        /* \"#utility.yul\":6981:6985   */\n      dup2\n        /* \"#utility.yul\":6977:6997   */\n      sub\n        /* \"#utility.yul\":6973:6974   */\n      0x00\n        /* \"#utility.yul\":6962:6971   */\n      dup4\n        /* \"#utility.yul\":6958:6975   */\n      add\n        /* \"#utility.yul\":6951:6998   */\n      mstore\n        /* \"#utility.yul\":7015:7146   */\n      tag_179\n        /* \"#utility.yul\":7141:7145   */\n      dup2\n        /* \"#utility.yul\":7015:7146   */\n      tag_151\n      jump\t// in\n    tag_179:\n        /* \"#utility.yul\":7007:7146   */\n      swap1\n      pop\n        /* \"#utility.yul\":6905:7153   */\n      swap2\n      swap1\n      pop\n      jump\t// out\n        /* \"#utility.yul\":7159:7578   */\n    tag_93:\n      0x00\n        /* \"#utility.yul\":7363:7365   */\n      0x20\n        /* \"#utility.yul\":7352:7361   */\n      dup3\n        /* \"#utility.yul\":7348:7366   */\n      add\n        /* \"#utility.yul\":7340:7366   */\n      swap1\n      pop\n        /* \"#utility.yul\":7412:7421   */\n      dup2\n        /* \"#utility.yul\":7406:7410   */\n      dup2\n        /* \"#utility.yul\":7402:7422   */\n      sub\n        /* \"#utility.yul\":7398:7399   */\n      0x00\n        /* \"#utility.yul\":7387:7396   */\n      dup4\n        /* \"#utility.yul\":7383:7400   */\n      add\n        /* \"#utility.yul\":7376:7423   */\n      mstore\n        /* \"#utility.yul\":7440:7571   */\n      tag_181\n        /* \"#utility.yul\":7566:7570   */\n      dup2\n        /* \"#utility.yul\":7440:7571   */\n      tag_154\n      jump\t// in\n    tag_181:\n        /* \"#utility.yul\":7432:7571   */\n      swap1\n      pop\n        /* \"#utility.yul\":7330:7578   */\n      swap2\n      swap1\n      pop\n      jump\t// out\n        /* \"#utility.yul\":7584:8003   */\n    tag_85:\n      0x00\n        /* \"#utility.yul\":7788:7790   */\n      0x20\n        /* \"#utility.yul\":7777:7786   */\n      dup3\n        /* \"#utility.yul\":7773:7791   */\n      add\n        /* \"#utility.yul\":7765:7791   */\n      swap1\n      pop\n        /* \"#utility.yul\":7837:7846   */\n      dup2\n        /* \"#utility.yul\":7831:7835   */\n      dup2\n        /* \"#utility.yul\":7827:7847   */\n      sub\n        /* \"#utility.yul\":7823:7824   */\n      0x00\n        /* \"#utility.yul\":7812:7821   */\n      dup4\n        /* \"#utility.yul\":7808:7825   */\n      add\n        /* \"#utility.yul\":7801:7848   */\n      mstore\n        /* \"#utility.yul\":7865:7996   */\n      tag_183\n        /* \"#utility.yul\":7991:7995   */\n      dup2\n        /* \"#utility.yul\":7865:7996   */\n      tag_157\n      jump\t// in\n    tag_183:\n        /* \"#utility.yul\":7857:7996   */\n      swap1\n      pop\n        /* \"#utility.yul\":7755:8003   */\n      swap2\n      swap1\n      pop\n      jump\t// out\n        /* \"#utility.yul\":8009:8231   */\n    tag_29:\n      0x00\n        /* \"#utility.yul\":8140:8142   */\n      0x20\n        /* \"#utility.yul\":8129:8138   */\n      dup3\n        /* \"#utility.yul\":8125:8143   */\n      add\n        /* \"#utility.yul\":8117:8143   */\n      swap1\n      pop\n        /* \"#utility.yul\":8153:8224   */\n      tag_185\n        /* \"#utility.yul\":8221:8222   */\n      0x00\n        /* \"#utility.yul\":8210:8219   */\n      dup4\n        /* \"#utility.yul\":8206:8223   */\n      add\n        /* \"#utility.yul\":8197:8203   */\n      dup5\n        /* \"#utility.yul\":8153:8224   */\n      tag_160\n      jump\t// in\n    tag_185:\n        /* \"#utility.yul\":8107:8231   */\n      swap3\n      swap2\n      pop\n      pop\n      jump\t// out\n        /* \"#utility.yul\":8237:8451   */\n    tag_38:\n      0x00\n        /* \"#utility.yul\":8364:8366   */\n      0x20\n        /* \"#utility.yul\":8353:8362   */\n      dup3\n        /* \"#utility.yul\":8349:8367   */\n      add\n        /* \"#utility.yul\":8341:8367   */\n      swap1\n      pop\n        /* \"#utility.yul\":8377:8444   */\n      tag_187\n        /* \"#utility.yul\":8441:8442   */\n      0x00\n        /* \"#utility.yul\":8430:8439   */\n      dup4\n        /* \"#utility.yul\":8426:8443   */\n      add\n        /* \"#utility.yul\":8417:8423   */\n      dup5\n        /* \"#utility.yul\":8377:8444   */\n      tag_164\n      jump\t// in\n    tag_187:\n        /* \"#utility.yul\":8331:8451   */\n      swap3\n      swap2\n      pop\n      pop\n      jump\t// out\n        /* \"#utility.yul\":8457:8556   */\n    tag_135:\n      0x00\n        /* \"#utility.yul\":8543:8548   */\n      dup2\n        /* \"#utility.yul\":8537:8549   */\n      mload\n        /* \"#utility.yul\":8527:8549   */\n      swap1\n      pop\n        /* \"#utility.yul\":8516:8556   */\n      swap2\n      swap1\n      pop\n      jump\t// out\n        /* \"#utility.yul\":8562:8731   */\n    tag_137:\n      0x00\n        /* \"#utility.yul\":8680:8686   */\n      dup3\n        /* \"#utility.yul\":8675:8678   */\n      dup3\n        /* \"#utility.yul\":8668:8687   */\n      mstore\n        /* \"#utility.yul\":8720:8724   */\n      0x20\n        /* \"#utility.yul\":8715:8718   */\n      dup3\n        /* \"#utility.yul\":8711:8725   */\n      add\n        /* \"#utility.yul\":8696:8725   */\n      swap1\n      pop\n        /* \"#utility.yul\":8658:8731   */\n      swap3\n      swap2\n      pop\n      pop\n      jump\t// out\n        /* \"#utility.yul\":8737:9042   */\n    tag_101:\n      0x00\n        /* \"#utility.yul\":8796:8816   */\n      tag_191\n        /* \"#utility.yul\":8814:8815   */\n      dup3\n        /* \"#utility.yul\":8796:8816   */\n      tag_163\n      jump\t// in\n    tag_191:\n        /* \"#utility.yul\":8791:8816   */\n      swap2\n      pop\n        /* \"#utility.yul\":8830:8850   */\n      tag_192\n        /* \"#utility.yul\":8848:8849   */\n      dup4\n        /* \"#utility.yul\":8830:8850   */\n      tag_163\n      jump\t// in\n    tag_192:\n        /* \"#utility.yul\":8825:8850   */\n      swap3\n      pop\n        /* \"#utility.yul\":8984:8985   */\n      dup3\n        /* \"#utility.yul\":8916:8982   */\n      0xffffffffffffffffffffffffffffffffffffffffffffffffffffffffffffffff\n        /* \"#utility.yul\":8912:8986   */\n      sub\n        /* \"#utility.yul\":8909:8910   */\n      dup3\n        /* \"#utility.yul\":8906:8987   */\n      gt\n        /* \"#utility.yul\":8903:8905   */\n      iszero\n      tag_193\n      jumpi\n        /* \"#utility.yul\":8990:9008   */\n      tag_194\n      tag_195\n      jump\t// in\n    tag_194:\n        /* \"#utility.yul\":8903:8905   */\n    tag_193:\n        /* \"#utility.yul\":9034:9035   */\n      dup3\n        /* \"#utility.yul\":9031:9032   */\n      dup3\n        /* \"#utility.yul\":9027:9036   */\n      add\n        /* \"#utility.yul\":9020:9036   */\n      swap1\n      pop\n        /* \"#utility.yul\":8781:9042   */\n      swap3\n      swap2\n      pop\n      pop\n      jump\t// out\n        /* \"#utility.yul\":9048:9144   */\n    tag_196:\n      0x00\n        /* \"#utility.yul\":9114:9138   */\n      tag_198\n        /* \"#utility.yul\":9132:9137   */\n      dup3\n        /* \"#utility.yul\":9114:9138   */\n      tag_199\n      jump\t// in\n    tag_198:\n        /* \"#utility.yul\":9103:9138   */\n      swap1\n      pop\n        /* \"#utility.yul\":9093:9144   */\n      swap2\n      swap1\n      pop\n      jump\t// out\n        /* \"#utility.yul\":9150:9240   */\n    tag_131:\n      0x00\n        /* \"#utility.yul\":9227:9232   */\n      dup2\n        /* \"#utility.yul\":9220:9233   */\n      iszero\n        /* \"#utility.yul\":9213:9234   */\n      iszero\n        /* \"#utility.yul\":9202:9234   */\n      swap1\n      pop\n        /* \"#utility.yul\":9192:9240   */\n      swap2\n      swap1\n      pop\n      jump\t// out\n        /* \"#utility.yul\":9246:9372   */\n    tag_199:\n      0x00\n        /* \"#utility.yul\":9323:9365   */\n      0xffffffffffffffffffffffffffffffffffffffff\n        /* \"#utility.yul\":9316:9321   */\n      dup3\n        /* \"#utility.yul\":9312:9366   */\n      and\n        /* \"#utility.yul\":9301:9366   */\n      swap1\n      pop\n        /* \"#utility.yul\":9291:9372   */\n      swap2\n      swap1\n      pop\n      jump\t// out\n        /* \"#utility.yul\":9378:9455   */\n    tag_163:\n      0x00\n        /* \"#utility.yul\":9444:9449   */\n      dup2\n        /* \"#utility.yul\":9433:9449   */\n      swap1\n      pop\n        /* \"#utility.yul\":9423:9455   */\n      swap2\n      swap1\n      pop\n      jump\t// out\n        /* \"#utility.yul\":9461:9547   */\n    tag_167:\n      0x00\n        /* \"#utility.yul\":9536:9540   */\n      0xff\n        /* \"#utility.yul\":9529:9534   */\n      dup3\n        /* \"#utility.yul\":9525:9541   */\n      and\n        /* \"#utility.yul\":9514:9541   */\n      swap1\n      pop\n        /* \"#utility.yul\":9504:9547   */\n      swap2\n      swap1\n      pop\n      jump\t// out\n        /* \"#utility.yul\":9553:9860   */\n    tag_139:\n        /* \"#utility.yul\":9621:9622   */\n      0x00\n        /* \"#utility.yul\":9631:9744   */\n    tag_205:\n        /* \"#utility.yul\":9645:9651   */\n      dup4\n        /* \"#utility.yul\":9642:9643   */\n      dup2\n        /* \"#utility.yul\":9639:9652   */\n      lt\n        /* \"#utility.yul\":9631:9744   */\n      iszero\n      tag_207\n      jumpi\n        /* \"#utility.yul\":9730:9731   */\n      dup1\n        /* \"#utility.yul\":9725:9728   */\n      dup3\n        /* \"#utility.yul\":9721:9732   */\n      add\n        /* \"#utility.yul\":9715:9733   */\n      mload\n        /* \"#utility.yul\":9711:9712   */\n      dup2\n        /* \"#utility.yul\":9706:9709   */\n      dup5\n        /* \"#utility.yul\":9702:9713   */\n      add\n        /* \"#utility.yul\":9695:9734   */\n      mstore\n        /* \"#utility.yul\":9667:9669   */\n      0x20\n        /* \"#utility.yul\":9664:9665   */\n      dup2\n        /* \"#utility.yul\":9660:9670   */\n      add\n        /* \"#utility.yul\":9655:9670   */\n      swap1\n      pop\n        /* \"#utility.yul\":9631:9744   */\n      jump(tag_205)\n    tag_207:\n        /* \"#utility.yul\":9762:9768   */\n      dup4\n        /* \"#utility.yul\":9759:9760   */\n      dup2\n        /* \"#utility.yul\":9756:9769   */\n      gt\n        /* \"#utility.yul\":9753:9755   */\n      iszero\n      tag_208\n      jumpi\n        /* \"#utility.yul\":9842:9843   */\n      0x00\n        /* \"#utility.yul\":9833:9839   */\n      dup5\n        /* \"#utility.yul\":9828:9831   */\n      dup5\n        /* \"#utility.yul\":9824:9840   */\n      add\n        /* \"#utility.yul\":9817:9844   */\n      mstore\n        /* \"#utility.yul\":9753:9755   */\n    tag_208:\n        /* \"#utility.yul\":9602:9860   */\n      pop\n      pop\n      pop\n      pop\n      jump\t// out\n        /* \"#utility.yul\":9866:10186   */\n    tag_58:\n      0x00\n        /* \"#utility.yul\":9947:9948   */\n      0x02\n        /* \"#utility.yul\":9941:9945   */\n      dup3\n        /* \"#utility.yul\":9937:9949   */\n      div\n        /* \"#utility.yul\":9927:9949   */\n      swap1\n      pop\n        /* \"#utility.yul\":9994:9995   */\n      0x01\n        /* \"#utility.yul\":9988:9992   */\n      dup3\n        /* \"#utility.yul\":9984:9996   */\n      and\n        /* \"#utility.yul\":10015:10033   */\n      dup1\n        /* \"#utility.yul\":10005:10007   */\n      tag_210\n      jumpi\n        /* \"#utility.yul\":10071:10075   */\n      0x7f\n        /* \"#utility.yul\":10063:10069   */\n      dup3\n        /* \"#utility.yul\":10059:10076   */\n      and\n        /* \"#utility.yul\":10049:10076   */\n      swap2\n      pop\n        /* \"#utility.yul\":10005:10007   */\n    tag_210:\n        /* \"#utility.yul\":10133:10135   */\n      0x20\n        /* \"#utility.yul\":10125:10131   */\n      dup3\n        /* \"#utility.yul\":10122:10136   */\n      lt\n        /* \"#utility.yul\":10102:10120   */\n      dup2\n        /* \"#utility.yul\":10099:10137   */\n      eq\n        /* \"#utility.yul\":10096:10098   */\n      iszero\n      tag_211\n      jumpi\n        /* \"#utility.yul\":10152:10170   */\n      tag_212\n      tag_213\n      jump\t// in\n    tag_212:\n        /* \"#utility.yul\":10096:10098   */\n    tag_211:\n        /* \"#utility.yul\":9917:10186   */\n      pop\n      swap2\n      swap1\n      pop\n      jump\t// out\n        /* \"#utility.yul\":10192:10372   */\n    tag_195:\n        /* \"#utility.yul\":10240:10317   */\n      0x4e487b7100000000000000000000000000000000000000000000000000000000\n        /* \"#utility.yul\":10237:10238   */\n      0x00\n        /* \"#utility.yul\":10230:10318   */\n      mstore\n        /* \"#utility.yul\":10337:10341   */\n      0x11\n        /* \"#utility.yul\":10334:10335   */\n      0x04\n        /* \"#utility.yul\":10327:10342   */\n      mstore\n        /* \"#utility.yul\":10361:10365   */\n      0x24\n        /* \"#utility.yul\":10358:10359   */\n      0x00\n        /* \"#utility.yul\":10351:10366   */\n      revert\n        /* \"#utility.yul\":10378:10558   */\n    tag_213:\n        /* \"#utility.yul\":10426:10503   */\n      0x4e487b7100000000000000000000000000000000000000000000000000000000\n        /* \"#utility.yul\":10423:10424   */\n      0x00\n        /* \"#utility.yul\":10416:10504   */\n      mstore\n        /* \"#utility.yul\":10523:10527   */\n      0x22\n        /* \"#utility.yul\":10520:10521   */\n      0x04\n        /* \"#utility.yul\":10513:10528   */\n      mstore\n        /* \"#utility.yul\":10547:10551   */\n      0x24\n        /* \"#utility.yul\":10544:10545   */\n      0x00\n        /* \"#utility.yul\":10537:10552   */\n      revert\n        /* \"#utility.yul\":10564:10666   */\n    tag_141:\n      0x00\n        /* \"#utility.yul\":10656:10658   */\n      0x1f\n        /* \"#utility.yul\":10652:10659   */\n      not\n        /* \"#utility.yul\":10647:10649   */\n      0x1f\n        /* \"#utility.yul\":10640:10645   */\n      dup4\n        /* \"#utility.yul\":10636:10650   */\n      add\n        /* \"#utility.yul\":10632:10660   */\n      and\n        /* \"#utility.yul\":10622:10660   */\n      swap1\n      pop\n        /* \"#utility.yul\":10612:10666   */\n      swap2\n      swap1\n      pop\n      jump\t// out\n        /* \"#utility.yul\":10672:10794   */\n    tag_107:\n        /* \"#utility.yul\":10745:10769   */\n      tag_218\n        /* \"#utility.yul\":10763:10768   */\n      dup2\n        /* \"#utility.yul\":10745:10769   */\n      tag_196\n      jump\t// in\n    tag_218:\n        /* \"#utility.yul\":10738:10743   */\n      dup2\n        /* \"#utility.yul\":10735:10770   */\n      eq\n        /* \"#utility.yul\":10725:10727   */\n      tag_219\n      jumpi\n        /* \"#utility.yul\":10784:10785   */\n      0x00\n        /* \"#utility.yul\":10781:10782   */\n      dup1\n        /* \"#utility.yul\":10774:10786   */\n      revert\n        /* \"#utility.yul\":10725:10727   */\n    tag_219:\n        /* \"#utility.yul\":10715:10794   */\n      pop\n      jump\t// out\n        /* \"#utility.yul\":10800:10922   */\n    tag_111:\n        /* \"#utility.yul\":10873:10897   */\n      tag_221\n        /* \"#utility.yul\":10891:10896   */\n      dup2\n        /* \"#utility.yul\":10873:10897   */\n      tag_163\n      jump\t// in\n    tag_221:\n        /* \"#utility.yul\":10866:10871   */\n      dup2\n        /* \"#utility.yul\":10863:10898   */\n      eq\n        /* \"#utility.yul\":10853:10855   */\n      tag_222\n      jumpi\n        /* \"#utility.yul\":10912:10913   */\n      0x00\n        /* \"#utility.yul\":10909:10910   */\n      dup1\n        /* \"#utility.yul\":10902:10914   */\n      revert\n        /* \"#utility.yul\":10853:10855   */\n    tag_222:\n        /* \"#utility.yul\":10843:10922   */\n      pop\n      jump\t// out\n\n    auxdata: 0xa26469706673582212208b418e83e8b4302a4a19953ba969d5099ee2431ec075884f7ee08c814e5a27cb64736f6c63430008000033\n}\n",
				"bytecode": {
					"linkReferences": {},
					"object": "60806040523480156200001157600080fd5b50604051620013b1380380620013b1833981810160405281019062000037919062000193565b81600390805190602001906200004f92919062000071565b5080600490805190602001906200006892919062000071565b50505062000337565b8280546200007f90620002a3565b90600052602060002090601f016020900481019282620000a35760008555620000ef565b82601f10620000be57805160ff1916838001178555620000ef565b82800160010185558215620000ef579182015b82811115620000ee578251825591602001919060010190620000d1565b5b509050620000fe919062000102565b5090565b5b808211156200011d57600081600090555060010162000103565b5090565b60006200013862000132846200023a565b62000206565b9050828152602081018484840111156200015157600080fd5b6200015e8482856200026d565b509392505050565b600082601f8301126200017857600080fd5b81516200018a84826020860162000121565b91505092915050565b60008060408385031215620001a757600080fd5b600083015167ffffffffffffffff811115620001c257600080fd5b620001d08582860162000166565b925050602083015167ffffffffffffffff811115620001ee57600080fd5b620001fc8582860162000166565b9150509250929050565b6000604051905081810181811067ffffffffffffffff8211171562000230576200022f62000308565b5b8060405250919050565b600067ffffffffffffffff82111562000258576200025762000308565b5b601f19601f8301169050602081019050919050565b60005b838110156200028d57808201518184015260208101905062000270565b838111156200029d576000848401525b50505050565b60006002820490506001821680620002bc57607f821691505b60208210811415620002d357620002d2620002d9565b5b50919050565b7f4e487b7100000000000000000000000000000000000000000000000000000000600052602260045260246000fd5b7f4e487b7100000000000000000000000000000000000000000000000000000000600052604160045260246000fd5b61106a80620003476000396000f3fe608060405234801561001057600080fd5b50600436106100935760003560e01c806323b872dd1161006657806323b872dd14610122578063313ce5671461015257806370a0823114610170578063a9059cbb146101a0578063dd62ed3e146101d057610093565b8063095ea7b31461009857806315070401146100c857806317d7de7c146100e657806318160ddd14610104575b600080fd5b6100b260048036038101906100ad9190610a32565b610200565b6040516100bf9190610d38565b60405180910390f35b6100d0610217565b6040516100dd9190610d53565b60405180910390f35b6100ee6102a9565b6040516100fb9190610d53565b60405180910390f35b61010c61033b565b6040516101199190610e35565b60405180910390f35b61013c600480360381019061013791906109e3565b610345565b6040516101499190610d38565b60405180910390f35b61015a61042f565b6040516101679190610e50565b60405180910390f35b61018a6004803603810190610185919061097e565b610438565b6040516101979190610e35565b60405180910390f35b6101ba60048036038101906101b59190610a32565b610480565b6040516101c79190610d38565b60405180910390f35b6101ea60048036038101906101e591906109a7565b610497565b6040516101f79190610e35565b60405180910390f35b600061020d33848461051e565b6001905092915050565b60606004805461022690610f65565b80601f016020809104026020016040519081016040528092919081815260200182805461025290610f65565b801561029f5780601f106102745761010080835404028352916020019161029f565b820191906000526020600020905b81548152906001019060200180831161028257829003601f168201915b5050505050905090565b6060600380546102b890610f65565b80601f01602080910402602001604051908101604052809291908181526020018280546102e490610f65565b80156103315780601f1061030657610100808354040283529160200191610331565b820191906000526020600020905b81548152906001019060200180831161031457829003601f168201915b5050505050905090565b6000600254905090565b60006103528484846106e9565b6000600160008673ffffffffffffffffffffffffffffffffffffffff1673ffffffffffffffffffffffffffffffffffffffff16815260200190815260200160002060003373ffffffffffffffffffffffffffffffffffffffff1673ffffffffffffffffffffffffffffffffffffffff16815260200190815260200160002054905082811015610416576040517f08c379a000000000000000000000000000000000000000000000000000000000815260040161040d90610dd5565b60405180910390fd5b610423853385840361051e565b60019150509392505050565b60006012905090565b60008060008373ffffffffffffffffffffffffffffffffffffffff1673ffffffffffffffffffffffffffffffffffffffff168152602001908152602001600020549050919050565b600061048d3384846106e9565b6001905092915050565b6000600160008473ffffffffffffffffffffffffffffffffffffffff1673ffffffffffffffffffffffffffffffffffffffff16815260200190815260200160002060008373ffffffffffffffffffffffffffffffffffffffff1673ffffffffffffffffffffffffffffffffffffffff16815260200190815260200160002054905092915050565b600073ffffffffffffffffffffffffffffffffffffffff168373ffffffffffffffffffffffffffffffffffffffff16141561058e576040517f08c379a000000000000000000000000000000000000000000000000000000000815260040161058590610e15565b60405180910390fd5b600073ffffffffffffffffffffffffffffffffffffffff168273ffffffffffffffffffffffffffffffffffffffff1614156105fe576040517f08c379a00000000000000000000000000000000000000000000000000000000081526004016105f590610d95565b60405180910390fd5b80600160008573ffffffffffffffffffffffffffffffffffffffff1673ffffffffffffffffffffffffffffffffffffffff16815260200190815260200160002060008473ffffffffffffffffffffffffffffffffffffffff1673ffffffffffffffffffffffffffffffffffffffff168152602001908152602001600020819055508173ffffffffffffffffffffffffffffffffffffffff168373ffffffffffffffffffffffffffffffffffffffff167f8c5be1e5ebec7d5bd14f71427d1e84f3dd0314c0f7b2291e5b200ac8c7c3b925836040516106dc9190610e35565b60405180910390a3505050565b600073ffffffffffffffffffffffffffffffffffffffff168373ffffffffffffffffffffffffffffffffffffffff161415610759576040517f08c379a000000000000000000000000000000000000000000000000000000000815260040161075090610df5565b60405180910390fd5b600073ffffffffffffffffffffffffffffffffffffffff168273ffffffffffffffffffffffffffffffffffffffff1614156107c9576040517f08c379a00000000000000000000000000000000000000000000000000000000081526004016107c090610d75565b60405180910390fd5b60008060008573ffffffffffffffffffffffffffffffffffffffff1673ffffffffffffffffffffffffffffffffffffffff1681526020019081526020016000205490508181101561084f576040517f08c379a000000000000000000000000000000000000000000000000000000000815260040161084690610db5565b60405180910390fd5b8181036000808673ffffffffffffffffffffffffffffffffffffffff1673ffffffffffffffffffffffffffffffffffffffff16815260200190815260200160002081905550816000808573ffffffffffffffffffffffffffffffffffffffff1673ffffffffffffffffffffffffffffffffffffffff16815260200190815260200160002060008282546108e29190610e87565b925050819055508273ffffffffffffffffffffffffffffffffffffffff168473ffffffffffffffffffffffffffffffffffffffff167fddf252ad1be2c89b69c2b068fc378daa952ba7f163c4a11628f55a4df523b3ef846040516109469190610e35565b60405180910390a350505050565b60008135905061096381611006565b92915050565b6000813590506109788161101d565b92915050565b60006020828403121561099057600080fd5b600061099e84828501610954565b91505092915050565b600080604083850312156109ba57600080fd5b60006109c885828601610954565b92505060206109d985828601610954565b9150509250929050565b6000806000606084860312156109f857600080fd5b6000610a0686828701610954565b9350506020610a1786828701610954565b9250506040610a2886828701610969565b9150509250925092565b60008060408385031215610a4557600080fd5b6000610a5385828601610954565b9250506020610a6485828601610969565b9150509250929050565b610a7781610eef565b82525050565b6000610a8882610e6b565b610a928185610e76565b9350610aa2818560208601610f32565b610aab81610ff5565b840191505092915050565b6000610ac3602383610e76565b91507f45524332303a207472616e7366657220746f20746865207a65726f206164647260008301527f65737300000000000000000000000000000000000000000000000000000000006020830152604082019050919050565b6000610b29602283610e76565b91507f45524332303a20617070726f766520746f20746865207a65726f20616464726560008301527f73730000000000000000000000000000000000000000000000000000000000006020830152604082019050919050565b6000610b8f602683610e76565b91507f45524332303a207472616e7366657220616d6f756e742065786365656473206260008301527f616c616e636500000000000000000000000000000000000000000000000000006020830152604082019050919050565b6000610bf5602883610e76565b91507f45524332303a207472616e7366657220616d6f756e742065786365656473206160008301527f6c6c6f77616e63650000000000000000000000000000000000000000000000006020830152604082019050919050565b6000610c5b602583610e76565b91507f45524332303a207472616e736665722066726f6d20746865207a65726f20616460008301527f64726573730000000000000000000000000000000000000000000000000000006020830152604082019050919050565b6000610cc1602483610e76565b91507f45524332303a20617070726f76652066726f6d20746865207a65726f2061646460008301527f72657373000000000000000000000000000000000000000000000000000000006020830152604082019050919050565b610d2381610f1b565b82525050565b610d3281610f25565b82525050565b6000602082019050610d4d6000830184610a6e565b92915050565b60006020820190508181036000830152610d6d8184610a7d565b905092915050565b60006020820190508181036000830152610d8e81610ab6565b9050919050565b60006020820190508181036000830152610dae81610b1c565b9050919050565b60006020820190508181036000830152610dce81610b82565b9050919050565b60006020820190508181036000830152610dee81610be8565b9050919050565b60006020820190508181036000830152610e0e81610c4e565b9050919050565b60006020820190508181036000830152610e2e81610cb4565b9050919050565b6000602082019050610e4a6000830184610d1a565b92915050565b6000602082019050610e656000830184610d29565b92915050565b600081519050919050565b600082825260208201905092915050565b6000610e9282610f1b565b9150610e9d83610f1b565b9250827fffffffffffffffffffffffffffffffffffffffffffffffffffffffffffffffff03821115610ed257610ed1610f97565b5b828201905092915050565b6000610ee882610efb565b9050919050565b60008115159050919050565b600073ffffffffffffffffffffffffffffffffffffffff82169050919050565b6000819050919050565b600060ff82169050919050565b60005b83811015610f50578082015181840152602081019050610f35565b83811115610f5f576000848401525b50505050565b60006002820490506001821680610f7d57607f821691505b60208210811415610f9157610f90610fc6565b5b50919050565b7f4e487b7100000000000000000000000000000000000000000000000000000000600052601160045260246000fd5b7f4e487b7100000000000000000000000000000000000000000000000000000000600052602260045260246000fd5b6000601f19601f8301169050919050565b61100f81610edd565b811461101a57600080fd5b50565b61102681610f1b565b811461103157600080fd5b5056fea26469706673582212208b418e83e8b4302a4a19953ba969d5099ee2431ec075884f7ee08c814e5a27cb64736f6c63430008000033",
					"opcodes": "PUSH1 0x80 PUSH1 0x40 MSTORE CALLVALUE DUP1 ISZERO PUSH3 0x11 JUMPI PUSH1 0x0 DUP1 REVERT JUMPDEST POP PUSH1 0x40 MLOAD PUSH3 0x13B1 CODESIZE SUB DUP1 PUSH3 0x13B1 DUP4 CODECOPY DUP2 DUP2 ADD PUSH1 0x40 MSTORE DUP2 ADD SWAP1 PUSH3 0x37 SWAP2 SWAP1 PUSH3 0x193 JUMP JUMPDEST DUP2 PUSH1 0x3 SWAP1 DUP1 MLOAD SWAP1 PUSH1 0x20 ADD SWAP1 PUSH3 0x4F SWAP3 SWAP2 SWAP1 PUSH3 0x71 JUMP JUMPDEST POP DUP1 PUSH1 0x4 SWAP1 DUP1 MLOAD SWAP1 PUSH1 0x20 ADD SWAP1 PUSH3 0x68 SWAP3 SWAP2 SWAP1 PUSH3 0x71 JUMP JUMPDEST POP POP POP PUSH3 0x337 JUMP JUMPDEST DUP3 DUP1 SLOAD PUSH3 0x7F SWAP1 PUSH3 0x2A3 JUMP JUMPDEST SWAP1 PUSH1 0x0 MSTORE PUSH1 0x20 PUSH1 0x0 KECCAK256 SWAP1 PUSH1 0x1F ADD PUSH1 0x20 SWAP1 DIV DUP2 ADD SWAP3 DUP3 PUSH3 0xA3 JUMPI PUSH1 0x0 DUP6 SSTORE PUSH3 0xEF JUMP JUMPDEST DUP3 PUSH1 0x1F LT PUSH3 0xBE JUMPI DUP1 MLOAD PUSH1 0xFF NOT AND DUP4 DUP1 ADD OR DUP6 SSTORE PUSH3 0xEF JUMP JUMPDEST DUP3 DUP1 ADD PUSH1 0x1 ADD DUP6 SSTORE DUP3 ISZERO PUSH3 0xEF JUMPI SWAP2 DUP3 ADD JUMPDEST DUP3 DUP2 GT ISZERO PUSH3 0xEE JUMPI DUP3 MLOAD DUP3 SSTORE SWAP2 PUSH1 0x20 ADD SWAP2 SWAP1 PUSH1 0x1 ADD SWAP1 PUSH3 0xD1 JUMP JUMPDEST JUMPDEST POP SWAP1 POP PUSH3 0xFE SWAP2 SWAP1 PUSH3 0x102 JUMP JUMPDEST POP SWAP1 JUMP JUMPDEST JUMPDEST DUP1 DUP3 GT ISZERO PUSH3 0x11D JUMPI PUSH1 0x0 DUP2 PUSH1 0x0 SWAP1 SSTORE POP PUSH1 0x1 ADD PUSH3 0x103 JUMP JUMPDEST POP SWAP1 JUMP JUMPDEST PUSH1 0x0 PUSH3 0x138 PUSH3 0x132 DUP5 PUSH3 0x23A JUMP JUMPDEST PUSH3 0x206 JUMP JUMPDEST SWAP1 POP DUP3 DUP2 MSTORE PUSH1 0x20 DUP2 ADD DUP5 DUP5 DUP5 ADD GT ISZERO PUSH3 0x151 JUMPI PUSH1 0x0 DUP1 REVERT JUMPDEST PUSH3 0x15E DUP5 DUP3 DUP6 PUSH3 0x26D JUMP JUMPDEST POP SWAP4 SWAP3 POP POP POP JUMP JUMPDEST PUSH1 0x0 DUP3 PUSH1 0x1F DUP4 ADD SLT PUSH3 0x178 JUMPI PUSH1 0x0 DUP1 REVERT JUMPDEST DUP2 MLOAD PUSH3 0x18A DUP5 DUP3 PUSH1 0x20 DUP7 ADD PUSH3 0x121 JUMP JUMPDEST SWAP2 POP POP SWAP3 SWAP2 POP POP JUMP JUMPDEST PUSH1 0x0 DUP1 PUSH1 0x40 DUP4 DUP6 SUB SLT ISZERO PUSH3 0x1A7 JUMPI PUSH1 0x0 DUP1 REVERT JUMPDEST PUSH1 0x0 DUP4 ADD MLOAD PUSH8 0xFFFFFFFFFFFFFFFF DUP2 GT ISZERO PUSH3 0x1C2 JUMPI PUSH1 0x0 DUP1 REVERT JUMPDEST PUSH3 0x1D0 DUP6 DUP3 DUP7 ADD PUSH3 0x166 JUMP JUMPDEST SWAP3 POP POP PUSH1 0x20 DUP4 ADD MLOAD PUSH8 0xFFFFFFFFFFFFFFFF DUP2 GT ISZERO PUSH3 0x1EE JUMPI PUSH1 0x0 DUP1 REVERT JUMPDEST PUSH3 0x1FC DUP6 DUP3 DUP7 ADD PUSH3 0x166 JUMP JUMPDEST SWAP2 POP POP SWAP3 POP SWAP3 SWAP1 POP JUMP JUMPDEST PUSH1 0x0 PUSH1 0x40 MLOAD SWAP1 POP DUP2 DUP2 ADD DUP2 DUP2 LT PUSH8 0xFFFFFFFFFFFFFFFF DUP3 GT OR ISZERO PUSH3 0x230 JUMPI PUSH3 0x22F PUSH3 0x308 JUMP JUMPDEST JUMPDEST DUP1 PUSH1 0x40 MSTORE POP SWAP2 SWAP1 POP JUMP JUMPDEST PUSH1 0x0 PUSH8 0xFFFFFFFFFFFFFFFF DUP3 GT ISZERO PUSH3 0x258 JUMPI PUSH3 0x257 PUSH3 0x308 JUMP JUMPDEST JUMPDEST PUSH1 0x1F NOT PUSH1 0x1F DUP4 ADD AND SWAP1 POP PUSH1 0x20 DUP2 ADD SWAP1 POP SWAP2 SWAP1 POP JUMP JUMPDEST PUSH1 0x0 JUMPDEST DUP4 DUP2 LT ISZERO PUSH3 0x28D JUMPI DUP1 DUP3 ADD MLOAD DUP2 DUP5 ADD MSTORE PUSH1 0x20 DUP2 ADD SWAP1 POP PUSH3 0x270 JUMP JUMPDEST DUP4 DUP2 GT ISZERO PUSH3 0x29D JUMPI PUSH1 0x0 DUP5 DUP5 ADD MSTORE JUMPDEST POP POP POP POP JUMP JUMPDEST PUSH1 0x0 PUSH1 0x2 DUP3 DIV SWAP1 POP PUSH1 0x1 DUP3 AND DUP1 PUSH3 0x2BC JUMPI PUSH1 0x7F DUP3 AND SWAP2 POP JUMPDEST PUSH1 0x20 DUP3 LT DUP2 EQ ISZERO PUSH3 0x2D3 JUMPI PUSH3 0x2D2 PUSH3 0x2D9 JUMP JUMPDEST JUMPDEST POP SWAP2 SWAP1 POP JUMP JUMPDEST PUSH32 0x4E487B7100000000000000000000000000000000000000000000000000000000 PUSH1 0x0 MSTORE PUSH1 0x22 PUSH1 0x4 MSTORE PUSH1 0x24 PUSH1 0x0 REVERT JUMPDEST PUSH32 0x4E487B7100000000000000000000000000000000000000000000000000000000 PUSH1 0x0 MSTORE PUSH1 0x41 PUSH1 0x4 MSTORE PUSH1 0x24 PUSH1 0x0 REVERT JUMPDEST PUSH2 0x106A DUP1 PUSH3 0x347 PUSH1 0x0 CODECOPY PUSH1 0x0 RETURN INVALID PUSH1 0x80 PUSH1 0x40 MSTORE CALLVALUE DUP1 ISZERO PUSH2 0x10 JUMPI PUSH1 0x0 DUP1 REVERT JUMPDEST POP PUSH1 0x4 CALLDATASIZE LT PUSH2 0x93 JUMPI PUSH1 0x0 CALLDATALOAD PUSH1 0xE0 SHR DUP1 PUSH4 0x23B872DD GT PUSH2 0x66 JUMPI DUP1 PUSH4 0x23B872DD EQ PUSH2 0x122 JUMPI DUP1 PUSH4 0x313CE567 EQ PUSH2 0x152 JUMPI DUP1 PUSH4 0x70A08231 EQ PUSH2 0x170 JUMPI DUP1 PUSH4 0xA9059CBB EQ PUSH2 0x1A0 JUMPI DUP1 PUSH4 0xDD62ED3E EQ PUSH2 0x1D0 JUMPI PUSH2 0x93 JUMP JUMPDEST DUP1 PUSH4 0x95EA7B3 EQ PUSH2 0x98 JUMPI DUP1 PUSH4 0x15070401 EQ PUSH2 0xC8 JUMPI DUP1 PUSH4 0x17D7DE7C EQ PUSH2 0xE6 JUMPI DUP1 PUSH4 0x18160DDD EQ PUSH2 0x104 JUMPI JUMPDEST PUSH1 0x0 DUP1 REVERT JUMPDEST PUSH2 0xB2 PUSH1 0x4 DUP1 CALLDATASIZE SUB DUP2 ADD SWAP1 PUSH2 0xAD SWAP2 SWAP1 PUSH2 0xA32 JUMP JUMPDEST PUSH2 0x200 JUMP JUMPDEST PUSH1 0x40 MLOAD PUSH2 0xBF SWAP2 SWAP1 PUSH2 0xD38 JUMP JUMPDEST PUSH1 0x40 MLOAD DUP1 SWAP2 SUB SWAP1 RETURN JUMPDEST PUSH2 0xD0 PUSH2 0x217 JUMP JUMPDEST PUSH1 0x40 MLOAD PUSH2 0xDD SWAP2 SWAP1 PUSH2 0xD53 JUMP JUMPDEST PUSH1 0x40 MLOAD DUP1 SWAP2 SUB SWAP1 RETURN JUMPDEST PUSH2 0xEE PUSH2 0x2A9 JUMP JUMPDEST PUSH1 0x40 MLOAD PUSH2 0xFB SWAP2 SWAP1 PUSH2 0xD53 JUMP JUMPDEST PUSH1 0x40 MLOAD DUP1 SWAP2 SUB SWAP1 RETURN JUMPDEST PUSH2 0x10C PUSH2 0x33B JUMP JUMPDEST PUSH1 0x40 MLOAD PUSH2 0x119 SWAP2 SWAP1 PUSH2 0xE35 JUMP JUMPDEST PUSH1 0x40 MLOAD DUP1 SWAP2 SUB SWAP1 RETURN JUMPDEST PUSH2 0x13C PUSH1 0x4 DUP1 CALLDATASIZE SUB DUP2 ADD SWAP1 PUSH2 0x137 SWAP2 SWAP1 PUSH2 0x9E3 JUMP JUMPDEST PUSH2 0x345 JUMP JUMPDEST PUSH1 0x40 MLOAD PUSH2 0x149 SWAP2 SWAP1 PUSH2 0xD38 JUMP JUMPDEST PUSH1 0x40 MLOAD DUP1 SWAP2 SUB SWAP1 RETURN JUMPDEST PUSH2 0x15A PUSH2 0x42F JUMP JUMPDEST PUSH1 0x40 MLOAD PUSH2 0x167 SWAP2 SWAP1 PUSH2 0xE50 JUMP JUMPDEST PUSH1 0x40 MLOAD DUP1 SWAP2 SUB SWAP1 RETURN JUMPDEST PUSH2 0x18A PUSH1 0x4 DUP1 CALLDATASIZE SUB DUP2 ADD SWAP1 PUSH2 0x185 SWAP2 SWAP1 PUSH2 0x97E JUMP JUMPDEST PUSH2 0x438 JUMP JUMPDEST PUSH1 0x40 MLOAD PUSH2 0x197 SWAP2 SWAP1 PUSH2 0xE35 JUMP JUMPDEST PUSH1 0x40 MLOAD DUP1 SWAP2 SUB SWAP1 RETURN JUMPDEST PUSH2 0x1BA PUSH1 0x4 DUP1 CALLDATASIZE SUB DUP2 ADD SWAP1 PUSH2 0x1B5 SWAP2 SWAP1 PUSH2 0xA32 JUMP JUMPDEST PUSH2 0x480 JUMP JUMPDEST PUSH1 0x40 MLOAD PUSH2 0x1C7 SWAP2 SWAP1 PUSH2 0xD38 JUMP JUMPDEST PUSH1 0x40 MLOAD DUP1 SWAP2 SUB SWAP1 RETURN JUMPDEST PUSH2 0x1EA PUSH1 0x4 DUP1 CALLDATASIZE SUB DUP2 ADD SWAP1 PUSH2 0x1E5 SWAP2 SWAP1 PUSH2 0x9A7 JUMP JUMPDEST PUSH2 0x497 JUMP JUMPDEST PUSH1 0x40 MLOAD PUSH2 0x1F7 SWAP2 SWAP1 PUSH2 0xE35 JUMP JUMPDEST PUSH1 0x40 MLOAD DUP1 SWAP2 SUB SWAP1 RETURN JUMPDEST PUSH1 0x0 PUSH2 0x20D CALLER DUP5 DUP5 PUSH2 0x51E JUMP JUMPDEST PUSH1 0x1 SWAP1 POP SWAP3 SWAP2 POP POP JUMP JUMPDEST PUSH1 0x60 PUSH1 0x4 DUP1 SLOAD PUSH2 0x226 SWAP1 PUSH2 0xF65 JUMP JUMPDEST DUP1 PUSH1 0x1F ADD PUSH1 0x20 DUP1 SWAP2 DIV MUL PUSH1 0x20 ADD PUSH1 0x40 MLOAD SWAP1 DUP2 ADD PUSH1 0x40 MSTORE DUP1 SWAP3 SWAP2 SWAP1 DUP2 DUP2 MSTORE PUSH1 0x20 ADD DUP3 DUP1 SLOAD PUSH2 0x252 SWAP1 PUSH2 0xF65 JUMP JUMPDEST DUP1 ISZERO PUSH2 0x29F JUMPI DUP1 PUSH1 0x1F LT PUSH2 0x274 JUMPI PUSH2 0x100 DUP1 DUP4 SLOAD DIV MUL DUP4 MSTORE SWAP2 PUSH1 0x20 ADD SWAP2 PUSH2 0x29F JUMP JUMPDEST DUP3 ADD SWAP2 SWAP1 PUSH1 0x0 MSTORE PUSH1 0x20 PUSH1 0x0 KECCAK256 SWAP1 JUMPDEST DUP2 SLOAD DUP2 MSTORE SWAP1 PUSH1 0x1 ADD SWAP1 PUSH1 0x20 ADD DUP1 DUP4 GT PUSH2 0x282 JUMPI DUP3 SWAP1 SUB PUSH1 0x1F AND DUP3 ADD SWAP2 JUMPDEST POP POP POP POP POP SWAP1 POP SWAP1 JUMP JUMPDEST PUSH1 0x60 PUSH1 0x3 DUP1 SLOAD PUSH2 0x2B8 SWAP1 PUSH2 0xF65 JUMP JUMPDEST DUP1 PUSH1 0x1F ADD PUSH1 0x20 DUP1 SWAP2 DIV MUL PUSH1 0x20 ADD PUSH1 0x40 MLOAD SWAP1 DUP2 ADD PUSH1 0x40 MSTORE DUP1 SWAP3 SWAP2 SWAP1 DUP2 DUP2 MSTORE PUSH1 0x20 ADD DUP3 DUP1 SLOAD PUSH2 0x2E4 SWAP1 PUSH2 0xF65 JUMP JUMPDEST DUP1 ISZERO PUSH2 0x331 JUMPI DUP1 PUSH1 0x1F LT PUSH2 0x306 JUMPI PUSH2 0x100 DUP1 DUP4 SLOAD DIV MUL DUP4 MSTORE SWAP2 PUSH1 0x20 ADD SWAP2 PUSH2 0x331 JUMP JUMPDEST DUP3 ADD SWAP2 SWAP1 PUSH1 0x0 MSTORE PUSH1 0x20 PUSH1 0x0 KECCAK256 SWAP1 JUMPDEST DUP2 SLOAD DUP2 MSTORE SWAP1 PUSH1 0x1 ADD SWAP1 PUSH1 0x20 ADD DUP1 DUP4 GT PUSH2 0x314 JUMPI DUP3 SWAP1 SUB PUSH1 0x1F AND DUP3 ADD SWAP2 JUMPDEST POP POP POP POP POP SWAP1 POP SWAP1 JUMP JUMPDEST PUSH1 0x0 PUSH1 0x2 SLOAD SWAP1 POP SWAP1 JUMP JUMPDEST PUSH1 0x0 PUSH2 0x352 DUP5 DUP5 DUP5 PUSH2 0x6E9 JUMP JUMPDEST PUSH1 0x0 PUSH1 0x1 PUSH1 0x0 DUP7 PUSH20 0xFFFFFFFFFFFFFFFFFFFFFFFFFFFFFFFFFFFFFFFF AND PUSH20 0xFFFFFFFFFFFFFFFFFFFFFFFFFFFFFFFFFFFFFFFF AND DUP2 MSTORE PUSH1 0x20 ADD SWAP1 DUP2 MSTORE PUSH1 0x20 ADD PUSH1 0x0 KECCAK256 PUSH1 0x0 CALLER PUSH20 0xFFFFFFFFFFFFFFFFFFFFFFFFFFFFFFFFFFFFFFFF AND PUSH20 0xFFFFFFFFFFFFFFFFFFFFFFFFFFFFFFFFFFFFFFFF AND DUP2 MSTORE PUSH1 0x20 ADD SWAP1 DUP2 MSTORE PUSH1 0x20 ADD PUSH1 0x0 KECCAK256 SLOAD SWAP1 POP DUP3 DUP2 LT ISZERO PUSH2 0x416 JUMPI PUSH1 0x40 MLOAD PUSH32 0x8C379A000000000000000000000000000000000000000000000000000000000 DUP2 MSTORE PUSH1 0x4 ADD PUSH2 0x40D SWAP1 PUSH2 0xDD5 JUMP JUMPDEST PUSH1 0x40 MLOAD DUP1 SWAP2 SUB SWAP1 REVERT JUMPDEST PUSH2 0x423 DUP6 CALLER DUP6 DUP5 SUB PUSH2 0x51E JUMP JUMPDEST PUSH1 0x1 SWAP2 POP POP SWAP4 SWAP3 POP POP POP JUMP JUMPDEST PUSH1 0x0 PUSH1 0x12 SWAP1 POP SWAP1 JUMP JUMPDEST PUSH1 0x0 DUP1 PUSH1 0x0 DUP4 PUSH20 0xFFFFFFFFFFFFFFFFFFFFFFFFFFFFFFFFFFFFFFFF AND PUSH20 0xFFFFFFFFFFFFFFFFFFFFFFFFFFFFFFFFFFFFFFFF AND DUP2 MSTORE PUSH1 0x20 ADD SWAP1 DUP2 MSTORE PUSH1 0x20 ADD PUSH1 0x0 KECCAK256 SLOAD SWAP1 POP SWAP2 SWAP1 POP JUMP JUMPDEST PUSH1 0x0 PUSH2 0x48D CALLER DUP5 DUP5 PUSH2 0x6E9 JUMP JUMPDEST PUSH1 0x1 SWAP1 POP SWAP3 SWAP2 POP POP JUMP JUMPDEST PUSH1 0x0 PUSH1 0x1 PUSH1 0x0 DUP5 PUSH20 0xFFFFFFFFFFFFFFFFFFFFFFFFFFFFFFFFFFFFFFFF AND PUSH20 0xFFFFFFFFFFFFFFFFFFFFFFFFFFFFFFFFFFFFFFFF AND DUP2 MSTORE PUSH1 0x20 ADD SWAP1 DUP2 MSTORE PUSH1 0x20 ADD PUSH1 0x0 KECCAK256 PUSH1 0x0 DUP4 PUSH20 0xFFFFFFFFFFFFFFFFFFFFFFFFFFFFFFFFFFFFFFFF AND PUSH20 0xFFFFFFFFFFFFFFFFFFFFFFFFFFFFFFFFFFFFFFFF AND DUP2 MSTORE PUSH1 0x20 ADD SWAP1 DUP2 MSTORE PUSH1 0x20 ADD PUSH1 0x0 KECCAK256 SLOAD SWAP1 POP SWAP3 SWAP2 POP POP JUMP JUMPDEST PUSH1 0x0 PUSH20 0xFFFFFFFFFFFFFFFFFFFFFFFFFFFFFFFFFFFFFFFF AND DUP4 PUSH20 0xFFFFFFFFFFFFFFFFFFFFFFFFFFFFFFFFFFFFFFFF AND EQ ISZERO PUSH2 0x58E JUMPI PUSH1 0x40 MLOAD PUSH32 0x8C379A000000000000000000000000000000000000000000000000000000000 DUP2 MSTORE PUSH1 0x4 ADD PUSH2 0x585 SWAP1 PUSH2 0xE15 JUMP JUMPDEST PUSH1 0x40 MLOAD DUP1 SWAP2 SUB SWAP1 REVERT JUMPDEST PUSH1 0x0 PUSH20 0xFFFFFFFFFFFFFFFFFFFFFFFFFFFFFFFFFFFFFFFF AND DUP3 PUSH20 0xFFFFFFFFFFFFFFFFFFFFFFFFFFFFFFFFFFFFFFFF AND EQ ISZERO PUSH2 0x5FE JUMPI PUSH1 0x40 MLOAD PUSH32 0x8C379A000000000000000000000000000000000000000000000000000000000 DUP2 MSTORE PUSH1 0x4 ADD PUSH2 0x5F5 SWAP1 PUSH2 0xD95 JUMP JUMPDEST PUSH1 0x40 MLOAD DUP1 SWAP2 SUB SWAP1 REVERT JUMPDEST DUP1 PUSH1 0x1 PUSH1 0x0 DUP6 PUSH20 0xFFFFFFFFFFFFFFFFFFFFFFFFFFFFFFFFFFFFFFFF AND PUSH20 0xFFFFFFFFFFFFFFFFFFFFFFFFFFFFFFFFFFFFFFFF AND DUP2 MSTORE PUSH1 0x20 ADD SWAP1 DUP2 MSTORE PUSH1 0x20 ADD PUSH1 0x0 KECCAK256 PUSH1 0x0 DUP5 PUSH20 0xFFFFFFFFFFFFFFFFFFFFFFFFFFFFFFFFFFFFFFFF AND PUSH20 0xFFFFFFFFFFFFFFFFFFFFFFFFFFFFFFFFFFFFFFFF AND DUP2 MSTORE PUSH1 0x20 ADD SWAP1 DUP2 MSTORE PUSH1 0x20 ADD PUSH1 0x0 KECCAK256 DUP2 SWAP1 SSTORE POP DUP2 PUSH20 0xFFFFFFFFFFFFFFFFFFFFFFFFFFFFFFFFFFFFFFFF AND DUP4 PUSH20 0xFFFFFFFFFFFFFFFFFFFFFFFFFFFFFFFFFFFFFFFF AND PUSH32 0x8C5BE1E5EBEC7D5BD14F71427D1E84F3DD0314C0F7B2291E5B200AC8C7C3B925 DUP4 PUSH1 0x40 MLOAD PUSH2 0x6DC SWAP2 SWAP1 PUSH2 0xE35 JUMP JUMPDEST PUSH1 0x40 MLOAD DUP1 SWAP2 SUB SWAP1 LOG3 POP POP POP JUMP JUMPDEST PUSH1 0x0 PUSH20 0xFFFFFFFFFFFFFFFFFFFFFFFFFFFFFFFFFFFFFFFF AND DUP4 PUSH20 0xFFFFFFFFFFFFFFFFFFFFFFFFFFFFFFFFFFFFFFFF AND EQ ISZERO PUSH2 0x759 JUMPI PUSH1 0x40 MLOAD PUSH32 0x8C379A000000000000000000000000000000000000000000000000000000000 DUP2 MSTORE PUSH1 0x4 ADD PUSH2 0x750 SWAP1 PUSH2 0xDF5 JUMP JUMPDEST PUSH1 0x40 MLOAD DUP1 SWAP2 SUB SWAP1 REVERT JUMPDEST PUSH1 0x0 PUSH20 0xFFFFFFFFFFFFFFFFFFFFFFFFFFFFFFFFFFFFFFFF AND DUP3 PUSH20 0xFFFFFFFFFFFFFFFFFFFFFFFFFFFFFFFFFFFFFFFF AND EQ ISZERO PUSH2 0x7C9 JUMPI PUSH1 0x40 MLOAD PUSH32 0x8C379A000000000000000000000000000000000000000000000000000000000 DUP2 MSTORE PUSH1 0x4 ADD PUSH2 0x7C0 SWAP1 PUSH2 0xD75 JUMP JUMPDEST PUSH1 0x40 MLOAD DUP1 SWAP2 SUB SWAP1 REVERT JUMPDEST PUSH1 0x0 DUP1 PUSH1 0x0 DUP6 PUSH20 0xFFFFFFFFFFFFFFFFFFFFFFFFFFFFFFFFFFFFFFFF AND PUSH20 0xFFFFFFFFFFFFFFFFFFFFFFFFFFFFFFFFFFFFFFFF AND DUP2 MSTORE PUSH1 0x20 ADD SWAP1 DUP2 MSTORE PUSH1 0x20 ADD PUSH1 0x0 KECCAK256 SLOAD SWAP1 POP DUP2 DUP2 LT ISZERO PUSH2 0x84F JUMPI PUSH1 0x40 MLOAD PUSH32 0x8C379A000000000000000000000000000000000000000000000000000000000 DUP2 MSTORE PUSH1 0x4 ADD PUSH2 0x846 SWAP1 PUSH2 0xDB5 JUMP JUMPDEST PUSH1 0x40 MLOAD DUP1 SWAP2 SUB SWAP1 REVERT JUMPDEST DUP2 DUP2 SUB PUSH1 0x0 DUP1 DUP7 PUSH20 0xFFFFFFFFFFFFFFFFFFFFFFFFFFFFFFFFFFFFFFFF AND PUSH20 0xFFFFFFFFFFFFFFFFFFFFFFFFFFFFFFFFFFFFFFFF AND DUP2 MSTORE PUSH1 0x20 ADD SWAP1 DUP2 MSTORE PUSH1 0x20 ADD PUSH1 0x0 KECCAK256 DUP2 SWAP1 SSTORE POP DUP2 PUSH1 0x0 DUP1 DUP6 PUSH20 0xFFFFFFFFFFFFFFFFFFFFFFFFFFFFFFFFFFFFFFFF AND PUSH20 0xFFFFFFFFFFFFFFFFFFFFFFFFFFFFFFFFFFFFFFFF AND DUP2 MSTORE PUSH1 0x20 ADD SWAP1 DUP2 MSTORE PUSH1 0x20 ADD PUSH1 0x0 KECCAK256 PUSH1 0x0 DUP3 DUP3 SLOAD PUSH2 0x8E2 SWAP2 SWAP1 PUSH2 0xE87 JUMP JUMPDEST SWAP3 POP POP DUP2 SWAP1 SSTORE POP DUP3 PUSH20 0xFFFFFFFFFFFFFFFFFFFFFFFFFFFFFFFFFFFFFFFF AND DUP5 PUSH20 0xFFFFFFFFFFFFFFFFFFFFFFFFFFFFFFFFFFFFFFFF AND PUSH32 0xDDF252AD1BE2C89B69C2B068FC378DAA952BA7F163C4A11628F55A4DF523B3EF DUP5 PUSH1 0x40 MLOAD PUSH2 0x946 SWAP2 SWAP1 PUSH2 0xE35 JUMP JUMPDEST PUSH1 0x40 MLOAD DUP1 SWAP2 SUB SWAP1 LOG3 POP POP POP POP JUMP JUMPDEST PUSH1 0x0 DUP2 CALLDATALOAD SWAP1 POP PUSH2 0x963 DUP2 PUSH2 0x1006 JUMP JUMPDEST SWAP3 SWAP2 POP POP JUMP JUMPDEST PUSH1 0x0 DUP2 CALLDATALOAD SWAP1 POP PUSH2 0x978 DUP2 PUSH2 0x101D JUMP JUMPDEST SWAP3 SWAP2 POP POP JUMP JUMPDEST PUSH1 0x0 PUSH1 0x20 DUP3 DUP5 SUB SLT ISZERO PUSH2 0x990 JUMPI PUSH1 0x0 DUP1 REVERT JUMPDEST PUSH1 0x0 PUSH2 0x99E DUP5 DUP3 DUP6 ADD PUSH2 0x954 JUMP JUMPDEST SWAP2 POP POP SWAP3 SWAP2 POP POP JUMP JUMPDEST PUSH1 0x0 DUP1 PUSH1 0x40 DUP4 DUP6 SUB SLT ISZERO PUSH2 0x9BA JUMPI PUSH1 0x0 DUP1 REVERT JUMPDEST PUSH1 0x0 PUSH2 0x9C8 DUP6 DUP3 DUP7 ADD PUSH2 0x954 JUMP JUMPDEST SWAP3 POP POP PUSH1 0x20 PUSH2 0x9D9 DUP6 DUP3 DUP7 ADD PUSH2 0x954 JUMP JUMPDEST SWAP2 POP POP SWAP3 POP SWAP3 SWAP1 POP JUMP JUMPDEST PUSH1 0x0 DUP1 PUSH1 0x0 PUSH1 0x60 DUP5 DUP7 SUB SLT ISZERO PUSH2 0x9F8 JUMPI PUSH1 0x0 DUP1 REVERT JUMPDEST PUSH1 0x0 PUSH2 0xA06 DUP7 DUP3 DUP8 ADD PUSH2 0x954 JUMP JUMPDEST SWAP4 POP POP PUSH1 0x20 PUSH2 0xA17 DUP7 DUP3 DUP8 ADD PUSH2 0x954 JUMP JUMPDEST SWAP3 POP POP PUSH1 0x40 PUSH2 0xA28 DUP7 DUP3 DUP8 ADD PUSH2 0x969 JUMP JUMPDEST SWAP2 POP POP SWAP3 POP SWAP3 POP SWAP3 JUMP JUMPDEST PUSH1 0x0 DUP1 PUSH1 0x40 DUP4 DUP6 SUB SLT ISZERO PUSH2 0xA45 JUMPI PUSH1 0x0 DUP1 REVERT JUMPDEST PUSH1 0x0 PUSH2 0xA53 DUP6 DUP3 DUP7 ADD PUSH2 0x954 JUMP JUMPDEST SWAP3 POP POP PUSH1 0x20 PUSH2 0xA64 DUP6 DUP3 DUP7 ADD PUSH2 0x969 JUMP JUMPDEST SWAP2 POP POP SWAP3 POP SWAP3 SWAP1 POP JUMP JUMPDEST PUSH2 0xA77 DUP2 PUSH2 0xEEF JUMP JUMPDEST DUP3 MSTORE POP POP JUMP JUMPDEST PUSH1 0x0 PUSH2 0xA88 DUP3 PUSH2 0xE6B JUMP JUMPDEST PUSH2 0xA92 DUP2 DUP6 PUSH2 0xE76 JUMP JUMPDEST SWAP4 POP PUSH2 0xAA2 DUP2 DUP6 PUSH1 0x20 DUP7 ADD PUSH2 0xF32 JUMP JUMPDEST PUSH2 0xAAB DUP2 PUSH2 0xFF5 JUMP JUMPDEST DUP5 ADD SWAP2 POP POP SWAP3 SWAP2 POP POP JUMP JUMPDEST PUSH1 0x0 PUSH2 0xAC3 PUSH1 0x23 DUP4 PUSH2 0xE76 JUMP JUMPDEST SWAP2 POP PUSH32 0x45524332303A207472616E7366657220746F20746865207A65726F2061646472 PUSH1 0x0 DUP4 ADD MSTORE PUSH32 0x6573730000000000000000000000000000000000000000000000000000000000 PUSH1 0x20 DUP4 ADD MSTORE PUSH1 0x40 DUP3 ADD SWAP1 POP SWAP2 SWAP1 POP JUMP JUMPDEST PUSH1 0x0 PUSH2 0xB29 PUSH1 0x22 DUP4 PUSH2 0xE76 JUMP JUMPDEST SWAP2 POP PUSH32 0x45524332303A20617070726F766520746F20746865207A65726F206164647265 PUSH1 0x0 DUP4 ADD MSTORE PUSH32 0x7373000000000000000000000000000000000000000000000000000000000000 PUSH1 0x20 DUP4 ADD MSTORE PUSH1 0x40 DUP3 ADD SWAP1 POP SWAP2 SWAP1 POP JUMP JUMPDEST PUSH1 0x0 PUSH2 0xB8F PUSH1 0x26 DUP4 PUSH2 0xE76 JUMP JUMPDEST SWAP2 POP PUSH32 0x45524332303A207472616E7366657220616D6F756E7420657863656564732062 PUSH1 0x0 DUP4 ADD MSTORE PUSH32 0x616C616E63650000000000000000000000000000000000000000000000000000 PUSH1 0x20 DUP4 ADD MSTORE PUSH1 0x40 DUP3 ADD SWAP1 POP SWAP2 SWAP1 POP JUMP JUMPDEST PUSH1 0x0 PUSH2 0xBF5 PUSH1 0x28 DUP4 PUSH2 0xE76 JUMP JUMPDEST SWAP2 POP PUSH32 0x45524332303A207472616E7366657220616D6F756E7420657863656564732061 PUSH1 0x0 DUP4 ADD MSTORE PUSH32 0x6C6C6F77616E6365000000000000000000000000000000000000000000000000 PUSH1 0x20 DUP4 ADD MSTORE PUSH1 0x40 DUP3 ADD SWAP1 POP SWAP2 SWAP1 POP JUMP JUMPDEST PUSH1 0x0 PUSH2 0xC5B PUSH1 0x25 DUP4 PUSH2 0xE76 JUMP JUMPDEST SWAP2 POP PUSH32 0x45524332303A207472616E736665722066726F6D20746865207A65726F206164 PUSH1 0x0 DUP4 ADD MSTORE PUSH32 0x6472657373000000000000000000000000000000000000000000000000000000 PUSH1 0x20 DUP4 ADD MSTORE PUSH1 0x40 DUP3 ADD SWAP1 POP SWAP2 SWAP1 POP JUMP JUMPDEST PUSH1 0x0 PUSH2 0xCC1 PUSH1 0x24 DUP4 PUSH2 0xE76 JUMP JUMPDEST SWAP2 POP PUSH32 0x45524332303A20617070726F76652066726F6D20746865207A65726F20616464 PUSH1 0x0 DUP4 ADD MSTORE PUSH32 0x7265737300000000000000000000000000000000000000000000000000000000 PUSH1 0x20 DUP4 ADD MSTORE PUSH1 0x40 DUP3 ADD SWAP1 POP SWAP2 SWAP1 POP JUMP JUMPDEST PUSH2 0xD23 DUP2 PUSH2 0xF1B JUMP JUMPDEST DUP3 MSTORE POP POP JUMP JUMPDEST PUSH2 0xD32 DUP2 PUSH2 0xF25 JUMP JUMPDEST DUP3 MSTORE POP POP JUMP JUMPDEST PUSH1 0x0 PUSH1 0x20 DUP3 ADD SWAP1 POP PUSH2 0xD4D PUSH1 0x0 DUP4 ADD DUP5 PUSH2 0xA6E JUMP JUMPDEST SWAP3 SWAP2 POP POP JUMP JUMPDEST PUSH1 0x0 PUSH1 0x20 DUP3 ADD SWAP1 POP DUP2 DUP2 SUB PUSH1 0x0 DUP4 ADD MSTORE PUSH2 0xD6D DUP2 DUP5 PUSH2 0xA7D JUMP JUMPDEST SWAP1 POP SWAP3 SWAP2 POP POP JUMP JUMPDEST PUSH1 0x0 PUSH1 0x20 DUP3 ADD SWAP1 POP DUP2 DUP2 SUB PUSH1 0x0 DUP4 ADD MSTORE PUSH2 0xD8E DUP2 PUSH2 0xAB6 JUMP JUMPDEST SWAP1 POP SWAP2 SWAP1 POP JUMP JUMPDEST PUSH1 0x0 PUSH1 0x20 DUP3 ADD SWAP1 POP DUP2 DUP2 SUB PUSH1 0x0 DUP4 ADD MSTORE PUSH2 0xDAE DUP2 PUSH2 0xB1C JUMP JUMPDEST SWAP1 POP SWAP2 SWAP1 POP JUMP JUMPDEST PUSH1 0x0 PUSH1 0x20 DUP3 ADD SWAP1 POP DUP2 DUP2 SUB PUSH1 0x0 DUP4 ADD MSTORE PUSH2 0xDCE DUP2 PUSH2 0xB82 JUMP JUMPDEST SWAP1 POP SWAP2 SWAP1 POP JUMP JUMPDEST PUSH1 0x0 PUSH1 0x20 DUP3 ADD SWAP1 POP DUP2 DUP2 SUB PUSH1 0x0 DUP4 ADD MSTORE PUSH2 0xDEE DUP2 PUSH2 0xBE8 JUMP JUMPDEST SWAP1 POP SWAP2 SWAP1 POP JUMP JUMPDEST PUSH1 0x0 PUSH1 0x20 DUP3 ADD SWAP1 POP DUP2 DUP2 SUB PUSH1 0x0 DUP4 ADD MSTORE PUSH2 0xE0E DUP2 PUSH2 0xC4E JUMP JUMPDEST SWAP1 POP SWAP2 SWAP1 POP JUMP JUMPDEST PUSH1 0x0 PUSH1 0x20 DUP3 ADD SWAP1 POP DUP2 DUP2 SUB PUSH1 0x0 DUP4 ADD MSTORE PUSH2 0xE2E DUP2 PUSH2 0xCB4 JUMP JUMPDEST SWAP1 POP SWAP2 SWAP1 POP JUMP JUMPDEST PUSH1 0x0 PUSH1 0x20 DUP3 ADD SWAP1 POP PUSH2 0xE4A PUSH1 0x0 DUP4 ADD DUP5 PUSH2 0xD1A JUMP JUMPDEST SWAP3 SWAP2 POP POP JUMP JUMPDEST PUSH1 0x0 PUSH1 0x20 DUP3 ADD SWAP1 POP PUSH2 0xE65 PUSH1 0x0 DUP4 ADD DUP5 PUSH2 0xD29 JUMP JUMPDEST SWAP3 SWAP2 POP POP JUMP JUMPDEST PUSH1 0x0 DUP2 MLOAD SWAP1 POP SWAP2 SWAP1 POP JUMP JUMPDEST PUSH1 0x0 DUP3 DUP3 MSTORE PUSH1 0x20 DUP3 ADD SWAP1 POP SWAP3 SWAP2 POP POP JUMP JUMPDEST PUSH1 0x0 PUSH2 0xE92 DUP3 PUSH2 0xF1B JUMP JUMPDEST SWAP2 POP PUSH2 0xE9D DUP4 PUSH2 0xF1B JUMP JUMPDEST SWAP3 POP DUP3 PUSH32 0xFFFFFFFFFFFFFFFFFFFFFFFFFFFFFFFFFFFFFFFFFFFFFFFFFFFFFFFFFFFFFFFF SUB DUP3 GT ISZERO PUSH2 0xED2 JUMPI PUSH2 0xED1 PUSH2 0xF97 JUMP JUMPDEST JUMPDEST DUP3 DUP3 ADD SWAP1 POP SWAP3 SWAP2 POP POP JUMP JUMPDEST PUSH1 0x0 PUSH2 0xEE8 DUP3 PUSH2 0xEFB JUMP JUMPDEST SWAP1 POP SWAP2 SWAP1 POP JUMP JUMPDEST PUSH1 0x0 DUP2 ISZERO ISZERO SWAP1 POP SWAP2 SWAP1 POP JUMP JUMPDEST PUSH1 0x0 PUSH20 0xFFFFFFFFFFFFFFFFFFFFFFFFFFFFFFFFFFFFFFFF DUP3 AND SWAP1 POP SWAP2 SWAP1 POP JUMP JUMPDEST PUSH1 0x0 DUP2 SWAP1 POP SWAP2 SWAP1 POP JUMP JUMPDEST PUSH1 0x0 PUSH1 0xFF DUP3 AND SWAP1 POP SWAP2 SWAP1 POP JUMP JUMPDEST PUSH1 0x0 JUMPDEST DUP4 DUP2 LT ISZERO PUSH2 0xF50 JUMPI DUP1 DUP3 ADD MLOAD DUP2 DUP5 ADD MSTORE PUSH1 0x20 DUP2 ADD SWAP1 POP PUSH2 0xF35 JUMP JUMPDEST DUP4 DUP2 GT ISZERO PUSH2 0xF5F JUMPI PUSH1 0x0 DUP5 DUP5 ADD MSTORE JUMPDEST POP POP POP POP JUMP JUMPDEST PUSH1 0x0 PUSH1 0x2 DUP3 DIV SWAP1 POP PUSH1 0x1 DUP3 AND DUP1 PUSH2 0xF7D JUMPI PUSH1 0x7F DUP3 AND SWAP2 POP JUMPDEST PUSH1 0x20 DUP3 LT DUP2 EQ ISZERO PUSH2 0xF91 JUMPI PUSH2 0xF90 PUSH2 0xFC6 JUMP JUMPDEST JUMPDEST POP SWAP2 SWAP1 POP JUMP JUMPDEST PUSH32 0x4E487B7100000000000000000000000000000000000000000000000000000000 PUSH1 0x0 MSTORE PUSH1 0x11 PUSH1 0x4 MSTORE PUSH1 0x24 PUSH1 0x0 REVERT JUMPDEST PUSH32 0x4E487B7100000000000000000000000000000000000000000000000000000000 PUSH1 0x0 MSTORE PUSH1 0x22 PUSH1 0x4 MSTORE PUSH1 0x24 PUSH1 0x0 REVERT JUMPDEST PUSH1 0x0 PUSH1 0x1F NOT PUSH1 0x1F DUP4 ADD AND SWAP1 POP SWAP2 SWAP1 POP JUMP JUMPDEST PUSH2 0x100F DUP2 PUSH2 0xEDD JUMP JUMPDEST DUP2 EQ PUSH2 0x101A JUMPI PUSH1 0x0 DUP1 REVERT JUMPDEST POP JUMP JUMPDEST PUSH2 0x1026 DUP2 PUSH2 0xF1B JUMP JUMPDEST DUP2 EQ PUSH2 0x1031 JUMPI PUSH1 0x0 DUP1 REVERT JUMPDEST POP JUMP INVALID LOG2 PUSH5 0x6970667358 0x22 SLT KECCAK256 DUP12 COINBASE DUP15 DUP4 0xE8 0xB4 ADDRESS 0x2A 0x4A NOT SWAP6 EXTCODESIZE 0xA9 PUSH10 0xD5099EE2431EC075884F PUSH31 0xE08C814E5A27CB64736F6C6343000800003300000000000000000000000000 "
				},
				"gasEstimates": {
					"creation": {
						"codeDepositCost": "840400",
						"executionCost": "infinite",
						"totalCost": "infinite"
					},
					"external": {
						"allowance(address,address)": "infinite",
						"approve(address,uint256)": "infinite",
						"balanceOf(address)": "1585",
						"decimals()": "365",
						"getName()": "infinite",
						"getSymbol()": "infinite",
						"totalSupply()": "1204",
						"transfer(address,uint256)": "infinite",
						"transferFrom(address,address,uint256)": "infinite"
					},
					"internal": {
						"_approve(address,address,uint256)": "infinite",
						"_transfer(address,address,uint256)": "infinite"
					}
				},
				"methodIdentifiers": {
					"allowance(address,address)": "dd62ed3e",
					"approve(address,uint256)": "095ea7b3",
					"balanceOf(address)": "70a08231",
					"decimals()": "313ce567",
					"getName()": "17d7de7c",
					"getSymbol()": "15070401",
					"totalSupply()": "18160ddd",
					"transfer(address,uint256)": "a9059cbb",
					"transferFrom(address,address,uint256)": "23b872dd"
				}
			},
			"storageLayout": {
				"storage": [
					{
						"astId": 426,
						"contract": "libraries/erc20.sol:ERC20",
						"label": "_balances",
						"offset": 0,
						"slot": "0",
						"type": "t_mapping(t_address,t_uint256)"
					},
					{
						"astId": 432,
						"contract": "libraries/erc20.sol:ERC20",
						"label": "_allowances",
						"offset": 0,
						"slot": "1",
						"type": "t_mapping(t_address,t_mapping(t_address,t_uint256))"
					},
					{
						"astId": 434,
						"contract": "libraries/erc20.sol:ERC20",
						"label": "_totalSupply",
						"offset": 0,
						"slot": "2",
						"type": "t_uint256"
					},
					{
						"astId": 436,
						"contract": "libraries/erc20.sol:ERC20",
						"label": "_name",
						"offset": 0,
						"slot": "3",
						"type": "t_string_storage"
					},
					{
						"astId": 438,
						"contract": "libraries/erc20.sol:ERC20",
						"label": "_symbol",
						"offset": 0,
						"slot": "4",
						"type": "t_string_storage"
					}
				],
				"types": {
					"t_address": {
						"encoding": "inplace",
						"label": "address",
						"numberOfBytes": "20"
					},
					"t_mapping(t_address,t_mapping(t_address,t_uint256))": {
						"encoding": "mapping",
						"key": "t_address",
						"label": "mapping(address => mapping(address => uint256))",
						"numberOfBytes": "32",
						"value": "t_mapping(t_address,t_uint256)"
					},
					"t_mapping(t_address,t_uint256)": {
						"encoding": "mapping",
						"key": "t_address",
						"label": "mapping(address => uint256)",
						"numberOfBytes": "32",
						"value": "t_uint256"
					},
					"t_string_storage": {
						"encoding": "bytes",
						"label": "string",
						"numberOfBytes": "32"
					},
					"t_uint256": {
						"encoding": "inplace",
						"label": "uint256",
						"numberOfBytes": "32"
					}
				}
			},
			"userdoc": {
				"kind": "user",
				"methods": {
					"allowance(address,address)": {
						"notice": "See {IERC20-allowance}."
					},
					"approve(address,uint256)": {
						"notice": "See {IERC20-approve}. Requirements: - `spender` cannot be the zero address."
					},
					"balanceOf(address)": {
						"notice": "See {IERC20-balanceOf}."
					},
					"constructor": {
						"notice": "Sets the values for {name} and {symbol}. The default value of {decimals} is 18. To select a different value for {decimals} you should overload it. All two of these values are immutable: they can only be set once during construction."
					},
					"decimals()": {
						"notice": "Returns the number of decimals used to get its user representation. For example, if `decimals` equals `2`, a balance of `505` tokens should be displayed to a user as `5.05` (`505 / 10 ** 2`). Tokens usually opt for a value of 18, imitating the relationship between Ether and Wei. This is the value {ERC20} uses, unless this function is overridden; NOTE: This information is only used for _display_ purposes: it in no way affects any of the arithmetic of the contract, including {IERC20-balanceOf} and {IERC20-transfer}."
					},
					"getName()": {
						"notice": "Returns the name of the token."
					},
					"getSymbol()": {
						"notice": "Returns the symbol of the token, usually a shorter version of the name."
					},
					"totalSupply()": {
						"notice": "See {IERC20-totalSupply}."
					},
					"transfer(address,uint256)": {
						"notice": "See {IERC20-transfer}. Requirements: - `recipient` cannot be the zero address. - the caller must have a balance of at least `amount`."
					},
					"transferFrom(address,address,uint256)": {
						"notice": "See {IERC20-transferFrom}. Emits an {Approval} event indicating the updated allowance. This is not required by the EIP. See the note at the beginning of {ERC20}. Requirements: - `sender` and `recipient` cannot be the zero address. - `sender` must have a balance of at least `amount`. - the caller must have allowance for ``sender``'s tokens of at least `amount`."
					}
				},
				"notice": "Simplified implementation of the {IERC20} interface. Read more about IERC20 on the docs at: https://docs.openzeppelin.com/contracts/4.x/api/token/erc20#IERC20 This implementation is unopinionated with respect to token creation. This means that a supply mechanism has to be added in a derived contract using {_mint}. For a generic mechanism see {ERC20PresetMinterPauser}. We have followed general OpenZeppelin Contracts guidelines: functions revert instead returning `false` on failure. This behavior is nonetheless conventional and does not conflict with the expectations of ERC20 applications. Additionally, an {Approval} event is emitted on calls to {transferFrom}. This allows applications to reconstruct the allowance for all accounts just by listening to said events. Other implementations of the EIP may not emit these events, as it isn't required by the specification.",
				"version": 1
			}
		}
	}
}