{
	"contracts/token.sol": {
		"HUSTToken": {
			"abi": [
				{
					"anonymous": false,
					"inputs": [
						{
							"indexed": true,
							"internalType": "address",
							"name": "owner",
							"type": "address"
						},
						{
							"indexed": true,
							"internalType": "address",
							"name": "spender",
							"type": "address"
						},
						{
							"indexed": false,
							"internalType": "uint256",
							"name": "value",
							"type": "uint256"
						}
					],
					"name": "Approval",
					"type": "event"
				},
				{
					"anonymous": false,
					"inputs": [
						{
							"indexed": true,
							"internalType": "address",
							"name": "from",
							"type": "address"
						},
						{
							"indexed": true,
							"internalType": "address",
							"name": "to",
							"type": "address"
						},
						{
							"indexed": false,
							"internalType": "uint256",
							"name": "value",
							"type": "uint256"
						}
					],
					"name": "Transfer",
					"type": "event"
				},
				{
					"inputs": [],
					"name": "_disable_mint",
					"outputs": [],
					"stateMutability": "nonpayable",
					"type": "function"
				},
				{
					"inputs": [
						{
							"internalType": "uint256",
							"name": "amount",
							"type": "uint256"
						}
					],
					"name": "_mint",
					"outputs": [],
					"stateMutability": "nonpayable",
					"type": "function"
				},
				{
					"inputs": [
						{
							"internalType": "address",
							"name": "owner",
							"type": "address"
						},
						{
							"internalType": "address",
							"name": "spender",
							"type": "address"
						}
					],
					"name": "allowance",
					"outputs": [
						{
							"internalType": "uint256",
							"name": "",
							"type": "uint256"
						}
					],
					"stateMutability": "view",
					"type": "function"
				},
				{
					"inputs": [
						{
							"internalType": "address",
							"name": "spender",
							"type": "address"
						},
						{
							"internalType": "uint256",
							"name": "amount",
							"type": "uint256"
						}
					],
					"name": "approve",
					"outputs": [
						{
							"internalType": "bool",
							"name": "",
							"type": "bool"
						}
					],
					"stateMutability": "nonpayable",
					"type": "function"
				},
				{
					"inputs": [
						{
							"internalType": "address",
							"name": "owner",
							"type": "address"
						}
					],
					"name": "balanceOf",
					"outputs": [
						{
							"internalType": "uint256",
							"name": "",
							"type": "uint256"
						}
					],
					"stateMutability": "view",
					"type": "function"
				},
				{
					"inputs": [],
					"name": "decimals",
					"outputs": [
						{
							"internalType": "uint8",
							"name": "",
							"type": "uint8"
						}
					],
					"stateMutability": "view",
					"type": "function"
				},
				{
					"inputs": [],
					"name": "totalSupply",
					"outputs": [
						{
							"internalType": "uint256",
							"name": "",
							"type": "uint256"
						}
					],
					"stateMutability": "view",
					"type": "function"
				},
				{
					"inputs": [
						{
							"internalType": "address",
							"name": "recipient",
							"type": "address"
						},
						{
							"internalType": "uint256",
							"name": "amount",
							"type": "uint256"
						}
					],
					"name": "transfer",
					"outputs": [
						{
							"internalType": "bool",
							"name": "",
							"type": "bool"
						}
					],
					"stateMutability": "nonpayable",
					"type": "function"
				},
				{
					"inputs": [
						{
							"internalType": "address",
							"name": "sender",
							"type": "address"
						},
						{
							"internalType": "address",
							"name": "recipient",
							"type": "address"
						},
						{
							"internalType": "uint256",
							"name": "amount",
							"type": "uint256"
						}
					],
					"name": "transferFrom",
					"outputs": [
						{
							"internalType": "bool",
							"name": "",
							"type": "bool"
						}
					],
					"stateMutability": "nonpayable",
					"type": "function"
				}
			],
			"devdoc": {
				"kind": "dev",
				"methods": {},
				"version": 1
			},
			"evm": {
				"assembly": "    /* \"contracts/token.sol\":619:7998  contract HUSTToken is Ownable, IERC20 {... */\n  mstore(0x40, 0x80)\n    /* \"contracts/token.sol\":888:889  0 */\n  0x00\n    /* \"contracts/token.sol\":857:889  uint256 private _totalSupply = 0 */\n  0x01\n  sstore\n    /* \"contracts/token.sol\":1059:1064  false */\n  0x00\n    /* \"contracts/token.sol\":1027:1064  bool private minting_disabled = false */\n  0x04\n  exp(0x0100, 0x00)\n  dup2\n  sload\n  dup2\n  0xff\n  mul\n  not\n  and\n  swap1\n  dup4\n  iszero\n  iszero\n  mul\n  or\n  swap1\n  sstore\n  pop\n    /* \"contracts/token.sol\":619:7998  contract HUSTToken is Ownable, IERC20 {... */\n  callvalue\n  dup1\n  iszero\n  tag_1\n  jumpi\n  0x00\n  dup1\n  revert\ntag_1:\n  pop\n    /* \"libraries/ownable.sol\":884:894  msg.sender */\n  caller\n    /* \"libraries/ownable.sol\":875:881  _owner */\n  0x00\n  dup1\n    /* \"libraries/ownable.sol\":875:894  _owner = msg.sender */\n  0x0100\n  exp\n  dup2\n  sload\n  dup2\n  0xffffffffffffffffffffffffffffffffffffffff\n  mul\n  not\n  and\n  swap1\n  dup4\n  0xffffffffffffffffffffffffffffffffffffffff\n  and\n  mul\n  or\n  swap1\n  sstore\n  pop\n    /* \"contracts/token.sol\":619:7998  contract HUSTToken is Ownable, IERC20 {... */\n  dataSize(sub_0)\n  dup1\n  dataOffset(sub_0)\n  0x00\n  codecopy\n  0x00\n  return\nstop\n\nsub_0: assembly {\n        /* \"contracts/token.sol\":619:7998  contract HUSTToken is Ownable, IERC20 {... */\n      mstore(0x40, 0x80)\n      callvalue\n      dup1\n      iszero\n      tag_1\n      jumpi\n      0x00\n      dup1\n      revert\n    tag_1:\n      pop\n      jumpi(tag_2, lt(calldatasize, 0x04))\n      shr(0xe0, calldataload(0x00))\n      dup1\n      0x2c526196\n      gt\n      tag_12\n      jumpi\n      dup1\n      0x2c526196\n      eq\n      tag_7\n      jumpi\n      dup1\n      0x313ce567\n      eq\n      tag_8\n      jumpi\n      dup1\n      0x70a08231\n      eq\n      tag_9\n      jumpi\n      dup1\n      0xa9059cbb\n      eq\n      tag_10\n      jumpi\n      dup1\n      0xdd62ed3e\n      eq\n      tag_11\n      jumpi\n      jump(tag_2)\n    tag_12:\n      dup1\n      0x095ea7b3\n      eq\n      tag_3\n      jumpi\n      dup1\n      0x13b4159c\n      eq\n      tag_4\n      jumpi\n      dup1\n      0x18160ddd\n      eq\n      tag_5\n      jumpi\n      dup1\n      0x23b872dd\n      eq\n      tag_6\n      jumpi\n    tag_2:\n      0x00\n      dup1\n      revert\n        /* \"contracts/token.sol\":6375:6791  function approve(address spender, uint256 amount) ... */\n    tag_3:\n      tag_13\n      0x04\n      dup1\n      calldatasize\n      sub\n      dup2\n      add\n      swap1\n      tag_14\n      swap2\n      swap1\n      tag_15\n      jump\t// in\n    tag_14:\n      tag_16\n      jump\t// in\n    tag_13:\n      mload(0x40)\n      tag_17\n      swap2\n      swap1\n      tag_18\n      jump\t// in\n    tag_17:\n      mload(0x40)\n      dup1\n      swap2\n      sub\n      swap1\n      return\n        /* \"contracts/token.sol\":2759:2917  function _disable_mint()... */\n    tag_4:\n      tag_19\n      tag_20\n      jump\t// in\n    tag_19:\n      stop\n        /* \"contracts/token.sol\":3228:3368  function totalSupply() ... */\n    tag_5:\n      tag_21\n      tag_22\n      jump\t// in\n    tag_21:\n      mload(0x40)\n      tag_23\n      swap2\n      swap1\n      tag_24\n      jump\t// in\n    tag_23:\n      mload(0x40)\n      dup1\n      swap2\n      sub\n      swap1\n      return\n        /* \"contracts/token.sol\":7318:7996  function transferFrom(address sender, address recipient, uint256 amount) ... */\n    tag_6:\n      tag_25\n      0x04\n      dup1\n      calldatasize\n      sub\n      dup2\n      add\n      swap1\n      tag_26\n      swap2\n      swap1\n      tag_27\n      jump\t// in\n    tag_26:\n      tag_28\n      jump\t// in\n    tag_25:\n      mload(0x40)\n      tag_29\n      swap2\n      swap1\n      tag_18\n      jump\t// in\n    tag_29:\n      mload(0x40)\n      dup1\n      swap2\n      sub\n      swap1\n      return\n        /* \"contracts/token.sol\":1894:2424  function _mint(uint amount) ... */\n    tag_7:\n      tag_30\n      0x04\n      dup1\n      calldatasize\n      sub\n      dup2\n      add\n      swap1\n      tag_31\n      swap2\n      swap1\n      tag_32\n      jump\t// in\n    tag_31:\n      tag_33\n      jump\t// in\n    tag_30:\n      stop\n        /* \"contracts/token.sol\":1387:1469  function decimals() public view virtual returns (uint8) {... */\n    tag_8:\n      tag_34\n      tag_35\n      jump\t// in\n    tag_34:\n      mload(0x40)\n      tag_36\n      swap2\n      swap1\n      tag_37\n      jump\t// in\n    tag_36:\n      mload(0x40)\n      dup1\n      swap2\n      sub\n      swap1\n      return\n        /* \"contracts/token.sol\":3709:3864  function balanceOf(address owner) ... */\n    tag_9:\n      tag_38\n      0x04\n      dup1\n      calldatasize\n      sub\n      dup2\n      add\n      swap1\n      tag_39\n      swap2\n      swap1\n      tag_40\n      jump\t// in\n    tag_39:\n      tag_41\n      jump\t// in\n    tag_38:\n      mload(0x40)\n      tag_42\n      swap2\n      swap1\n      tag_24\n      jump\t// in\n    tag_42:\n      mload(0x40)\n      dup1\n      swap2\n      sub\n      swap1\n      return\n        /* \"contracts/token.sol\":4798:5276  function transfer(address recipient, uint256 amount) ... */\n    tag_10:\n      tag_43\n      0x04\n      dup1\n      calldatasize\n      sub\n      dup2\n      add\n      swap1\n      tag_44\n      swap2\n      swap1\n      tag_15\n      jump\t// in\n    tag_44:\n      tag_45\n      jump\t// in\n    tag_43:\n      mload(0x40)\n      tag_46\n      swap2\n      swap1\n      tag_18\n      jump\t// in\n    tag_46:\n      mload(0x40)\n      dup1\n      swap2\n      sub\n      swap1\n      return\n        /* \"contracts/token.sol\":5791:5934  function allowance(address owner, address spender) external view override returns (uint256) {... */\n    tag_11:\n      tag_47\n      0x04\n      dup1\n      calldatasize\n      sub\n      dup2\n      add\n      swap1\n      tag_48\n      swap2\n      swap1\n      tag_49\n      jump\t// in\n    tag_48:\n      tag_50\n      jump\t// in\n    tag_47:\n      mload(0x40)\n      tag_51\n      swap2\n      swap1\n      tag_24\n      jump\t// in\n    tag_51:\n      mload(0x40)\n      dup1\n      swap2\n      sub\n      swap1\n      return\n        /* \"contracts/token.sol\":6375:6791  function approve(address spender, uint256 amount) ... */\n    tag_16:\n        /* \"contracts/token.sol\":6479:6483  bool */\n      0x00\n        /* \"contracts/token.sol\":6526:6527  0 */\n      dup1\n        /* \"contracts/token.sol\":6507:6528  spender != address(0) */\n      0xffffffffffffffffffffffffffffffffffffffff\n      and\n        /* \"contracts/token.sol\":6507:6514  spender */\n      dup4\n        /* \"contracts/token.sol\":6507:6528  spender != address(0) */\n      0xffffffffffffffffffffffffffffffffffffffff\n      and\n      eq\n      iszero\n        /* \"contracts/token.sol\":6499:6567  require(spender != address(0), \"ERC20: approve to the zero address\") */\n      tag_53\n      jumpi\n      mload(0x40)\n      0x08c379a000000000000000000000000000000000000000000000000000000000\n      dup2\n      mstore\n      0x04\n      add\n      tag_54\n      swap1\n      tag_55\n      jump\t// in\n    tag_54:\n      mload(0x40)\n      dup1\n      swap2\n      sub\n      swap1\n      revert\n    tag_53:\n        /* \"contracts/token.sol\":6610:6616  amount */\n      dup2\n        /* \"contracts/token.sol\":6585:6594  _balances */\n      0x02\n        /* \"contracts/token.sol\":6585:6606  _balances[msg.sender] */\n      0x00\n        /* \"contracts/token.sol\":6595:6605  msg.sender */\n      caller\n        /* \"contracts/token.sol\":6585:6606  _balances[msg.sender] */\n      0xffffffffffffffffffffffffffffffffffffffff\n      and\n      0xffffffffffffffffffffffffffffffffffffffff\n      and\n      dup2\n      mstore\n      0x20\n      add\n      swap1\n      dup2\n      mstore\n      0x20\n      add\n      0x00\n      keccak256\n      sload\n        /* \"contracts/token.sol\":6585:6616  _balances[msg.sender] >= amount */\n      lt\n      iszero\n        /* \"contracts/token.sol\":6577:6658  require(_balances[msg.sender] >= amount, \"ERC20: approve amount exceeds balance\") */\n      tag_56\n      jumpi\n      mload(0x40)\n      0x08c379a000000000000000000000000000000000000000000000000000000000\n      dup2\n      mstore\n      0x04\n      add\n      tag_57\n      swap1\n      tag_58\n      jump\t// in\n    tag_57:\n      mload(0x40)\n      dup1\n      swap2\n      sub\n      swap1\n      revert\n    tag_56:\n        /* \"contracts/token.sol\":6704:6710  amount */\n      dup2\n        /* \"contracts/token.sol\":6669:6680  _allowances */\n      0x03\n        /* \"contracts/token.sol\":6669:6692  _allowances[msg.sender] */\n      0x00\n        /* \"contracts/token.sol\":6681:6691  msg.sender */\n      caller\n        /* \"contracts/token.sol\":6669:6692  _allowances[msg.sender] */\n      0xffffffffffffffffffffffffffffffffffffffff\n      and\n      0xffffffffffffffffffffffffffffffffffffffff\n      and\n      dup2\n      mstore\n      0x20\n      add\n      swap1\n      dup2\n      mstore\n      0x20\n      add\n      0x00\n      keccak256\n        /* \"contracts/token.sol\":6669:6701  _allowances[msg.sender][spender] */\n      0x00\n        /* \"contracts/token.sol\":6693:6700  spender */\n      dup6\n        /* \"contracts/token.sol\":6669:6701  _allowances[msg.sender][spender] */\n      0xffffffffffffffffffffffffffffffffffffffff\n      and\n      0xffffffffffffffffffffffffffffffffffffffff\n      and\n      dup2\n      mstore\n      0x20\n      add\n      swap1\n      dup2\n      mstore\n      0x20\n      add\n      0x00\n      keccak256\n        /* \"contracts/token.sol\":6669:6710  _allowances[msg.sender][spender] = amount */\n      dup2\n      swap1\n      sstore\n      pop\n        /* \"contracts/token.sol\":6746:6753  spender */\n      dup3\n        /* \"contracts/token.sol\":6725:6762  Approval(msg.sender, spender, amount) */\n      0xffffffffffffffffffffffffffffffffffffffff\n      and\n        /* \"contracts/token.sol\":6734:6744  msg.sender */\n      caller\n        /* \"contracts/token.sol\":6725:6762  Approval(msg.sender, spender, amount) */\n      0xffffffffffffffffffffffffffffffffffffffff\n      and\n      0x8c5be1e5ebec7d5bd14f71427d1e84f3dd0314c0f7b2291e5b200ac8c7c3b925\n        /* \"contracts/token.sol\":6755:6761  amount */\n      dup5\n        /* \"contracts/token.sol\":6725:6762  Approval(msg.sender, spender, amount) */\n      mload(0x40)\n      tag_59\n      swap2\n      swap1\n      tag_24\n      jump\t// in\n    tag_59:\n      mload(0x40)\n      dup1\n      swap2\n      sub\n      swap1\n      log3\n        /* \"contracts/token.sol\":6780:6784  true */\n      0x01\n        /* \"contracts/token.sol\":6773:6784  return true */\n      swap1\n      pop\n        /* \"contracts/token.sol\":6375:6791  function approve(address spender, uint256 amount) ... */\n      swap3\n      swap2\n      pop\n      pop\n      jump\t// out\n        /* \"contracts/token.sol\":2759:2917  function _disable_mint()... */\n    tag_20:\n        /* \"libraries/ownable.sol\":1033:1043  msg.sender */\n      caller\n        /* \"libraries/ownable.sol\":1023:1043  _owner == msg.sender */\n      0xffffffffffffffffffffffffffffffffffffffff\n      and\n        /* \"libraries/ownable.sol\":1023:1029  _owner */\n      0x00\n      dup1\n      sload\n      swap1\n      0x0100\n      exp\n      swap1\n      div\n      0xffffffffffffffffffffffffffffffffffffffff\n      and\n        /* \"libraries/ownable.sol\":1023:1043  _owner == msg.sender */\n      0xffffffffffffffffffffffffffffffffffffffff\n      and\n      eq\n        /* \"libraries/ownable.sol\":1015:1080  require(_owner == msg.sender, \"Ownable: caller is not the owner\") */\n      tag_61\n      jumpi\n      mload(0x40)\n      0x08c379a000000000000000000000000000000000000000000000000000000000\n      dup2\n      mstore\n      0x04\n      add\n      tag_62\n      swap1\n      tag_63\n      jump\t// in\n    tag_62:\n      mload(0x40)\n      dup1\n      swap2\n      sub\n      swap1\n      revert\n    tag_61:\n        /* \"contracts/token.sol\":2906:2910  true */\n      0x01\n        /* \"contracts/token.sol\":2887:2903  minting_disabled */\n      0x04\n      0x00\n        /* \"contracts/token.sol\":2887:2910  minting_disabled = true */\n      0x0100\n      exp\n      dup2\n      sload\n      dup2\n      0xff\n      mul\n      not\n      and\n      swap1\n      dup4\n      iszero\n      iszero\n      mul\n      or\n      swap1\n      sstore\n      pop\n        /* \"contracts/token.sol\":2759:2917  function _disable_mint()... */\n      jump\t// out\n        /* \"contracts/token.sol\":3228:3368  function totalSupply() ... */\n    tag_22:\n        /* \"contracts/token.sol\":3319:3326  uint256 */\n      0x00\n        /* \"contracts/token.sol\":3349:3361  _totalSupply */\n      sload(0x01)\n        /* \"contracts/token.sol\":3342:3361  return _totalSupply */\n      swap1\n      pop\n        /* \"contracts/token.sol\":3228:3368  function totalSupply() ... */\n      swap1\n      jump\t// out\n        /* \"contracts/token.sol\":7318:7996  function transferFrom(address sender, address recipient, uint256 amount) ... */\n    tag_28:\n        /* \"contracts/token.sol\":7445:7449  bool */\n      0x00\n        /* \"contracts/token.sol\":7491:7492  0 */\n      dup1\n        /* \"contracts/token.sol\":7473:7493  sender != address(0) */\n      0xffffffffffffffffffffffffffffffffffffffff\n      and\n        /* \"contracts/token.sol\":7473:7479  sender */\n      dup5\n        /* \"contracts/token.sol\":7473:7493  sender != address(0) */\n      0xffffffffffffffffffffffffffffffffffffffff\n      and\n      eq\n      iszero\n        /* \"contracts/token.sol\":7465:7535  require(sender != address(0), \"ERC20: transfer from the zero address\") */\n      tag_67\n      jumpi\n      mload(0x40)\n      0x08c379a000000000000000000000000000000000000000000000000000000000\n      dup2\n      mstore\n      0x04\n      add\n      tag_68\n      swap1\n      tag_69\n      jump\t// in\n    tag_68:\n      mload(0x40)\n      dup1\n      swap2\n      sub\n      swap1\n      revert\n    tag_67:\n        /* \"contracts/token.sol\":7574:7575  0 */\n      0x00\n        /* \"contracts/token.sol\":7553:7576  recipient != address(0) */\n      0xffffffffffffffffffffffffffffffffffffffff\n      and\n        /* \"contracts/token.sol\":7553:7562  recipient */\n      dup4\n        /* \"contracts/token.sol\":7553:7576  recipient != address(0) */\n      0xffffffffffffffffffffffffffffffffffffffff\n      and\n      eq\n      iszero\n        /* \"contracts/token.sol\":7545:7616  require(recipient != address(0), \"ERC20: transfer to the zero address\") */\n      tag_70\n      jumpi\n      mload(0x40)\n      0x08c379a000000000000000000000000000000000000000000000000000000000\n      dup2\n      mstore\n      0x04\n      add\n      tag_71\n      swap1\n      tag_72\n      jump\t// in\n    tag_71:\n      mload(0x40)\n      dup1\n      swap2\n      sub\n      swap1\n      revert\n    tag_70:\n        /* \"contracts/token.sol\":7655:7661  amount */\n      dup2\n        /* \"contracts/token.sol\":7634:7643  _balances */\n      0x02\n        /* \"contracts/token.sol\":7634:7651  _balances[sender] */\n      0x00\n        /* \"contracts/token.sol\":7644:7650  sender */\n      dup7\n        /* \"contracts/token.sol\":7634:7651  _balances[sender] */\n      0xffffffffffffffffffffffffffffffffffffffff\n      and\n      0xffffffffffffffffffffffffffffffffffffffff\n      and\n      dup2\n      mstore\n      0x20\n      add\n      swap1\n      dup2\n      mstore\n      0x20\n      add\n      0x00\n      keccak256\n      sload\n        /* \"contracts/token.sol\":7634:7661  _balances[sender] >= amount */\n      lt\n      iszero\n        /* \"contracts/token.sol\":7663:7683  uintToString(amount) */\n      tag_73\n        /* \"contracts/token.sol\":7676:7682  amount */\n      dup4\n        /* \"contracts/token.sol\":7663:7675  uintToString */\n      tag_74\n        /* \"contracts/token.sol\":7663:7683  uintToString(amount) */\n      jump\t// in\n    tag_73:\n        /* \"contracts/token.sol\":7626:7684  require(_balances[sender] >= amount, uintToString(amount)) */\n      swap1\n      tag_75\n      jumpi\n      mload(0x40)\n      0x08c379a000000000000000000000000000000000000000000000000000000000\n      dup2\n      mstore\n      0x04\n      add\n      tag_76\n      swap2\n      swap1\n      tag_77\n      jump\t// in\n    tag_76:\n      mload(0x40)\n      dup1\n      swap2\n      sub\n      swap1\n      revert\n    tag_75:\n      pop\n        /* \"contracts/token.sol\":7737:7743  amount */\n      dup2\n        /* \"contracts/token.sol\":7702:7713  _allowances */\n      0x03\n        /* \"contracts/token.sol\":7702:7721  _allowances[sender] */\n      0x00\n        /* \"contracts/token.sol\":7714:7720  sender */\n      dup7\n        /* \"contracts/token.sol\":7702:7721  _allowances[sender] */\n      0xffffffffffffffffffffffffffffffffffffffff\n      and\n      0xffffffffffffffffffffffffffffffffffffffff\n      and\n      dup2\n      mstore\n      0x20\n      add\n      swap1\n      dup2\n      mstore\n      0x20\n      add\n      0x00\n      keccak256\n        /* \"contracts/token.sol\":7702:7733  _allowances[sender][msg.sender] */\n      0x00\n        /* \"contracts/token.sol\":7722:7732  msg.sender */\n      caller\n        /* \"contracts/token.sol\":7702:7733  _allowances[sender][msg.sender] */\n      0xffffffffffffffffffffffffffffffffffffffff\n      and\n      0xffffffffffffffffffffffffffffffffffffffff\n      and\n      dup2\n      mstore\n      0x20\n      add\n      swap1\n      dup2\n      mstore\n      0x20\n      add\n      0x00\n      keccak256\n      sload\n        /* \"contracts/token.sol\":7702:7743  _allowances[sender][msg.sender] >= amount */\n      lt\n      iszero\n        /* \"contracts/token.sol\":7694:7788  require(_allowances[sender][msg.sender] >= amount, \"ERC20: transfer amount exceeds allowance\") */\n      tag_78\n      jumpi\n      mload(0x40)\n      0x08c379a000000000000000000000000000000000000000000000000000000000\n      dup2\n      mstore\n      0x04\n      add\n      tag_79\n      swap1\n      tag_80\n      jump\t// in\n    tag_79:\n      mload(0x40)\n      dup1\n      swap2\n      sub\n      swap1\n      revert\n    tag_78:\n        /* \"contracts/token.sol\":7820:7826  amount */\n      dup2\n        /* \"contracts/token.sol\":7799:7808  _balances */\n      0x02\n        /* \"contracts/token.sol\":7799:7816  _balances[sender] */\n      0x00\n        /* \"contracts/token.sol\":7809:7815  sender */\n      dup7\n        /* \"contracts/token.sol\":7799:7816  _balances[sender] */\n      0xffffffffffffffffffffffffffffffffffffffff\n      and\n      0xffffffffffffffffffffffffffffffffffffffff\n      and\n      dup2\n      mstore\n      0x20\n      add\n      swap1\n      dup2\n      mstore\n      0x20\n      add\n      0x00\n      keccak256\n      0x00\n        /* \"contracts/token.sol\":7799:7826  _balances[sender] -= amount */\n      dup3\n      dup3\n      sload\n      tag_81\n      swap2\n      swap1\n      tag_82\n      jump\t// in\n    tag_81:\n      swap3\n      pop\n      pop\n      dup2\n      swap1\n      sstore\n      pop\n        /* \"contracts/token.sol\":7860:7866  amount */\n      dup2\n        /* \"contracts/token.sol\":7836:7845  _balances */\n      0x02\n        /* \"contracts/token.sol\":7836:7856  _balances[recipient] */\n      0x00\n        /* \"contracts/token.sol\":7846:7855  recipient */\n      dup6\n        /* \"contracts/token.sol\":7836:7856  _balances[recipient] */\n      0xffffffffffffffffffffffffffffffffffffffff\n      and\n      0xffffffffffffffffffffffffffffffffffffffff\n      and\n      dup2\n      mstore\n      0x20\n      add\n      swap1\n      dup2\n      mstore\n      0x20\n      add\n      0x00\n      keccak256\n      0x00\n        /* \"contracts/token.sol\":7836:7866  _balances[recipient] += amount */\n      dup3\n      dup3\n      sload\n      tag_83\n      swap2\n      swap1\n      tag_84\n      jump\t// in\n    tag_83:\n      swap3\n      pop\n      pop\n      dup2\n      swap1\n      sstore\n      pop\n        /* \"contracts/token.sol\":7911:7917  amount */\n      dup2\n        /* \"contracts/token.sol\":7876:7887  _allowances */\n      0x03\n        /* \"contracts/token.sol\":7876:7895  _allowances[sender] */\n      0x00\n        /* \"contracts/token.sol\":7888:7894  sender */\n      dup7\n        /* \"contracts/token.sol\":7876:7895  _allowances[sender] */\n      0xffffffffffffffffffffffffffffffffffffffff\n      and\n      0xffffffffffffffffffffffffffffffffffffffff\n      and\n      dup2\n      mstore\n      0x20\n      add\n      swap1\n      dup2\n      mstore\n      0x20\n      add\n      0x00\n      keccak256\n        /* \"contracts/token.sol\":7876:7907  _allowances[sender][msg.sender] */\n      0x00\n        /* \"contracts/token.sol\":7896:7906  msg.sender */\n      caller\n        /* \"contracts/token.sol\":7876:7907  _allowances[sender][msg.sender] */\n      0xffffffffffffffffffffffffffffffffffffffff\n      and\n      0xffffffffffffffffffffffffffffffffffffffff\n      and\n      dup2\n      mstore\n      0x20\n      add\n      swap1\n      dup2\n      mstore\n      0x20\n      add\n      0x00\n      keccak256\n      0x00\n        /* \"contracts/token.sol\":7876:7917  _allowances[sender][msg.sender] -= amount */\n      dup3\n      dup3\n      sload\n      tag_85\n      swap2\n      swap1\n      tag_82\n      jump\t// in\n    tag_85:\n      swap3\n      pop\n      pop\n      dup2\n      swap1\n      sstore\n      pop\n        /* \"contracts/token.sol\":7949:7958  recipient */\n      dup3\n        /* \"contracts/token.sol\":7932:7967  Transfer(sender, recipient, amount) */\n      0xffffffffffffffffffffffffffffffffffffffff\n      and\n        /* \"contracts/token.sol\":7941:7947  sender */\n      dup5\n        /* \"contracts/token.sol\":7932:7967  Transfer(sender, recipient, amount) */\n      0xffffffffffffffffffffffffffffffffffffffff\n      and\n      0xddf252ad1be2c89b69c2b068fc378daa952ba7f163c4a11628f55a4df523b3ef\n        /* \"contracts/token.sol\":7960:7966  amount */\n      dup5\n        /* \"contracts/token.sol\":7932:7967  Transfer(sender, recipient, amount) */\n      mload(0x40)\n      tag_86\n      swap2\n      swap1\n      tag_24\n      jump\t// in\n    tag_86:\n      mload(0x40)\n      dup1\n      swap2\n      sub\n      swap1\n      log3\n        /* \"contracts/token.sol\":7985:7989  true */\n      0x01\n        /* \"contracts/token.sol\":7978:7989  return true */\n      swap1\n      pop\n        /* \"contracts/token.sol\":7318:7996  function transferFrom(address sender, address recipient, uint256 amount) ... */\n      swap4\n      swap3\n      pop\n      pop\n      pop\n      jump\t// out\n        /* \"contracts/token.sol\":1894:2424  function _mint(uint amount) ... */\n    tag_33:\n        /* \"libraries/ownable.sol\":1033:1043  msg.sender */\n      caller\n        /* \"libraries/ownable.sol\":1023:1043  _owner == msg.sender */\n      0xffffffffffffffffffffffffffffffffffffffff\n      and\n        /* \"libraries/ownable.sol\":1023:1029  _owner */\n      0x00\n      dup1\n      sload\n      swap1\n      0x0100\n      exp\n      swap1\n      div\n      0xffffffffffffffffffffffffffffffffffffffff\n      and\n        /* \"libraries/ownable.sol\":1023:1043  _owner == msg.sender */\n      0xffffffffffffffffffffffffffffffffffffffff\n      and\n      eq\n        /* \"libraries/ownable.sol\":1015:1080  require(_owner == msg.sender, \"Ownable: caller is not the owner\") */\n      tag_88\n      jumpi\n      mload(0x40)\n      0x08c379a000000000000000000000000000000000000000000000000000000000\n      dup2\n      mstore\n      0x04\n      add\n      tag_89\n      swap1\n      tag_63\n      jump\t// in\n    tag_89:\n      mload(0x40)\n      dup1\n      swap2\n      sub\n      swap1\n      revert\n    tag_88:\n        /* \"contracts/token.sol\":2057:2058  0 */\n      0x00\n        /* \"contracts/token.sol\":2035:2059  msg.sender != address(0) */\n      0xffffffffffffffffffffffffffffffffffffffff\n      and\n        /* \"contracts/token.sol\":2035:2045  msg.sender */\n      caller\n        /* \"contracts/token.sol\":2035:2059  msg.sender != address(0) */\n      0xffffffffffffffffffffffffffffffffffffffff\n      and\n      eq\n      iszero\n        /* \"contracts/token.sol\":2027:2095  require(msg.sender != address(0), \"ERC20: mint to the zero address\") */\n      tag_91\n      jumpi\n      mload(0x40)\n      0x08c379a000000000000000000000000000000000000000000000000000000000\n      dup2\n      mstore\n      0x04\n      add\n      tag_92\n      swap1\n      tag_93\n      jump\t// in\n    tag_92:\n      mload(0x40)\n      dup1\n      swap2\n      sub\n      swap1\n      revert\n    tag_91:\n        /* \"contracts/token.sol\":2133:2138  false */\n      0x00\n        /* \"contracts/token.sol\":2113:2138  minting_disabled == false */\n      iszero\n      iszero\n        /* \"contracts/token.sol\":2113:2129  minting_disabled */\n      0x04\n      0x00\n      swap1\n      sload\n      swap1\n      0x0100\n      exp\n      swap1\n      div\n      0xff\n      and\n        /* \"contracts/token.sol\":2113:2138  minting_disabled == false */\n      iszero\n      iszero\n      eq\n        /* \"contracts/token.sol\":2105:2162  require(minting_disabled == false, \"Minting is disabled\") */\n      tag_94\n      jumpi\n      mload(0x40)\n      0x08c379a000000000000000000000000000000000000000000000000000000000\n      dup2\n      mstore\n      0x04\n      add\n      tag_95\n      swap1\n      tag_96\n      jump\t// in\n    tag_95:\n      mload(0x40)\n      dup1\n      swap2\n      sub\n      swap1\n      revert\n    tag_94:\n        /* \"contracts/token.sol\":2306:2312  amount */\n      dup1\n        /* \"contracts/token.sol\":2290:2302  _totalSupply */\n      0x01\n      0x00\n        /* \"contracts/token.sol\":2290:2312  _totalSupply += amount */\n      dup3\n      dup3\n      sload\n      tag_97\n      swap2\n      swap1\n      tag_84\n      jump\t// in\n    tag_97:\n      swap3\n      pop\n      pop\n      dup2\n      swap1\n      sstore\n      pop\n        /* \"contracts/token.sol\":2347:2353  amount */\n      dup1\n        /* \"contracts/token.sol\":2322:2331  _balances */\n      0x02\n        /* \"contracts/token.sol\":2322:2343  _balances[msg.sender] */\n      0x00\n        /* \"contracts/token.sol\":2332:2342  msg.sender */\n      caller\n        /* \"contracts/token.sol\":2322:2343  _balances[msg.sender] */\n      0xffffffffffffffffffffffffffffffffffffffff\n      and\n      0xffffffffffffffffffffffffffffffffffffffff\n      and\n      dup2\n      mstore\n      0x20\n      add\n      swap1\n      dup2\n      mstore\n      0x20\n      add\n      0x00\n      keccak256\n      0x00\n        /* \"contracts/token.sol\":2322:2353  _balances[msg.sender] += amount */\n      dup3\n      dup3\n      sload\n      tag_98\n      swap2\n      swap1\n      tag_84\n      jump\t// in\n    tag_98:\n      swap3\n      pop\n      pop\n      dup2\n      swap1\n      sstore\n      pop\n        /* \"contracts/token.sol\":2389:2399  msg.sender */\n      caller\n        /* \"contracts/token.sol\":2368:2408  Transfer(address(0), msg.sender, amount) */\n      0xffffffffffffffffffffffffffffffffffffffff\n      and\n        /* \"contracts/token.sol\":2385:2386  0 */\n      0x00\n        /* \"contracts/token.sol\":2368:2408  Transfer(address(0), msg.sender, amount) */\n      0xffffffffffffffffffffffffffffffffffffffff\n      and\n      0xddf252ad1be2c89b69c2b068fc378daa952ba7f163c4a11628f55a4df523b3ef\n        /* \"contracts/token.sol\":2401:2407  amount */\n      dup4\n        /* \"contracts/token.sol\":2368:2408  Transfer(address(0), msg.sender, amount) */\n      mload(0x40)\n      tag_99\n      swap2\n      swap1\n      tag_24\n      jump\t// in\n    tag_99:\n      mload(0x40)\n      dup1\n      swap2\n      sub\n      swap1\n      log3\n        /* \"contracts/token.sol\":1894:2424  function _mint(uint amount) ... */\n      pop\n      jump\t// out\n        /* \"contracts/token.sol\":1387:1469  function decimals() public view virtual returns (uint8) {... */\n    tag_35:\n        /* \"contracts/token.sol\":1436:1441  uint8 */\n      0x00\n        /* \"contracts/token.sol\":1460:1462  18 */\n      0x12\n        /* \"contracts/token.sol\":1453:1462  return 18 */\n      swap1\n      pop\n        /* \"contracts/token.sol\":1387:1469  function decimals() public view virtual returns (uint8) {... */\n      swap1\n      jump\t// out\n        /* \"contracts/token.sol\":3709:3864  function balanceOf(address owner) ... */\n    tag_41:\n        /* \"contracts/token.sol\":3811:3818  uint256 */\n      0x00\n        /* \"contracts/token.sol\":3841:3850  _balances */\n      0x02\n        /* \"contracts/token.sol\":3841:3857  _balances[owner] */\n      0x00\n        /* \"contracts/token.sol\":3851:3856  owner */\n      dup4\n        /* \"contracts/token.sol\":3841:3857  _balances[owner] */\n      0xffffffffffffffffffffffffffffffffffffffff\n      and\n      0xffffffffffffffffffffffffffffffffffffffff\n      and\n      dup2\n      mstore\n      0x20\n      add\n      swap1\n      dup2\n      mstore\n      0x20\n      add\n      0x00\n      keccak256\n      sload\n        /* \"contracts/token.sol\":3834:3857  return _balances[owner] */\n      swap1\n      pop\n        /* \"contracts/token.sol\":3709:3864  function balanceOf(address owner) ... */\n      swap2\n      swap1\n      pop\n      jump\t// out\n        /* \"contracts/token.sol\":4798:5276  function transfer(address recipient, uint256 amount) ... */\n    tag_45:\n        /* \"contracts/token.sol\":4905:4909  bool */\n      0x00\n        /* \"contracts/token.sol\":4954:4955  0 */\n      dup1\n        /* \"contracts/token.sol\":4933:4956  recipient != address(0) */\n      0xffffffffffffffffffffffffffffffffffffffff\n      and\n        /* \"contracts/token.sol\":4933:4942  recipient */\n      dup4\n        /* \"contracts/token.sol\":4933:4956  recipient != address(0) */\n      0xffffffffffffffffffffffffffffffffffffffff\n      and\n      eq\n      iszero\n        /* \"contracts/token.sol\":4925:4996  require(recipient != address(0), \"ERC20: transfer to the zero address\") */\n      tag_103\n      jumpi\n      mload(0x40)\n      0x08c379a000000000000000000000000000000000000000000000000000000000\n      dup2\n      mstore\n      0x04\n      add\n      tag_104\n      swap1\n      tag_72\n      jump\t// in\n    tag_104:\n      mload(0x40)\n      dup1\n      swap2\n      sub\n      swap1\n      revert\n    tag_103:\n        /* \"contracts/token.sol\":5039:5045  amount */\n      dup2\n        /* \"contracts/token.sol\":5014:5023  _balances */\n      0x02\n        /* \"contracts/token.sol\":5014:5035  _balances[msg.sender] */\n      0x00\n        /* \"contracts/token.sol\":5024:5034  msg.sender */\n      caller\n        /* \"contracts/token.sol\":5014:5035  _balances[msg.sender] */\n      0xffffffffffffffffffffffffffffffffffffffff\n      and\n      0xffffffffffffffffffffffffffffffffffffffff\n      and\n      dup2\n      mstore\n      0x20\n      add\n      swap1\n      dup2\n      mstore\n      0x20\n      add\n      0x00\n      keccak256\n      sload\n        /* \"contracts/token.sol\":5014:5045  _balances[msg.sender] >= amount */\n      lt\n      iszero\n        /* \"contracts/token.sol\":5047:5067  uintToString(amount) */\n      tag_105\n        /* \"contracts/token.sol\":5060:5066  amount */\n      dup4\n        /* \"contracts/token.sol\":5047:5059  uintToString */\n      tag_74\n        /* \"contracts/token.sol\":5047:5067  uintToString(amount) */\n      jump\t// in\n    tag_105:\n        /* \"contracts/token.sol\":5006:5068  require(_balances[msg.sender] >= amount, uintToString(amount)) */\n      swap1\n      tag_106\n      jumpi\n      mload(0x40)\n      0x08c379a000000000000000000000000000000000000000000000000000000000\n      dup2\n      mstore\n      0x04\n      add\n      tag_107\n      swap2\n      swap1\n      tag_77\n      jump\t// in\n    tag_107:\n      mload(0x40)\n      dup1\n      swap2\n      sub\n      swap1\n      revert\n    tag_106:\n      pop\n        /* \"contracts/token.sol\":5147:5153  amount */\n      dup2\n        /* \"contracts/token.sol\":5122:5131  _balances */\n      0x02\n        /* \"contracts/token.sol\":5122:5143  _balances[msg.sender] */\n      0x00\n        /* \"contracts/token.sol\":5132:5142  msg.sender */\n      caller\n        /* \"contracts/token.sol\":5122:5143  _balances[msg.sender] */\n      0xffffffffffffffffffffffffffffffffffffffff\n      and\n      0xffffffffffffffffffffffffffffffffffffffff\n      and\n      dup2\n      mstore\n      0x20\n      add\n      swap1\n      dup2\n      mstore\n      0x20\n      add\n      0x00\n      keccak256\n      0x00\n        /* \"contracts/token.sol\":5122:5153  _balances[msg.sender] -= amount */\n      dup3\n      dup3\n      sload\n      tag_108\n      swap2\n      swap1\n      tag_82\n      jump\t// in\n    tag_108:\n      swap3\n      pop\n      pop\n      dup2\n      swap1\n      sstore\n      pop\n        /* \"contracts/token.sol\":5187:5193  amount */\n      dup2\n        /* \"contracts/token.sol\":5163:5172  _balances */\n      0x02\n        /* \"contracts/token.sol\":5163:5183  _balances[recipient] */\n      0x00\n        /* \"contracts/token.sol\":5173:5182  recipient */\n      dup6\n        /* \"contracts/token.sol\":5163:5183  _balances[recipient] */\n      0xffffffffffffffffffffffffffffffffffffffff\n      and\n      0xffffffffffffffffffffffffffffffffffffffff\n      and\n      dup2\n      mstore\n      0x20\n      add\n      swap1\n      dup2\n      mstore\n      0x20\n      add\n      0x00\n      keccak256\n      0x00\n        /* \"contracts/token.sol\":5163:5193  _balances[recipient] += amount */\n      dup3\n      dup3\n      sload\n      tag_109\n      swap2\n      swap1\n      tag_84\n      jump\t// in\n    tag_109:\n      swap3\n      pop\n      pop\n      dup2\n      swap1\n      sstore\n      pop\n        /* \"contracts/token.sol\":5229:5238  recipient */\n      dup3\n        /* \"contracts/token.sol\":5208:5247  Transfer(msg.sender, recipient, amount) */\n      0xffffffffffffffffffffffffffffffffffffffff\n      and\n        /* \"contracts/token.sol\":5217:5227  msg.sender */\n      caller\n        /* \"contracts/token.sol\":5208:5247  Transfer(msg.sender, recipient, amount) */\n      0xffffffffffffffffffffffffffffffffffffffff\n      and\n      0xddf252ad1be2c89b69c2b068fc378daa952ba7f163c4a11628f55a4df523b3ef\n        /* \"contracts/token.sol\":5240:5246  amount */\n      dup5\n        /* \"contracts/token.sol\":5208:5247  Transfer(msg.sender, recipient, amount) */\n      mload(0x40)\n      tag_110\n      swap2\n      swap1\n      tag_24\n      jump\t// in\n    tag_110:\n      mload(0x40)\n      dup1\n      swap2\n      sub\n      swap1\n      log3\n        /* \"contracts/token.sol\":5265:5269  true */\n      0x01\n        /* \"contracts/token.sol\":5258:5269  return true */\n      swap1\n      pop\n        /* \"contracts/token.sol\":4798:5276  function transfer(address recipient, uint256 amount) ... */\n      swap3\n      swap2\n      pop\n      pop\n      jump\t// out\n        /* \"contracts/token.sol\":5791:5934  function allowance(address owner, address spender) external view override returns (uint256) {... */\n    tag_50:\n        /* \"contracts/token.sol\":5874:5881  uint256 */\n      0x00\n        /* \"contracts/token.sol\":5900:5911  _allowances */\n      0x03\n        /* \"contracts/token.sol\":5900:5918  _allowances[owner] */\n      0x00\n        /* \"contracts/token.sol\":5912:5917  owner */\n      dup5\n        /* \"contracts/token.sol\":5900:5918  _allowances[owner] */\n      0xffffffffffffffffffffffffffffffffffffffff\n      and\n      0xffffffffffffffffffffffffffffffffffffffff\n      and\n      dup2\n      mstore\n      0x20\n      add\n      swap1\n      dup2\n      mstore\n      0x20\n      add\n      0x00\n      keccak256\n        /* \"contracts/token.sol\":5900:5927  _allowances[owner][spender] */\n      0x00\n        /* \"contracts/token.sol\":5919:5926  spender */\n      dup4\n        /* \"contracts/token.sol\":5900:5927  _allowances[owner][spender] */\n      0xffffffffffffffffffffffffffffffffffffffff\n      and\n      0xffffffffffffffffffffffffffffffffffffffff\n      and\n      dup2\n      mstore\n      0x20\n      add\n      swap1\n      dup2\n      mstore\n      0x20\n      add\n      0x00\n      keccak256\n      sload\n        /* \"contracts/token.sol\":5893:5927  return _allowances[owner][spender] */\n      swap1\n      pop\n        /* \"contracts/token.sol\":5791:5934  function allowance(address owner, address spender) external view override returns (uint256) {... */\n      swap3\n      swap2\n      pop\n      pop\n      jump\t// out\n        /* \"contracts/token.sol\":3870:4360  function uintToString(uint256 _i) internal pure returns (string memory) {... */\n    tag_74:\n        /* \"contracts/token.sol\":3927:3940  string memory */\n      0x60\n        /* \"contracts/token.sol\":3962:3963  0 */\n      0x00\n        /* \"contracts/token.sol\":3956:3958  _i */\n      dup3\n        /* \"contracts/token.sol\":3956:3963  _i == 0 */\n      eq\n        /* \"contracts/token.sol\":3952:4000  if (_i == 0) {... */\n      iszero\n      tag_113\n      jumpi\n        /* \"contracts/token.sol\":3979:3989  return \"0\" */\n      mload(0x40)\n      dup1\n      0x40\n      add\n      0x40\n      mstore\n      dup1\n      0x01\n      dup2\n      mstore\n      0x20\n      add\n      0x3000000000000000000000000000000000000000000000000000000000000000\n      dup2\n      mstore\n      pop\n      swap1\n      pop\n      jump(tag_112)\n        /* \"contracts/token.sol\":3952:4000  if (_i == 0) {... */\n    tag_113:\n        /* \"contracts/token.sol\":4009:4018  uint256 j */\n      0x00\n        /* \"contracts/token.sol\":4021:4023  _i */\n      dup3\n        /* \"contracts/token.sol\":4009:4023  uint256 j = _i */\n      swap1\n      pop\n        /* \"contracts/token.sol\":4033:4047  uint256 length */\n      0x00\n        /* \"contracts/token.sol\":4057:4126  while (j != 0) {... */\n    tag_114:\n        /* \"contracts/token.sol\":4069:4070  0 */\n      0x00\n        /* \"contracts/token.sol\":4064:4065  j */\n      dup3\n        /* \"contracts/token.sol\":4064:4070  j != 0 */\n      eq\n        /* \"contracts/token.sol\":4057:4126  while (j != 0) {... */\n      tag_115\n      jumpi\n        /* \"contracts/token.sol\":4086:4094  length++ */\n      dup1\n      dup1\n      tag_116\n      swap1\n      tag_117\n      jump\t// in\n    tag_116:\n      swap2\n      pop\n      pop\n        /* \"contracts/token.sol\":4113:4115  10 */\n      0x0a\n        /* \"contracts/token.sol\":4108:4115  j /= 10 */\n      dup3\n      tag_118\n      swap2\n      swap1\n      tag_119\n      jump\t// in\n    tag_118:\n      swap2\n      pop\n        /* \"contracts/token.sol\":4057:4126  while (j != 0) {... */\n      jump(tag_114)\n    tag_115:\n        /* \"contracts/token.sol\":4135:4152  bytes memory bstr */\n      0x00\n        /* \"contracts/token.sol\":4165:4171  length */\n      dup2\n        /* \"contracts/token.sol\":4155:4172  new bytes(length) */\n      0xffffffffffffffff\n      dup2\n      gt\n      iszero\n      tag_120\n      jumpi\n      tag_121\n      tag_122\n      jump\t// in\n    tag_121:\n    tag_120:\n      mload(0x40)\n      swap1\n      dup1\n      dup3\n      mstore\n      dup1\n      0x1f\n      add\n      not(0x1f)\n      and\n      0x20\n      add\n      dup3\n      add\n      0x40\n      mstore\n      dup1\n      iszero\n      tag_123\n      jumpi\n      dup2\n      0x20\n      add\n      0x01\n      dup3\n      mul\n      dup1\n      calldatasize\n      dup4\n      calldatacopy\n      dup1\n      dup3\n      add\n      swap2\n      pop\n      pop\n      swap1\n      pop\n    tag_123:\n      pop\n        /* \"contracts/token.sol\":4135:4172  bytes memory bstr = new bytes(length) */\n      swap1\n      pop\n        /* \"contracts/token.sol\":4182:4191  uint256 k */\n      0x00\n        /* \"contracts/token.sol\":4194:4200  length */\n      dup3\n        /* \"contracts/token.sol\":4182:4200  uint256 k = length */\n      swap1\n      pop\n        /* \"contracts/token.sol\":4214:4216  _i */\n      dup6\n        /* \"contracts/token.sol\":4210:4216  j = _i */\n      swap4\n      pop\n        /* \"contracts/token.sol\":4226:4325  while (j != 0) {... */\n    tag_124:\n        /* \"contracts/token.sol\":4238:4239  0 */\n      0x00\n        /* \"contracts/token.sol\":4233:4234  j */\n      dup5\n        /* \"contracts/token.sol\":4233:4239  j != 0 */\n      eq\n        /* \"contracts/token.sol\":4226:4325  while (j != 0) {... */\n      tag_125\n      jumpi\n        /* \"contracts/token.sol\":4289:4291  10 */\n      0x0a\n        /* \"contracts/token.sol\":4285:4286  j */\n      dup5\n        /* \"contracts/token.sol\":4285:4291  j % 10 */\n      tag_126\n      swap2\n      swap1\n      tag_127\n      jump\t// in\n    tag_126:\n        /* \"contracts/token.sol\":4280:4282  48 */\n      0x30\n        /* \"contracts/token.sol\":4280:4291  48 + j % 10 */\n      tag_128\n      swap2\n      swap1\n      tag_84\n      jump\t// in\n    tag_128:\n        /* \"contracts/token.sol\":4267:4293  bytes1(uint8(48 + j % 10)) */\n      0xf8\n      shl\n        /* \"contracts/token.sol\":4255:4259  bstr */\n      dup3\n        /* \"contracts/token.sol\":4260:4263  --k */\n      dup3\n      tag_129\n      swap1\n      tag_130\n      jump\t// in\n    tag_129:\n      swap3\n      pop\n      dup3\n        /* \"contracts/token.sol\":4255:4264  bstr[--k] */\n      dup2\n      mload\n      dup2\n      lt\n      tag_131\n      jumpi\n      tag_132\n      tag_133\n      jump\t// in\n    tag_132:\n    tag_131:\n      0x20\n      add\n      add\n        /* \"contracts/token.sol\":4255:4293  bstr[--k] = bytes1(uint8(48 + j % 10)) */\n      swap1\n      not(0xffffffffffffffffffffffffffffffffffffffffffffffffffffffffffffff)\n      and\n      swap1\n      dup2\n      0x00\n      byte\n      swap1\n      mstore8\n      pop\n        /* \"contracts/token.sol\":4312:4314  10 */\n      0x0a\n        /* \"contracts/token.sol\":4307:4314  j /= 10 */\n      dup5\n      tag_134\n      swap2\n      swap1\n      tag_119\n      jump\t// in\n    tag_134:\n      swap4\n      pop\n        /* \"contracts/token.sol\":4226:4325  while (j != 0) {... */\n      jump(tag_124)\n    tag_125:\n        /* \"contracts/token.sol\":4348:4352  bstr */\n      dup2\n        /* \"contracts/token.sol\":4334:4353  return string(bstr) */\n      swap5\n      pop\n      pop\n      pop\n      pop\n      pop\n        /* \"contracts/token.sol\":3870:4360  function uintToString(uint256 _i) internal pure returns (string memory) {... */\n    tag_112:\n      swap2\n      swap1\n      pop\n      jump\t// out\n        /* \"#utility.yul\":7:146   */\n    tag_136:\n        /* \"#utility.yul\":53:58   */\n      0x00\n        /* \"#utility.yul\":91:97   */\n      dup2\n        /* \"#utility.yul\":78:98   */\n      calldataload\n        /* \"#utility.yul\":69:98   */\n      swap1\n      pop\n        /* \"#utility.yul\":107:140   */\n      tag_138\n        /* \"#utility.yul\":134:139   */\n      dup2\n        /* \"#utility.yul\":107:140   */\n      tag_139\n      jump\t// in\n    tag_138:\n        /* \"#utility.yul\":7:146   */\n      swap3\n      swap2\n      pop\n      pop\n      jump\t// out\n        /* \"#utility.yul\":152:291   */\n    tag_140:\n        /* \"#utility.yul\":198:203   */\n      0x00\n        /* \"#utility.yul\":236:242   */\n      dup2\n        /* \"#utility.yul\":223:243   */\n      calldataload\n        /* \"#utility.yul\":214:243   */\n      swap1\n      pop\n        /* \"#utility.yul\":252:285   */\n      tag_142\n        /* \"#utility.yul\":279:284   */\n      dup2\n        /* \"#utility.yul\":252:285   */\n      tag_143\n      jump\t// in\n    tag_142:\n        /* \"#utility.yul\":152:291   */\n      swap3\n      swap2\n      pop\n      pop\n      jump\t// out\n        /* \"#utility.yul\":297:626   */\n    tag_40:\n        /* \"#utility.yul\":356:362   */\n      0x00\n        /* \"#utility.yul\":405:407   */\n      0x20\n        /* \"#utility.yul\":393:402   */\n      dup3\n        /* \"#utility.yul\":384:391   */\n      dup5\n        /* \"#utility.yul\":380:403   */\n      sub\n        /* \"#utility.yul\":376:408   */\n      slt\n        /* \"#utility.yul\":373:492   */\n      iszero\n      tag_145\n      jumpi\n        /* \"#utility.yul\":411:490   */\n      tag_146\n      tag_147\n      jump\t// in\n    tag_146:\n        /* \"#utility.yul\":373:492   */\n    tag_145:\n        /* \"#utility.yul\":531:532   */\n      0x00\n        /* \"#utility.yul\":556:609   */\n      tag_148\n        /* \"#utility.yul\":601:608   */\n      dup5\n        /* \"#utility.yul\":592:598   */\n      dup3\n        /* \"#utility.yul\":581:590   */\n      dup6\n        /* \"#utility.yul\":577:599   */\n      add\n        /* \"#utility.yul\":556:609   */\n      tag_136\n      jump\t// in\n    tag_148:\n        /* \"#utility.yul\":546:609   */\n      swap2\n      pop\n        /* \"#utility.yul\":502:619   */\n      pop\n        /* \"#utility.yul\":297:626   */\n      swap3\n      swap2\n      pop\n      pop\n      jump\t// out\n        /* \"#utility.yul\":632:1106   */\n    tag_49:\n        /* \"#utility.yul\":700:706   */\n      0x00\n        /* \"#utility.yul\":708:714   */\n      dup1\n        /* \"#utility.yul\":757:759   */\n      0x40\n        /* \"#utility.yul\":745:754   */\n      dup4\n        /* \"#utility.yul\":736:743   */\n      dup6\n        /* \"#utility.yul\":732:755   */\n      sub\n        /* \"#utility.yul\":728:760   */\n      slt\n        /* \"#utility.yul\":725:844   */\n      iszero\n      tag_150\n      jumpi\n        /* \"#utility.yul\":763:842   */\n      tag_151\n      tag_147\n      jump\t// in\n    tag_151:\n        /* \"#utility.yul\":725:844   */\n    tag_150:\n        /* \"#utility.yul\":883:884   */\n      0x00\n        /* \"#utility.yul\":908:961   */\n      tag_152\n        /* \"#utility.yul\":953:960   */\n      dup6\n        /* \"#utility.yul\":944:950   */\n      dup3\n        /* \"#utility.yul\":933:942   */\n      dup7\n        /* \"#utility.yul\":929:951   */\n      add\n        /* \"#utility.yul\":908:961   */\n      tag_136\n      jump\t// in\n    tag_152:\n        /* \"#utility.yul\":898:961   */\n      swap3\n      pop\n        /* \"#utility.yul\":854:971   */\n      pop\n        /* \"#utility.yul\":1010:1012   */\n      0x20\n        /* \"#utility.yul\":1036:1089   */\n      tag_153\n        /* \"#utility.yul\":1081:1088   */\n      dup6\n        /* \"#utility.yul\":1072:1078   */\n      dup3\n        /* \"#utility.yul\":1061:1070   */\n      dup7\n        /* \"#utility.yul\":1057:1079   */\n      add\n        /* \"#utility.yul\":1036:1089   */\n      tag_136\n      jump\t// in\n    tag_153:\n        /* \"#utility.yul\":1026:1089   */\n      swap2\n      pop\n        /* \"#utility.yul\":981:1099   */\n      pop\n        /* \"#utility.yul\":632:1106   */\n      swap3\n      pop\n      swap3\n      swap1\n      pop\n      jump\t// out\n        /* \"#utility.yul\":1112:1731   */\n    tag_27:\n        /* \"#utility.yul\":1189:1195   */\n      0x00\n        /* \"#utility.yul\":1197:1203   */\n      dup1\n        /* \"#utility.yul\":1205:1211   */\n      0x00\n        /* \"#utility.yul\":1254:1256   */\n      0x60\n        /* \"#utility.yul\":1242:1251   */\n      dup5\n        /* \"#utility.yul\":1233:1240   */\n      dup7\n        /* \"#utility.yul\":1229:1252   */\n      sub\n        /* \"#utility.yul\":1225:1257   */\n      slt\n        /* \"#utility.yul\":1222:1341   */\n      iszero\n      tag_155\n      jumpi\n        /* \"#utility.yul\":1260:1339   */\n      tag_156\n      tag_147\n      jump\t// in\n    tag_156:\n        /* \"#utility.yul\":1222:1341   */\n    tag_155:\n        /* \"#utility.yul\":1380:1381   */\n      0x00\n        /* \"#utility.yul\":1405:1458   */\n      tag_157\n        /* \"#utility.yul\":1450:1457   */\n      dup7\n        /* \"#utility.yul\":1441:1447   */\n      dup3\n        /* \"#utility.yul\":1430:1439   */\n      dup8\n        /* \"#utility.yul\":1426:1448   */\n      add\n        /* \"#utility.yul\":1405:1458   */\n      tag_136\n      jump\t// in\n    tag_157:\n        /* \"#utility.yul\":1395:1458   */\n      swap4\n      pop\n        /* \"#utility.yul\":1351:1468   */\n      pop\n        /* \"#utility.yul\":1507:1509   */\n      0x20\n        /* \"#utility.yul\":1533:1586   */\n      tag_158\n        /* \"#utility.yul\":1578:1585   */\n      dup7\n        /* \"#utility.yul\":1569:1575   */\n      dup3\n        /* \"#utility.yul\":1558:1567   */\n      dup8\n        /* \"#utility.yul\":1554:1576   */\n      add\n        /* \"#utility.yul\":1533:1586   */\n      tag_136\n      jump\t// in\n    tag_158:\n        /* \"#utility.yul\":1523:1586   */\n      swap3\n      pop\n        /* \"#utility.yul\":1478:1596   */\n      pop\n        /* \"#utility.yul\":1635:1637   */\n      0x40\n        /* \"#utility.yul\":1661:1714   */\n      tag_159\n        /* \"#utility.yul\":1706:1713   */\n      dup7\n        /* \"#utility.yul\":1697:1703   */\n      dup3\n        /* \"#utility.yul\":1686:1695   */\n      dup8\n        /* \"#utility.yul\":1682:1704   */\n      add\n        /* \"#utility.yul\":1661:1714   */\n      tag_140\n      jump\t// in\n    tag_159:\n        /* \"#utility.yul\":1651:1714   */\n      swap2\n      pop\n        /* \"#utility.yul\":1606:1724   */\n      pop\n        /* \"#utility.yul\":1112:1731   */\n      swap3\n      pop\n      swap3\n      pop\n      swap3\n      jump\t// out\n        /* \"#utility.yul\":1737:2211   */\n    tag_15:\n        /* \"#utility.yul\":1805:1811   */\n      0x00\n        /* \"#utility.yul\":1813:1819   */\n      dup1\n        /* \"#utility.yul\":1862:1864   */\n      0x40\n        /* \"#utility.yul\":1850:1859   */\n      dup4\n        /* \"#utility.yul\":1841:1848   */\n      dup6\n        /* \"#utility.yul\":1837:1860   */\n      sub\n        /* \"#utility.yul\":1833:1865   */\n      slt\n        /* \"#utility.yul\":1830:1949   */\n      iszero\n      tag_161\n      jumpi\n        /* \"#utility.yul\":1868:1947   */\n      tag_162\n      tag_147\n      jump\t// in\n    tag_162:\n        /* \"#utility.yul\":1830:1949   */\n    tag_161:\n        /* \"#utility.yul\":1988:1989   */\n      0x00\n        /* \"#utility.yul\":2013:2066   */\n      tag_163\n        /* \"#utility.yul\":2058:2065   */\n      dup6\n        /* \"#utility.yul\":2049:2055   */\n      dup3\n        /* \"#utility.yul\":2038:2047   */\n      dup7\n        /* \"#utility.yul\":2034:2056   */\n      add\n        /* \"#utility.yul\":2013:2066   */\n      tag_136\n      jump\t// in\n    tag_163:\n        /* \"#utility.yul\":2003:2066   */\n      swap3\n      pop\n        /* \"#utility.yul\":1959:2076   */\n      pop\n        /* \"#utility.yul\":2115:2117   */\n      0x20\n        /* \"#utility.yul\":2141:2194   */\n      tag_164\n        /* \"#utility.yul\":2186:2193   */\n      dup6\n        /* \"#utility.yul\":2177:2183   */\n      dup3\n        /* \"#utility.yul\":2166:2175   */\n      dup7\n        /* \"#utility.yul\":2162:2184   */\n      add\n        /* \"#utility.yul\":2141:2194   */\n      tag_140\n      jump\t// in\n    tag_164:\n        /* \"#utility.yul\":2131:2194   */\n      swap2\n      pop\n        /* \"#utility.yul\":2086:2204   */\n      pop\n        /* \"#utility.yul\":1737:2211   */\n      swap3\n      pop\n      swap3\n      swap1\n      pop\n      jump\t// out\n        /* \"#utility.yul\":2217:2546   */\n    tag_32:\n        /* \"#utility.yul\":2276:2282   */\n      0x00\n        /* \"#utility.yul\":2325:2327   */\n      0x20\n        /* \"#utility.yul\":2313:2322   */\n      dup3\n        /* \"#utility.yul\":2304:2311   */\n      dup5\n        /* \"#utility.yul\":2300:2323   */\n      sub\n        /* \"#utility.yul\":2296:2328   */\n      slt\n        /* \"#utility.yul\":2293:2412   */\n      iszero\n      tag_166\n      jumpi\n        /* \"#utility.yul\":2331:2410   */\n      tag_167\n      tag_147\n      jump\t// in\n    tag_167:\n        /* \"#utility.yul\":2293:2412   */\n    tag_166:\n        /* \"#utility.yul\":2451:2452   */\n      0x00\n        /* \"#utility.yul\":2476:2529   */\n      tag_168\n        /* \"#utility.yul\":2521:2528   */\n      dup5\n        /* \"#utility.yul\":2512:2518   */\n      dup3\n        /* \"#utility.yul\":2501:2510   */\n      dup6\n        /* \"#utility.yul\":2497:2519   */\n      add\n        /* \"#utility.yul\":2476:2529   */\n      tag_140\n      jump\t// in\n    tag_168:\n        /* \"#utility.yul\":2466:2529   */\n      swap2\n      pop\n        /* \"#utility.yul\":2422:2539   */\n      pop\n        /* \"#utility.yul\":2217:2546   */\n      swap3\n      swap2\n      pop\n      pop\n      jump\t// out\n        /* \"#utility.yul\":2552:2661   */\n    tag_169:\n        /* \"#utility.yul\":2633:2654   */\n      tag_171\n        /* \"#utility.yul\":2648:2653   */\n      dup2\n        /* \"#utility.yul\":2633:2654   */\n      tag_172\n      jump\t// in\n    tag_171:\n        /* \"#utility.yul\":2628:2631   */\n      dup3\n        /* \"#utility.yul\":2621:2655   */\n      mstore\n        /* \"#utility.yul\":2552:2661   */\n      pop\n      pop\n      jump\t// out\n        /* \"#utility.yul\":2667:3031   */\n    tag_173:\n        /* \"#utility.yul\":2755:2758   */\n      0x00\n        /* \"#utility.yul\":2783:2822   */\n      tag_175\n        /* \"#utility.yul\":2816:2821   */\n      dup3\n        /* \"#utility.yul\":2783:2822   */\n      tag_176\n      jump\t// in\n    tag_175:\n        /* \"#utility.yul\":2838:2909   */\n      tag_177\n        /* \"#utility.yul\":2902:2908   */\n      dup2\n        /* \"#utility.yul\":2897:2900   */\n      dup6\n        /* \"#utility.yul\":2838:2909   */\n      tag_178\n      jump\t// in\n    tag_177:\n        /* \"#utility.yul\":2831:2909   */\n      swap4\n      pop\n        /* \"#utility.yul\":2918:2970   */\n      tag_179\n        /* \"#utility.yul\":2963:2969   */\n      dup2\n        /* \"#utility.yul\":2958:2961   */\n      dup6\n        /* \"#utility.yul\":2951:2955   */\n      0x20\n        /* \"#utility.yul\":2944:2949   */\n      dup7\n        /* \"#utility.yul\":2940:2956   */\n      add\n        /* \"#utility.yul\":2918:2970   */\n      tag_180\n      jump\t// in\n    tag_179:\n        /* \"#utility.yul\":2995:3024   */\n      tag_181\n        /* \"#utility.yul\":3017:3023   */\n      dup2\n        /* \"#utility.yul\":2995:3024   */\n      tag_182\n      jump\t// in\n    tag_181:\n        /* \"#utility.yul\":2990:2993   */\n      dup5\n        /* \"#utility.yul\":2986:3025   */\n      add\n        /* \"#utility.yul\":2979:3025   */\n      swap2\n      pop\n        /* \"#utility.yul\":2759:3031   */\n      pop\n        /* \"#utility.yul\":2667:3031   */\n      swap3\n      swap2\n      pop\n      pop\n      jump\t// out\n        /* \"#utility.yul\":3037:3403   */\n    tag_183:\n        /* \"#utility.yul\":3179:3182   */\n      0x00\n        /* \"#utility.yul\":3200:3267   */\n      tag_185\n        /* \"#utility.yul\":3264:3266   */\n      0x23\n        /* \"#utility.yul\":3259:3262   */\n      dup4\n        /* \"#utility.yul\":3200:3267   */\n      tag_178\n      jump\t// in\n    tag_185:\n        /* \"#utility.yul\":3193:3267   */\n      swap2\n      pop\n        /* \"#utility.yul\":3276:3369   */\n      tag_186\n        /* \"#utility.yul\":3365:3368   */\n      dup3\n        /* \"#utility.yul\":3276:3369   */\n      tag_187\n      jump\t// in\n    tag_186:\n        /* \"#utility.yul\":3394:3396   */\n      0x40\n        /* \"#utility.yul\":3389:3392   */\n      dup3\n        /* \"#utility.yul\":3385:3397   */\n      add\n        /* \"#utility.yul\":3378:3397   */\n      swap1\n      pop\n        /* \"#utility.yul\":3037:3403   */\n      swap2\n      swap1\n      pop\n      jump\t// out\n        /* \"#utility.yul\":3409:3775   */\n    tag_188:\n        /* \"#utility.yul\":3551:3554   */\n      0x00\n        /* \"#utility.yul\":3572:3639   */\n      tag_190\n        /* \"#utility.yul\":3636:3638   */\n      0x22\n        /* \"#utility.yul\":3631:3634   */\n      dup4\n        /* \"#utility.yul\":3572:3639   */\n      tag_178\n      jump\t// in\n    tag_190:\n        /* \"#utility.yul\":3565:3639   */\n      swap2\n      pop\n        /* \"#utility.yul\":3648:3741   */\n      tag_191\n        /* \"#utility.yul\":3737:3740   */\n      dup3\n        /* \"#utility.yul\":3648:3741   */\n      tag_192\n      jump\t// in\n    tag_191:\n        /* \"#utility.yul\":3766:3768   */\n      0x40\n        /* \"#utility.yul\":3761:3764   */\n      dup3\n        /* \"#utility.yul\":3757:3769   */\n      add\n        /* \"#utility.yul\":3750:3769   */\n      swap1\n      pop\n        /* \"#utility.yul\":3409:3775   */\n      swap2\n      swap1\n      pop\n      jump\t// out\n        /* \"#utility.yul\":3781:4147   */\n    tag_193:\n        /* \"#utility.yul\":3923:3926   */\n      0x00\n        /* \"#utility.yul\":3944:4011   */\n      tag_195\n        /* \"#utility.yul\":4008:4010   */\n      0x25\n        /* \"#utility.yul\":4003:4006   */\n      dup4\n        /* \"#utility.yul\":3944:4011   */\n      tag_178\n      jump\t// in\n    tag_195:\n        /* \"#utility.yul\":3937:4011   */\n      swap2\n      pop\n        /* \"#utility.yul\":4020:4113   */\n      tag_196\n        /* \"#utility.yul\":4109:4112   */\n      dup3\n        /* \"#utility.yul\":4020:4113   */\n      tag_197\n      jump\t// in\n    tag_196:\n        /* \"#utility.yul\":4138:4140   */\n      0x40\n        /* \"#utility.yul\":4133:4136   */\n      dup3\n        /* \"#utility.yul\":4129:4141   */\n      add\n        /* \"#utility.yul\":4122:4141   */\n      swap1\n      pop\n        /* \"#utility.yul\":3781:4147   */\n      swap2\n      swap1\n      pop\n      jump\t// out\n        /* \"#utility.yul\":4153:4519   */\n    tag_198:\n        /* \"#utility.yul\":4295:4298   */\n      0x00\n        /* \"#utility.yul\":4316:4383   */\n      tag_200\n        /* \"#utility.yul\":4380:4382   */\n      0x28\n        /* \"#utility.yul\":4375:4378   */\n      dup4\n        /* \"#utility.yul\":4316:4383   */\n      tag_178\n      jump\t// in\n    tag_200:\n        /* \"#utility.yul\":4309:4383   */\n      swap2\n      pop\n        /* \"#utility.yul\":4392:4485   */\n      tag_201\n        /* \"#utility.yul\":4481:4484   */\n      dup3\n        /* \"#utility.yul\":4392:4485   */\n      tag_202\n      jump\t// in\n    tag_201:\n        /* \"#utility.yul\":4510:4512   */\n      0x40\n        /* \"#utility.yul\":4505:4508   */\n      dup3\n        /* \"#utility.yul\":4501:4513   */\n      add\n        /* \"#utility.yul\":4494:4513   */\n      swap1\n      pop\n        /* \"#utility.yul\":4153:4519   */\n      swap2\n      swap1\n      pop\n      jump\t// out\n        /* \"#utility.yul\":4525:4891   */\n    tag_203:\n        /* \"#utility.yul\":4667:4670   */\n      0x00\n        /* \"#utility.yul\":4688:4755   */\n      tag_205\n        /* \"#utility.yul\":4752:4754   */\n      0x20\n        /* \"#utility.yul\":4747:4750   */\n      dup4\n        /* \"#utility.yul\":4688:4755   */\n      tag_178\n      jump\t// in\n    tag_205:\n        /* \"#utility.yul\":4681:4755   */\n      swap2\n      pop\n        /* \"#utility.yul\":4764:4857   */\n      tag_206\n        /* \"#utility.yul\":4853:4856   */\n      dup3\n        /* \"#utility.yul\":4764:4857   */\n      tag_207\n      jump\t// in\n    tag_206:\n        /* \"#utility.yul\":4882:4884   */\n      0x20\n        /* \"#utility.yul\":4877:4880   */\n      dup3\n        /* \"#utility.yul\":4873:4885   */\n      add\n        /* \"#utility.yul\":4866:4885   */\n      swap1\n      pop\n        /* \"#utility.yul\":4525:4891   */\n      swap2\n      swap1\n      pop\n      jump\t// out\n        /* \"#utility.yul\":4897:5263   */\n    tag_208:\n        /* \"#utility.yul\":5039:5042   */\n      0x00\n        /* \"#utility.yul\":5060:5127   */\n      tag_210\n        /* \"#utility.yul\":5124:5126   */\n      0x13\n        /* \"#utility.yul\":5119:5122   */\n      dup4\n        /* \"#utility.yul\":5060:5127   */\n      tag_178\n      jump\t// in\n    tag_210:\n        /* \"#utility.yul\":5053:5127   */\n      swap2\n      pop\n        /* \"#utility.yul\":5136:5229   */\n      tag_211\n        /* \"#utility.yul\":5225:5228   */\n      dup3\n        /* \"#utility.yul\":5136:5229   */\n      tag_212\n      jump\t// in\n    tag_211:\n        /* \"#utility.yul\":5254:5256   */\n      0x20\n        /* \"#utility.yul\":5249:5252   */\n      dup3\n        /* \"#utility.yul\":5245:5257   */\n      add\n        /* \"#utility.yul\":5238:5257   */\n      swap1\n      pop\n        /* \"#utility.yul\":4897:5263   */\n      swap2\n      swap1\n      pop\n      jump\t// out\n        /* \"#utility.yul\":5269:5635   */\n    tag_213:\n        /* \"#utility.yul\":5411:5414   */\n      0x00\n        /* \"#utility.yul\":5432:5499   */\n      tag_215\n        /* \"#utility.yul\":5496:5498   */\n      0x25\n        /* \"#utility.yul\":5491:5494   */\n      dup4\n        /* \"#utility.yul\":5432:5499   */\n      tag_178\n      jump\t// in\n    tag_215:\n        /* \"#utility.yul\":5425:5499   */\n      swap2\n      pop\n        /* \"#utility.yul\":5508:5601   */\n      tag_216\n        /* \"#utility.yul\":5597:5600   */\n      dup3\n        /* \"#utility.yul\":5508:5601   */\n      tag_217\n      jump\t// in\n    tag_216:\n        /* \"#utility.yul\":5626:5628   */\n      0x40\n        /* \"#utility.yul\":5621:5624   */\n      dup3\n        /* \"#utility.yul\":5617:5629   */\n      add\n        /* \"#utility.yul\":5610:5629   */\n      swap1\n      pop\n        /* \"#utility.yul\":5269:5635   */\n      swap2\n      swap1\n      pop\n      jump\t// out\n        /* \"#utility.yul\":5641:6007   */\n    tag_218:\n        /* \"#utility.yul\":5783:5786   */\n      0x00\n        /* \"#utility.yul\":5804:5871   */\n      tag_220\n        /* \"#utility.yul\":5868:5870   */\n      0x1f\n        /* \"#utility.yul\":5863:5866   */\n      dup4\n        /* \"#utility.yul\":5804:5871   */\n      tag_178\n      jump\t// in\n    tag_220:\n        /* \"#utility.yul\":5797:5871   */\n      swap2\n      pop\n        /* \"#utility.yul\":5880:5973   */\n      tag_221\n        /* \"#utility.yul\":5969:5972   */\n      dup3\n        /* \"#utility.yul\":5880:5973   */\n      tag_222\n      jump\t// in\n    tag_221:\n        /* \"#utility.yul\":5998:6000   */\n      0x20\n        /* \"#utility.yul\":5993:5996   */\n      dup3\n        /* \"#utility.yul\":5989:6001   */\n      add\n        /* \"#utility.yul\":5982:6001   */\n      swap1\n      pop\n        /* \"#utility.yul\":5641:6007   */\n      swap2\n      swap1\n      pop\n      jump\t// out\n        /* \"#utility.yul\":6013:6131   */\n    tag_223:\n        /* \"#utility.yul\":6100:6124   */\n      tag_225\n        /* \"#utility.yul\":6118:6123   */\n      dup2\n        /* \"#utility.yul\":6100:6124   */\n      tag_226\n      jump\t// in\n    tag_225:\n        /* \"#utility.yul\":6095:6098   */\n      dup3\n        /* \"#utility.yul\":6088:6125   */\n      mstore\n        /* \"#utility.yul\":6013:6131   */\n      pop\n      pop\n      jump\t// out\n        /* \"#utility.yul\":6137:6249   */\n    tag_227:\n        /* \"#utility.yul\":6220:6242   */\n      tag_229\n        /* \"#utility.yul\":6236:6241   */\n      dup2\n        /* \"#utility.yul\":6220:6242   */\n      tag_230\n      jump\t// in\n    tag_229:\n        /* \"#utility.yul\":6215:6218   */\n      dup3\n        /* \"#utility.yul\":6208:6243   */\n      mstore\n        /* \"#utility.yul\":6137:6249   */\n      pop\n      pop\n      jump\t// out\n        /* \"#utility.yul\":6255:6465   */\n    tag_18:\n        /* \"#utility.yul\":6342:6346   */\n      0x00\n        /* \"#utility.yul\":6380:6382   */\n      0x20\n        /* \"#utility.yul\":6369:6378   */\n      dup3\n        /* \"#utility.yul\":6365:6383   */\n      add\n        /* \"#utility.yul\":6357:6383   */\n      swap1\n      pop\n        /* \"#utility.yul\":6393:6458   */\n      tag_232\n        /* \"#utility.yul\":6455:6456   */\n      0x00\n        /* \"#utility.yul\":6444:6453   */\n      dup4\n        /* \"#utility.yul\":6440:6457   */\n      add\n        /* \"#utility.yul\":6431:6437   */\n      dup5\n        /* \"#utility.yul\":6393:6458   */\n      tag_169\n      jump\t// in\n    tag_232:\n        /* \"#utility.yul\":6255:6465   */\n      swap3\n      swap2\n      pop\n      pop\n      jump\t// out\n        /* \"#utility.yul\":6471:6784   */\n    tag_77:\n        /* \"#utility.yul\":6584:6588   */\n      0x00\n        /* \"#utility.yul\":6622:6624   */\n      0x20\n        /* \"#utility.yul\":6611:6620   */\n      dup3\n        /* \"#utility.yul\":6607:6625   */\n      add\n        /* \"#utility.yul\":6599:6625   */\n      swap1\n      pop\n        /* \"#utility.yul\":6671:6680   */\n      dup2\n        /* \"#utility.yul\":6665:6669   */\n      dup2\n        /* \"#utility.yul\":6661:6681   */\n      sub\n        /* \"#utility.yul\":6657:6658   */\n      0x00\n        /* \"#utility.yul\":6646:6655   */\n      dup4\n        /* \"#utility.yul\":6642:6659   */\n      add\n        /* \"#utility.yul\":6635:6682   */\n      mstore\n        /* \"#utility.yul\":6699:6777   */\n      tag_234\n        /* \"#utility.yul\":6772:6776   */\n      dup2\n        /* \"#utility.yul\":6763:6769   */\n      dup5\n        /* \"#utility.yul\":6699:6777   */\n      tag_173\n      jump\t// in\n    tag_234:\n        /* \"#utility.yul\":6691:6777   */\n      swap1\n      pop\n        /* \"#utility.yul\":6471:6784   */\n      swap3\n      swap2\n      pop\n      pop\n      jump\t// out\n        /* \"#utility.yul\":6790:7209   */\n    tag_72:\n        /* \"#utility.yul\":6956:6960   */\n      0x00\n        /* \"#utility.yul\":6994:6996   */\n      0x20\n        /* \"#utility.yul\":6983:6992   */\n      dup3\n        /* \"#utility.yul\":6979:6997   */\n      add\n        /* \"#utility.yul\":6971:6997   */\n      swap1\n      pop\n        /* \"#utility.yul\":7043:7052   */\n      dup2\n        /* \"#utility.yul\":7037:7041   */\n      dup2\n        /* \"#utility.yul\":7033:7053   */\n      sub\n        /* \"#utility.yul\":7029:7030   */\n      0x00\n        /* \"#utility.yul\":7018:7027   */\n      dup4\n        /* \"#utility.yul\":7014:7031   */\n      add\n        /* \"#utility.yul\":7007:7054   */\n      mstore\n        /* \"#utility.yul\":7071:7202   */\n      tag_236\n        /* \"#utility.yul\":7197:7201   */\n      dup2\n        /* \"#utility.yul\":7071:7202   */\n      tag_183\n      jump\t// in\n    tag_236:\n        /* \"#utility.yul\":7063:7202   */\n      swap1\n      pop\n        /* \"#utility.yul\":6790:7209   */\n      swap2\n      swap1\n      pop\n      jump\t// out\n        /* \"#utility.yul\":7215:7634   */\n    tag_55:\n        /* \"#utility.yul\":7381:7385   */\n      0x00\n        /* \"#utility.yul\":7419:7421   */\n      0x20\n        /* \"#utility.yul\":7408:7417   */\n      dup3\n        /* \"#utility.yul\":7404:7422   */\n      add\n        /* \"#utility.yul\":7396:7422   */\n      swap1\n      pop\n        /* \"#utility.yul\":7468:7477   */\n      dup2\n        /* \"#utility.yul\":7462:7466   */\n      dup2\n        /* \"#utility.yul\":7458:7478   */\n      sub\n        /* \"#utility.yul\":7454:7455   */\n      0x00\n        /* \"#utility.yul\":7443:7452   */\n      dup4\n        /* \"#utility.yul\":7439:7456   */\n      add\n        /* \"#utility.yul\":7432:7479   */\n      mstore\n        /* \"#utility.yul\":7496:7627   */\n      tag_238\n        /* \"#utility.yul\":7622:7626   */\n      dup2\n        /* \"#utility.yul\":7496:7627   */\n      tag_188\n      jump\t// in\n    tag_238:\n        /* \"#utility.yul\":7488:7627   */\n      swap1\n      pop\n        /* \"#utility.yul\":7215:7634   */\n      swap2\n      swap1\n      pop\n      jump\t// out\n        /* \"#utility.yul\":7640:8059   */\n    tag_58:\n        /* \"#utility.yul\":7806:7810   */\n      0x00\n        /* \"#utility.yul\":7844:7846   */\n      0x20\n        /* \"#utility.yul\":7833:7842   */\n      dup3\n        /* \"#utility.yul\":7829:7847   */\n      add\n        /* \"#utility.yul\":7821:7847   */\n      swap1\n      pop\n        /* \"#utility.yul\":7893:7902   */\n      dup2\n        /* \"#utility.yul\":7887:7891   */\n      dup2\n        /* \"#utility.yul\":7883:7903   */\n      sub\n        /* \"#utility.yul\":7879:7880   */\n      0x00\n        /* \"#utility.yul\":7868:7877   */\n      dup4\n        /* \"#utility.yul\":7864:7881   */\n      add\n        /* \"#utility.yul\":7857:7904   */\n      mstore\n        /* \"#utility.yul\":7921:8052   */\n      tag_240\n        /* \"#utility.yul\":8047:8051   */\n      dup2\n        /* \"#utility.yul\":7921:8052   */\n      tag_193\n      jump\t// in\n    tag_240:\n        /* \"#utility.yul\":7913:8052   */\n      swap1\n      pop\n        /* \"#utility.yul\":7640:8059   */\n      swap2\n      swap1\n      pop\n      jump\t// out\n        /* \"#utility.yul\":8065:8484   */\n    tag_80:\n        /* \"#utility.yul\":8231:8235   */\n      0x00\n        /* \"#utility.yul\":8269:8271   */\n      0x20\n        /* \"#utility.yul\":8258:8267   */\n      dup3\n        /* \"#utility.yul\":8254:8272   */\n      add\n        /* \"#utility.yul\":8246:8272   */\n      swap1\n      pop\n        /* \"#utility.yul\":8318:8327   */\n      dup2\n        /* \"#utility.yul\":8312:8316   */\n      dup2\n        /* \"#utility.yul\":8308:8328   */\n      sub\n        /* \"#utility.yul\":8304:8305   */\n      0x00\n        /* \"#utility.yul\":8293:8302   */\n      dup4\n        /* \"#utility.yul\":8289:8306   */\n      add\n        /* \"#utility.yul\":8282:8329   */\n      mstore\n        /* \"#utility.yul\":8346:8477   */\n      tag_242\n        /* \"#utility.yul\":8472:8476   */\n      dup2\n        /* \"#utility.yul\":8346:8477   */\n      tag_198\n      jump\t// in\n    tag_242:\n        /* \"#utility.yul\":8338:8477   */\n      swap1\n      pop\n        /* \"#utility.yul\":8065:8484   */\n      swap2\n      swap1\n      pop\n      jump\t// out\n        /* \"#utility.yul\":8490:8909   */\n    tag_63:\n        /* \"#utility.yul\":8656:8660   */\n      0x00\n        /* \"#utility.yul\":8694:8696   */\n      0x20\n        /* \"#utility.yul\":8683:8692   */\n      dup3\n        /* \"#utility.yul\":8679:8697   */\n      add\n        /* \"#utility.yul\":8671:8697   */\n      swap1\n      pop\n        /* \"#utility.yul\":8743:8752   */\n      dup2\n        /* \"#utility.yul\":8737:8741   */\n      dup2\n        /* \"#utility.yul\":8733:8753   */\n      sub\n        /* \"#utility.yul\":8729:8730   */\n      0x00\n        /* \"#utility.yul\":8718:8727   */\n      dup4\n        /* \"#utility.yul\":8714:8731   */\n      add\n        /* \"#utility.yul\":8707:8754   */\n      mstore\n        /* \"#utility.yul\":8771:8902   */\n      tag_244\n        /* \"#utility.yul\":8897:8901   */\n      dup2\n        /* \"#utility.yul\":8771:8902   */\n      tag_203\n      jump\t// in\n    tag_244:\n        /* \"#utility.yul\":8763:8902   */\n      swap1\n      pop\n        /* \"#utility.yul\":8490:8909   */\n      swap2\n      swap1\n      pop\n      jump\t// out\n        /* \"#utility.yul\":8915:9334   */\n    tag_96:\n        /* \"#utility.yul\":9081:9085   */\n      0x00\n        /* \"#utility.yul\":9119:9121   */\n      0x20\n        /* \"#utility.yul\":9108:9117   */\n      dup3\n        /* \"#utility.yul\":9104:9122   */\n      add\n        /* \"#utility.yul\":9096:9122   */\n      swap1\n      pop\n        /* \"#utility.yul\":9168:9177   */\n      dup2\n        /* \"#utility.yul\":9162:9166   */\n      dup2\n        /* \"#utility.yul\":9158:9178   */\n      sub\n        /* \"#utility.yul\":9154:9155   */\n      0x00\n        /* \"#utility.yul\":9143:9152   */\n      dup4\n        /* \"#utility.yul\":9139:9156   */\n      add\n        /* \"#utility.yul\":9132:9179   */\n      mstore\n        /* \"#utility.yul\":9196:9327   */\n      tag_246\n        /* \"#utility.yul\":9322:9326   */\n      dup2\n        /* \"#utility.yul\":9196:9327   */\n      tag_208\n      jump\t// in\n    tag_246:\n        /* \"#utility.yul\":9188:9327   */\n      swap1\n      pop\n        /* \"#utility.yul\":8915:9334   */\n      swap2\n      swap1\n      pop\n      jump\t// out\n        /* \"#utility.yul\":9340:9759   */\n    tag_69:\n        /* \"#utility.yul\":9506:9510   */\n      0x00\n        /* \"#utility.yul\":9544:9546   */\n      0x20\n        /* \"#utility.yul\":9533:9542   */\n      dup3\n        /* \"#utility.yul\":9529:9547   */\n      add\n        /* \"#utility.yul\":9521:9547   */\n      swap1\n      pop\n        /* \"#utility.yul\":9593:9602   */\n      dup2\n        /* \"#utility.yul\":9587:9591   */\n      dup2\n        /* \"#utility.yul\":9583:9603   */\n      sub\n        /* \"#utility.yul\":9579:9580   */\n      0x00\n        /* \"#utility.yul\":9568:9577   */\n      dup4\n        /* \"#utility.yul\":9564:9581   */\n      add\n        /* \"#utility.yul\":9557:9604   */\n      mstore\n        /* \"#utility.yul\":9621:9752   */\n      tag_248\n        /* \"#utility.yul\":9747:9751   */\n      dup2\n        /* \"#utility.yul\":9621:9752   */\n      tag_213\n      jump\t// in\n    tag_248:\n        /* \"#utility.yul\":9613:9752   */\n      swap1\n      pop\n        /* \"#utility.yul\":9340:9759   */\n      swap2\n      swap1\n      pop\n      jump\t// out\n        /* \"#utility.yul\":9765:10184   */\n    tag_93:\n        /* \"#utility.yul\":9931:9935   */\n      0x00\n        /* \"#utility.yul\":9969:9971   */\n      0x20\n        /* \"#utility.yul\":9958:9967   */\n      dup3\n        /* \"#utility.yul\":9954:9972   */\n      add\n        /* \"#utility.yul\":9946:9972   */\n      swap1\n      pop\n        /* \"#utility.yul\":10018:10027   */\n      dup2\n        /* \"#utility.yul\":10012:10016   */\n      dup2\n        /* \"#utility.yul\":10008:10028   */\n      sub\n        /* \"#utility.yul\":10004:10005   */\n      0x00\n        /* \"#utility.yul\":9993:10002   */\n      dup4\n        /* \"#utility.yul\":9989:10006   */\n      add\n        /* \"#utility.yul\":9982:10029   */\n      mstore\n        /* \"#utility.yul\":10046:10177   */\n      tag_250\n        /* \"#utility.yul\":10172:10176   */\n      dup2\n        /* \"#utility.yul\":10046:10177   */\n      tag_218\n      jump\t// in\n    tag_250:\n        /* \"#utility.yul\":10038:10177   */\n      swap1\n      pop\n        /* \"#utility.yul\":9765:10184   */\n      swap2\n      swap1\n      pop\n      jump\t// out\n        /* \"#utility.yul\":10190:10412   */\n    tag_24:\n        /* \"#utility.yul\":10283:10287   */\n      0x00\n        /* \"#utility.yul\":10321:10323   */\n      0x20\n        /* \"#utility.yul\":10310:10319   */\n      dup3\n        /* \"#utility.yul\":10306:10324   */\n      add\n        /* \"#utility.yul\":10298:10324   */\n      swap1\n      pop\n        /* \"#utility.yul\":10334:10405   */\n      tag_252\n        /* \"#utility.yul\":10402:10403   */\n      0x00\n        /* \"#utility.yul\":10391:10400   */\n      dup4\n        /* \"#utility.yul\":10387:10404   */\n      add\n        /* \"#utility.yul\":10378:10384   */\n      dup5\n        /* \"#utility.yul\":10334:10405   */\n      tag_223\n      jump\t// in\n    tag_252:\n        /* \"#utility.yul\":10190:10412   */\n      swap3\n      swap2\n      pop\n      pop\n      jump\t// out\n        /* \"#utility.yul\":10418:10632   */\n    tag_37:\n        /* \"#utility.yul\":10507:10511   */\n      0x00\n        /* \"#utility.yul\":10545:10547   */\n      0x20\n        /* \"#utility.yul\":10534:10543   */\n      dup3\n        /* \"#utility.yul\":10530:10548   */\n      add\n        /* \"#utility.yul\":10522:10548   */\n      swap1\n      pop\n        /* \"#utility.yul\":10558:10625   */\n      tag_254\n        /* \"#utility.yul\":10622:10623   */\n      0x00\n        /* \"#utility.yul\":10611:10620   */\n      dup4\n        /* \"#utility.yul\":10607:10624   */\n      add\n        /* \"#utility.yul\":10598:10604   */\n      dup5\n        /* \"#utility.yul\":10558:10625   */\n      tag_227\n      jump\t// in\n    tag_254:\n        /* \"#utility.yul\":10418:10632   */\n      swap3\n      swap2\n      pop\n      pop\n      jump\t// out\n        /* \"#utility.yul\":10719:10818   */\n    tag_176:\n        /* \"#utility.yul\":10771:10777   */\n      0x00\n        /* \"#utility.yul\":10805:10810   */\n      dup2\n        /* \"#utility.yul\":10799:10811   */\n      mload\n        /* \"#utility.yul\":10789:10811   */\n      swap1\n      pop\n        /* \"#utility.yul\":10719:10818   */\n      swap2\n      swap1\n      pop\n      jump\t// out\n        /* \"#utility.yul\":10824:10993   */\n    tag_178:\n        /* \"#utility.yul\":10908:10919   */\n      0x00\n        /* \"#utility.yul\":10942:10948   */\n      dup3\n        /* \"#utility.yul\":10937:10940   */\n      dup3\n        /* \"#utility.yul\":10930:10949   */\n      mstore\n        /* \"#utility.yul\":10982:10986   */\n      0x20\n        /* \"#utility.yul\":10977:10980   */\n      dup3\n        /* \"#utility.yul\":10973:10987   */\n      add\n        /* \"#utility.yul\":10958:10987   */\n      swap1\n      pop\n        /* \"#utility.yul\":10824:10993   */\n      swap3\n      swap2\n      pop\n      pop\n      jump\t// out\n        /* \"#utility.yul\":10999:11304   */\n    tag_84:\n        /* \"#utility.yul\":11039:11042   */\n      0x00\n        /* \"#utility.yul\":11058:11078   */\n      tag_260\n        /* \"#utility.yul\":11076:11077   */\n      dup3\n        /* \"#utility.yul\":11058:11078   */\n      tag_226\n      jump\t// in\n    tag_260:\n        /* \"#utility.yul\":11053:11078   */\n      swap2\n      pop\n        /* \"#utility.yul\":11092:11112   */\n      tag_261\n        /* \"#utility.yul\":11110:11111   */\n      dup4\n        /* \"#utility.yul\":11092:11112   */\n      tag_226\n      jump\t// in\n    tag_261:\n        /* \"#utility.yul\":11087:11112   */\n      swap3\n      pop\n        /* \"#utility.yul\":11246:11247   */\n      dup3\n        /* \"#utility.yul\":11178:11244   */\n      0xffffffffffffffffffffffffffffffffffffffffffffffffffffffffffffffff\n        /* \"#utility.yul\":11174:11248   */\n      sub\n        /* \"#utility.yul\":11171:11172   */\n      dup3\n        /* \"#utility.yul\":11168:11249   */\n      gt\n        /* \"#utility.yul\":11165:11272   */\n      iszero\n      tag_262\n      jumpi\n        /* \"#utility.yul\":11252:11270   */\n      tag_263\n      tag_264\n      jump\t// in\n    tag_263:\n        /* \"#utility.yul\":11165:11272   */\n    tag_262:\n        /* \"#utility.yul\":11296:11297   */\n      dup3\n        /* \"#utility.yul\":11293:11294   */\n      dup3\n        /* \"#utility.yul\":11289:11298   */\n      add\n        /* \"#utility.yul\":11282:11298   */\n      swap1\n      pop\n        /* \"#utility.yul\":10999:11304   */\n      swap3\n      swap2\n      pop\n      pop\n      jump\t// out\n        /* \"#utility.yul\":11310:11495   */\n    tag_119:\n        /* \"#utility.yul\":11350:11351   */\n      0x00\n        /* \"#utility.yul\":11367:11387   */\n      tag_266\n        /* \"#utility.yul\":11385:11386   */\n      dup3\n        /* \"#utility.yul\":11367:11387   */\n      tag_226\n      jump\t// in\n    tag_266:\n        /* \"#utility.yul\":11362:11387   */\n      swap2\n      pop\n        /* \"#utility.yul\":11401:11421   */\n      tag_267\n        /* \"#utility.yul\":11419:11420   */\n      dup4\n        /* \"#utility.yul\":11401:11421   */\n      tag_226\n      jump\t// in\n    tag_267:\n        /* \"#utility.yul\":11396:11421   */\n      swap3\n      pop\n        /* \"#utility.yul\":11440:11441   */\n      dup3\n        /* \"#utility.yul\":11430:11465   */\n      tag_268\n      jumpi\n        /* \"#utility.yul\":11445:11463   */\n      tag_269\n      tag_270\n      jump\t// in\n    tag_269:\n        /* \"#utility.yul\":11430:11465   */\n    tag_268:\n        /* \"#utility.yul\":11487:11488   */\n      dup3\n        /* \"#utility.yul\":11484:11485   */\n      dup3\n        /* \"#utility.yul\":11480:11489   */\n      div\n        /* \"#utility.yul\":11475:11489   */\n      swap1\n      pop\n        /* \"#utility.yul\":11310:11495   */\n      swap3\n      swap2\n      pop\n      pop\n      jump\t// out\n        /* \"#utility.yul\":11501:11692   */\n    tag_82:\n        /* \"#utility.yul\":11541:11545   */\n      0x00\n        /* \"#utility.yul\":11561:11581   */\n      tag_272\n        /* \"#utility.yul\":11579:11580   */\n      dup3\n        /* \"#utility.yul\":11561:11581   */\n      tag_226\n      jump\t// in\n    tag_272:\n        /* \"#utility.yul\":11556:11581   */\n      swap2\n      pop\n        /* \"#utility.yul\":11595:11615   */\n      tag_273\n        /* \"#utility.yul\":11613:11614   */\n      dup4\n        /* \"#utility.yul\":11595:11615   */\n      tag_226\n      jump\t// in\n    tag_273:\n        /* \"#utility.yul\":11590:11615   */\n      swap3\n      pop\n        /* \"#utility.yul\":11634:11635   */\n      dup3\n        /* \"#utility.yul\":11631:11632   */\n      dup3\n        /* \"#utility.yul\":11628:11636   */\n      lt\n        /* \"#utility.yul\":11625:11659   */\n      iszero\n      tag_274\n      jumpi\n        /* \"#utility.yul\":11639:11657   */\n      tag_275\n      tag_264\n      jump\t// in\n    tag_275:\n        /* \"#utility.yul\":11625:11659   */\n    tag_274:\n        /* \"#utility.yul\":11684:11685   */\n      dup3\n        /* \"#utility.yul\":11681:11682   */\n      dup3\n        /* \"#utility.yul\":11677:11686   */\n      sub\n        /* \"#utility.yul\":11669:11686   */\n      swap1\n      pop\n        /* \"#utility.yul\":11501:11692   */\n      swap3\n      swap2\n      pop\n      pop\n      jump\t// out\n        /* \"#utility.yul\":11698:11794   */\n    tag_276:\n        /* \"#utility.yul\":11735:11742   */\n      0x00\n        /* \"#utility.yul\":11764:11788   */\n      tag_278\n        /* \"#utility.yul\":11782:11787   */\n      dup3\n        /* \"#utility.yul\":11764:11788   */\n      tag_279\n      jump\t// in\n    tag_278:\n        /* \"#utility.yul\":11753:11788   */\n      swap1\n      pop\n        /* \"#utility.yul\":11698:11794   */\n      swap2\n      swap1\n      pop\n      jump\t// out\n        /* \"#utility.yul\":11800:11890   */\n    tag_172:\n        /* \"#utility.yul\":11834:11841   */\n      0x00\n        /* \"#utility.yul\":11877:11882   */\n      dup2\n        /* \"#utility.yul\":11870:11883   */\n      iszero\n        /* \"#utility.yul\":11863:11884   */\n      iszero\n        /* \"#utility.yul\":11852:11884   */\n      swap1\n      pop\n        /* \"#utility.yul\":11800:11890   */\n      swap2\n      swap1\n      pop\n      jump\t// out\n        /* \"#utility.yul\":11896:12022   */\n    tag_279:\n        /* \"#utility.yul\":11933:11940   */\n      0x00\n        /* \"#utility.yul\":11973:12015   */\n      0xffffffffffffffffffffffffffffffffffffffff\n        /* \"#utility.yul\":11966:11971   */\n      dup3\n        /* \"#utility.yul\":11962:12016   */\n      and\n        /* \"#utility.yul\":11951:12016   */\n      swap1\n      pop\n        /* \"#utility.yul\":11896:12022   */\n      swap2\n      swap1\n      pop\n      jump\t// out\n        /* \"#utility.yul\":12028:12105   */\n    tag_226:\n        /* \"#utility.yul\":12065:12072   */\n      0x00\n        /* \"#utility.yul\":12094:12099   */\n      dup2\n        /* \"#utility.yul\":12083:12099   */\n      swap1\n      pop\n        /* \"#utility.yul\":12028:12105   */\n      swap2\n      swap1\n      pop\n      jump\t// out\n        /* \"#utility.yul\":12111:12197   */\n    tag_230:\n        /* \"#utility.yul\":12146:12153   */\n      0x00\n        /* \"#utility.yul\":12186:12190   */\n      0xff\n        /* \"#utility.yul\":12179:12184   */\n      dup3\n        /* \"#utility.yul\":12175:12191   */\n      and\n        /* \"#utility.yul\":12164:12191   */\n      swap1\n      pop\n        /* \"#utility.yul\":12111:12197   */\n      swap2\n      swap1\n      pop\n      jump\t// out\n        /* \"#utility.yul\":12203:12510   */\n    tag_180:\n        /* \"#utility.yul\":12271:12272   */\n      0x00\n        /* \"#utility.yul\":12281:12394   */\n    tag_285:\n        /* \"#utility.yul\":12295:12301   */\n      dup4\n        /* \"#utility.yul\":12292:12293   */\n      dup2\n        /* \"#utility.yul\":12289:12302   */\n      lt\n        /* \"#utility.yul\":12281:12394   */\n      iszero\n      tag_287\n      jumpi\n        /* \"#utility.yul\":12380:12381   */\n      dup1\n        /* \"#utility.yul\":12375:12378   */\n      dup3\n        /* \"#utility.yul\":12371:12382   */\n      add\n        /* \"#utility.yul\":12365:12383   */\n      mload\n        /* \"#utility.yul\":12361:12362   */\n      dup2\n        /* \"#utility.yul\":12356:12359   */\n      dup5\n        /* \"#utility.yul\":12352:12363   */\n      add\n        /* \"#utility.yul\":12345:12384   */\n      mstore\n        /* \"#utility.yul\":12317:12319   */\n      0x20\n        /* \"#utility.yul\":12314:12315   */\n      dup2\n        /* \"#utility.yul\":12310:12320   */\n      add\n        /* \"#utility.yul\":12305:12320   */\n      swap1\n      pop\n        /* \"#utility.yul\":12281:12394   */\n      jump(tag_285)\n    tag_287:\n        /* \"#utility.yul\":12412:12418   */\n      dup4\n        /* \"#utility.yul\":12409:12410   */\n      dup2\n        /* \"#utility.yul\":12406:12419   */\n      gt\n        /* \"#utility.yul\":12403:12504   */\n      iszero\n      tag_288\n      jumpi\n        /* \"#utility.yul\":12492:12493   */\n      0x00\n        /* \"#utility.yul\":12483:12489   */\n      dup5\n        /* \"#utility.yul\":12478:12481   */\n      dup5\n        /* \"#utility.yul\":12474:12490   */\n      add\n        /* \"#utility.yul\":12467:12494   */\n      mstore\n        /* \"#utility.yul\":12403:12504   */\n    tag_288:\n        /* \"#utility.yul\":12252:12510   */\n      pop\n        /* \"#utility.yul\":12203:12510   */\n      pop\n      pop\n      pop\n      jump\t// out\n        /* \"#utility.yul\":12516:12687   */\n    tag_130:\n        /* \"#utility.yul\":12555:12558   */\n      0x00\n        /* \"#utility.yul\":12578:12602   */\n      tag_290\n        /* \"#utility.yul\":12596:12601   */\n      dup3\n        /* \"#utility.yul\":12578:12602   */\n      tag_226\n      jump\t// in\n    tag_290:\n        /* \"#utility.yul\":12569:12602   */\n      swap2\n      pop\n        /* \"#utility.yul\":12624:12628   */\n      0x00\n        /* \"#utility.yul\":12617:12622   */\n      dup3\n        /* \"#utility.yul\":12614:12629   */\n      eq\n        /* \"#utility.yul\":12611:12652   */\n      iszero\n      tag_291\n      jumpi\n        /* \"#utility.yul\":12632:12650   */\n      tag_292\n      tag_264\n      jump\t// in\n    tag_292:\n        /* \"#utility.yul\":12611:12652   */\n    tag_291:\n        /* \"#utility.yul\":12679:12680   */\n      0x01\n        /* \"#utility.yul\":12672:12677   */\n      dup3\n        /* \"#utility.yul\":12668:12681   */\n      sub\n        /* \"#utility.yul\":12661:12681   */\n      swap1\n      pop\n        /* \"#utility.yul\":12516:12687   */\n      swap2\n      swap1\n      pop\n      jump\t// out\n        /* \"#utility.yul\":12693:12926   */\n    tag_117:\n        /* \"#utility.yul\":12732:12735   */\n      0x00\n        /* \"#utility.yul\":12755:12779   */\n      tag_294\n        /* \"#utility.yul\":12773:12778   */\n      dup3\n        /* \"#utility.yul\":12755:12779   */\n      tag_226\n      jump\t// in\n    tag_294:\n        /* \"#utility.yul\":12746:12779   */\n      swap2\n      pop\n        /* \"#utility.yul\":12801:12867   */\n      0xffffffffffffffffffffffffffffffffffffffffffffffffffffffffffffffff\n        /* \"#utility.yul\":12794:12799   */\n      dup3\n        /* \"#utility.yul\":12791:12868   */\n      eq\n        /* \"#utility.yul\":12788:12891   */\n      iszero\n      tag_295\n      jumpi\n        /* \"#utility.yul\":12871:12889   */\n      tag_296\n      tag_264\n      jump\t// in\n    tag_296:\n        /* \"#utility.yul\":12788:12891   */\n    tag_295:\n        /* \"#utility.yul\":12918:12919   */\n      0x01\n        /* \"#utility.yul\":12911:12916   */\n      dup3\n        /* \"#utility.yul\":12907:12920   */\n      add\n        /* \"#utility.yul\":12900:12920   */\n      swap1\n      pop\n        /* \"#utility.yul\":12693:12926   */\n      swap2\n      swap1\n      pop\n      jump\t// out\n        /* \"#utility.yul\":12932:13108   */\n    tag_127:\n        /* \"#utility.yul\":12964:12965   */\n      0x00\n        /* \"#utility.yul\":12981:13001   */\n      tag_298\n        /* \"#utility.yul\":12999:13000   */\n      dup3\n        /* \"#utility.yul\":12981:13001   */\n      tag_226\n      jump\t// in\n    tag_298:\n        /* \"#utility.yul\":12976:13001   */\n      swap2\n      pop\n        /* \"#utility.yul\":13015:13035   */\n      tag_299\n        /* \"#utility.yul\":13033:13034   */\n      dup4\n        /* \"#utility.yul\":13015:13035   */\n      tag_226\n      jump\t// in\n    tag_299:\n        /* \"#utility.yul\":13010:13035   */\n      swap3\n      pop\n        /* \"#utility.yul\":13054:13055   */\n      dup3\n        /* \"#utility.yul\":13044:13079   */\n      tag_300\n      jumpi\n        /* \"#utility.yul\":13059:13077   */\n      tag_301\n      tag_270\n      jump\t// in\n    tag_301:\n        /* \"#utility.yul\":13044:13079   */\n    tag_300:\n        /* \"#utility.yul\":13100:13101   */\n      dup3\n        /* \"#utility.yul\":13097:13098   */\n      dup3\n        /* \"#utility.yul\":13093:13102   */\n      mod\n        /* \"#utility.yul\":13088:13102   */\n      swap1\n      pop\n        /* \"#utility.yul\":12932:13108   */\n      swap3\n      swap2\n      pop\n      pop\n      jump\t// out\n        /* \"#utility.yul\":13114:13294   */\n    tag_264:\n        /* \"#utility.yul\":13162:13239   */\n      0x4e487b7100000000000000000000000000000000000000000000000000000000\n        /* \"#utility.yul\":13159:13160   */\n      0x00\n        /* \"#utility.yul\":13152:13240   */\n      mstore\n        /* \"#utility.yul\":13259:13263   */\n      0x11\n        /* \"#utility.yul\":13256:13257   */\n      0x04\n        /* \"#utility.yul\":13249:13264   */\n      mstore\n        /* \"#utility.yul\":13283:13287   */\n      0x24\n        /* \"#utility.yul\":13280:13281   */\n      0x00\n        /* \"#utility.yul\":13273:13288   */\n      revert\n        /* \"#utility.yul\":13300:13480   */\n    tag_270:\n        /* \"#utility.yul\":13348:13425   */\n      0x4e487b7100000000000000000000000000000000000000000000000000000000\n        /* \"#utility.yul\":13345:13346   */\n      0x00\n        /* \"#utility.yul\":13338:13426   */\n      mstore\n        /* \"#utility.yul\":13445:13449   */\n      0x12\n        /* \"#utility.yul\":13442:13443   */\n      0x04\n        /* \"#utility.yul\":13435:13450   */\n      mstore\n        /* \"#utility.yul\":13469:13473   */\n      0x24\n        /* \"#utility.yul\":13466:13467   */\n      0x00\n        /* \"#utility.yul\":13459:13474   */\n      revert\n        /* \"#utility.yul\":13486:13666   */\n    tag_133:\n        /* \"#utility.yul\":13534:13611   */\n      0x4e487b7100000000000000000000000000000000000000000000000000000000\n        /* \"#utility.yul\":13531:13532   */\n      0x00\n        /* \"#utility.yul\":13524:13612   */\n      mstore\n        /* \"#utility.yul\":13631:13635   */\n      0x32\n        /* \"#utility.yul\":13628:13629   */\n      0x04\n        /* \"#utility.yul\":13621:13636   */\n      mstore\n        /* \"#utility.yul\":13655:13659   */\n      0x24\n        /* \"#utility.yul\":13652:13653   */\n      0x00\n        /* \"#utility.yul\":13645:13660   */\n      revert\n        /* \"#utility.yul\":13672:13852   */\n    tag_122:\n        /* \"#utility.yul\":13720:13797   */\n      0x4e487b7100000000000000000000000000000000000000000000000000000000\n        /* \"#utility.yul\":13717:13718   */\n      0x00\n        /* \"#utility.yul\":13710:13798   */\n      mstore\n        /* \"#utility.yul\":13817:13821   */\n      0x41\n        /* \"#utility.yul\":13814:13815   */\n      0x04\n        /* \"#utility.yul\":13807:13822   */\n      mstore\n        /* \"#utility.yul\":13841:13845   */\n      0x24\n        /* \"#utility.yul\":13838:13839   */\n      0x00\n        /* \"#utility.yul\":13831:13846   */\n      revert\n        /* \"#utility.yul\":13981:14098   */\n    tag_147:\n        /* \"#utility.yul\":14090:14091   */\n      0x00\n        /* \"#utility.yul\":14087:14088   */\n      dup1\n        /* \"#utility.yul\":14080:14092   */\n      revert\n        /* \"#utility.yul\":14104:14206   */\n    tag_182:\n        /* \"#utility.yul\":14145:14151   */\n      0x00\n        /* \"#utility.yul\":14196:14198   */\n      0x1f\n        /* \"#utility.yul\":14192:14199   */\n      not\n        /* \"#utility.yul\":14187:14189   */\n      0x1f\n        /* \"#utility.yul\":14180:14185   */\n      dup4\n        /* \"#utility.yul\":14176:14190   */\n      add\n        /* \"#utility.yul\":14172:14200   */\n      and\n        /* \"#utility.yul\":14162:14200   */\n      swap1\n      pop\n        /* \"#utility.yul\":14104:14206   */\n      swap2\n      swap1\n      pop\n      jump\t// out\n        /* \"#utility.yul\":14212:14434   */\n    tag_187:\n        /* \"#utility.yul\":14352:14386   */\n      0x45524332303a207472616e7366657220746f20746865207a65726f2061646472\n        /* \"#utility.yul\":14348:14349   */\n      0x00\n        /* \"#utility.yul\":14340:14346   */\n      dup3\n        /* \"#utility.yul\":14336:14350   */\n      add\n        /* \"#utility.yul\":14329:14387   */\n      mstore\n        /* \"#utility.yul\":14421:14426   */\n      0x6573730000000000000000000000000000000000000000000000000000000000\n        /* \"#utility.yul\":14416:14418   */\n      0x20\n        /* \"#utility.yul\":14408:14414   */\n      dup3\n        /* \"#utility.yul\":14404:14419   */\n      add\n        /* \"#utility.yul\":14397:14427   */\n      mstore\n        /* \"#utility.yul\":14212:14434   */\n      pop\n      jump\t// out\n        /* \"#utility.yul\":14440:14661   */\n    tag_192:\n        /* \"#utility.yul\":14580:14614   */\n      0x45524332303a20617070726f766520746f20746865207a65726f206164647265\n        /* \"#utility.yul\":14576:14577   */\n      0x00\n        /* \"#utility.yul\":14568:14574   */\n      dup3\n        /* \"#utility.yul\":14564:14578   */\n      add\n        /* \"#utility.yul\":14557:14615   */\n      mstore\n        /* \"#utility.yul\":14649:14653   */\n      0x7373000000000000000000000000000000000000000000000000000000000000\n        /* \"#utility.yul\":14644:14646   */\n      0x20\n        /* \"#utility.yul\":14636:14642   */\n      dup3\n        /* \"#utility.yul\":14632:14647   */\n      add\n        /* \"#utility.yul\":14625:14654   */\n      mstore\n        /* \"#utility.yul\":14440:14661   */\n      pop\n      jump\t// out\n        /* \"#utility.yul\":14667:14891   */\n    tag_197:\n        /* \"#utility.yul\":14807:14841   */\n      0x45524332303a20617070726f766520616d6f756e742065786365656473206261\n        /* \"#utility.yul\":14803:14804   */\n      0x00\n        /* \"#utility.yul\":14795:14801   */\n      dup3\n        /* \"#utility.yul\":14791:14805   */\n      add\n        /* \"#utility.yul\":14784:14842   */\n      mstore\n        /* \"#utility.yul\":14876:14883   */\n      0x6c616e6365000000000000000000000000000000000000000000000000000000\n        /* \"#utility.yul\":14871:14873   */\n      0x20\n        /* \"#utility.yul\":14863:14869   */\n      dup3\n        /* \"#utility.yul\":14859:14874   */\n      add\n        /* \"#utility.yul\":14852:14884   */\n      mstore\n        /* \"#utility.yul\":14667:14891   */\n      pop\n      jump\t// out\n        /* \"#utility.yul\":14897:15124   */\n    tag_202:\n        /* \"#utility.yul\":15037:15071   */\n      0x45524332303a207472616e7366657220616d6f756e7420657863656564732061\n        /* \"#utility.yul\":15033:15034   */\n      0x00\n        /* \"#utility.yul\":15025:15031   */\n      dup3\n        /* \"#utility.yul\":15021:15035   */\n      add\n        /* \"#utility.yul\":15014:15072   */\n      mstore\n        /* \"#utility.yul\":15106:15116   */\n      0x6c6c6f77616e6365000000000000000000000000000000000000000000000000\n        /* \"#utility.yul\":15101:15103   */\n      0x20\n        /* \"#utility.yul\":15093:15099   */\n      dup3\n        /* \"#utility.yul\":15089:15104   */\n      add\n        /* \"#utility.yul\":15082:15117   */\n      mstore\n        /* \"#utility.yul\":14897:15124   */\n      pop\n      jump\t// out\n        /* \"#utility.yul\":15130:15312   */\n    tag_207:\n        /* \"#utility.yul\":15270:15304   */\n      0x4f776e61626c653a2063616c6c6572206973206e6f7420746865206f776e6572\n        /* \"#utility.yul\":15266:15267   */\n      0x00\n        /* \"#utility.yul\":15258:15264   */\n      dup3\n        /* \"#utility.yul\":15254:15268   */\n      add\n        /* \"#utility.yul\":15247:15305   */\n      mstore\n        /* \"#utility.yul\":15130:15312   */\n      pop\n      jump\t// out\n        /* \"#utility.yul\":15318:15487   */\n    tag_212:\n        /* \"#utility.yul\":15458:15479   */\n      0x4d696e74696e672069732064697361626c656400000000000000000000000000\n        /* \"#utility.yul\":15454:15455   */\n      0x00\n        /* \"#utility.yul\":15446:15452   */\n      dup3\n        /* \"#utility.yul\":15442:15456   */\n      add\n        /* \"#utility.yul\":15435:15480   */\n      mstore\n        /* \"#utility.yul\":15318:15487   */\n      pop\n      jump\t// out\n        /* \"#utility.yul\":15493:15717   */\n    tag_217:\n        /* \"#utility.yul\":15633:15667   */\n      0x45524332303a207472616e736665722066726f6d20746865207a65726f206164\n        /* \"#utility.yul\":15629:15630   */\n      0x00\n        /* \"#utility.yul\":15621:15627   */\n      dup3\n        /* \"#utility.yul\":15617:15631   */\n      add\n        /* \"#utility.yul\":15610:15668   */\n      mstore\n        /* \"#utility.yul\":15702:15709   */\n      0x6472657373000000000000000000000000000000000000000000000000000000\n        /* \"#utility.yul\":15697:15699   */\n      0x20\n        /* \"#utility.yul\":15689:15695   */\n      dup3\n        /* \"#utility.yul\":15685:15700   */\n      add\n        /* \"#utility.yul\":15678:15710   */\n      mstore\n        /* \"#utility.yul\":15493:15717   */\n      pop\n      jump\t// out\n        /* \"#utility.yul\":15723:15904   */\n    tag_222:\n        /* \"#utility.yul\":15863:15896   */\n      0x45524332303a206d696e7420746f20746865207a65726f206164647265737300\n        /* \"#utility.yul\":15859:15860   */\n      0x00\n        /* \"#utility.yul\":15851:15857   */\n      dup3\n        /* \"#utility.yul\":15847:15861   */\n      add\n        /* \"#utility.yul\":15840:15897   */\n      mstore\n        /* \"#utility.yul\":15723:15904   */\n      pop\n      jump\t// out\n        /* \"#utility.yul\":15910:16032   */\n    tag_139:\n        /* \"#utility.yul\":15983:16007   */\n      tag_319\n        /* \"#utility.yul\":16001:16006   */\n      dup2\n        /* \"#utility.yul\":15983:16007   */\n      tag_276\n      jump\t// in\n    tag_319:\n        /* \"#utility.yul\":15976:15981   */\n      dup2\n        /* \"#utility.yul\":15973:16008   */\n      eq\n        /* \"#utility.yul\":15963:16026   */\n      tag_320\n      jumpi\n        /* \"#utility.yul\":16022:16023   */\n      0x00\n        /* \"#utility.yul\":16019:16020   */\n      dup1\n        /* \"#utility.yul\":16012:16024   */\n      revert\n        /* \"#utility.yul\":15963:16026   */\n    tag_320:\n        /* \"#utility.yul\":15910:16032   */\n      pop\n      jump\t// out\n        /* \"#utility.yul\":16038:16160   */\n    tag_143:\n        /* \"#utility.yul\":16111:16135   */\n      tag_322\n        /* \"#utility.yul\":16129:16134   */\n      dup2\n        /* \"#utility.yul\":16111:16135   */\n      tag_226\n      jump\t// in\n    tag_322:\n        /* \"#utility.yul\":16104:16109   */\n      dup2\n        /* \"#utility.yul\":16101:16136   */\n      eq\n        /* \"#utility.yul\":16091:16154   */\n      tag_323\n      jumpi\n        /* \"#utility.yul\":16150:16151   */\n      0x00\n        /* \"#utility.yul\":16147:16148   */\n      dup1\n        /* \"#utility.yul\":16140:16152   */\n      revert\n        /* \"#utility.yul\":16091:16154   */\n    tag_323:\n        /* \"#utility.yul\":16038:16160   */\n      pop\n      jump\t// out\n\n    auxdata: 0xa26469706673582212200ba2f1e60ec677323c1e615b606d7a7633bedc7c2ca7d04589dcaf8aa7d84f3064736f6c63430008070033\n}\n",
				"bytecode": {
					"linkReferences": {},
					"object": "608060405260006001556000600460006101000a81548160ff02191690831515021790555034801561003057600080fd5b50336000806101000a81548173ffffffffffffffffffffffffffffffffffffffff021916908373ffffffffffffffffffffffffffffffffffffffff16021790555061186c806100806000396000f3fe608060405234801561001057600080fd5b50600436106100935760003560e01c80632c526196116100665780632c52619614610120578063313ce5671461013c57806370a082311461015a578063a9059cbb1461018a578063dd62ed3e146101ba57610093565b8063095ea7b31461009857806313b4159c146100c857806318160ddd146100d257806323b872dd146100f0575b600080fd5b6100b260048036038101906100ad9190610fcf565b6101ea565b6040516100bf91906111ba565b60405180910390f35b6100d06103cd565b005b6100da610478565b6040516100e791906112f7565b60405180910390f35b61010a60048036038101906101059190610f7c565b610482565b60405161011791906111ba565b60405180910390f35b61013a6004803603810190610135919061100f565b61085f565b005b610144610a8b565b6040516101519190611312565b60405180910390f35b610174600480360381019061016f9190610f0f565b610a94565b60405161018191906112f7565b60405180910390f35b6101a4600480360381019061019f9190610fcf565b610add565b6040516101b191906111ba565b60405180910390f35b6101d460048036038101906101cf9190610f3c565b610cf7565b6040516101e191906112f7565b60405180910390f35b60008073ffffffffffffffffffffffffffffffffffffffff168373ffffffffffffffffffffffffffffffffffffffff16141561025b576040517f08c379a000000000000000000000000000000000000000000000000000000000815260040161025290611217565b60405180910390fd5b81600260003373ffffffffffffffffffffffffffffffffffffffff1673ffffffffffffffffffffffffffffffffffffffff1681526020019081526020016000205410156102dd576040517f08c379a00000000000000000000000000000000000000000000000000000000081526004016102d490611237565b60405180910390fd5b81600360003373ffffffffffffffffffffffffffffffffffffffff1673ffffffffffffffffffffffffffffffffffffffff16815260200190815260200160002060008573ffffffffffffffffffffffffffffffffffffffff1673ffffffffffffffffffffffffffffffffffffffff168152602001908152602001600020819055508273ffffffffffffffffffffffffffffffffffffffff163373ffffffffffffffffffffffffffffffffffffffff167f8c5be1e5ebec7d5bd14f71427d1e84f3dd0314c0f7b2291e5b200ac8c7c3b925846040516103bb91906112f7565b60405180910390a36001905092915050565b3373ffffffffffffffffffffffffffffffffffffffff1660008054906101000a900473ffffffffffffffffffffffffffffffffffffffff1673ffffffffffffffffffffffffffffffffffffffff161461045b576040517f08c379a000000000000000000000000000000000000000000000000000000000815260040161045290611277565b60405180910390fd5b6001600460006101000a81548160ff021916908315150217905550565b6000600154905090565b60008073ffffffffffffffffffffffffffffffffffffffff168473ffffffffffffffffffffffffffffffffffffffff1614156104f3576040517f08c379a00000000000000000000000000000000000000000000000000000000081526004016104ea906112b7565b60405180910390fd5b600073ffffffffffffffffffffffffffffffffffffffff168373ffffffffffffffffffffffffffffffffffffffff161415610563576040517f08c379a000000000000000000000000000000000000000000000000000000000815260040161055a906111f7565b60405180910390fd5b81600260008673ffffffffffffffffffffffffffffffffffffffff1673ffffffffffffffffffffffffffffffffffffffff1681526020019081526020016000205410156105af83610d7e565b906105f0576040517f08c379a00000000000000000000000000000000000000000000000000000000081526004016105e791906111d5565b60405180910390fd5b5081600360008673ffffffffffffffffffffffffffffffffffffffff1673ffffffffffffffffffffffffffffffffffffffff16815260200190815260200160002060003373ffffffffffffffffffffffffffffffffffffffff1673ffffffffffffffffffffffffffffffffffffffff1681526020019081526020016000205410156106b0576040517f08c379a00000000000000000000000000000000000000000000000000000000081526004016106a790611257565b60405180910390fd5b81600260008673ffffffffffffffffffffffffffffffffffffffff1673ffffffffffffffffffffffffffffffffffffffff16815260200190815260200160002060008282546106ff91906113d0565b9250508190555081600260008573ffffffffffffffffffffffffffffffffffffffff1673ffffffffffffffffffffffffffffffffffffffff16815260200190815260200160002060008282546107559190611349565b9250508190555081600360008673ffffffffffffffffffffffffffffffffffffffff1673ffffffffffffffffffffffffffffffffffffffff16815260200190815260200160002060003373ffffffffffffffffffffffffffffffffffffffff1673ffffffffffffffffffffffffffffffffffffffff16815260200190815260200160002060008282546107e891906113d0565b925050819055508273ffffffffffffffffffffffffffffffffffffffff168473ffffffffffffffffffffffffffffffffffffffff167fddf252ad1be2c89b69c2b068fc378daa952ba7f163c4a11628f55a4df523b3ef8460405161084c91906112f7565b60405180910390a3600190509392505050565b3373ffffffffffffffffffffffffffffffffffffffff1660008054906101000a900473ffffffffffffffffffffffffffffffffffffffff1673ffffffffffffffffffffffffffffffffffffffff16146108ed576040517f08c379a00000000000000000000000000000000000000000000000000000000081526004016108e490611277565b60405180910390fd5b600073ffffffffffffffffffffffffffffffffffffffff163373ffffffffffffffffffffffffffffffffffffffff16141561095d576040517f08c379a0000000000000000000000000000000000000000000000000000000008152600401610954906112d7565b60405180910390fd5b60001515600460009054906101000a900460ff161515146109b3576040517f08c379a00000000000000000000000000000000000000000000000000000000081526004016109aa90611297565b60405180910390fd5b80600160008282546109c59190611349565b9250508190555080600260003373ffffffffffffffffffffffffffffffffffffffff1673ffffffffffffffffffffffffffffffffffffffff1681526020019081526020016000206000828254610a1b9190611349565b925050819055503373ffffffffffffffffffffffffffffffffffffffff16600073ffffffffffffffffffffffffffffffffffffffff167fddf252ad1be2c89b69c2b068fc378daa952ba7f163c4a11628f55a4df523b3ef83604051610a8091906112f7565b60405180910390a350565b60006012905090565b6000600260008373ffffffffffffffffffffffffffffffffffffffff1673ffffffffffffffffffffffffffffffffffffffff168152602001908152602001600020549050919050565b60008073ffffffffffffffffffffffffffffffffffffffff168373ffffffffffffffffffffffffffffffffffffffff161415610b4e576040517f08c379a0000000000000000000000000000000000000000000000000000000008152600401610b45906111f7565b60405180910390fd5b81600260003373ffffffffffffffffffffffffffffffffffffffff1673ffffffffffffffffffffffffffffffffffffffff168152602001908152602001600020541015610b9a83610d7e565b90610bdb576040517f08c379a0000000000000000000000000000000000000000000000000000000008152600401610bd291906111d5565b60405180910390fd5b5081600260003373ffffffffffffffffffffffffffffffffffffffff1673ffffffffffffffffffffffffffffffffffffffff1681526020019081526020016000206000828254610c2b91906113d0565b9250508190555081600260008573ffffffffffffffffffffffffffffffffffffffff1673ffffffffffffffffffffffffffffffffffffffff1681526020019081526020016000206000828254610c819190611349565b925050819055508273ffffffffffffffffffffffffffffffffffffffff163373ffffffffffffffffffffffffffffffffffffffff167fddf252ad1be2c89b69c2b068fc378daa952ba7f163c4a11628f55a4df523b3ef84604051610ce591906112f7565b60405180910390a36001905092915050565b6000600360008473ffffffffffffffffffffffffffffffffffffffff1673ffffffffffffffffffffffffffffffffffffffff16815260200190815260200160002060008373ffffffffffffffffffffffffffffffffffffffff1673ffffffffffffffffffffffffffffffffffffffff16815260200190815260200160002054905092915050565b60606000821415610dc6576040518060400160405280600181526020017f30000000000000000000000000000000000000000000000000000000000000008152509050610ee0565b600082905060005b60008214610df8578080610de1906114b6565b915050600a82610df1919061139f565b9150610dce565b60008167ffffffffffffffff811115610e1457610e136115bd565b5b6040519080825280601f01601f191660200182016040528015610e465781602001600182028036833780820191505090505b50905060008290508593505b60008414610ed857600a84610e6791906114ff565b6030610e739190611349565b60f81b8282610e819061148c565b92508281518110610e9557610e9461158e565b5b60200101907effffffffffffffffffffffffffffffffffffffffffffffffffffffffffffff1916908160001a905350600a84610ed1919061139f565b9350610e52565b819450505050505b919050565b600081359050610ef481611808565b92915050565b600081359050610f098161181f565b92915050565b600060208284031215610f2557610f246115ec565b5b6000610f3384828501610ee5565b91505092915050565b60008060408385031215610f5357610f526115ec565b5b6000610f6185828601610ee5565b9250506020610f7285828601610ee5565b9150509250929050565b600080600060608486031215610f9557610f946115ec565b5b6000610fa386828701610ee5565b9350506020610fb486828701610ee5565b9250506040610fc586828701610efa565b9150509250925092565b60008060408385031215610fe657610fe56115ec565b5b6000610ff485828601610ee5565b925050602061100585828601610efa565b9150509250929050565b600060208284031215611025576110246115ec565b5b600061103384828501610efa565b91505092915050565b61104581611416565b82525050565b60006110568261132d565b6110608185611338565b9350611070818560208601611459565b611079816115f1565b840191505092915050565b6000611091602383611338565b915061109c82611602565b604082019050919050565b60006110b4602283611338565b91506110bf82611651565b604082019050919050565b60006110d7602583611338565b91506110e2826116a0565b604082019050919050565b60006110fa602883611338565b9150611105826116ef565b604082019050919050565b600061111d602083611338565b91506111288261173e565b602082019050919050565b6000611140601383611338565b915061114b82611767565b602082019050919050565b6000611163602583611338565b915061116e82611790565b604082019050919050565b6000611186601f83611338565b9150611191826117df565b602082019050919050565b6111a581611442565b82525050565b6111b48161144c565b82525050565b60006020820190506111cf600083018461103c565b92915050565b600060208201905081810360008301526111ef818461104b565b905092915050565b6000602082019050818103600083015261121081611084565b9050919050565b60006020820190508181036000830152611230816110a7565b9050919050565b60006020820190508181036000830152611250816110ca565b9050919050565b60006020820190508181036000830152611270816110ed565b9050919050565b6000602082019050818103600083015261129081611110565b9050919050565b600060208201905081810360008301526112b081611133565b9050919050565b600060208201905081810360008301526112d081611156565b9050919050565b600060208201905081810360008301526112f081611179565b9050919050565b600060208201905061130c600083018461119c565b92915050565b600060208201905061132760008301846111ab565b92915050565b600081519050919050565b600082825260208201905092915050565b600061135482611442565b915061135f83611442565b9250827fffffffffffffffffffffffffffffffffffffffffffffffffffffffffffffffff0382111561139457611393611530565b5b828201905092915050565b60006113aa82611442565b91506113b583611442565b9250826113c5576113c461155f565b5b828204905092915050565b60006113db82611442565b91506113e683611442565b9250828210156113f9576113f8611530565b5b828203905092915050565b600061140f82611422565b9050919050565b60008115159050919050565b600073ffffffffffffffffffffffffffffffffffffffff82169050919050565b6000819050919050565b600060ff82169050919050565b60005b8381101561147757808201518184015260208101905061145c565b83811115611486576000848401525b50505050565b600061149782611442565b915060008214156114ab576114aa611530565b5b600182039050919050565b60006114c182611442565b91507fffffffffffffffffffffffffffffffffffffffffffffffffffffffffffffffff8214156114f4576114f3611530565b5b600182019050919050565b600061150a82611442565b915061151583611442565b9250826115255761152461155f565b5b828206905092915050565b7f4e487b7100000000000000000000000000000000000000000000000000000000600052601160045260246000fd5b7f4e487b7100000000000000000000000000000000000000000000000000000000600052601260045260246000fd5b7f4e487b7100000000000000000000000000000000000000000000000000000000600052603260045260246000fd5b7f4e487b7100000000000000000000000000000000000000000000000000000000600052604160045260246000fd5b600080fd5b6000601f19601f8301169050919050565b7f45524332303a207472616e7366657220746f20746865207a65726f206164647260008201527f6573730000000000000000000000000000000000000000000000000000000000602082015250565b7f45524332303a20617070726f766520746f20746865207a65726f20616464726560008201527f7373000000000000000000000000000000000000000000000000000000000000602082015250565b7f45524332303a20617070726f766520616d6f756e74206578636565647320626160008201527f6c616e6365000000000000000000000000000000000000000000000000000000602082015250565b7f45524332303a207472616e7366657220616d6f756e742065786365656473206160008201527f6c6c6f77616e6365000000000000000000000000000000000000000000000000602082015250565b7f4f776e61626c653a2063616c6c6572206973206e6f7420746865206f776e6572600082015250565b7f4d696e74696e672069732064697361626c656400000000000000000000000000600082015250565b7f45524332303a207472616e736665722066726f6d20746865207a65726f20616460008201527f6472657373000000000000000000000000000000000000000000000000000000602082015250565b7f45524332303a206d696e7420746f20746865207a65726f206164647265737300600082015250565b61181181611404565b811461181c57600080fd5b50565b61182881611442565b811461183357600080fd5b5056fea26469706673582212200ba2f1e60ec677323c1e615b606d7a7633bedc7c2ca7d04589dcaf8aa7d84f3064736f6c63430008070033",
					"opcodes": "PUSH1 0x80 PUSH1 0x40 MSTORE PUSH1 0x0 PUSH1 0x1 SSTORE PUSH1 0x0 PUSH1 0x4 PUSH1 0x0 PUSH2 0x100 EXP DUP2 SLOAD DUP2 PUSH1 0xFF MUL NOT AND SWAP1 DUP4 ISZERO ISZERO MUL OR SWAP1 SSTORE POP CALLVALUE DUP1 ISZERO PUSH2 0x30 JUMPI PUSH1 0x0 DUP1 REVERT JUMPDEST POP CALLER PUSH1 0x0 DUP1 PUSH2 0x100 EXP DUP2 SLOAD DUP2 PUSH20 0xFFFFFFFFFFFFFFFFFFFFFFFFFFFFFFFFFFFFFFFF MUL NOT AND SWAP1 DUP4 PUSH20 0xFFFFFFFFFFFFFFFFFFFFFFFFFFFFFFFFFFFFFFFF AND MUL OR SWAP1 SSTORE POP PUSH2 0x186C DUP1 PUSH2 0x80 PUSH1 0x0 CODECOPY PUSH1 0x0 RETURN INVALID PUSH1 0x80 PUSH1 0x40 MSTORE CALLVALUE DUP1 ISZERO PUSH2 0x10 JUMPI PUSH1 0x0 DUP1 REVERT JUMPDEST POP PUSH1 0x4 CALLDATASIZE LT PUSH2 0x93 JUMPI PUSH1 0x0 CALLDATALOAD PUSH1 0xE0 SHR DUP1 PUSH4 0x2C526196 GT PUSH2 0x66 JUMPI DUP1 PUSH4 0x2C526196 EQ PUSH2 0x120 JUMPI DUP1 PUSH4 0x313CE567 EQ PUSH2 0x13C JUMPI DUP1 PUSH4 0x70A08231 EQ PUSH2 0x15A JUMPI DUP1 PUSH4 0xA9059CBB EQ PUSH2 0x18A JUMPI DUP1 PUSH4 0xDD62ED3E EQ PUSH2 0x1BA JUMPI PUSH2 0x93 JUMP JUMPDEST DUP1 PUSH4 0x95EA7B3 EQ PUSH2 0x98 JUMPI DUP1 PUSH4 0x13B4159C EQ PUSH2 0xC8 JUMPI DUP1 PUSH4 0x18160DDD EQ PUSH2 0xD2 JUMPI DUP1 PUSH4 0x23B872DD EQ PUSH2 0xF0 JUMPI JUMPDEST PUSH1 0x0 DUP1 REVERT JUMPDEST PUSH2 0xB2 PUSH1 0x4 DUP1 CALLDATASIZE SUB DUP2 ADD SWAP1 PUSH2 0xAD SWAP2 SWAP1 PUSH2 0xFCF JUMP JUMPDEST PUSH2 0x1EA JUMP JUMPDEST PUSH1 0x40 MLOAD PUSH2 0xBF SWAP2 SWAP1 PUSH2 0x11BA JUMP JUMPDEST PUSH1 0x40 MLOAD DUP1 SWAP2 SUB SWAP1 RETURN JUMPDEST PUSH2 0xD0 PUSH2 0x3CD JUMP JUMPDEST STOP JUMPDEST PUSH2 0xDA PUSH2 0x478 JUMP JUMPDEST PUSH1 0x40 MLOAD PUSH2 0xE7 SWAP2 SWAP1 PUSH2 0x12F7 JUMP JUMPDEST PUSH1 0x40 MLOAD DUP1 SWAP2 SUB SWAP1 RETURN JUMPDEST PUSH2 0x10A PUSH1 0x4 DUP1 CALLDATASIZE SUB DUP2 ADD SWAP1 PUSH2 0x105 SWAP2 SWAP1 PUSH2 0xF7C JUMP JUMPDEST PUSH2 0x482 JUMP JUMPDEST PUSH1 0x40 MLOAD PUSH2 0x117 SWAP2 SWAP1 PUSH2 0x11BA JUMP JUMPDEST PUSH1 0x40 MLOAD DUP1 SWAP2 SUB SWAP1 RETURN JUMPDEST PUSH2 0x13A PUSH1 0x4 DUP1 CALLDATASIZE SUB DUP2 ADD SWAP1 PUSH2 0x135 SWAP2 SWAP1 PUSH2 0x100F JUMP JUMPDEST PUSH2 0x85F JUMP JUMPDEST STOP JUMPDEST PUSH2 0x144 PUSH2 0xA8B JUMP JUMPDEST PUSH1 0x40 MLOAD PUSH2 0x151 SWAP2 SWAP1 PUSH2 0x1312 JUMP JUMPDEST PUSH1 0x40 MLOAD DUP1 SWAP2 SUB SWAP1 RETURN JUMPDEST PUSH2 0x174 PUSH1 0x4 DUP1 CALLDATASIZE SUB DUP2 ADD SWAP1 PUSH2 0x16F SWAP2 SWAP1 PUSH2 0xF0F JUMP JUMPDEST PUSH2 0xA94 JUMP JUMPDEST PUSH1 0x40 MLOAD PUSH2 0x181 SWAP2 SWAP1 PUSH2 0x12F7 JUMP JUMPDEST PUSH1 0x40 MLOAD DUP1 SWAP2 SUB SWAP1 RETURN JUMPDEST PUSH2 0x1A4 PUSH1 0x4 DUP1 CALLDATASIZE SUB DUP2 ADD SWAP1 PUSH2 0x19F SWAP2 SWAP1 PUSH2 0xFCF JUMP JUMPDEST PUSH2 0xADD JUMP JUMPDEST PUSH1 0x40 MLOAD PUSH2 0x1B1 SWAP2 SWAP1 PUSH2 0x11BA JUMP JUMPDEST PUSH1 0x40 MLOAD DUP1 SWAP2 SUB SWAP1 RETURN JUMPDEST PUSH2 0x1D4 PUSH1 0x4 DUP1 CALLDATASIZE SUB DUP2 ADD SWAP1 PUSH2 0x1CF SWAP2 SWAP1 PUSH2 0xF3C JUMP JUMPDEST PUSH2 0xCF7 JUMP JUMPDEST PUSH1 0x40 MLOAD PUSH2 0x1E1 SWAP2 SWAP1 PUSH2 0x12F7 JUMP JUMPDEST PUSH1 0x40 MLOAD DUP1 SWAP2 SUB SWAP1 RETURN JUMPDEST PUSH1 0x0 DUP1 PUSH20 0xFFFFFFFFFFFFFFFFFFFFFFFFFFFFFFFFFFFFFFFF AND DUP4 PUSH20 0xFFFFFFFFFFFFFFFFFFFFFFFFFFFFFFFFFFFFFFFF AND EQ ISZERO PUSH2 0x25B JUMPI PUSH1 0x40 MLOAD PUSH32 0x8C379A000000000000000000000000000000000000000000000000000000000 DUP2 MSTORE PUSH1 0x4 ADD PUSH2 0x252 SWAP1 PUSH2 0x1217 JUMP JUMPDEST PUSH1 0x40 MLOAD DUP1 SWAP2 SUB SWAP1 REVERT JUMPDEST DUP2 PUSH1 0x2 PUSH1 0x0 CALLER PUSH20 0xFFFFFFFFFFFFFFFFFFFFFFFFFFFFFFFFFFFFFFFF AND PUSH20 0xFFFFFFFFFFFFFFFFFFFFFFFFFFFFFFFFFFFFFFFF AND DUP2 MSTORE PUSH1 0x20 ADD SWAP1 DUP2 MSTORE PUSH1 0x20 ADD PUSH1 0x0 KECCAK256 SLOAD LT ISZERO PUSH2 0x2DD JUMPI PUSH1 0x40 MLOAD PUSH32 0x8C379A000000000000000000000000000000000000000000000000000000000 DUP2 MSTORE PUSH1 0x4 ADD PUSH2 0x2D4 SWAP1 PUSH2 0x1237 JUMP JUMPDEST PUSH1 0x40 MLOAD DUP1 SWAP2 SUB SWAP1 REVERT JUMPDEST DUP2 PUSH1 0x3 PUSH1 0x0 CALLER PUSH20 0xFFFFFFFFFFFFFFFFFFFFFFFFFFFFFFFFFFFFFFFF AND PUSH20 0xFFFFFFFFFFFFFFFFFFFFFFFFFFFFFFFFFFFFFFFF AND DUP2 MSTORE PUSH1 0x20 ADD SWAP1 DUP2 MSTORE PUSH1 0x20 ADD PUSH1 0x0 KECCAK256 PUSH1 0x0 DUP6 PUSH20 0xFFFFFFFFFFFFFFFFFFFFFFFFFFFFFFFFFFFFFFFF AND PUSH20 0xFFFFFFFFFFFFFFFFFFFFFFFFFFFFFFFFFFFFFFFF AND DUP2 MSTORE PUSH1 0x20 ADD SWAP1 DUP2 MSTORE PUSH1 0x20 ADD PUSH1 0x0 KECCAK256 DUP2 SWAP1 SSTORE POP DUP3 PUSH20 0xFFFFFFFFFFFFFFFFFFFFFFFFFFFFFFFFFFFFFFFF AND CALLER PUSH20 0xFFFFFFFFFFFFFFFFFFFFFFFFFFFFFFFFFFFFFFFF AND PUSH32 0x8C5BE1E5EBEC7D5BD14F71427D1E84F3DD0314C0F7B2291E5B200AC8C7C3B925 DUP5 PUSH1 0x40 MLOAD PUSH2 0x3BB SWAP2 SWAP1 PUSH2 0x12F7 JUMP JUMPDEST PUSH1 0x40 MLOAD DUP1 SWAP2 SUB SWAP1 LOG3 PUSH1 0x1 SWAP1 POP SWAP3 SWAP2 POP POP JUMP JUMPDEST CALLER PUSH20 0xFFFFFFFFFFFFFFFFFFFFFFFFFFFFFFFFFFFFFFFF AND PUSH1 0x0 DUP1 SLOAD SWAP1 PUSH2 0x100 EXP SWAP1 DIV PUSH20 0xFFFFFFFFFFFFFFFFFFFFFFFFFFFFFFFFFFFFFFFF AND PUSH20 0xFFFFFFFFFFFFFFFFFFFFFFFFFFFFFFFFFFFFFFFF AND EQ PUSH2 0x45B JUMPI PUSH1 0x40 MLOAD PUSH32 0x8C379A000000000000000000000000000000000000000000000000000000000 DUP2 MSTORE PUSH1 0x4 ADD PUSH2 0x452 SWAP1 PUSH2 0x1277 JUMP JUMPDEST PUSH1 0x40 MLOAD DUP1 SWAP2 SUB SWAP1 REVERT JUMPDEST PUSH1 0x1 PUSH1 0x4 PUSH1 0x0 PUSH2 0x100 EXP DUP2 SLOAD DUP2 PUSH1 0xFF MUL NOT AND SWAP1 DUP4 ISZERO ISZERO MUL OR SWAP1 SSTORE POP JUMP JUMPDEST PUSH1 0x0 PUSH1 0x1 SLOAD SWAP1 POP SWAP1 JUMP JUMPDEST PUSH1 0x0 DUP1 PUSH20 0xFFFFFFFFFFFFFFFFFFFFFFFFFFFFFFFFFFFFFFFF AND DUP5 PUSH20 0xFFFFFFFFFFFFFFFFFFFFFFFFFFFFFFFFFFFFFFFF AND EQ ISZERO PUSH2 0x4F3 JUMPI PUSH1 0x40 MLOAD PUSH32 0x8C379A000000000000000000000000000000000000000000000000000000000 DUP2 MSTORE PUSH1 0x4 ADD PUSH2 0x4EA SWAP1 PUSH2 0x12B7 JUMP JUMPDEST PUSH1 0x40 MLOAD DUP1 SWAP2 SUB SWAP1 REVERT JUMPDEST PUSH1 0x0 PUSH20 0xFFFFFFFFFFFFFFFFFFFFFFFFFFFFFFFFFFFFFFFF AND DUP4 PUSH20 0xFFFFFFFFFFFFFFFFFFFFFFFFFFFFFFFFFFFFFFFF AND EQ ISZERO PUSH2 0x563 JUMPI PUSH1 0x40 MLOAD PUSH32 0x8C379A000000000000000000000000000000000000000000000000000000000 DUP2 MSTORE PUSH1 0x4 ADD PUSH2 0x55A SWAP1 PUSH2 0x11F7 JUMP JUMPDEST PUSH1 0x40 MLOAD DUP1 SWAP2 SUB SWAP1 REVERT JUMPDEST DUP2 PUSH1 0x2 PUSH1 0x0 DUP7 PUSH20 0xFFFFFFFFFFFFFFFFFFFFFFFFFFFFFFFFFFFFFFFF AND PUSH20 0xFFFFFFFFFFFFFFFFFFFFFFFFFFFFFFFFFFFFFFFF AND DUP2 MSTORE PUSH1 0x20 ADD SWAP1 DUP2 MSTORE PUSH1 0x20 ADD PUSH1 0x0 KECCAK256 SLOAD LT ISZERO PUSH2 0x5AF DUP4 PUSH2 0xD7E JUMP JUMPDEST SWAP1 PUSH2 0x5F0 JUMPI PUSH1 0x40 MLOAD PUSH32 0x8C379A000000000000000000000000000000000000000000000000000000000 DUP2 MSTORE PUSH1 0x4 ADD PUSH2 0x5E7 SWAP2 SWAP1 PUSH2 0x11D5 JUMP JUMPDEST PUSH1 0x40 MLOAD DUP1 SWAP2 SUB SWAP1 REVERT JUMPDEST POP DUP2 PUSH1 0x3 PUSH1 0x0 DUP7 PUSH20 0xFFFFFFFFFFFFFFFFFFFFFFFFFFFFFFFFFFFFFFFF AND PUSH20 0xFFFFFFFFFFFFFFFFFFFFFFFFFFFFFFFFFFFFFFFF AND DUP2 MSTORE PUSH1 0x20 ADD SWAP1 DUP2 MSTORE PUSH1 0x20 ADD PUSH1 0x0 KECCAK256 PUSH1 0x0 CALLER PUSH20 0xFFFFFFFFFFFFFFFFFFFFFFFFFFFFFFFFFFFFFFFF AND PUSH20 0xFFFFFFFFFFFFFFFFFFFFFFFFFFFFFFFFFFFFFFFF AND DUP2 MSTORE PUSH1 0x20 ADD SWAP1 DUP2 MSTORE PUSH1 0x20 ADD PUSH1 0x0 KECCAK256 SLOAD LT ISZERO PUSH2 0x6B0 JUMPI PUSH1 0x40 MLOAD PUSH32 0x8C379A000000000000000000000000000000000000000000000000000000000 DUP2 MSTORE PUSH1 0x4 ADD PUSH2 0x6A7 SWAP1 PUSH2 0x1257 JUMP JUMPDEST PUSH1 0x40 MLOAD DUP1 SWAP2 SUB SWAP1 REVERT JUMPDEST DUP2 PUSH1 0x2 PUSH1 0x0 DUP7 PUSH20 0xFFFFFFFFFFFFFFFFFFFFFFFFFFFFFFFFFFFFFFFF AND PUSH20 0xFFFFFFFFFFFFFFFFFFFFFFFFFFFFFFFFFFFFFFFF AND DUP2 MSTORE PUSH1 0x20 ADD SWAP1 DUP2 MSTORE PUSH1 0x20 ADD PUSH1 0x0 KECCAK256 PUSH1 0x0 DUP3 DUP3 SLOAD PUSH2 0x6FF SWAP2 SWAP1 PUSH2 0x13D0 JUMP JUMPDEST SWAP3 POP POP DUP2 SWAP1 SSTORE POP DUP2 PUSH1 0x2 PUSH1 0x0 DUP6 PUSH20 0xFFFFFFFFFFFFFFFFFFFFFFFFFFFFFFFFFFFFFFFF AND PUSH20 0xFFFFFFFFFFFFFFFFFFFFFFFFFFFFFFFFFFFFFFFF AND DUP2 MSTORE PUSH1 0x20 ADD SWAP1 DUP2 MSTORE PUSH1 0x20 ADD PUSH1 0x0 KECCAK256 PUSH1 0x0 DUP3 DUP3 SLOAD PUSH2 0x755 SWAP2 SWAP1 PUSH2 0x1349 JUMP JUMPDEST SWAP3 POP POP DUP2 SWAP1 SSTORE POP DUP2 PUSH1 0x3 PUSH1 0x0 DUP7 PUSH20 0xFFFFFFFFFFFFFFFFFFFFFFFFFFFFFFFFFFFFFFFF AND PUSH20 0xFFFFFFFFFFFFFFFFFFFFFFFFFFFFFFFFFFFFFFFF AND DUP2 MSTORE PUSH1 0x20 ADD SWAP1 DUP2 MSTORE PUSH1 0x20 ADD PUSH1 0x0 KECCAK256 PUSH1 0x0 CALLER PUSH20 0xFFFFFFFFFFFFFFFFFFFFFFFFFFFFFFFFFFFFFFFF AND PUSH20 0xFFFFFFFFFFFFFFFFFFFFFFFFFFFFFFFFFFFFFFFF AND DUP2 MSTORE PUSH1 0x20 ADD SWAP1 DUP2 MSTORE PUSH1 0x20 ADD PUSH1 0x0 KECCAK256 PUSH1 0x0 DUP3 DUP3 SLOAD PUSH2 0x7E8 SWAP2 SWAP1 PUSH2 0x13D0 JUMP JUMPDEST SWAP3 POP POP DUP2 SWAP1 SSTORE POP DUP3 PUSH20 0xFFFFFFFFFFFFFFFFFFFFFFFFFFFFFFFFFFFFFFFF AND DUP5 PUSH20 0xFFFFFFFFFFFFFFFFFFFFFFFFFFFFFFFFFFFFFFFF AND PUSH32 0xDDF252AD1BE2C89B69C2B068FC378DAA952BA7F163C4A11628F55A4DF523B3EF DUP5 PUSH1 0x40 MLOAD PUSH2 0x84C SWAP2 SWAP1 PUSH2 0x12F7 JUMP JUMPDEST PUSH1 0x40 MLOAD DUP1 SWAP2 SUB SWAP1 LOG3 PUSH1 0x1 SWAP1 POP SWAP4 SWAP3 POP POP POP JUMP JUMPDEST CALLER PUSH20 0xFFFFFFFFFFFFFFFFFFFFFFFFFFFFFFFFFFFFFFFF AND PUSH1 0x0 DUP1 SLOAD SWAP1 PUSH2 0x100 EXP SWAP1 DIV PUSH20 0xFFFFFFFFFFFFFFFFFFFFFFFFFFFFFFFFFFFFFFFF AND PUSH20 0xFFFFFFFFFFFFFFFFFFFFFFFFFFFFFFFFFFFFFFFF AND EQ PUSH2 0x8ED JUMPI PUSH1 0x40 MLOAD PUSH32 0x8C379A000000000000000000000000000000000000000000000000000000000 DUP2 MSTORE PUSH1 0x4 ADD PUSH2 0x8E4 SWAP1 PUSH2 0x1277 JUMP JUMPDEST PUSH1 0x40 MLOAD DUP1 SWAP2 SUB SWAP1 REVERT JUMPDEST PUSH1 0x0 PUSH20 0xFFFFFFFFFFFFFFFFFFFFFFFFFFFFFFFFFFFFFFFF AND CALLER PUSH20 0xFFFFFFFFFFFFFFFFFFFFFFFFFFFFFFFFFFFFFFFF AND EQ ISZERO PUSH2 0x95D JUMPI PUSH1 0x40 MLOAD PUSH32 0x8C379A000000000000000000000000000000000000000000000000000000000 DUP2 MSTORE PUSH1 0x4 ADD PUSH2 0x954 SWAP1 PUSH2 0x12D7 JUMP JUMPDEST PUSH1 0x40 MLOAD DUP1 SWAP2 SUB SWAP1 REVERT JUMPDEST PUSH1 0x0 ISZERO ISZERO PUSH1 0x4 PUSH1 0x0 SWAP1 SLOAD SWAP1 PUSH2 0x100 EXP SWAP1 DIV PUSH1 0xFF AND ISZERO ISZERO EQ PUSH2 0x9B3 JUMPI PUSH1 0x40 MLOAD PUSH32 0x8C379A000000000000000000000000000000000000000000000000000000000 DUP2 MSTORE PUSH1 0x4 ADD PUSH2 0x9AA SWAP1 PUSH2 0x1297 JUMP JUMPDEST PUSH1 0x40 MLOAD DUP1 SWAP2 SUB SWAP1 REVERT JUMPDEST DUP1 PUSH1 0x1 PUSH1 0x0 DUP3 DUP3 SLOAD PUSH2 0x9C5 SWAP2 SWAP1 PUSH2 0x1349 JUMP JUMPDEST SWAP3 POP POP DUP2 SWAP1 SSTORE POP DUP1 PUSH1 0x2 PUSH1 0x0 CALLER PUSH20 0xFFFFFFFFFFFFFFFFFFFFFFFFFFFFFFFFFFFFFFFF AND PUSH20 0xFFFFFFFFFFFFFFFFFFFFFFFFFFFFFFFFFFFFFFFF AND DUP2 MSTORE PUSH1 0x20 ADD SWAP1 DUP2 MSTORE PUSH1 0x20 ADD PUSH1 0x0 KECCAK256 PUSH1 0x0 DUP3 DUP3 SLOAD PUSH2 0xA1B SWAP2 SWAP1 PUSH2 0x1349 JUMP JUMPDEST SWAP3 POP POP DUP2 SWAP1 SSTORE POP CALLER PUSH20 0xFFFFFFFFFFFFFFFFFFFFFFFFFFFFFFFFFFFFFFFF AND PUSH1 0x0 PUSH20 0xFFFFFFFFFFFFFFFFFFFFFFFFFFFFFFFFFFFFFFFF AND PUSH32 0xDDF252AD1BE2C89B69C2B068FC378DAA952BA7F163C4A11628F55A4DF523B3EF DUP4 PUSH1 0x40 MLOAD PUSH2 0xA80 SWAP2 SWAP1 PUSH2 0x12F7 JUMP JUMPDEST PUSH1 0x40 MLOAD DUP1 SWAP2 SUB SWAP1 LOG3 POP JUMP JUMPDEST PUSH1 0x0 PUSH1 0x12 SWAP1 POP SWAP1 JUMP JUMPDEST PUSH1 0x0 PUSH1 0x2 PUSH1 0x0 DUP4 PUSH20 0xFFFFFFFFFFFFFFFFFFFFFFFFFFFFFFFFFFFFFFFF AND PUSH20 0xFFFFFFFFFFFFFFFFFFFFFFFFFFFFFFFFFFFFFFFF AND DUP2 MSTORE PUSH1 0x20 ADD SWAP1 DUP2 MSTORE PUSH1 0x20 ADD PUSH1 0x0 KECCAK256 SLOAD SWAP1 POP SWAP2 SWAP1 POP JUMP JUMPDEST PUSH1 0x0 DUP1 PUSH20 0xFFFFFFFFFFFFFFFFFFFFFFFFFFFFFFFFFFFFFFFF AND DUP4 PUSH20 0xFFFFFFFFFFFFFFFFFFFFFFFFFFFFFFFFFFFFFFFF AND EQ ISZERO PUSH2 0xB4E JUMPI PUSH1 0x40 MLOAD PUSH32 0x8C379A000000000000000000000000000000000000000000000000000000000 DUP2 MSTORE PUSH1 0x4 ADD PUSH2 0xB45 SWAP1 PUSH2 0x11F7 JUMP JUMPDEST PUSH1 0x40 MLOAD DUP1 SWAP2 SUB SWAP1 REVERT JUMPDEST DUP2 PUSH1 0x2 PUSH1 0x0 CALLER PUSH20 0xFFFFFFFFFFFFFFFFFFFFFFFFFFFFFFFFFFFFFFFF AND PUSH20 0xFFFFFFFFFFFFFFFFFFFFFFFFFFFFFFFFFFFFFFFF AND DUP2 MSTORE PUSH1 0x20 ADD SWAP1 DUP2 MSTORE PUSH1 0x20 ADD PUSH1 0x0 KECCAK256 SLOAD LT ISZERO PUSH2 0xB9A DUP4 PUSH2 0xD7E JUMP JUMPDEST SWAP1 PUSH2 0xBDB JUMPI PUSH1 0x40 MLOAD PUSH32 0x8C379A000000000000000000000000000000000000000000000000000000000 DUP2 MSTORE PUSH1 0x4 ADD PUSH2 0xBD2 SWAP2 SWAP1 PUSH2 0x11D5 JUMP JUMPDEST PUSH1 0x40 MLOAD DUP1 SWAP2 SUB SWAP1 REVERT JUMPDEST POP DUP2 PUSH1 0x2 PUSH1 0x0 CALLER PUSH20 0xFFFFFFFFFFFFFFFFFFFFFFFFFFFFFFFFFFFFFFFF AND PUSH20 0xFFFFFFFFFFFFFFFFFFFFFFFFFFFFFFFFFFFFFFFF AND DUP2 MSTORE PUSH1 0x20 ADD SWAP1 DUP2 MSTORE PUSH1 0x20 ADD PUSH1 0x0 KECCAK256 PUSH1 0x0 DUP3 DUP3 SLOAD PUSH2 0xC2B SWAP2 SWAP1 PUSH2 0x13D0 JUMP JUMPDEST SWAP3 POP POP DUP2 SWAP1 SSTORE POP DUP2 PUSH1 0x2 PUSH1 0x0 DUP6 PUSH20 0xFFFFFFFFFFFFFFFFFFFFFFFFFFFFFFFFFFFFFFFF AND PUSH20 0xFFFFFFFFFFFFFFFFFFFFFFFFFFFFFFFFFFFFFFFF AND DUP2 MSTORE PUSH1 0x20 ADD SWAP1 DUP2 MSTORE PUSH1 0x20 ADD PUSH1 0x0 KECCAK256 PUSH1 0x0 DUP3 DUP3 SLOAD PUSH2 0xC81 SWAP2 SWAP1 PUSH2 0x1349 JUMP JUMPDEST SWAP3 POP POP DUP2 SWAP1 SSTORE POP DUP3 PUSH20 0xFFFFFFFFFFFFFFFFFFFFFFFFFFFFFFFFFFFFFFFF AND CALLER PUSH20 0xFFFFFFFFFFFFFFFFFFFFFFFFFFFFFFFFFFFFFFFF AND PUSH32 0xDDF252AD1BE2C89B69C2B068FC378DAA952BA7F163C4A11628F55A4DF523B3EF DUP5 PUSH1 0x40 MLOAD PUSH2 0xCE5 SWAP2 SWAP1 PUSH2 0x12F7 JUMP JUMPDEST PUSH1 0x40 MLOAD DUP1 SWAP2 SUB SWAP1 LOG3 PUSH1 0x1 SWAP1 POP SWAP3 SWAP2 POP POP JUMP JUMPDEST PUSH1 0x0 PUSH1 0x3 PUSH1 0x0 DUP5 PUSH20 0xFFFFFFFFFFFFFFFFFFFFFFFFFFFFFFFFFFFFFFFF AND PUSH20 0xFFFFFFFFFFFFFFFFFFFFFFFFFFFFFFFFFFFFFFFF AND DUP2 MSTORE PUSH1 0x20 ADD SWAP1 DUP2 MSTORE PUSH1 0x20 ADD PUSH1 0x0 KECCAK256 PUSH1 0x0 DUP4 PUSH20 0xFFFFFFFFFFFFFFFFFFFFFFFFFFFFFFFFFFFFFFFF AND PUSH20 0xFFFFFFFFFFFFFFFFFFFFFFFFFFFFFFFFFFFFFFFF AND DUP2 MSTORE PUSH1 0x20 ADD SWAP1 DUP2 MSTORE PUSH1 0x20 ADD PUSH1 0x0 KECCAK256 SLOAD SWAP1 POP SWAP3 SWAP2 POP POP JUMP JUMPDEST PUSH1 0x60 PUSH1 0x0 DUP3 EQ ISZERO PUSH2 0xDC6 JUMPI PUSH1 0x40 MLOAD DUP1 PUSH1 0x40 ADD PUSH1 0x40 MSTORE DUP1 PUSH1 0x1 DUP2 MSTORE PUSH1 0x20 ADD PUSH32 0x3000000000000000000000000000000000000000000000000000000000000000 DUP2 MSTORE POP SWAP1 POP PUSH2 0xEE0 JUMP JUMPDEST PUSH1 0x0 DUP3 SWAP1 POP PUSH1 0x0 JUMPDEST PUSH1 0x0 DUP3 EQ PUSH2 0xDF8 JUMPI DUP1 DUP1 PUSH2 0xDE1 SWAP1 PUSH2 0x14B6 JUMP JUMPDEST SWAP2 POP POP PUSH1 0xA DUP3 PUSH2 0xDF1 SWAP2 SWAP1 PUSH2 0x139F JUMP JUMPDEST SWAP2 POP PUSH2 0xDCE JUMP JUMPDEST PUSH1 0x0 DUP2 PUSH8 0xFFFFFFFFFFFFFFFF DUP2 GT ISZERO PUSH2 0xE14 JUMPI PUSH2 0xE13 PUSH2 0x15BD JUMP JUMPDEST JUMPDEST PUSH1 0x40 MLOAD SWAP1 DUP1 DUP3 MSTORE DUP1 PUSH1 0x1F ADD PUSH1 0x1F NOT AND PUSH1 0x20 ADD DUP3 ADD PUSH1 0x40 MSTORE DUP1 ISZERO PUSH2 0xE46 JUMPI DUP2 PUSH1 0x20 ADD PUSH1 0x1 DUP3 MUL DUP1 CALLDATASIZE DUP4 CALLDATACOPY DUP1 DUP3 ADD SWAP2 POP POP SWAP1 POP JUMPDEST POP SWAP1 POP PUSH1 0x0 DUP3 SWAP1 POP DUP6 SWAP4 POP JUMPDEST PUSH1 0x0 DUP5 EQ PUSH2 0xED8 JUMPI PUSH1 0xA DUP5 PUSH2 0xE67 SWAP2 SWAP1 PUSH2 0x14FF JUMP JUMPDEST PUSH1 0x30 PUSH2 0xE73 SWAP2 SWAP1 PUSH2 0x1349 JUMP JUMPDEST PUSH1 0xF8 SHL DUP3 DUP3 PUSH2 0xE81 SWAP1 PUSH2 0x148C JUMP JUMPDEST SWAP3 POP DUP3 DUP2 MLOAD DUP2 LT PUSH2 0xE95 JUMPI PUSH2 0xE94 PUSH2 0x158E JUMP JUMPDEST JUMPDEST PUSH1 0x20 ADD ADD SWAP1 PUSH31 0xFFFFFFFFFFFFFFFFFFFFFFFFFFFFFFFFFFFFFFFFFFFFFFFFFFFFFFFFFFFFFF NOT AND SWAP1 DUP2 PUSH1 0x0 BYTE SWAP1 MSTORE8 POP PUSH1 0xA DUP5 PUSH2 0xED1 SWAP2 SWAP1 PUSH2 0x139F JUMP JUMPDEST SWAP4 POP PUSH2 0xE52 JUMP JUMPDEST DUP2 SWAP5 POP POP POP POP POP JUMPDEST SWAP2 SWAP1 POP JUMP JUMPDEST PUSH1 0x0 DUP2 CALLDATALOAD SWAP1 POP PUSH2 0xEF4 DUP2 PUSH2 0x1808 JUMP JUMPDEST SWAP3 SWAP2 POP POP JUMP JUMPDEST PUSH1 0x0 DUP2 CALLDATALOAD SWAP1 POP PUSH2 0xF09 DUP2 PUSH2 0x181F JUMP JUMPDEST SWAP3 SWAP2 POP POP JUMP JUMPDEST PUSH1 0x0 PUSH1 0x20 DUP3 DUP5 SUB SLT ISZERO PUSH2 0xF25 JUMPI PUSH2 0xF24 PUSH2 0x15EC JUMP JUMPDEST JUMPDEST PUSH1 0x0 PUSH2 0xF33 DUP5 DUP3 DUP6 ADD PUSH2 0xEE5 JUMP JUMPDEST SWAP2 POP POP SWAP3 SWAP2 POP POP JUMP JUMPDEST PUSH1 0x0 DUP1 PUSH1 0x40 DUP4 DUP6 SUB SLT ISZERO PUSH2 0xF53 JUMPI PUSH2 0xF52 PUSH2 0x15EC JUMP JUMPDEST JUMPDEST PUSH1 0x0 PUSH2 0xF61 DUP6 DUP3 DUP7 ADD PUSH2 0xEE5 JUMP JUMPDEST SWAP3 POP POP PUSH1 0x20 PUSH2 0xF72 DUP6 DUP3 DUP7 ADD PUSH2 0xEE5 JUMP JUMPDEST SWAP2 POP POP SWAP3 POP SWAP3 SWAP1 POP JUMP JUMPDEST PUSH1 0x0 DUP1 PUSH1 0x0 PUSH1 0x60 DUP5 DUP7 SUB SLT ISZERO PUSH2 0xF95 JUMPI PUSH2 0xF94 PUSH2 0x15EC JUMP JUMPDEST JUMPDEST PUSH1 0x0 PUSH2 0xFA3 DUP7 DUP3 DUP8 ADD PUSH2 0xEE5 JUMP JUMPDEST SWAP4 POP POP PUSH1 0x20 PUSH2 0xFB4 DUP7 DUP3 DUP8 ADD PUSH2 0xEE5 JUMP JUMPDEST SWAP3 POP POP PUSH1 0x40 PUSH2 0xFC5 DUP7 DUP3 DUP8 ADD PUSH2 0xEFA JUMP JUMPDEST SWAP2 POP POP SWAP3 POP SWAP3 POP SWAP3 JUMP JUMPDEST PUSH1 0x0 DUP1 PUSH1 0x40 DUP4 DUP6 SUB SLT ISZERO PUSH2 0xFE6 JUMPI PUSH2 0xFE5 PUSH2 0x15EC JUMP JUMPDEST JUMPDEST PUSH1 0x0 PUSH2 0xFF4 DUP6 DUP3 DUP7 ADD PUSH2 0xEE5 JUMP JUMPDEST SWAP3 POP POP PUSH1 0x20 PUSH2 0x1005 DUP6 DUP3 DUP7 ADD PUSH2 0xEFA JUMP JUMPDEST SWAP2 POP POP SWAP3 POP SWAP3 SWAP1 POP JUMP JUMPDEST PUSH1 0x0 PUSH1 0x20 DUP3 DUP5 SUB SLT ISZERO PUSH2 0x1025 JUMPI PUSH2 0x1024 PUSH2 0x15EC JUMP JUMPDEST JUMPDEST PUSH1 0x0 PUSH2 0x1033 DUP5 DUP3 DUP6 ADD PUSH2 0xEFA JUMP JUMPDEST SWAP2 POP POP SWAP3 SWAP2 POP POP JUMP JUMPDEST PUSH2 0x1045 DUP2 PUSH2 0x1416 JUMP JUMPDEST DUP3 MSTORE POP POP JUMP JUMPDEST PUSH1 0x0 PUSH2 0x1056 DUP3 PUSH2 0x132D JUMP JUMPDEST PUSH2 0x1060 DUP2 DUP6 PUSH2 0x1338 JUMP JUMPDEST SWAP4 POP PUSH2 0x1070 DUP2 DUP6 PUSH1 0x20 DUP7 ADD PUSH2 0x1459 JUMP JUMPDEST PUSH2 0x1079 DUP2 PUSH2 0x15F1 JUMP JUMPDEST DUP5 ADD SWAP2 POP POP SWAP3 SWAP2 POP POP JUMP JUMPDEST PUSH1 0x0 PUSH2 0x1091 PUSH1 0x23 DUP4 PUSH2 0x1338 JUMP JUMPDEST SWAP2 POP PUSH2 0x109C DUP3 PUSH2 0x1602 JUMP JUMPDEST PUSH1 0x40 DUP3 ADD SWAP1 POP SWAP2 SWAP1 POP JUMP JUMPDEST PUSH1 0x0 PUSH2 0x10B4 PUSH1 0x22 DUP4 PUSH2 0x1338 JUMP JUMPDEST SWAP2 POP PUSH2 0x10BF DUP3 PUSH2 0x1651 JUMP JUMPDEST PUSH1 0x40 DUP3 ADD SWAP1 POP SWAP2 SWAP1 POP JUMP JUMPDEST PUSH1 0x0 PUSH2 0x10D7 PUSH1 0x25 DUP4 PUSH2 0x1338 JUMP JUMPDEST SWAP2 POP PUSH2 0x10E2 DUP3 PUSH2 0x16A0 JUMP JUMPDEST PUSH1 0x40 DUP3 ADD SWAP1 POP SWAP2 SWAP1 POP JUMP JUMPDEST PUSH1 0x0 PUSH2 0x10FA PUSH1 0x28 DUP4 PUSH2 0x1338 JUMP JUMPDEST SWAP2 POP PUSH2 0x1105 DUP3 PUSH2 0x16EF JUMP JUMPDEST PUSH1 0x40 DUP3 ADD SWAP1 POP SWAP2 SWAP1 POP JUMP JUMPDEST PUSH1 0x0 PUSH2 0x111D PUSH1 0x20 DUP4 PUSH2 0x1338 JUMP JUMPDEST SWAP2 POP PUSH2 0x1128 DUP3 PUSH2 0x173E JUMP JUMPDEST PUSH1 0x20 DUP3 ADD SWAP1 POP SWAP2 SWAP1 POP JUMP JUMPDEST PUSH1 0x0 PUSH2 0x1140 PUSH1 0x13 DUP4 PUSH2 0x1338 JUMP JUMPDEST SWAP2 POP PUSH2 0x114B DUP3 PUSH2 0x1767 JUMP JUMPDEST PUSH1 0x20 DUP3 ADD SWAP1 POP SWAP2 SWAP1 POP JUMP JUMPDEST PUSH1 0x0 PUSH2 0x1163 PUSH1 0x25 DUP4 PUSH2 0x1338 JUMP JUMPDEST SWAP2 POP PUSH2 0x116E DUP3 PUSH2 0x1790 JUMP JUMPDEST PUSH1 0x40 DUP3 ADD SWAP1 POP SWAP2 SWAP1 POP JUMP JUMPDEST PUSH1 0x0 PUSH2 0x1186 PUSH1 0x1F DUP4 PUSH2 0x1338 JUMP JUMPDEST SWAP2 POP PUSH2 0x1191 DUP3 PUSH2 0x17DF JUMP JUMPDEST PUSH1 0x20 DUP3 ADD SWAP1 POP SWAP2 SWAP1 POP JUMP JUMPDEST PUSH2 0x11A5 DUP2 PUSH2 0x1442 JUMP JUMPDEST DUP3 MSTORE POP POP JUMP JUMPDEST PUSH2 0x11B4 DUP2 PUSH2 0x144C JUMP JUMPDEST DUP3 MSTORE POP POP JUMP JUMPDEST PUSH1 0x0 PUSH1 0x20 DUP3 ADD SWAP1 POP PUSH2 0x11CF PUSH1 0x0 DUP4 ADD DUP5 PUSH2 0x103C JUMP JUMPDEST SWAP3 SWAP2 POP POP JUMP JUMPDEST PUSH1 0x0 PUSH1 0x20 DUP3 ADD SWAP1 POP DUP2 DUP2 SUB PUSH1 0x0 DUP4 ADD MSTORE PUSH2 0x11EF DUP2 DUP5 PUSH2 0x104B JUMP JUMPDEST SWAP1 POP SWAP3 SWAP2 POP POP JUMP JUMPDEST PUSH1 0x0 PUSH1 0x20 DUP3 ADD SWAP1 POP DUP2 DUP2 SUB PUSH1 0x0 DUP4 ADD MSTORE PUSH2 0x1210 DUP2 PUSH2 0x1084 JUMP JUMPDEST SWAP1 POP SWAP2 SWAP1 POP JUMP JUMPDEST PUSH1 0x0 PUSH1 0x20 DUP3 ADD SWAP1 POP DUP2 DUP2 SUB PUSH1 0x0 DUP4 ADD MSTORE PUSH2 0x1230 DUP2 PUSH2 0x10A7 JUMP JUMPDEST SWAP1 POP SWAP2 SWAP1 POP JUMP JUMPDEST PUSH1 0x0 PUSH1 0x20 DUP3 ADD SWAP1 POP DUP2 DUP2 SUB PUSH1 0x0 DUP4 ADD MSTORE PUSH2 0x1250 DUP2 PUSH2 0x10CA JUMP JUMPDEST SWAP1 POP SWAP2 SWAP1 POP JUMP JUMPDEST PUSH1 0x0 PUSH1 0x20 DUP3 ADD SWAP1 POP DUP2 DUP2 SUB PUSH1 0x0 DUP4 ADD MSTORE PUSH2 0x1270 DUP2 PUSH2 0x10ED JUMP JUMPDEST SWAP1 POP SWAP2 SWAP1 POP JUMP JUMPDEST PUSH1 0x0 PUSH1 0x20 DUP3 ADD SWAP1 POP DUP2 DUP2 SUB PUSH1 0x0 DUP4 ADD MSTORE PUSH2 0x1290 DUP2 PUSH2 0x1110 JUMP JUMPDEST SWAP1 POP SWAP2 SWAP1 POP JUMP JUMPDEST PUSH1 0x0 PUSH1 0x20 DUP3 ADD SWAP1 POP DUP2 DUP2 SUB PUSH1 0x0 DUP4 ADD MSTORE PUSH2 0x12B0 DUP2 PUSH2 0x1133 JUMP JUMPDEST SWAP1 POP SWAP2 SWAP1 POP JUMP JUMPDEST PUSH1 0x0 PUSH1 0x20 DUP3 ADD SWAP1 POP DUP2 DUP2 SUB PUSH1 0x0 DUP4 ADD MSTORE PUSH2 0x12D0 DUP2 PUSH2 0x1156 JUMP JUMPDEST SWAP1 POP SWAP2 SWAP1 POP JUMP JUMPDEST PUSH1 0x0 PUSH1 0x20 DUP3 ADD SWAP1 POP DUP2 DUP2 SUB PUSH1 0x0 DUP4 ADD MSTORE PUSH2 0x12F0 DUP2 PUSH2 0x1179 JUMP JUMPDEST SWAP1 POP SWAP2 SWAP1 POP JUMP JUMPDEST PUSH1 0x0 PUSH1 0x20 DUP3 ADD SWAP1 POP PUSH2 0x130C PUSH1 0x0 DUP4 ADD DUP5 PUSH2 0x119C JUMP JUMPDEST SWAP3 SWAP2 POP POP JUMP JUMPDEST PUSH1 0x0 PUSH1 0x20 DUP3 ADD SWAP1 POP PUSH2 0x1327 PUSH1 0x0 DUP4 ADD DUP5 PUSH2 0x11AB JUMP JUMPDEST SWAP3 SWAP2 POP POP JUMP JUMPDEST PUSH1 0x0 DUP2 MLOAD SWAP1 POP SWAP2 SWAP1 POP JUMP JUMPDEST PUSH1 0x0 DUP3 DUP3 MSTORE PUSH1 0x20 DUP3 ADD SWAP1 POP SWAP3 SWAP2 POP POP JUMP JUMPDEST PUSH1 0x0 PUSH2 0x1354 DUP3 PUSH2 0x1442 JUMP JUMPDEST SWAP2 POP PUSH2 0x135F DUP4 PUSH2 0x1442 JUMP JUMPDEST SWAP3 POP DUP3 PUSH32 0xFFFFFFFFFFFFFFFFFFFFFFFFFFFFFFFFFFFFFFFFFFFFFFFFFFFFFFFFFFFFFFFF SUB DUP3 GT ISZERO PUSH2 0x1394 JUMPI PUSH2 0x1393 PUSH2 0x1530 JUMP JUMPDEST JUMPDEST DUP3 DUP3 ADD SWAP1 POP SWAP3 SWAP2 POP POP JUMP JUMPDEST PUSH1 0x0 PUSH2 0x13AA DUP3 PUSH2 0x1442 JUMP JUMPDEST SWAP2 POP PUSH2 0x13B5 DUP4 PUSH2 0x1442 JUMP JUMPDEST SWAP3 POP DUP3 PUSH2 0x13C5 JUMPI PUSH2 0x13C4 PUSH2 0x155F JUMP JUMPDEST JUMPDEST DUP3 DUP3 DIV SWAP1 POP SWAP3 SWAP2 POP POP JUMP JUMPDEST PUSH1 0x0 PUSH2 0x13DB DUP3 PUSH2 0x1442 JUMP JUMPDEST SWAP2 POP PUSH2 0x13E6 DUP4 PUSH2 0x1442 JUMP JUMPDEST SWAP3 POP DUP3 DUP3 LT ISZERO PUSH2 0x13F9 JUMPI PUSH2 0x13F8 PUSH2 0x1530 JUMP JUMPDEST JUMPDEST DUP3 DUP3 SUB SWAP1 POP SWAP3 SWAP2 POP POP JUMP JUMPDEST PUSH1 0x0 PUSH2 0x140F DUP3 PUSH2 0x1422 JUMP JUMPDEST SWAP1 POP SWAP2 SWAP1 POP JUMP JUMPDEST PUSH1 0x0 DUP2 ISZERO ISZERO SWAP1 POP SWAP2 SWAP1 POP JUMP JUMPDEST PUSH1 0x0 PUSH20 0xFFFFFFFFFFFFFFFFFFFFFFFFFFFFFFFFFFFFFFFF DUP3 AND SWAP1 POP SWAP2 SWAP1 POP JUMP JUMPDEST PUSH1 0x0 DUP2 SWAP1 POP SWAP2 SWAP1 POP JUMP JUMPDEST PUSH1 0x0 PUSH1 0xFF DUP3 AND SWAP1 POP SWAP2 SWAP1 POP JUMP JUMPDEST PUSH1 0x0 JUMPDEST DUP4 DUP2 LT ISZERO PUSH2 0x1477 JUMPI DUP1 DUP3 ADD MLOAD DUP2 DUP5 ADD MSTORE PUSH1 0x20 DUP2 ADD SWAP1 POP PUSH2 0x145C JUMP JUMPDEST DUP4 DUP2 GT ISZERO PUSH2 0x1486 JUMPI PUSH1 0x0 DUP5 DUP5 ADD MSTORE JUMPDEST POP POP POP POP JUMP JUMPDEST PUSH1 0x0 PUSH2 0x1497 DUP3 PUSH2 0x1442 JUMP JUMPDEST SWAP2 POP PUSH1 0x0 DUP3 EQ ISZERO PUSH2 0x14AB JUMPI PUSH2 0x14AA PUSH2 0x1530 JUMP JUMPDEST JUMPDEST PUSH1 0x1 DUP3 SUB SWAP1 POP SWAP2 SWAP1 POP JUMP JUMPDEST PUSH1 0x0 PUSH2 0x14C1 DUP3 PUSH2 0x1442 JUMP JUMPDEST SWAP2 POP PUSH32 0xFFFFFFFFFFFFFFFFFFFFFFFFFFFFFFFFFFFFFFFFFFFFFFFFFFFFFFFFFFFFFFFF DUP3 EQ ISZERO PUSH2 0x14F4 JUMPI PUSH2 0x14F3 PUSH2 0x1530 JUMP JUMPDEST JUMPDEST PUSH1 0x1 DUP3 ADD SWAP1 POP SWAP2 SWAP1 POP JUMP JUMPDEST PUSH1 0x0 PUSH2 0x150A DUP3 PUSH2 0x1442 JUMP JUMPDEST SWAP2 POP PUSH2 0x1515 DUP4 PUSH2 0x1442 JUMP JUMPDEST SWAP3 POP DUP3 PUSH2 0x1525 JUMPI PUSH2 0x1524 PUSH2 0x155F JUMP JUMPDEST JUMPDEST DUP3 DUP3 MOD SWAP1 POP SWAP3 SWAP2 POP POP JUMP JUMPDEST PUSH32 0x4E487B7100000000000000000000000000000000000000000000000000000000 PUSH1 0x0 MSTORE PUSH1 0x11 PUSH1 0x4 MSTORE PUSH1 0x24 PUSH1 0x0 REVERT JUMPDEST PUSH32 0x4E487B7100000000000000000000000000000000000000000000000000000000 PUSH1 0x0 MSTORE PUSH1 0x12 PUSH1 0x4 MSTORE PUSH1 0x24 PUSH1 0x0 REVERT JUMPDEST PUSH32 0x4E487B7100000000000000000000000000000000000000000000000000000000 PUSH1 0x0 MSTORE PUSH1 0x32 PUSH1 0x4 MSTORE PUSH1 0x24 PUSH1 0x0 REVERT JUMPDEST PUSH32 0x4E487B7100000000000000000000000000000000000000000000000000000000 PUSH1 0x0 MSTORE PUSH1 0x41 PUSH1 0x4 MSTORE PUSH1 0x24 PUSH1 0x0 REVERT JUMPDEST PUSH1 0x0 DUP1 REVERT JUMPDEST PUSH1 0x0 PUSH1 0x1F NOT PUSH1 0x1F DUP4 ADD AND SWAP1 POP SWAP2 SWAP1 POP JUMP JUMPDEST PUSH32 0x45524332303A207472616E7366657220746F20746865207A65726F2061646472 PUSH1 0x0 DUP3 ADD MSTORE PUSH32 0x6573730000000000000000000000000000000000000000000000000000000000 PUSH1 0x20 DUP3 ADD MSTORE POP JUMP JUMPDEST PUSH32 0x45524332303A20617070726F766520746F20746865207A65726F206164647265 PUSH1 0x0 DUP3 ADD MSTORE PUSH32 0x7373000000000000000000000000000000000000000000000000000000000000 PUSH1 0x20 DUP3 ADD MSTORE POP JUMP JUMPDEST PUSH32 0x45524332303A20617070726F766520616D6F756E742065786365656473206261 PUSH1 0x0 DUP3 ADD MSTORE PUSH32 0x6C616E6365000000000000000000000000000000000000000000000000000000 PUSH1 0x20 DUP3 ADD MSTORE POP JUMP JUMPDEST PUSH32 0x45524332303A207472616E7366657220616D6F756E7420657863656564732061 PUSH1 0x0 DUP3 ADD MSTORE PUSH32 0x6C6C6F77616E6365000000000000000000000000000000000000000000000000 PUSH1 0x20 DUP3 ADD MSTORE POP JUMP JUMPDEST PUSH32 0x4F776E61626C653A2063616C6C6572206973206E6F7420746865206F776E6572 PUSH1 0x0 DUP3 ADD MSTORE POP JUMP JUMPDEST PUSH32 0x4D696E74696E672069732064697361626C656400000000000000000000000000 PUSH1 0x0 DUP3 ADD MSTORE POP JUMP JUMPDEST PUSH32 0x45524332303A207472616E736665722066726F6D20746865207A65726F206164 PUSH1 0x0 DUP3 ADD MSTORE PUSH32 0x6472657373000000000000000000000000000000000000000000000000000000 PUSH1 0x20 DUP3 ADD MSTORE POP JUMP JUMPDEST PUSH32 0x45524332303A206D696E7420746F20746865207A65726F206164647265737300 PUSH1 0x0 DUP3 ADD MSTORE POP JUMP JUMPDEST PUSH2 0x1811 DUP2 PUSH2 0x1404 JUMP JUMPDEST DUP2 EQ PUSH2 0x181C JUMPI PUSH1 0x0 DUP1 REVERT JUMPDEST POP JUMP JUMPDEST PUSH2 0x1828 DUP2 PUSH2 0x1442 JUMP JUMPDEST DUP2 EQ PUSH2 0x1833 JUMPI PUSH1 0x0 DUP1 REVERT JUMPDEST POP JUMP INVALID LOG2 PUSH5 0x6970667358 0x22 SLT KECCAK256 SIGNEXTEND LOG2 CALL 0xE6 0xE 0xC6 PUSH24 0x323C1E615B606D7A7633BEDC7C2CA7D04589DCAF8AA7D84F ADDRESS PUSH5 0x736F6C6343 STOP ADDMOD SMOD STOP CALLER "
				},
				"gasEstimates": {
					"creation": {
						"codeDepositCost": "1250400",
						"executionCost": "54841",
						"totalCost": "1305241"
					},
					"external": {
						"_disable_mint()": "26601",
						"_mint(uint256)": "infinite",
						"allowance(address,address)": "infinite",
						"approve(address,uint256)": "infinite",
						"balanceOf(address)": "2885",
						"decimals()": "365",
						"totalSupply()": "2482",
						"transfer(address,uint256)": "infinite",
						"transferFrom(address,address,uint256)": "infinite"
					},
					"internal": {
						"uintToString(uint256)": "infinite"
					}
				},
				"methodIdentifiers": {
					"_disable_mint()": "13b4159c",
					"_mint(uint256)": "2c526196",
					"allowance(address,address)": "dd62ed3e",
					"approve(address,uint256)": "095ea7b3",
					"balanceOf(address)": "70a08231",
					"decimals()": "313ce567",
					"totalSupply()": "18160ddd",
					"transfer(address,uint256)": "a9059cbb",
					"transferFrom(address,address,uint256)": "23b872dd"
				}
			},
			"storageLayout": {
				"storage": [
					{
						"astId": 1491,
						"contract": "contracts/token.sol:HUSTToken",
						"label": "_owner",
						"offset": 0,
						"slot": "0",
						"type": "t_address"
					},
					{
						"astId": 704,
						"contract": "contracts/token.sol:HUSTToken",
						"label": "_totalSupply",
						"offset": 0,
						"slot": "1",
						"type": "t_uint256"
					},
					{
						"astId": 708,
						"contract": "contracts/token.sol:HUSTToken",
						"label": "_balances",
						"offset": 0,
						"slot": "2",
						"type": "t_mapping(t_address,t_uint256)"
					},
					{
						"astId": 714,
						"contract": "contracts/token.sol:HUSTToken",
						"label": "_allowances",
						"offset": 0,
						"slot": "3",
						"type": "t_mapping(t_address,t_mapping(t_address,t_uint256))"
					},
					{
						"astId": 717,
						"contract": "contracts/token.sol:HUSTToken",
						"label": "minting_disabled",
						"offset": 0,
						"slot": "4",
						"type": "t_bool"
					}
				],
				"types": {
					"t_address": {
						"encoding": "inplace",
						"label": "address",
						"numberOfBytes": "20"
					},
					"t_bool": {
						"encoding": "inplace",
						"label": "bool",
						"numberOfBytes": "1"
					},
					"t_mapping(t_address,t_mapping(t_address,t_uint256))": {
						"encoding": "mapping",
						"key": "t_address",
						"label": "mapping(address => mapping(address => uint256))",
						"numberOfBytes": "32",
						"value": "t_mapping(t_address,t_uint256)"
					},
					"t_mapping(t_address,t_uint256)": {
						"encoding": "mapping",
						"key": "t_address",
						"label": "mapping(address => uint256)",
						"numberOfBytes": "32",
						"value": "t_uint256"
					},
					"t_uint256": {
						"encoding": "inplace",
						"label": "uint256",
						"numberOfBytes": "32"
					}
				}
			},
			"userdoc": {
				"kind": "user",
				"methods": {
					"_disable_mint()": {
						"notice": "Disables the ability to mint tokens in the future. Requirements:  - only the owner of this contract can disable minting  - once you disable minting, you should never be able to mint ever again. never.  - you can change the inputs or the scope of your function, as needed"
					},
					"_mint(uint256)": {
						"notice": "Creates `amount` tokens, increasing the total supply. Emits a {Transfer} event with `from` set to the zero address (the \"Black Hole\"). Requirements:  - only the owner of this contract can mint new tokens  - the account who recieves the minted tokens cannot be the zero address  - you can change the inputs or the scope of your function, as needed"
					},
					"allowance(address,address)": {
						"notice": "Returns the remaining number of tokens that `spender` will be allowed to spend on behalf of `owner` through {transferFrom}.  This is zero by default.  This value changes when {approve} or {transferFrom} are called.  NOTE: This is a required override by OpenZeppelin's ERC20 contract.  Requirements:  - there are no requirements for this function  - you can change the inputs or the scope of your function, as needed"
					},
					"approve(address,uint256)": {
						"notice": "Sets `amount` as the allowance of `spender` over the caller's tokens.  Emits an {Approval} event.  NOTE: This is a required override by OpenZeppelin's ERC20 contract.  Requirements:  - `spender` cannot be the zero address  - the caller must have a balance of at least `amount`  - you can change the inputs or the scope of your function, as needed"
					},
					"balanceOf(address)": {
						"notice": "Returns the account balance of another account with address `owner`.  NOTE: This is a required override by OpenZeppelin's ERC20 contract.  Requirements:  - there are no requirements for this function  - you can change the inputs or the scope of your function, as needed"
					},
					"totalSupply()": {
						"notice": "Returns the total supply of the token.  NOTE: This is a required override by OpenZeppelin's ERC20 contract.  Requirements:  - there are no requirements for this function  - you can change the inputs or the scope of your function, as needed"
					},
					"transfer(address,uint256)": {
						"notice": "Transfers `amount` tokens from the caller's account to `recipient`.  NOTE: This is a required override by OpenZeppelin's ERC20 contract.  Emits a {Transfer} event.  Requirements:  - `recipient` cannot be the zero address  - the caller must have a balance of at least `amount`  - you can change the inputs or the scope of your function, as needed"
					},
					"transferFrom(address,address,uint256)": {
						"notice": "Moves `amount` tokens from `sender` to `recipient` using the allowance mechanism.  `amount` is then deducted from the caller's allowance.  Emits a {Transfer} event.  Requirements:  - `sender` and `recipient` cannot be the zero address  - `sender` must have a balance of at least `amount`  - the caller must have allowance for `sender`'s tokens of at least `amount`  - you can change the inputs or the scope of your function, as needed"
					}
				},
				"version": 1
			}
		}
	}
}