{
	"contracts/exchange.sol": {
		"TokenExchange": {
			"abi": [
				{
					"inputs": [],
					"stateMutability": "nonpayable",
					"type": "constructor"
				},
				{
					"anonymous": false,
					"inputs": [
						{
							"indexed": false,
							"internalType": "address",
							"name": "from",
							"type": "address"
						},
						{
							"indexed": false,
							"internalType": "uint256",
							"name": "amount",
							"type": "uint256"
						}
					],
					"name": "AddLiquidity",
					"type": "event"
				},
				{
					"anonymous": false,
					"inputs": [
						{
							"indexed": false,
							"internalType": "address",
							"name": "to",
							"type": "address"
						},
						{
							"indexed": false,
							"internalType": "uint256",
							"name": "amount",
							"type": "uint256"
						}
					],
					"name": "RemoveLiquidity",
					"type": "event"
				},
				{
					"inputs": [],
					"name": "addLiquidity",
					"outputs": [],
					"stateMutability": "payable",
					"type": "function"
				},
				{
					"inputs": [],
					"name": "admin",
					"outputs": [
						{
							"internalType": "address",
							"name": "",
							"type": "address"
						}
					],
					"stateMutability": "view",
					"type": "function"
				},
				{
					"inputs": [
						{
							"internalType": "uint256",
							"name": "amountETH",
							"type": "uint256"
						}
					],
					"name": "amountETHGivenToken",
					"outputs": [
						{
							"internalType": "uint256",
							"name": "",
							"type": "uint256"
						}
					],
					"stateMutability": "view",
					"type": "function"
				},
				{
					"inputs": [
						{
							"internalType": "uint256",
							"name": "amountToken",
							"type": "uint256"
						}
					],
					"name": "amountTokenGivenETH",
					"outputs": [
						{
							"internalType": "uint256",
							"name": "",
							"type": "uint256"
						}
					],
					"stateMutability": "view",
					"type": "function"
				},
				{
					"inputs": [
						{
							"internalType": "uint256",
							"name": "amountTokens",
							"type": "uint256"
						}
					],
					"name": "createPool",
					"outputs": [],
					"stateMutability": "payable",
					"type": "function"
				},
				{
					"inputs": [],
					"name": "eth_reserves",
					"outputs": [
						{
							"internalType": "uint256",
							"name": "",
							"type": "uint256"
						}
					],
					"stateMutability": "view",
					"type": "function"
				},
				{
					"inputs": [
						{
							"internalType": "uint256",
							"name": "amountTokens",
							"type": "uint256"
						}
					],
					"name": "getEthAmountForTokenSwap",
					"outputs": [
						{
							"internalType": "uint256",
							"name": "",
							"type": "uint256"
						}
					],
					"stateMutability": "view",
					"type": "function"
				},
				{
					"inputs": [
						{
							"internalType": "uint256",
							"name": "ethAmount",
							"type": "uint256"
						}
					],
					"name": "getTokenAmountForEthSwap",
					"outputs": [
						{
							"internalType": "uint256",
							"name": "",
							"type": "uint256"
						}
					],
					"stateMutability": "view",
					"type": "function"
				},
				{
					"inputs": [],
					"name": "k",
					"outputs": [
						{
							"internalType": "uint256",
							"name": "",
							"type": "uint256"
						}
					],
					"stateMutability": "view",
					"type": "function"
				},
				{
					"inputs": [],
					"name": "priceETH",
					"outputs": [
						{
							"internalType": "uint256",
							"name": "",
							"type": "uint256"
						}
					],
					"stateMutability": "view",
					"type": "function"
				},
				{
					"inputs": [],
					"name": "priceToken",
					"outputs": [
						{
							"internalType": "uint256",
							"name": "",
							"type": "uint256"
						}
					],
					"stateMutability": "view",
					"type": "function"
				},
				{
					"inputs": [],
					"name": "removeAllLiquidity",
					"outputs": [],
					"stateMutability": "payable",
					"type": "function"
				},
				{
					"inputs": [
						{
							"internalType": "uint256",
							"name": "eth_amount",
							"type": "uint256"
						}
					],
					"name": "removeLiquidity",
					"outputs": [],
					"stateMutability": "payable",
					"type": "function"
				},
				{
					"inputs": [],
					"name": "swapETHForTokens",
					"outputs": [],
					"stateMutability": "payable",
					"type": "function"
				},
				{
					"inputs": [
						{
							"internalType": "uint256",
							"name": "amountTokens",
							"type": "uint256"
						}
					],
					"name": "swapTokensForETH",
					"outputs": [],
					"stateMutability": "payable",
					"type": "function"
				},
				{
					"inputs": [],
					"name": "token_reserves",
					"outputs": [
						{
							"internalType": "uint256",
							"name": "",
							"type": "uint256"
						}
					],
					"stateMutability": "view",
					"type": "function"
				},
				{
					"inputs": [
						{
							"internalType": "address",
							"name": "",
							"type": "address"
						}
					],
					"name": "userLiquidity",
					"outputs": [
						{
							"internalType": "uint256",
							"name": "",
							"type": "uint256"
						}
					],
					"stateMutability": "view",
					"type": "function"
				}
			],
			"devdoc": {
				"kind": "dev",
				"methods": {},
				"version": 1
			},
			"evm": {
				"assembly": "    /* \"contracts/exchange.sol\":630:18766  contract TokenExchange is Ownable {... */\n  mstore(0x40, 0x80)\n    /* \"contracts/exchange.sol\":752:794  0xe37d084C11dCc41204F5645b1274757F4044A4ef */\n  0xe37d084c11dcc41204f5645b1274757f4044a4ef\n    /* \"contracts/exchange.sol\":732:794  address tokenAddr = 0xe37d084C11dCc41204F5645b1274757F4044A4ef */\n  0x02\n  exp(0x0100, 0x00)\n  dup2\n  sload\n  dup2\n  0xffffffffffffffffffffffffffffffffffffffff\n  mul\n  not\n  and\n  swap1\n  dup4\n  0xffffffffffffffffffffffffffffffffffffffff\n  and\n  mul\n  or\n  swap1\n  sstore\n  pop\n    /* \"contracts/exchange.sol\":880:889  tokenAddr */\n  0x02\n  0x00\n  swap1\n  sload\n  swap1\n  0x0100\n  exp\n  swap1\n  div\n  0xffffffffffffffffffffffffffffffffffffffff\n  and\n    /* \"contracts/exchange.sol\":844:890  HUSTToken private token = HUSTToken(tokenAddr) */\n  0x03\n  exp(0x0100, 0x00)\n  dup2\n  sload\n  dup2\n  0xffffffffffffffffffffffffffffffffffffffff\n  mul\n  not\n  and\n  swap1\n  dup4\n  0xffffffffffffffffffffffffffffffffffffffff\n  and\n  mul\n  or\n  swap1\n  sstore\n  pop\n    /* \"contracts/exchange.sol\":1013:1014  0 */\n  0x00\n    /* \"contracts/exchange.sol\":984:1014  uint public token_reserves = 0 */\n  0x04\n  sstore\n    /* \"contracts/exchange.sol\":1047:1048  0 */\n  0x00\n    /* \"contracts/exchange.sol\":1020:1048  uint public eth_reserves = 0 */\n  0x05\n  sstore\n    /* \"contracts/exchange.sol\":1161:1162  0 */\n  0x00\n    /* \"contracts/exchange.sol\":1127:1162  uint private swap_fee_numerator = 0 */\n  0x07\n  sstore\n    /* \"contracts/exchange.sol\":1254:1257  100 */\n  0x64\n    /* \"contracts/exchange.sol\":1218:1257  uint private swap_fee_denominator = 100 */\n  0x08\n  sstore\n    /* \"contracts/exchange.sol\":1423:1472  constructor() {... */\n  callvalue\n  dup1\n  iszero\n  tag_1\n  jumpi\n  0x00\n  dup1\n  revert\ntag_1:\n  pop\n    /* \"libraries/ownable.sol\":884:894  msg.sender */\n  caller\n    /* \"libraries/ownable.sol\":875:881  _owner */\n  0x00\n  dup1\n    /* \"libraries/ownable.sol\":875:894  _owner = msg.sender */\n  0x0100\n  exp\n  dup2\n  sload\n  dup2\n  0xffffffffffffffffffffffffffffffffffffffff\n  mul\n  not\n  and\n  swap1\n  dup4\n  0xffffffffffffffffffffffffffffffffffffffff\n  and\n  mul\n  or\n  swap1\n  sstore\n  pop\n    /* \"contracts/exchange.sol\":1455:1465  msg.sender */\n  caller\n    /* \"contracts/exchange.sol\":1447:1452  admin */\n  0x01\n  0x00\n    /* \"contracts/exchange.sol\":1447:1465  admin = msg.sender */\n  0x0100\n  exp\n  dup2\n  sload\n  dup2\n  0xffffffffffffffffffffffffffffffffffffffff\n  mul\n  not\n  and\n  swap1\n  dup4\n  0xffffffffffffffffffffffffffffffffffffffff\n  and\n  mul\n  or\n  swap1\n  sstore\n  pop\n    /* \"contracts/exchange.sol\":630:18766  contract TokenExchange is Ownable {... */\n  dataSize(sub_0)\n  dup1\n  dataOffset(sub_0)\n  0x00\n  codecopy\n  0x00\n  return\nstop\n\nsub_0: assembly {\n        /* \"contracts/exchange.sol\":630:18766  contract TokenExchange is Ownable {... */\n      mstore(0x40, 0x80)\n      jumpi(tag_1, lt(calldatasize, 0x04))\n      shr(0xe0, calldataload(0x00))\n      dup1\n      0x9c8f9f23\n      gt\n      tag_19\n      jumpi\n      dup1\n      0xd592cbf6\n      gt\n      tag_20\n      jumpi\n      dup1\n      0xd592cbf6\n      eq\n      tag_14\n      jumpi\n      dup1\n      0xe56a645e\n      eq\n      tag_15\n      jumpi\n      dup1\n      0xe8078d94\n      eq\n      tag_16\n      jumpi\n      dup1\n      0xeeddd4f6\n      eq\n      tag_17\n      jumpi\n      dup1\n      0xf851a440\n      eq\n      tag_18\n      jumpi\n      jump(tag_1)\n    tag_20:\n      dup1\n      0x9c8f9f23\n      eq\n      tag_10\n      jumpi\n      dup1\n      0xb4f40c61\n      eq\n      tag_11\n      jumpi\n      dup1\n      0xba4c28c3\n      eq\n      tag_12\n      jumpi\n      dup1\n      0xc38ad273\n      eq\n      tag_13\n      jumpi\n      jump(tag_1)\n    tag_19:\n      dup1\n      0x8259e6a0\n      gt\n      tag_21\n      jumpi\n      dup1\n      0x8259e6a0\n      eq\n      tag_6\n      jumpi\n      dup1\n      0x88a780e5\n      eq\n      tag_7\n      jumpi\n      dup1\n      0x97ba499f\n      eq\n      tag_8\n      jumpi\n      dup1\n      0x9adb3b97\n      eq\n      tag_9\n      jumpi\n      jump(tag_1)\n    tag_21:\n      dup1\n      0x156ac5ca\n      eq\n      tag_2\n      jumpi\n      dup1\n      0x2ff6fe76\n      eq\n      tag_3\n      jumpi\n      dup1\n      0x33aafe15\n      eq\n      tag_4\n      jumpi\n      dup1\n      0x58cd35db\n      eq\n      tag_5\n      jumpi\n    tag_1:\n      0x00\n      dup1\n      revert\n        /* \"contracts/exchange.sol\":3115:3375  function amountTokenGivenETH(uint amountToken) public view returns (uint) {... */\n    tag_2:\n      callvalue\n      dup1\n      iszero\n      tag_22\n      jumpi\n      0x00\n      dup1\n      revert\n    tag_22:\n      pop\n      tag_23\n      0x04\n      dup1\n      calldatasize\n      sub\n      dup2\n      add\n      swap1\n      tag_24\n      swap2\n      swap1\n      tag_25\n      jump\t// in\n    tag_24:\n      tag_26\n      jump\t// in\n    tag_23:\n      mload(0x40)\n      tag_27\n      swap2\n      swap1\n      tag_28\n      jump\t// in\n    tag_27:\n      mload(0x40)\n      dup1\n      swap2\n      sub\n      swap1\n      return\n        /* \"contracts/exchange.sol\":18436:18600  function priceToken() public view returns (uint) {... */\n    tag_3:\n      callvalue\n      dup1\n      iszero\n      tag_29\n      jumpi\n      0x00\n      dup1\n      revert\n    tag_29:\n      pop\n      tag_30\n      tag_31\n      jump\t// in\n    tag_30:\n      mload(0x40)\n      tag_32\n      swap2\n      swap1\n      tag_28\n      jump\t// in\n    tag_32:\n      mload(0x40)\n      dup1\n      swap2\n      sub\n      swap1\n      return\n        /* \"contracts/exchange.sol\":15734:16604  function getTokenAmountForEthSwap(uint256 ethAmount) public view returns (uint256) {... */\n    tag_4:\n      callvalue\n      dup1\n      iszero\n      tag_33\n      jumpi\n      0x00\n      dup1\n      revert\n    tag_33:\n      pop\n      tag_34\n      0x04\n      dup1\n      calldatasize\n      sub\n      dup2\n      add\n      swap1\n      tag_35\n      swap2\n      swap1\n      tag_25\n      jump\t// in\n    tag_35:\n      tag_36\n      jump\t// in\n    tag_34:\n      mload(0x40)\n      tag_37\n      swap2\n      swap1\n      tag_28\n      jump\t// in\n    tag_37:\n      mload(0x40)\n      dup1\n      swap2\n      sub\n      swap1\n      return\n        /* \"contracts/exchange.sol\":16610:17468  function getEthAmountForTokenSwap(uint amountTokens) public view returns (uint256) {... */\n    tag_5:\n      callvalue\n      dup1\n      iszero\n      tag_38\n      jumpi\n      0x00\n      dup1\n      revert\n    tag_38:\n      pop\n      tag_39\n      0x04\n      dup1\n      calldatasize\n      sub\n      dup2\n      add\n      swap1\n      tag_40\n      swap2\n      swap1\n      tag_25\n      jump\t// in\n    tag_40:\n      tag_41\n      jump\t// in\n    tag_39:\n      mload(0x40)\n      tag_42\n      swap2\n      swap1\n      tag_28\n      jump\t// in\n    tag_42:\n      mload(0x40)\n      dup1\n      swap2\n      sub\n      swap1\n      return\n        /* \"contracts/exchange.sol\":1924:2702  function createPool(uint amountTokens) external payable onlyOwner {... */\n    tag_6:\n      tag_43\n      0x04\n      dup1\n      calldatasize\n      sub\n      dup2\n      add\n      swap1\n      tag_44\n      swap2\n      swap1\n      tag_25\n      jump\t// in\n    tag_44:\n      tag_45\n      jump\t// in\n    tag_43:\n      stop\n        /* \"contracts/exchange.sol\":8743:10511  function removeAllLiquidity() external payable {... */\n    tag_7:\n      tag_46\n      tag_47\n      jump\t// in\n    tag_46:\n      stop\n        /* \"contracts/exchange.sol\":1020:1048  uint public eth_reserves = 0 */\n    tag_8:\n      callvalue\n      dup1\n      iszero\n      tag_48\n      jumpi\n      0x00\n      dup1\n      revert\n    tag_48:\n      pop\n      tag_49\n      tag_50\n      jump\t// in\n    tag_49:\n      mload(0x40)\n      tag_51\n      swap2\n      swap1\n      tag_28\n      jump\t// in\n    tag_51:\n      mload(0x40)\n      dup1\n      swap2\n      sub\n      swap1\n      return\n        /* \"contracts/exchange.sol\":984:1014  uint public token_reserves = 0 */\n    tag_9:\n      callvalue\n      dup1\n      iszero\n      tag_52\n      jumpi\n      0x00\n      dup1\n      revert\n    tag_52:\n      pop\n      tag_53\n      tag_54\n      jump\t// in\n    tag_53:\n      mload(0x40)\n      tag_55\n      swap2\n      swap1\n      tag_28\n      jump\t// in\n    tag_55:\n      mload(0x40)\n      dup1\n      swap2\n      sub\n      swap1\n      return\n        /* \"contracts/exchange.sol\":6690:8376  function removeLiquidity(uint256 eth_amount) public payable {... */\n    tag_10:\n      tag_56\n      0x04\n      dup1\n      calldatasize\n      sub\n      dup2\n      add\n      swap1\n      tag_57\n      swap2\n      swap1\n      tag_25\n      jump\t// in\n    tag_57:\n      tag_58\n      jump\t// in\n    tag_56:\n      stop\n        /* \"contracts/exchange.sol\":1082:1095  uint public k */\n    tag_11:\n      callvalue\n      dup1\n      iszero\n      tag_59\n      jumpi\n      0x00\n      dup1\n      revert\n    tag_59:\n      pop\n      tag_60\n      tag_61\n      jump\t// in\n    tag_60:\n      mload(0x40)\n      tag_62\n      swap2\n      swap1\n      tag_28\n      jump\t// in\n    tag_62:\n      mload(0x40)\n      dup1\n      swap2\n      sub\n      swap1\n      return\n        /* \"contracts/exchange.sol\":1368:1416  mapping(address => uint256) public userLiquidity */\n    tag_12:\n      callvalue\n      dup1\n      iszero\n      tag_63\n      jumpi\n      0x00\n      dup1\n      revert\n    tag_63:\n      pop\n      tag_64\n      0x04\n      dup1\n      calldatasize\n      sub\n      dup2\n      add\n      swap1\n      tag_65\n      swap2\n      swap1\n      tag_66\n      jump\t// in\n    tag_65:\n      tag_67\n      jump\t// in\n    tag_64:\n      mload(0x40)\n      tag_68\n      swap2\n      swap1\n      tag_28\n      jump\t// in\n    tag_68:\n      mload(0x40)\n      dup1\n      swap2\n      sub\n      swap1\n      return\n        /* \"contracts/exchange.sol\":18606:18763  function priceETH() public view returns (uint) {... */\n    tag_13:\n      callvalue\n      dup1\n      iszero\n      tag_69\n      jumpi\n      0x00\n      dup1\n      revert\n    tag_69:\n      pop\n      tag_70\n      tag_71\n      jump\t// in\n    tag_70:\n      mload(0x40)\n      tag_72\n      swap2\n      swap1\n      tag_28\n      jump\t// in\n    tag_72:\n      mload(0x40)\n      dup1\n      swap2\n      sub\n      swap1\n      return\n        /* \"contracts/exchange.sol\":14160:15728  function swapETHForTokens() external payable {... */\n    tag_14:\n      tag_73\n      tag_74\n      jump\t// in\n    tag_73:\n      stop\n        /* \"contracts/exchange.sol\":11570:13322  function swapTokensForETH(uint amountTokens) external payable {... */\n    tag_15:\n      tag_75\n      0x04\n      dup1\n      calldatasize\n      sub\n      dup2\n      add\n      swap1\n      tag_76\n      swap2\n      swap1\n      tag_25\n      jump\t// in\n    tag_76:\n      tag_77\n      jump\t// in\n    tag_75:\n      stop\n        /* \"contracts/exchange.sol\":4509:6123  function addLiquidity() external payable {... */\n    tag_16:\n      tag_78\n      tag_79\n      jump\t// in\n    tag_78:\n      stop\n        /* \"contracts/exchange.sol\":3602:3870  function amountETHGivenToken(uint amountETH) public view returns (uint) {... */\n    tag_17:\n      callvalue\n      dup1\n      iszero\n      tag_80\n      jumpi\n      0x00\n      dup1\n      revert\n    tag_80:\n      pop\n      tag_81\n      0x04\n      dup1\n      calldatasize\n      sub\n      dup2\n      add\n      swap1\n      tag_82\n      swap2\n      swap1\n      tag_25\n      jump\t// in\n    tag_82:\n      tag_83\n      jump\t// in\n    tag_81:\n      mload(0x40)\n      tag_84\n      swap2\n      swap1\n      tag_28\n      jump\t// in\n    tag_84:\n      mload(0x40)\n      dup1\n      swap2\n      sub\n      swap1\n      return\n        /* \"contracts/exchange.sol\":705:725  address public admin */\n    tag_18:\n      callvalue\n      dup1\n      iszero\n      tag_85\n      jumpi\n      0x00\n      dup1\n      revert\n    tag_85:\n      pop\n      tag_86\n      tag_87\n      jump\t// in\n    tag_86:\n      mload(0x40)\n      tag_88\n      swap2\n      swap1\n      tag_89\n      jump\t// in\n    tag_88:\n      mload(0x40)\n      dup1\n      swap2\n      sub\n      swap1\n      return\n        /* \"contracts/exchange.sol\":3115:3375  function amountTokenGivenETH(uint amountToken) public view returns (uint) {... */\n    tag_26:\n        /* \"contracts/exchange.sol\":3183:3187  uint */\n      0x00\n        /* \"contracts/exchange.sol\":3115:3375  function amountTokenGivenETH(uint amountToken) public view returns (uint) {... */\n      swap2\n      swap1\n      pop\n      jump\t// out\n        /* \"contracts/exchange.sol\":18436:18600  function priceToken() public view returns (uint) {... */\n    tag_31:\n        /* \"contracts/exchange.sol\":18479:18483  uint */\n      0x00\n        /* \"contracts/exchange.sol\":18520:18521  0 */\n      dup1\n        /* \"contracts/exchange.sol\":18503:18517  token_reserves */\n      sload(0x04)\n        /* \"contracts/exchange.sol\":18503:18521  token_reserves > 0 */\n      gt\n        /* \"contracts/exchange.sol\":18495:18547  require(token_reserves > 0, \"No tokens in reserves\") */\n      tag_92\n      jumpi\n      mload(0x40)\n      0x08c379a000000000000000000000000000000000000000000000000000000000\n      dup2\n      mstore\n      0x04\n      add\n      tag_93\n      swap1\n      tag_94\n      jump\t// in\n    tag_93:\n      mload(0x40)\n      dup1\n      swap2\n      sub\n      swap1\n      revert\n    tag_92:\n        /* \"contracts/exchange.sol\":18581:18593  eth_reserves */\n      sload(0x05)\n        /* \"contracts/exchange.sol\":18564:18578  token_reserves */\n      sload(0x04)\n        /* \"contracts/exchange.sol\":18564:18593  token_reserves / eth_reserves */\n      tag_95\n      swap2\n      swap1\n      tag_96\n      jump\t// in\n    tag_95:\n        /* \"contracts/exchange.sol\":18557:18593  return token_reserves / eth_reserves */\n      swap1\n      pop\n        /* \"contracts/exchange.sol\":18436:18600  function priceToken() public view returns (uint) {... */\n      swap1\n      jump\t// out\n        /* \"contracts/exchange.sol\":15734:16604  function getTokenAmountForEthSwap(uint256 ethAmount) public view returns (uint256) {... */\n    tag_36:\n        /* \"contracts/exchange.sol\":15808:15815  uint256 */\n      0x00\n        /* \"contracts/exchange.sol\":15901:15902  0 */\n      dup1\n        /* \"contracts/exchange.sol\":15884:15898  token_reserves */\n      sload(0x04)\n        /* \"contracts/exchange.sol\":15884:15902  token_reserves > 0 */\n      gt\n        /* \"contracts/exchange.sol\":15884:15922  token_reserves > 0 && eth_reserves > 0 */\n      dup1\n      iszero\n      tag_98\n      jumpi\n      pop\n        /* \"contracts/exchange.sol\":15921:15922  0 */\n      0x00\n        /* \"contracts/exchange.sol\":15906:15918  eth_reserves */\n      sload(0x05)\n        /* \"contracts/exchange.sol\":15906:15922  eth_reserves > 0 */\n      gt\n        /* \"contracts/exchange.sol\":15884:15922  token_reserves > 0 && eth_reserves > 0 */\n    tag_98:\n        /* \"contracts/exchange.sol\":15876:15945  require(token_reserves > 0 && eth_reserves > 0, \"Reserves are empty\") */\n      tag_99\n      jumpi\n      mload(0x40)\n      0x08c379a000000000000000000000000000000000000000000000000000000000\n      dup2\n      mstore\n      0x04\n      add\n      tag_100\n      swap1\n      tag_101\n      jump\t// in\n    tag_100:\n      mload(0x40)\n      dup1\n      swap2\n      sub\n      swap1\n      revert\n    tag_99:\n        /* \"contracts/exchange.sol\":16013:16035  uint256 newEthReserves */\n      0x00\n        /* \"contracts/exchange.sol\":16053:16062  ethAmount */\n      dup3\n        /* \"contracts/exchange.sol\":16038:16050  eth_reserves */\n      sload(0x05)\n        /* \"contracts/exchange.sol\":16038:16062  eth_reserves + ethAmount */\n      tag_102\n      swap2\n      swap1\n      tag_103\n      jump\t// in\n    tag_102:\n        /* \"contracts/exchange.sol\":16013:16062  uint256 newEthReserves = eth_reserves + ethAmount */\n      swap1\n      pop\n        /* \"contracts/exchange.sol\":16197:16221  uint256 newTokenReserves */\n      0x00\n        /* \"contracts/exchange.sol\":16228:16242  newEthReserves */\n      dup2\n        /* \"contracts/exchange.sol\":16224:16225  k */\n      sload(0x06)\n        /* \"contracts/exchange.sol\":16224:16242  k / newEthReserves */\n      tag_104\n      swap2\n      swap1\n      tag_96\n      jump\t// in\n    tag_104:\n        /* \"contracts/exchange.sol\":16197:16242  uint256 newTokenReserves = k / newEthReserves */\n      swap1\n      pop\n        /* \"contracts/exchange.sol\":16367:16381  token_reserves */\n      sload(0x04)\n        /* \"contracts/exchange.sol\":16348:16364  newTokenReserves */\n      dup2\n        /* \"contracts/exchange.sol\":16348:16381  newTokenReserves < token_reserves */\n      lt\n        /* \"contracts/exchange.sol\":16340:16398  require(newTokenReserves < token_reserves, \"Invalid swap\") */\n      tag_105\n      jumpi\n      mload(0x40)\n      0x08c379a000000000000000000000000000000000000000000000000000000000\n      dup2\n      mstore\n      0x04\n      add\n      tag_106\n      swap1\n      tag_107\n      jump\t// in\n    tag_106:\n      mload(0x40)\n      dup1\n      swap2\n      sub\n      swap1\n      revert\n    tag_105:\n        /* \"contracts/exchange.sol\":16507:16529  uint256 tokensReceived */\n      0x00\n        /* \"contracts/exchange.sol\":16549:16565  newTokenReserves */\n      dup2\n        /* \"contracts/exchange.sol\":16532:16546  token_reserves */\n      sload(0x04)\n        /* \"contracts/exchange.sol\":16532:16565  token_reserves - newTokenReserves */\n      tag_108\n      swap2\n      swap1\n      tag_109\n      jump\t// in\n    tag_108:\n        /* \"contracts/exchange.sol\":16507:16565  uint256 tokensReceived = token_reserves - newTokenReserves */\n      swap1\n      pop\n        /* \"contracts/exchange.sol\":16583:16597  tokensReceived */\n      dup1\n        /* \"contracts/exchange.sol\":16576:16597  return tokensReceived */\n      swap4\n      pop\n      pop\n      pop\n      pop\n        /* \"contracts/exchange.sol\":15734:16604  function getTokenAmountForEthSwap(uint256 ethAmount) public view returns (uint256) {... */\n      swap2\n      swap1\n      pop\n      jump\t// out\n        /* \"contracts/exchange.sol\":16610:17468  function getEthAmountForTokenSwap(uint amountTokens) public view returns (uint256) {... */\n    tag_41:\n        /* \"contracts/exchange.sol\":16684:16691  uint256 */\n      0x00\n        /* \"contracts/exchange.sol\":16777:16778  0 */\n      dup1\n        /* \"contracts/exchange.sol\":16760:16774  token_reserves */\n      sload(0x04)\n        /* \"contracts/exchange.sol\":16760:16778  token_reserves > 0 */\n      gt\n        /* \"contracts/exchange.sol\":16760:16798  token_reserves > 0 && eth_reserves > 0 */\n      dup1\n      iszero\n      tag_111\n      jumpi\n      pop\n        /* \"contracts/exchange.sol\":16797:16798  0 */\n      0x00\n        /* \"contracts/exchange.sol\":16782:16794  eth_reserves */\n      sload(0x05)\n        /* \"contracts/exchange.sol\":16782:16798  eth_reserves > 0 */\n      gt\n        /* \"contracts/exchange.sol\":16760:16798  token_reserves > 0 && eth_reserves > 0 */\n    tag_111:\n        /* \"contracts/exchange.sol\":16752:16821  require(token_reserves > 0 && eth_reserves > 0, \"Reserves are empty\") */\n      tag_112\n      jumpi\n      mload(0x40)\n      0x08c379a000000000000000000000000000000000000000000000000000000000\n      dup2\n      mstore\n      0x04\n      add\n      tag_113\n      swap1\n      tag_101\n      jump\t// in\n    tag_113:\n      mload(0x40)\n      dup1\n      swap2\n      sub\n      swap1\n      revert\n    tag_112:\n        /* \"contracts/exchange.sol\":16891:16915  uint256 newTokenReserves */\n      0x00\n        /* \"contracts/exchange.sol\":16935:16947  amountTokens */\n      dup3\n        /* \"contracts/exchange.sol\":16918:16932  token_reserves */\n      sload(0x04)\n        /* \"contracts/exchange.sol\":16918:16947  token_reserves + amountTokens */\n      tag_114\n      swap2\n      swap1\n      tag_103\n      jump\t// in\n    tag_114:\n        /* \"contracts/exchange.sol\":16891:16947  uint256 newTokenReserves = token_reserves + amountTokens */\n      swap1\n      pop\n        /* \"contracts/exchange.sol\":17080:17102  uint256 newEthReserves */\n      0x00\n        /* \"contracts/exchange.sol\":17109:17125  newTokenReserves */\n      dup2\n        /* \"contracts/exchange.sol\":17105:17106  k */\n      sload(0x06)\n        /* \"contracts/exchange.sol\":17105:17125  k / newTokenReserves */\n      tag_115\n      swap2\n      swap1\n      tag_96\n      jump\t// in\n    tag_115:\n        /* \"contracts/exchange.sol\":17080:17125  uint256 newEthReserves = k / newTokenReserves */\n      swap1\n      pop\n        /* \"contracts/exchange.sol\":17248:17260  eth_reserves */\n      sload(0x05)\n        /* \"contracts/exchange.sol\":17231:17245  newEthReserves */\n      dup2\n        /* \"contracts/exchange.sol\":17231:17260  newEthReserves < eth_reserves */\n      lt\n        /* \"contracts/exchange.sol\":17223:17277  require(newEthReserves < eth_reserves, \"Invalid swap\") */\n      tag_116\n      jumpi\n      mload(0x40)\n      0x08c379a000000000000000000000000000000000000000000000000000000000\n      dup2\n      mstore\n      0x04\n      add\n      tag_117\n      swap1\n      tag_107\n      jump\t// in\n    tag_117:\n      mload(0x40)\n      dup1\n      swap2\n      sub\n      swap1\n      revert\n    tag_116:\n        /* \"contracts/exchange.sol\":17381:17400  uint256 ethReceived */\n      0x00\n        /* \"contracts/exchange.sol\":17418:17432  newEthReserves */\n      dup2\n        /* \"contracts/exchange.sol\":17403:17415  eth_reserves */\n      sload(0x05)\n        /* \"contracts/exchange.sol\":17403:17432  eth_reserves - newEthReserves */\n      tag_118\n      swap2\n      swap1\n      tag_109\n      jump\t// in\n    tag_118:\n        /* \"contracts/exchange.sol\":17381:17432  uint256 ethReceived = eth_reserves - newEthReserves */\n      swap1\n      pop\n        /* \"contracts/exchange.sol\":17450:17461  ethReceived */\n      dup1\n        /* \"contracts/exchange.sol\":17443:17461  return ethReceived */\n      swap4\n      pop\n      pop\n      pop\n      pop\n        /* \"contracts/exchange.sol\":16610:17468  function getEthAmountForTokenSwap(uint amountTokens) public view returns (uint256) {... */\n      swap2\n      swap1\n      pop\n      jump\t// out\n        /* \"contracts/exchange.sol\":1924:2702  function createPool(uint amountTokens) external payable onlyOwner {... */\n    tag_45:\n        /* \"libraries/ownable.sol\":1033:1043  msg.sender */\n      caller\n        /* \"libraries/ownable.sol\":1023:1043  _owner == msg.sender */\n      0xffffffffffffffffffffffffffffffffffffffff\n      and\n        /* \"libraries/ownable.sol\":1023:1029  _owner */\n      0x00\n      dup1\n      sload\n      swap1\n      0x0100\n      exp\n      swap1\n      div\n      0xffffffffffffffffffffffffffffffffffffffff\n      and\n        /* \"libraries/ownable.sol\":1023:1043  _owner == msg.sender */\n      0xffffffffffffffffffffffffffffffffffffffff\n      and\n      eq\n        /* \"libraries/ownable.sol\":1015:1080  require(_owner == msg.sender, \"Ownable: caller is not the owner\") */\n      tag_120\n      jumpi\n      mload(0x40)\n      0x08c379a000000000000000000000000000000000000000000000000000000000\n      dup2\n      mstore\n      0x04\n      add\n      tag_121\n      swap1\n      tag_122\n      jump\t// in\n    tag_121:\n      mload(0x40)\n      dup1\n      swap2\n      sub\n      swap1\n      revert\n    tag_120:\n        /* \"contracts/exchange.sol\":2145:2146  0 */\n      0x00\n        /* \"contracts/exchange.sol\":2127:2141  token_reserves */\n      sload(0x04)\n        /* \"contracts/exchange.sol\":2127:2146  token_reserves == 0 */\n      eq\n        /* \"contracts/exchange.sol\":2119:2175  require(token_reserves == 0, \"Token reserves was not 0\") */\n      tag_124\n      jumpi\n      mload(0x40)\n      0x08c379a000000000000000000000000000000000000000000000000000000000\n      dup2\n      mstore\n      0x04\n      add\n      tag_125\n      swap1\n      tag_126\n      jump\t// in\n    tag_125:\n      mload(0x40)\n      dup1\n      swap2\n      sub\n      swap1\n      revert\n    tag_124:\n        /* \"contracts/exchange.sol\":2209:2210  0 */\n      0x00\n        /* \"contracts/exchange.sol\":2193:2205  eth_reserves */\n      sload(0x05)\n        /* \"contracts/exchange.sol\":2193:2210  eth_reserves == 0 */\n      eq\n        /* \"contracts/exchange.sol\":2185:2238  require(eth_reserves == 0, \"ETH reserves was not 0.\") */\n      tag_127\n      jumpi\n      mload(0x40)\n      0x08c379a000000000000000000000000000000000000000000000000000000000\n      dup2\n      mstore\n      0x04\n      add\n      tag_128\n      swap1\n      tag_129\n      jump\t// in\n    tag_128:\n      mload(0x40)\n      dup1\n      swap2\n      sub\n      swap1\n      revert\n    tag_127:\n        /* \"contracts/exchange.sol\":2313:2314  0 */\n      0x00\n        /* \"contracts/exchange.sol\":2301:2310  msg.value */\n      callvalue\n        /* \"contracts/exchange.sol\":2301:2314  msg.value > 0 */\n      gt\n        /* \"contracts/exchange.sol\":2293:2343  require(msg.value > 0, \"Need ETH to create pool.\") */\n      tag_130\n      jumpi\n      mload(0x40)\n      0x08c379a000000000000000000000000000000000000000000000000000000000\n      dup2\n      mstore\n      0x04\n      add\n      tag_131\n      swap1\n      tag_132\n      jump\t// in\n    tag_131:\n      mload(0x40)\n      dup1\n      swap2\n      sub\n      swap1\n      revert\n    tag_130:\n        /* \"contracts/exchange.sol\":2376:2377  0 */\n      0x00\n        /* \"contracts/exchange.sol\":2361:2373  amountTokens */\n      dup2\n        /* \"contracts/exchange.sol\":2361:2377  amountTokens > 0 */\n      gt\n        /* \"contracts/exchange.sol\":2353:2409  require(amountTokens > 0, \"Need tokens to create pool.\") */\n      tag_133\n      jumpi\n      mload(0x40)\n      0x08c379a000000000000000000000000000000000000000000000000000000000\n      dup2\n      mstore\n      0x04\n      add\n      tag_134\n      swap1\n      tag_135\n      jump\t// in\n    tag_134:\n      mload(0x40)\n      dup1\n      swap2\n      sub\n      swap1\n      revert\n    tag_133:\n        /* \"contracts/exchange.sol\":2420:2425  token */\n      0x03\n      0x00\n      swap1\n      sload\n      swap1\n      0x0100\n      exp\n      swap1\n      div\n      0xffffffffffffffffffffffffffffffffffffffff\n      and\n        /* \"contracts/exchange.sol\":2420:2438  token.transferFrom */\n      0xffffffffffffffffffffffffffffffffffffffff\n      and\n      0x23b872dd\n        /* \"contracts/exchange.sol\":2439:2449  msg.sender */\n      caller\n        /* \"contracts/exchange.sol\":2459:2463  this */\n      address\n        /* \"contracts/exchange.sol\":2466:2478  amountTokens */\n      dup5\n        /* \"contracts/exchange.sol\":2420:2479  token.transferFrom(msg.sender, address(this), amountTokens) */\n      mload(0x40)\n      dup5\n      0xffffffff\n      and\n      0xe0\n      shl\n      dup2\n      mstore\n      0x04\n      add\n      tag_136\n      swap4\n      swap3\n      swap2\n      swap1\n      tag_137\n      jump\t// in\n    tag_136:\n      0x20\n      mload(0x40)\n      dup1\n      dup4\n      sub\n      dup2\n      0x00\n      dup8\n      dup1\n      extcodesize\n      iszero\n      dup1\n      iszero\n      tag_138\n      jumpi\n      0x00\n      dup1\n      revert\n    tag_138:\n      pop\n      gas\n      call\n      iszero\n      dup1\n      iszero\n      tag_140\n      jumpi\n      returndatasize\n      0x00\n      dup1\n      returndatacopy\n      revert(0x00, returndatasize)\n    tag_140:\n      pop\n      pop\n      pop\n      pop\n      mload(0x40)\n      returndatasize\n      not(0x1f)\n      0x1f\n      dup3\n      add\n      and\n      dup3\n      add\n      dup1\n      0x40\n      mstore\n      pop\n      dup2\n      add\n      swap1\n      tag_141\n      swap2\n      swap1\n      tag_142\n      jump\t// in\n    tag_141:\n      pop\n        /* \"contracts/exchange.sol\":2504:2513  msg.value */\n      callvalue\n        /* \"contracts/exchange.sol\":2489:2501  eth_reserves */\n      0x05\n        /* \"contracts/exchange.sol\":2489:2513  eth_reserves = msg.value */\n      dup2\n      swap1\n      sstore\n      pop\n        /* \"contracts/exchange.sol\":2540:2552  amountTokens */\n      dup1\n        /* \"contracts/exchange.sol\":2523:2537  token_reserves */\n      0x04\n        /* \"contracts/exchange.sol\":2523:2552  token_reserves = amountTokens */\n      dup2\n      swap1\n      sstore\n      pop\n        /* \"contracts/exchange.sol\":2581:2595  token_reserves */\n      sload(0x04)\n        /* \"contracts/exchange.sol\":2566:2578  eth_reserves */\n      sload(0x05)\n        /* \"contracts/exchange.sol\":2566:2595  eth_reserves * token_reserves */\n      tag_143\n      swap2\n      swap1\n      tag_144\n      jump\t// in\n    tag_143:\n        /* \"contracts/exchange.sol\":2562:2563  k */\n      0x06\n        /* \"contracts/exchange.sol\":2562:2595  k = eth_reserves * token_reserves */\n      dup2\n      swap1\n      sstore\n      pop\n        /* \"contracts/exchange.sol\":2686:2695  msg.value */\n      callvalue\n        /* \"contracts/exchange.sol\":2658:2671  userLiquidity */\n      0x09\n        /* \"contracts/exchange.sol\":2658:2683  userLiquidity[msg.sender] */\n      0x00\n        /* \"contracts/exchange.sol\":2672:2682  msg.sender */\n      caller\n        /* \"contracts/exchange.sol\":2658:2683  userLiquidity[msg.sender] */\n      0xffffffffffffffffffffffffffffffffffffffff\n      and\n      0xffffffffffffffffffffffffffffffffffffffff\n      and\n      dup2\n      mstore\n      0x20\n      add\n      swap1\n      dup2\n      mstore\n      0x20\n      add\n      0x00\n      keccak256\n        /* \"contracts/exchange.sol\":2658:2695  userLiquidity[msg.sender] = msg.value */\n      dup2\n      swap1\n      sstore\n      pop\n        /* \"contracts/exchange.sol\":1924:2702  function createPool(uint amountTokens) external payable onlyOwner {... */\n      pop\n      jump\t// out\n        /* \"contracts/exchange.sol\":8743:10511  function removeAllLiquidity() external payable {... */\n    tag_47:\n        /* \"contracts/exchange.sol\":9064:9091  uint256 userEthContribution */\n      0x00\n        /* \"contracts/exchange.sol\":9094:9107  userLiquidity */\n      0x09\n        /* \"contracts/exchange.sol\":9094:9119  userLiquidity[msg.sender] */\n      0x00\n        /* \"contracts/exchange.sol\":9108:9118  msg.sender */\n      caller\n        /* \"contracts/exchange.sol\":9094:9119  userLiquidity[msg.sender] */\n      0xffffffffffffffffffffffffffffffffffffffff\n      and\n      0xffffffffffffffffffffffffffffffffffffffff\n      and\n      dup2\n      mstore\n      0x20\n      add\n      swap1\n      dup2\n      mstore\n      0x20\n      add\n      0x00\n      keccak256\n      sload\n        /* \"contracts/exchange.sol\":9064:9119  uint256 userEthContribution = userLiquidity[msg.sender] */\n      swap1\n      pop\n        /* \"contracts/exchange.sol\":9211:9212  0 */\n      0x00\n        /* \"contracts/exchange.sol\":9189:9208  userEthContribution */\n      dup2\n        /* \"contracts/exchange.sol\":9189:9212  userEthContribution > 0 */\n      gt\n        /* \"contracts/exchange.sol\":9181:9239  require(userEthContribution > 0, \"No liquidity to remove\") */\n      tag_146\n      jumpi\n      mload(0x40)\n      0x08c379a000000000000000000000000000000000000000000000000000000000\n      dup2\n      mstore\n      0x04\n      add\n      tag_147\n      swap1\n      tag_148\n      jump\t// in\n    tag_147:\n      mload(0x40)\n      dup1\n      swap2\n      sub\n      swap1\n      revert\n    tag_146:\n        /* \"contracts/exchange.sol\":9402:9419  uint256 userShare */\n      0x00\n        /* \"contracts/exchange.sol\":9451:9463  eth_reserves */\n      sload(0x05)\n        /* \"contracts/exchange.sol\":9444:9448  1e18 */\n      0x0de0b6b3a7640000\n        /* \"contracts/exchange.sol\":9422:9441  userEthContribution */\n      dup4\n        /* \"contracts/exchange.sol\":9422:9448  userEthContribution * 1e18 */\n      tag_149\n      swap2\n      swap1\n      tag_144\n      jump\t// in\n    tag_149:\n        /* \"contracts/exchange.sol\":9422:9463  userEthContribution * 1e18 / eth_reserves */\n      tag_150\n      swap2\n      swap1\n      tag_96\n      jump\t// in\n    tag_150:\n        /* \"contracts/exchange.sol\":9402:9463  uint256 userShare = userEthContribution * 1e18 / eth_reserves */\n      swap1\n      pop\n        /* \"contracts/exchange.sol\":9572:9591  uint256 tokenAmount */\n      0x00\n        /* \"contracts/exchange.sol\":9623:9627  1e18 */\n      0x0de0b6b3a7640000\n        /* \"contracts/exchange.sol\":9611:9620  userShare */\n      dup3\n        /* \"contracts/exchange.sol\":9594:9608  token_reserves */\n      sload(0x04)\n        /* \"contracts/exchange.sol\":9594:9620  token_reserves * userShare */\n      tag_151\n      swap2\n      swap1\n      tag_144\n      jump\t// in\n    tag_151:\n        /* \"contracts/exchange.sol\":9594:9627  token_reserves * userShare / 1e18 */\n      tag_152\n      swap2\n      swap1\n      tag_96\n      jump\t// in\n    tag_152:\n        /* \"contracts/exchange.sol\":9572:9627  uint256 tokenAmount = token_reserves * userShare / 1e18 */\n      swap1\n      pop\n        /* \"contracts/exchange.sol\":9784:9803  userEthContribution */\n      dup3\n        /* \"contracts/exchange.sol\":9768:9780  eth_reserves */\n      sload(0x05)\n        /* \"contracts/exchange.sol\":9768:9803  eth_reserves >= userEthContribution */\n      lt\n      iszero\n        /* \"contracts/exchange.sol\":9760:9836  require(eth_reserves >= userEthContribution, \"Insufficient ETH in reserves\") */\n      tag_153\n      jumpi\n      mload(0x40)\n      0x08c379a000000000000000000000000000000000000000000000000000000000\n      dup2\n      mstore\n      0x04\n      add\n      tag_154\n      swap1\n      tag_155\n      jump\t// in\n    tag_154:\n      mload(0x40)\n      dup1\n      swap2\n      sub\n      swap1\n      revert\n    tag_153:\n        /* \"contracts/exchange.sol\":9872:9883  tokenAmount */\n      dup1\n        /* \"contracts/exchange.sol\":9854:9868  token_reserves */\n      sload(0x04)\n        /* \"contracts/exchange.sol\":9854:9883  token_reserves >= tokenAmount */\n      lt\n      iszero\n        /* \"contracts/exchange.sol\":9846:9919  require(token_reserves >= tokenAmount, \"Insufficient tokens in reserves\") */\n      tag_156\n      jumpi\n      mload(0x40)\n      0x08c379a000000000000000000000000000000000000000000000000000000000\n      dup2\n      mstore\n      0x04\n      add\n      tag_157\n      swap1\n      tag_158\n      jump\t// in\n    tag_157:\n      mload(0x40)\n      dup1\n      swap2\n      sub\n      swap1\n      revert\n    tag_156:\n        /* \"contracts/exchange.sol\":10000:10019  userEthContribution */\n      dup3\n        /* \"contracts/exchange.sol\":9984:9996  eth_reserves */\n      0x05\n      0x00\n        /* \"contracts/exchange.sol\":9984:10019  eth_reserves -= userEthContribution */\n      dup3\n      dup3\n      sload\n      tag_159\n      swap2\n      swap1\n      tag_109\n      jump\t// in\n    tag_159:\n      swap3\n      pop\n      pop\n      dup2\n      swap1\n      sstore\n      pop\n        /* \"contracts/exchange.sol\":10047:10058  tokenAmount */\n      dup1\n        /* \"contracts/exchange.sol\":10029:10043  token_reserves */\n      0x04\n      0x00\n        /* \"contracts/exchange.sol\":10029:10058  token_reserves -= tokenAmount */\n      dup3\n      dup3\n      sload\n      tag_160\n      swap2\n      swap1\n      tag_109\n      jump\t// in\n    tag_160:\n      swap3\n      pop\n      pop\n      dup2\n      swap1\n      sstore\n      pop\n        /* \"contracts/exchange.sol\":10089:10101  eth_reserves */\n      sload(0x05)\n        /* \"contracts/exchange.sol\":10072:10086  token_reserves */\n      sload(0x04)\n        /* \"contracts/exchange.sol\":10072:10101  token_reserves * eth_reserves */\n      tag_161\n      swap2\n      swap1\n      tag_144\n      jump\t// in\n    tag_161:\n        /* \"contracts/exchange.sol\":10068:10069  k */\n      0x06\n        /* \"contracts/exchange.sol\":10068:10101  k = token_reserves * eth_reserves */\n      dup2\n      swap1\n      sstore\n      pop\n        /* \"contracts/exchange.sol\":10200:10201  0 */\n      0x00\n        /* \"contracts/exchange.sol\":10172:10185  userLiquidity */\n      0x09\n        /* \"contracts/exchange.sol\":10172:10197  userLiquidity[msg.sender] */\n      0x00\n        /* \"contracts/exchange.sol\":10186:10196  msg.sender */\n      caller\n        /* \"contracts/exchange.sol\":10172:10197  userLiquidity[msg.sender] */\n      0xffffffffffffffffffffffffffffffffffffffff\n      and\n      0xffffffffffffffffffffffffffffffffffffffff\n      and\n      dup2\n      mstore\n      0x20\n      add\n      swap1\n      dup2\n      mstore\n      0x20\n      add\n      0x00\n      keccak256\n        /* \"contracts/exchange.sol\":10172:10201  userLiquidity[msg.sender] = 0 */\n      dup2\n      swap1\n      sstore\n      pop\n        /* \"contracts/exchange.sol\":10272:10282  msg.sender */\n      caller\n        /* \"contracts/exchange.sol\":10264:10292  payable(msg.sender).transfer */\n      0xffffffffffffffffffffffffffffffffffffffff\n      and\n        /* \"contracts/exchange.sol\":10264:10313  payable(msg.sender).transfer(userEthContribution) */\n      0x08fc\n        /* \"contracts/exchange.sol\":10293:10312  userEthContribution */\n      dup5\n        /* \"contracts/exchange.sol\":10264:10313  payable(msg.sender).transfer(userEthContribution) */\n      swap1\n      dup2\n      iszero\n      mul\n      swap1\n      mload(0x40)\n      0x00\n      mload(0x40)\n      dup1\n      dup4\n      sub\n      dup2\n      dup6\n      dup9\n      dup9\n      call\n      swap4\n      pop\n      pop\n      pop\n      pop\n      iszero\n      dup1\n      iszero\n      tag_163\n      jumpi\n      returndatasize\n      0x00\n      dup1\n      returndatacopy\n      revert(0x00, returndatasize)\n    tag_163:\n      pop\n        /* \"contracts/exchange.sol\":10331:10336  token */\n      0x03\n      0x00\n      swap1\n      sload\n      swap1\n      0x0100\n      exp\n      swap1\n      div\n      0xffffffffffffffffffffffffffffffffffffffff\n      and\n        /* \"contracts/exchange.sol\":10331:10345  token.transfer */\n      0xffffffffffffffffffffffffffffffffffffffff\n      and\n      0xa9059cbb\n        /* \"contracts/exchange.sol\":10346:10356  msg.sender */\n      caller\n        /* \"contracts/exchange.sol\":10358:10369  tokenAmount */\n      dup4\n        /* \"contracts/exchange.sol\":10331:10370  token.transfer(msg.sender, tokenAmount) */\n      mload(0x40)\n      dup4\n      0xffffffff\n      and\n      0xe0\n      shl\n      dup2\n      mstore\n      0x04\n      add\n      tag_164\n      swap3\n      swap2\n      swap1\n      tag_165\n      jump\t// in\n    tag_164:\n      0x20\n      mload(0x40)\n      dup1\n      dup4\n      sub\n      dup2\n      0x00\n      dup8\n      dup1\n      extcodesize\n      iszero\n      dup1\n      iszero\n      tag_166\n      jumpi\n      0x00\n      dup1\n      revert\n    tag_166:\n      pop\n      gas\n      call\n      iszero\n      dup1\n      iszero\n      tag_168\n      jumpi\n      returndatasize\n      0x00\n      dup1\n      returndatacopy\n      revert(0x00, returndatasize)\n    tag_168:\n      pop\n      pop\n      pop\n      pop\n      mload(0x40)\n      returndatasize\n      not(0x1f)\n      0x1f\n      dup3\n      add\n      and\n      dup3\n      add\n      dup1\n      0x40\n      mstore\n      pop\n      dup2\n      add\n      swap1\n      tag_169\n      swap2\n      swap1\n      tag_142\n      jump\t// in\n    tag_169:\n        /* \"contracts/exchange.sol\":10323:10396  require(token.transfer(msg.sender, tokenAmount), \"Token transfer failed\") */\n      tag_170\n      jumpi\n      mload(0x40)\n      0x08c379a000000000000000000000000000000000000000000000000000000000\n      dup2\n      mstore\n      0x04\n      add\n      tag_171\n      swap1\n      tag_172\n      jump\t// in\n    tag_171:\n      mload(0x40)\n      dup1\n      swap2\n      sub\n      swap1\n      revert\n    tag_170:\n        /* \"contracts/exchange.sol\":10456:10504  RemoveLiquidity(msg.sender, userEthContribution) */\n      0xdfdd120ded9b7afc0c23dd5310e93aaa3e1c3b9f75af9b805fab3030842439f2\n        /* \"contracts/exchange.sol\":10472:10482  msg.sender */\n      caller\n        /* \"contracts/exchange.sol\":10484:10503  userEthContribution */\n      dup5\n        /* \"contracts/exchange.sol\":10456:10504  RemoveLiquidity(msg.sender, userEthContribution) */\n      mload(0x40)\n      tag_173\n      swap3\n      swap2\n      swap1\n      tag_165\n      jump\t// in\n    tag_173:\n      mload(0x40)\n      dup1\n      swap2\n      sub\n      swap1\n      log1\n        /* \"contracts/exchange.sol\":8790:10511  {... */\n      pop\n      pop\n      pop\n        /* \"contracts/exchange.sol\":8743:10511  function removeAllLiquidity() external payable {... */\n      jump\t// out\n        /* \"contracts/exchange.sol\":1020:1048  uint public eth_reserves = 0 */\n    tag_50:\n      sload(0x05)\n      dup2\n      jump\t// out\n        /* \"contracts/exchange.sol\":984:1014  uint public token_reserves = 0 */\n    tag_54:\n      sload(0x04)\n      dup2\n      jump\t// out\n        /* \"contracts/exchange.sol\":6690:8376  function removeLiquidity(uint256 eth_amount) public payable {... */\n    tag_58:\n        /* \"contracts/exchange.sol\":7279:7289  eth_amount */\n      dup1\n        /* \"contracts/exchange.sol\":7250:7263  userLiquidity */\n      0x09\n        /* \"contracts/exchange.sol\":7250:7275  userLiquidity[msg.sender] */\n      0x00\n        /* \"contracts/exchange.sol\":7264:7274  msg.sender */\n      caller\n        /* \"contracts/exchange.sol\":7250:7275  userLiquidity[msg.sender] */\n      0xffffffffffffffffffffffffffffffffffffffff\n      and\n      0xffffffffffffffffffffffffffffffffffffffff\n      and\n      dup2\n      mstore\n      0x20\n      add\n      swap1\n      dup2\n      mstore\n      0x20\n      add\n      0x00\n      keccak256\n      sload\n        /* \"contracts/exchange.sol\":7250:7289  userLiquidity[msg.sender] >= eth_amount */\n      lt\n      iszero\n        /* \"contracts/exchange.sol\":7242:7324  require(userLiquidity[msg.sender] >= eth_amount, \"Not enough liquidity to remove\") */\n      tag_175\n      jumpi\n      mload(0x40)\n      0x08c379a000000000000000000000000000000000000000000000000000000000\n      dup2\n      mstore\n      0x04\n      add\n      tag_176\n      swap1\n      tag_177\n      jump\t// in\n    tag_176:\n      mload(0x40)\n      dup1\n      swap2\n      sub\n      swap1\n      revert\n    tag_175:\n        /* \"contracts/exchange.sol\":7476:7496  uint256 token_amount */\n      0x00\n        /* \"contracts/exchange.sol\":7531:7543  eth_reserves */\n      sload(0x05)\n        /* \"contracts/exchange.sol\":7513:7527  token_reserves */\n      sload(0x04)\n        /* \"contracts/exchange.sol\":7500:7510  eth_amount */\n      dup4\n        /* \"contracts/exchange.sol\":7500:7527  eth_amount * token_reserves */\n      tag_178\n      swap2\n      swap1\n      tag_144\n      jump\t// in\n    tag_178:\n        /* \"contracts/exchange.sol\":7499:7543  (eth_amount * token_reserves) / eth_reserves */\n      tag_179\n      swap2\n      swap1\n      tag_96\n      jump\t// in\n    tag_179:\n        /* \"contracts/exchange.sol\":7476:7543  uint256 token_amount = (eth_amount * token_reserves) / eth_reserves */\n      swap1\n      pop\n        /* \"contracts/exchange.sol\":7649:7659  eth_amount */\n      dup2\n        /* \"contracts/exchange.sol\":7633:7645  eth_reserves */\n      sload(0x05)\n        /* \"contracts/exchange.sol\":7633:7659  eth_reserves >= eth_amount */\n      lt\n      iszero\n        /* \"contracts/exchange.sol\":7625:7692  require(eth_reserves >= eth_amount, \"Insufficient ETH in reserves\") */\n      tag_180\n      jumpi\n      mload(0x40)\n      0x08c379a000000000000000000000000000000000000000000000000000000000\n      dup2\n      mstore\n      0x04\n      add\n      tag_181\n      swap1\n      tag_155\n      jump\t// in\n    tag_181:\n      mload(0x40)\n      dup1\n      swap2\n      sub\n      swap1\n      revert\n    tag_180:\n        /* \"contracts/exchange.sol\":7728:7740  token_amount */\n      dup1\n        /* \"contracts/exchange.sol\":7710:7724  token_reserves */\n      sload(0x04)\n        /* \"contracts/exchange.sol\":7710:7740  token_reserves >= token_amount */\n      lt\n      iszero\n        /* \"contracts/exchange.sol\":7702:7776  require(token_reserves >= token_amount, \"Insufficient tokens in reserves\") */\n      tag_182\n      jumpi\n      mload(0x40)\n      0x08c379a000000000000000000000000000000000000000000000000000000000\n      dup2\n      mstore\n      0x04\n      add\n      tag_183\n      swap1\n      tag_158\n      jump\t// in\n    tag_183:\n      mload(0x40)\n      dup1\n      swap2\n      sub\n      swap1\n      revert\n    tag_182:\n        /* \"contracts/exchange.sol\":7834:7844  eth_amount */\n      dup2\n        /* \"contracts/exchange.sol\":7818:7830  eth_reserves */\n      0x05\n      0x00\n        /* \"contracts/exchange.sol\":7818:7844  eth_reserves -= eth_amount */\n      dup3\n      dup3\n      sload\n      tag_184\n      swap2\n      swap1\n      tag_109\n      jump\t// in\n    tag_184:\n      swap3\n      pop\n      pop\n      dup2\n      swap1\n      sstore\n      pop\n        /* \"contracts/exchange.sol\":7872:7884  token_amount */\n      dup1\n        /* \"contracts/exchange.sol\":7854:7868  token_reserves */\n      0x04\n      0x00\n        /* \"contracts/exchange.sol\":7854:7884  token_reserves -= token_amount */\n      dup3\n      dup3\n      sload\n      tag_185\n      swap2\n      swap1\n      tag_109\n      jump\t// in\n    tag_185:\n      swap3\n      pop\n      pop\n      dup2\n      swap1\n      sstore\n      pop\n        /* \"contracts/exchange.sol\":7955:7967  eth_reserves */\n      sload(0x05)\n        /* \"contracts/exchange.sol\":7938:7952  token_reserves */\n      sload(0x04)\n        /* \"contracts/exchange.sol\":7938:7967  token_reserves * eth_reserves */\n      tag_186\n      swap2\n      swap1\n      tag_144\n      jump\t// in\n    tag_186:\n        /* \"contracts/exchange.sol\":7934:7935  k */\n      0x06\n        /* \"contracts/exchange.sol\":7934:7967  k = token_reserves * eth_reserves */\n      dup2\n      swap1\n      sstore\n      pop\n        /* \"contracts/exchange.sol\":8052:8062  msg.sender */\n      caller\n        /* \"contracts/exchange.sol\":8044:8072  payable(msg.sender).transfer */\n      0xffffffffffffffffffffffffffffffffffffffff\n      and\n        /* \"contracts/exchange.sol\":8044:8084  payable(msg.sender).transfer(eth_amount) */\n      0x08fc\n        /* \"contracts/exchange.sol\":8073:8083  eth_amount */\n      dup4\n        /* \"contracts/exchange.sol\":8044:8084  payable(msg.sender).transfer(eth_amount) */\n      swap1\n      dup2\n      iszero\n      mul\n      swap1\n      mload(0x40)\n      0x00\n      mload(0x40)\n      dup1\n      dup4\n      sub\n      dup2\n      dup6\n      dup9\n      dup9\n      call\n      swap4\n      pop\n      pop\n      pop\n      pop\n      iszero\n      dup1\n      iszero\n      tag_188\n      jumpi\n      returndatasize\n      0x00\n      dup1\n      returndatacopy\n      revert(0x00, returndatasize)\n    tag_188:\n      pop\n        /* \"contracts/exchange.sol\":8102:8107  token */\n      0x03\n      0x00\n      swap1\n      sload\n      swap1\n      0x0100\n      exp\n      swap1\n      div\n      0xffffffffffffffffffffffffffffffffffffffff\n      and\n        /* \"contracts/exchange.sol\":8102:8116  token.transfer */\n      0xffffffffffffffffffffffffffffffffffffffff\n      and\n      0xa9059cbb\n        /* \"contracts/exchange.sol\":8117:8127  msg.sender */\n      caller\n        /* \"contracts/exchange.sol\":8129:8141  token_amount */\n      dup4\n        /* \"contracts/exchange.sol\":8102:8142  token.transfer(msg.sender, token_amount) */\n      mload(0x40)\n      dup4\n      0xffffffff\n      and\n      0xe0\n      shl\n      dup2\n      mstore\n      0x04\n      add\n      tag_189\n      swap3\n      swap2\n      swap1\n      tag_165\n      jump\t// in\n    tag_189:\n      0x20\n      mload(0x40)\n      dup1\n      dup4\n      sub\n      dup2\n      0x00\n      dup8\n      dup1\n      extcodesize\n      iszero\n      dup1\n      iszero\n      tag_190\n      jumpi\n      0x00\n      dup1\n      revert\n    tag_190:\n      pop\n      gas\n      call\n      iszero\n      dup1\n      iszero\n      tag_192\n      jumpi\n      returndatasize\n      0x00\n      dup1\n      returndatacopy\n      revert(0x00, returndatasize)\n    tag_192:\n      pop\n      pop\n      pop\n      pop\n      mload(0x40)\n      returndatasize\n      not(0x1f)\n      0x1f\n      dup3\n      add\n      and\n      dup3\n      add\n      dup1\n      0x40\n      mstore\n      pop\n      dup2\n      add\n      swap1\n      tag_193\n      swap2\n      swap1\n      tag_142\n      jump\t// in\n    tag_193:\n        /* \"contracts/exchange.sol\":8094:8168  require(token.transfer(msg.sender, token_amount), \"Token transfer failed\") */\n      tag_194\n      jumpi\n      mload(0x40)\n      0x08c379a000000000000000000000000000000000000000000000000000000000\n      dup2\n      mstore\n      0x04\n      add\n      tag_195\n      swap1\n      tag_172\n      jump\t// in\n    tag_195:\n      mload(0x40)\n      dup1\n      swap2\n      sub\n      swap1\n      revert\n    tag_194:\n        /* \"contracts/exchange.sol\":8260:8270  eth_amount */\n      dup2\n        /* \"contracts/exchange.sol\":8231:8244  userLiquidity */\n      0x09\n        /* \"contracts/exchange.sol\":8231:8256  userLiquidity[msg.sender] */\n      0x00\n        /* \"contracts/exchange.sol\":8245:8255  msg.sender */\n      caller\n        /* \"contracts/exchange.sol\":8231:8256  userLiquidity[msg.sender] */\n      0xffffffffffffffffffffffffffffffffffffffff\n      and\n      0xffffffffffffffffffffffffffffffffffffffff\n      and\n      dup2\n      mstore\n      0x20\n      add\n      swap1\n      dup2\n      mstore\n      0x20\n      add\n      0x00\n      keccak256\n      0x00\n        /* \"contracts/exchange.sol\":8231:8270  userLiquidity[msg.sender] -= eth_amount */\n      dup3\n      dup3\n      sload\n      tag_196\n      swap2\n      swap1\n      tag_109\n      jump\t// in\n    tag_196:\n      swap3\n      pop\n      pop\n      dup2\n      swap1\n      sstore\n      pop\n        /* \"contracts/exchange.sol\":8330:8369  RemoveLiquidity(msg.sender, eth_amount) */\n      0xdfdd120ded9b7afc0c23dd5310e93aaa3e1c3b9f75af9b805fab3030842439f2\n        /* \"contracts/exchange.sol\":8346:8356  msg.sender */\n      caller\n        /* \"contracts/exchange.sol\":8358:8368  eth_amount */\n      dup4\n        /* \"contracts/exchange.sol\":8330:8369  RemoveLiquidity(msg.sender, eth_amount) */\n      mload(0x40)\n      tag_197\n      swap3\n      swap2\n      swap1\n      tag_165\n      jump\t// in\n    tag_197:\n      mload(0x40)\n      dup1\n      swap2\n      sub\n      swap1\n      log1\n        /* \"contracts/exchange.sol\":6750:8376  {... */\n      pop\n        /* \"contracts/exchange.sol\":6690:8376  function removeLiquidity(uint256 eth_amount) public payable {... */\n      pop\n      jump\t// out\n        /* \"contracts/exchange.sol\":1082:1095  uint public k */\n    tag_61:\n      sload(0x06)\n      dup2\n      jump\t// out\n        /* \"contracts/exchange.sol\":1368:1416  mapping(address => uint256) public userLiquidity */\n    tag_67:\n      mstore(0x20, 0x09)\n      dup1\n      0x00\n      mstore\n      keccak256(0x00, 0x40)\n      0x00\n      swap2\n      pop\n      swap1\n      pop\n      sload\n      dup2\n      jump\t// out\n        /* \"contracts/exchange.sol\":18606:18763  function priceETH() public view returns (uint) {... */\n    tag_71:\n        /* \"contracts/exchange.sol\":18647:18651  uint */\n      0x00\n        /* \"contracts/exchange.sol\":18686:18687  0 */\n      dup1\n        /* \"contracts/exchange.sol\":18671:18683  eth_reserves */\n      sload(0x05)\n        /* \"contracts/exchange.sol\":18671:18687  eth_reserves > 0 */\n      gt\n        /* \"contracts/exchange.sol\":18663:18710  require(eth_reserves > 0, \"No ETH in reserves\") */\n      tag_199\n      jumpi\n      mload(0x40)\n      0x08c379a000000000000000000000000000000000000000000000000000000000\n      dup2\n      mstore\n      0x04\n      add\n      tag_200\n      swap1\n      tag_201\n      jump\t// in\n    tag_200:\n      mload(0x40)\n      dup1\n      swap2\n      sub\n      swap1\n      revert\n    tag_199:\n        /* \"contracts/exchange.sol\":18742:18756  token_reserves */\n      sload(0x04)\n        /* \"contracts/exchange.sol\":18727:18739  eth_reserves */\n      sload(0x05)\n        /* \"contracts/exchange.sol\":18727:18756  eth_reserves / token_reserves */\n      tag_202\n      swap2\n      swap1\n      tag_96\n      jump\t// in\n    tag_202:\n        /* \"contracts/exchange.sol\":18720:18756  return eth_reserves / token_reserves */\n      swap1\n      pop\n        /* \"contracts/exchange.sol\":18606:18763  function priceETH() public view returns (uint) {... */\n      swap1\n      jump\t// out\n        /* \"contracts/exchange.sol\":14160:15728  function swapETHForTokens() external payable {... */\n    tag_74:\n        /* \"contracts/exchange.sol\":15036:15053  uint256 ethAmount */\n      0x00\n        /* \"contracts/exchange.sol\":15056:15065  msg.value */\n      callvalue\n        /* \"contracts/exchange.sol\":15036:15065  uint256 ethAmount = msg.value */\n      swap1\n      pop\n        /* \"contracts/exchange.sol\":15095:15096  0 */\n      0x00\n        /* \"contracts/exchange.sol\":15083:15092  ethAmount */\n      dup2\n        /* \"contracts/exchange.sol\":15083:15096  ethAmount > 0 */\n      gt\n        /* \"contracts/exchange.sol\":15075:15112  require(ethAmount > 0, \"No ETH sent\") */\n      tag_204\n      jumpi\n      mload(0x40)\n      0x08c379a000000000000000000000000000000000000000000000000000000000\n      dup2\n      mstore\n      0x04\n      add\n      tag_205\n      swap1\n      tag_206\n      jump\t// in\n    tag_205:\n      mload(0x40)\n      dup1\n      swap2\n      sub\n      swap1\n      revert\n    tag_204:\n        /* \"contracts/exchange.sol\":15179:15198  uint256 tokenAmount */\n      0x00\n        /* \"contracts/exchange.sol\":15201:15236  getTokenAmountForEthSwap(ethAmount) */\n      tag_207\n        /* \"contracts/exchange.sol\":15226:15235  ethAmount */\n      dup3\n        /* \"contracts/exchange.sol\":15201:15225  getTokenAmountForEthSwap */\n      tag_36\n        /* \"contracts/exchange.sol\":15201:15236  getTokenAmountForEthSwap(ethAmount) */\n      jump\t// in\n    tag_207:\n        /* \"contracts/exchange.sol\":15179:15236  uint256 tokenAmount = getTokenAmountForEthSwap(ethAmount) */\n      swap1\n      pop\n        /* \"contracts/exchange.sol\":15337:15351  token_reserves */\n      sload(0x04)\n        /* \"contracts/exchange.sol\":15322:15333  tokenAmount */\n      dup2\n        /* \"contracts/exchange.sol\":15322:15351  tokenAmount <= token_reserves */\n      gt\n      iszero\n        /* \"contracts/exchange.sol\":15314:15387  require(tokenAmount <= token_reserves, \"Insufficient tokens in reserves\") */\n      tag_208\n      jumpi\n      mload(0x40)\n      0x08c379a000000000000000000000000000000000000000000000000000000000\n      dup2\n      mstore\n      0x04\n      add\n      tag_209\n      swap1\n      tag_158\n      jump\t// in\n    tag_209:\n      mload(0x40)\n      dup1\n      swap2\n      sub\n      swap1\n      revert\n    tag_208:\n        /* \"contracts/exchange.sol\":15445:15454  ethAmount */\n      dup2\n        /* \"contracts/exchange.sol\":15429:15441  eth_reserves */\n      0x05\n      0x00\n        /* \"contracts/exchange.sol\":15429:15454  eth_reserves += ethAmount */\n      dup3\n      dup3\n      sload\n      tag_210\n      swap2\n      swap1\n      tag_103\n      jump\t// in\n    tag_210:\n      swap3\n      pop\n      pop\n      dup2\n      swap1\n      sstore\n      pop\n        /* \"contracts/exchange.sol\":15482:15493  tokenAmount */\n      dup1\n        /* \"contracts/exchange.sol\":15464:15478  token_reserves */\n      0x04\n      0x00\n        /* \"contracts/exchange.sol\":15464:15493  token_reserves -= tokenAmount */\n      dup3\n      dup3\n      sload\n      tag_211\n      swap2\n      swap1\n      tag_109\n      jump\t// in\n    tag_211:\n      swap3\n      pop\n      pop\n      dup2\n      swap1\n      sstore\n      pop\n        /* \"contracts/exchange.sol\":15551:15556  token */\n      0x03\n      0x00\n      swap1\n      sload\n      swap1\n      0x0100\n      exp\n      swap1\n      div\n      0xffffffffffffffffffffffffffffffffffffffff\n      and\n        /* \"contracts/exchange.sol\":15551:15565  token.transfer */\n      0xffffffffffffffffffffffffffffffffffffffff\n      and\n      0xa9059cbb\n        /* \"contracts/exchange.sol\":15566:15576  msg.sender */\n      caller\n        /* \"contracts/exchange.sol\":15578:15589  tokenAmount */\n      dup4\n        /* \"contracts/exchange.sol\":15551:15590  token.transfer(msg.sender, tokenAmount) */\n      mload(0x40)\n      dup4\n      0xffffffff\n      and\n      0xe0\n      shl\n      dup2\n      mstore\n      0x04\n      add\n      tag_212\n      swap3\n      swap2\n      swap1\n      tag_165\n      jump\t// in\n    tag_212:\n      0x20\n      mload(0x40)\n      dup1\n      dup4\n      sub\n      dup2\n      0x00\n      dup8\n      dup1\n      extcodesize\n      iszero\n      dup1\n      iszero\n      tag_213\n      jumpi\n      0x00\n      dup1\n      revert\n    tag_213:\n      pop\n      gas\n      call\n      iszero\n      dup1\n      iszero\n      tag_215\n      jumpi\n      returndatasize\n      0x00\n      dup1\n      returndatacopy\n      revert(0x00, returndatasize)\n    tag_215:\n      pop\n      pop\n      pop\n      pop\n      mload(0x40)\n      returndatasize\n      not(0x1f)\n      0x1f\n      dup3\n      add\n      and\n      dup3\n      add\n      dup1\n      0x40\n      mstore\n      pop\n      dup2\n      add\n      swap1\n      tag_216\n      swap2\n      swap1\n      tag_142\n      jump\t// in\n    tag_216:\n        /* \"contracts/exchange.sol\":15543:15616  require(token.transfer(msg.sender, tokenAmount), \"Token transfer failed\") */\n      tag_217\n      jumpi\n      mload(0x40)\n      0x08c379a000000000000000000000000000000000000000000000000000000000\n      dup2\n      mstore\n      0x04\n      add\n      tag_218\n      swap1\n      tag_172\n      jump\t// in\n    tag_218:\n      mload(0x40)\n      dup1\n      swap2\n      sub\n      swap1\n      revert\n    tag_217:\n        /* \"contracts/exchange.sol\":15705:15721  _checkRounding() */\n      tag_219\n        /* \"contracts/exchange.sol\":15705:15719  _checkRounding */\n      tag_220\n        /* \"contracts/exchange.sol\":15705:15721  _checkRounding() */\n      jump\t// in\n    tag_219:\n        /* \"contracts/exchange.sol\":14205:15728  {... */\n      pop\n      pop\n        /* \"contracts/exchange.sol\":14160:15728  function swapETHForTokens() external payable {... */\n      jump\t// out\n        /* \"contracts/exchange.sol\":11570:13322  function swapTokensForETH(uint amountTokens) external payable {... */\n    tag_77:\n        /* \"contracts/exchange.sol\":12560:12572  amountTokens */\n      dup1\n        /* \"contracts/exchange.sol\":12529:12534  token */\n      0x03\n      0x00\n      swap1\n      sload\n      swap1\n      0x0100\n      exp\n      swap1\n      div\n      0xffffffffffffffffffffffffffffffffffffffff\n      and\n        /* \"contracts/exchange.sol\":12529:12544  token.balanceOf */\n      0xffffffffffffffffffffffffffffffffffffffff\n      and\n      0x70a08231\n        /* \"contracts/exchange.sol\":12545:12555  msg.sender */\n      caller\n        /* \"contracts/exchange.sol\":12529:12556  token.balanceOf(msg.sender) */\n      mload(0x40)\n      dup3\n      0xffffffff\n      and\n      0xe0\n      shl\n      dup2\n      mstore\n      0x04\n      add\n      tag_222\n      swap2\n      swap1\n      tag_89\n      jump\t// in\n    tag_222:\n      0x20\n      mload(0x40)\n      dup1\n      dup4\n      sub\n      dup2\n      dup7\n      dup1\n      extcodesize\n      iszero\n      dup1\n      iszero\n      tag_223\n      jumpi\n      0x00\n      dup1\n      revert\n    tag_223:\n      pop\n      gas\n      staticcall\n      iszero\n      dup1\n      iszero\n      tag_225\n      jumpi\n      returndatasize\n      0x00\n      dup1\n      returndatacopy\n      revert(0x00, returndatasize)\n    tag_225:\n      pop\n      pop\n      pop\n      pop\n      mload(0x40)\n      returndatasize\n      not(0x1f)\n      0x1f\n      dup3\n      add\n      and\n      dup3\n      add\n      dup1\n      0x40\n      mstore\n      pop\n      dup2\n      add\n      swap1\n      tag_226\n      swap2\n      swap1\n      tag_227\n      jump\t// in\n    tag_226:\n        /* \"contracts/exchange.sol\":12529:12572  token.balanceOf(msg.sender) >= amountTokens */\n      lt\n      iszero\n        /* \"contracts/exchange.sol\":12521:12596  require(token.balanceOf(msg.sender) >= amountTokens, \"Insufficient tokens\") */\n      tag_228\n      jumpi\n      mload(0x40)\n      0x08c379a000000000000000000000000000000000000000000000000000000000\n      dup2\n      mstore\n      0x04\n      add\n      tag_229\n      swap1\n      tag_230\n      jump\t// in\n    tag_229:\n      mload(0x40)\n      dup1\n      swap2\n      sub\n      swap1\n      revert\n    tag_228:\n        /* \"contracts/exchange.sol\":12660:12677  uint256 ethAmount */\n      0x00\n        /* \"contracts/exchange.sol\":12680:12718  getEthAmountForTokenSwap(amountTokens) */\n      tag_231\n        /* \"contracts/exchange.sol\":12705:12717  amountTokens */\n      dup3\n        /* \"contracts/exchange.sol\":12680:12704  getEthAmountForTokenSwap */\n      tag_41\n        /* \"contracts/exchange.sol\":12680:12718  getEthAmountForTokenSwap(amountTokens) */\n      jump\t// in\n    tag_231:\n        /* \"contracts/exchange.sol\":12660:12718  uint256 ethAmount = getEthAmountForTokenSwap(amountTokens) */\n      swap1\n      pop\n        /* \"contracts/exchange.sol\":12814:12826  eth_reserves */\n      sload(0x05)\n        /* \"contracts/exchange.sol\":12801:12810  ethAmount */\n      dup2\n        /* \"contracts/exchange.sol\":12801:12826  ethAmount <= eth_reserves */\n      gt\n      iszero\n        /* \"contracts/exchange.sol\":12793:12859  require(ethAmount <= eth_reserves, \"Insufficient ETH in reserves\") */\n      tag_232\n      jumpi\n      mload(0x40)\n      0x08c379a000000000000000000000000000000000000000000000000000000000\n      dup2\n      mstore\n      0x04\n      add\n      tag_233\n      swap1\n      tag_155\n      jump\t// in\n    tag_233:\n      mload(0x40)\n      dup1\n      swap2\n      sub\n      swap1\n      revert\n    tag_232:\n        /* \"contracts/exchange.sol\":12935:12940  token */\n      0x03\n      0x00\n      swap1\n      sload\n      swap1\n      0x0100\n      exp\n      swap1\n      div\n      0xffffffffffffffffffffffffffffffffffffffff\n      and\n        /* \"contracts/exchange.sol\":12935:12953  token.transferFrom */\n      0xffffffffffffffffffffffffffffffffffffffff\n      and\n      0x23b872dd\n        /* \"contracts/exchange.sol\":12954:12964  msg.sender */\n      caller\n        /* \"contracts/exchange.sol\":12974:12978  this */\n      address\n        /* \"contracts/exchange.sol\":12981:12993  amountTokens */\n      dup6\n        /* \"contracts/exchange.sol\":12935:12994  token.transferFrom(msg.sender, address(this), amountTokens) */\n      mload(0x40)\n      dup5\n      0xffffffff\n      and\n      0xe0\n      shl\n      dup2\n      mstore\n      0x04\n      add\n      tag_234\n      swap4\n      swap3\n      swap2\n      swap1\n      tag_137\n      jump\t// in\n    tag_234:\n      0x20\n      mload(0x40)\n      dup1\n      dup4\n      sub\n      dup2\n      0x00\n      dup8\n      dup1\n      extcodesize\n      iszero\n      dup1\n      iszero\n      tag_235\n      jumpi\n      0x00\n      dup1\n      revert\n    tag_235:\n      pop\n      gas\n      call\n      iszero\n      dup1\n      iszero\n      tag_237\n      jumpi\n      returndatasize\n      0x00\n      dup1\n      returndatacopy\n      revert(0x00, returndatasize)\n    tag_237:\n      pop\n      pop\n      pop\n      pop\n      mload(0x40)\n      returndatasize\n      not(0x1f)\n      0x1f\n      dup3\n      add\n      and\n      dup3\n      add\n      dup1\n      0x40\n      mstore\n      pop\n      dup2\n      add\n      swap1\n      tag_238\n      swap2\n      swap1\n      tag_142\n      jump\t// in\n    tag_238:\n        /* \"contracts/exchange.sol\":12927:13020  require(token.transferFrom(msg.sender, address(this), amountTokens), \"Token transfer failed\") */\n      tag_239\n      jumpi\n      mload(0x40)\n      0x08c379a000000000000000000000000000000000000000000000000000000000\n      dup2\n      mstore\n      0x04\n      add\n      tag_240\n      swap1\n      tag_172\n      jump\t// in\n    tag_240:\n      mload(0x40)\n      dup1\n      swap2\n      sub\n      swap1\n      revert\n    tag_239:\n        /* \"contracts/exchange.sol\":13080:13092  amountTokens */\n      dup2\n        /* \"contracts/exchange.sol\":13062:13076  token_reserves */\n      0x04\n      0x00\n        /* \"contracts/exchange.sol\":13062:13092  token_reserves += amountTokens */\n      dup3\n      dup3\n      sload\n      tag_241\n      swap2\n      swap1\n      tag_103\n      jump\t// in\n    tag_241:\n      swap3\n      pop\n      pop\n      dup2\n      swap1\n      sstore\n      pop\n        /* \"contracts/exchange.sol\":13118:13127  ethAmount */\n      dup1\n        /* \"contracts/exchange.sol\":13102:13114  eth_reserves */\n      0x05\n      0x00\n        /* \"contracts/exchange.sol\":13102:13127  eth_reserves -= ethAmount */\n      dup3\n      dup3\n      sload\n      tag_242\n      swap2\n      swap1\n      tag_109\n      jump\t// in\n    tag_242:\n      swap3\n      pop\n      pop\n      dup2\n      swap1\n      sstore\n      pop\n        /* \"contracts/exchange.sol\":13178:13188  msg.sender */\n      caller\n        /* \"contracts/exchange.sol\":13170:13198  payable(msg.sender).transfer */\n      0xffffffffffffffffffffffffffffffffffffffff\n      and\n        /* \"contracts/exchange.sol\":13170:13209  payable(msg.sender).transfer(ethAmount) */\n      0x08fc\n        /* \"contracts/exchange.sol\":13199:13208  ethAmount */\n      dup3\n        /* \"contracts/exchange.sol\":13170:13209  payable(msg.sender).transfer(ethAmount) */\n      swap1\n      dup2\n      iszero\n      mul\n      swap1\n      mload(0x40)\n      0x00\n      mload(0x40)\n      dup1\n      dup4\n      sub\n      dup2\n      dup6\n      dup9\n      dup9\n      call\n      swap4\n      pop\n      pop\n      pop\n      pop\n      iszero\n      dup1\n      iszero\n      tag_244\n      jumpi\n      returndatasize\n      0x00\n      dup1\n      returndatacopy\n      revert(0x00, returndatasize)\n    tag_244:\n      pop\n        /* \"contracts/exchange.sol\":13299:13315  _checkRounding() */\n      tag_245\n        /* \"contracts/exchange.sol\":13299:13313  _checkRounding */\n      tag_220\n        /* \"contracts/exchange.sol\":13299:13315  _checkRounding() */\n      jump\t// in\n    tag_245:\n        /* \"contracts/exchange.sol\":11632:13322  {... */\n      pop\n        /* \"contracts/exchange.sol\":11570:13322  function swapTokensForETH(uint amountTokens) external payable {... */\n      pop\n      jump\t// out\n        /* \"contracts/exchange.sol\":4509:6123  function addLiquidity() external payable {... */\n    tag_79:\n        /* \"contracts/exchange.sol\":5014:5015  0 */\n      0x00\n        /* \"contracts/exchange.sol\":5002:5011  msg.value */\n      callvalue\n        /* \"contracts/exchange.sol\":5002:5015  msg.value > 0 */\n      gt\n        /* \"contracts/exchange.sol\":4994:5050  require(msg.value > 0, \"Must provide ETH for liquidity\") */\n      tag_247\n      jumpi\n      mload(0x40)\n      0x08c379a000000000000000000000000000000000000000000000000000000000\n      dup2\n      mstore\n      0x04\n      add\n      tag_248\n      swap1\n      tag_249\n      jump\t// in\n    tag_248:\n      mload(0x40)\n      dup1\n      swap2\n      sub\n      swap1\n      revert\n    tag_247:\n        /* \"contracts/exchange.sol\":5445:5465  uint256 token_amount */\n      0x00\n        /* \"contracts/exchange.sol\":5497:5509  eth_reserves */\n      sload(0x05)\n        /* \"contracts/exchange.sol\":5485:5494  msg.value */\n      callvalue\n        /* \"contracts/exchange.sol\":5468:5482  token_reserves */\n      sload(0x04)\n        /* \"contracts/exchange.sol\":5468:5494  token_reserves * msg.value */\n      tag_250\n      swap2\n      swap1\n      tag_144\n      jump\t// in\n    tag_250:\n        /* \"contracts/exchange.sol\":5468:5509  token_reserves * msg.value / eth_reserves */\n      tag_251\n      swap2\n      swap1\n      tag_96\n      jump\t// in\n    tag_251:\n        /* \"contracts/exchange.sol\":5445:5509  uint256 token_amount = token_reserves * msg.value / eth_reserves */\n      swap1\n      pop\n        /* \"contracts/exchange.sol\":5591:5596  token */\n      0x03\n      0x00\n      swap1\n      sload\n      swap1\n      0x0100\n      exp\n      swap1\n      div\n      0xffffffffffffffffffffffffffffffffffffffff\n      and\n        /* \"contracts/exchange.sol\":5591:5609  token.transferFrom */\n      0xffffffffffffffffffffffffffffffffffffffff\n      and\n      0x23b872dd\n        /* \"contracts/exchange.sol\":5610:5620  msg.sender */\n      caller\n        /* \"contracts/exchange.sol\":5630:5634  this */\n      address\n        /* \"contracts/exchange.sol\":5637:5649  token_amount */\n      dup5\n        /* \"contracts/exchange.sol\":5591:5650  token.transferFrom(msg.sender, address(this), token_amount) */\n      mload(0x40)\n      dup5\n      0xffffffff\n      and\n      0xe0\n      shl\n      dup2\n      mstore\n      0x04\n      add\n      tag_252\n      swap4\n      swap3\n      swap2\n      swap1\n      tag_137\n      jump\t// in\n    tag_252:\n      0x20\n      mload(0x40)\n      dup1\n      dup4\n      sub\n      dup2\n      0x00\n      dup8\n      dup1\n      extcodesize\n      iszero\n      dup1\n      iszero\n      tag_253\n      jumpi\n      0x00\n      dup1\n      revert\n    tag_253:\n      pop\n      gas\n      call\n      iszero\n      dup1\n      iszero\n      tag_255\n      jumpi\n      returndatasize\n      0x00\n      dup1\n      returndatacopy\n      revert(0x00, returndatasize)\n    tag_255:\n      pop\n      pop\n      pop\n      pop\n      mload(0x40)\n      returndatasize\n      not(0x1f)\n      0x1f\n      dup3\n      add\n      and\n      dup3\n      add\n      dup1\n      0x40\n      mstore\n      pop\n      dup2\n      add\n      swap1\n      tag_256\n      swap2\n      swap1\n      tag_142\n      jump\t// in\n    tag_256:\n        /* \"contracts/exchange.sol\":5583:5692  require(token.transferFrom(msg.sender, address(this), token_amount),... */\n      tag_257\n      jumpi\n      mload(0x40)\n      0x08c379a000000000000000000000000000000000000000000000000000000000\n      dup2\n      mstore\n      0x04\n      add\n      tag_258\n      swap1\n      tag_172\n      jump\t// in\n    tag_258:\n      mload(0x40)\n      dup1\n      swap2\n      sub\n      swap1\n      revert\n    tag_257:\n        /* \"contracts/exchange.sol\":5752:5764  token_amount */\n      dup1\n        /* \"contracts/exchange.sol\":5734:5748  token_reserves */\n      0x04\n      0x00\n        /* \"contracts/exchange.sol\":5734:5764  token_reserves += token_amount */\n      dup3\n      dup3\n      sload\n      tag_259\n      swap2\n      swap1\n      tag_103\n      jump\t// in\n    tag_259:\n      swap3\n      pop\n      pop\n      dup2\n      swap1\n      sstore\n      pop\n        /* \"contracts/exchange.sol\":5790:5799  msg.value */\n      callvalue\n        /* \"contracts/exchange.sol\":5774:5786  eth_reserves */\n      0x05\n      0x00\n        /* \"contracts/exchange.sol\":5774:5799  eth_reserves += msg.value */\n      dup3\n      dup3\n      sload\n      tag_260\n      swap2\n      swap1\n      tag_103\n      jump\t// in\n    tag_260:\n      swap3\n      pop\n      pop\n      dup2\n      swap1\n      sstore\n      pop\n        /* \"contracts/exchange.sol\":5830:5842  eth_reserves */\n      sload(0x05)\n        /* \"contracts/exchange.sol\":5813:5827  token_reserves */\n      sload(0x04)\n        /* \"contracts/exchange.sol\":5813:5842  token_reserves * eth_reserves */\n      tag_261\n      swap2\n      swap1\n      tag_144\n      jump\t// in\n    tag_261:\n        /* \"contracts/exchange.sol\":5809:5810  k */\n      0x06\n        /* \"contracts/exchange.sol\":5809:5842  k = token_reserves * eth_reserves */\n      dup2\n      swap1\n      sstore\n      pop\n        /* \"contracts/exchange.sol\":5913:5925  eth_reserves */\n      sload(0x05)\n        /* \"contracts/exchange.sol\":5896:5910  token_reserves */\n      sload(0x04)\n        /* \"contracts/exchange.sol\":5896:5925  token_reserves * eth_reserves */\n      tag_262\n      swap2\n      swap1\n      tag_144\n      jump\t// in\n    tag_262:\n        /* \"contracts/exchange.sol\":5892:5893  k */\n      0x06\n        /* \"contracts/exchange.sol\":5892:5925  k = token_reserves * eth_reserves */\n      dup2\n      swap1\n      sstore\n      pop\n        /* \"contracts/exchange.sol\":6017:6026  msg.value */\n      callvalue\n        /* \"contracts/exchange.sol\":5988:6001  userLiquidity */\n      0x09\n        /* \"contracts/exchange.sol\":5988:6013  userLiquidity[msg.sender] */\n      0x00\n        /* \"contracts/exchange.sol\":6002:6012  msg.sender */\n      caller\n        /* \"contracts/exchange.sol\":5988:6013  userLiquidity[msg.sender] */\n      0xffffffffffffffffffffffffffffffffffffffff\n      and\n      0xffffffffffffffffffffffffffffffffffffffff\n      and\n      dup2\n      mstore\n      0x20\n      add\n      swap1\n      dup2\n      mstore\n      0x20\n      add\n      0x00\n      keccak256\n      0x00\n        /* \"contracts/exchange.sol\":5988:6026  userLiquidity[msg.sender] += msg.value */\n      dup3\n      dup3\n      sload\n      tag_263\n      swap2\n      swap1\n      tag_103\n      jump\t// in\n    tag_263:\n      swap3\n      pop\n      pop\n      dup2\n      swap1\n      sstore\n      pop\n        /* \"contracts/exchange.sol\":6078:6116  AddLiquidity(msg.sender, token_amount) */\n      0xbb37879e252460856212dc4e8c6edf174e473df9423e3a7feccd21f8c28d587a\n        /* \"contracts/exchange.sol\":6091:6101  msg.sender */\n      caller\n        /* \"contracts/exchange.sol\":6103:6115  token_amount */\n      dup3\n        /* \"contracts/exchange.sol\":6078:6116  AddLiquidity(msg.sender, token_amount) */\n      mload(0x40)\n      tag_264\n      swap3\n      swap2\n      swap1\n      tag_165\n      jump\t// in\n    tag_264:\n      mload(0x40)\n      dup1\n      swap2\n      sub\n      swap1\n      log1\n        /* \"contracts/exchange.sol\":4550:6123  {... */\n      pop\n        /* \"contracts/exchange.sol\":4509:6123  function addLiquidity() external payable {... */\n      jump\t// out\n        /* \"contracts/exchange.sol\":3602:3870  function amountETHGivenToken(uint amountETH) public view returns (uint) {... */\n    tag_83:\n        /* \"contracts/exchange.sol\":3668:3672  uint */\n      0x00\n        /* \"contracts/exchange.sol\":3602:3870  function amountETHGivenToken(uint amountETH) public view returns (uint) {... */\n      swap2\n      swap1\n      pop\n      jump\t// out\n        /* \"contracts/exchange.sol\":705:725  address public admin */\n    tag_87:\n      0x01\n      0x00\n      swap1\n      sload\n      swap1\n      0x0100\n      exp\n      swap1\n      div\n      0xffffffffffffffffffffffffffffffffffffffff\n      and\n      dup2\n      jump\t// out\n        /* \"contracts/exchange.sol\":17969:18321  function _checkRounding() private {... */\n    tag_220:\n        /* \"contracts/exchange.sol\":18013:18023  uint check */\n      0x00\n        /* \"contracts/exchange.sol\":18043:18055  eth_reserves */\n      sload(0x05)\n        /* \"contracts/exchange.sol\":18026:18040  token_reserves */\n      sload(0x04)\n        /* \"contracts/exchange.sol\":18026:18055  token_reserves * eth_reserves */\n      tag_267\n      swap2\n      swap1\n      tag_144\n      jump\t// in\n    tag_267:\n        /* \"contracts/exchange.sol\":18013:18055  uint check = token_reserves * eth_reserves */\n      swap1\n      pop\n        /* \"contracts/exchange.sol\":18078:18079  k */\n      sload(0x06)\n        /* \"contracts/exchange.sol\":18069:18074  check */\n      dup2\n        /* \"contracts/exchange.sol\":18069:18079  check >= k */\n      lt\n        /* \"contracts/exchange.sol\":18065:18171  if (check >= k) {... */\n      tag_268\n      jumpi\n        /* \"contracts/exchange.sol\":18111:18112  k */\n      sload(0x06)\n        /* \"contracts/exchange.sol\":18103:18108  check */\n      dup2\n        /* \"contracts/exchange.sol\":18103:18112  check - k */\n      tag_269\n      swap2\n      swap1\n      tag_109\n      jump\t// in\n    tag_269:\n        /* \"contracts/exchange.sol\":18095:18112  check = check - k */\n      swap1\n      pop\n        /* \"contracts/exchange.sol\":18065:18171  if (check >= k) {... */\n      jump(tag_270)\n    tag_268:\n        /* \"contracts/exchange.sol\":18155:18160  check */\n      dup1\n        /* \"contracts/exchange.sol\":18151:18152  k */\n      sload(0x06)\n        /* \"contracts/exchange.sol\":18151:18160  k - check */\n      tag_271\n      swap2\n      swap1\n      tag_109\n      jump\t// in\n    tag_271:\n        /* \"contracts/exchange.sol\":18143:18160  check = k - check */\n      swap1\n      pop\n        /* \"contracts/exchange.sol\":18065:18171  if (check >= k) {... */\n    tag_270:\n        /* \"contracts/exchange.sol\":18228:18229  1 */\n      0x01\n        /* \"contracts/exchange.sol\":18213:18225  eth_reserves */\n      sload(0x05)\n        /* \"contracts/exchange.sol\":18196:18210  token_reserves */\n      sload(0x04)\n        /* \"contracts/exchange.sol\":18196:18225  token_reserves + eth_reserves */\n      tag_272\n      swap2\n      swap1\n      tag_103\n      jump\t// in\n    tag_272:\n        /* \"contracts/exchange.sol\":18196:18229  token_reserves + eth_reserves + 1 */\n      tag_273\n      swap2\n      swap1\n      tag_103\n      jump\t// in\n    tag_273:\n        /* \"contracts/exchange.sol\":18187:18192  check */\n      dup2\n        /* \"contracts/exchange.sol\":18187:18230  check < (token_reserves + eth_reserves + 1) */\n      lt\n        /* \"contracts/exchange.sol\":18180:18231  assert(check < (token_reserves + eth_reserves + 1)) */\n      tag_274\n      jumpi\n      tag_275\n      tag_276\n      jump\t// in\n    tag_275:\n    tag_274:\n        /* \"contracts/exchange.sol\":18262:18274  eth_reserves */\n      sload(0x05)\n        /* \"contracts/exchange.sol\":18245:18259  token_reserves */\n      sload(0x04)\n        /* \"contracts/exchange.sol\":18245:18274  token_reserves * eth_reserves */\n      tag_277\n      swap2\n      swap1\n      tag_144\n      jump\t// in\n    tag_277:\n        /* \"contracts/exchange.sol\":18241:18242  k */\n      0x06\n        /* \"contracts/exchange.sol\":18241:18274  k = token_reserves * eth_reserves */\n      dup2\n      swap1\n      sstore\n      pop\n        /* \"contracts/exchange.sol\":18003:18321  {... */\n      pop\n        /* \"contracts/exchange.sol\":17969:18321  function _checkRounding() private {... */\n      jump\t// out\n        /* \"#utility.yul\":7:146   */\n    tag_279:\n        /* \"#utility.yul\":53:58   */\n      0x00\n        /* \"#utility.yul\":91:97   */\n      dup2\n        /* \"#utility.yul\":78:98   */\n      calldataload\n        /* \"#utility.yul\":69:98   */\n      swap1\n      pop\n        /* \"#utility.yul\":107:140   */\n      tag_281\n        /* \"#utility.yul\":134:139   */\n      dup2\n        /* \"#utility.yul\":107:140   */\n      tag_282\n      jump\t// in\n    tag_281:\n        /* \"#utility.yul\":7:146   */\n      swap3\n      swap2\n      pop\n      pop\n      jump\t// out\n        /* \"#utility.yul\":152:289   */\n    tag_283:\n        /* \"#utility.yul\":206:211   */\n      0x00\n        /* \"#utility.yul\":237:243   */\n      dup2\n        /* \"#utility.yul\":231:244   */\n      mload\n        /* \"#utility.yul\":222:244   */\n      swap1\n      pop\n        /* \"#utility.yul\":253:283   */\n      tag_285\n        /* \"#utility.yul\":277:282   */\n      dup2\n        /* \"#utility.yul\":253:283   */\n      tag_286\n      jump\t// in\n    tag_285:\n        /* \"#utility.yul\":152:289   */\n      swap3\n      swap2\n      pop\n      pop\n      jump\t// out\n        /* \"#utility.yul\":295:434   */\n    tag_287:\n        /* \"#utility.yul\":341:346   */\n      0x00\n        /* \"#utility.yul\":379:385   */\n      dup2\n        /* \"#utility.yul\":366:386   */\n      calldataload\n        /* \"#utility.yul\":357:386   */\n      swap1\n      pop\n        /* \"#utility.yul\":395:428   */\n      tag_289\n        /* \"#utility.yul\":422:427   */\n      dup2\n        /* \"#utility.yul\":395:428   */\n      tag_290\n      jump\t// in\n    tag_289:\n        /* \"#utility.yul\":295:434   */\n      swap3\n      swap2\n      pop\n      pop\n      jump\t// out\n        /* \"#utility.yul\":440:583   */\n    tag_291:\n        /* \"#utility.yul\":497:502   */\n      0x00\n        /* \"#utility.yul\":528:534   */\n      dup2\n        /* \"#utility.yul\":522:535   */\n      mload\n        /* \"#utility.yul\":513:535   */\n      swap1\n      pop\n        /* \"#utility.yul\":544:577   */\n      tag_293\n        /* \"#utility.yul\":571:576   */\n      dup2\n        /* \"#utility.yul\":544:577   */\n      tag_290\n      jump\t// in\n    tag_293:\n        /* \"#utility.yul\":440:583   */\n      swap3\n      swap2\n      pop\n      pop\n      jump\t// out\n        /* \"#utility.yul\":589:918   */\n    tag_66:\n        /* \"#utility.yul\":648:654   */\n      0x00\n        /* \"#utility.yul\":697:699   */\n      0x20\n        /* \"#utility.yul\":685:694   */\n      dup3\n        /* \"#utility.yul\":676:683   */\n      dup5\n        /* \"#utility.yul\":672:695   */\n      sub\n        /* \"#utility.yul\":668:700   */\n      slt\n        /* \"#utility.yul\":665:784   */\n      iszero\n      tag_295\n      jumpi\n        /* \"#utility.yul\":703:782   */\n      tag_296\n      tag_297\n      jump\t// in\n    tag_296:\n        /* \"#utility.yul\":665:784   */\n    tag_295:\n        /* \"#utility.yul\":823:824   */\n      0x00\n        /* \"#utility.yul\":848:901   */\n      tag_298\n        /* \"#utility.yul\":893:900   */\n      dup5\n        /* \"#utility.yul\":884:890   */\n      dup3\n        /* \"#utility.yul\":873:882   */\n      dup6\n        /* \"#utility.yul\":869:891   */\n      add\n        /* \"#utility.yul\":848:901   */\n      tag_279\n      jump\t// in\n    tag_298:\n        /* \"#utility.yul\":838:901   */\n      swap2\n      pop\n        /* \"#utility.yul\":794:911   */\n      pop\n        /* \"#utility.yul\":589:918   */\n      swap3\n      swap2\n      pop\n      pop\n      jump\t// out\n        /* \"#utility.yul\":924:1269   */\n    tag_142:\n        /* \"#utility.yul\":991:997   */\n      0x00\n        /* \"#utility.yul\":1040:1042   */\n      0x20\n        /* \"#utility.yul\":1028:1037   */\n      dup3\n        /* \"#utility.yul\":1019:1026   */\n      dup5\n        /* \"#utility.yul\":1015:1038   */\n      sub\n        /* \"#utility.yul\":1011:1043   */\n      slt\n        /* \"#utility.yul\":1008:1127   */\n      iszero\n      tag_300\n      jumpi\n        /* \"#utility.yul\":1046:1125   */\n      tag_301\n      tag_297\n      jump\t// in\n    tag_301:\n        /* \"#utility.yul\":1008:1127   */\n    tag_300:\n        /* \"#utility.yul\":1166:1167   */\n      0x00\n        /* \"#utility.yul\":1191:1252   */\n      tag_302\n        /* \"#utility.yul\":1244:1251   */\n      dup5\n        /* \"#utility.yul\":1235:1241   */\n      dup3\n        /* \"#utility.yul\":1224:1233   */\n      dup6\n        /* \"#utility.yul\":1220:1242   */\n      add\n        /* \"#utility.yul\":1191:1252   */\n      tag_283\n      jump\t// in\n    tag_302:\n        /* \"#utility.yul\":1181:1252   */\n      swap2\n      pop\n        /* \"#utility.yul\":1137:1262   */\n      pop\n        /* \"#utility.yul\":924:1269   */\n      swap3\n      swap2\n      pop\n      pop\n      jump\t// out\n        /* \"#utility.yul\":1275:1604   */\n    tag_25:\n        /* \"#utility.yul\":1334:1340   */\n      0x00\n        /* \"#utility.yul\":1383:1385   */\n      0x20\n        /* \"#utility.yul\":1371:1380   */\n      dup3\n        /* \"#utility.yul\":1362:1369   */\n      dup5\n        /* \"#utility.yul\":1358:1381   */\n      sub\n        /* \"#utility.yul\":1354:1386   */\n      slt\n        /* \"#utility.yul\":1351:1470   */\n      iszero\n      tag_304\n      jumpi\n        /* \"#utility.yul\":1389:1468   */\n      tag_305\n      tag_297\n      jump\t// in\n    tag_305:\n        /* \"#utility.yul\":1351:1470   */\n    tag_304:\n        /* \"#utility.yul\":1509:1510   */\n      0x00\n        /* \"#utility.yul\":1534:1587   */\n      tag_306\n        /* \"#utility.yul\":1579:1586   */\n      dup5\n        /* \"#utility.yul\":1570:1576   */\n      dup3\n        /* \"#utility.yul\":1559:1568   */\n      dup6\n        /* \"#utility.yul\":1555:1577   */\n      add\n        /* \"#utility.yul\":1534:1587   */\n      tag_287\n      jump\t// in\n    tag_306:\n        /* \"#utility.yul\":1524:1587   */\n      swap2\n      pop\n        /* \"#utility.yul\":1480:1597   */\n      pop\n        /* \"#utility.yul\":1275:1604   */\n      swap3\n      swap2\n      pop\n      pop\n      jump\t// out\n        /* \"#utility.yul\":1610:1961   */\n    tag_227:\n        /* \"#utility.yul\":1680:1686   */\n      0x00\n        /* \"#utility.yul\":1729:1731   */\n      0x20\n        /* \"#utility.yul\":1717:1726   */\n      dup3\n        /* \"#utility.yul\":1708:1715   */\n      dup5\n        /* \"#utility.yul\":1704:1727   */\n      sub\n        /* \"#utility.yul\":1700:1732   */\n      slt\n        /* \"#utility.yul\":1697:1816   */\n      iszero\n      tag_308\n      jumpi\n        /* \"#utility.yul\":1735:1814   */\n      tag_309\n      tag_297\n      jump\t// in\n    tag_309:\n        /* \"#utility.yul\":1697:1816   */\n    tag_308:\n        /* \"#utility.yul\":1855:1856   */\n      0x00\n        /* \"#utility.yul\":1880:1944   */\n      tag_310\n        /* \"#utility.yul\":1936:1943   */\n      dup5\n        /* \"#utility.yul\":1927:1933   */\n      dup3\n        /* \"#utility.yul\":1916:1925   */\n      dup6\n        /* \"#utility.yul\":1912:1934   */\n      add\n        /* \"#utility.yul\":1880:1944   */\n      tag_291\n      jump\t// in\n    tag_310:\n        /* \"#utility.yul\":1870:1944   */\n      swap2\n      pop\n        /* \"#utility.yul\":1826:1954   */\n      pop\n        /* \"#utility.yul\":1610:1961   */\n      swap3\n      swap2\n      pop\n      pop\n      jump\t// out\n        /* \"#utility.yul\":1967:2085   */\n    tag_311:\n        /* \"#utility.yul\":2054:2078   */\n      tag_313\n        /* \"#utility.yul\":2072:2077   */\n      dup2\n        /* \"#utility.yul\":2054:2078   */\n      tag_314\n      jump\t// in\n    tag_313:\n        /* \"#utility.yul\":2049:2052   */\n      dup3\n        /* \"#utility.yul\":2042:2079   */\n      mstore\n        /* \"#utility.yul\":1967:2085   */\n      pop\n      pop\n      jump\t// out\n        /* \"#utility.yul\":2091:2457   */\n    tag_315:\n        /* \"#utility.yul\":2233:2236   */\n      0x00\n        /* \"#utility.yul\":2254:2321   */\n      tag_317\n        /* \"#utility.yul\":2318:2320   */\n      0x15\n        /* \"#utility.yul\":2313:2316   */\n      dup4\n        /* \"#utility.yul\":2254:2321   */\n      tag_318\n      jump\t// in\n    tag_317:\n        /* \"#utility.yul\":2247:2321   */\n      swap2\n      pop\n        /* \"#utility.yul\":2330:2423   */\n      tag_319\n        /* \"#utility.yul\":2419:2422   */\n      dup3\n        /* \"#utility.yul\":2330:2423   */\n      tag_320\n      jump\t// in\n    tag_319:\n        /* \"#utility.yul\":2448:2450   */\n      0x20\n        /* \"#utility.yul\":2443:2446   */\n      dup3\n        /* \"#utility.yul\":2439:2451   */\n      add\n        /* \"#utility.yul\":2432:2451   */\n      swap1\n      pop\n        /* \"#utility.yul\":2091:2457   */\n      swap2\n      swap1\n      pop\n      jump\t// out\n        /* \"#utility.yul\":2463:2829   */\n    tag_321:\n        /* \"#utility.yul\":2605:2608   */\n      0x00\n        /* \"#utility.yul\":2626:2693   */\n      tag_323\n        /* \"#utility.yul\":2690:2692   */\n      0x18\n        /* \"#utility.yul\":2685:2688   */\n      dup4\n        /* \"#utility.yul\":2626:2693   */\n      tag_318\n      jump\t// in\n    tag_323:\n        /* \"#utility.yul\":2619:2693   */\n      swap2\n      pop\n        /* \"#utility.yul\":2702:2795   */\n      tag_324\n        /* \"#utility.yul\":2791:2794   */\n      dup3\n        /* \"#utility.yul\":2702:2795   */\n      tag_325\n      jump\t// in\n    tag_324:\n        /* \"#utility.yul\":2820:2822   */\n      0x20\n        /* \"#utility.yul\":2815:2818   */\n      dup3\n        /* \"#utility.yul\":2811:2823   */\n      add\n        /* \"#utility.yul\":2804:2823   */\n      swap1\n      pop\n        /* \"#utility.yul\":2463:2829   */\n      swap2\n      swap1\n      pop\n      jump\t// out\n        /* \"#utility.yul\":2835:3201   */\n    tag_326:\n        /* \"#utility.yul\":2977:2980   */\n      0x00\n        /* \"#utility.yul\":2998:3065   */\n      tag_328\n        /* \"#utility.yul\":3062:3064   */\n      0x1b\n        /* \"#utility.yul\":3057:3060   */\n      dup4\n        /* \"#utility.yul\":2998:3065   */\n      tag_318\n      jump\t// in\n    tag_328:\n        /* \"#utility.yul\":2991:3065   */\n      swap2\n      pop\n        /* \"#utility.yul\":3074:3167   */\n      tag_329\n        /* \"#utility.yul\":3163:3166   */\n      dup3\n        /* \"#utility.yul\":3074:3167   */\n      tag_330\n      jump\t// in\n    tag_329:\n        /* \"#utility.yul\":3192:3194   */\n      0x20\n        /* \"#utility.yul\":3187:3190   */\n      dup3\n        /* \"#utility.yul\":3183:3195   */\n      add\n        /* \"#utility.yul\":3176:3195   */\n      swap1\n      pop\n        /* \"#utility.yul\":2835:3201   */\n      swap2\n      swap1\n      pop\n      jump\t// out\n        /* \"#utility.yul\":3207:3573   */\n    tag_331:\n        /* \"#utility.yul\":3349:3352   */\n      0x00\n        /* \"#utility.yul\":3370:3437   */\n      tag_333\n        /* \"#utility.yul\":3434:3436   */\n      0x12\n        /* \"#utility.yul\":3429:3432   */\n      dup4\n        /* \"#utility.yul\":3370:3437   */\n      tag_318\n      jump\t// in\n    tag_333:\n        /* \"#utility.yul\":3363:3437   */\n      swap2\n      pop\n        /* \"#utility.yul\":3446:3539   */\n      tag_334\n        /* \"#utility.yul\":3535:3538   */\n      dup3\n        /* \"#utility.yul\":3446:3539   */\n      tag_335\n      jump\t// in\n    tag_334:\n        /* \"#utility.yul\":3564:3566   */\n      0x20\n        /* \"#utility.yul\":3559:3562   */\n      dup3\n        /* \"#utility.yul\":3555:3567   */\n      add\n        /* \"#utility.yul\":3548:3567   */\n      swap1\n      pop\n        /* \"#utility.yul\":3207:3573   */\n      swap2\n      swap1\n      pop\n      jump\t// out\n        /* \"#utility.yul\":3579:3945   */\n    tag_336:\n        /* \"#utility.yul\":3721:3724   */\n      0x00\n        /* \"#utility.yul\":3742:3809   */\n      tag_338\n        /* \"#utility.yul\":3806:3808   */\n      0x0c\n        /* \"#utility.yul\":3801:3804   */\n      dup4\n        /* \"#utility.yul\":3742:3809   */\n      tag_318\n      jump\t// in\n    tag_338:\n        /* \"#utility.yul\":3735:3809   */\n      swap2\n      pop\n        /* \"#utility.yul\":3818:3911   */\n      tag_339\n        /* \"#utility.yul\":3907:3910   */\n      dup3\n        /* \"#utility.yul\":3818:3911   */\n      tag_340\n      jump\t// in\n    tag_339:\n        /* \"#utility.yul\":3936:3938   */\n      0x20\n        /* \"#utility.yul\":3931:3934   */\n      dup3\n        /* \"#utility.yul\":3927:3939   */\n      add\n        /* \"#utility.yul\":3920:3939   */\n      swap1\n      pop\n        /* \"#utility.yul\":3579:3945   */\n      swap2\n      swap1\n      pop\n      jump\t// out\n        /* \"#utility.yul\":3951:4317   */\n    tag_341:\n        /* \"#utility.yul\":4093:4096   */\n      0x00\n        /* \"#utility.yul\":4114:4181   */\n      tag_343\n        /* \"#utility.yul\":4178:4180   */\n      0x1e\n        /* \"#utility.yul\":4173:4176   */\n      dup4\n        /* \"#utility.yul\":4114:4181   */\n      tag_318\n      jump\t// in\n    tag_343:\n        /* \"#utility.yul\":4107:4181   */\n      swap2\n      pop\n        /* \"#utility.yul\":4190:4283   */\n      tag_344\n        /* \"#utility.yul\":4279:4282   */\n      dup3\n        /* \"#utility.yul\":4190:4283   */\n      tag_345\n      jump\t// in\n    tag_344:\n        /* \"#utility.yul\":4308:4310   */\n      0x20\n        /* \"#utility.yul\":4303:4306   */\n      dup3\n        /* \"#utility.yul\":4299:4311   */\n      add\n        /* \"#utility.yul\":4292:4311   */\n      swap1\n      pop\n        /* \"#utility.yul\":3951:4317   */\n      swap2\n      swap1\n      pop\n      jump\t// out\n        /* \"#utility.yul\":4323:4689   */\n    tag_346:\n        /* \"#utility.yul\":4465:4468   */\n      0x00\n        /* \"#utility.yul\":4486:4553   */\n      tag_348\n        /* \"#utility.yul\":4550:4552   */\n      0x18\n        /* \"#utility.yul\":4545:4548   */\n      dup4\n        /* \"#utility.yul\":4486:4553   */\n      tag_318\n      jump\t// in\n    tag_348:\n        /* \"#utility.yul\":4479:4553   */\n      swap2\n      pop\n        /* \"#utility.yul\":4562:4655   */\n      tag_349\n        /* \"#utility.yul\":4651:4654   */\n      dup3\n        /* \"#utility.yul\":4562:4655   */\n      tag_350\n      jump\t// in\n    tag_349:\n        /* \"#utility.yul\":4680:4682   */\n      0x20\n        /* \"#utility.yul\":4675:4678   */\n      dup3\n        /* \"#utility.yul\":4671:4683   */\n      add\n        /* \"#utility.yul\":4664:4683   */\n      swap1\n      pop\n        /* \"#utility.yul\":4323:4689   */\n      swap2\n      swap1\n      pop\n      jump\t// out\n        /* \"#utility.yul\":4695:5061   */\n    tag_351:\n        /* \"#utility.yul\":4837:4840   */\n      0x00\n        /* \"#utility.yul\":4858:4925   */\n      tag_353\n        /* \"#utility.yul\":4922:4924   */\n      0x1e\n        /* \"#utility.yul\":4917:4920   */\n      dup4\n        /* \"#utility.yul\":4858:4925   */\n      tag_318\n      jump\t// in\n    tag_353:\n        /* \"#utility.yul\":4851:4925   */\n      swap2\n      pop\n        /* \"#utility.yul\":4934:5027   */\n      tag_354\n        /* \"#utility.yul\":5023:5026   */\n      dup3\n        /* \"#utility.yul\":4934:5027   */\n      tag_355\n      jump\t// in\n    tag_354:\n        /* \"#utility.yul\":5052:5054   */\n      0x20\n        /* \"#utility.yul\":5047:5050   */\n      dup3\n        /* \"#utility.yul\":5043:5055   */\n      add\n        /* \"#utility.yul\":5036:5055   */\n      swap1\n      pop\n        /* \"#utility.yul\":4695:5061   */\n      swap2\n      swap1\n      pop\n      jump\t// out\n        /* \"#utility.yul\":5067:5433   */\n    tag_356:\n        /* \"#utility.yul\":5209:5212   */\n      0x00\n        /* \"#utility.yul\":5230:5297   */\n      tag_358\n        /* \"#utility.yul\":5294:5296   */\n      0x1c\n        /* \"#utility.yul\":5289:5292   */\n      dup4\n        /* \"#utility.yul\":5230:5297   */\n      tag_318\n      jump\t// in\n    tag_358:\n        /* \"#utility.yul\":5223:5297   */\n      swap2\n      pop\n        /* \"#utility.yul\":5306:5399   */\n      tag_359\n        /* \"#utility.yul\":5395:5398   */\n      dup3\n        /* \"#utility.yul\":5306:5399   */\n      tag_360\n      jump\t// in\n    tag_359:\n        /* \"#utility.yul\":5424:5426   */\n      0x20\n        /* \"#utility.yul\":5419:5422   */\n      dup3\n        /* \"#utility.yul\":5415:5427   */\n      add\n        /* \"#utility.yul\":5408:5427   */\n      swap1\n      pop\n        /* \"#utility.yul\":5067:5433   */\n      swap2\n      swap1\n      pop\n      jump\t// out\n        /* \"#utility.yul\":5439:5805   */\n    tag_361:\n        /* \"#utility.yul\":5581:5584   */\n      0x00\n        /* \"#utility.yul\":5602:5669   */\n      tag_363\n        /* \"#utility.yul\":5666:5668   */\n      0x15\n        /* \"#utility.yul\":5661:5664   */\n      dup4\n        /* \"#utility.yul\":5602:5669   */\n      tag_318\n      jump\t// in\n    tag_363:\n        /* \"#utility.yul\":5595:5669   */\n      swap2\n      pop\n        /* \"#utility.yul\":5678:5771   */\n      tag_364\n        /* \"#utility.yul\":5767:5770   */\n      dup3\n        /* \"#utility.yul\":5678:5771   */\n      tag_365\n      jump\t// in\n    tag_364:\n        /* \"#utility.yul\":5796:5798   */\n      0x20\n        /* \"#utility.yul\":5791:5794   */\n      dup3\n        /* \"#utility.yul\":5787:5799   */\n      add\n        /* \"#utility.yul\":5780:5799   */\n      swap1\n      pop\n        /* \"#utility.yul\":5439:5805   */\n      swap2\n      swap1\n      pop\n      jump\t// out\n        /* \"#utility.yul\":5811:6177   */\n    tag_366:\n        /* \"#utility.yul\":5953:5956   */\n      0x00\n        /* \"#utility.yul\":5974:6041   */\n      tag_368\n        /* \"#utility.yul\":6038:6040   */\n      0x12\n        /* \"#utility.yul\":6033:6036   */\n      dup4\n        /* \"#utility.yul\":5974:6041   */\n      tag_318\n      jump\t// in\n    tag_368:\n        /* \"#utility.yul\":5967:6041   */\n      swap2\n      pop\n        /* \"#utility.yul\":6050:6143   */\n      tag_369\n        /* \"#utility.yul\":6139:6142   */\n      dup3\n        /* \"#utility.yul\":6050:6143   */\n      tag_370\n      jump\t// in\n    tag_369:\n        /* \"#utility.yul\":6168:6170   */\n      0x20\n        /* \"#utility.yul\":6163:6166   */\n      dup3\n        /* \"#utility.yul\":6159:6171   */\n      add\n        /* \"#utility.yul\":6152:6171   */\n      swap1\n      pop\n        /* \"#utility.yul\":5811:6177   */\n      swap2\n      swap1\n      pop\n      jump\t// out\n        /* \"#utility.yul\":6183:6549   */\n    tag_371:\n        /* \"#utility.yul\":6325:6328   */\n      0x00\n        /* \"#utility.yul\":6346:6413   */\n      tag_373\n        /* \"#utility.yul\":6410:6412   */\n      0x0b\n        /* \"#utility.yul\":6405:6408   */\n      dup4\n        /* \"#utility.yul\":6346:6413   */\n      tag_318\n      jump\t// in\n    tag_373:\n        /* \"#utility.yul\":6339:6413   */\n      swap2\n      pop\n        /* \"#utility.yul\":6422:6515   */\n      tag_374\n        /* \"#utility.yul\":6511:6514   */\n      dup3\n        /* \"#utility.yul\":6422:6515   */\n      tag_375\n      jump\t// in\n    tag_374:\n        /* \"#utility.yul\":6540:6542   */\n      0x20\n        /* \"#utility.yul\":6535:6538   */\n      dup3\n        /* \"#utility.yul\":6531:6543   */\n      add\n        /* \"#utility.yul\":6524:6543   */\n      swap1\n      pop\n        /* \"#utility.yul\":6183:6549   */\n      swap2\n      swap1\n      pop\n      jump\t// out\n        /* \"#utility.yul\":6555:6921   */\n    tag_376:\n        /* \"#utility.yul\":6697:6700   */\n      0x00\n        /* \"#utility.yul\":6718:6785   */\n      tag_378\n        /* \"#utility.yul\":6782:6784   */\n      0x20\n        /* \"#utility.yul\":6777:6780   */\n      dup4\n        /* \"#utility.yul\":6718:6785   */\n      tag_318\n      jump\t// in\n    tag_378:\n        /* \"#utility.yul\":6711:6785   */\n      swap2\n      pop\n        /* \"#utility.yul\":6794:6887   */\n      tag_379\n        /* \"#utility.yul\":6883:6886   */\n      dup3\n        /* \"#utility.yul\":6794:6887   */\n      tag_380\n      jump\t// in\n    tag_379:\n        /* \"#utility.yul\":6912:6914   */\n      0x20\n        /* \"#utility.yul\":6907:6910   */\n      dup3\n        /* \"#utility.yul\":6903:6915   */\n      add\n        /* \"#utility.yul\":6896:6915   */\n      swap1\n      pop\n        /* \"#utility.yul\":6555:6921   */\n      swap2\n      swap1\n      pop\n      jump\t// out\n        /* \"#utility.yul\":6927:7293   */\n    tag_381:\n        /* \"#utility.yul\":7069:7072   */\n      0x00\n        /* \"#utility.yul\":7090:7157   */\n      tag_383\n        /* \"#utility.yul\":7154:7156   */\n      0x16\n        /* \"#utility.yul\":7149:7152   */\n      dup4\n        /* \"#utility.yul\":7090:7157   */\n      tag_318\n      jump\t// in\n    tag_383:\n        /* \"#utility.yul\":7083:7157   */\n      swap2\n      pop\n        /* \"#utility.yul\":7166:7259   */\n      tag_384\n        /* \"#utility.yul\":7255:7258   */\n      dup3\n        /* \"#utility.yul\":7166:7259   */\n      tag_385\n      jump\t// in\n    tag_384:\n        /* \"#utility.yul\":7284:7286   */\n      0x20\n        /* \"#utility.yul\":7279:7282   */\n      dup3\n        /* \"#utility.yul\":7275:7287   */\n      add\n        /* \"#utility.yul\":7268:7287   */\n      swap1\n      pop\n        /* \"#utility.yul\":6927:7293   */\n      swap2\n      swap1\n      pop\n      jump\t// out\n        /* \"#utility.yul\":7299:7665   */\n    tag_386:\n        /* \"#utility.yul\":7441:7444   */\n      0x00\n        /* \"#utility.yul\":7462:7529   */\n      tag_388\n        /* \"#utility.yul\":7526:7528   */\n      0x1f\n        /* \"#utility.yul\":7521:7524   */\n      dup4\n        /* \"#utility.yul\":7462:7529   */\n      tag_318\n      jump\t// in\n    tag_388:\n        /* \"#utility.yul\":7455:7529   */\n      swap2\n      pop\n        /* \"#utility.yul\":7538:7631   */\n      tag_389\n        /* \"#utility.yul\":7627:7630   */\n      dup3\n        /* \"#utility.yul\":7538:7631   */\n      tag_390\n      jump\t// in\n    tag_389:\n        /* \"#utility.yul\":7656:7658   */\n      0x20\n        /* \"#utility.yul\":7651:7654   */\n      dup3\n        /* \"#utility.yul\":7647:7659   */\n      add\n        /* \"#utility.yul\":7640:7659   */\n      swap1\n      pop\n        /* \"#utility.yul\":7299:7665   */\n      swap2\n      swap1\n      pop\n      jump\t// out\n        /* \"#utility.yul\":7671:8037   */\n    tag_391:\n        /* \"#utility.yul\":7813:7816   */\n      0x00\n        /* \"#utility.yul\":7834:7901   */\n      tag_393\n        /* \"#utility.yul\":7898:7900   */\n      0x17\n        /* \"#utility.yul\":7893:7896   */\n      dup4\n        /* \"#utility.yul\":7834:7901   */\n      tag_318\n      jump\t// in\n    tag_393:\n        /* \"#utility.yul\":7827:7901   */\n      swap2\n      pop\n        /* \"#utility.yul\":7910:8003   */\n      tag_394\n        /* \"#utility.yul\":7999:8002   */\n      dup3\n        /* \"#utility.yul\":7910:8003   */\n      tag_395\n      jump\t// in\n    tag_394:\n        /* \"#utility.yul\":8028:8030   */\n      0x20\n        /* \"#utility.yul\":8023:8026   */\n      dup3\n        /* \"#utility.yul\":8019:8031   */\n      add\n        /* \"#utility.yul\":8012:8031   */\n      swap1\n      pop\n        /* \"#utility.yul\":7671:8037   */\n      swap2\n      swap1\n      pop\n      jump\t// out\n        /* \"#utility.yul\":8043:8409   */\n    tag_396:\n        /* \"#utility.yul\":8185:8188   */\n      0x00\n        /* \"#utility.yul\":8206:8273   */\n      tag_398\n        /* \"#utility.yul\":8270:8272   */\n      0x13\n        /* \"#utility.yul\":8265:8268   */\n      dup4\n        /* \"#utility.yul\":8206:8273   */\n      tag_318\n      jump\t// in\n    tag_398:\n        /* \"#utility.yul\":8199:8273   */\n      swap2\n      pop\n        /* \"#utility.yul\":8282:8375   */\n      tag_399\n        /* \"#utility.yul\":8371:8374   */\n      dup3\n        /* \"#utility.yul\":8282:8375   */\n      tag_400\n      jump\t// in\n    tag_399:\n        /* \"#utility.yul\":8400:8402   */\n      0x20\n        /* \"#utility.yul\":8395:8398   */\n      dup3\n        /* \"#utility.yul\":8391:8403   */\n      add\n        /* \"#utility.yul\":8384:8403   */\n      swap1\n      pop\n        /* \"#utility.yul\":8043:8409   */\n      swap2\n      swap1\n      pop\n      jump\t// out\n        /* \"#utility.yul\":8415:8533   */\n    tag_401:\n        /* \"#utility.yul\":8502:8526   */\n      tag_403\n        /* \"#utility.yul\":8520:8525   */\n      dup2\n        /* \"#utility.yul\":8502:8526   */\n      tag_404\n      jump\t// in\n    tag_403:\n        /* \"#utility.yul\":8497:8500   */\n      dup3\n        /* \"#utility.yul\":8490:8527   */\n      mstore\n        /* \"#utility.yul\":8415:8533   */\n      pop\n      pop\n      jump\t// out\n        /* \"#utility.yul\":8539:8761   */\n    tag_89:\n        /* \"#utility.yul\":8632:8636   */\n      0x00\n        /* \"#utility.yul\":8670:8672   */\n      0x20\n        /* \"#utility.yul\":8659:8668   */\n      dup3\n        /* \"#utility.yul\":8655:8673   */\n      add\n        /* \"#utility.yul\":8647:8673   */\n      swap1\n      pop\n        /* \"#utility.yul\":8683:8754   */\n      tag_406\n        /* \"#utility.yul\":8751:8752   */\n      0x00\n        /* \"#utility.yul\":8740:8749   */\n      dup4\n        /* \"#utility.yul\":8736:8753   */\n      add\n        /* \"#utility.yul\":8727:8733   */\n      dup5\n        /* \"#utility.yul\":8683:8754   */\n      tag_311\n      jump\t// in\n    tag_406:\n        /* \"#utility.yul\":8539:8761   */\n      swap3\n      swap2\n      pop\n      pop\n      jump\t// out\n        /* \"#utility.yul\":8767:9209   */\n    tag_137:\n        /* \"#utility.yul\":8916:8920   */\n      0x00\n        /* \"#utility.yul\":8954:8956   */\n      0x60\n        /* \"#utility.yul\":8943:8952   */\n      dup3\n        /* \"#utility.yul\":8939:8957   */\n      add\n        /* \"#utility.yul\":8931:8957   */\n      swap1\n      pop\n        /* \"#utility.yul\":8967:9038   */\n      tag_408\n        /* \"#utility.yul\":9035:9036   */\n      0x00\n        /* \"#utility.yul\":9024:9033   */\n      dup4\n        /* \"#utility.yul\":9020:9037   */\n      add\n        /* \"#utility.yul\":9011:9017   */\n      dup7\n        /* \"#utility.yul\":8967:9038   */\n      tag_311\n      jump\t// in\n    tag_408:\n        /* \"#utility.yul\":9048:9120   */\n      tag_409\n        /* \"#utility.yul\":9116:9118   */\n      0x20\n        /* \"#utility.yul\":9105:9114   */\n      dup4\n        /* \"#utility.yul\":9101:9119   */\n      add\n        /* \"#utility.yul\":9092:9098   */\n      dup6\n        /* \"#utility.yul\":9048:9120   */\n      tag_311\n      jump\t// in\n    tag_409:\n        /* \"#utility.yul\":9130:9202   */\n      tag_410\n        /* \"#utility.yul\":9198:9200   */\n      0x40\n        /* \"#utility.yul\":9187:9196   */\n      dup4\n        /* \"#utility.yul\":9183:9201   */\n      add\n        /* \"#utility.yul\":9174:9180   */\n      dup5\n        /* \"#utility.yul\":9130:9202   */\n      tag_401\n      jump\t// in\n    tag_410:\n        /* \"#utility.yul\":8767:9209   */\n      swap5\n      swap4\n      pop\n      pop\n      pop\n      pop\n      jump\t// out\n        /* \"#utility.yul\":9215:9547   */\n    tag_165:\n        /* \"#utility.yul\":9336:9340   */\n      0x00\n        /* \"#utility.yul\":9374:9376   */\n      0x40\n        /* \"#utility.yul\":9363:9372   */\n      dup3\n        /* \"#utility.yul\":9359:9377   */\n      add\n        /* \"#utility.yul\":9351:9377   */\n      swap1\n      pop\n        /* \"#utility.yul\":9387:9458   */\n      tag_412\n        /* \"#utility.yul\":9455:9456   */\n      0x00\n        /* \"#utility.yul\":9444:9453   */\n      dup4\n        /* \"#utility.yul\":9440:9457   */\n      add\n        /* \"#utility.yul\":9431:9437   */\n      dup6\n        /* \"#utility.yul\":9387:9458   */\n      tag_311\n      jump\t// in\n    tag_412:\n        /* \"#utility.yul\":9468:9540   */\n      tag_413\n        /* \"#utility.yul\":9536:9538   */\n      0x20\n        /* \"#utility.yul\":9525:9534   */\n      dup4\n        /* \"#utility.yul\":9521:9539   */\n      add\n        /* \"#utility.yul\":9512:9518   */\n      dup5\n        /* \"#utility.yul\":9468:9540   */\n      tag_401\n      jump\t// in\n    tag_413:\n        /* \"#utility.yul\":9215:9547   */\n      swap4\n      swap3\n      pop\n      pop\n      pop\n      jump\t// out\n        /* \"#utility.yul\":9553:9972   */\n    tag_94:\n        /* \"#utility.yul\":9719:9723   */\n      0x00\n        /* \"#utility.yul\":9757:9759   */\n      0x20\n        /* \"#utility.yul\":9746:9755   */\n      dup3\n        /* \"#utility.yul\":9742:9760   */\n      add\n        /* \"#utility.yul\":9734:9760   */\n      swap1\n      pop\n        /* \"#utility.yul\":9806:9815   */\n      dup2\n        /* \"#utility.yul\":9800:9804   */\n      dup2\n        /* \"#utility.yul\":9796:9816   */\n      sub\n        /* \"#utility.yul\":9792:9793   */\n      0x00\n        /* \"#utility.yul\":9781:9790   */\n      dup4\n        /* \"#utility.yul\":9777:9794   */\n      add\n        /* \"#utility.yul\":9770:9817   */\n      mstore\n        /* \"#utility.yul\":9834:9965   */\n      tag_415\n        /* \"#utility.yul\":9960:9964   */\n      dup2\n        /* \"#utility.yul\":9834:9965   */\n      tag_315\n      jump\t// in\n    tag_415:\n        /* \"#utility.yul\":9826:9965   */\n      swap1\n      pop\n        /* \"#utility.yul\":9553:9972   */\n      swap2\n      swap1\n      pop\n      jump\t// out\n        /* \"#utility.yul\":9978:10397   */\n    tag_132:\n        /* \"#utility.yul\":10144:10148   */\n      0x00\n        /* \"#utility.yul\":10182:10184   */\n      0x20\n        /* \"#utility.yul\":10171:10180   */\n      dup3\n        /* \"#utility.yul\":10167:10185   */\n      add\n        /* \"#utility.yul\":10159:10185   */\n      swap1\n      pop\n        /* \"#utility.yul\":10231:10240   */\n      dup2\n        /* \"#utility.yul\":10225:10229   */\n      dup2\n        /* \"#utility.yul\":10221:10241   */\n      sub\n        /* \"#utility.yul\":10217:10218   */\n      0x00\n        /* \"#utility.yul\":10206:10215   */\n      dup4\n        /* \"#utility.yul\":10202:10219   */\n      add\n        /* \"#utility.yul\":10195:10242   */\n      mstore\n        /* \"#utility.yul\":10259:10390   */\n      tag_417\n        /* \"#utility.yul\":10385:10389   */\n      dup2\n        /* \"#utility.yul\":10259:10390   */\n      tag_321\n      jump\t// in\n    tag_417:\n        /* \"#utility.yul\":10251:10390   */\n      swap1\n      pop\n        /* \"#utility.yul\":9978:10397   */\n      swap2\n      swap1\n      pop\n      jump\t// out\n        /* \"#utility.yul\":10403:10822   */\n    tag_135:\n        /* \"#utility.yul\":10569:10573   */\n      0x00\n        /* \"#utility.yul\":10607:10609   */\n      0x20\n        /* \"#utility.yul\":10596:10605   */\n      dup3\n        /* \"#utility.yul\":10592:10610   */\n      add\n        /* \"#utility.yul\":10584:10610   */\n      swap1\n      pop\n        /* \"#utility.yul\":10656:10665   */\n      dup2\n        /* \"#utility.yul\":10650:10654   */\n      dup2\n        /* \"#utility.yul\":10646:10666   */\n      sub\n        /* \"#utility.yul\":10642:10643   */\n      0x00\n        /* \"#utility.yul\":10631:10640   */\n      dup4\n        /* \"#utility.yul\":10627:10644   */\n      add\n        /* \"#utility.yul\":10620:10667   */\n      mstore\n        /* \"#utility.yul\":10684:10815   */\n      tag_419\n        /* \"#utility.yul\":10810:10814   */\n      dup2\n        /* \"#utility.yul\":10684:10815   */\n      tag_326\n      jump\t// in\n    tag_419:\n        /* \"#utility.yul\":10676:10815   */\n      swap1\n      pop\n        /* \"#utility.yul\":10403:10822   */\n      swap2\n      swap1\n      pop\n      jump\t// out\n        /* \"#utility.yul\":10828:11247   */\n    tag_201:\n        /* \"#utility.yul\":10994:10998   */\n      0x00\n        /* \"#utility.yul\":11032:11034   */\n      0x20\n        /* \"#utility.yul\":11021:11030   */\n      dup3\n        /* \"#utility.yul\":11017:11035   */\n      add\n        /* \"#utility.yul\":11009:11035   */\n      swap1\n      pop\n        /* \"#utility.yul\":11081:11090   */\n      dup2\n        /* \"#utility.yul\":11075:11079   */\n      dup2\n        /* \"#utility.yul\":11071:11091   */\n      sub\n        /* \"#utility.yul\":11067:11068   */\n      0x00\n        /* \"#utility.yul\":11056:11065   */\n      dup4\n        /* \"#utility.yul\":11052:11069   */\n      add\n        /* \"#utility.yul\":11045:11092   */\n      mstore\n        /* \"#utility.yul\":11109:11240   */\n      tag_421\n        /* \"#utility.yul\":11235:11239   */\n      dup2\n        /* \"#utility.yul\":11109:11240   */\n      tag_331\n      jump\t// in\n    tag_421:\n        /* \"#utility.yul\":11101:11240   */\n      swap1\n      pop\n        /* \"#utility.yul\":10828:11247   */\n      swap2\n      swap1\n      pop\n      jump\t// out\n        /* \"#utility.yul\":11253:11672   */\n    tag_107:\n        /* \"#utility.yul\":11419:11423   */\n      0x00\n        /* \"#utility.yul\":11457:11459   */\n      0x20\n        /* \"#utility.yul\":11446:11455   */\n      dup3\n        /* \"#utility.yul\":11442:11460   */\n      add\n        /* \"#utility.yul\":11434:11460   */\n      swap1\n      pop\n        /* \"#utility.yul\":11506:11515   */\n      dup2\n        /* \"#utility.yul\":11500:11504   */\n      dup2\n        /* \"#utility.yul\":11496:11516   */\n      sub\n        /* \"#utility.yul\":11492:11493   */\n      0x00\n        /* \"#utility.yul\":11481:11490   */\n      dup4\n        /* \"#utility.yul\":11477:11494   */\n      add\n        /* \"#utility.yul\":11470:11517   */\n      mstore\n        /* \"#utility.yul\":11534:11665   */\n      tag_423\n        /* \"#utility.yul\":11660:11664   */\n      dup2\n        /* \"#utility.yul\":11534:11665   */\n      tag_336\n      jump\t// in\n    tag_423:\n        /* \"#utility.yul\":11526:11665   */\n      swap1\n      pop\n        /* \"#utility.yul\":11253:11672   */\n      swap2\n      swap1\n      pop\n      jump\t// out\n        /* \"#utility.yul\":11678:12097   */\n    tag_249:\n        /* \"#utility.yul\":11844:11848   */\n      0x00\n        /* \"#utility.yul\":11882:11884   */\n      0x20\n        /* \"#utility.yul\":11871:11880   */\n      dup3\n        /* \"#utility.yul\":11867:11885   */\n      add\n        /* \"#utility.yul\":11859:11885   */\n      swap1\n      pop\n        /* \"#utility.yul\":11931:11940   */\n      dup2\n        /* \"#utility.yul\":11925:11929   */\n      dup2\n        /* \"#utility.yul\":11921:11941   */\n      sub\n        /* \"#utility.yul\":11917:11918   */\n      0x00\n        /* \"#utility.yul\":11906:11915   */\n      dup4\n        /* \"#utility.yul\":11902:11919   */\n      add\n        /* \"#utility.yul\":11895:11942   */\n      mstore\n        /* \"#utility.yul\":11959:12090   */\n      tag_425\n        /* \"#utility.yul\":12085:12089   */\n      dup2\n        /* \"#utility.yul\":11959:12090   */\n      tag_341\n      jump\t// in\n    tag_425:\n        /* \"#utility.yul\":11951:12090   */\n      swap1\n      pop\n        /* \"#utility.yul\":11678:12097   */\n      swap2\n      swap1\n      pop\n      jump\t// out\n        /* \"#utility.yul\":12103:12522   */\n    tag_126:\n        /* \"#utility.yul\":12269:12273   */\n      0x00\n        /* \"#utility.yul\":12307:12309   */\n      0x20\n        /* \"#utility.yul\":12296:12305   */\n      dup3\n        /* \"#utility.yul\":12292:12310   */\n      add\n        /* \"#utility.yul\":12284:12310   */\n      swap1\n      pop\n        /* \"#utility.yul\":12356:12365   */\n      dup2\n        /* \"#utility.yul\":12350:12354   */\n      dup2\n        /* \"#utility.yul\":12346:12366   */\n      sub\n        /* \"#utility.yul\":12342:12343   */\n      0x00\n        /* \"#utility.yul\":12331:12340   */\n      dup4\n        /* \"#utility.yul\":12327:12344   */\n      add\n        /* \"#utility.yul\":12320:12367   */\n      mstore\n        /* \"#utility.yul\":12384:12515   */\n      tag_427\n        /* \"#utility.yul\":12510:12514   */\n      dup2\n        /* \"#utility.yul\":12384:12515   */\n      tag_346\n      jump\t// in\n    tag_427:\n        /* \"#utility.yul\":12376:12515   */\n      swap1\n      pop\n        /* \"#utility.yul\":12103:12522   */\n      swap2\n      swap1\n      pop\n      jump\t// out\n        /* \"#utility.yul\":12528:12947   */\n    tag_177:\n        /* \"#utility.yul\":12694:12698   */\n      0x00\n        /* \"#utility.yul\":12732:12734   */\n      0x20\n        /* \"#utility.yul\":12721:12730   */\n      dup3\n        /* \"#utility.yul\":12717:12735   */\n      add\n        /* \"#utility.yul\":12709:12735   */\n      swap1\n      pop\n        /* \"#utility.yul\":12781:12790   */\n      dup2\n        /* \"#utility.yul\":12775:12779   */\n      dup2\n        /* \"#utility.yul\":12771:12791   */\n      sub\n        /* \"#utility.yul\":12767:12768   */\n      0x00\n        /* \"#utility.yul\":12756:12765   */\n      dup4\n        /* \"#utility.yul\":12752:12769   */\n      add\n        /* \"#utility.yul\":12745:12792   */\n      mstore\n        /* \"#utility.yul\":12809:12940   */\n      tag_429\n        /* \"#utility.yul\":12935:12939   */\n      dup2\n        /* \"#utility.yul\":12809:12940   */\n      tag_351\n      jump\t// in\n    tag_429:\n        /* \"#utility.yul\":12801:12940   */\n      swap1\n      pop\n        /* \"#utility.yul\":12528:12947   */\n      swap2\n      swap1\n      pop\n      jump\t// out\n        /* \"#utility.yul\":12953:13372   */\n    tag_155:\n        /* \"#utility.yul\":13119:13123   */\n      0x00\n        /* \"#utility.yul\":13157:13159   */\n      0x20\n        /* \"#utility.yul\":13146:13155   */\n      dup3\n        /* \"#utility.yul\":13142:13160   */\n      add\n        /* \"#utility.yul\":13134:13160   */\n      swap1\n      pop\n        /* \"#utility.yul\":13206:13215   */\n      dup2\n        /* \"#utility.yul\":13200:13204   */\n      dup2\n        /* \"#utility.yul\":13196:13216   */\n      sub\n        /* \"#utility.yul\":13192:13193   */\n      0x00\n        /* \"#utility.yul\":13181:13190   */\n      dup4\n        /* \"#utility.yul\":13177:13194   */\n      add\n        /* \"#utility.yul\":13170:13217   */\n      mstore\n        /* \"#utility.yul\":13234:13365   */\n      tag_431\n        /* \"#utility.yul\":13360:13364   */\n      dup2\n        /* \"#utility.yul\":13234:13365   */\n      tag_356\n      jump\t// in\n    tag_431:\n        /* \"#utility.yul\":13226:13365   */\n      swap1\n      pop\n        /* \"#utility.yul\":12953:13372   */\n      swap2\n      swap1\n      pop\n      jump\t// out\n        /* \"#utility.yul\":13378:13797   */\n    tag_172:\n        /* \"#utility.yul\":13544:13548   */\n      0x00\n        /* \"#utility.yul\":13582:13584   */\n      0x20\n        /* \"#utility.yul\":13571:13580   */\n      dup3\n        /* \"#utility.yul\":13567:13585   */\n      add\n        /* \"#utility.yul\":13559:13585   */\n      swap1\n      pop\n        /* \"#utility.yul\":13631:13640   */\n      dup2\n        /* \"#utility.yul\":13625:13629   */\n      dup2\n        /* \"#utility.yul\":13621:13641   */\n      sub\n        /* \"#utility.yul\":13617:13618   */\n      0x00\n        /* \"#utility.yul\":13606:13615   */\n      dup4\n        /* \"#utility.yul\":13602:13619   */\n      add\n        /* \"#utility.yul\":13595:13642   */\n      mstore\n        /* \"#utility.yul\":13659:13790   */\n      tag_433\n        /* \"#utility.yul\":13785:13789   */\n      dup2\n        /* \"#utility.yul\":13659:13790   */\n      tag_361\n      jump\t// in\n    tag_433:\n        /* \"#utility.yul\":13651:13790   */\n      swap1\n      pop\n        /* \"#utility.yul\":13378:13797   */\n      swap2\n      swap1\n      pop\n      jump\t// out\n        /* \"#utility.yul\":13803:14222   */\n    tag_101:\n        /* \"#utility.yul\":13969:13973   */\n      0x00\n        /* \"#utility.yul\":14007:14009   */\n      0x20\n        /* \"#utility.yul\":13996:14005   */\n      dup3\n        /* \"#utility.yul\":13992:14010   */\n      add\n        /* \"#utility.yul\":13984:14010   */\n      swap1\n      pop\n        /* \"#utility.yul\":14056:14065   */\n      dup2\n        /* \"#utility.yul\":14050:14054   */\n      dup2\n        /* \"#utility.yul\":14046:14066   */\n      sub\n        /* \"#utility.yul\":14042:14043   */\n      0x00\n        /* \"#utility.yul\":14031:14040   */\n      dup4\n        /* \"#utility.yul\":14027:14044   */\n      add\n        /* \"#utility.yul\":14020:14067   */\n      mstore\n        /* \"#utility.yul\":14084:14215   */\n      tag_435\n        /* \"#utility.yul\":14210:14214   */\n      dup2\n        /* \"#utility.yul\":14084:14215   */\n      tag_366\n      jump\t// in\n    tag_435:\n        /* \"#utility.yul\":14076:14215   */\n      swap1\n      pop\n        /* \"#utility.yul\":13803:14222   */\n      swap2\n      swap1\n      pop\n      jump\t// out\n        /* \"#utility.yul\":14228:14647   */\n    tag_206:\n        /* \"#utility.yul\":14394:14398   */\n      0x00\n        /* \"#utility.yul\":14432:14434   */\n      0x20\n        /* \"#utility.yul\":14421:14430   */\n      dup3\n        /* \"#utility.yul\":14417:14435   */\n      add\n        /* \"#utility.yul\":14409:14435   */\n      swap1\n      pop\n        /* \"#utility.yul\":14481:14490   */\n      dup2\n        /* \"#utility.yul\":14475:14479   */\n      dup2\n        /* \"#utility.yul\":14471:14491   */\n      sub\n        /* \"#utility.yul\":14467:14468   */\n      0x00\n        /* \"#utility.yul\":14456:14465   */\n      dup4\n        /* \"#utility.yul\":14452:14469   */\n      add\n        /* \"#utility.yul\":14445:14492   */\n      mstore\n        /* \"#utility.yul\":14509:14640   */\n      tag_437\n        /* \"#utility.yul\":14635:14639   */\n      dup2\n        /* \"#utility.yul\":14509:14640   */\n      tag_371\n      jump\t// in\n    tag_437:\n        /* \"#utility.yul\":14501:14640   */\n      swap1\n      pop\n        /* \"#utility.yul\":14228:14647   */\n      swap2\n      swap1\n      pop\n      jump\t// out\n        /* \"#utility.yul\":14653:15072   */\n    tag_122:\n        /* \"#utility.yul\":14819:14823   */\n      0x00\n        /* \"#utility.yul\":14857:14859   */\n      0x20\n        /* \"#utility.yul\":14846:14855   */\n      dup3\n        /* \"#utility.yul\":14842:14860   */\n      add\n        /* \"#utility.yul\":14834:14860   */\n      swap1\n      pop\n        /* \"#utility.yul\":14906:14915   */\n      dup2\n        /* \"#utility.yul\":14900:14904   */\n      dup2\n        /* \"#utility.yul\":14896:14916   */\n      sub\n        /* \"#utility.yul\":14892:14893   */\n      0x00\n        /* \"#utility.yul\":14881:14890   */\n      dup4\n        /* \"#utility.yul\":14877:14894   */\n      add\n        /* \"#utility.yul\":14870:14917   */\n      mstore\n        /* \"#utility.yul\":14934:15065   */\n      tag_439\n        /* \"#utility.yul\":15060:15064   */\n      dup2\n        /* \"#utility.yul\":14934:15065   */\n      tag_376\n      jump\t// in\n    tag_439:\n        /* \"#utility.yul\":14926:15065   */\n      swap1\n      pop\n        /* \"#utility.yul\":14653:15072   */\n      swap2\n      swap1\n      pop\n      jump\t// out\n        /* \"#utility.yul\":15078:15497   */\n    tag_148:\n        /* \"#utility.yul\":15244:15248   */\n      0x00\n        /* \"#utility.yul\":15282:15284   */\n      0x20\n        /* \"#utility.yul\":15271:15280   */\n      dup3\n        /* \"#utility.yul\":15267:15285   */\n      add\n        /* \"#utility.yul\":15259:15285   */\n      swap1\n      pop\n        /* \"#utility.yul\":15331:15340   */\n      dup2\n        /* \"#utility.yul\":15325:15329   */\n      dup2\n        /* \"#utility.yul\":15321:15341   */\n      sub\n        /* \"#utility.yul\":15317:15318   */\n      0x00\n        /* \"#utility.yul\":15306:15315   */\n      dup4\n        /* \"#utility.yul\":15302:15319   */\n      add\n        /* \"#utility.yul\":15295:15342   */\n      mstore\n        /* \"#utility.yul\":15359:15490   */\n      tag_441\n        /* \"#utility.yul\":15485:15489   */\n      dup2\n        /* \"#utility.yul\":15359:15490   */\n      tag_381\n      jump\t// in\n    tag_441:\n        /* \"#utility.yul\":15351:15490   */\n      swap1\n      pop\n        /* \"#utility.yul\":15078:15497   */\n      swap2\n      swap1\n      pop\n      jump\t// out\n        /* \"#utility.yul\":15503:15922   */\n    tag_158:\n        /* \"#utility.yul\":15669:15673   */\n      0x00\n        /* \"#utility.yul\":15707:15709   */\n      0x20\n        /* \"#utility.yul\":15696:15705   */\n      dup3\n        /* \"#utility.yul\":15692:15710   */\n      add\n        /* \"#utility.yul\":15684:15710   */\n      swap1\n      pop\n        /* \"#utility.yul\":15756:15765   */\n      dup2\n        /* \"#utility.yul\":15750:15754   */\n      dup2\n        /* \"#utility.yul\":15746:15766   */\n      sub\n        /* \"#utility.yul\":15742:15743   */\n      0x00\n        /* \"#utility.yul\":15731:15740   */\n      dup4\n        /* \"#utility.yul\":15727:15744   */\n      add\n        /* \"#utility.yul\":15720:15767   */\n      mstore\n        /* \"#utility.yul\":15784:15915   */\n      tag_443\n        /* \"#utility.yul\":15910:15914   */\n      dup2\n        /* \"#utility.yul\":15784:15915   */\n      tag_386\n      jump\t// in\n    tag_443:\n        /* \"#utility.yul\":15776:15915   */\n      swap1\n      pop\n        /* \"#utility.yul\":15503:15922   */\n      swap2\n      swap1\n      pop\n      jump\t// out\n        /* \"#utility.yul\":15928:16347   */\n    tag_129:\n        /* \"#utility.yul\":16094:16098   */\n      0x00\n        /* \"#utility.yul\":16132:16134   */\n      0x20\n        /* \"#utility.yul\":16121:16130   */\n      dup3\n        /* \"#utility.yul\":16117:16135   */\n      add\n        /* \"#utility.yul\":16109:16135   */\n      swap1\n      pop\n        /* \"#utility.yul\":16181:16190   */\n      dup2\n        /* \"#utility.yul\":16175:16179   */\n      dup2\n        /* \"#utility.yul\":16171:16191   */\n      sub\n        /* \"#utility.yul\":16167:16168   */\n      0x00\n        /* \"#utility.yul\":16156:16165   */\n      dup4\n        /* \"#utility.yul\":16152:16169   */\n      add\n        /* \"#utility.yul\":16145:16192   */\n      mstore\n        /* \"#utility.yul\":16209:16340   */\n      tag_445\n        /* \"#utility.yul\":16335:16339   */\n      dup2\n        /* \"#utility.yul\":16209:16340   */\n      tag_391\n      jump\t// in\n    tag_445:\n        /* \"#utility.yul\":16201:16340   */\n      swap1\n      pop\n        /* \"#utility.yul\":15928:16347   */\n      swap2\n      swap1\n      pop\n      jump\t// out\n        /* \"#utility.yul\":16353:16772   */\n    tag_230:\n        /* \"#utility.yul\":16519:16523   */\n      0x00\n        /* \"#utility.yul\":16557:16559   */\n      0x20\n        /* \"#utility.yul\":16546:16555   */\n      dup3\n        /* \"#utility.yul\":16542:16560   */\n      add\n        /* \"#utility.yul\":16534:16560   */\n      swap1\n      pop\n        /* \"#utility.yul\":16606:16615   */\n      dup2\n        /* \"#utility.yul\":16600:16604   */\n      dup2\n        /* \"#utility.yul\":16596:16616   */\n      sub\n        /* \"#utility.yul\":16592:16593   */\n      0x00\n        /* \"#utility.yul\":16581:16590   */\n      dup4\n        /* \"#utility.yul\":16577:16594   */\n      add\n        /* \"#utility.yul\":16570:16617   */\n      mstore\n        /* \"#utility.yul\":16634:16765   */\n      tag_447\n        /* \"#utility.yul\":16760:16764   */\n      dup2\n        /* \"#utility.yul\":16634:16765   */\n      tag_396\n      jump\t// in\n    tag_447:\n        /* \"#utility.yul\":16626:16765   */\n      swap1\n      pop\n        /* \"#utility.yul\":16353:16772   */\n      swap2\n      swap1\n      pop\n      jump\t// out\n        /* \"#utility.yul\":16778:17000   */\n    tag_28:\n        /* \"#utility.yul\":16871:16875   */\n      0x00\n        /* \"#utility.yul\":16909:16911   */\n      0x20\n        /* \"#utility.yul\":16898:16907   */\n      dup3\n        /* \"#utility.yul\":16894:16912   */\n      add\n        /* \"#utility.yul\":16886:16912   */\n      swap1\n      pop\n        /* \"#utility.yul\":16922:16993   */\n      tag_449\n        /* \"#utility.yul\":16990:16991   */\n      0x00\n        /* \"#utility.yul\":16979:16988   */\n      dup4\n        /* \"#utility.yul\":16975:16992   */\n      add\n        /* \"#utility.yul\":16966:16972   */\n      dup5\n        /* \"#utility.yul\":16922:16993   */\n      tag_401\n      jump\t// in\n    tag_449:\n        /* \"#utility.yul\":16778:17000   */\n      swap3\n      swap2\n      pop\n      pop\n      jump\t// out\n        /* \"#utility.yul\":17087:17256   */\n    tag_318:\n        /* \"#utility.yul\":17171:17182   */\n      0x00\n        /* \"#utility.yul\":17205:17211   */\n      dup3\n        /* \"#utility.yul\":17200:17203   */\n      dup3\n        /* \"#utility.yul\":17193:17212   */\n      mstore\n        /* \"#utility.yul\":17245:17249   */\n      0x20\n        /* \"#utility.yul\":17240:17243   */\n      dup3\n        /* \"#utility.yul\":17236:17250   */\n      add\n        /* \"#utility.yul\":17221:17250   */\n      swap1\n      pop\n        /* \"#utility.yul\":17087:17256   */\n      swap3\n      swap2\n      pop\n      pop\n      jump\t// out\n        /* \"#utility.yul\":17262:17567   */\n    tag_103:\n        /* \"#utility.yul\":17302:17305   */\n      0x00\n        /* \"#utility.yul\":17321:17341   */\n      tag_454\n        /* \"#utility.yul\":17339:17340   */\n      dup3\n        /* \"#utility.yul\":17321:17341   */\n      tag_404\n      jump\t// in\n    tag_454:\n        /* \"#utility.yul\":17316:17341   */\n      swap2\n      pop\n        /* \"#utility.yul\":17355:17375   */\n      tag_455\n        /* \"#utility.yul\":17373:17374   */\n      dup4\n        /* \"#utility.yul\":17355:17375   */\n      tag_404\n      jump\t// in\n    tag_455:\n        /* \"#utility.yul\":17350:17375   */\n      swap3\n      pop\n        /* \"#utility.yul\":17509:17510   */\n      dup3\n        /* \"#utility.yul\":17441:17507   */\n      0xffffffffffffffffffffffffffffffffffffffffffffffffffffffffffffffff\n        /* \"#utility.yul\":17437:17511   */\n      sub\n        /* \"#utility.yul\":17434:17435   */\n      dup3\n        /* \"#utility.yul\":17431:17512   */\n      gt\n        /* \"#utility.yul\":17428:17535   */\n      iszero\n      tag_456\n      jumpi\n        /* \"#utility.yul\":17515:17533   */\n      tag_457\n      tag_458\n      jump\t// in\n    tag_457:\n        /* \"#utility.yul\":17428:17535   */\n    tag_456:\n        /* \"#utility.yul\":17559:17560   */\n      dup3\n        /* \"#utility.yul\":17556:17557   */\n      dup3\n        /* \"#utility.yul\":17552:17561   */\n      add\n        /* \"#utility.yul\":17545:17561   */\n      swap1\n      pop\n        /* \"#utility.yul\":17262:17567   */\n      swap3\n      swap2\n      pop\n      pop\n      jump\t// out\n        /* \"#utility.yul\":17573:17758   */\n    tag_96:\n        /* \"#utility.yul\":17613:17614   */\n      0x00\n        /* \"#utility.yul\":17630:17650   */\n      tag_460\n        /* \"#utility.yul\":17648:17649   */\n      dup3\n        /* \"#utility.yul\":17630:17650   */\n      tag_404\n      jump\t// in\n    tag_460:\n        /* \"#utility.yul\":17625:17650   */\n      swap2\n      pop\n        /* \"#utility.yul\":17664:17684   */\n      tag_461\n        /* \"#utility.yul\":17682:17683   */\n      dup4\n        /* \"#utility.yul\":17664:17684   */\n      tag_404\n      jump\t// in\n    tag_461:\n        /* \"#utility.yul\":17659:17684   */\n      swap3\n      pop\n        /* \"#utility.yul\":17703:17704   */\n      dup3\n        /* \"#utility.yul\":17693:17728   */\n      tag_462\n      jumpi\n        /* \"#utility.yul\":17708:17726   */\n      tag_463\n      tag_464\n      jump\t// in\n    tag_463:\n        /* \"#utility.yul\":17693:17728   */\n    tag_462:\n        /* \"#utility.yul\":17750:17751   */\n      dup3\n        /* \"#utility.yul\":17747:17748   */\n      dup3\n        /* \"#utility.yul\":17743:17752   */\n      div\n        /* \"#utility.yul\":17738:17752   */\n      swap1\n      pop\n        /* \"#utility.yul\":17573:17758   */\n      swap3\n      swap2\n      pop\n      pop\n      jump\t// out\n        /* \"#utility.yul\":17764:18112   */\n    tag_144:\n        /* \"#utility.yul\":17804:17811   */\n      0x00\n        /* \"#utility.yul\":17827:17847   */\n      tag_466\n        /* \"#utility.yul\":17845:17846   */\n      dup3\n        /* \"#utility.yul\":17827:17847   */\n      tag_404\n      jump\t// in\n    tag_466:\n        /* \"#utility.yul\":17822:17847   */\n      swap2\n      pop\n        /* \"#utility.yul\":17861:17881   */\n      tag_467\n        /* \"#utility.yul\":17879:17880   */\n      dup4\n        /* \"#utility.yul\":17861:17881   */\n      tag_404\n      jump\t// in\n    tag_467:\n        /* \"#utility.yul\":17856:17881   */\n      swap3\n      pop\n        /* \"#utility.yul\":18049:18050   */\n      dup2\n        /* \"#utility.yul\":17981:18047   */\n      0xffffffffffffffffffffffffffffffffffffffffffffffffffffffffffffffff\n        /* \"#utility.yul\":17977:18051   */\n      div\n        /* \"#utility.yul\":17974:17975   */\n      dup4\n        /* \"#utility.yul\":17971:18052   */\n      gt\n        /* \"#utility.yul\":17966:17967   */\n      dup3\n        /* \"#utility.yul\":17959:17968   */\n      iszero\n        /* \"#utility.yul\":17952:17969   */\n      iszero\n        /* \"#utility.yul\":17948:18053   */\n      and\n        /* \"#utility.yul\":17945:18076   */\n      iszero\n      tag_468\n      jumpi\n        /* \"#utility.yul\":18056:18074   */\n      tag_469\n      tag_458\n      jump\t// in\n    tag_469:\n        /* \"#utility.yul\":17945:18076   */\n    tag_468:\n        /* \"#utility.yul\":18104:18105   */\n      dup3\n        /* \"#utility.yul\":18101:18102   */\n      dup3\n        /* \"#utility.yul\":18097:18106   */\n      mul\n        /* \"#utility.yul\":18086:18106   */\n      swap1\n      pop\n        /* \"#utility.yul\":17764:18112   */\n      swap3\n      swap2\n      pop\n      pop\n      jump\t// out\n        /* \"#utility.yul\":18118:18309   */\n    tag_109:\n        /* \"#utility.yul\":18158:18162   */\n      0x00\n        /* \"#utility.yul\":18178:18198   */\n      tag_471\n        /* \"#utility.yul\":18196:18197   */\n      dup3\n        /* \"#utility.yul\":18178:18198   */\n      tag_404\n      jump\t// in\n    tag_471:\n        /* \"#utility.yul\":18173:18198   */\n      swap2\n      pop\n        /* \"#utility.yul\":18212:18232   */\n      tag_472\n        /* \"#utility.yul\":18230:18231   */\n      dup4\n        /* \"#utility.yul\":18212:18232   */\n      tag_404\n      jump\t// in\n    tag_472:\n        /* \"#utility.yul\":18207:18232   */\n      swap3\n      pop\n        /* \"#utility.yul\":18251:18252   */\n      dup3\n        /* \"#utility.yul\":18248:18249   */\n      dup3\n        /* \"#utility.yul\":18245:18253   */\n      lt\n        /* \"#utility.yul\":18242:18276   */\n      iszero\n      tag_473\n      jumpi\n        /* \"#utility.yul\":18256:18274   */\n      tag_474\n      tag_458\n      jump\t// in\n    tag_474:\n        /* \"#utility.yul\":18242:18276   */\n    tag_473:\n        /* \"#utility.yul\":18301:18302   */\n      dup3\n        /* \"#utility.yul\":18298:18299   */\n      dup3\n        /* \"#utility.yul\":18294:18303   */\n      sub\n        /* \"#utility.yul\":18286:18303   */\n      swap1\n      pop\n        /* \"#utility.yul\":18118:18309   */\n      swap3\n      swap2\n      pop\n      pop\n      jump\t// out\n        /* \"#utility.yul\":18315:18411   */\n    tag_314:\n        /* \"#utility.yul\":18352:18359   */\n      0x00\n        /* \"#utility.yul\":18381:18405   */\n      tag_476\n        /* \"#utility.yul\":18399:18404   */\n      dup3\n        /* \"#utility.yul\":18381:18405   */\n      tag_477\n      jump\t// in\n    tag_476:\n        /* \"#utility.yul\":18370:18405   */\n      swap1\n      pop\n        /* \"#utility.yul\":18315:18411   */\n      swap2\n      swap1\n      pop\n      jump\t// out\n        /* \"#utility.yul\":18417:18507   */\n    tag_478:\n        /* \"#utility.yul\":18451:18458   */\n      0x00\n        /* \"#utility.yul\":18494:18499   */\n      dup2\n        /* \"#utility.yul\":18487:18500   */\n      iszero\n        /* \"#utility.yul\":18480:18501   */\n      iszero\n        /* \"#utility.yul\":18469:18501   */\n      swap1\n      pop\n        /* \"#utility.yul\":18417:18507   */\n      swap2\n      swap1\n      pop\n      jump\t// out\n        /* \"#utility.yul\":18513:18639   */\n    tag_477:\n        /* \"#utility.yul\":18550:18557   */\n      0x00\n        /* \"#utility.yul\":18590:18632   */\n      0xffffffffffffffffffffffffffffffffffffffff\n        /* \"#utility.yul\":18583:18588   */\n      dup3\n        /* \"#utility.yul\":18579:18633   */\n      and\n        /* \"#utility.yul\":18568:18633   */\n      swap1\n      pop\n        /* \"#utility.yul\":18513:18639   */\n      swap2\n      swap1\n      pop\n      jump\t// out\n        /* \"#utility.yul\":18645:18722   */\n    tag_404:\n        /* \"#utility.yul\":18682:18689   */\n      0x00\n        /* \"#utility.yul\":18711:18716   */\n      dup2\n        /* \"#utility.yul\":18700:18716   */\n      swap1\n      pop\n        /* \"#utility.yul\":18645:18722   */\n      swap2\n      swap1\n      pop\n      jump\t// out\n        /* \"#utility.yul\":18728:18908   */\n    tag_276:\n        /* \"#utility.yul\":18776:18853   */\n      0x4e487b7100000000000000000000000000000000000000000000000000000000\n        /* \"#utility.yul\":18773:18774   */\n      0x00\n        /* \"#utility.yul\":18766:18854   */\n      mstore\n        /* \"#utility.yul\":18873:18877   */\n      0x01\n        /* \"#utility.yul\":18870:18871   */\n      0x04\n        /* \"#utility.yul\":18863:18878   */\n      mstore\n        /* \"#utility.yul\":18897:18901   */\n      0x24\n        /* \"#utility.yul\":18894:18895   */\n      0x00\n        /* \"#utility.yul\":18887:18902   */\n      revert\n        /* \"#utility.yul\":18914:19094   */\n    tag_458:\n        /* \"#utility.yul\":18962:19039   */\n      0x4e487b7100000000000000000000000000000000000000000000000000000000\n        /* \"#utility.yul\":18959:18960   */\n      0x00\n        /* \"#utility.yul\":18952:19040   */\n      mstore\n        /* \"#utility.yul\":19059:19063   */\n      0x11\n        /* \"#utility.yul\":19056:19057   */\n      0x04\n        /* \"#utility.yul\":19049:19064   */\n      mstore\n        /* \"#utility.yul\":19083:19087   */\n      0x24\n        /* \"#utility.yul\":19080:19081   */\n      0x00\n        /* \"#utility.yul\":19073:19088   */\n      revert\n        /* \"#utility.yul\":19100:19280   */\n    tag_464:\n        /* \"#utility.yul\":19148:19225   */\n      0x4e487b7100000000000000000000000000000000000000000000000000000000\n        /* \"#utility.yul\":19145:19146   */\n      0x00\n        /* \"#utility.yul\":19138:19226   */\n      mstore\n        /* \"#utility.yul\":19245:19249   */\n      0x12\n        /* \"#utility.yul\":19242:19243   */\n      0x04\n        /* \"#utility.yul\":19235:19250   */\n      mstore\n        /* \"#utility.yul\":19269:19273   */\n      0x24\n        /* \"#utility.yul\":19266:19267   */\n      0x00\n        /* \"#utility.yul\":19259:19274   */\n      revert\n        /* \"#utility.yul\":19409:19526   */\n    tag_297:\n        /* \"#utility.yul\":19518:19519   */\n      0x00\n        /* \"#utility.yul\":19515:19516   */\n      dup1\n        /* \"#utility.yul\":19508:19520   */\n      revert\n        /* \"#utility.yul\":19532:19703   */\n    tag_320:\n        /* \"#utility.yul\":19672:19695   */\n      0x4e6f20746f6b656e7320696e2072657365727665730000000000000000000000\n        /* \"#utility.yul\":19668:19669   */\n      0x00\n        /* \"#utility.yul\":19660:19666   */\n      dup3\n        /* \"#utility.yul\":19656:19670   */\n      add\n        /* \"#utility.yul\":19649:19696   */\n      mstore\n        /* \"#utility.yul\":19532:19703   */\n      pop\n      jump\t// out\n        /* \"#utility.yul\":19709:19883   */\n    tag_325:\n        /* \"#utility.yul\":19849:19875   */\n      0x4e6565642045544820746f2063726561746520706f6f6c2e0000000000000000\n        /* \"#utility.yul\":19845:19846   */\n      0x00\n        /* \"#utility.yul\":19837:19843   */\n      dup3\n        /* \"#utility.yul\":19833:19847   */\n      add\n        /* \"#utility.yul\":19826:19876   */\n      mstore\n        /* \"#utility.yul\":19709:19883   */\n      pop\n      jump\t// out\n        /* \"#utility.yul\":19889:20066   */\n    tag_330:\n        /* \"#utility.yul\":20029:20058   */\n      0x4e65656420746f6b656e7320746f2063726561746520706f6f6c2e0000000000\n        /* \"#utility.yul\":20025:20026   */\n      0x00\n        /* \"#utility.yul\":20017:20023   */\n      dup3\n        /* \"#utility.yul\":20013:20027   */\n      add\n        /* \"#utility.yul\":20006:20059   */\n      mstore\n        /* \"#utility.yul\":19889:20066   */\n      pop\n      jump\t// out\n        /* \"#utility.yul\":20072:20240   */\n    tag_335:\n        /* \"#utility.yul\":20212:20232   */\n      0x4e6f2045544820696e2072657365727665730000000000000000000000000000\n        /* \"#utility.yul\":20208:20209   */\n      0x00\n        /* \"#utility.yul\":20200:20206   */\n      dup3\n        /* \"#utility.yul\":20196:20210   */\n      add\n        /* \"#utility.yul\":20189:20233   */\n      mstore\n        /* \"#utility.yul\":20072:20240   */\n      pop\n      jump\t// out\n        /* \"#utility.yul\":20246:20408   */\n    tag_340:\n        /* \"#utility.yul\":20386:20400   */\n      0x496e76616c696420737761700000000000000000000000000000000000000000\n        /* \"#utility.yul\":20382:20383   */\n      0x00\n        /* \"#utility.yul\":20374:20380   */\n      dup3\n        /* \"#utility.yul\":20370:20384   */\n      add\n        /* \"#utility.yul\":20363:20401   */\n      mstore\n        /* \"#utility.yul\":20246:20408   */\n      pop\n      jump\t// out\n        /* \"#utility.yul\":20414:20594   */\n    tag_345:\n        /* \"#utility.yul\":20554:20586   */\n      0x4d7573742070726f766964652045544820666f72206c69717569646974790000\n        /* \"#utility.yul\":20550:20551   */\n      0x00\n        /* \"#utility.yul\":20542:20548   */\n      dup3\n        /* \"#utility.yul\":20538:20552   */\n      add\n        /* \"#utility.yul\":20531:20587   */\n      mstore\n        /* \"#utility.yul\":20414:20594   */\n      pop\n      jump\t// out\n        /* \"#utility.yul\":20600:20774   */\n    tag_350:\n        /* \"#utility.yul\":20740:20766   */\n      0x546f6b656e20726573657276657320776173206e6f7420300000000000000000\n        /* \"#utility.yul\":20736:20737   */\n      0x00\n        /* \"#utility.yul\":20728:20734   */\n      dup3\n        /* \"#utility.yul\":20724:20738   */\n      add\n        /* \"#utility.yul\":20717:20767   */\n      mstore\n        /* \"#utility.yul\":20600:20774   */\n      pop\n      jump\t// out\n        /* \"#utility.yul\":20780:20960   */\n    tag_355:\n        /* \"#utility.yul\":20920:20952   */\n      0x4e6f7420656e6f756768206c697175696469747920746f2072656d6f76650000\n        /* \"#utility.yul\":20916:20917   */\n      0x00\n        /* \"#utility.yul\":20908:20914   */\n      dup3\n        /* \"#utility.yul\":20904:20918   */\n      add\n        /* \"#utility.yul\":20897:20953   */\n      mstore\n        /* \"#utility.yul\":20780:20960   */\n      pop\n      jump\t// out\n        /* \"#utility.yul\":20966:21144   */\n    tag_360:\n        /* \"#utility.yul\":21106:21136   */\n      0x496e73756666696369656e742045544820696e20726573657276657300000000\n        /* \"#utility.yul\":21102:21103   */\n      0x00\n        /* \"#utility.yul\":21094:21100   */\n      dup3\n        /* \"#utility.yul\":21090:21104   */\n      add\n        /* \"#utility.yul\":21083:21137   */\n      mstore\n        /* \"#utility.yul\":20966:21144   */\n      pop\n      jump\t// out\n        /* \"#utility.yul\":21150:21321   */\n    tag_365:\n        /* \"#utility.yul\":21290:21313   */\n      0x546f6b656e207472616e73666572206661696c65640000000000000000000000\n        /* \"#utility.yul\":21286:21287   */\n      0x00\n        /* \"#utility.yul\":21278:21284   */\n      dup3\n        /* \"#utility.yul\":21274:21288   */\n      add\n        /* \"#utility.yul\":21267:21314   */\n      mstore\n        /* \"#utility.yul\":21150:21321   */\n      pop\n      jump\t// out\n        /* \"#utility.yul\":21327:21495   */\n    tag_370:\n        /* \"#utility.yul\":21467:21487   */\n      0x52657365727665732061726520656d7074790000000000000000000000000000\n        /* \"#utility.yul\":21463:21464   */\n      0x00\n        /* \"#utility.yul\":21455:21461   */\n      dup3\n        /* \"#utility.yul\":21451:21465   */\n      add\n        /* \"#utility.yul\":21444:21488   */\n      mstore\n        /* \"#utility.yul\":21327:21495   */\n      pop\n      jump\t// out\n        /* \"#utility.yul\":21501:21662   */\n    tag_375:\n        /* \"#utility.yul\":21641:21654   */\n      0x4e6f204554482073656e74000000000000000000000000000000000000000000\n        /* \"#utility.yul\":21637:21638   */\n      0x00\n        /* \"#utility.yul\":21629:21635   */\n      dup3\n        /* \"#utility.yul\":21625:21639   */\n      add\n        /* \"#utility.yul\":21618:21655   */\n      mstore\n        /* \"#utility.yul\":21501:21662   */\n      pop\n      jump\t// out\n        /* \"#utility.yul\":21668:21850   */\n    tag_380:\n        /* \"#utility.yul\":21808:21842   */\n      0x4f776e61626c653a2063616c6c6572206973206e6f7420746865206f776e6572\n        /* \"#utility.yul\":21804:21805   */\n      0x00\n        /* \"#utility.yul\":21796:21802   */\n      dup3\n        /* \"#utility.yul\":21792:21806   */\n      add\n        /* \"#utility.yul\":21785:21843   */\n      mstore\n        /* \"#utility.yul\":21668:21850   */\n      pop\n      jump\t// out\n        /* \"#utility.yul\":21856:22028   */\n    tag_385:\n        /* \"#utility.yul\":21996:22020   */\n      0x4e6f206c697175696469747920746f2072656d6f766500000000000000000000\n        /* \"#utility.yul\":21992:21993   */\n      0x00\n        /* \"#utility.yul\":21984:21990   */\n      dup3\n        /* \"#utility.yul\":21980:21994   */\n      add\n        /* \"#utility.yul\":21973:22021   */\n      mstore\n        /* \"#utility.yul\":21856:22028   */\n      pop\n      jump\t// out\n        /* \"#utility.yul\":22034:22215   */\n    tag_390:\n        /* \"#utility.yul\":22174:22207   */\n      0x496e73756666696369656e7420746f6b656e7320696e20726573657276657300\n        /* \"#utility.yul\":22170:22171   */\n      0x00\n        /* \"#utility.yul\":22162:22168   */\n      dup3\n        /* \"#utility.yul\":22158:22172   */\n      add\n        /* \"#utility.yul\":22151:22208   */\n      mstore\n        /* \"#utility.yul\":22034:22215   */\n      pop\n      jump\t// out\n        /* \"#utility.yul\":22221:22394   */\n    tag_395:\n        /* \"#utility.yul\":22361:22386   */\n      0x45544820726573657276657320776173206e6f7420302e000000000000000000\n        /* \"#utility.yul\":22357:22358   */\n      0x00\n        /* \"#utility.yul\":22349:22355   */\n      dup3\n        /* \"#utility.yul\":22345:22359   */\n      add\n        /* \"#utility.yul\":22338:22387   */\n      mstore\n        /* \"#utility.yul\":22221:22394   */\n      pop\n      jump\t// out\n        /* \"#utility.yul\":22400:22569   */\n    tag_400:\n        /* \"#utility.yul\":22540:22561   */\n      0x496e73756666696369656e7420746f6b656e7300000000000000000000000000\n        /* \"#utility.yul\":22536:22537   */\n      0x00\n        /* \"#utility.yul\":22528:22534   */\n      dup3\n        /* \"#utility.yul\":22524:22538   */\n      add\n        /* \"#utility.yul\":22517:22562   */\n      mstore\n        /* \"#utility.yul\":22400:22569   */\n      pop\n      jump\t// out\n        /* \"#utility.yul\":22575:22697   */\n    tag_282:\n        /* \"#utility.yul\":22648:22672   */\n      tag_506\n        /* \"#utility.yul\":22666:22671   */\n      dup2\n        /* \"#utility.yul\":22648:22672   */\n      tag_314\n      jump\t// in\n    tag_506:\n        /* \"#utility.yul\":22641:22646   */\n      dup2\n        /* \"#utility.yul\":22638:22673   */\n      eq\n        /* \"#utility.yul\":22628:22691   */\n      tag_507\n      jumpi\n        /* \"#utility.yul\":22687:22688   */\n      0x00\n        /* \"#utility.yul\":22684:22685   */\n      dup1\n        /* \"#utility.yul\":22677:22689   */\n      revert\n        /* \"#utility.yul\":22628:22691   */\n    tag_507:\n        /* \"#utility.yul\":22575:22697   */\n      pop\n      jump\t// out\n        /* \"#utility.yul\":22703:22819   */\n    tag_286:\n        /* \"#utility.yul\":22773:22794   */\n      tag_509\n        /* \"#utility.yul\":22788:22793   */\n      dup2\n        /* \"#utility.yul\":22773:22794   */\n      tag_478\n      jump\t// in\n    tag_509:\n        /* \"#utility.yul\":22766:22771   */\n      dup2\n        /* \"#utility.yul\":22763:22795   */\n      eq\n        /* \"#utility.yul\":22753:22813   */\n      tag_510\n      jumpi\n        /* \"#utility.yul\":22809:22810   */\n      0x00\n        /* \"#utility.yul\":22806:22807   */\n      dup1\n        /* \"#utility.yul\":22799:22811   */\n      revert\n        /* \"#utility.yul\":22753:22813   */\n    tag_510:\n        /* \"#utility.yul\":22703:22819   */\n      pop\n      jump\t// out\n        /* \"#utility.yul\":22825:22947   */\n    tag_290:\n        /* \"#utility.yul\":22898:22922   */\n      tag_512\n        /* \"#utility.yul\":22916:22921   */\n      dup2\n        /* \"#utility.yul\":22898:22922   */\n      tag_404\n      jump\t// in\n    tag_512:\n        /* \"#utility.yul\":22891:22896   */\n      dup2\n        /* \"#utility.yul\":22888:22923   */\n      eq\n        /* \"#utility.yul\":22878:22941   */\n      tag_513\n      jumpi\n        /* \"#utility.yul\":22937:22938   */\n      0x00\n        /* \"#utility.yul\":22934:22935   */\n      dup1\n        /* \"#utility.yul\":22927:22939   */\n      revert\n        /* \"#utility.yul\":22878:22941   */\n    tag_513:\n        /* \"#utility.yul\":22825:22947   */\n      pop\n      jump\t// out\n\n    auxdata: 0xa2646970667358221220afd118624a4263878a0f0675946d0f8b9a4ecb371ec4c6a53b0b64366bbe778564736f6c63430008070033\n}\n",
				"bytecode": {
					"linkReferences": {},
					"object": "608060405273e37d084c11dcc41204f5645b1274757f4044a4ef600260006101000a81548173ffffffffffffffffffffffffffffffffffffffff021916908373ffffffffffffffffffffffffffffffffffffffff160217905550600260009054906101000a900473ffffffffffffffffffffffffffffffffffffffff16600360006101000a81548173ffffffffffffffffffffffffffffffffffffffff021916908373ffffffffffffffffffffffffffffffffffffffff16021790555060006004556000600555600060075560646008553480156100dc57600080fd5b50336000806101000a81548173ffffffffffffffffffffffffffffffffffffffff021916908373ffffffffffffffffffffffffffffffffffffffff16021790555033600160006101000a81548173ffffffffffffffffffffffffffffffffffffffff021916908373ffffffffffffffffffffffffffffffffffffffff1602179055506122658061016d6000396000f3fe6080604052600436106100fe5760003560e01c80639c8f9f2311610095578063d592cbf611610064578063d592cbf614610310578063e56a645e1461031a578063e8078d9414610336578063eeddd4f614610340578063f851a4401461037d576100fe565b80639c8f9f2314610261578063b4f40c611461027d578063ba4c28c3146102a8578063c38ad273146102e5576100fe565b80638259e6a0116100d15780638259e6a0146101e557806388a780e51461020157806397ba499f1461020b5780639adb3b9714610236576100fe565b8063156ac5ca146101035780632ff6fe761461014057806333aafe151461016b57806358cd35db146101a8575b600080fd5b34801561010f57600080fd5b5061012a600480360381019061012591906117b0565b6103a8565b6040516101379190611d16565b60405180910390f35b34801561014c57600080fd5b506101556103af565b6040516101629190611d16565b60405180910390f35b34801561017757600080fd5b50610192600480360381019061018d91906117b0565b61040a565b60405161019f9190611d16565b60405180910390f35b3480156101b457600080fd5b506101cf60048036038101906101ca91906117b0565b6104e3565b6040516101dc9190611d16565b60405180910390f35b6101ff60048036038101906101fa91906117b0565b6105bc565b005b610209610877565b005b34801561021757600080fd5b50610220610bd2565b60405161022d9190611d16565b60405180910390f35b34801561024257600080fd5b5061024b610bd8565b6040516102589190611d16565b60405180910390f35b61027b600480360381019061027691906117b0565b610bde565b005b34801561028957600080fd5b50610292610f19565b60405161029f9190611d16565b60405180910390f35b3480156102b457600080fd5b506102cf60048036038101906102ca9190611756565b610f1f565b6040516102dc9190611d16565b60405180910390f35b3480156102f157600080fd5b506102fa610f37565b6040516103079190611d16565b60405180910390f35b610318610f92565b005b610334600480360381019061032f91906117b0565b611158565b005b61033e61140c565b005b34801561034c57600080fd5b50610367600480360381019061036291906117b0565b61164e565b6040516103749190611d16565b60405180910390f35b34801561038957600080fd5b50610392611655565b60405161039f9190611a7b565b60405180910390f35b6000919050565b600080600454116103f5576040517f08c379a00000000000000000000000000000000000000000000000000000000081526004016103ec90611af6565b60405180910390fd5b6005546004546104059190611d98565b905090565b60008060045411801561041f57506000600554115b61045e576040517f08c379a000000000000000000000000000000000000000000000000000000000815260040161045590611c36565b60405180910390fd5b60008260055461046e9190611d42565b90506000816006546104809190611d98565b905060045481106104c6576040517f08c379a00000000000000000000000000000000000000000000000000000000081526004016104bd90611b76565b60405180910390fd5b6000816004546104d69190611e23565b9050809350505050919050565b6000806004541180156104f857506000600554115b610537576040517f08c379a000000000000000000000000000000000000000000000000000000000815260040161052e90611c36565b60405180910390fd5b6000826004546105479190611d42565b90506000816006546105599190611d98565b9050600554811061059f576040517f08c379a000000000000000000000000000000000000000000000000000000000815260040161059690611b76565b60405180910390fd5b6000816005546105af9190611e23565b9050809350505050919050565b3373ffffffffffffffffffffffffffffffffffffffff1660008054906101000a900473ffffffffffffffffffffffffffffffffffffffff1673ffffffffffffffffffffffffffffffffffffffff161461064a576040517f08c379a000000000000000000000000000000000000000000000000000000000815260040161064190611c76565b60405180910390fd5b60006004541461068f576040517f08c379a000000000000000000000000000000000000000000000000000000000815260040161068690611bb6565b60405180910390fd5b6000600554146106d4576040517f08c379a00000000000000000000000000000000000000000000000000000000081526004016106cb90611cd6565b60405180910390fd5b60003411610717576040517f08c379a000000000000000000000000000000000000000000000000000000000815260040161070e90611b16565b60405180910390fd5b6000811161075a576040517f08c379a000000000000000000000000000000000000000000000000000000000815260040161075190611b36565b60405180910390fd5b600360009054906101000a900473ffffffffffffffffffffffffffffffffffffffff1673ffffffffffffffffffffffffffffffffffffffff166323b872dd3330846040518463ffffffff1660e01b81526004016107b993929190611a96565b602060405180830381600087803b1580156107d357600080fd5b505af11580156107e7573d6000803e3d6000fd5b505050506040513d601f19601f8201168201806040525081019061080b9190611783565b50346005819055508060048190555060045460055461082a9190611dc9565b60068190555034600960003373ffffffffffffffffffffffffffffffffffffffff1673ffffffffffffffffffffffffffffffffffffffff1681526020019081526020016000208190555050565b6000600960003373ffffffffffffffffffffffffffffffffffffffff1673ffffffffffffffffffffffffffffffffffffffff168152602001908152602001600020549050600081116108fe576040517f08c379a00000000000000000000000000000000000000000000000000000000081526004016108f590611c96565b60405180910390fd5b6000600554670de0b6b3a7640000836109179190611dc9565b6109219190611d98565b90506000670de0b6b3a76400008260045461093c9190611dc9565b6109469190611d98565b905082600554101561098d576040517f08c379a000000000000000000000000000000000000000000000000000000000815260040161098490611bf6565b60405180910390fd5b8060045410156109d2576040517f08c379a00000000000000000000000000000000000000000000000000000000081526004016109c990611cb6565b60405180910390fd5b82600560008282546109e49190611e23565b9250508190555080600460008282546109fd9190611e23565b92505081905550600554600454610a149190611dc9565b6006819055506000600960003373ffffffffffffffffffffffffffffffffffffffff1673ffffffffffffffffffffffffffffffffffffffff168152602001908152602001600020819055503373ffffffffffffffffffffffffffffffffffffffff166108fc849081150290604051600060405180830381858888f19350505050158015610aa5573d6000803e3d6000fd5b50600360009054906101000a900473ffffffffffffffffffffffffffffffffffffffff1673ffffffffffffffffffffffffffffffffffffffff1663a9059cbb33836040518363ffffffff1660e01b8152600401610b03929190611acd565b602060405180830381600087803b158015610b1d57600080fd5b505af1158015610b31573d6000803e3d6000fd5b505050506040513d601f19601f82011682018060405250810190610b559190611783565b610b94576040517f08c379a0000000000000000000000000000000000000000000000000000000008152600401610b8b90611c16565b60405180910390fd5b7fdfdd120ded9b7afc0c23dd5310e93aaa3e1c3b9f75af9b805fab3030842439f23384604051610bc5929190611acd565b60405180910390a1505050565b60055481565b60045481565b80600960003373ffffffffffffffffffffffffffffffffffffffff1673ffffffffffffffffffffffffffffffffffffffff168152602001908152602001600020541015610c60576040517f08c379a0000000000000000000000000000000000000000000000000000000008152600401610c5790611bd6565b60405180910390fd5b600060055460045483610c739190611dc9565b610c7d9190611d98565b9050816005541015610cc4576040517f08c379a0000000000000000000000000000000000000000000000000000000008152600401610cbb90611bf6565b60405180910390fd5b806004541015610d09576040517f08c379a0000000000000000000000000000000000000000000000000000000008152600401610d0090611cb6565b60405180910390fd5b8160056000828254610d1b9190611e23565b925050819055508060046000828254610d349190611e23565b92505081905550600554600454610d4b9190611dc9565b6006819055503373ffffffffffffffffffffffffffffffffffffffff166108fc839081150290604051600060405180830381858888f19350505050158015610d97573d6000803e3d6000fd5b50600360009054906101000a900473ffffffffffffffffffffffffffffffffffffffff1673ffffffffffffffffffffffffffffffffffffffff1663a9059cbb33836040518363ffffffff1660e01b8152600401610df5929190611acd565b602060405180830381600087803b158015610e0f57600080fd5b505af1158015610e23573d6000803e3d6000fd5b505050506040513d601f19601f82011682018060405250810190610e479190611783565b610e86576040517f08c379a0000000000000000000000000000000000000000000000000000000008152600401610e7d90611c16565b60405180910390fd5b81600960003373ffffffffffffffffffffffffffffffffffffffff1673ffffffffffffffffffffffffffffffffffffffff1681526020019081526020016000206000828254610ed59190611e23565b925050819055507fdfdd120ded9b7afc0c23dd5310e93aaa3e1c3b9f75af9b805fab3030842439f23383604051610f0d929190611acd565b60405180910390a15050565b60065481565b60096020528060005260406000206000915090505481565b60008060055411610f7d576040517f08c379a0000000000000000000000000000000000000000000000000000000008152600401610f7490611b56565b60405180910390fd5b600454600554610f8d9190611d98565b905090565b600034905060008111610fda576040517f08c379a0000000000000000000000000000000000000000000000000000000008152600401610fd190611c56565b60405180910390fd5b6000610fe58261040a565b905060045481111561102c576040517f08c379a000000000000000000000000000000000000000000000000000000000815260040161102390611cb6565b60405180910390fd5b816005600082825461103e9190611d42565b9250508190555080600460008282546110579190611e23565b92505081905550600360009054906101000a900473ffffffffffffffffffffffffffffffffffffffff1673ffffffffffffffffffffffffffffffffffffffff1663a9059cbb33836040518363ffffffff1660e01b81526004016110bb929190611acd565b602060405180830381600087803b1580156110d557600080fd5b505af11580156110e9573d6000803e3d6000fd5b505050506040513d601f19601f8201168201806040525081019061110d9190611783565b61114c576040517f08c379a000000000000000000000000000000000000000000000000000000000815260040161114390611c16565b60405180910390fd5b61115461167b565b5050565b80600360009054906101000a900473ffffffffffffffffffffffffffffffffffffffff1673ffffffffffffffffffffffffffffffffffffffff166370a08231336040518263ffffffff1660e01b81526004016111b49190611a7b565b60206040518083038186803b1580156111cc57600080fd5b505afa1580156111e0573d6000803e3d6000fd5b505050506040513d601f19601f8201168201806040525081019061120491906117dd565b1015611245576040517f08c379a000000000000000000000000000000000000000000000000000000000815260040161123c90611cf6565b60405180910390fd5b6000611250826104e3565b9050600554811115611297576040517f08c379a000000000000000000000000000000000000000000000000000000000815260040161128e90611bf6565b60405180910390fd5b600360009054906101000a900473ffffffffffffffffffffffffffffffffffffffff1673ffffffffffffffffffffffffffffffffffffffff166323b872dd3330856040518463ffffffff1660e01b81526004016112f693929190611a96565b602060405180830381600087803b15801561131057600080fd5b505af1158015611324573d6000803e3d6000fd5b505050506040513d601f19601f820116820180604052508101906113489190611783565b611387576040517f08c379a000000000000000000000000000000000000000000000000000000000815260040161137e90611c16565b60405180910390fd5b81600460008282546113999190611d42565b9250508190555080600560008282546113b29190611e23565b925050819055503373ffffffffffffffffffffffffffffffffffffffff166108fc829081150290604051600060405180830381858888f193505050501580156113ff573d6000803e3d6000fd5b5061140861167b565b5050565b6000341161144f576040517f08c379a000000000000000000000000000000000000000000000000000000000815260040161144690611b96565b60405180910390fd5b6000600554346004546114629190611dc9565b61146c9190611d98565b9050600360009054906101000a900473ffffffffffffffffffffffffffffffffffffffff1673ffffffffffffffffffffffffffffffffffffffff166323b872dd3330846040518463ffffffff1660e01b81526004016114cd93929190611a96565b602060405180830381600087803b1580156114e757600080fd5b505af11580156114fb573d6000803e3d6000fd5b505050506040513d601f19601f8201168201806040525081019061151f9190611783565b61155e576040517f08c379a000000000000000000000000000000000000000000000000000000000815260040161155590611c16565b60405180910390fd5b80600460008282546115709190611d42565b9250508190555034600560008282546115899190611d42565b925050819055506005546004546115a09190611dc9565b6006819055506005546004546115b69190611dc9565b60068190555034600960003373ffffffffffffffffffffffffffffffffffffffff1673ffffffffffffffffffffffffffffffffffffffff168152602001908152602001600020600082825461160b9190611d42565b925050819055507fbb37879e252460856212dc4e8c6edf174e473df9423e3a7feccd21f8c28d587a3382604051611643929190611acd565b60405180910390a150565b6000919050565b600160009054906101000a900473ffffffffffffffffffffffffffffffffffffffff1681565b600060055460045461168d9190611dc9565b905060065481106116ad57600654816116a69190611e23565b90506116be565b806006546116bb9190611e23565b90505b60016005546004546116d09190611d42565b6116da9190611d42565b81106116e9576116e8611e9f565b5b6005546004546116f99190611dc9565b60068190555050565b600081359050611711816121ea565b92915050565b60008151905061172681612201565b92915050565b60008135905061173b81612218565b92915050565b60008151905061175081612218565b92915050565b60006020828403121561176c5761176b611f2c565b5b600061177a84828501611702565b91505092915050565b60006020828403121561179957611798611f2c565b5b60006117a784828501611717565b91505092915050565b6000602082840312156117c6576117c5611f2c565b5b60006117d48482850161172c565b91505092915050565b6000602082840312156117f3576117f2611f2c565b5b600061180184828501611741565b91505092915050565b61181381611e57565b82525050565b6000611826601583611d31565b915061183182611f31565b602082019050919050565b6000611849601883611d31565b915061185482611f5a565b602082019050919050565b600061186c601b83611d31565b915061187782611f83565b602082019050919050565b600061188f601283611d31565b915061189a82611fac565b602082019050919050565b60006118b2600c83611d31565b91506118bd82611fd5565b602082019050919050565b60006118d5601e83611d31565b91506118e082611ffe565b602082019050919050565b60006118f8601883611d31565b915061190382612027565b602082019050919050565b600061191b601e83611d31565b915061192682612050565b602082019050919050565b600061193e601c83611d31565b915061194982612079565b602082019050919050565b6000611961601583611d31565b915061196c826120a2565b602082019050919050565b6000611984601283611d31565b915061198f826120cb565b602082019050919050565b60006119a7600b83611d31565b91506119b2826120f4565b602082019050919050565b60006119ca602083611d31565b91506119d58261211d565b602082019050919050565b60006119ed601683611d31565b91506119f882612146565b602082019050919050565b6000611a10601f83611d31565b9150611a1b8261216f565b602082019050919050565b6000611a33601783611d31565b9150611a3e82612198565b602082019050919050565b6000611a56601383611d31565b9150611a61826121c1565b602082019050919050565b611a7581611e95565b82525050565b6000602082019050611a90600083018461180a565b92915050565b6000606082019050611aab600083018661180a565b611ab8602083018561180a565b611ac56040830184611a6c565b949350505050565b6000604082019050611ae2600083018561180a565b611aef6020830184611a6c565b9392505050565b60006020820190508181036000830152611b0f81611819565b9050919050565b60006020820190508181036000830152611b2f8161183c565b9050919050565b60006020820190508181036000830152611b4f8161185f565b9050919050565b60006020820190508181036000830152611b6f81611882565b9050919050565b60006020820190508181036000830152611b8f816118a5565b9050919050565b60006020820190508181036000830152611baf816118c8565b9050919050565b60006020820190508181036000830152611bcf816118eb565b9050919050565b60006020820190508181036000830152611bef8161190e565b9050919050565b60006020820190508181036000830152611c0f81611931565b9050919050565b60006020820190508181036000830152611c2f81611954565b9050919050565b60006020820190508181036000830152611c4f81611977565b9050919050565b60006020820190508181036000830152611c6f8161199a565b9050919050565b60006020820190508181036000830152611c8f816119bd565b9050919050565b60006020820190508181036000830152611caf816119e0565b9050919050565b60006020820190508181036000830152611ccf81611a03565b9050919050565b60006020820190508181036000830152611cef81611a26565b9050919050565b60006020820190508181036000830152611d0f81611a49565b9050919050565b6000602082019050611d2b6000830184611a6c565b92915050565b600082825260208201905092915050565b6000611d4d82611e95565b9150611d5883611e95565b9250827fffffffffffffffffffffffffffffffffffffffffffffffffffffffffffffffff03821115611d8d57611d8c611ece565b5b828201905092915050565b6000611da382611e95565b9150611dae83611e95565b925082611dbe57611dbd611efd565b5b828204905092915050565b6000611dd482611e95565b9150611ddf83611e95565b9250817fffffffffffffffffffffffffffffffffffffffffffffffffffffffffffffffff0483118215151615611e1857611e17611ece565b5b828202905092915050565b6000611e2e82611e95565b9150611e3983611e95565b925082821015611e4c57611e4b611ece565b5b828203905092915050565b6000611e6282611e75565b9050919050565b60008115159050919050565b600073ffffffffffffffffffffffffffffffffffffffff82169050919050565b6000819050919050565b7f4e487b7100000000000000000000000000000000000000000000000000000000600052600160045260246000fd5b7f4e487b7100000000000000000000000000000000000000000000000000000000600052601160045260246000fd5b7f4e487b7100000000000000000000000000000000000000000000000000000000600052601260045260246000fd5b600080fd5b7f4e6f20746f6b656e7320696e2072657365727665730000000000000000000000600082015250565b7f4e6565642045544820746f2063726561746520706f6f6c2e0000000000000000600082015250565b7f4e65656420746f6b656e7320746f2063726561746520706f6f6c2e0000000000600082015250565b7f4e6f2045544820696e2072657365727665730000000000000000000000000000600082015250565b7f496e76616c696420737761700000000000000000000000000000000000000000600082015250565b7f4d7573742070726f766964652045544820666f72206c69717569646974790000600082015250565b7f546f6b656e20726573657276657320776173206e6f7420300000000000000000600082015250565b7f4e6f7420656e6f756768206c697175696469747920746f2072656d6f76650000600082015250565b7f496e73756666696369656e742045544820696e20726573657276657300000000600082015250565b7f546f6b656e207472616e73666572206661696c65640000000000000000000000600082015250565b7f52657365727665732061726520656d7074790000000000000000000000000000600082015250565b7f4e6f204554482073656e74000000000000000000000000000000000000000000600082015250565b7f4f776e61626c653a2063616c6c6572206973206e6f7420746865206f776e6572600082015250565b7f4e6f206c697175696469747920746f2072656d6f766500000000000000000000600082015250565b7f496e73756666696369656e7420746f6b656e7320696e20726573657276657300600082015250565b7f45544820726573657276657320776173206e6f7420302e000000000000000000600082015250565b7f496e73756666696369656e7420746f6b656e7300000000000000000000000000600082015250565b6121f381611e57565b81146121fe57600080fd5b50565b61220a81611e69565b811461221557600080fd5b50565b61222181611e95565b811461222c57600080fd5b5056fea2646970667358221220afd118624a4263878a0f0675946d0f8b9a4ecb371ec4c6a53b0b64366bbe778564736f6c63430008070033",
					"opcodes": "PUSH1 0x80 PUSH1 0x40 MSTORE PUSH20 0xE37D084C11DCC41204F5645B1274757F4044A4EF PUSH1 0x2 PUSH1 0x0 PUSH2 0x100 EXP DUP2 SLOAD DUP2 PUSH20 0xFFFFFFFFFFFFFFFFFFFFFFFFFFFFFFFFFFFFFFFF MUL NOT AND SWAP1 DUP4 PUSH20 0xFFFFFFFFFFFFFFFFFFFFFFFFFFFFFFFFFFFFFFFF AND MUL OR SWAP1 SSTORE POP PUSH1 0x2 PUSH1 0x0 SWAP1 SLOAD SWAP1 PUSH2 0x100 EXP SWAP1 DIV PUSH20 0xFFFFFFFFFFFFFFFFFFFFFFFFFFFFFFFFFFFFFFFF AND PUSH1 0x3 PUSH1 0x0 PUSH2 0x100 EXP DUP2 SLOAD DUP2 PUSH20 0xFFFFFFFFFFFFFFFFFFFFFFFFFFFFFFFFFFFFFFFF MUL NOT AND SWAP1 DUP4 PUSH20 0xFFFFFFFFFFFFFFFFFFFFFFFFFFFFFFFFFFFFFFFF AND MUL OR SWAP1 SSTORE POP PUSH1 0x0 PUSH1 0x4 SSTORE PUSH1 0x0 PUSH1 0x5 SSTORE PUSH1 0x0 PUSH1 0x7 SSTORE PUSH1 0x64 PUSH1 0x8 SSTORE CALLVALUE DUP1 ISZERO PUSH2 0xDC JUMPI PUSH1 0x0 DUP1 REVERT JUMPDEST POP CALLER PUSH1 0x0 DUP1 PUSH2 0x100 EXP DUP2 SLOAD DUP2 PUSH20 0xFFFFFFFFFFFFFFFFFFFFFFFFFFFFFFFFFFFFFFFF MUL NOT AND SWAP1 DUP4 PUSH20 0xFFFFFFFFFFFFFFFFFFFFFFFFFFFFFFFFFFFFFFFF AND MUL OR SWAP1 SSTORE POP CALLER PUSH1 0x1 PUSH1 0x0 PUSH2 0x100 EXP DUP2 SLOAD DUP2 PUSH20 0xFFFFFFFFFFFFFFFFFFFFFFFFFFFFFFFFFFFFFFFF MUL NOT AND SWAP1 DUP4 PUSH20 0xFFFFFFFFFFFFFFFFFFFFFFFFFFFFFFFFFFFFFFFF AND MUL OR SWAP1 SSTORE POP PUSH2 0x2265 DUP1 PUSH2 0x16D PUSH1 0x0 CODECOPY PUSH1 0x0 RETURN INVALID PUSH1 0x80 PUSH1 0x40 MSTORE PUSH1 0x4 CALLDATASIZE LT PUSH2 0xFE JUMPI PUSH1 0x0 CALLDATALOAD PUSH1 0xE0 SHR DUP1 PUSH4 0x9C8F9F23 GT PUSH2 0x95 JUMPI DUP1 PUSH4 0xD592CBF6 GT PUSH2 0x64 JUMPI DUP1 PUSH4 0xD592CBF6 EQ PUSH2 0x310 JUMPI DUP1 PUSH4 0xE56A645E EQ PUSH2 0x31A JUMPI DUP1 PUSH4 0xE8078D94 EQ PUSH2 0x336 JUMPI DUP1 PUSH4 0xEEDDD4F6 EQ PUSH2 0x340 JUMPI DUP1 PUSH4 0xF851A440 EQ PUSH2 0x37D JUMPI PUSH2 0xFE JUMP JUMPDEST DUP1 PUSH4 0x9C8F9F23 EQ PUSH2 0x261 JUMPI DUP1 PUSH4 0xB4F40C61 EQ PUSH2 0x27D JUMPI DUP1 PUSH4 0xBA4C28C3 EQ PUSH2 0x2A8 JUMPI DUP1 PUSH4 0xC38AD273 EQ PUSH2 0x2E5 JUMPI PUSH2 0xFE JUMP JUMPDEST DUP1 PUSH4 0x8259E6A0 GT PUSH2 0xD1 JUMPI DUP1 PUSH4 0x8259E6A0 EQ PUSH2 0x1E5 JUMPI DUP1 PUSH4 0x88A780E5 EQ PUSH2 0x201 JUMPI DUP1 PUSH4 0x97BA499F EQ PUSH2 0x20B JUMPI DUP1 PUSH4 0x9ADB3B97 EQ PUSH2 0x236 JUMPI PUSH2 0xFE JUMP JUMPDEST DUP1 PUSH4 0x156AC5CA EQ PUSH2 0x103 JUMPI DUP1 PUSH4 0x2FF6FE76 EQ PUSH2 0x140 JUMPI DUP1 PUSH4 0x33AAFE15 EQ PUSH2 0x16B JUMPI DUP1 PUSH4 0x58CD35DB EQ PUSH2 0x1A8 JUMPI JUMPDEST PUSH1 0x0 DUP1 REVERT JUMPDEST CALLVALUE DUP1 ISZERO PUSH2 0x10F JUMPI PUSH1 0x0 DUP1 REVERT JUMPDEST POP PUSH2 0x12A PUSH1 0x4 DUP1 CALLDATASIZE SUB DUP2 ADD SWAP1 PUSH2 0x125 SWAP2 SWAP1 PUSH2 0x17B0 JUMP JUMPDEST PUSH2 0x3A8 JUMP JUMPDEST PUSH1 0x40 MLOAD PUSH2 0x137 SWAP2 SWAP1 PUSH2 0x1D16 JUMP JUMPDEST PUSH1 0x40 MLOAD DUP1 SWAP2 SUB SWAP1 RETURN JUMPDEST CALLVALUE DUP1 ISZERO PUSH2 0x14C JUMPI PUSH1 0x0 DUP1 REVERT JUMPDEST POP PUSH2 0x155 PUSH2 0x3AF JUMP JUMPDEST PUSH1 0x40 MLOAD PUSH2 0x162 SWAP2 SWAP1 PUSH2 0x1D16 JUMP JUMPDEST PUSH1 0x40 MLOAD DUP1 SWAP2 SUB SWAP1 RETURN JUMPDEST CALLVALUE DUP1 ISZERO PUSH2 0x177 JUMPI PUSH1 0x0 DUP1 REVERT JUMPDEST POP PUSH2 0x192 PUSH1 0x4 DUP1 CALLDATASIZE SUB DUP2 ADD SWAP1 PUSH2 0x18D SWAP2 SWAP1 PUSH2 0x17B0 JUMP JUMPDEST PUSH2 0x40A JUMP JUMPDEST PUSH1 0x40 MLOAD PUSH2 0x19F SWAP2 SWAP1 PUSH2 0x1D16 JUMP JUMPDEST PUSH1 0x40 MLOAD DUP1 SWAP2 SUB SWAP1 RETURN JUMPDEST CALLVALUE DUP1 ISZERO PUSH2 0x1B4 JUMPI PUSH1 0x0 DUP1 REVERT JUMPDEST POP PUSH2 0x1CF PUSH1 0x4 DUP1 CALLDATASIZE SUB DUP2 ADD SWAP1 PUSH2 0x1CA SWAP2 SWAP1 PUSH2 0x17B0 JUMP JUMPDEST PUSH2 0x4E3 JUMP JUMPDEST PUSH1 0x40 MLOAD PUSH2 0x1DC SWAP2 SWAP1 PUSH2 0x1D16 JUMP JUMPDEST PUSH1 0x40 MLOAD DUP1 SWAP2 SUB SWAP1 RETURN JUMPDEST PUSH2 0x1FF PUSH1 0x4 DUP1 CALLDATASIZE SUB DUP2 ADD SWAP1 PUSH2 0x1FA SWAP2 SWAP1 PUSH2 0x17B0 JUMP JUMPDEST PUSH2 0x5BC JUMP JUMPDEST STOP JUMPDEST PUSH2 0x209 PUSH2 0x877 JUMP JUMPDEST STOP JUMPDEST CALLVALUE DUP1 ISZERO PUSH2 0x217 JUMPI PUSH1 0x0 DUP1 REVERT JUMPDEST POP PUSH2 0x220 PUSH2 0xBD2 JUMP JUMPDEST PUSH1 0x40 MLOAD PUSH2 0x22D SWAP2 SWAP1 PUSH2 0x1D16 JUMP JUMPDEST PUSH1 0x40 MLOAD DUP1 SWAP2 SUB SWAP1 RETURN JUMPDEST CALLVALUE DUP1 ISZERO PUSH2 0x242 JUMPI PUSH1 0x0 DUP1 REVERT JUMPDEST POP PUSH2 0x24B PUSH2 0xBD8 JUMP JUMPDEST PUSH1 0x40 MLOAD PUSH2 0x258 SWAP2 SWAP1 PUSH2 0x1D16 JUMP JUMPDEST PUSH1 0x40 MLOAD DUP1 SWAP2 SUB SWAP1 RETURN JUMPDEST PUSH2 0x27B PUSH1 0x4 DUP1 CALLDATASIZE SUB DUP2 ADD SWAP1 PUSH2 0x276 SWAP2 SWAP1 PUSH2 0x17B0 JUMP JUMPDEST PUSH2 0xBDE JUMP JUMPDEST STOP JUMPDEST CALLVALUE DUP1 ISZERO PUSH2 0x289 JUMPI PUSH1 0x0 DUP1 REVERT JUMPDEST POP PUSH2 0x292 PUSH2 0xF19 JUMP JUMPDEST PUSH1 0x40 MLOAD PUSH2 0x29F SWAP2 SWAP1 PUSH2 0x1D16 JUMP JUMPDEST PUSH1 0x40 MLOAD DUP1 SWAP2 SUB SWAP1 RETURN JUMPDEST CALLVALUE DUP1 ISZERO PUSH2 0x2B4 JUMPI PUSH1 0x0 DUP1 REVERT JUMPDEST POP PUSH2 0x2CF PUSH1 0x4 DUP1 CALLDATASIZE SUB DUP2 ADD SWAP1 PUSH2 0x2CA SWAP2 SWAP1 PUSH2 0x1756 JUMP JUMPDEST PUSH2 0xF1F JUMP JUMPDEST PUSH1 0x40 MLOAD PUSH2 0x2DC SWAP2 SWAP1 PUSH2 0x1D16 JUMP JUMPDEST PUSH1 0x40 MLOAD DUP1 SWAP2 SUB SWAP1 RETURN JUMPDEST CALLVALUE DUP1 ISZERO PUSH2 0x2F1 JUMPI PUSH1 0x0 DUP1 REVERT JUMPDEST POP PUSH2 0x2FA PUSH2 0xF37 JUMP JUMPDEST PUSH1 0x40 MLOAD PUSH2 0x307 SWAP2 SWAP1 PUSH2 0x1D16 JUMP JUMPDEST PUSH1 0x40 MLOAD DUP1 SWAP2 SUB SWAP1 RETURN JUMPDEST PUSH2 0x318 PUSH2 0xF92 JUMP JUMPDEST STOP JUMPDEST PUSH2 0x334 PUSH1 0x4 DUP1 CALLDATASIZE SUB DUP2 ADD SWAP1 PUSH2 0x32F SWAP2 SWAP1 PUSH2 0x17B0 JUMP JUMPDEST PUSH2 0x1158 JUMP JUMPDEST STOP JUMPDEST PUSH2 0x33E PUSH2 0x140C JUMP JUMPDEST STOP JUMPDEST CALLVALUE DUP1 ISZERO PUSH2 0x34C JUMPI PUSH1 0x0 DUP1 REVERT JUMPDEST POP PUSH2 0x367 PUSH1 0x4 DUP1 CALLDATASIZE SUB DUP2 ADD SWAP1 PUSH2 0x362 SWAP2 SWAP1 PUSH2 0x17B0 JUMP JUMPDEST PUSH2 0x164E JUMP JUMPDEST PUSH1 0x40 MLOAD PUSH2 0x374 SWAP2 SWAP1 PUSH2 0x1D16 JUMP JUMPDEST PUSH1 0x40 MLOAD DUP1 SWAP2 SUB SWAP1 RETURN JUMPDEST CALLVALUE DUP1 ISZERO PUSH2 0x389 JUMPI PUSH1 0x0 DUP1 REVERT JUMPDEST POP PUSH2 0x392 PUSH2 0x1655 JUMP JUMPDEST PUSH1 0x40 MLOAD PUSH2 0x39F SWAP2 SWAP1 PUSH2 0x1A7B JUMP JUMPDEST PUSH1 0x40 MLOAD DUP1 SWAP2 SUB SWAP1 RETURN JUMPDEST PUSH1 0x0 SWAP2 SWAP1 POP JUMP JUMPDEST PUSH1 0x0 DUP1 PUSH1 0x4 SLOAD GT PUSH2 0x3F5 JUMPI PUSH1 0x40 MLOAD PUSH32 0x8C379A000000000000000000000000000000000000000000000000000000000 DUP2 MSTORE PUSH1 0x4 ADD PUSH2 0x3EC SWAP1 PUSH2 0x1AF6 JUMP JUMPDEST PUSH1 0x40 MLOAD DUP1 SWAP2 SUB SWAP1 REVERT JUMPDEST PUSH1 0x5 SLOAD PUSH1 0x4 SLOAD PUSH2 0x405 SWAP2 SWAP1 PUSH2 0x1D98 JUMP JUMPDEST SWAP1 POP SWAP1 JUMP JUMPDEST PUSH1 0x0 DUP1 PUSH1 0x4 SLOAD GT DUP1 ISZERO PUSH2 0x41F JUMPI POP PUSH1 0x0 PUSH1 0x5 SLOAD GT JUMPDEST PUSH2 0x45E JUMPI PUSH1 0x40 MLOAD PUSH32 0x8C379A000000000000000000000000000000000000000000000000000000000 DUP2 MSTORE PUSH1 0x4 ADD PUSH2 0x455 SWAP1 PUSH2 0x1C36 JUMP JUMPDEST PUSH1 0x40 MLOAD DUP1 SWAP2 SUB SWAP1 REVERT JUMPDEST PUSH1 0x0 DUP3 PUSH1 0x5 SLOAD PUSH2 0x46E SWAP2 SWAP1 PUSH2 0x1D42 JUMP JUMPDEST SWAP1 POP PUSH1 0x0 DUP2 PUSH1 0x6 SLOAD PUSH2 0x480 SWAP2 SWAP1 PUSH2 0x1D98 JUMP JUMPDEST SWAP1 POP PUSH1 0x4 SLOAD DUP2 LT PUSH2 0x4C6 JUMPI PUSH1 0x40 MLOAD PUSH32 0x8C379A000000000000000000000000000000000000000000000000000000000 DUP2 MSTORE PUSH1 0x4 ADD PUSH2 0x4BD SWAP1 PUSH2 0x1B76 JUMP JUMPDEST PUSH1 0x40 MLOAD DUP1 SWAP2 SUB SWAP1 REVERT JUMPDEST PUSH1 0x0 DUP2 PUSH1 0x4 SLOAD PUSH2 0x4D6 SWAP2 SWAP1 PUSH2 0x1E23 JUMP JUMPDEST SWAP1 POP DUP1 SWAP4 POP POP POP POP SWAP2 SWAP1 POP JUMP JUMPDEST PUSH1 0x0 DUP1 PUSH1 0x4 SLOAD GT DUP1 ISZERO PUSH2 0x4F8 JUMPI POP PUSH1 0x0 PUSH1 0x5 SLOAD GT JUMPDEST PUSH2 0x537 JUMPI PUSH1 0x40 MLOAD PUSH32 0x8C379A000000000000000000000000000000000000000000000000000000000 DUP2 MSTORE PUSH1 0x4 ADD PUSH2 0x52E SWAP1 PUSH2 0x1C36 JUMP JUMPDEST PUSH1 0x40 MLOAD DUP1 SWAP2 SUB SWAP1 REVERT JUMPDEST PUSH1 0x0 DUP3 PUSH1 0x4 SLOAD PUSH2 0x547 SWAP2 SWAP1 PUSH2 0x1D42 JUMP JUMPDEST SWAP1 POP PUSH1 0x0 DUP2 PUSH1 0x6 SLOAD PUSH2 0x559 SWAP2 SWAP1 PUSH2 0x1D98 JUMP JUMPDEST SWAP1 POP PUSH1 0x5 SLOAD DUP2 LT PUSH2 0x59F JUMPI PUSH1 0x40 MLOAD PUSH32 0x8C379A000000000000000000000000000000000000000000000000000000000 DUP2 MSTORE PUSH1 0x4 ADD PUSH2 0x596 SWAP1 PUSH2 0x1B76 JUMP JUMPDEST PUSH1 0x40 MLOAD DUP1 SWAP2 SUB SWAP1 REVERT JUMPDEST PUSH1 0x0 DUP2 PUSH1 0x5 SLOAD PUSH2 0x5AF SWAP2 SWAP1 PUSH2 0x1E23 JUMP JUMPDEST SWAP1 POP DUP1 SWAP4 POP POP POP POP SWAP2 SWAP1 POP JUMP JUMPDEST CALLER PUSH20 0xFFFFFFFFFFFFFFFFFFFFFFFFFFFFFFFFFFFFFFFF AND PUSH1 0x0 DUP1 SLOAD SWAP1 PUSH2 0x100 EXP SWAP1 DIV PUSH20 0xFFFFFFFFFFFFFFFFFFFFFFFFFFFFFFFFFFFFFFFF AND PUSH20 0xFFFFFFFFFFFFFFFFFFFFFFFFFFFFFFFFFFFFFFFF AND EQ PUSH2 0x64A JUMPI PUSH1 0x40 MLOAD PUSH32 0x8C379A000000000000000000000000000000000000000000000000000000000 DUP2 MSTORE PUSH1 0x4 ADD PUSH2 0x641 SWAP1 PUSH2 0x1C76 JUMP JUMPDEST PUSH1 0x40 MLOAD DUP1 SWAP2 SUB SWAP1 REVERT JUMPDEST PUSH1 0x0 PUSH1 0x4 SLOAD EQ PUSH2 0x68F JUMPI PUSH1 0x40 MLOAD PUSH32 0x8C379A000000000000000000000000000000000000000000000000000000000 DUP2 MSTORE PUSH1 0x4 ADD PUSH2 0x686 SWAP1 PUSH2 0x1BB6 JUMP JUMPDEST PUSH1 0x40 MLOAD DUP1 SWAP2 SUB SWAP1 REVERT JUMPDEST PUSH1 0x0 PUSH1 0x5 SLOAD EQ PUSH2 0x6D4 JUMPI PUSH1 0x40 MLOAD PUSH32 0x8C379A000000000000000000000000000000000000000000000000000000000 DUP2 MSTORE PUSH1 0x4 ADD PUSH2 0x6CB SWAP1 PUSH2 0x1CD6 JUMP JUMPDEST PUSH1 0x40 MLOAD DUP1 SWAP2 SUB SWAP1 REVERT JUMPDEST PUSH1 0x0 CALLVALUE GT PUSH2 0x717 JUMPI PUSH1 0x40 MLOAD PUSH32 0x8C379A000000000000000000000000000000000000000000000000000000000 DUP2 MSTORE PUSH1 0x4 ADD PUSH2 0x70E SWAP1 PUSH2 0x1B16 JUMP JUMPDEST PUSH1 0x40 MLOAD DUP1 SWAP2 SUB SWAP1 REVERT JUMPDEST PUSH1 0x0 DUP2 GT PUSH2 0x75A JUMPI PUSH1 0x40 MLOAD PUSH32 0x8C379A000000000000000000000000000000000000000000000000000000000 DUP2 MSTORE PUSH1 0x4 ADD PUSH2 0x751 SWAP1 PUSH2 0x1B36 JUMP JUMPDEST PUSH1 0x40 MLOAD DUP1 SWAP2 SUB SWAP1 REVERT JUMPDEST PUSH1 0x3 PUSH1 0x0 SWAP1 SLOAD SWAP1 PUSH2 0x100 EXP SWAP1 DIV PUSH20 0xFFFFFFFFFFFFFFFFFFFFFFFFFFFFFFFFFFFFFFFF AND PUSH20 0xFFFFFFFFFFFFFFFFFFFFFFFFFFFFFFFFFFFFFFFF AND PUSH4 0x23B872DD CALLER ADDRESS DUP5 PUSH1 0x40 MLOAD DUP5 PUSH4 0xFFFFFFFF AND PUSH1 0xE0 SHL DUP2 MSTORE PUSH1 0x4 ADD PUSH2 0x7B9 SWAP4 SWAP3 SWAP2 SWAP1 PUSH2 0x1A96 JUMP JUMPDEST PUSH1 0x20 PUSH1 0x40 MLOAD DUP1 DUP4 SUB DUP2 PUSH1 0x0 DUP8 DUP1 EXTCODESIZE ISZERO DUP1 ISZERO PUSH2 0x7D3 JUMPI PUSH1 0x0 DUP1 REVERT JUMPDEST POP GAS CALL ISZERO DUP1 ISZERO PUSH2 0x7E7 JUMPI RETURNDATASIZE PUSH1 0x0 DUP1 RETURNDATACOPY RETURNDATASIZE PUSH1 0x0 REVERT JUMPDEST POP POP POP POP PUSH1 0x40 MLOAD RETURNDATASIZE PUSH1 0x1F NOT PUSH1 0x1F DUP3 ADD AND DUP3 ADD DUP1 PUSH1 0x40 MSTORE POP DUP2 ADD SWAP1 PUSH2 0x80B SWAP2 SWAP1 PUSH2 0x1783 JUMP JUMPDEST POP CALLVALUE PUSH1 0x5 DUP2 SWAP1 SSTORE POP DUP1 PUSH1 0x4 DUP2 SWAP1 SSTORE POP PUSH1 0x4 SLOAD PUSH1 0x5 SLOAD PUSH2 0x82A SWAP2 SWAP1 PUSH2 0x1DC9 JUMP JUMPDEST PUSH1 0x6 DUP2 SWAP1 SSTORE POP CALLVALUE PUSH1 0x9 PUSH1 0x0 CALLER PUSH20 0xFFFFFFFFFFFFFFFFFFFFFFFFFFFFFFFFFFFFFFFF AND PUSH20 0xFFFFFFFFFFFFFFFFFFFFFFFFFFFFFFFFFFFFFFFF AND DUP2 MSTORE PUSH1 0x20 ADD SWAP1 DUP2 MSTORE PUSH1 0x20 ADD PUSH1 0x0 KECCAK256 DUP2 SWAP1 SSTORE POP POP JUMP JUMPDEST PUSH1 0x0 PUSH1 0x9 PUSH1 0x0 CALLER PUSH20 0xFFFFFFFFFFFFFFFFFFFFFFFFFFFFFFFFFFFFFFFF AND PUSH20 0xFFFFFFFFFFFFFFFFFFFFFFFFFFFFFFFFFFFFFFFF AND DUP2 MSTORE PUSH1 0x20 ADD SWAP1 DUP2 MSTORE PUSH1 0x20 ADD PUSH1 0x0 KECCAK256 SLOAD SWAP1 POP PUSH1 0x0 DUP2 GT PUSH2 0x8FE JUMPI PUSH1 0x40 MLOAD PUSH32 0x8C379A000000000000000000000000000000000000000000000000000000000 DUP2 MSTORE PUSH1 0x4 ADD PUSH2 0x8F5 SWAP1 PUSH2 0x1C96 JUMP JUMPDEST PUSH1 0x40 MLOAD DUP1 SWAP2 SUB SWAP1 REVERT JUMPDEST PUSH1 0x0 PUSH1 0x5 SLOAD PUSH8 0xDE0B6B3A7640000 DUP4 PUSH2 0x917 SWAP2 SWAP1 PUSH2 0x1DC9 JUMP JUMPDEST PUSH2 0x921 SWAP2 SWAP1 PUSH2 0x1D98 JUMP JUMPDEST SWAP1 POP PUSH1 0x0 PUSH8 0xDE0B6B3A7640000 DUP3 PUSH1 0x4 SLOAD PUSH2 0x93C SWAP2 SWAP1 PUSH2 0x1DC9 JUMP JUMPDEST PUSH2 0x946 SWAP2 SWAP1 PUSH2 0x1D98 JUMP JUMPDEST SWAP1 POP DUP3 PUSH1 0x5 SLOAD LT ISZERO PUSH2 0x98D JUMPI PUSH1 0x40 MLOAD PUSH32 0x8C379A000000000000000000000000000000000000000000000000000000000 DUP2 MSTORE PUSH1 0x4 ADD PUSH2 0x984 SWAP1 PUSH2 0x1BF6 JUMP JUMPDEST PUSH1 0x40 MLOAD DUP1 SWAP2 SUB SWAP1 REVERT JUMPDEST DUP1 PUSH1 0x4 SLOAD LT ISZERO PUSH2 0x9D2 JUMPI PUSH1 0x40 MLOAD PUSH32 0x8C379A000000000000000000000000000000000000000000000000000000000 DUP2 MSTORE PUSH1 0x4 ADD PUSH2 0x9C9 SWAP1 PUSH2 0x1CB6 JUMP JUMPDEST PUSH1 0x40 MLOAD DUP1 SWAP2 SUB SWAP1 REVERT JUMPDEST DUP3 PUSH1 0x5 PUSH1 0x0 DUP3 DUP3 SLOAD PUSH2 0x9E4 SWAP2 SWAP1 PUSH2 0x1E23 JUMP JUMPDEST SWAP3 POP POP DUP2 SWAP1 SSTORE POP DUP1 PUSH1 0x4 PUSH1 0x0 DUP3 DUP3 SLOAD PUSH2 0x9FD SWAP2 SWAP1 PUSH2 0x1E23 JUMP JUMPDEST SWAP3 POP POP DUP2 SWAP1 SSTORE POP PUSH1 0x5 SLOAD PUSH1 0x4 SLOAD PUSH2 0xA14 SWAP2 SWAP1 PUSH2 0x1DC9 JUMP JUMPDEST PUSH1 0x6 DUP2 SWAP1 SSTORE POP PUSH1 0x0 PUSH1 0x9 PUSH1 0x0 CALLER PUSH20 0xFFFFFFFFFFFFFFFFFFFFFFFFFFFFFFFFFFFFFFFF AND PUSH20 0xFFFFFFFFFFFFFFFFFFFFFFFFFFFFFFFFFFFFFFFF AND DUP2 MSTORE PUSH1 0x20 ADD SWAP1 DUP2 MSTORE PUSH1 0x20 ADD PUSH1 0x0 KECCAK256 DUP2 SWAP1 SSTORE POP CALLER PUSH20 0xFFFFFFFFFFFFFFFFFFFFFFFFFFFFFFFFFFFFFFFF AND PUSH2 0x8FC DUP5 SWAP1 DUP2 ISZERO MUL SWAP1 PUSH1 0x40 MLOAD PUSH1 0x0 PUSH1 0x40 MLOAD DUP1 DUP4 SUB DUP2 DUP6 DUP9 DUP9 CALL SWAP4 POP POP POP POP ISZERO DUP1 ISZERO PUSH2 0xAA5 JUMPI RETURNDATASIZE PUSH1 0x0 DUP1 RETURNDATACOPY RETURNDATASIZE PUSH1 0x0 REVERT JUMPDEST POP PUSH1 0x3 PUSH1 0x0 SWAP1 SLOAD SWAP1 PUSH2 0x100 EXP SWAP1 DIV PUSH20 0xFFFFFFFFFFFFFFFFFFFFFFFFFFFFFFFFFFFFFFFF AND PUSH20 0xFFFFFFFFFFFFFFFFFFFFFFFFFFFFFFFFFFFFFFFF AND PUSH4 0xA9059CBB CALLER DUP4 PUSH1 0x40 MLOAD DUP4 PUSH4 0xFFFFFFFF AND PUSH1 0xE0 SHL DUP2 MSTORE PUSH1 0x4 ADD PUSH2 0xB03 SWAP3 SWAP2 SWAP1 PUSH2 0x1ACD JUMP JUMPDEST PUSH1 0x20 PUSH1 0x40 MLOAD DUP1 DUP4 SUB DUP2 PUSH1 0x0 DUP8 DUP1 EXTCODESIZE ISZERO DUP1 ISZERO PUSH2 0xB1D JUMPI PUSH1 0x0 DUP1 REVERT JUMPDEST POP GAS CALL ISZERO DUP1 ISZERO PUSH2 0xB31 JUMPI RETURNDATASIZE PUSH1 0x0 DUP1 RETURNDATACOPY RETURNDATASIZE PUSH1 0x0 REVERT JUMPDEST POP POP POP POP PUSH1 0x40 MLOAD RETURNDATASIZE PUSH1 0x1F NOT PUSH1 0x1F DUP3 ADD AND DUP3 ADD DUP1 PUSH1 0x40 MSTORE POP DUP2 ADD SWAP1 PUSH2 0xB55 SWAP2 SWAP1 PUSH2 0x1783 JUMP JUMPDEST PUSH2 0xB94 JUMPI PUSH1 0x40 MLOAD PUSH32 0x8C379A000000000000000000000000000000000000000000000000000000000 DUP2 MSTORE PUSH1 0x4 ADD PUSH2 0xB8B SWAP1 PUSH2 0x1C16 JUMP JUMPDEST PUSH1 0x40 MLOAD DUP1 SWAP2 SUB SWAP1 REVERT JUMPDEST PUSH32 0xDFDD120DED9B7AFC0C23DD5310E93AAA3E1C3B9F75AF9B805FAB3030842439F2 CALLER DUP5 PUSH1 0x40 MLOAD PUSH2 0xBC5 SWAP3 SWAP2 SWAP1 PUSH2 0x1ACD JUMP JUMPDEST PUSH1 0x40 MLOAD DUP1 SWAP2 SUB SWAP1 LOG1 POP POP POP JUMP JUMPDEST PUSH1 0x5 SLOAD DUP2 JUMP JUMPDEST PUSH1 0x4 SLOAD DUP2 JUMP JUMPDEST DUP1 PUSH1 0x9 PUSH1 0x0 CALLER PUSH20 0xFFFFFFFFFFFFFFFFFFFFFFFFFFFFFFFFFFFFFFFF AND PUSH20 0xFFFFFFFFFFFFFFFFFFFFFFFFFFFFFFFFFFFFFFFF AND DUP2 MSTORE PUSH1 0x20 ADD SWAP1 DUP2 MSTORE PUSH1 0x20 ADD PUSH1 0x0 KECCAK256 SLOAD LT ISZERO PUSH2 0xC60 JUMPI PUSH1 0x40 MLOAD PUSH32 0x8C379A000000000000000000000000000000000000000000000000000000000 DUP2 MSTORE PUSH1 0x4 ADD PUSH2 0xC57 SWAP1 PUSH2 0x1BD6 JUMP JUMPDEST PUSH1 0x40 MLOAD DUP1 SWAP2 SUB SWAP1 REVERT JUMPDEST PUSH1 0x0 PUSH1 0x5 SLOAD PUSH1 0x4 SLOAD DUP4 PUSH2 0xC73 SWAP2 SWAP1 PUSH2 0x1DC9 JUMP JUMPDEST PUSH2 0xC7D SWAP2 SWAP1 PUSH2 0x1D98 JUMP JUMPDEST SWAP1 POP DUP2 PUSH1 0x5 SLOAD LT ISZERO PUSH2 0xCC4 JUMPI PUSH1 0x40 MLOAD PUSH32 0x8C379A000000000000000000000000000000000000000000000000000000000 DUP2 MSTORE PUSH1 0x4 ADD PUSH2 0xCBB SWAP1 PUSH2 0x1BF6 JUMP JUMPDEST PUSH1 0x40 MLOAD DUP1 SWAP2 SUB SWAP1 REVERT JUMPDEST DUP1 PUSH1 0x4 SLOAD LT ISZERO PUSH2 0xD09 JUMPI PUSH1 0x40 MLOAD PUSH32 0x8C379A000000000000000000000000000000000000000000000000000000000 DUP2 MSTORE PUSH1 0x4 ADD PUSH2 0xD00 SWAP1 PUSH2 0x1CB6 JUMP JUMPDEST PUSH1 0x40 MLOAD DUP1 SWAP2 SUB SWAP1 REVERT JUMPDEST DUP2 PUSH1 0x5 PUSH1 0x0 DUP3 DUP3 SLOAD PUSH2 0xD1B SWAP2 SWAP1 PUSH2 0x1E23 JUMP JUMPDEST SWAP3 POP POP DUP2 SWAP1 SSTORE POP DUP1 PUSH1 0x4 PUSH1 0x0 DUP3 DUP3 SLOAD PUSH2 0xD34 SWAP2 SWAP1 PUSH2 0x1E23 JUMP JUMPDEST SWAP3 POP POP DUP2 SWAP1 SSTORE POP PUSH1 0x5 SLOAD PUSH1 0x4 SLOAD PUSH2 0xD4B SWAP2 SWAP1 PUSH2 0x1DC9 JUMP JUMPDEST PUSH1 0x6 DUP2 SWAP1 SSTORE POP CALLER PUSH20 0xFFFFFFFFFFFFFFFFFFFFFFFFFFFFFFFFFFFFFFFF AND PUSH2 0x8FC DUP4 SWAP1 DUP2 ISZERO MUL SWAP1 PUSH1 0x40 MLOAD PUSH1 0x0 PUSH1 0x40 MLOAD DUP1 DUP4 SUB DUP2 DUP6 DUP9 DUP9 CALL SWAP4 POP POP POP POP ISZERO DUP1 ISZERO PUSH2 0xD97 JUMPI RETURNDATASIZE PUSH1 0x0 DUP1 RETURNDATACOPY RETURNDATASIZE PUSH1 0x0 REVERT JUMPDEST POP PUSH1 0x3 PUSH1 0x0 SWAP1 SLOAD SWAP1 PUSH2 0x100 EXP SWAP1 DIV PUSH20 0xFFFFFFFFFFFFFFFFFFFFFFFFFFFFFFFFFFFFFFFF AND PUSH20 0xFFFFFFFFFFFFFFFFFFFFFFFFFFFFFFFFFFFFFFFF AND PUSH4 0xA9059CBB CALLER DUP4 PUSH1 0x40 MLOAD DUP4 PUSH4 0xFFFFFFFF AND PUSH1 0xE0 SHL DUP2 MSTORE PUSH1 0x4 ADD PUSH2 0xDF5 SWAP3 SWAP2 SWAP1 PUSH2 0x1ACD JUMP JUMPDEST PUSH1 0x20 PUSH1 0x40 MLOAD DUP1 DUP4 SUB DUP2 PUSH1 0x0 DUP8 DUP1 EXTCODESIZE ISZERO DUP1 ISZERO PUSH2 0xE0F JUMPI PUSH1 0x0 DUP1 REVERT JUMPDEST POP GAS CALL ISZERO DUP1 ISZERO PUSH2 0xE23 JUMPI RETURNDATASIZE PUSH1 0x0 DUP1 RETURNDATACOPY RETURNDATASIZE PUSH1 0x0 REVERT JUMPDEST POP POP POP POP PUSH1 0x40 MLOAD RETURNDATASIZE PUSH1 0x1F NOT PUSH1 0x1F DUP3 ADD AND DUP3 ADD DUP1 PUSH1 0x40 MSTORE POP DUP2 ADD SWAP1 PUSH2 0xE47 SWAP2 SWAP1 PUSH2 0x1783 JUMP JUMPDEST PUSH2 0xE86 JUMPI PUSH1 0x40 MLOAD PUSH32 0x8C379A000000000000000000000000000000000000000000000000000000000 DUP2 MSTORE PUSH1 0x4 ADD PUSH2 0xE7D SWAP1 PUSH2 0x1C16 JUMP JUMPDEST PUSH1 0x40 MLOAD DUP1 SWAP2 SUB SWAP1 REVERT JUMPDEST DUP2 PUSH1 0x9 PUSH1 0x0 CALLER PUSH20 0xFFFFFFFFFFFFFFFFFFFFFFFFFFFFFFFFFFFFFFFF AND PUSH20 0xFFFFFFFFFFFFFFFFFFFFFFFFFFFFFFFFFFFFFFFF AND DUP2 MSTORE PUSH1 0x20 ADD SWAP1 DUP2 MSTORE PUSH1 0x20 ADD PUSH1 0x0 KECCAK256 PUSH1 0x0 DUP3 DUP3 SLOAD PUSH2 0xED5 SWAP2 SWAP1 PUSH2 0x1E23 JUMP JUMPDEST SWAP3 POP POP DUP2 SWAP1 SSTORE POP PUSH32 0xDFDD120DED9B7AFC0C23DD5310E93AAA3E1C3B9F75AF9B805FAB3030842439F2 CALLER DUP4 PUSH1 0x40 MLOAD PUSH2 0xF0D SWAP3 SWAP2 SWAP1 PUSH2 0x1ACD JUMP JUMPDEST PUSH1 0x40 MLOAD DUP1 SWAP2 SUB SWAP1 LOG1 POP POP JUMP JUMPDEST PUSH1 0x6 SLOAD DUP2 JUMP JUMPDEST PUSH1 0x9 PUSH1 0x20 MSTORE DUP1 PUSH1 0x0 MSTORE PUSH1 0x40 PUSH1 0x0 KECCAK256 PUSH1 0x0 SWAP2 POP SWAP1 POP SLOAD DUP2 JUMP JUMPDEST PUSH1 0x0 DUP1 PUSH1 0x5 SLOAD GT PUSH2 0xF7D JUMPI PUSH1 0x40 MLOAD PUSH32 0x8C379A000000000000000000000000000000000000000000000000000000000 DUP2 MSTORE PUSH1 0x4 ADD PUSH2 0xF74 SWAP1 PUSH2 0x1B56 JUMP JUMPDEST PUSH1 0x40 MLOAD DUP1 SWAP2 SUB SWAP1 REVERT JUMPDEST PUSH1 0x4 SLOAD PUSH1 0x5 SLOAD PUSH2 0xF8D SWAP2 SWAP1 PUSH2 0x1D98 JUMP JUMPDEST SWAP1 POP SWAP1 JUMP JUMPDEST PUSH1 0x0 CALLVALUE SWAP1 POP PUSH1 0x0 DUP2 GT PUSH2 0xFDA JUMPI PUSH1 0x40 MLOAD PUSH32 0x8C379A000000000000000000000000000000000000000000000000000000000 DUP2 MSTORE PUSH1 0x4 ADD PUSH2 0xFD1 SWAP1 PUSH2 0x1C56 JUMP JUMPDEST PUSH1 0x40 MLOAD DUP1 SWAP2 SUB SWAP1 REVERT JUMPDEST PUSH1 0x0 PUSH2 0xFE5 DUP3 PUSH2 0x40A JUMP JUMPDEST SWAP1 POP PUSH1 0x4 SLOAD DUP2 GT ISZERO PUSH2 0x102C JUMPI PUSH1 0x40 MLOAD PUSH32 0x8C379A000000000000000000000000000000000000000000000000000000000 DUP2 MSTORE PUSH1 0x4 ADD PUSH2 0x1023 SWAP1 PUSH2 0x1CB6 JUMP JUMPDEST PUSH1 0x40 MLOAD DUP1 SWAP2 SUB SWAP1 REVERT JUMPDEST DUP2 PUSH1 0x5 PUSH1 0x0 DUP3 DUP3 SLOAD PUSH2 0x103E SWAP2 SWAP1 PUSH2 0x1D42 JUMP JUMPDEST SWAP3 POP POP DUP2 SWAP1 SSTORE POP DUP1 PUSH1 0x4 PUSH1 0x0 DUP3 DUP3 SLOAD PUSH2 0x1057 SWAP2 SWAP1 PUSH2 0x1E23 JUMP JUMPDEST SWAP3 POP POP DUP2 SWAP1 SSTORE POP PUSH1 0x3 PUSH1 0x0 SWAP1 SLOAD SWAP1 PUSH2 0x100 EXP SWAP1 DIV PUSH20 0xFFFFFFFFFFFFFFFFFFFFFFFFFFFFFFFFFFFFFFFF AND PUSH20 0xFFFFFFFFFFFFFFFFFFFFFFFFFFFFFFFFFFFFFFFF AND PUSH4 0xA9059CBB CALLER DUP4 PUSH1 0x40 MLOAD DUP4 PUSH4 0xFFFFFFFF AND PUSH1 0xE0 SHL DUP2 MSTORE PUSH1 0x4 ADD PUSH2 0x10BB SWAP3 SWAP2 SWAP1 PUSH2 0x1ACD JUMP JUMPDEST PUSH1 0x20 PUSH1 0x40 MLOAD DUP1 DUP4 SUB DUP2 PUSH1 0x0 DUP8 DUP1 EXTCODESIZE ISZERO DUP1 ISZERO PUSH2 0x10D5 JUMPI PUSH1 0x0 DUP1 REVERT JUMPDEST POP GAS CALL ISZERO DUP1 ISZERO PUSH2 0x10E9 JUMPI RETURNDATASIZE PUSH1 0x0 DUP1 RETURNDATACOPY RETURNDATASIZE PUSH1 0x0 REVERT JUMPDEST POP POP POP POP PUSH1 0x40 MLOAD RETURNDATASIZE PUSH1 0x1F NOT PUSH1 0x1F DUP3 ADD AND DUP3 ADD DUP1 PUSH1 0x40 MSTORE POP DUP2 ADD SWAP1 PUSH2 0x110D SWAP2 SWAP1 PUSH2 0x1783 JUMP JUMPDEST PUSH2 0x114C JUMPI PUSH1 0x40 MLOAD PUSH32 0x8C379A000000000000000000000000000000000000000000000000000000000 DUP2 MSTORE PUSH1 0x4 ADD PUSH2 0x1143 SWAP1 PUSH2 0x1C16 JUMP JUMPDEST PUSH1 0x40 MLOAD DUP1 SWAP2 SUB SWAP1 REVERT JUMPDEST PUSH2 0x1154 PUSH2 0x167B JUMP JUMPDEST POP POP JUMP JUMPDEST DUP1 PUSH1 0x3 PUSH1 0x0 SWAP1 SLOAD SWAP1 PUSH2 0x100 EXP SWAP1 DIV PUSH20 0xFFFFFFFFFFFFFFFFFFFFFFFFFFFFFFFFFFFFFFFF AND PUSH20 0xFFFFFFFFFFFFFFFFFFFFFFFFFFFFFFFFFFFFFFFF AND PUSH4 0x70A08231 CALLER PUSH1 0x40 MLOAD DUP3 PUSH4 0xFFFFFFFF AND PUSH1 0xE0 SHL DUP2 MSTORE PUSH1 0x4 ADD PUSH2 0x11B4 SWAP2 SWAP1 PUSH2 0x1A7B JUMP JUMPDEST PUSH1 0x20 PUSH1 0x40 MLOAD DUP1 DUP4 SUB DUP2 DUP7 DUP1 EXTCODESIZE ISZERO DUP1 ISZERO PUSH2 0x11CC JUMPI PUSH1 0x0 DUP1 REVERT JUMPDEST POP GAS STATICCALL ISZERO DUP1 ISZERO PUSH2 0x11E0 JUMPI RETURNDATASIZE PUSH1 0x0 DUP1 RETURNDATACOPY RETURNDATASIZE PUSH1 0x0 REVERT JUMPDEST POP POP POP POP PUSH1 0x40 MLOAD RETURNDATASIZE PUSH1 0x1F NOT PUSH1 0x1F DUP3 ADD AND DUP3 ADD DUP1 PUSH1 0x40 MSTORE POP DUP2 ADD SWAP1 PUSH2 0x1204 SWAP2 SWAP1 PUSH2 0x17DD JUMP JUMPDEST LT ISZERO PUSH2 0x1245 JUMPI PUSH1 0x40 MLOAD PUSH32 0x8C379A000000000000000000000000000000000000000000000000000000000 DUP2 MSTORE PUSH1 0x4 ADD PUSH2 0x123C SWAP1 PUSH2 0x1CF6 JUMP JUMPDEST PUSH1 0x40 MLOAD DUP1 SWAP2 SUB SWAP1 REVERT JUMPDEST PUSH1 0x0 PUSH2 0x1250 DUP3 PUSH2 0x4E3 JUMP JUMPDEST SWAP1 POP PUSH1 0x5 SLOAD DUP2 GT ISZERO PUSH2 0x1297 JUMPI PUSH1 0x40 MLOAD PUSH32 0x8C379A000000000000000000000000000000000000000000000000000000000 DUP2 MSTORE PUSH1 0x4 ADD PUSH2 0x128E SWAP1 PUSH2 0x1BF6 JUMP JUMPDEST PUSH1 0x40 MLOAD DUP1 SWAP2 SUB SWAP1 REVERT JUMPDEST PUSH1 0x3 PUSH1 0x0 SWAP1 SLOAD SWAP1 PUSH2 0x100 EXP SWAP1 DIV PUSH20 0xFFFFFFFFFFFFFFFFFFFFFFFFFFFFFFFFFFFFFFFF AND PUSH20 0xFFFFFFFFFFFFFFFFFFFFFFFFFFFFFFFFFFFFFFFF AND PUSH4 0x23B872DD CALLER ADDRESS DUP6 PUSH1 0x40 MLOAD DUP5 PUSH4 0xFFFFFFFF AND PUSH1 0xE0 SHL DUP2 MSTORE PUSH1 0x4 ADD PUSH2 0x12F6 SWAP4 SWAP3 SWAP2 SWAP1 PUSH2 0x1A96 JUMP JUMPDEST PUSH1 0x20 PUSH1 0x40 MLOAD DUP1 DUP4 SUB DUP2 PUSH1 0x0 DUP8 DUP1 EXTCODESIZE ISZERO DUP1 ISZERO PUSH2 0x1310 JUMPI PUSH1 0x0 DUP1 REVERT JUMPDEST POP GAS CALL ISZERO DUP1 ISZERO PUSH2 0x1324 JUMPI RETURNDATASIZE PUSH1 0x0 DUP1 RETURNDATACOPY RETURNDATASIZE PUSH1 0x0 REVERT JUMPDEST POP POP POP POP PUSH1 0x40 MLOAD RETURNDATASIZE PUSH1 0x1F NOT PUSH1 0x1F DUP3 ADD AND DUP3 ADD DUP1 PUSH1 0x40 MSTORE POP DUP2 ADD SWAP1 PUSH2 0x1348 SWAP2 SWAP1 PUSH2 0x1783 JUMP JUMPDEST PUSH2 0x1387 JUMPI PUSH1 0x40 MLOAD PUSH32 0x8C379A000000000000000000000000000000000000000000000000000000000 DUP2 MSTORE PUSH1 0x4 ADD PUSH2 0x137E SWAP1 PUSH2 0x1C16 JUMP JUMPDEST PUSH1 0x40 MLOAD DUP1 SWAP2 SUB SWAP1 REVERT JUMPDEST DUP2 PUSH1 0x4 PUSH1 0x0 DUP3 DUP3 SLOAD PUSH2 0x1399 SWAP2 SWAP1 PUSH2 0x1D42 JUMP JUMPDEST SWAP3 POP POP DUP2 SWAP1 SSTORE POP DUP1 PUSH1 0x5 PUSH1 0x0 DUP3 DUP3 SLOAD PUSH2 0x13B2 SWAP2 SWAP1 PUSH2 0x1E23 JUMP JUMPDEST SWAP3 POP POP DUP2 SWAP1 SSTORE POP CALLER PUSH20 0xFFFFFFFFFFFFFFFFFFFFFFFFFFFFFFFFFFFFFFFF AND PUSH2 0x8FC DUP3 SWAP1 DUP2 ISZERO MUL SWAP1 PUSH1 0x40 MLOAD PUSH1 0x0 PUSH1 0x40 MLOAD DUP1 DUP4 SUB DUP2 DUP6 DUP9 DUP9 CALL SWAP4 POP POP POP POP ISZERO DUP1 ISZERO PUSH2 0x13FF JUMPI RETURNDATASIZE PUSH1 0x0 DUP1 RETURNDATACOPY RETURNDATASIZE PUSH1 0x0 REVERT JUMPDEST POP PUSH2 0x1408 PUSH2 0x167B JUMP JUMPDEST POP POP JUMP JUMPDEST PUSH1 0x0 CALLVALUE GT PUSH2 0x144F JUMPI PUSH1 0x40 MLOAD PUSH32 0x8C379A000000000000000000000000000000000000000000000000000000000 DUP2 MSTORE PUSH1 0x4 ADD PUSH2 0x1446 SWAP1 PUSH2 0x1B96 JUMP JUMPDEST PUSH1 0x40 MLOAD DUP1 SWAP2 SUB SWAP1 REVERT JUMPDEST PUSH1 0x0 PUSH1 0x5 SLOAD CALLVALUE PUSH1 0x4 SLOAD PUSH2 0x1462 SWAP2 SWAP1 PUSH2 0x1DC9 JUMP JUMPDEST PUSH2 0x146C SWAP2 SWAP1 PUSH2 0x1D98 JUMP JUMPDEST SWAP1 POP PUSH1 0x3 PUSH1 0x0 SWAP1 SLOAD SWAP1 PUSH2 0x100 EXP SWAP1 DIV PUSH20 0xFFFFFFFFFFFFFFFFFFFFFFFFFFFFFFFFFFFFFFFF AND PUSH20 0xFFFFFFFFFFFFFFFFFFFFFFFFFFFFFFFFFFFFFFFF AND PUSH4 0x23B872DD CALLER ADDRESS DUP5 PUSH1 0x40 MLOAD DUP5 PUSH4 0xFFFFFFFF AND PUSH1 0xE0 SHL DUP2 MSTORE PUSH1 0x4 ADD PUSH2 0x14CD SWAP4 SWAP3 SWAP2 SWAP1 PUSH2 0x1A96 JUMP JUMPDEST PUSH1 0x20 PUSH1 0x40 MLOAD DUP1 DUP4 SUB DUP2 PUSH1 0x0 DUP8 DUP1 EXTCODESIZE ISZERO DUP1 ISZERO PUSH2 0x14E7 JUMPI PUSH1 0x0 DUP1 REVERT JUMPDEST POP GAS CALL ISZERO DUP1 ISZERO PUSH2 0x14FB JUMPI RETURNDATASIZE PUSH1 0x0 DUP1 RETURNDATACOPY RETURNDATASIZE PUSH1 0x0 REVERT JUMPDEST POP POP POP POP PUSH1 0x40 MLOAD RETURNDATASIZE PUSH1 0x1F NOT PUSH1 0x1F DUP3 ADD AND DUP3 ADD DUP1 PUSH1 0x40 MSTORE POP DUP2 ADD SWAP1 PUSH2 0x151F SWAP2 SWAP1 PUSH2 0x1783 JUMP JUMPDEST PUSH2 0x155E JUMPI PUSH1 0x40 MLOAD PUSH32 0x8C379A000000000000000000000000000000000000000000000000000000000 DUP2 MSTORE PUSH1 0x4 ADD PUSH2 0x1555 SWAP1 PUSH2 0x1C16 JUMP JUMPDEST PUSH1 0x40 MLOAD DUP1 SWAP2 SUB SWAP1 REVERT JUMPDEST DUP1 PUSH1 0x4 PUSH1 0x0 DUP3 DUP3 SLOAD PUSH2 0x1570 SWAP2 SWAP1 PUSH2 0x1D42 JUMP JUMPDEST SWAP3 POP POP DUP2 SWAP1 SSTORE POP CALLVALUE PUSH1 0x5 PUSH1 0x0 DUP3 DUP3 SLOAD PUSH2 0x1589 SWAP2 SWAP1 PUSH2 0x1D42 JUMP JUMPDEST SWAP3 POP POP DUP2 SWAP1 SSTORE POP PUSH1 0x5 SLOAD PUSH1 0x4 SLOAD PUSH2 0x15A0 SWAP2 SWAP1 PUSH2 0x1DC9 JUMP JUMPDEST PUSH1 0x6 DUP2 SWAP1 SSTORE POP PUSH1 0x5 SLOAD PUSH1 0x4 SLOAD PUSH2 0x15B6 SWAP2 SWAP1 PUSH2 0x1DC9 JUMP JUMPDEST PUSH1 0x6 DUP2 SWAP1 SSTORE POP CALLVALUE PUSH1 0x9 PUSH1 0x0 CALLER PUSH20 0xFFFFFFFFFFFFFFFFFFFFFFFFFFFFFFFFFFFFFFFF AND PUSH20 0xFFFFFFFFFFFFFFFFFFFFFFFFFFFFFFFFFFFFFFFF AND DUP2 MSTORE PUSH1 0x20 ADD SWAP1 DUP2 MSTORE PUSH1 0x20 ADD PUSH1 0x0 KECCAK256 PUSH1 0x0 DUP3 DUP3 SLOAD PUSH2 0x160B SWAP2 SWAP1 PUSH2 0x1D42 JUMP JUMPDEST SWAP3 POP POP DUP2 SWAP1 SSTORE POP PUSH32 0xBB37879E252460856212DC4E8C6EDF174E473DF9423E3A7FECCD21F8C28D587A CALLER DUP3 PUSH1 0x40 MLOAD PUSH2 0x1643 SWAP3 SWAP2 SWAP1 PUSH2 0x1ACD JUMP JUMPDEST PUSH1 0x40 MLOAD DUP1 SWAP2 SUB SWAP1 LOG1 POP JUMP JUMPDEST PUSH1 0x0 SWAP2 SWAP1 POP JUMP JUMPDEST PUSH1 0x1 PUSH1 0x0 SWAP1 SLOAD SWAP1 PUSH2 0x100 EXP SWAP1 DIV PUSH20 0xFFFFFFFFFFFFFFFFFFFFFFFFFFFFFFFFFFFFFFFF AND DUP2 JUMP JUMPDEST PUSH1 0x0 PUSH1 0x5 SLOAD PUSH1 0x4 SLOAD PUSH2 0x168D SWAP2 SWAP1 PUSH2 0x1DC9 JUMP JUMPDEST SWAP1 POP PUSH1 0x6 SLOAD DUP2 LT PUSH2 0x16AD JUMPI PUSH1 0x6 SLOAD DUP2 PUSH2 0x16A6 SWAP2 SWAP1 PUSH2 0x1E23 JUMP JUMPDEST SWAP1 POP PUSH2 0x16BE JUMP JUMPDEST DUP1 PUSH1 0x6 SLOAD PUSH2 0x16BB SWAP2 SWAP1 PUSH2 0x1E23 JUMP JUMPDEST SWAP1 POP JUMPDEST PUSH1 0x1 PUSH1 0x5 SLOAD PUSH1 0x4 SLOAD PUSH2 0x16D0 SWAP2 SWAP1 PUSH2 0x1D42 JUMP JUMPDEST PUSH2 0x16DA SWAP2 SWAP1 PUSH2 0x1D42 JUMP JUMPDEST DUP2 LT PUSH2 0x16E9 JUMPI PUSH2 0x16E8 PUSH2 0x1E9F JUMP JUMPDEST JUMPDEST PUSH1 0x5 SLOAD PUSH1 0x4 SLOAD PUSH2 0x16F9 SWAP2 SWAP1 PUSH2 0x1DC9 JUMP JUMPDEST PUSH1 0x6 DUP2 SWAP1 SSTORE POP POP JUMP JUMPDEST PUSH1 0x0 DUP2 CALLDATALOAD SWAP1 POP PUSH2 0x1711 DUP2 PUSH2 0x21EA JUMP JUMPDEST SWAP3 SWAP2 POP POP JUMP JUMPDEST PUSH1 0x0 DUP2 MLOAD SWAP1 POP PUSH2 0x1726 DUP2 PUSH2 0x2201 JUMP JUMPDEST SWAP3 SWAP2 POP POP JUMP JUMPDEST PUSH1 0x0 DUP2 CALLDATALOAD SWAP1 POP PUSH2 0x173B DUP2 PUSH2 0x2218 JUMP JUMPDEST SWAP3 SWAP2 POP POP JUMP JUMPDEST PUSH1 0x0 DUP2 MLOAD SWAP1 POP PUSH2 0x1750 DUP2 PUSH2 0x2218 JUMP JUMPDEST SWAP3 SWAP2 POP POP JUMP JUMPDEST PUSH1 0x0 PUSH1 0x20 DUP3 DUP5 SUB SLT ISZERO PUSH2 0x176C JUMPI PUSH2 0x176B PUSH2 0x1F2C JUMP JUMPDEST JUMPDEST PUSH1 0x0 PUSH2 0x177A DUP5 DUP3 DUP6 ADD PUSH2 0x1702 JUMP JUMPDEST SWAP2 POP POP SWAP3 SWAP2 POP POP JUMP JUMPDEST PUSH1 0x0 PUSH1 0x20 DUP3 DUP5 SUB SLT ISZERO PUSH2 0x1799 JUMPI PUSH2 0x1798 PUSH2 0x1F2C JUMP JUMPDEST JUMPDEST PUSH1 0x0 PUSH2 0x17A7 DUP5 DUP3 DUP6 ADD PUSH2 0x1717 JUMP JUMPDEST SWAP2 POP POP SWAP3 SWAP2 POP POP JUMP JUMPDEST PUSH1 0x0 PUSH1 0x20 DUP3 DUP5 SUB SLT ISZERO PUSH2 0x17C6 JUMPI PUSH2 0x17C5 PUSH2 0x1F2C JUMP JUMPDEST JUMPDEST PUSH1 0x0 PUSH2 0x17D4 DUP5 DUP3 DUP6 ADD PUSH2 0x172C JUMP JUMPDEST SWAP2 POP POP SWAP3 SWAP2 POP POP JUMP JUMPDEST PUSH1 0x0 PUSH1 0x20 DUP3 DUP5 SUB SLT ISZERO PUSH2 0x17F3 JUMPI PUSH2 0x17F2 PUSH2 0x1F2C JUMP JUMPDEST JUMPDEST PUSH1 0x0 PUSH2 0x1801 DUP5 DUP3 DUP6 ADD PUSH2 0x1741 JUMP JUMPDEST SWAP2 POP POP SWAP3 SWAP2 POP POP JUMP JUMPDEST PUSH2 0x1813 DUP2 PUSH2 0x1E57 JUMP JUMPDEST DUP3 MSTORE POP POP JUMP JUMPDEST PUSH1 0x0 PUSH2 0x1826 PUSH1 0x15 DUP4 PUSH2 0x1D31 JUMP JUMPDEST SWAP2 POP PUSH2 0x1831 DUP3 PUSH2 0x1F31 JUMP JUMPDEST PUSH1 0x20 DUP3 ADD SWAP1 POP SWAP2 SWAP1 POP JUMP JUMPDEST PUSH1 0x0 PUSH2 0x1849 PUSH1 0x18 DUP4 PUSH2 0x1D31 JUMP JUMPDEST SWAP2 POP PUSH2 0x1854 DUP3 PUSH2 0x1F5A JUMP JUMPDEST PUSH1 0x20 DUP3 ADD SWAP1 POP SWAP2 SWAP1 POP JUMP JUMPDEST PUSH1 0x0 PUSH2 0x186C PUSH1 0x1B DUP4 PUSH2 0x1D31 JUMP JUMPDEST SWAP2 POP PUSH2 0x1877 DUP3 PUSH2 0x1F83 JUMP JUMPDEST PUSH1 0x20 DUP3 ADD SWAP1 POP SWAP2 SWAP1 POP JUMP JUMPDEST PUSH1 0x0 PUSH2 0x188F PUSH1 0x12 DUP4 PUSH2 0x1D31 JUMP JUMPDEST SWAP2 POP PUSH2 0x189A DUP3 PUSH2 0x1FAC JUMP JUMPDEST PUSH1 0x20 DUP3 ADD SWAP1 POP SWAP2 SWAP1 POP JUMP JUMPDEST PUSH1 0x0 PUSH2 0x18B2 PUSH1 0xC DUP4 PUSH2 0x1D31 JUMP JUMPDEST SWAP2 POP PUSH2 0x18BD DUP3 PUSH2 0x1FD5 JUMP JUMPDEST PUSH1 0x20 DUP3 ADD SWAP1 POP SWAP2 SWAP1 POP JUMP JUMPDEST PUSH1 0x0 PUSH2 0x18D5 PUSH1 0x1E DUP4 PUSH2 0x1D31 JUMP JUMPDEST SWAP2 POP PUSH2 0x18E0 DUP3 PUSH2 0x1FFE JUMP JUMPDEST PUSH1 0x20 DUP3 ADD SWAP1 POP SWAP2 SWAP1 POP JUMP JUMPDEST PUSH1 0x0 PUSH2 0x18F8 PUSH1 0x18 DUP4 PUSH2 0x1D31 JUMP JUMPDEST SWAP2 POP PUSH2 0x1903 DUP3 PUSH2 0x2027 JUMP JUMPDEST PUSH1 0x20 DUP3 ADD SWAP1 POP SWAP2 SWAP1 POP JUMP JUMPDEST PUSH1 0x0 PUSH2 0x191B PUSH1 0x1E DUP4 PUSH2 0x1D31 JUMP JUMPDEST SWAP2 POP PUSH2 0x1926 DUP3 PUSH2 0x2050 JUMP JUMPDEST PUSH1 0x20 DUP3 ADD SWAP1 POP SWAP2 SWAP1 POP JUMP JUMPDEST PUSH1 0x0 PUSH2 0x193E PUSH1 0x1C DUP4 PUSH2 0x1D31 JUMP JUMPDEST SWAP2 POP PUSH2 0x1949 DUP3 PUSH2 0x2079 JUMP JUMPDEST PUSH1 0x20 DUP3 ADD SWAP1 POP SWAP2 SWAP1 POP JUMP JUMPDEST PUSH1 0x0 PUSH2 0x1961 PUSH1 0x15 DUP4 PUSH2 0x1D31 JUMP JUMPDEST SWAP2 POP PUSH2 0x196C DUP3 PUSH2 0x20A2 JUMP JUMPDEST PUSH1 0x20 DUP3 ADD SWAP1 POP SWAP2 SWAP1 POP JUMP JUMPDEST PUSH1 0x0 PUSH2 0x1984 PUSH1 0x12 DUP4 PUSH2 0x1D31 JUMP JUMPDEST SWAP2 POP PUSH2 0x198F DUP3 PUSH2 0x20CB JUMP JUMPDEST PUSH1 0x20 DUP3 ADD SWAP1 POP SWAP2 SWAP1 POP JUMP JUMPDEST PUSH1 0x0 PUSH2 0x19A7 PUSH1 0xB DUP4 PUSH2 0x1D31 JUMP JUMPDEST SWAP2 POP PUSH2 0x19B2 DUP3 PUSH2 0x20F4 JUMP JUMPDEST PUSH1 0x20 DUP3 ADD SWAP1 POP SWAP2 SWAP1 POP JUMP JUMPDEST PUSH1 0x0 PUSH2 0x19CA PUSH1 0x20 DUP4 PUSH2 0x1D31 JUMP JUMPDEST SWAP2 POP PUSH2 0x19D5 DUP3 PUSH2 0x211D JUMP JUMPDEST PUSH1 0x20 DUP3 ADD SWAP1 POP SWAP2 SWAP1 POP JUMP JUMPDEST PUSH1 0x0 PUSH2 0x19ED PUSH1 0x16 DUP4 PUSH2 0x1D31 JUMP JUMPDEST SWAP2 POP PUSH2 0x19F8 DUP3 PUSH2 0x2146 JUMP JUMPDEST PUSH1 0x20 DUP3 ADD SWAP1 POP SWAP2 SWAP1 POP JUMP JUMPDEST PUSH1 0x0 PUSH2 0x1A10 PUSH1 0x1F DUP4 PUSH2 0x1D31 JUMP JUMPDEST SWAP2 POP PUSH2 0x1A1B DUP3 PUSH2 0x216F JUMP JUMPDEST PUSH1 0x20 DUP3 ADD SWAP1 POP SWAP2 SWAP1 POP JUMP JUMPDEST PUSH1 0x0 PUSH2 0x1A33 PUSH1 0x17 DUP4 PUSH2 0x1D31 JUMP JUMPDEST SWAP2 POP PUSH2 0x1A3E DUP3 PUSH2 0x2198 JUMP JUMPDEST PUSH1 0x20 DUP3 ADD SWAP1 POP SWAP2 SWAP1 POP JUMP JUMPDEST PUSH1 0x0 PUSH2 0x1A56 PUSH1 0x13 DUP4 PUSH2 0x1D31 JUMP JUMPDEST SWAP2 POP PUSH2 0x1A61 DUP3 PUSH2 0x21C1 JUMP JUMPDEST PUSH1 0x20 DUP3 ADD SWAP1 POP SWAP2 SWAP1 POP JUMP JUMPDEST PUSH2 0x1A75 DUP2 PUSH2 0x1E95 JUMP JUMPDEST DUP3 MSTORE POP POP JUMP JUMPDEST PUSH1 0x0 PUSH1 0x20 DUP3 ADD SWAP1 POP PUSH2 0x1A90 PUSH1 0x0 DUP4 ADD DUP5 PUSH2 0x180A JUMP JUMPDEST SWAP3 SWAP2 POP POP JUMP JUMPDEST PUSH1 0x0 PUSH1 0x60 DUP3 ADD SWAP1 POP PUSH2 0x1AAB PUSH1 0x0 DUP4 ADD DUP7 PUSH2 0x180A JUMP JUMPDEST PUSH2 0x1AB8 PUSH1 0x20 DUP4 ADD DUP6 PUSH2 0x180A JUMP JUMPDEST PUSH2 0x1AC5 PUSH1 0x40 DUP4 ADD DUP5 PUSH2 0x1A6C JUMP JUMPDEST SWAP5 SWAP4 POP POP POP POP JUMP JUMPDEST PUSH1 0x0 PUSH1 0x40 DUP3 ADD SWAP1 POP PUSH2 0x1AE2 PUSH1 0x0 DUP4 ADD DUP6 PUSH2 0x180A JUMP JUMPDEST PUSH2 0x1AEF PUSH1 0x20 DUP4 ADD DUP5 PUSH2 0x1A6C JUMP JUMPDEST SWAP4 SWAP3 POP POP POP JUMP JUMPDEST PUSH1 0x0 PUSH1 0x20 DUP3 ADD SWAP1 POP DUP2 DUP2 SUB PUSH1 0x0 DUP4 ADD MSTORE PUSH2 0x1B0F DUP2 PUSH2 0x1819 JUMP JUMPDEST SWAP1 POP SWAP2 SWAP1 POP JUMP JUMPDEST PUSH1 0x0 PUSH1 0x20 DUP3 ADD SWAP1 POP DUP2 DUP2 SUB PUSH1 0x0 DUP4 ADD MSTORE PUSH2 0x1B2F DUP2 PUSH2 0x183C JUMP JUMPDEST SWAP1 POP SWAP2 SWAP1 POP JUMP JUMPDEST PUSH1 0x0 PUSH1 0x20 DUP3 ADD SWAP1 POP DUP2 DUP2 SUB PUSH1 0x0 DUP4 ADD MSTORE PUSH2 0x1B4F DUP2 PUSH2 0x185F JUMP JUMPDEST SWAP1 POP SWAP2 SWAP1 POP JUMP JUMPDEST PUSH1 0x0 PUSH1 0x20 DUP3 ADD SWAP1 POP DUP2 DUP2 SUB PUSH1 0x0 DUP4 ADD MSTORE PUSH2 0x1B6F DUP2 PUSH2 0x1882 JUMP JUMPDEST SWAP1 POP SWAP2 SWAP1 POP JUMP JUMPDEST PUSH1 0x0 PUSH1 0x20 DUP3 ADD SWAP1 POP DUP2 DUP2 SUB PUSH1 0x0 DUP4 ADD MSTORE PUSH2 0x1B8F DUP2 PUSH2 0x18A5 JUMP JUMPDEST SWAP1 POP SWAP2 SWAP1 POP JUMP JUMPDEST PUSH1 0x0 PUSH1 0x20 DUP3 ADD SWAP1 POP DUP2 DUP2 SUB PUSH1 0x0 DUP4 ADD MSTORE PUSH2 0x1BAF DUP2 PUSH2 0x18C8 JUMP JUMPDEST SWAP1 POP SWAP2 SWAP1 POP JUMP JUMPDEST PUSH1 0x0 PUSH1 0x20 DUP3 ADD SWAP1 POP DUP2 DUP2 SUB PUSH1 0x0 DUP4 ADD MSTORE PUSH2 0x1BCF DUP2 PUSH2 0x18EB JUMP JUMPDEST SWAP1 POP SWAP2 SWAP1 POP JUMP JUMPDEST PUSH1 0x0 PUSH1 0x20 DUP3 ADD SWAP1 POP DUP2 DUP2 SUB PUSH1 0x0 DUP4 ADD MSTORE PUSH2 0x1BEF DUP2 PUSH2 0x190E JUMP JUMPDEST SWAP1 POP SWAP2 SWAP1 POP JUMP JUMPDEST PUSH1 0x0 PUSH1 0x20 DUP3 ADD SWAP1 POP DUP2 DUP2 SUB PUSH1 0x0 DUP4 ADD MSTORE PUSH2 0x1C0F DUP2 PUSH2 0x1931 JUMP JUMPDEST SWAP1 POP SWAP2 SWAP1 POP JUMP JUMPDEST PUSH1 0x0 PUSH1 0x20 DUP3 ADD SWAP1 POP DUP2 DUP2 SUB PUSH1 0x0 DUP4 ADD MSTORE PUSH2 0x1C2F DUP2 PUSH2 0x1954 JUMP JUMPDEST SWAP1 POP SWAP2 SWAP1 POP JUMP JUMPDEST PUSH1 0x0 PUSH1 0x20 DUP3 ADD SWAP1 POP DUP2 DUP2 SUB PUSH1 0x0 DUP4 ADD MSTORE PUSH2 0x1C4F DUP2 PUSH2 0x1977 JUMP JUMPDEST SWAP1 POP SWAP2 SWAP1 POP JUMP JUMPDEST PUSH1 0x0 PUSH1 0x20 DUP3 ADD SWAP1 POP DUP2 DUP2 SUB PUSH1 0x0 DUP4 ADD MSTORE PUSH2 0x1C6F DUP2 PUSH2 0x199A JUMP JUMPDEST SWAP1 POP SWAP2 SWAP1 POP JUMP JUMPDEST PUSH1 0x0 PUSH1 0x20 DUP3 ADD SWAP1 POP DUP2 DUP2 SUB PUSH1 0x0 DUP4 ADD MSTORE PUSH2 0x1C8F DUP2 PUSH2 0x19BD JUMP JUMPDEST SWAP1 POP SWAP2 SWAP1 POP JUMP JUMPDEST PUSH1 0x0 PUSH1 0x20 DUP3 ADD SWAP1 POP DUP2 DUP2 SUB PUSH1 0x0 DUP4 ADD MSTORE PUSH2 0x1CAF DUP2 PUSH2 0x19E0 JUMP JUMPDEST SWAP1 POP SWAP2 SWAP1 POP JUMP JUMPDEST PUSH1 0x0 PUSH1 0x20 DUP3 ADD SWAP1 POP DUP2 DUP2 SUB PUSH1 0x0 DUP4 ADD MSTORE PUSH2 0x1CCF DUP2 PUSH2 0x1A03 JUMP JUMPDEST SWAP1 POP SWAP2 SWAP1 POP JUMP JUMPDEST PUSH1 0x0 PUSH1 0x20 DUP3 ADD SWAP1 POP DUP2 DUP2 SUB PUSH1 0x0 DUP4 ADD MSTORE PUSH2 0x1CEF DUP2 PUSH2 0x1A26 JUMP JUMPDEST SWAP1 POP SWAP2 SWAP1 POP JUMP JUMPDEST PUSH1 0x0 PUSH1 0x20 DUP3 ADD SWAP1 POP DUP2 DUP2 SUB PUSH1 0x0 DUP4 ADD MSTORE PUSH2 0x1D0F DUP2 PUSH2 0x1A49 JUMP JUMPDEST SWAP1 POP SWAP2 SWAP1 POP JUMP JUMPDEST PUSH1 0x0 PUSH1 0x20 DUP3 ADD SWAP1 POP PUSH2 0x1D2B PUSH1 0x0 DUP4 ADD DUP5 PUSH2 0x1A6C JUMP JUMPDEST SWAP3 SWAP2 POP POP JUMP JUMPDEST PUSH1 0x0 DUP3 DUP3 MSTORE PUSH1 0x20 DUP3 ADD SWAP1 POP SWAP3 SWAP2 POP POP JUMP JUMPDEST PUSH1 0x0 PUSH2 0x1D4D DUP3 PUSH2 0x1E95 JUMP JUMPDEST SWAP2 POP PUSH2 0x1D58 DUP4 PUSH2 0x1E95 JUMP JUMPDEST SWAP3 POP DUP3 PUSH32 0xFFFFFFFFFFFFFFFFFFFFFFFFFFFFFFFFFFFFFFFFFFFFFFFFFFFFFFFFFFFFFFFF SUB DUP3 GT ISZERO PUSH2 0x1D8D JUMPI PUSH2 0x1D8C PUSH2 0x1ECE JUMP JUMPDEST JUMPDEST DUP3 DUP3 ADD SWAP1 POP SWAP3 SWAP2 POP POP JUMP JUMPDEST PUSH1 0x0 PUSH2 0x1DA3 DUP3 PUSH2 0x1E95 JUMP JUMPDEST SWAP2 POP PUSH2 0x1DAE DUP4 PUSH2 0x1E95 JUMP JUMPDEST SWAP3 POP DUP3 PUSH2 0x1DBE JUMPI PUSH2 0x1DBD PUSH2 0x1EFD JUMP JUMPDEST JUMPDEST DUP3 DUP3 DIV SWAP1 POP SWAP3 SWAP2 POP POP JUMP JUMPDEST PUSH1 0x0 PUSH2 0x1DD4 DUP3 PUSH2 0x1E95 JUMP JUMPDEST SWAP2 POP PUSH2 0x1DDF DUP4 PUSH2 0x1E95 JUMP JUMPDEST SWAP3 POP DUP2 PUSH32 0xFFFFFFFFFFFFFFFFFFFFFFFFFFFFFFFFFFFFFFFFFFFFFFFFFFFFFFFFFFFFFFFF DIV DUP4 GT DUP3 ISZERO ISZERO AND ISZERO PUSH2 0x1E18 JUMPI PUSH2 0x1E17 PUSH2 0x1ECE JUMP JUMPDEST JUMPDEST DUP3 DUP3 MUL SWAP1 POP SWAP3 SWAP2 POP POP JUMP JUMPDEST PUSH1 0x0 PUSH2 0x1E2E DUP3 PUSH2 0x1E95 JUMP JUMPDEST SWAP2 POP PUSH2 0x1E39 DUP4 PUSH2 0x1E95 JUMP JUMPDEST SWAP3 POP DUP3 DUP3 LT ISZERO PUSH2 0x1E4C JUMPI PUSH2 0x1E4B PUSH2 0x1ECE JUMP JUMPDEST JUMPDEST DUP3 DUP3 SUB SWAP1 POP SWAP3 SWAP2 POP POP JUMP JUMPDEST PUSH1 0x0 PUSH2 0x1E62 DUP3 PUSH2 0x1E75 JUMP JUMPDEST SWAP1 POP SWAP2 SWAP1 POP JUMP JUMPDEST PUSH1 0x0 DUP2 ISZERO ISZERO SWAP1 POP SWAP2 SWAP1 POP JUMP JUMPDEST PUSH1 0x0 PUSH20 0xFFFFFFFFFFFFFFFFFFFFFFFFFFFFFFFFFFFFFFFF DUP3 AND SWAP1 POP SWAP2 SWAP1 POP JUMP JUMPDEST PUSH1 0x0 DUP2 SWAP1 POP SWAP2 SWAP1 POP JUMP JUMPDEST PUSH32 0x4E487B7100000000000000000000000000000000000000000000000000000000 PUSH1 0x0 MSTORE PUSH1 0x1 PUSH1 0x4 MSTORE PUSH1 0x24 PUSH1 0x0 REVERT JUMPDEST PUSH32 0x4E487B7100000000000000000000000000000000000000000000000000000000 PUSH1 0x0 MSTORE PUSH1 0x11 PUSH1 0x4 MSTORE PUSH1 0x24 PUSH1 0x0 REVERT JUMPDEST PUSH32 0x4E487B7100000000000000000000000000000000000000000000000000000000 PUSH1 0x0 MSTORE PUSH1 0x12 PUSH1 0x4 MSTORE PUSH1 0x24 PUSH1 0x0 REVERT JUMPDEST PUSH1 0x0 DUP1 REVERT JUMPDEST PUSH32 0x4E6F20746F6B656E7320696E2072657365727665730000000000000000000000 PUSH1 0x0 DUP3 ADD MSTORE POP JUMP JUMPDEST PUSH32 0x4E6565642045544820746F2063726561746520706F6F6C2E0000000000000000 PUSH1 0x0 DUP3 ADD MSTORE POP JUMP JUMPDEST PUSH32 0x4E65656420746F6B656E7320746F2063726561746520706F6F6C2E0000000000 PUSH1 0x0 DUP3 ADD MSTORE POP JUMP JUMPDEST PUSH32 0x4E6F2045544820696E2072657365727665730000000000000000000000000000 PUSH1 0x0 DUP3 ADD MSTORE POP JUMP JUMPDEST PUSH32 0x496E76616C696420737761700000000000000000000000000000000000000000 PUSH1 0x0 DUP3 ADD MSTORE POP JUMP JUMPDEST PUSH32 0x4D7573742070726F766964652045544820666F72206C69717569646974790000 PUSH1 0x0 DUP3 ADD MSTORE POP JUMP JUMPDEST PUSH32 0x546F6B656E20726573657276657320776173206E6F7420300000000000000000 PUSH1 0x0 DUP3 ADD MSTORE POP JUMP JUMPDEST PUSH32 0x4E6F7420656E6F756768206C697175696469747920746F2072656D6F76650000 PUSH1 0x0 DUP3 ADD MSTORE POP JUMP JUMPDEST PUSH32 0x496E73756666696369656E742045544820696E20726573657276657300000000 PUSH1 0x0 DUP3 ADD MSTORE POP JUMP JUMPDEST PUSH32 0x546F6B656E207472616E73666572206661696C65640000000000000000000000 PUSH1 0x0 DUP3 ADD MSTORE POP JUMP JUMPDEST PUSH32 0x52657365727665732061726520656D7074790000000000000000000000000000 PUSH1 0x0 DUP3 ADD MSTORE POP JUMP JUMPDEST PUSH32 0x4E6F204554482073656E74000000000000000000000000000000000000000000 PUSH1 0x0 DUP3 ADD MSTORE POP JUMP JUMPDEST PUSH32 0x4F776E61626C653A2063616C6C6572206973206E6F7420746865206F776E6572 PUSH1 0x0 DUP3 ADD MSTORE POP JUMP JUMPDEST PUSH32 0x4E6F206C697175696469747920746F2072656D6F766500000000000000000000 PUSH1 0x0 DUP3 ADD MSTORE POP JUMP JUMPDEST PUSH32 0x496E73756666696369656E7420746F6B656E7320696E20726573657276657300 PUSH1 0x0 DUP3 ADD MSTORE POP JUMP JUMPDEST PUSH32 0x45544820726573657276657320776173206E6F7420302E000000000000000000 PUSH1 0x0 DUP3 ADD MSTORE POP JUMP JUMPDEST PUSH32 0x496E73756666696369656E7420746F6B656E7300000000000000000000000000 PUSH1 0x0 DUP3 ADD MSTORE POP JUMP JUMPDEST PUSH2 0x21F3 DUP2 PUSH2 0x1E57 JUMP JUMPDEST DUP2 EQ PUSH2 0x21FE JUMPI PUSH1 0x0 DUP1 REVERT JUMPDEST POP JUMP JUMPDEST PUSH2 0x220A DUP2 PUSH2 0x1E69 JUMP JUMPDEST DUP2 EQ PUSH2 0x2215 JUMPI PUSH1 0x0 DUP1 REVERT JUMPDEST POP JUMP JUMPDEST PUSH2 0x2221 DUP2 PUSH2 0x1E95 JUMP JUMPDEST DUP2 EQ PUSH2 0x222C JUMPI PUSH1 0x0 DUP1 REVERT JUMPDEST POP JUMP INVALID LOG2 PUSH5 0x6970667358 0x22 SLT KECCAK256 0xAF 0xD1 XOR PUSH3 0x4A4263 DUP8 DUP11 0xF MOD PUSH22 0x946D0F8B9A4ECB371EC4C6A53B0B64366BBE77856473 PUSH16 0x6C634300080700330000000000000000 "
				},
				"gasEstimates": {
					"creation": {
						"codeDepositCost": "1761000",
						"executionCost": "138181",
						"totalCost": "1899181"
					},
					"external": {
						"addLiquidity()": "infinite",
						"admin()": "2624",
						"amountETHGivenToken(uint256)": "infinite",
						"amountTokenGivenETH(uint256)": "infinite",
						"createPool(uint256)": "infinite",
						"eth_reserves()": "2496",
						"getEthAmountForTokenSwap(uint256)": "infinite",
						"getTokenAmountForEthSwap(uint256)": "infinite",
						"k()": "2474",
						"priceETH()": "infinite",
						"priceToken()": "infinite",
						"removeAllLiquidity()": "infinite",
						"removeLiquidity(uint256)": "infinite",
						"swapETHForTokens()": "infinite",
						"swapTokensForETH(uint256)": "infinite",
						"token_reserves()": "2518",
						"userLiquidity(address)": "2881"
					},
					"internal": {
						"_checkRounding()": "infinite"
					}
				},
				"methodIdentifiers": {
					"addLiquidity()": "e8078d94",
					"admin()": "f851a440",
					"amountETHGivenToken(uint256)": "eeddd4f6",
					"amountTokenGivenETH(uint256)": "156ac5ca",
					"createPool(uint256)": "8259e6a0",
					"eth_reserves()": "97ba499f",
					"getEthAmountForTokenSwap(uint256)": "58cd35db",
					"getTokenAmountForEthSwap(uint256)": "33aafe15",
					"k()": "b4f40c61",
					"priceETH()": "c38ad273",
					"priceToken()": "2ff6fe76",
					"removeAllLiquidity()": "88a780e5",
					"removeLiquidity(uint256)": "9c8f9f23",
					"swapETHForTokens()": "d592cbf6",
					"swapTokensForETH(uint256)": "e56a645e",
					"token_reserves()": "9adb3b97",
					"userLiquidity(address)": "ba4c28c3"
				}
			},
			"storageLayout": {
				"storage": [
					{
						"astId": 1491,
						"contract": "contracts/exchange.sol:TokenExchange",
						"label": "_owner",
						"offset": 0,
						"slot": "0",
						"type": "t_address"
					},
					{
						"astId": 8,
						"contract": "contracts/exchange.sol:TokenExchange",
						"label": "admin",
						"offset": 0,
						"slot": "1",
						"type": "t_address"
					},
					{
						"astId": 11,
						"contract": "contracts/exchange.sol:TokenExchange",
						"label": "tokenAddr",
						"offset": 0,
						"slot": "2",
						"type": "t_address"
					},
					{
						"astId": 17,
						"contract": "contracts/exchange.sol:TokenExchange",
						"label": "token",
						"offset": 0,
						"slot": "3",
						"type": "t_contract(HUSTToken)1099"
					},
					{
						"astId": 20,
						"contract": "contracts/exchange.sol:TokenExchange",
						"label": "token_reserves",
						"offset": 0,
						"slot": "4",
						"type": "t_uint256"
					},
					{
						"astId": 23,
						"contract": "contracts/exchange.sol:TokenExchange",
						"label": "eth_reserves",
						"offset": 0,
						"slot": "5",
						"type": "t_uint256"
					},
					{
						"astId": 25,
						"contract": "contracts/exchange.sol:TokenExchange",
						"label": "k",
						"offset": 0,
						"slot": "6",
						"type": "t_uint256"
					},
					{
						"astId": 28,
						"contract": "contracts/exchange.sol:TokenExchange",
						"label": "swap_fee_numerator",
						"offset": 0,
						"slot": "7",
						"type": "t_uint256"
					},
					{
						"astId": 31,
						"contract": "contracts/exchange.sol:TokenExchange",
						"label": "swap_fee_denominator",
						"offset": 0,
						"slot": "8",
						"type": "t_uint256"
					},
					{
						"astId": 47,
						"contract": "contracts/exchange.sol:TokenExchange",
						"label": "userLiquidity",
						"offset": 0,
						"slot": "9",
						"type": "t_mapping(t_address,t_uint256)"
					}
				],
				"types": {
					"t_address": {
						"encoding": "inplace",
						"label": "address",
						"numberOfBytes": "20"
					},
					"t_contract(HUSTToken)1099": {
						"encoding": "inplace",
						"label": "contract HUSTToken",
						"numberOfBytes": "20"
					},
					"t_mapping(t_address,t_uint256)": {
						"encoding": "mapping",
						"key": "t_address",
						"label": "mapping(address => uint256)",
						"numberOfBytes": "32",
						"value": "t_uint256"
					},
					"t_uint256": {
						"encoding": "inplace",
						"label": "uint256",
						"numberOfBytes": "32"
					}
				}
			},
			"userdoc": {
				"kind": "user",
				"methods": {
					"addLiquidity()": {
						"notice": "Adds liquidity given a supply of ETH (sent to the contract as msg.value). Calculates the liquidity to be added based on what was sent in and the prices. If the caller possesses insufficient tokens to equal the ETH sent, then the transaction must fail. A successful transaction should update the state of the contract, including the new constant product k, and then Emit an AddLiquidity event. NOTE: You can change the inputs, or the scope of your function, as needed."
					},
					"createPool(uint256)": {
						"notice": "Initializes a liquidity pool between your token and ETH. This is a payable function which means you can send in ETH as a quasi-parameter. In this case, the amount of eth sent to the pool will be in msg.value and the number of tokens will be amountTokens. Requirements:  - the liquidity pool should be empty to start  - the sender should send positive values for each"
					},
					"removeAllLiquidity()": {
						"notice": "Removes all liquidity that the sender is entitled to withdraw. Calculate the maximum amount of liquidity that the sender is entitled to withdraw and then calls removeLiquidity() to remove that amount of liquidity from the pool. NOTE: You can change the inputs, or the scope of your function, as needed."
					},
					"removeLiquidity(uint256)": {
						"notice": "Removes liquidity given the desired amount of ETH to remove. Calculates the amount of your tokens that should be also removed. If the caller is not entitled to remove the desired amount of liquidity, the transaction should fail. A successful transaction should update the state of the contract, including the new constant product k, transfer the ETH and Token to the sender and then Emit an RemoveLiquidity event. NOTE: You can change the inputs, or the scope of your function, as needed."
					},
					"swapETHForTokens()": {
						"notice": "Swaps msg.value ETH in exchange for your tokens. Calculates the amount of tokens that should be swapped in order to keep the constant product property, and transfers that number of tokens to the sender. If performing the swap would exhaust the total supply of tokens inside the exchange, the transaction must fail. Part 4 – Expand the function to take in additional parameters as needed. If the          exchange rate is greater than the slippage limit, the swap should fail. Part 5 – Only exchange amountTokens minus the fee taken out for liquidity providers          and keep track of the liquidity fees to be added back into the pool. NOTE: You can change the inputs, or the scope of your function, as needed."
					},
					"swapTokensForETH(uint256)": {
						"notice": "Swaps amountTokens of Token in exchange for ETH. Calculates the amount of ETH that should be swapped in order to keep the constant product property, and transfers that amount of ETH to the provider. If the caller has insufficient tokens, the transaction should fail. If performing the swap would exhaust the total supply of ETH inside the exchange, the transaction must fail. Part 4 – Expand the function to take in additional parameters as needed. If the          exchange rate is greater than the slippage limit, the swap should fail. Part 5 – Only exchange amountTokens minus the fee taken out for liquidity providers          and keep track of the liquidity fees to be added back into the pool. NOTE: You can change the inputs, or the scope of your function, as needed."
					}
				},
				"version": 1
			}
		}
	}
}