{
	"data": {
		"bytecode": {
			"linkReferences": {},
			"object": "6080604052600260009054906101000a900473ffffffffffffffffffffffffffffffffffffffff16600360006101000a81548173ffffffffffffffffffffffffffffffffffffffff021916908373ffffffffffffffffffffffffffffffffffffffff160217905550600060045560006005556000600755606460085534801561008757600080fd5b50336000806101000a81548173ffffffffffffffffffffffffffffffffffffffff021916908373ffffffffffffffffffffffffffffffffffffffff16021790555033600160006101000a81548173ffffffffffffffffffffffffffffffffffffffff021916908373ffffffffffffffffffffffffffffffffffffffff160217905550610ad3806101186000396000f3fe6080604052600436106100a75760003560e01c8063b4f40c6111610064578063b4f40c6114610181578063d592cbf6146101ac578063e56a645e146101b6578063e8078d94146101d2578063eeddd4f6146101dc578063f851a44014610219576100a7565b8063156ac5ca146100ac5780638259e6a0146100e957806388a780e51461010557806397ba499f1461010f5780639adb3b971461013a5780639c8f9f2314610165575b600080fd5b3480156100b857600080fd5b506100d360048036038101906100ce91906105fb565b610244565b6040516100e091906107e7565b60405180910390f35b61010360048036038101906100fe91906105fb565b61024b565b005b61010d6104c2565b005b34801561011b57600080fd5b506101246104c4565b60405161013191906107e7565b60405180910390f35b34801561014657600080fd5b5061014f6104ca565b60405161015c91906107e7565b60405180910390f35b61017f600480360381019061017a91906105fb565b6104d0565b005b34801561018d57600080fd5b506101966104d3565b6040516101a391906107e7565b60405180910390f35b6101b46104d9565b005b6101d060048036038101906101cb91906105fb565b6104e3565b005b6101da6104ee565b005b3480156101e857600080fd5b5061020360048036038101906101fe91906105fb565b6104f0565b60405161021091906107e7565b60405180910390f35b34801561022557600080fd5b5061022e6104f7565b60405161023b91906106f5565b60405180910390f35b6000919050565b3373ffffffffffffffffffffffffffffffffffffffff1660008054906101000a900473ffffffffffffffffffffffffffffffffffffffff1673ffffffffffffffffffffffffffffffffffffffff16146102d9576040517f08c379a00000000000000000000000000000000000000000000000000000000081526004016102d0906107a7565b60405180910390fd5b60006004541461031e576040517f08c379a000000000000000000000000000000000000000000000000000000000815260040161031590610787565b60405180910390fd5b600060055414610363576040517f08c379a000000000000000000000000000000000000000000000000000000000815260040161035a906107c7565b60405180910390fd5b600034116103a6576040517f08c379a000000000000000000000000000000000000000000000000000000000815260040161039d90610747565b60405180910390fd5b600081116103e9576040517f08c379a00000000000000000000000000000000000000000000000000000000081526004016103e090610767565b60405180910390fd5b600360009054906101000a900473ffffffffffffffffffffffffffffffffffffffff1673ffffffffffffffffffffffffffffffffffffffff166323b872dd3330846040518463ffffffff1660e01b815260040161044893929190610710565b602060405180830381600087803b15801561046257600080fd5b505af1158015610476573d6000803e3d6000fd5b505050506040513d601f19601f8201168201806040525081019061049a91906105ce565b5034600581905550806004819055506004546005546104b99190610869565b60068190555050565b565b60055481565b60045481565b50565b60065481565b6104e161051d565b565b6104eb61051d565b50565b565b6000919050565b600160009054906101000a900473ffffffffffffffffffffffffffffffffffffffff1681565b600060055460045461052f9190610869565b9050600654811061054f576006548161054891906108c3565b9050610560565b8060065461055d91906108c3565b90505b60016005546004546105729190610813565b61057c9190610813565b811061058b5761058a61093f565b5b60055460045461059b9190610869565b60068190555050565b6000815190506105b381610a6f565b92915050565b6000813590506105c881610a86565b92915050565b6000602082840312156105e4576105e361099d565b5b60006105f2848285016105a4565b91505092915050565b6000602082840312156106115761061061099d565b5b600061061f848285016105b9565b91505092915050565b610631816108f7565b82525050565b6000610644601883610802565b915061064f826109a2565b602082019050919050565b6000610667601b83610802565b9150610672826109cb565b602082019050919050565b600061068a601883610802565b9150610695826109f4565b602082019050919050565b60006106ad602083610802565b91506106b882610a1d565b602082019050919050565b60006106d0601783610802565b91506106db82610a46565b602082019050919050565b6106ef81610935565b82525050565b600060208201905061070a6000830184610628565b92915050565b60006060820190506107256000830186610628565b6107326020830185610628565b61073f60408301846106e6565b949350505050565b6000602082019050818103600083015261076081610637565b9050919050565b600060208201905081810360008301526107808161065a565b9050919050565b600060208201905081810360008301526107a08161067d565b9050919050565b600060208201905081810360008301526107c0816106a0565b9050919050565b600060208201905081810360008301526107e0816106c3565b9050919050565b60006020820190506107fc60008301846106e6565b92915050565b600082825260208201905092915050565b600061081e82610935565b915061082983610935565b9250827fffffffffffffffffffffffffffffffffffffffffffffffffffffffffffffffff0382111561085e5761085d61096e565b5b828201905092915050565b600061087482610935565b915061087f83610935565b9250817fffffffffffffffffffffffffffffffffffffffffffffffffffffffffffffffff04831182151516156108b8576108b761096e565b5b828202905092915050565b60006108ce82610935565b91506108d983610935565b9250828210156108ec576108eb61096e565b5b828203905092915050565b600061090282610915565b9050919050565b60008115159050919050565b600073ffffffffffffffffffffffffffffffffffffffff82169050919050565b6000819050919050565b7f4e487b7100000000000000000000000000000000000000000000000000000000600052600160045260246000fd5b7f4e487b7100000000000000000000000000000000000000000000000000000000600052601160045260246000fd5b600080fd5b7f4e6565642045544820746f2063726561746520706f6f6c2e0000000000000000600082015250565b7f4e65656420746f6b656e7320746f2063726561746520706f6f6c2e0000000000600082015250565b7f546f6b656e20726573657276657320776173206e6f7420300000000000000000600082015250565b7f4f776e61626c653a2063616c6c6572206973206e6f7420746865206f776e6572600082015250565b7f45544820726573657276657320776173206e6f7420302e000000000000000000600082015250565b610a7881610909565b8114610a8357600080fd5b50565b610a8f81610935565b8114610a9a57600080fd5b5056fea2646970667358221220d9921e3fa90c52669eff56eb77183dcd4173b03e555bc1f2b158f404e833884464736f6c63430008070033",
			"opcodes": "PUSH1 0x80 PUSH1 0x40 MSTORE PUSH1 0x2 PUSH1 0x0 SWAP1 SLOAD SWAP1 PUSH2 0x100 EXP SWAP1 DIV PUSH20 0xFFFFFFFFFFFFFFFFFFFFFFFFFFFFFFFFFFFFFFFF AND PUSH1 0x3 PUSH1 0x0 PUSH2 0x100 EXP DUP2 SLOAD DUP2 PUSH20 0xFFFFFFFFFFFFFFFFFFFFFFFFFFFFFFFFFFFFFFFF MUL NOT AND SWAP1 DUP4 PUSH20 0xFFFFFFFFFFFFFFFFFFFFFFFFFFFFFFFFFFFFFFFF AND MUL OR SWAP1 SSTORE POP PUSH1 0x0 PUSH1 0x4 SSTORE PUSH1 0x0 PUSH1 0x5 SSTORE PUSH1 0x0 PUSH1 0x7 SSTORE PUSH1 0x64 PUSH1 0x8 SSTORE CALLVALUE DUP1 ISZERO PUSH2 0x87 JUMPI PUSH1 0x0 DUP1 REVERT JUMPDEST POP CALLER PUSH1 0x0 DUP1 PUSH2 0x100 EXP DUP2 SLOAD DUP2 PUSH20 0xFFFFFFFFFFFFFFFFFFFFFFFFFFFFFFFFFFFFFFFF MUL NOT AND SWAP1 DUP4 PUSH20 0xFFFFFFFFFFFFFFFFFFFFFFFFFFFFFFFFFFFFFFFF AND MUL OR SWAP1 SSTORE POP CALLER PUSH1 0x1 PUSH1 0x0 PUSH2 0x100 EXP DUP2 SLOAD DUP2 PUSH20 0xFFFFFFFFFFFFFFFFFFFFFFFFFFFFFFFFFFFFFFFF MUL NOT AND SWAP1 DUP4 PUSH20 0xFFFFFFFFFFFFFFFFFFFFFFFFFFFFFFFFFFFFFFFF AND MUL OR SWAP1 SSTORE POP PUSH2 0xAD3 DUP1 PUSH2 0x118 PUSH1 0x0 CODECOPY PUSH1 0x0 RETURN INVALID PUSH1 0x80 PUSH1 0x40 MSTORE PUSH1 0x4 CALLDATASIZE LT PUSH2 0xA7 JUMPI PUSH1 0x0 CALLDATALOAD PUSH1 0xE0 SHR DUP1 PUSH4 0xB4F40C61 GT PUSH2 0x64 JUMPI DUP1 PUSH4 0xB4F40C61 EQ PUSH2 0x181 JUMPI DUP1 PUSH4 0xD592CBF6 EQ PUSH2 0x1AC JUMPI DUP1 PUSH4 0xE56A645E EQ PUSH2 0x1B6 JUMPI DUP1 PUSH4 0xE8078D94 EQ PUSH2 0x1D2 JUMPI DUP1 PUSH4 0xEEDDD4F6 EQ PUSH2 0x1DC JUMPI DUP1 PUSH4 0xF851A440 EQ PUSH2 0x219 JUMPI PUSH2 0xA7 JUMP JUMPDEST DUP1 PUSH4 0x156AC5CA EQ PUSH2 0xAC JUMPI DUP1 PUSH4 0x8259E6A0 EQ PUSH2 0xE9 JUMPI DUP1 PUSH4 0x88A780E5 EQ PUSH2 0x105 JUMPI DUP1 PUSH4 0x97BA499F EQ PUSH2 0x10F JUMPI DUP1 PUSH4 0x9ADB3B97 EQ PUSH2 0x13A JUMPI DUP1 PUSH4 0x9C8F9F23 EQ PUSH2 0x165 JUMPI JUMPDEST PUSH1 0x0 DUP1 REVERT JUMPDEST CALLVALUE DUP1 ISZERO PUSH2 0xB8 JUMPI PUSH1 0x0 DUP1 REVERT JUMPDEST POP PUSH2 0xD3 PUSH1 0x4 DUP1 CALLDATASIZE SUB DUP2 ADD SWAP1 PUSH2 0xCE SWAP2 SWAP1 PUSH2 0x5FB JUMP JUMPDEST PUSH2 0x244 JUMP JUMPDEST PUSH1 0x40 MLOAD PUSH2 0xE0 SWAP2 SWAP1 PUSH2 0x7E7 JUMP JUMPDEST PUSH1 0x40 MLOAD DUP1 SWAP2 SUB SWAP1 RETURN JUMPDEST PUSH2 0x103 PUSH1 0x4 DUP1 CALLDATASIZE SUB DUP2 ADD SWAP1 PUSH2 0xFE SWAP2 SWAP1 PUSH2 0x5FB JUMP JUMPDEST PUSH2 0x24B JUMP JUMPDEST STOP JUMPDEST PUSH2 0x10D PUSH2 0x4C2 JUMP JUMPDEST STOP JUMPDEST CALLVALUE DUP1 ISZERO PUSH2 0x11B JUMPI PUSH1 0x0 DUP1 REVERT JUMPDEST POP PUSH2 0x124 PUSH2 0x4C4 JUMP JUMPDEST PUSH1 0x40 MLOAD PUSH2 0x131 SWAP2 SWAP1 PUSH2 0x7E7 JUMP JUMPDEST PUSH1 0x40 MLOAD DUP1 SWAP2 SUB SWAP1 RETURN JUMPDEST CALLVALUE DUP1 ISZERO PUSH2 0x146 JUMPI PUSH1 0x0 DUP1 REVERT JUMPDEST POP PUSH2 0x14F PUSH2 0x4CA JUMP JUMPDEST PUSH1 0x40 MLOAD PUSH2 0x15C SWAP2 SWAP1 PUSH2 0x7E7 JUMP JUMPDEST PUSH1 0x40 MLOAD DUP1 SWAP2 SUB SWAP1 RETURN JUMPDEST PUSH2 0x17F PUSH1 0x4 DUP1 CALLDATASIZE SUB DUP2 ADD SWAP1 PUSH2 0x17A SWAP2 SWAP1 PUSH2 0x5FB JUMP JUMPDEST PUSH2 0x4D0 JUMP JUMPDEST STOP JUMPDEST CALLVALUE DUP1 ISZERO PUSH2 0x18D JUMPI PUSH1 0x0 DUP1 REVERT JUMPDEST POP PUSH2 0x196 PUSH2 0x4D3 JUMP JUMPDEST PUSH1 0x40 MLOAD PUSH2 0x1A3 SWAP2 SWAP1 PUSH2 0x7E7 JUMP JUMPDEST PUSH1 0x40 MLOAD DUP1 SWAP2 SUB SWAP1 RETURN JUMPDEST PUSH2 0x1B4 PUSH2 0x4D9 JUMP JUMPDEST STOP JUMPDEST PUSH2 0x1D0 PUSH1 0x4 DUP1 CALLDATASIZE SUB DUP2 ADD SWAP1 PUSH2 0x1CB SWAP2 SWAP1 PUSH2 0x5FB JUMP JUMPDEST PUSH2 0x4E3 JUMP JUMPDEST STOP JUMPDEST PUSH2 0x1DA PUSH2 0x4EE JUMP JUMPDEST STOP JUMPDEST CALLVALUE DUP1 ISZERO PUSH2 0x1E8 JUMPI PUSH1 0x0 DUP1 REVERT JUMPDEST POP PUSH2 0x203 PUSH1 0x4 DUP1 CALLDATASIZE SUB DUP2 ADD SWAP1 PUSH2 0x1FE SWAP2 SWAP1 PUSH2 0x5FB JUMP JUMPDEST PUSH2 0x4F0 JUMP JUMPDEST PUSH1 0x40 MLOAD PUSH2 0x210 SWAP2 SWAP1 PUSH2 0x7E7 JUMP JUMPDEST PUSH1 0x40 MLOAD DUP1 SWAP2 SUB SWAP1 RETURN JUMPDEST CALLVALUE DUP1 ISZERO PUSH2 0x225 JUMPI PUSH1 0x0 DUP1 REVERT JUMPDEST POP PUSH2 0x22E PUSH2 0x4F7 JUMP JUMPDEST PUSH1 0x40 MLOAD PUSH2 0x23B SWAP2 SWAP1 PUSH2 0x6F5 JUMP JUMPDEST PUSH1 0x40 MLOAD DUP1 SWAP2 SUB SWAP1 RETURN JUMPDEST PUSH1 0x0 SWAP2 SWAP1 POP JUMP JUMPDEST CALLER PUSH20 0xFFFFFFFFFFFFFFFFFFFFFFFFFFFFFFFFFFFFFFFF AND PUSH1 0x0 DUP1 SLOAD SWAP1 PUSH2 0x100 EXP SWAP1 DIV PUSH20 0xFFFFFFFFFFFFFFFFFFFFFFFFFFFFFFFFFFFFFFFF AND PUSH20 0xFFFFFFFFFFFFFFFFFFFFFFFFFFFFFFFFFFFFFFFF AND EQ PUSH2 0x2D9 JUMPI PUSH1 0x40 MLOAD PUSH32 0x8C379A000000000000000000000000000000000000000000000000000000000 DUP2 MSTORE PUSH1 0x4 ADD PUSH2 0x2D0 SWAP1 PUSH2 0x7A7 JUMP JUMPDEST PUSH1 0x40 MLOAD DUP1 SWAP2 SUB SWAP1 REVERT JUMPDEST PUSH1 0x0 PUSH1 0x4 SLOAD EQ PUSH2 0x31E JUMPI PUSH1 0x40 MLOAD PUSH32 0x8C379A000000000000000000000000000000000000000000000000000000000 DUP2 MSTORE PUSH1 0x4 ADD PUSH2 0x315 SWAP1 PUSH2 0x787 JUMP JUMPDEST PUSH1 0x40 MLOAD DUP1 SWAP2 SUB SWAP1 REVERT JUMPDEST PUSH1 0x0 PUSH1 0x5 SLOAD EQ PUSH2 0x363 JUMPI PUSH1 0x40 MLOAD PUSH32 0x8C379A000000000000000000000000000000000000000000000000000000000 DUP2 MSTORE PUSH1 0x4 ADD PUSH2 0x35A SWAP1 PUSH2 0x7C7 JUMP JUMPDEST PUSH1 0x40 MLOAD DUP1 SWAP2 SUB SWAP1 REVERT JUMPDEST PUSH1 0x0 CALLVALUE GT PUSH2 0x3A6 JUMPI PUSH1 0x40 MLOAD PUSH32 0x8C379A000000000000000000000000000000000000000000000000000000000 DUP2 MSTORE PUSH1 0x4 ADD PUSH2 0x39D SWAP1 PUSH2 0x747 JUMP JUMPDEST PUSH1 0x40 MLOAD DUP1 SWAP2 SUB SWAP1 REVERT JUMPDEST PUSH1 0x0 DUP2 GT PUSH2 0x3E9 JUMPI PUSH1 0x40 MLOAD PUSH32 0x8C379A000000000000000000000000000000000000000000000000000000000 DUP2 MSTORE PUSH1 0x4 ADD PUSH2 0x3E0 SWAP1 PUSH2 0x767 JUMP JUMPDEST PUSH1 0x40 MLOAD DUP1 SWAP2 SUB SWAP1 REVERT JUMPDEST PUSH1 0x3 PUSH1 0x0 SWAP1 SLOAD SWAP1 PUSH2 0x100 EXP SWAP1 DIV PUSH20 0xFFFFFFFFFFFFFFFFFFFFFFFFFFFFFFFFFFFFFFFF AND PUSH20 0xFFFFFFFFFFFFFFFFFFFFFFFFFFFFFFFFFFFFFFFF AND PUSH4 0x23B872DD CALLER ADDRESS DUP5 PUSH1 0x40 MLOAD DUP5 PUSH4 0xFFFFFFFF AND PUSH1 0xE0 SHL DUP2 MSTORE PUSH1 0x4 ADD PUSH2 0x448 SWAP4 SWAP3 SWAP2 SWAP1 PUSH2 0x710 JUMP JUMPDEST PUSH1 0x20 PUSH1 0x40 MLOAD DUP1 DUP4 SUB DUP2 PUSH1 0x0 DUP8 DUP1 EXTCODESIZE ISZERO DUP1 ISZERO PUSH2 0x462 JUMPI PUSH1 0x0 DUP1 REVERT JUMPDEST POP GAS CALL ISZERO DUP1 ISZERO PUSH2 0x476 JUMPI RETURNDATASIZE PUSH1 0x0 DUP1 RETURNDATACOPY RETURNDATASIZE PUSH1 0x0 REVERT JUMPDEST POP POP POP POP PUSH1 0x40 MLOAD RETURNDATASIZE PUSH1 0x1F NOT PUSH1 0x1F DUP3 ADD AND DUP3 ADD DUP1 PUSH1 0x40 MSTORE POP DUP2 ADD SWAP1 PUSH2 0x49A SWAP2 SWAP1 PUSH2 0x5CE JUMP JUMPDEST POP CALLVALUE PUSH1 0x5 DUP2 SWAP1 SSTORE POP DUP1 PUSH1 0x4 DUP2 SWAP1 SSTORE POP PUSH1 0x4 SLOAD PUSH1 0x5 SLOAD PUSH2 0x4B9 SWAP2 SWAP1 PUSH2 0x869 JUMP JUMPDEST PUSH1 0x6 DUP2 SWAP1 SSTORE POP POP JUMP JUMPDEST JUMP JUMPDEST PUSH1 0x5 SLOAD DUP2 JUMP JUMPDEST PUSH1 0x4 SLOAD DUP2 JUMP JUMPDEST POP JUMP JUMPDEST PUSH1 0x6 SLOAD DUP2 JUMP JUMPDEST PUSH2 0x4E1 PUSH2 0x51D JUMP JUMPDEST JUMP JUMPDEST PUSH2 0x4EB PUSH2 0x51D JUMP JUMPDEST POP JUMP JUMPDEST JUMP JUMPDEST PUSH1 0x0 SWAP2 SWAP1 POP JUMP JUMPDEST PUSH1 0x1 PUSH1 0x0 SWAP1 SLOAD SWAP1 PUSH2 0x100 EXP SWAP1 DIV PUSH20 0xFFFFFFFFFFFFFFFFFFFFFFFFFFFFFFFFFFFFFFFF AND DUP2 JUMP JUMPDEST PUSH1 0x0 PUSH1 0x5 SLOAD PUSH1 0x4 SLOAD PUSH2 0x52F SWAP2 SWAP1 PUSH2 0x869 JUMP JUMPDEST SWAP1 POP PUSH1 0x6 SLOAD DUP2 LT PUSH2 0x54F JUMPI PUSH1 0x6 SLOAD DUP2 PUSH2 0x548 SWAP2 SWAP1 PUSH2 0x8C3 JUMP JUMPDEST SWAP1 POP PUSH2 0x560 JUMP JUMPDEST DUP1 PUSH1 0x6 SLOAD PUSH2 0x55D SWAP2 SWAP1 PUSH2 0x8C3 JUMP JUMPDEST SWAP1 POP JUMPDEST PUSH1 0x1 PUSH1 0x5 SLOAD PUSH1 0x4 SLOAD PUSH2 0x572 SWAP2 SWAP1 PUSH2 0x813 JUMP JUMPDEST PUSH2 0x57C SWAP2 SWAP1 PUSH2 0x813 JUMP JUMPDEST DUP2 LT PUSH2 0x58B JUMPI PUSH2 0x58A PUSH2 0x93F JUMP JUMPDEST JUMPDEST PUSH1 0x5 SLOAD PUSH1 0x4 SLOAD PUSH2 0x59B SWAP2 SWAP1 PUSH2 0x869 JUMP JUMPDEST PUSH1 0x6 DUP2 SWAP1 SSTORE POP POP JUMP JUMPDEST PUSH1 0x0 DUP2 MLOAD SWAP1 POP PUSH2 0x5B3 DUP2 PUSH2 0xA6F JUMP JUMPDEST SWAP3 SWAP2 POP POP JUMP JUMPDEST PUSH1 0x0 DUP2 CALLDATALOAD SWAP1 POP PUSH2 0x5C8 DUP2 PUSH2 0xA86 JUMP JUMPDEST SWAP3 SWAP2 POP POP JUMP JUMPDEST PUSH1 0x0 PUSH1 0x20 DUP3 DUP5 SUB SLT ISZERO PUSH2 0x5E4 JUMPI PUSH2 0x5E3 PUSH2 0x99D JUMP JUMPDEST JUMPDEST PUSH1 0x0 PUSH2 0x5F2 DUP5 DUP3 DUP6 ADD PUSH2 0x5A4 JUMP JUMPDEST SWAP2 POP POP SWAP3 SWAP2 POP POP JUMP JUMPDEST PUSH1 0x0 PUSH1 0x20 DUP3 DUP5 SUB SLT ISZERO PUSH2 0x611 JUMPI PUSH2 0x610 PUSH2 0x99D JUMP JUMPDEST JUMPDEST PUSH1 0x0 PUSH2 0x61F DUP5 DUP3 DUP6 ADD PUSH2 0x5B9 JUMP JUMPDEST SWAP2 POP POP SWAP3 SWAP2 POP POP JUMP JUMPDEST PUSH2 0x631 DUP2 PUSH2 0x8F7 JUMP JUMPDEST DUP3 MSTORE POP POP JUMP JUMPDEST PUSH1 0x0 PUSH2 0x644 PUSH1 0x18 DUP4 PUSH2 0x802 JUMP JUMPDEST SWAP2 POP PUSH2 0x64F DUP3 PUSH2 0x9A2 JUMP JUMPDEST PUSH1 0x20 DUP3 ADD SWAP1 POP SWAP2 SWAP1 POP JUMP JUMPDEST PUSH1 0x0 PUSH2 0x667 PUSH1 0x1B DUP4 PUSH2 0x802 JUMP JUMPDEST SWAP2 POP PUSH2 0x672 DUP3 PUSH2 0x9CB JUMP JUMPDEST PUSH1 0x20 DUP3 ADD SWAP1 POP SWAP2 SWAP1 POP JUMP JUMPDEST PUSH1 0x0 PUSH2 0x68A PUSH1 0x18 DUP4 PUSH2 0x802 JUMP JUMPDEST SWAP2 POP PUSH2 0x695 DUP3 PUSH2 0x9F4 JUMP JUMPDEST PUSH1 0x20 DUP3 ADD SWAP1 POP SWAP2 SWAP1 POP JUMP JUMPDEST PUSH1 0x0 PUSH2 0x6AD PUSH1 0x20 DUP4 PUSH2 0x802 JUMP JUMPDEST SWAP2 POP PUSH2 0x6B8 DUP3 PUSH2 0xA1D JUMP JUMPDEST PUSH1 0x20 DUP3 ADD SWAP1 POP SWAP2 SWAP1 POP JUMP JUMPDEST PUSH1 0x0 PUSH2 0x6D0 PUSH1 0x17 DUP4 PUSH2 0x802 JUMP JUMPDEST SWAP2 POP PUSH2 0x6DB DUP3 PUSH2 0xA46 JUMP JUMPDEST PUSH1 0x20 DUP3 ADD SWAP1 POP SWAP2 SWAP1 POP JUMP JUMPDEST PUSH2 0x6EF DUP2 PUSH2 0x935 JUMP JUMPDEST DUP3 MSTORE POP POP JUMP JUMPDEST PUSH1 0x0 PUSH1 0x20 DUP3 ADD SWAP1 POP PUSH2 0x70A PUSH1 0x0 DUP4 ADD DUP5 PUSH2 0x628 JUMP JUMPDEST SWAP3 SWAP2 POP POP JUMP JUMPDEST PUSH1 0x0 PUSH1 0x60 DUP3 ADD SWAP1 POP PUSH2 0x725 PUSH1 0x0 DUP4 ADD DUP7 PUSH2 0x628 JUMP JUMPDEST PUSH2 0x732 PUSH1 0x20 DUP4 ADD DUP6 PUSH2 0x628 JUMP JUMPDEST PUSH2 0x73F PUSH1 0x40 DUP4 ADD DUP5 PUSH2 0x6E6 JUMP JUMPDEST SWAP5 SWAP4 POP POP POP POP JUMP JUMPDEST PUSH1 0x0 PUSH1 0x20 DUP3 ADD SWAP1 POP DUP2 DUP2 SUB PUSH1 0x0 DUP4 ADD MSTORE PUSH2 0x760 DUP2 PUSH2 0x637 JUMP JUMPDEST SWAP1 POP SWAP2 SWAP1 POP JUMP JUMPDEST PUSH1 0x0 PUSH1 0x20 DUP3 ADD SWAP1 POP DUP2 DUP2 SUB PUSH1 0x0 DUP4 ADD MSTORE PUSH2 0x780 DUP2 PUSH2 0x65A JUMP JUMPDEST SWAP1 POP SWAP2 SWAP1 POP JUMP JUMPDEST PUSH1 0x0 PUSH1 0x20 DUP3 ADD SWAP1 POP DUP2 DUP2 SUB PUSH1 0x0 DUP4 ADD MSTORE PUSH2 0x7A0 DUP2 PUSH2 0x67D JUMP JUMPDEST SWAP1 POP SWAP2 SWAP1 POP JUMP JUMPDEST PUSH1 0x0 PUSH1 0x20 DUP3 ADD SWAP1 POP DUP2 DUP2 SUB PUSH1 0x0 DUP4 ADD MSTORE PUSH2 0x7C0 DUP2 PUSH2 0x6A0 JUMP JUMPDEST SWAP1 POP SWAP2 SWAP1 POP JUMP JUMPDEST PUSH1 0x0 PUSH1 0x20 DUP3 ADD SWAP1 POP DUP2 DUP2 SUB PUSH1 0x0 DUP4 ADD MSTORE PUSH2 0x7E0 DUP2 PUSH2 0x6C3 JUMP JUMPDEST SWAP1 POP SWAP2 SWAP1 POP JUMP JUMPDEST PUSH1 0x0 PUSH1 0x20 DUP3 ADD SWAP1 POP PUSH2 0x7FC PUSH1 0x0 DUP4 ADD DUP5 PUSH2 0x6E6 JUMP JUMPDEST SWAP3 SWAP2 POP POP JUMP JUMPDEST PUSH1 0x0 DUP3 DUP3 MSTORE PUSH1 0x20 DUP3 ADD SWAP1 POP SWAP3 SWAP2 POP POP JUMP JUMPDEST PUSH1 0x0 PUSH2 0x81E DUP3 PUSH2 0x935 JUMP JUMPDEST SWAP2 POP PUSH2 0x829 DUP4 PUSH2 0x935 JUMP JUMPDEST SWAP3 POP DUP3 PUSH32 0xFFFFFFFFFFFFFFFFFFFFFFFFFFFFFFFFFFFFFFFFFFFFFFFFFFFFFFFFFFFFFFFF SUB DUP3 GT ISZERO PUSH2 0x85E JUMPI PUSH2 0x85D PUSH2 0x96E JUMP JUMPDEST JUMPDEST DUP3 DUP3 ADD SWAP1 POP SWAP3 SWAP2 POP POP JUMP JUMPDEST PUSH1 0x0 PUSH2 0x874 DUP3 PUSH2 0x935 JUMP JUMPDEST SWAP2 POP PUSH2 0x87F DUP4 PUSH2 0x935 JUMP JUMPDEST SWAP3 POP DUP2 PUSH32 0xFFFFFFFFFFFFFFFFFFFFFFFFFFFFFFFFFFFFFFFFFFFFFFFFFFFFFFFFFFFFFFFF DIV DUP4 GT DUP3 ISZERO ISZERO AND ISZERO PUSH2 0x8B8 JUMPI PUSH2 0x8B7 PUSH2 0x96E JUMP JUMPDEST JUMPDEST DUP3 DUP3 MUL SWAP1 POP SWAP3 SWAP2 POP POP JUMP JUMPDEST PUSH1 0x0 PUSH2 0x8CE DUP3 PUSH2 0x935 JUMP JUMPDEST SWAP2 POP PUSH2 0x8D9 DUP4 PUSH2 0x935 JUMP JUMPDEST SWAP3 POP DUP3 DUP3 LT ISZERO PUSH2 0x8EC JUMPI PUSH2 0x8EB PUSH2 0x96E JUMP JUMPDEST JUMPDEST DUP3 DUP3 SUB SWAP1 POP SWAP3 SWAP2 POP POP JUMP JUMPDEST PUSH1 0x0 PUSH2 0x902 DUP3 PUSH2 0x915 JUMP JUMPDEST SWAP1 POP SWAP2 SWAP1 POP JUMP JUMPDEST PUSH1 0x0 DUP2 ISZERO ISZERO SWAP1 POP SWAP2 SWAP1 POP JUMP JUMPDEST PUSH1 0x0 PUSH20 0xFFFFFFFFFFFFFFFFFFFFFFFFFFFFFFFFFFFFFFFF DUP3 AND SWAP1 POP SWAP2 SWAP1 POP JUMP JUMPDEST PUSH1 0x0 DUP2 SWAP1 POP SWAP2 SWAP1 POP JUMP JUMPDEST PUSH32 0x4E487B7100000000000000000000000000000000000000000000000000000000 PUSH1 0x0 MSTORE PUSH1 0x1 PUSH1 0x4 MSTORE PUSH1 0x24 PUSH1 0x0 REVERT JUMPDEST PUSH32 0x4E487B7100000000000000000000000000000000000000000000000000000000 PUSH1 0x0 MSTORE PUSH1 0x11 PUSH1 0x4 MSTORE PUSH1 0x24 PUSH1 0x0 REVERT JUMPDEST PUSH1 0x0 DUP1 REVERT JUMPDEST PUSH32 0x4E6565642045544820746F2063726561746520706F6F6C2E0000000000000000 PUSH1 0x0 DUP3 ADD MSTORE POP JUMP JUMPDEST PUSH32 0x4E65656420746F6B656E7320746F2063726561746520706F6F6C2E0000000000 PUSH1 0x0 DUP3 ADD MSTORE POP JUMP JUMPDEST PUSH32 0x546F6B656E20726573657276657320776173206E6F7420300000000000000000 PUSH1 0x0 DUP3 ADD MSTORE POP JUMP JUMPDEST PUSH32 0x4F776E61626C653A2063616C6C6572206973206E6F7420746865206F776E6572 PUSH1 0x0 DUP3 ADD MSTORE POP JUMP JUMPDEST PUSH32 0x45544820726573657276657320776173206E6F7420302E000000000000000000 PUSH1 0x0 DUP3 ADD MSTORE POP JUMP JUMPDEST PUSH2 0xA78 DUP2 PUSH2 0x909 JUMP JUMPDEST DUP2 EQ PUSH2 0xA83 JUMPI PUSH1 0x0 DUP1 REVERT JUMPDEST POP JUMP JUMPDEST PUSH2 0xA8F DUP2 PUSH2 0x935 JUMP JUMPDEST DUP2 EQ PUSH2 0xA9A JUMPI PUSH1 0x0 DUP1 REVERT JUMPDEST POP JUMP INVALID LOG2 PUSH5 0x6970667358 0x22 SLT KECCAK256 0xD9 SWAP3 0x1E EXTCODEHASH 0xA9 0xC MSTORE PUSH7 0x9EFF56EB77183D 0xCD COINBASE PUSH20 0xB03E555BC1F2B158F404E833884464736F6C6343 STOP ADDMOD SMOD STOP CALLER "
		},
		"gasEstimates": {
			"creation": {
				"codeDepositCost": "554200",
				"executionCost": "112646",
				"totalCost": "666846"
			},
			"external": {
				"addLiquidity()": "186",
				"admin()": "2624",
				"amountETHGivenToken(uint256)": "infinite",
				"amountTokenGivenETH(uint256)": "infinite",
				"createPool(uint256)": "infinite",
				"eth_reserves()": "2496",
				"k()": "2429",
				"removeAllLiquidity()": "165",
				"removeLiquidity(uint256)": "493",
				"swapETHForTokens()": "infinite",
				"swapTokensForETH(uint256)": "infinite",
				"token_reserves()": "2518"
			},
			"internal": {
				"_checkRounding()": "infinite"
			}
		},
		"methodIdentifiers": {
			"addLiquidity()": "e8078d94",
			"admin()": "f851a440",
			"amountETHGivenToken(uint256)": "eeddd4f6",
			"amountTokenGivenETH(uint256)": "156ac5ca",
			"createPool(uint256)": "8259e6a0",
			"eth_reserves()": "97ba499f",
			"k()": "b4f40c61",
			"removeAllLiquidity()": "88a780e5",
			"removeLiquidity(uint256)": "9c8f9f23",
			"swapETHForTokens()": "d592cbf6",
			"swapTokensForETH(uint256)": "e56a645e",
			"token_reserves()": "9adb3b97"
		}
	},
	"abi": [
		{
			"inputs": [],
			"stateMutability": "nonpayable",
			"type": "constructor"
		},
		{
			"anonymous": false,
			"inputs": [
				{
					"indexed": false,
					"internalType": "address",
					"name": "from",
					"type": "address"
				},
				{
					"indexed": false,
					"internalType": "uint256",
					"name": "amount",
					"type": "uint256"
				}
			],
			"name": "AddLiquidity",
			"type": "event"
		},
		{
			"anonymous": false,
			"inputs": [
				{
					"indexed": false,
					"internalType": "address",
					"name": "to",
					"type": "address"
				},
				{
					"indexed": false,
					"internalType": "uint256",
					"name": "amount",
					"type": "uint256"
				}
			],
			"name": "RemoveLiquidity",
			"type": "event"
		},
		{
			"inputs": [],
			"name": "addLiquidity",
			"outputs": [],
			"stateMutability": "payable",
			"type": "function"
		},
		{
			"inputs": [],
			"name": "admin",
			"outputs": [
				{
					"internalType": "address",
					"name": "",
					"type": "address"
				}
			],
			"stateMutability": "view",
			"type": "function"
		},
		{
			"inputs": [
				{
					"internalType": "uint256",
					"name": "amountETH",
					"type": "uint256"
				}
			],
			"name": "amountETHGivenToken",
			"outputs": [
				{
					"internalType": "uint256",
					"name": "",
					"type": "uint256"
				}
			],
			"stateMutability": "view",
			"type": "function"
		},
		{
			"inputs": [
				{
					"internalType": "uint256",
					"name": "amountToken",
					"type": "uint256"
				}
			],
			"name": "amountTokenGivenETH",
			"outputs": [
				{
					"internalType": "uint256",
					"name": "",
					"type": "uint256"
				}
			],
			"stateMutability": "view",
			"type": "function"
		},
		{
			"inputs": [
				{
					"internalType": "uint256",
					"name": "amountTokens",
					"type": "uint256"
				}
			],
			"name": "createPool",
			"outputs": [],
			"stateMutability": "payable",
			"type": "function"
		},
		{
			"inputs": [],
			"name": "eth_reserves",
			"outputs": [
				{
					"internalType": "uint256",
					"name": "",
					"type": "uint256"
				}
			],
			"stateMutability": "view",
			"type": "function"
		},
		{
			"inputs": [],
			"name": "k",
			"outputs": [
				{
					"internalType": "uint256",
					"name": "",
					"type": "uint256"
				}
			],
			"stateMutability": "view",
			"type": "function"
		},
		{
			"inputs": [],
			"name": "removeAllLiquidity",
			"outputs": [],
			"stateMutability": "payable",
			"type": "function"
		},
		{
			"inputs": [
				{
					"internalType": "uint256",
					"name": "amountETH",
					"type": "uint256"
				}
			],
			"name": "removeLiquidity",
			"outputs": [],
			"stateMutability": "payable",
			"type": "function"
		},
		{
			"inputs": [],
			"name": "swapETHForTokens",
			"outputs": [],
			"stateMutability": "payable",
			"type": "function"
		},
		{
			"inputs": [
				{
					"internalType": "uint256",
					"name": "amountTokens",
					"type": "uint256"
				}
			],
			"name": "swapTokensForETH",
			"outputs": [],
			"stateMutability": "payable",
			"type": "function"
		},
		{
			"inputs": [],
			"name": "token_reserves",
			"outputs": [
				{
					"internalType": "uint256",
					"name": "",
					"type": "uint256"
				}
			],
			"stateMutability": "view",
			"type": "function"
		}
	]
}